:100000000C9414620C94B5DA0C948ADA0C945FDACE
:100010000C9434DA0C9409DA0C94DED90C94B3D92C
:100020000C9488D90C94ABFB0C9419D90C94A3D8DC
:100030000C9445620C94D1660C9445620C94456214
:100040000C9445620C9445620C9445620C94456294
:100050000C9445620C94F3620C9445620D94421525
:100060000C9445620C9495F60C946BF60C944562D6
:100070000C9445620C9445620C9445620C94456264
:100080000C9445620C9445620C9445620C94456254
:100090000C9441F60C9417F60C9445620C9487FA74
:1000A0000C9445620C9445620C9445620C94456234
:1000B0000C9445620C9445620C9445620C94456224
:1000C0000C9445620C9445620C9445620C94EDF5D9
:1000D0000C94C3F50C9445620C9499F50C946FF54F
:1000E0000C94456208000000BE922449123EABAA5F
:1000F000AA2ABECDCCCC4C3E00000080BEABAAAA42
:10010000AA3E00000000BF000000803F0000000089
:1001100000084178D3BB4387D1133D190E3CC3BDC2
:100120004282AD2B3E68EC8276BED98FE1A93E4C6F
:1001300080EFFFBE01C4FF7F3F00000000000C9471
:1001400007EC0D942A0D0D942F8B0D949DA20C9409
:1001500063FF0C9424FF0C9442EE0D94298B0C94B5
:100160002AEE0C9443FF0C944DC10C94C5EA0D94F7
:10017000BB0C0C94CEED0C94CDEA0D94278B0D9412
:100180002D8B0C94F3620C94B6EE0C944BFF0D94F3
:10019000E90C0D942B8B0C943DFF0D940C0D0C94DD
:1001A00039FF0D94B10C0C945FFF0C94CBEA0C94C6
:1001B000DAEE0C943FE90C9408EA0C94FBED0C94F5
:1001C0000EEC0C9489C10C9442E90C94A9E90C94AE
:1001D00044EB0D94368B0C9440E90D94F30C0D9484
:1001E000D50C0C942CFF0C9499EB0C94B7C10C9487
:1001F0001EFF0D943D870D94DF0C0C9423EB0D94A2
:10020000200D0C942CEF0C9415EC0D94340D0C94E3
:10021000BBF80C949EEE0C9496E90C9455EA0C9461
:100220002AEC0D94C50C0C94B4ED0C94D7EE0C9400
:1002300078EB0C94C3EA0C94CBEB0D94CD0C0D949D
:100240009A0C0C9430FF0D94020D0C9433FF0C9417
:10025000C7ED0C9428FF0C9451FF0C9447FF0C94AD
:100260009AEA0C9400EC0C94F8EB0C94E1EB0C94EF
:1002700087E90D94D4880D94258B0C940EEF0C9483
:10028000C7EA0D94160D0D94A20C0D94A70C0C94B6
:1002900059FF0C94BFEA0C94C1EA0C94C9EA0C947F
:1002A0001CEC0C949BEF0C9455FF0C94A4ED0C9457
:1002B000B7E90C945EFF0C9423EC0C946BC10C9486
:1002C000A5ED4E414E494E495459494E46CDCCCCF0
:1002D0003D0AD7233C17B7D13877CC2B329595E61A
:1002E000241FB14F0A000020410000C84200401CFA
:1002F0004620BCBE4CCA1B0E5AAEC59D7400407A47
:1003000010F35A00A0724E18090010A5D4E800009E
:10031000E87648170000E40B54020000CA9A3B003C
:100320000000E1F505000080969800000040420FB3
:10033000000000A08601000000102700000000E877
:1003400003000000006400000000000A000000003C
:10035000000100000000002C76D888DC674F0823DD
:10036000DFC1DFAE59E1B1B796E5E3E453C63AE643
:1003700051997696E8E6C28426EB898C9B62ED4023
:100380007C6FFCEFBC9C9F40F2BAA56FA5F4900572
:100390005A2AF75C936B6CF9676DC11BFCE0E40DA6
:1003A00047FEF520E6B500D0ED902E03009435779A
:1003B000050080841E080000204E0A000000C80CC2
:1003C000333333330F986E12831141EF8D2114892B
:1003D0003BE65516CFFEE6DB18D1844B381BF77C85
:1003E0001D901DA4BBE424203284725E228100C9CA
:1003F000F124ECA1E53D27416D6F756E745F446992
:100400007370656E7365643A09005765696768744F
:100410002041667465722031207365633A09005784
:1004200065696768742041667465723A0900446FB3
:100430006E6500526576657273696E67005765690F
:10044000676874204265666F72653A090005C704E3
:1004500000FE04D3040004C8040005C90400000819
:10046000C6040800F2900005C704000105C7040097
:10047000EE07C60408FFEE0105C704005E07C604C8
:1004800008FF5E0105C704000807C60408FF08014D
:1004900005C704008A07C60408FF8A0007C60408C7
:1004A000FF8A0805C70400C907C60408FFC903047A
:1004B000D0040004E9040004A304005265717565CA
:1004C0007374506172616D004361706162696C693F
:1004D000746965730044656661756C740044697382
:1004E00061626C654F6E5A65627261004469736146
:1004F000626C654F6E474D363700436865636B4FDE
:100500007468657200436865636B454500506163BC
:100510006B65747300436865636B4E52004E526D99
:100520006573736167657300436865636B31323867
:1005300000456E61626C6531323800436865636BFB
:100540004D6F646500427574746F6E486F6C6469BA
:100550006E6700486F73744D6F6465004368656330
:100560006B42006272696768746E65737333004131
:10057000434B00456E61626C650052657600554ED6
:100580004B4E4F574E005249474854004C45465435
:10059000004F5554455200494E4E4552002C2050B4
:1005A000617273656420446174613A20004D657323
:1005B0007361676520547970653A2030780045761C
:1005C000656E743A20000A00556E6B6E6F776E2070
:1005D0004576656E7420436F64653A203078004F2D
:1005E0007665722054656D70657261747572650010
:1005F00053797374656D204661696C75726500424C
:100600006F6F747570004E414B0041434B00426167
:1006100072636F646520747970653A20002C204203
:100620006172636F64653A20005A656272612C20C2
:100630004669726D776172652056657273696F6E77
:100640003A2000556E6B6E6F776E00474D36372C33
:1006500020534E3A00532F4E3A00556E6B6E6F7713
:100660006E004D6F64656C005B496E76616C696409
:1006700020436865636B73756D5D0053656E742010
:1006800041434B20746F20426172636F6465205355
:1006900063616E6E657220666F722056616C69646C
:1006A000204D6573736167650041434B004E5200F6
:1006B000426172636F64653A00426172636F6465A0
:1006C0003A004D65737361676520547970653A200F
:1006D000307846330052656164206F6E20003A2006
:1006E000002E20496E76616C6964204D65737361DC
:1006F00067653A20005265616420417474656D70CD
:1007000074206F6E200072657475726E65643A2095
:1007100054696D656F7574206F7220496E636F6DDB
:10072000706C65746520526573706F6E73650A0036
:100730005363616E6E65723A20002C2057617320FE
:1007400073656E74206D6573736167653A20002C64
:100750002000556E6B6E6F776E206D6573736167E9
:10076000653A20005E6C656674646F6F725F6F70CF
:10077000656E65643A307C3A24005E6C656674642C
:100780006F6F725F6F70656E65643A307C3A2400FB
:100790005E6C656674646F6F725F636C6F736564C3
:1007A0003A307C3A24005E6C656674646F6F725FE9
:1007B000636C6F7365643A307C3A24005E726967DB
:1007C0006874646F6F725F6F70656E65643A307CD9
:1007D0003A24005E7269676874646F6F725F6F704D
:1007E000656E65643A307C3A24005E7269676874AD
:1007F000646F6F725F636C6F7365643A307C3A2428
:10080000005E7269676874646F6F725F636C6F73A8
:1008100065643A307C3A24003A200020616E6420FE
:1008200000414C4552543A204475706C69636174C0
:100830006520626172636F646520666F756E642007
:10084000696E20736C6F74732000656D707479002D
:100850003A24003A24002C3130323D002C31303221
:100860003D002C3130313D002C3130313D003D0018
:100870003D656D707479005E7363616E5F616C6C71
:100880005F726573703A327C6661696C7572653A45
:10089000005E7363616E5F616C6C5F726573703A6A
:1008A000327C6661696C7572653A005E7363616E75
:1008B0005F616C6C5F726573703A327C73756363F1
:1008C0006573733A005E7363616E5F616C6C5F7237
:1008D0006573703A327C737563636573733A005E57
:1008E0007363616E5F616C6C5F726573703A327CCA
:1008F000696E7374616C6C6D6F64653A005E7363EE
:10090000616E5F616C6C5F726573703A327C696EA8
:100910007374616C6C6D6F64653A00446174613A24
:100920002041434B0053657474696E672070617297
:10093000616D20666F722000474D36370052657634
:10094000206661696C65642E20536B697070696EF6
:1009500067206675727468657220636F6E6669677A
:1009600020666F722074686973207363616E6E65B0
:10097000722E0054696D656F7574206F7220496E18
:10098000636F6D706C65746520526573706F6E7304
:1009900065005265760052464944207261772064B2
:1009A0006174613A200052464944206361726420B8
:1009B0006E756D6265723A20002C20466F756E640C
:1009C000203D2000524649444C6F6F702000436820
:1009D00065636B696E6720524649442053656E73A8
:1009E0006F723A00206F6620000A0A4379636C65D3
:1009F0002000414C4552543A205269676874507542
:100A00006D70426172636F64654F7665727269647E
:100A100065206973204F4E2E20446F6E2774206628
:100A20006F7267657420746F207475726E206F66C4
:100A300066206F6E63652066697865642E00414CA0
:100A40004552543A204C65667450756D704261721F
:100A5000636F64654F76657272696465206973209F
:100A60004F4E2E20446F6E277420666F7267657438
:100A700020746F207475726E206F6666206F6E63CF
:100A8000652066697865642E00414C4552543A20D1
:100A9000576970657220537769746368204F766573
:100AA0007272696465206973204F4E2E20446F6E08
:100AB000277420666F7267657420746F2074757276
:100AC0006E206F6666206F6E636520666978656468
:100AD0002E00414C4552543A2052464944204F760C
:100AE000657272696465206973204F4E2E20446FD1
:100AF0006E277420666F7267657420746F2074753A
:100B0000726E206F6666206F6E6365206669786519
:100B1000642E00414C4552543A2053797374656DEC
:100B20004865616C7468204661696C7572652C203B
:100B3000496E76616C69642054616E6B2053656EFA
:100B4000736F72205374617465203D204869676833
:100B500020776974686F7574204D696400414C4555
:100B600052543A2053797374656D4865616C7468AA
:100B7000204661696C7572652C20496E76616C69DE
:100B8000642054616E6B2053656E736F72205374D2
:100B9000617465203D204869676820616E64204D5E
:100BA000696420776974686F7574204C6F770041B1
:100BB0004C4552543A2053797374656D4865616CA5
:100BC0007468204661696C7572652C20496E766187
:100BD0006C69642054616E6B2053656E736F722074
:100BE0005374617465203D20486967682077697493
:100BF000686F7574204D696420616E64204C6F7756
:100C000000414C4552543A2053797374656D4865E0
:100C1000616C7468204661696C7572652C20496E40
:100C200076616C69642054616E6B2053656E736FDE
:100C300072205374617465203D204D69642077698A
:100C400074686F7574204C6F7700414C4552543A6C
:100C50002053797374656D4865616C7468204661D2
:100C6000696C7572652C20526967687450756D7077
:100C7000426172636F6465476F6F64203D2000417D
:100C80004C4552543A2053797374656D4865616CD4
:100C90007468204661696C7572652C204C656674B9
:100CA00050756D70426172636F6465476F6F642049
:100CB0003D2000414C4552543A2053797374656D80
:100CC0004865616C7468204661696C7572652C209A
:100CD0004F75746572426172636F6465476F6F64CC
:100CE000203D2000414C4552543A2053797374659D
:100CF0006D4865616C7468204661696C7572652C1D
:100D000020496E6E6572426172636F6465476F6FF2
:100D100064203D2000414C4552543A20537973746D
:100D2000656D4865616C7468204661696C757265B3
:100D30002C2044697374616E636553656E736F72C2
:100D4000476F6F64203D2000414C4552543A205378
:100D5000797374656D4865616C7468204661696C6F
:100D60007572652C204C6F616443656C6C53656EC5
:100D7000736F72476F6F64203D2000414C455254A1
:100D80003A2053797374656D4865616C74682046C8
:100D900061696C7572652C204163747561746F7242
:100DA000486F6D696E67476F6F64203D2000414C4E
:100DB0004552543A2053797374656D4865616C747B
:100DC00068204661696C7572652C20416374756199
:100DD000746F724F7574657255704F70746F476F92
:100DE0006F64203D2000414C4552543A20537973A2
:100DF00074656D4865616C7468204661696C7572D4
:100E0000652C204163747561746F72496E6E6572F2
:100E100055704F70746F476F6F64203D2000414CD8
:100E20004552543A2053797374656D4865616C740A
:100E300068204661696C7572652C20416374756128
:100E4000746F724D6F746F72456E636F6465724735
:100E50006F6F64203D2000414C4552543A20537935
:100E60007374656D4865616C7468204661696C7562
:100E700072652C204163747561746F724D6F746F6D
:100E800072476F6F64203D2000414C4552543A2018
:100E900053797374656D4865616C74682046616947
:100EA0006C7572652C204361726F7573656C486F49
:100EB0006D696E67476F6F64203D2000414C45525D
:100EC000543A2053797374656D4865616C74682079
:100ED0004661696C7572652C204361726F7573652C
:100EE0006C43656E746572456E636F646572476FBF
:100EF0006F64203D2000414C4552543A2053797391
:100F000074656D4865616C7468204661696C7572C2
:100F1000652C204361726F7573656C4D6F746F72D1
:100F2000456E636F646572476F6F64203D200041BA
:100F30004C4552543A2053797374656D4865616C21
:100F40007468204661696C7572652C204361726F0C
:100F50007573656C4D6F746F72476F6F64203D20C1
:100F600000414C4552543A2053797374656D48657D
:100F7000616C7468204661696C7572652C204361F0
:100F8000726F7573656C486F6D654F70746F476FE6
:100F90006F64203D2000414C4552543A204469730F
:100FA00070656E7365722069732063757272656E09
:100FB000746C7920696E20496E7374616C6C4D6F2E
:100FC00064652E20204E6F7420617474656D70749A
:100FD000696E6720746F20686F6D65206361726F42
:100FE0007573656C207965742E005269676874505A
:100FF000756D70426172636F6465476F6F64203D09
:1010000020004C65667450756D70426172636F6448
:1010100065476F6F64203D20004F757465724261B3
:1010200072636F6465476F6F64203D2000496E6E88
:101030006572426172636F6465476F6F64203D2023
:10104000005246494453656E736F72476F6F642058
:101050003D200044697374616E636553656E736F00
:1010600072476F6F64203D20004C6F616443656C74
:101070006C53656E736F72476F6F64203D20004143
:1010800063747561746F72486F6D696E67476F6FD7
:1010900064203D20004163747561746F724F7574F4
:1010A000657255704F70746F476F6F64203D2000FC
:1010B0004163747561746F72496E6E657255704FDD
:1010C00070746F476F6F64203D20004163747561D9
:1010D000746F724D6F746F72456E636F64657247A3
:1010E0006F6F64203D20004163747561746F724DB1
:1010F0006F746F72476F6F64203D20004361726FA1
:101100007573656C486F6D696E67476F6F64203DDE
:1011100020004361726F7573656C43656E74657210
:10112000456E636F646572476F6F64203D200043B6
:1011300061726F7573656C4D6F746F72456E636F1E
:10114000646572476F6F64203D20004361726F7564
:1011500073656C4D6F746F72476F6F64203D200034
:101160004361726F7573656C486F6D654F70746F16
:10117000476F6F64203D20005E646F6F725F6F7019
:10118000656E65643A307C3A24005E646F6F725F0E
:101190006F70656E65643A307C3A24005E646F6FF0
:1011A000725F636C6F7365643A307C3A24005E64EE
:1011B0006F6F725F636C6F7365643A307C3A2400C2
:1011C00052657363616E204C6566746F766572203C
:1011D0003D200052657363616E2057726170203D3F
:1011E000200052657363616E204C6566746F76658E
:1011F00072203D200052657363616E204E6F205750
:10120000726170203D200052657363616E204C65F1
:1012100066746F766572203D200052657363616E5F
:101220002057726170203D200052657363616E200B
:101230004C6566746F766572203D2000526573635D
:10124000616E204E6F2057726170203D2000526504
:101250007363616E20416C6C203D20005E74616E92
:101260006B646F6F725F6F70656E65643A307C3A65
:1012700024005E74616E6B646F6F725F6F70656E79
:1012800065643A307C3A24005E74616E6B646F6F03
:10129000725F636C6F7365643A307C3A24005E74ED
:1012A000616E6B646F6F725F636C6F7365643A300D
:1012B0007C3A24005E6F76657266696C6C5F64656B
:1012C0007465637465643A307C3A24005E6F7665B9
:1012D0007266696C6C5F64657465637465643A30EA
:1012E0007C3A24005E70617573653A005E726573C6
:1012F00065743A005E63616E63656C3A005E7061AE
:101300007573653A005E72657365743A005E636179
:101310006E63656C3A003A24005E6F7665723A310E
:101320007C003A24005E6F7665723A317C003A2484
:10133000005E6D6973733A317C003A24005E6D691A
:1013400073733A317C003A24005E7365745F736393
:10135000616C655F6C6564735F726573703A327C53
:10136000737563636573733A003A24005E73657442
:101370005F7363616C655F6C6564735F72657370E6
:101380003A327C737563636573733A007365745F97
:101390007363616C655F6C6564730077686974651D
:1013A000006D61787768697465006F6666006669CC
:1013B0006E697368656400616C657274006469735A
:1013C00070656E73696E67006469737000626F7731
:1013D0006C006163746976650069646C65005661D0
:1013E0006C7565207061737365643D00496E207390
:1013F00065745F7363616C655F6C65647321003A4B
:1014000024005E64656D6F5F726573703A327C7341
:101410007563636573733A003A24005E64656D6FAB
:101420005F726573703A327C737563636573733A88
:101430000064656D6F0056616C7565207061737333
:1014400065643D00496E2064656D6F2066756E634E
:1014500074696F6E21005E70696E673A307C3A2461
:10146000005E70696E673A307C3A2400416D6F759A
:101470006E745F44697370656E7365643A090057F2
:1014800065696768742041667465722031207365F0
:10149000633A09005765696768742041667465722C
:1014A0003A0900446F6E6500526576657273696E25
:1014B0006700576569676874204265666F72653AB0
:1014C0000900537465707065722050756D7020440A
:1014D000726976657220506F736974696F6E20450A
:1014E00072726F72206F66200043757272656E743F
:1014F0002050756D70205374657070657220447251
:101500006976657220506F736974696F6E206F66BB
:1015100020002E2044697374616E636546726F6D9E
:10152000546172676574203D2000292043616C6C12
:1015300065642C2043757272656E7420506F7369F8
:1015400074696F6E203D2000476F546F506F736950
:1015500074696F6E280053746570706572205075E1
:101560006D702044726976657220506F736974697A
:101570006F6E204572726F72206F66200043757225
:1015800072656E742050756D70205374657070654F
:10159000722044726976657220506F736974696F46
:1015A0006E206F6620002E2044697374616E63653F
:1015B00046726F6D546172676574203D200029206A
:1015C00043616C6C65642C2043757272656E742087
:1015D000506F736974696F6E203D2000476F546FC0
:1015E000506F736974696F6E28003A24005E6469F5
:1015F0007370656E73655F74696D65645F72657342
:10160000703A327C737563636573733A003A2400F1
:101610005E64697370656E73655F74696D65645F40
:10162000726573703A327C737563636573733A00E5
:1016300064697370656E73655F74696D656400419C
:101640006674657220686F6D652061637475616C86
:101650002C20736574706F696E742C2070776D3AEE
:1016600000456E64696E67204163747561746F72C2
:101670002061637475616C2C20736574706F696E82
:10168000742C2070776D3A005374617274696E67C0
:10169000204163747561746F722061637475616C4D
:1016A0002C20736574706F696E742C2070776D3A9E
:1016B0000056616C7565207061737365643D0056FA
:1016C000616C7565207061737365643D00496E20BF
:1016D00064697370656E73652074696D656421005B
:1016E0005E646F6F725F756E6C6F636B5F72657354
:1016F000703A317C737563636573733A24005E647A
:101700006F6F725F756E6C6F636B5F726573703A4B
:10171000317C737563636573733A2400646F6F7211
:101720005F756E6C6F636B006C6F636B65640075E7
:101730006E6C6F636B6564006C6F636B65640075E2
:101740006E6C6F636B656400203D200041667465BC
:101750007220556E6C6F636B696E672C2052656CDE
:101760006F6164446F6F72556E6C6F636B53656E1F
:10177000736550696E203D2000203D200042656663
:101780006F726520556E6C6F636B696E672C2052AB
:10179000656C6F6164446F6F72556E6C6F636B53F1
:1017A000656E736550696E203D2000496E20646F40
:1017B0006F725F756E6C6F636B2066756E637469B4
:1017C0006F6E21005E636162696E65745F6C6F634A
:1017D0006B5F726573703A317C73756363657373A5
:1017E0003A24005E636162696E65745F6C6F636B5F
:1017F0005F726573703A317C737563636573733AB6
:101800002400636162696E65745F6C6F636B004195
:1018100066746572204C6F636B696E672C20457827
:101820007465726E616C446F6F72556E6C6F636B32
:1018300053656E736550696E3A20004265666F723B
:1018400065204C6F636B696E672C204578746572F8
:101850006E616C446F6F72556E6C6F636B53656E27
:10186000736550696E3A2000496E20636162696E4B
:1018700065745F6C6F636B2066756E6374696F6E01
:1018800021005E636162696E65745F756E6C6F6383
:101890006B5F726573703A317C73756363657373E4
:1018A0003A24005E636162696E65745F756E6C6F89
:1018B000636B5F726573703A317C737563636573D4
:1018C000733A2400636162696E65745F756E6C6F54
:1018D000636B00416674657220556E6C6F636B6953
:1018E0006E672C2045787465726E616C446F6F7200
:1018F000556E6C6F636B53656E736550696E3A20FD
:10190000004265666F726520556E6C6F636B696E21
:10191000672C2045787465726E616C446F6F7255E8
:101920006E6C6F636B53656E736550696E3A200021
:10193000496E20636162696E65745F756E6C6F637A
:101940006B2066756E6374696F6E2100636C6F73D4
:101950006564006F70656E003A2400636C6F736598
:1019600064006F70656E005E6C656674646F6F72A4
:101970005F7374617475735F726573703A317C0064
:101980003A24005E6C656674646F6F725F73746195
:101990007475735F726573703A317C006C65667440
:1019A000646F6F725F737461747573004C656674F5
:1019B000446F6F724F70656E203D2000636C6F73D3
:1019C0006564006F70656E003A2400636C6F736528
:1019D00064006F70656E005E7269676874646F6F33
:1019E000725F7374617475735F726573703A317C82
:1019F000003A24005E7269676874646F6F725F7387
:101A000074617475735F726573703A317C007269CA
:101A1000676874646F6F725F73746174757300527A
:101A200069676874446F6F724F70656E203D200067
:101A300072656D6F76656400696E73657274656456
:101A4000003A240072656D6F76656400696E736597
:101A500072746564005E77697065725F7374617437
:101A600075735F726573703A317C003A24005E775B
:101A7000697065725F7374617475735F726573709A
:101A80003A317C0077697065725F73746174757345
:101A9000004F766572726964655769706572537735
:101AA00069746368206973204F4E2C2073657474C9
:101AB000696E67205769706572496E7365727465E7
:101AC00064203D2054727565005769706572496ED7
:101AD000736572746564203D200072656D6F766574
:101AE0006400696E736572746564003A24007265FF
:101AF0006D6F76656400696E736572746564005E0F
:101B000064726970747261795F7374617475735F04
:101B1000726573703A317C003A24005E64726970B9
:101B2000747261795F7374617475735F72657370D9
:101B30003A317C0064726970747261795F737461A8
:101B4000747573004472697054726179496E73657B
:101B500072746564203D20006C6F636B6564007572
:101B60006E6C6F636B6564003A24006F70656E3A4B
:101B700000636C6F7365643A006C6F636B6564003F
:101B8000756E6C6F636B6564005E636162696E6540
:101B9000745F7374617475735F726573703A327CCD
:101BA000003A24006F70656E3A00636C6F73656471
:101BB0003A005E636162696E65745F737461747527
:101BC000735F726573703A327C006C6F636B65642F
:101BD00000756E6C6F636B656400636162696E654E
:101BE000745F737461747573006F70656E00636CFD
:101BF0006F73656400203D200045787465726E61E6
:101C00006C446F6F72556E6C6F636B53656E73656A
:101C100050696E203D2000203D2000436162696EC6
:101C20006574446F6F72436C6F736564203D200070
:101C30003A24005E74616E6B5F7374617475735FD8
:101C4000726573703A317C003A24005E74616E6B89
:101C50005F7374617475735F726573703A317C0081
:101C600074616E6B5F737461747573003A24007CE9
:101C70006661696C7572653A005E626172636F6479
:101C8000655F7374617475735F726573703A003A5F
:101C900024007C6661696C7572653A005E626172EF
:101CA000636F64655F7374617475735F726573707D
:101CB0003A003A24007C737563636573733A005E7F
:101CC000626172636F64655F7374617475735F7270
:101CD0006573703A003A24007C73756363657373AF
:101CE0003A005E626172636F64655F7374617475FC
:101CF000735F726573703A003A24005E706F7369A7
:101D000074696F6E5F63616E69737465725F72652B
:101D1000706C6163655F726573703A327C6661698D
:101D20006C7572653A003A24005E706F736974696D
:101D30006F6E5F63616E69737465725F7265706CFC
:101D40006163655F726573703A327C6661696C7558
:101D500072653A003A24005E706F736974696F6E41
:101D60005F63616E69737465725F7265706C6163E5
:101D7000655F726573703A327C7375636365737304
:101D80003A003A24005E706F736974696F6E5F6326
:101D9000616E69737465725F7265706C6163655FB3
:101DA000726573703A327C737563636573733A005E
:101DB000706F736974696F6E5F63616E6973746568
:101DC000725F7265706C6163650056616C75652049
:101DD0007061737365643D00496E20706F73697440
:101DE000696F6E2063616E697374657220726570CD
:101DF0006C6163652066756E6374696F6E2100495E
:101E00006E2070617573652066756E6374696F6EA0
:101E100021005E72657363616E5F737461727465D5
:101E2000643A307C3A24005E72657363616E5F735E
:101E30007461727465643A307C3A24005E72657332
:101E400063616E5F66696E69736865643A307C3A97
:101E500024005E72657363616E5F66696E697368A4
:101E600065643A307C3A2400414C4552543A20444F
:101E700055504C494341544520424152434F4445FB
:101E80002853292044455445435445442044555241
:101E9000494E472052455343414E5F43414E4953BB
:101EA0005445525321202052657475726E696E67D5
:101EB000207363616E5F616C6C5F72657370206626
:101EC00061696C75726520616E6420626C616E6B15
:101ED000696E67206F757420626172636F646573E9
:101EE0002E005E72657363616E5F63616E69737409
:101EF0006572735F726573703A317C6661696C7587
:101F000072653A24005E72657363616E5F63616E31
:101F10006973746572735F726573703A317C666160
:101F2000696C7572653A240048617665576553752A
:101F3000636365737366756C6C79486F6D65644334
:101F400061726F7573656C4265666F7265203D20C6
:101F500000486F6D654163747561746F725375638A
:101F6000636573734F6E53746172747570203D2096
:101F70000053616665546F526F746174654361729A
:101F80006F7573656C2829203D200052656C6F6168
:101F900064446F6F724F70656E203D20005E726505
:101FA0007363616E5F63616E6973746572735F7290
:101FB0006573703A317C737563636573733A24009B
:101FC0005E72657363616E5F63616E69737465727F
:101FD000735F726573703A317C7375636365737395
:101FE0003A24005E72657363616E5F63616E69734C
:101FF000746572735F726573703A317C6661696C87
:102000007572653A24005E72657363616E5F636129
:102010006E6973746572735F726573703A317C6652
:1020200061696C7572653A24002152656C6F616458
:10203000446F6F724F70656E20262620536166656F
:10204000546F526F746174654361726F7573656C20
:10205000282920262620486F6D65416374756174B8
:102060006F72537563636573734F6E5374617274EB
:102070007570202626204861766557655375636321
:1020800065737366756C6C79486F6D6564436172D6
:102090006F7573656C4265666F7265203D200055F3
:1020A0006E61626C6520746F2072657363616E206F
:1020B00063616E6973746572732064756520746FF3
:1020C000207468697320636865636B206661696C5E
:1020D000696E673A00547279696E6720746F2048A0
:1020E0006F6D654361726F7573656C2C2073696EDB
:1020F0006365206974206861736E2774207375634B
:102100006365737366756C6C7920686F6D656420A8
:102110007965742E00496E2072657363616E5F632A
:10212000616E6973746572732066756E6374696F2E
:102130006E2100626C61636B007768697465005E94
:1021400072657365745F726573703A317C73756321
:10215000636573733A24005E72657365745F7265BC
:1021600073703A317C737563636573733A24004905
:102170006E2072657365742066756E6374696F6E28
:1021800021005E63616E63656C5F726573703A31E6
:102190007C737563636573733A24005E63616E6379
:1021A000656C5F726573703A317C737563636573D8
:1021B000733A2400496E2063616E63656C20667516
:1021C0006E6374696F6E2100496E20726573756D60
:1021D000655F66756E6374696F6E2066756E637495
:1021E000696F6E21005E73797374656D5F636865F6
:1021F000636B5F726573703A317C7375636365738B
:10220000733A24005E73797374656D5F6368656308
:102210006B5F726573703A317C737563636573735A
:102220003A24005E73797374656D5F636865636BF0
:102230005F726573703A317C6661696C7572653A7C
:1022400024005E73797374656D5F636865636B5FAB
:10225000726573703A317C6661696C7572653A2497
:102260000073797374656D5F636865636B00496EB5
:102270002073797374656D5F636865636B20667541
:102280006E6374696F6E21005E72656164795F745C
:102290006F5F736869705F726573703A317C7375D4
:1022A00063636573733A24005E72656164795F7479
:1022B0006F5F736869705F726573703A317C7375B4
:1022C00063636573733A24005E72656164795F7459
:1022D0006F5F736869705F726573703A317C6661B5
:1022E000696C7572653A24005E72656164795F7429
:1022F0006F5F736869705F726573703A317C666195
:10230000696C7572653A240072656164795F746FF7
:102310005F7368697000496E2072656164795F74EB
:102320006F5F736869702066756E6374696F6E2184
:10233000005E72656164795F746F5F7573655F726B
:102340006573703A317C737563636573733A240007
:102350005E72656164795F746F5F7573655F7265E6
:1023600073703A317C737563636573733A24005EEE
:1023700072656164795F746F5F7573655F726573B1
:10238000703A317C6661696C7572653A24005E72E0
:10239000656164795F746F5F7573655F7265737093
:1023A0003A317C6661696C7572653A2400726561C8
:1023B00064795F746F5F75736500496E2072656143
:1023C00064795F746F5F7573652066756E63746999
:1023D0006F6E21003A24005E7374617475735F72CE
:1023E0006573703A317C003A24005E7374617475D1
:1023F000735F726573703A317C0054616E6B4C6F21
:102400007753656E736F72203D200054616E6B4D83
:10241000696453656E736F72203D200054616E6B6A
:102420004869676853656E736F72203D2000546180
:102430006E6B446F6F72556E6C6F636B53656E732A
:102440006550696E3D0054616E6B446F6F724F70E2
:10245000656E3D0052656C6F6164446F6F72556EBE
:102460006C6F636B53656E736550696E203D200021
:102470005769706572496E736572746564203D209A
:1024800000094163747561746F724F75746572559C
:10249000704F70746F203D20000941637475617442
:1024A0006F72496E6E657255704F70746F203D206B
:1024B000004163747561746F72456E636F64657219
:1024C000203D200041313420414D49532D333035DA
:1024D0003433205664642052656C6F6164446F6FBE
:1024E00072436C6F736564203D20004375727265A2
:1024F0006E74205765696768743A0900496E2073E5
:1025000074617475735F66756E6374696F6E20664F
:10251000756E6374696F6E21005E626F776C5F77B2
:1025200065696768745F726573703A327C7375634E
:10253000636573733A005E626F776C5F7765696796
:1025400068745F726573703A327C73756363657328
:10255000733A005E626F776C5F7765696768745F76
:10256000726573703A327C6661696C7572653A00A7
:102570005E626F776C5F7765696768745F726573B9
:10258000703A327C6661696C7572653A002C205332
:10259000616D706C657320776572653A2000426FDB
:1025A000776C20776569676874204E4F54205345D7
:1025B00054544C45442C20736F2072657475726EB0
:1025C000204661696C75726520627574207265744D
:1025D00075726E204162736F6C75746557656967BB
:1025E000687420616E797761792C204162736F6C19
:1025F000757465576569676874203D20004E65777E
:102600002052464944207461672064657465637490
:1026100065642C2074686579206D75737420686119
:102620007665207377617070656420626F776C7374
:102630002C20736F207765206E65656420746F2091
:1026400073656E6420626F776C5F706C6163656444
:10265000206E6F77206265666F726520626F776C9F
:102660005F7765696768745F726573702E005246A4
:1026700049442074616773206D617463682C206E17
:102680006F206E65656420746F207468726F7720A8
:10269000626F776C5F706C61636564206576656EF0
:1026A0007400436C656172696E6720616C6C2049CF
:1026B0006E697469616C4163747561746F72506F97
:1026C000736974696F6E735B5D20616E642053651E
:1026D0007269616C4E756D626572486173426565C1
:1026E0006E44697370656E7365645B5D2E00206F68
:1026F0007574206F6620626F756E64732C20636141
:102700006E6E6F7420736574207468697320696ECF
:102710002074686520454550524F4D2E00736C6FF4
:10272000745F6E756D62657220002920746F2000E1
:102730005D2028736C6F74200053657474696E6734
:1027400020496E697469616C4163747561746F725C
:10275000506F736974696F6E735B00416674657264
:10276000205363616C655F43616C69627261746977
:102770006F6E3A20004265666F7265205363616C2C
:10278000655F43616C6962726174696F6E3A2000C3
:102790004166746572205363616C655F43616C6967
:1027A00062726174696F6E5F5765696768743A2019
:1027B000004265666F7265205363616C655F4361BB
:1027C0006C6962726174696F6E5F5765696768747E
:1027D0003A20004166746572205363616C655F4303
:1027E000616C6962726174696F6E5F323030673A32
:1027F00020004265666F7265205363616C655F43BC
:10280000616C6962726174696F6E5F323030673A11
:1028100020004166746572205363616C655F43619B
:102820006C6962726174696F6E5F5A65726F3A208B
:10283000004265666F7265205363616C655F43613A
:102840006C6962726174696F6E5F5A65726F3A206B
:10285000004661696C656420746F2067657420357B
:102860007820676F6F642064697374616E6365209C
:1028700072656164696E677320696E2063616C695B
:1028800062726174655F77686974655F626F776CA7
:102890002829000941766752616E67653A09000987
:1028A00052616E6765353A09000952616E67653499
:1028B0003A09000952616E6765333A0900095261AD
:1028C0006E6765323A090052616E6765313A0900F8
:1028D0004661696C656420746F2067657420357883
:1028E00020676F6F642064697374616E6365207222
:1028F000656164696E677320696E2063616C6962EB
:10290000726174655F626C61636B5F626F776C2884
:1029100029000941766752616E67653A09000952DC
:10292000616E6765353A09000952616E6765343A30
:1029300009000952616E6765333A09000952616EF8
:102940006765323A090052616E6765313A0900469F
:10295000696E616C20656E636F646572203D200056
:102960004166746572206272616B652C20656E63CE
:102970006F646572203D2000446573697265642050
:10298000706F736974696F6E203D200041637475C8
:1029900061746F7252657475726E546F486F6D65B5
:1029A000466173742C204265666F726520456E63C4
:1029B0006F646572203D20000943656E7465724541
:1029C0006E636F646572506F736974696F6E203DDA
:1029D000200900094361726F7573656C486F6D65FE
:1029E000203D20090009616363656C537465707054
:1029F00065722E63757272656E74506F7369746957
:102A00006F6E2829203D200900537465707065722F
:102A1000506F7330203D2009005E746573745F63EE
:102A200061726F7573656C5F656E636F64657273F9
:102A30005F726573703A317C6661696C7572653A74
:102A400024005E746573745F6361726F7573656C87
:102A50005F656E636F646572735F726573703A3140
:102A60007C6661696C7572653A2400436865636BC6
:102A70002063656E74657220656E636F6465722095
:102A8000666F72206C6F6F73656E6573732F736CF6
:102A9000697070696E67202D2065697468657220A1
:102AA0007468652079656C6C6F7720696E736572E8
:102AB000742068617320636F6D65206C6F6F736540
:102AC0002066726F6D207468652073686166742C6F
:102AD0002068617320706F70706564206F7574205A
:102AE0006F662063656E74657220656E636F6465E2
:102AF000722C206F72207468652077686F6C652077
:102B0000656E636F64657220697473656C662068B6
:102B1000617320746F6F206D7563682077696767D4
:102B20006C6520746F206974206F722069736E2742
:102B300074207365617465642077656C6C2E002A5F
:102B40002A2A4641494C45442A2A2A005E74657364
:102B5000745F6361726F7573656C5F656E636F64DC
:102B60006572735F726573703A317C737563636508
:102B700073733A24005E746573745F6361726F757A
:102B800073656C5F656E636F646572735F726573A6
:102B9000703A317C737563636573733A24002A2A33
:102BA0002A5041535345442A2A2A005E746573749F
:102BB0005F6361726F7573656C5F656E636F64658B
:102BC00072735F726573703A317C6661696C75729D
:102BD000653A24005E746573745F6361726F757328
:102BE000656C5F656E636F646572735F7265737049
:102BF0003A317C6661696C7572653A2400417420D3
:102C00006C65617374206F6E65206F6620746865F3
:102C1000206361726F7573656C206D6F76656D658D
:102C20006E7473206661696C65642C20736F207408
:102C30006869732069732061206661696C757265CB
:102C400020616E64206E6F7420612076616C69640F
:102C50002063656E74657220656E636F64657220B3
:102C6000736C697070696E6720746573742E002AC6
:102C70002A2A4641494C45442A2A2A005468697345
:102C80002076616C75652073686F756C6420626571
:102C9000203C20353020746F20656E73757265207E
:102CA0006E6F20736C697070696E672E0044696680
:102CB000666572656E636520696E2063656E746516
:102CC0007220656E636F64657220706F73697469DA
:102CD0006F6E207768656E206D6F76696E67206312
:102CE0006C6F636B7769736520767320636F756EA5
:102CF000746572636C6F636B7769736520697320A9
:102D00000043656E74657220656E636F6465722042
:102D1000506F736974696F6E4174536C6F743130A6
:102D2000434357203D200043656E74657220656EF5
:102D3000636F64657220506F736974696F6E41745C
:102D4000536C6F7431304357203D20000A43656E49
:102D500074657220656E636F64657220506F73696D
:102D600074696F6E4174486F6D65203D20005E632D
:102D700079636C655F746573745F6361726F75739B
:102D8000656C5F726573703A317C6661696C7572EF
:102D9000653A24005E6379636C655F746573745F84
:102DA0006361726F7573656C5F726573703A317CC5
:102DB0006661696C7572653A24004F766572616C64
:102DC0006C20726573756C74203D202A2A2A464156
:102DD000494C45442A2A2A005E6379636C655F7416
:102DE0006573745F6361726F7573656C5F72657331
:102DF000703A317C737563636573733A24005E6364
:102E000079636C655F746573745F6361726F75730A
:102E1000656C5F726573703A317C7375636365735B
:102E2000733A24004F766572616C6C20726573751D
:102E30006C74203D202A2A2A5041535345442A2AA3
:102E40002A004E756D626572206F66206D6F766523
:102E50006D656E74206661696C75726573203D20C6
:102E6000004E756D626572206F66206D6F76656DC0
:102E7000656E742072657472696573203D20002050
:102E80006379636C65732E000A0A46696E6973681C
:102E90006564204379636C652054657374206F66A4
:102EA00020006E756D4661696C75726573203D20FA
:102EB000006E756D52657472696573203D20005314
:102EC000756363657373203D200067476F546F50CF
:102ED0006F736974696F6E52657472696573203DB2
:102EE0002000476F546F44697370656E7365536C4F
:102EF0006F74203D20006E756D4661696C7572655A
:102F000073203D20006E756D526574726965732083
:102F10003D200053756363657373203D2000674750
:102F20006F546F506F736974696F6E526574726914
:102F30006573203D2000476F546F44697370656E60
:102F40007365536C6F74203D20002054696D657368
:102F5000004379636C65205465737420524649447C
:102F600020446F6E652C2052464944204D6973738E
:102F7000696E6720002054696D6573004379636C46
:102F8000652054657374205246494420446F6E6531
:102F90002C2052464944204465746563746564205E
:102FA000002054696D6573002054696D65732C2091
:102FB00052464944204D697373696E672000437916
:102FC000636C65205465737420526573756C7473FB
:102FD00020536F20466172202D20524649442044E0
:102FE00065746563746564200020636F6D706C6543
:102FF0007465642C20486F7572732052656D616929
:103000006E696E67203D2000206F7574206F66200A
:10301000004379636C65200052464944204E6F742A
:1030200020446574656374656421005E706F776524
:10303000725F6379636C655F70635F726573703A2A
:10304000317C737563636573733A24005E706F77C8
:1030500065725F6379636C655F70635F72657370DF
:103060003A317C737563636573733A2400414C4550
:1030700052543A20506F776572204379636C696EC1
:103080006720504321005E706F7765725F637963DC
:103090006C655F726F757465725F726573703A31DB
:1030A0007C737563636573733A24005E706F776534
:1030B000725F6379636C655F726F757465725F725E
:1030C0006573703A317C737563636573733A24007A
:1030D000414C4552543A20506F77657220437963D2
:1030E0006C696E6720526F7574657221005E776936
:1030F0007065725F72656D6F7665643A307C3A24F4
:10310000005E77697065725F72656D6F7665643AAF
:10311000307C3A24005E77697065725F696E736512
:10312000727465643A307C3A24005E776970657227
:103130005F696E7365727465643A307C3A24005E30
:1031400064726970747261795F72656D6F766564BF
:103150003A307C3A24005E64726970747261795FFF
:1031600072656D6F7665643A307C3A24005E6472F5
:103170006970747261795F696E7365727465643ABF
:10318000307C3A24005E64726970747261795F69A0
:103190006E7365727465643A307C3A240066696EB9
:1031A000697368656400616C65727400646973704A
:1031B000656E73696E6700626F776C006163746936
:1031C00076650069646C6500706F7765725F736126
:1031D00076655F6D6F6465003A24005E6E61636BB7
:1031E0003A317C003A24005E6E61636B3A317C00B8
:1031F000706F7765725F6379636C655F726F75740A
:10320000657200706F7765725F6379636C655F707C
:1032100063006379636C655F746573745F7266697C
:1032200064006379636C655F746573745F616C6C73
:10323000006379636C655F746573745F6163747553
:1032400061746F7273006379636C655F7465737426
:103250005F6361726F7573656C00746573745F731F
:1032600063616C655F6E6F69736500746573745F2D
:103270006361726F7573656C5F656E636F646572B1
:103280007300756E6A616D5F6361726F7573656CF3
:10329000006275726E5F696E5F6361726F757365F0
:1032A0006C00746573745F6361726F7573656C5FD6
:1032B0006672696374696F6E007A65726F5F6365C9
:1032C0006E7465725F656E636F646572003A2400A8
:1032D0005E6765745F696E7374616C6C5F6D6F645B
:1032E000655F726573703A317C003A24005E6765F1
:1032F000745F696E7374616C6C5F6D6F64655F722F
:103300006573703A317C006765745F696E737461D0
:103310006C6C5F6D6F6465003A24005E7365745F6A
:10332000696E7374616C6C5F6D6F64655F726573F9
:10333000703A317C003A24005E7365745F696E7385
:1033400074616C6C5F6D6F64655F726573703A3148
:103350007C007365745F696E7374616C6C5F6D6F14
:103360006465007365745F77697065725F6F766519
:103370007272696465007365745F726669645F6F19
:103380007665727269646500646563726561736510
:103390005F70616E656C5F6272696768746E657399
:1033A0007300696E6372656173655F70616E656CF1
:1033B0005F6272696768746E657373007365745FCA
:1033C00070616E656C5F6272696768746E65737355
:1033D00000686F6D655F6361726F7573656C5F73B5
:1033E00077656570006361726F7573656C5F706F90
:1033F000736974696F6E006163747561746F725F75
:10340000636F756E746572636C6F636B77697365F8
:10341000006163747561746F725F636C6F636B7767
:10342000697365006163747561746F725F7265744E
:1034300075726E746F686F6D6566617374706964C0
:10344000006163747561746F725F72657475726E1A
:10345000746F686F6D6566617374007365745F6126
:1034600063747561746F725F706F736974696F6E86
:10347000006163747561746F725F706F73697469F2
:103480006F6E006163747561746F725F686F6D65F4
:103490000063616C6962726174655F626C61636B29
:1034A0005F626F776C0063616C6962726174655F03
:1034B00077686974655F626F776C007365745F62CB
:1034C0006C61636B5F626F776C5F64697374616E6C
:1034D0006365007365745F77686974655F626F77B1
:1034E0006C5F64697374616E6365007365745F73A8
:1034F00063616C655F63616C6962726174696F6E50
:10350000007365745F696E697469616C5F6163748F
:103510007561746F725F706F736974696F6E006349
:103520006C6561725F6163747561746F725F706FF7
:10353000736974696F6E73003132333435363738DE
:10354000393031323334353637383930313233343B
:10355000353637383930313233343536373839301B
:10356000313233343536373839300063616C696253
:10357000726174655F7363616C655F7368696674BB
:103580005F7A65726F0063616C6962726174655F16
:103590007363616C650076657273696F6E00626F4C
:1035A000776C5F77656967687400626F776C5F73CB
:1035B00074617475730073746174757300726561FE
:1035C00064795F746F5F7573650072656164795FBC
:1035D000746F5F736869700073797374656D5F638E
:1035E0006865636B00666F726365007363616E5F2D
:1035F000616C6C00726573756D650063616E636507
:103600006C0072657365745F6361726F7573656C6E
:10361000007265736574007365745F64656D6F5FD8
:103620006D6F6465007365745F6861735F72656C6C
:103630006F61645F646F6F725F6C6F636B00736563
:10364000745F626F776C5F617265615F636F6C6FEF
:10365000725F7479706500706F7765725F73617601
:10366000655F6D6F64650072657363616E5F636152
:103670006E69737465727300706175736500706F45
:10368000736974696F6E5F63616E69737465725F8D
:103690007265706C616365007365745F626172630B
:1036A0006F64655F6F7665727269646500736574D7
:1036B0005F626172636F6465007363616E5F626114
:1036C00072636F646500626172636F64655F7374D7
:1036D000617475730074616E6B5F7374617475737C
:1036E00000636162696E65745F7374617475730001
:1036F00064726970747261795F7374617475730058
:1037000077697065725F737461747573007269674D
:103710006874646F6F725F737461747573006C6545
:103720006674646F6F725F73746174757300646F35
:103730006F725F7374617475730074616E6B646F24
:103740006F725F756E6C6F636B0074616E6B646F2C
:103750006F725F6C6F636B00636162696E65745F4B
:10376000756E6C6F636B00636162696E65745F6C2C
:103770006F636B00646F6F725F756E6C6F636B006D
:10378000646F6F725F6C6F636B0064697370656EFA
:1037900073655F66756C6C5F63616E0064697370FE
:1037A000656E73655F74696D6564006469737065E7
:1037B0006E73655F616C6C00416D6F756E745F4414
:1037C000697370656E7365643A0900576569676867
:1037D000742041667465722031207365633A090074
:1037E0005765696768742041667465723A090057C5
:1037F0006569676874204265666F72653A0900738F
:1038000065745F737465707065725F726967687400
:103810005F706F736974696F6E00416D6F756E7460
:103820005F44697370656E7365643A090057656932
:103830006768742041667465722031207365633A4D
:1038400009005765696768742041667465723A09B2
:1038500000576569676874204265666F72653A094A
:10386000007365745F737465707065725F6C656614
:10387000745F706F736974696F6E007365745F73E2
:103880007465707065725F74686972645F73706587
:103890006564007365745F737465707065725F72E0
:1038A000696768745F7370656564007365745F73DE
:1038B0007465707065725F6C6566745F7370656562
:1038C00064007365745F656570726F6D5F766572B5
:1038D00073696F6E73007365745F70756D705F737D
:1038E000706565640064697370656E73655F7461AB
:1038F0006E6B746573740064697370656E73655F75
:10390000646576656C6F7065720064697370656E6E
:1039100073655F7765696768740070696E670064D6
:10392000656D6F00706F736974696F6E5F63616E50
:103930006973746572007365745F7363616C655F4E
:103940006C656473007365745F6C656473002D2D22
:103950002D2D2D2D2D2D2D2D2D2D2D2D0070617208
:10396000616D35203D2000706172616D34203D2015
:1039700000706172616D33203D2000706172616D75
:1039800032203D2000706172616D31203D20007059
:103990006172616D34203D2000706172616D332071
:1039A0003D2000706172616D32203D2000706172B7
:1039B000616D31203D2000706172616D33203D20CA
:1039C00000706172616D32203D2000706172616D26
:1039D00031203D2000706172616D32203D20007009
:1039E0006172616D31203D2000706172616D312026
:1039F0003D2000416C6C2074686520646174612016
:103A000076616C756573203D2000496E746567654D
:103A100072204E756D506172616D657465727320B0
:103A20003D2000416C6C20506172616D73205061CB
:103A30007373656420004D657373616765547970B5
:103A400065203D20002A2A2A2A2A2A2A2A2A2A2AC6
:103A50002A2A2A2A2A2A003A24003A24003030301E
:103A60003030303030303000303030303030303086
:103A70003030005E626F776C5F706C616365643AD2
:103A8000357C005E626F776C5F706C616365643A71
:103A9000357C00436F6C6F722073656E736F727349
:103AA000206E6F7420696E7374616C6C65642C2079
:103AB00064656661756C74696E6720746F20524727
:103AC00042282D312C2D312C2D3129005E626F774B
:103AD0006C5F72656D6F7665643A307C3A24005E87
:103AE000626F776C5F72656D6F7665643A307C3AB1
:103AF00024003A24005E63616E69737465725F69C5
:103B00006E7374616C6C65643A327C003A24005EBA
:103B100063616E69737465725F696E7374616C6CF6
:103B200065643A327C003A24005E63616E697374A6
:103B300065725F72656D6F7665643A317C003A2418
:103B4000005E63616E69737465725F72656D6F7636
:103B500065643A317C003A2409003A00095E6469E0
:103B600073705F70726F67726573733A327C003A7C
:103B700024003A005E646973705F70726F677265EB
:103B800073733A327C0052616E67652072656164BE
:103B9000696E67206F766572666C6F770052616E32
:103BA00067652072656164696E6720756E64657211
:103BB000666C6F77005261772072656164696E6729
:103BC000206F766572666C6F770052617720726540
:103BD0006164696E6720756E646572666C6F7700EC
:103BE0005369676E616C2F4E6F69736520657272E1
:103BF0006F720049676E6F72696E672072616E67DF
:103C000065004E6F20636F6E76657267656E6365E3
:103C100000454345206661696C7572650053797390
:103C200074656D206572726F72004162736F6C759E
:103C30007465576569676874206973203C20353066
:103C40002C207468726F77696E6720626F776C5F83
:103C500072656D6F766564206576656E742E2020C2
:103C60004E6F20676F6F642064697374616E636563
:103C70002073656E736F722072656164696E672070
:103C8000617661696C61626C652C20636865636B49
:103C900020666F72206572726F722062656C6F773A
:103CA0002E20204162736F6C757465576569676873
:103CB00074203D20002C204162736F6C7574655731
:103CC0006569676874203D2000206F72204162732F
:103CD0006F6C757465576569676874203C20353072
:103CE0002C20736F207468726F77696E6720626F23
:103CF000776C5F72656D6F766564206576656E744E
:103D00002E2052616E6765203D200052616E67650E
:103D1000203E20003A240030303030303030303017
:103D2000300052464944526561644661696C436F94
:103D3000756E743D31302E20576F756C642068614C
:103D40007665207468726F776E207468697320627C
:103D50006F776C5F706C61636564206576656E7407
:103D6000206578636570742052464944204F76651B
:103D70007272696465206973206E6F74206F6E2C97
:103D800020736F206469646E27743A205E626F77D7
:103D90006C5F706C616365643A357C003A24003076
:103DA00030303030303030303000436865636B2065
:103DB0005246494420746167732E20576F756C64B6
:103DC0002068617665207468726F776E2074686908
:103DD0007320626F776C5F706C61636564206576D9
:103DE000656E74206578636570742052464944207E
:103DF0004F76657272696465206973206E6F7420F6
:103E00006F6E2C20736F206469646E27743A205E95
:103E1000626F776C5F706C616365643A357C002C0F
:103E200020426F776C506C6163656453616D706C98
:103E30006573416674657252464944203D20002CEA
:103E4000204162736F6C757465576569676874208B
:103E50003D200052616E6765203D20002C20426F9E
:103E6000776C506C6163656453616D706C6573420F
:103E700065666F726552464944203D20002C204102
:103E800062736F6C757465576569676874203D204F
:103E90000052616E6765203D20005E6361726F7540
:103EA00073656C5F6A616D3A307C3A24005E6361D1
:103EB000726F7573656C5F6A616D3A307C3A24008D
:103EC0003A24005E706F736974696F6E5F63616E30
:103ED00069737465725F726573703A327C6661698A
:103EE0006C7572653A003A24005E706F736974698C
:103EF0006F6E5F63616E69737465725F7265737014
:103F00003A327C6661696C7572653A003A24005EEB
:103F1000706F736974696F6E5F63616E69737465E6
:103F2000725F726573703A327C7375636365737325
:103F30003A003A24005E706F736974696F6E5F6354
:103F4000616E69737465725F726573703A327C7307
:103F50007563636573733A00706F736974696F6E2C
:103F60005F63616E69737465720056616C7565207C
:103F70007061737365643D00496E20706F7369747E
:103F8000696F6E2063616E69737465722066756E09
:103F90006374696F6E21005E646F6F725F6C6F6334
:103FA0006B5F726573703A317C73756363657373AD
:103FB0003A24005E646F6F725F6C6F636B5F726553
:103FC00073703A317C737563636573733A2400646C
:103FD0006F6F725F6C6F636B004166746572204C2B
:103FE0006F636B696E672C2052656C6F6164446F00
:103FF0006F72556E6C6F636B53656E736550696E4F
:104000003A20004265666F7265204C6F636B696E83
:10401000672C2052656C6F6164446F6F72556E6CD3
:104020006F636B53656E736550696E3A2000496E1D
:1040300020646F6F725F6C6F636B2066756E637464
:10404000696F6E21005E74616E6B646F6F725F6C7E
:104050006F636B5F726573703A317C737563636510
:1040600073733A24005E74616E6B646F6F725F6C81
:104070006F636B5F726573703A317C7375636365F0
:1040800073733A240074616E6B646F6F725F6C6F50
:10409000636B004166746572204C6F636B696E6779
:1040A0002C2045787465726E616C446F6F72556E2A
:1040B0006C6F636B53656E736550696E3A20004296
:1040C00065666F7265204C6F636B696E672C204567
:1040D000787465726E616C446F6F72556E6C6F634D
:1040E0006B53656E736550696E3A2000496E20749B
:1040F000616E6B646F6F725F6C6F636B2066756E61
:104100006374696F6E21006D696473656E736F729D
:10411000006869676873656E736F72005E74616EC4
:104120006B646F6F725F756E6C6F636B5F726573DC
:10413000703A327C6661696C7572653A003A2400A7
:104140005E74616E6B646F6F725F756E6C6F636BC4
:104150005F726573703A317C737563636573733A2C
:1041600024005E74616E6B646F6F725F756E6C6F4E
:10417000636B5F726573703A317C737563636573EB
:10418000733A240074616E6B646F6F725F756E6C4E
:104190006F636B00416674657220556E6C6F636B64
:1041A000696E672C2045787465726E616C446F6F20
:1041B00072556E6C6F636B53656E736550696E3AC2
:1041C00020004265666F726520556E6C6F636B6987
:1041D0006E672C2045787465726E616C446F6F72E7
:1041E000556E6C6F636B53656E736550696E3A20E4
:1041F00000496E2074616E6B646F6F725F756E6CD8
:104200006F636B2066756E6374696F6E21007461F5
:104210006E6B646F6F725F756E6C6F636B00656D54
:104220007074790050726F647563744944206973C7
:10423000206120726567756C6172206469737065B6
:104240006E73652073706565642070726F6475634A
:10425000742C20736F20646F206E6F726D616C2000
:1042600064697370656E73652E0050726F64756358
:104270007449442069732061206661737420646905
:104280007370656E73652073706565642070726FFE
:10429000647563742C20736F20676F20666173747C
:1042A000657220616E6420646F6E277420736C6F7A
:1042B0007720646F776E20617420656E642E003005
:1042C0003032390030303238003030323700303060
:1042D0003236003030323400544F50434849432D79
:1042E0003647003031303500434F4C4F52414E433A
:1042F000452D3552003031303400544F5043484939
:10430000432D355656003031303300434C4943532A
:104310002D4434305F424F54544C450030313032DC
:1043200000434C4943532D44305F424F54544C4555
:10433000003031303100474F4C4457454C4C2D44F0
:104340003430003031303000474F4C4457454C4CEE
:104350002D443130003030393900434F4C4F5241F9
:104360004E43452D434C45415200303039380043CF
:104370004F4C4F52414E43452D313047003030397C
:104380003700434F4C4F52414E43452D3456003079
:1043900030393600434F4C4F52414E43452D375232
:1043A00052003030393500434F4C4F52414E434557
:1043B0002D355656003030393400434F4C4F524162
:1043C0004E43452D313056003030393300434F4C89
:1043D0004F52414E43452D3130500030303932007C
:1043E000434F4C4F52414E43452D313042530030E4
:1043F00030393100434F4C4F52414E43452D3843E5
:1044000041003030393000434F4C4F52414E43450C
:104410002D3241003030383900434F4C4F52414E1D
:1044200043452D37524F003030383800434F4C4F02
:1044300052414E43452D384F5200303038370043FB
:104440004F4C4F52414E43452D384B00303038369B
:1044500000434F4C4F52414E43452D354B003030B9
:10446000383500434F4C4F52414E43452D3847009D
:104470003030383400434F4C4F52414E43452D3578
:1044800042003030383300434F4C4F52414E434589
:104490002D3447003030383200434F4C4F52414E9C
:1044A00043452D384E4E003030383100434F4C4F8D
:1044B00052414E43452D344E4E003030383000438B
:1044C0004F4C4F52414E43452D31304E0030303726
:1044D0003900434F4C4F52414E43452D384E00302A
:1044E00030373800434F4C4F52414E43452D364EE6
:1044F000003030373700434F4C4F52414E43452D2B
:10450000344E003030373600434F4C4F52414E430B
:10451000452D324E003030373500544F5043484916
:10452000432D434C454152003030373400544F50F6
:10453000434849432D424C4F4E44494E470030308A
:10454000373300544F50434849432D31314E0030EA
:1045500030373200544F50434849432D37525200B0
:104560003030373100544F50434849432D35525273
:10457000003030373000544F50434849432D374BBB
:10458000003030363900544F50434849432D394E9E
:104590004E003030363800544F50434849432D3791
:1045A0004E4E003030363600544F50434849432D6C
:1045B000354E4E003030363400544F504348494356
:1045C0002D334E4E003030363200474F4C44574565
:1045D0004C4C2D415348003030353800474F4C4447
:1045E00057454C4C2D313147003030353700474F5F
:1045F0004C4457454C4C2D38434100303035360043
:10460000474F4C4457454C4C2D35520030303535D2
:1046100000544F50434849432D354B00303035341A
:1046200000544F50434849432D52525F4D49580062
:104630003030353300474F4C4457454C4C2D56567F
:10464000003030353200544F50434849432D4747DE
:104650005F4D4958003030353100544F5043484980
:10466000432D4B4B5F4D4958003030353000544F8F
:1046700050434849432D505F4D495800303034393C
:1046800000544F50434849432D415F4D4958003035
:1046900030343800544F50434849432D384200309D
:1046A00030343700544F50434849432D3442003092
:1046B00030343600474F4C4457454C4C2D354D4215
:1046C000003030343500544F50434849432D313188
:1046D00041003030343400474F4C4457454C4C2D4A
:1046E000313041003030343300544F504348494357
:1046F0002D3941003030343200544F504348494343
:104700002D3541003030343100544F504348494337
:104710002D3241003030343000544F50434849432B
:104720002D3847003030333900474F4C4457454C03
:104730004C2D3747003030333800544F50434849F0
:10474000432D3447003030333700474F4C445745F2
:104750004C4C2D31304E003030333600474F4C44F6
:1047600057454C4C2D384E003030333500474F4CB8
:104770004457454C4C2D364E003030333400474FB3
:104780004C4457454C4C2D344E00303033330047A9
:104790004F4C4457454C4C2D324E00303033320094
:1047A000434C4943532D56322D314E003030333077
:1047B00000434C4943532D56322D4C490030303282
:1047C0003900434C4943532D56322D443430003088
:1047D00030323800434C4943532D56322D44323049
:1047E000003030323700434C4943532D56322D446C
:1047F00030003030323600434C4943532D56322D71
:104800005048003030323500434C4943532D563226
:104810002D434C003030323400434C4943532D5625
:10482000322D434F42003030323300434C49435322
:104830002D56322D4C54594F003030323200434CFB
:104840004943532D56322D4F5900303032310043F9
:104850004C4943532D56322D4C544F520030303278
:104860003000434C4943532D56322D524F003030C7
:10487000313900434C4943532D56322D56520030A6
:1048800030313800434C4943532D56322D4C545649
:1048900042003030313700434C4943532D56322DBE
:1048A0004256003030313600434C4943532D563286
:1048B0002D4247003030313500434C4943532D568B
:1048C000322D4C544242003030313400434C494385
:1048D000532D56322D59003030313300434C49436B
:1048E000532D56322D4F003030313200434C494366
:1048F000532D56322D42003030313100434C494364
:10490000532D56322D52003030313000434C494344
:10491000532D56322D47003030303900434C494337
:10492000532D56322D56003030303800434C494319
:10493000532D56322D31324E003030303700434C3B
:104940004943532D56322D31304E00303030360031
:10495000434C4943532D56322D384E0030303035BC
:1049600000434C4943532D56322D364E00303030E3
:104970003400434C4943532D56322D344E003030D1
:10498000303300434C4943532D56322D324E0030C4
:1049900030303200434C4943532D56322D30304E87
:1049A0000030303031002C2050726F647563744ECB
:1049B000616D6520697320002C2050726F647563EF
:1049C000744944206973200063616E697374657271
:1049D000436F6465206973200054686973206973AC
:1049E000204C69676874656E65722C20736F206453
:1049F0006F6E277420676F20617320666173742067
:104A00006F746865727769736520636F756C642075
:104A1000686176652070696E6368206F66662069DC
:104A2000737375652E003030323900526573746FC0
:104A30007265642F536176656420496E697469619B
:104A40006C4163747561746F72506F736974696FD0
:104A50006E446174613A00496E2D6D656D6F7279B7
:104A600020496E697469616C4163747561746F7219
:104A7000506F736974696F6E446174613A002C20E1
:104A8000736F2077726974696E6720746F20454573
:104A900050524F4D206576656E2074686F7567685B
:104AA000206F7574206F662072616E67652C2073AD
:104AB0006F206E6578742074696D65206D61792052
:104AC000776F726B206265747465722E00203C20D3
:104AD00050726576696F7573496E697469616C416E
:104AE00063747561746F72506F736974696F6E204F
:104AF0006F6620004E657720496E697469616C416C
:104B000063747561746F72506F736974696F6E5BF3
:104B10005D206F6620003A24003A003A003A005EB9
:104B200064697370656E73655F7765696768745FE4
:104B3000726573703A357C72616E67653A003A242B
:104B4000003A003A003A005E64697370656E7365FE
:104B50005F7765696768745F726573703A357C72F8
:104B6000616E67653A003A24003A003A003A005E06
:104B700064697370656E73655F7765696768745F94
:104B8000726573703A357C776569676874697373A9
:104B900075653A003A24003A003A003A005E6469CA
:104BA0007370656E73655F7765696768745F72655A
:104BB00073703A357C776569676874697373756576
:104BC0003A00414C4552543A20506F74656E7469F6
:104BD000616C2077656967687469737375652064B3
:104BE000756520746F20626F776C20706C616365EF
:104BF0006D656E742E003A24003A003A003A005E69
:104C000064697370656E73655F7765696768745F03
:104C1000726573703A357C737563636573733A00BC
:104C20003A24003A003A003A005E64697370656E97
:104C300073655F7765696768745F726573703A352D
:104C40007C737563636573733A003A24003A003AE3
:104C5000003A005E64697370656E73655F776569BD
:104C60006768745F726573703A357C63616E636503
:104C70006C3A003A24003A003A003A005E646973E4
:104C800070656E73655F7765696768745F72657379
:104C9000703A357C63616E63656C3A002C20736FEB
:104CA0002077726974696E6720746F204545505291
:104CB0004F4D206576656E2074686F756768207447
:104CC00068697320697320612074616D7065722C4E
:104CD00020736F206E6578742074696D65206D6136
:104CE0007920776F726B206265747465722E002074
:104CF0003C2050726576696F7573496E697469619D
:104D00006C4163747561746F72506F736974696F0D
:104D10006E206F6620004E657720496E6974696168
:104D20006C4163747561746F72506F736974696FED
:104D30006E5B5D206F6620003A24003A003A003A2C
:104D4000005E64697370656E73655F776569676837
:104D5000745F726573703A357C74616D7065723A18
:104D6000003A24003A003A003A005E6469737065C4
:104D70006E73655F7765696768745F726573703AB3
:104D8000357C74616D7065723A003A24003A003ADD
:104D9000003A005E64697370656E73655F7765697C
:104DA0006768745F726573703A357C7375636365A9
:104DB00073733A003A24003A003A003A005E64699C
:104DC0007370656E73655F7765696768745F726538
:104DD00073703A357C737563636573733A00414C45
:104DE0004552543A20576F756C642068617665208F
:104DF0007468726F776E2054616D7065722C2062DA
:104E000075742077697468696E20746F6C6572615F
:104E10006E636520736F2072657475726E696E675C
:104E200020537563636573730064697370656E7393
:104E3000655F616C6C0064697370656E73655F7744
:104E40006569676874002C2053686F756C645265DF
:104E5000747279476F4661737442656361757365F7
:104E6000466972737444697370656E736554696DD5
:104E700065644F7574203D200044697370656E73DE
:104E800065206661696C7572652C206E65656420AD
:104E9000746F2072657472792C20476F696E672079
:104EA000746F2064697370656E7365206D6F7265D1
:104EB000206F6E20612072657472792C207468698D
:104EC00073206D756368206D6F7265203D20005200
:104ED000657472792053756D20416D6F756E745FC6
:104EE00044697370656E736564203D200054414DC4
:104EF000504552204445544543544544206166740E
:104F000065722066696E6973686564206469737090
:104F1000656E73696E672C2072657475726E696E4A
:104F2000672074616D70657220726573756C742092
:104F30007769746820616D6F756E74206469737031
:104F4000656E73656420617320547261696C696E6B
:104F500067576569676874203D2000416D6F756E05
:104F6000745F44697370656E736564206973206E45
:104F7000656761746976652C206D6F726520746851
:104F8000616E202D31672C207468657265206D7507
:104F900073742068617665206265656E20736F6D3D
:104FA000652074797065206F662074616D7065721C
:104FB0002E204E6F7420676F696E6720746F2072A9
:104FC000657472792E0046696E616C576569676811
:104FD0007452656164696E6773203D200900416DFC
:104FE0006F756E745F44697370656E736564203DA0
:104FF00020005D203D200046696E616C5765696741
:10500000687452656164696E67735B005363616CB9
:1050100065206E6F7420736574746C65642C2062F7
:10502000656C6F772046696E616C57656967687457
:1050300052656164696E6773206E6F74207769745E
:1050400068696E2031206772616D2C207265747200
:1050500079696E6720757020746F20352074696DD2
:1050600065732E002C206265636175736520547230
:105070006C5634207374696C6C20756E6465722094
:10508000302E3033203D20004C6F6F702054696DFE
:105090006564204F7574206174204C6F6F70546983
:1050A0006D656F7574203D20002C204C6F6F704330
:1050B0006F756E7465725768656E52656163686579
:1050C000644D6178416374756174696F6E203D2031
:1050D0000053657474696E67204C6F6F7054696D0E
:1050E000656F7574203D2000206772616D732C2000
:1050F000736F2072657665727365207468652061D0
:1051000063747561746F72210041626F75742074ED
:105110006F2063726F7373200052656365697665F3
:105120006420612043616E63656C20636F6D6D6107
:105130006E642066726F6D206D616368696E6520B4
:1051400055492E0054414D50455220444554454345
:105150005445442C2073746F7070696E67206163CE
:1051600074756174696F6E20616E64207265747508
:10517000726E696E672074616D70657220726573FE
:10518000756C742E0054414D5045522052656C6F21
:105190006164446F6F724F70656E0054414D5045AD
:1051A0005220547261696C696E6753616D706C65F1
:1051B000730054616D706572206465746563746515
:1051C000642C20776569676874206D6F7265206E46
:1051D00065676174697665207468616E202D312C75
:1051E00020736F6D65626F6479206D7573742068CC
:1051F0006176652072656D6F766564207765696795
:1052000068742066726F6D207363616C652C207208
:10521000657475726E696E672074616D7065722E4B
:1052200000094C6F7374207765696768742077682C
:10523000656E207265747261637465643A20002043
:10524000746F20302E31302073696E6365203E31DB
:105250003030206C6F6F7073206C6566740009527B
:10526000616973696E672074617267657420737019
:105270006565642066726F6D200020746F20302E8B
:10528000322073696E6365203C3330206C6F6F7021
:1052900073206C65667400094C6F776572696E6780
:1052A000207461726765742073706565642066722E
:1052B0006F6D2000094C4C09002C204D6178416332
:1052C00074756174696F6E203D20002C204D6178EB
:1052D000416374756174696F6E284C6929203D20A3
:1052E0000009534554504F494E542043616C633D6F
:1052F000000954726C563409000954726C56090046
:105300000954726C570900094C6F61642063656C25
:105310006C2073616D706C696E67206661696C7575
:1053200072652C20676F74203E3230356720666FBF
:10533000722061766572616765206F662031307812
:105340002073616D706C65732C2064697363617286
:1053500064696E6720616E642074616B696E67209A
:105360006E65772073616D706C6520686572653A53
:10537000090053616D700900095475726E41726FB6
:10538000756E64000A4C69676874656E65722066A4
:105390006C6F7720637574206F6666205374616C40
:1053A0006C696E67206465746563746564202D2084
:1053B000747279696E67204C69676874656E65728E
:1053C00020616374756174696F6E2072657472799F
:1053D0002023005374616C6C696E6720646574658A
:1053E00063746564202D207265636F766572792021
:1053F0006469646E277420776F726B2C20736F2042
:1054000073746F7070696E67207468652064697367
:1054100070656E736520736F20776520646F6E27EB
:10542000742064616D61676520746865206D6F74B8
:105430006F7220616E64206472697665722E000955
:105440005475726E41726F756E64000A5374616CAC
:105450006C696E67206465746563746564202D20D3
:10546000747279696E6720746865206261636B2D60
:105470006F66662D616E642D676F2D666173742093
:1054800072657472792E0009456E64313530004DB5
:105490006178416374756174696F6E203D200053BB
:1054A00074617274696E6720536574706F696E748D
:1054B000496E6974466F72546869734D61636869B7
:1054C0006E65203D200009536574706F696E7441EC
:1054D0006D6F756E74546F4261636B4F666657688B
:1054E000656E48697454617267657453706565646C
:1054F000203D200009536574706F696E744C6F6FA6
:1055000070496E6372656D656E74203D200009748C
:1055100061726765745F64697370656E73655F73EC
:1055200070656564203D20000941466173744469DB
:105530007370656E7365534B55203D20006744655D
:105540006D6F4D6F6465203D2000426F776C207752
:105550006569676874206E6F7420736574746C6518
:10556000642061667465722035207365636F6E64B4
:10557000732C2072657475726E2074616D70657223
:105580002E00424F574C204E4F5420504C41434523
:1055900044207768656E207374617274696E672049
:1055A00064697370656E7365202D20736F206E6F54
:1055B0007420616374756174696E672C20616E6418
:1055C0002072657475726E696E672074616D7065A6
:1055D000722E00094162736F6C7574655765696757
:1055E0006874203D2000095461726541444356614E
:1055F0006C7565203D2000095343414C45203D20FA
:1056000000094F4646534554203D200054617265C1
:10561000576569676874203D20005D203D20004982
:105620006E697469616C5765696768745265616415
:10563000696E67735B005363616C65206E6F7420E5
:10564000736574746C65642C2062656C6F77204997
:105650006E697469616C57656967687452656164E5
:10566000696E6773206E6F742077697468696E2045
:1056700031206772616D2C207265747279696E6772
:1056800020757020746F20352074696D65732E004D
:105690003A24003A31302E30303A005E646973703B
:1056A000656E73655F7765696768745F726573704F
:1056B0003A357C74616D7065723A302E30303A0044
:1056C0003A24003A31302E30303A005E646973700B
:1056D000656E73655F7765696768745F726573701F
:1056E0003A357C74616D7065723A302E30303A0014
:1056F00064697370656E73655F616C6C0064697377
:1057000070656E73655F77656967687400706F7345
:105710006974696F6E5F63616E6973746572206628
:1057200061696C7572652C2063616E6E6F742067A1
:10573000756172616E746565206361726F75736502
:105740006C20706F736974696F6E20736F20657859
:105750006974696E67207468652064697370656E2A
:1057600073655F77656967687420636F6D6D616EDF
:105770006420616E642072657475726E696E672054
:1057800074616D706572210056616C756520706181
:10579000737365643D0056616C7565207061737349
:1057A00065643D00496E2064697370656E736520A1
:1057B0007765696768742066756E6374696F6E21BA
:1057C000003A24005E64697370656E73655F667588
:1057D0006C6C5F63616E5F726573703A327C737577
:1057E00063636573733A003A24005E64697370659D
:1057F0006E73655F66756C6C5F63616E5F72657317
:10580000703A327C737563636573733A00646973CD
:1058100070656E73655F66756C6C5F63616E005476
:105820006F74616C2054696D6520746F20446973D6
:1058300070656E7365203D206C6F6F70202D203574
:10584000203D20090046696E616C205765696768D4
:1058500074203D200900416674657220686F6D6593
:105860002061637475616C2C20736574706F696E50
:10587000742C2070776D3A00456E64696E67204124
:1058800063747561746F722061637475616C2C2030
:10589000736574706F696E742C2070776D3A005761
:1058A000656967687420696E6372656173656420F9
:1058B0006279206C657373207468616E20302E31BC
:1058C000206772616D7320696E20746865206C6159
:1058D00073742035207365636F6E64732C20736F4F
:1058E0002073746F7070696E67206C6F6F702E001C
:1058F000576569676874203E203335302C20657801
:105900006974696E67206C6F6F70202863616E63C5
:10591000656C6C696E67292E000944656C7461576B
:105920006569676874203D200900095765696768E3
:1059300074203D2009000954696D65203D2009004F
:105940004C6F6F70203D2009005374617274696E52
:1059500067204163747561746F722061637475614F
:105960006C2C20736574706F696E742C2070776D69
:105970003A00092053746172742054696D65203DAA
:10598000200900576569676874203D200900566149
:105990006C7565207061737365643D0056616C754C
:1059A00065207061737365643D00496E206469739E
:1059B00070656E73652066756C6C2063616E210086
:1059C0003A24005E7363616E5F616C6C5F70726F2E
:1059D00067726573733A317C003A24005E736361C9
:1059E0006E5F616C6C5F70726F67726573733A3172
:1059F0007C007363616E5F616C6C00414C45525476
:105A00003A204455504C4943415445204241524369
:105A10004F44452853292044455445435445442088
:105A2000445552494E47205343414E5F414C4C210F
:105A300020204661696C696E67207363616E5F61E7
:105A40006C6C20616E6420626C616E6B696E6720A5
:105A50006F757420626172636F6465732E00656D8B
:105A6000707479005363616E20416C6C20697465B9
:105A7000726174696F6E3A20002E205363616E6EFE
:105A8000696E672043616E69737465723A20000124
:105A900002160317040518061907081A091B0A0B32
:105AA0001C0C1D0D0E1E0F1F10112012211314228D
:105AB0001523011F020320040521062207082309DC
:105AC000240A0B250C260D0E270F28101129122A47
:105AD00013142B152C16172D182E191A2F1B301CCA
