:100000000C94354A0C943B780C9410780C94E5775A
:100010000C94BA770C948F770C9464770C9439779E
:100020000C940E770C9415C30C949F760C9429763F
:100030000C94664A0C948E510C94664A0C94664A51
:100040000C94664A0C94664A0C94664A0C94664A70
:100050000C94664A0C9402700C94664A0C9403BE8D
:100060000C94664A0C944BBB0C9421BB0C94664ACE
:100070000C94664A0C94664A0C94664A0C94664A40
:100080000C94664A0C94664A0C94664A0C94664A30
:100090000C94F7BA0C94CDBA0C94664A0C94F1C146
:1000A0000C94664A0C94664A0C94664A0C94664A10
:1000B0000C94664A0C94664A0C94664A0C94664A00
:1000C0000C94664A0C94664A0C94664A0C94A3BA43
:1000D0000C9479BA0C94664A0C944FBA0C9425BAD5
:1000E0000C94664A08000000BE922449123EABAA56
:1000F000AA2ABECDCCCC4C3E00000080BEABAAAA42
:10010000AA3E00000000BF000000803F0000000089
:1001100000084178D3BB4387D1133D190E3CC3BDC2
:100120004282AD2B3E68EC8276BED98FE1A93E4C6F
:1001300080EFFFBE01C4FF7F3F00000000000C9471
:1001400017BD0C949CAF0C949AAF0C9486B10D948F
:1001500050300C9488B10C9462B00C948CB20C9416
:1001600049B10C944FBD0C94DDB20C948EB10C943B
:10017000CCBB0C94E4B20C94BCB40C940DBD0C94A8
:1001800084B10C948CB10C9433BD0C942DB10C94AF
:100190003F4B0C945AB20C948FB40C944DB10C9408
:1001A0003FB10C9464BC0C94E1AF0C9408BD0D9469
:1001B00043300C949ABD0C942BBD0C9403B00C945A
:1001C00002700C9412B10C9472BD0C94C1B20C94D8
:1001D00024B10C9411B00C9431B10C94F0AF0D9487
:1001E000E72C0C94A2B20C94C3B50C945D4B0C9408
:1001F00080B10C9499AF0C94AFB00C9418B10D94DD
:1002000041300C94EBB20C945FB50D943F300C94DC
:1002100003B50C9453B10C9498B50C9466B40C943B
:10022000EBB40C9427B10C948AB10C9433C00C94A9
:1002300059BD0C9457B10C9400BD0C941CB10C9496
:1002400052B10C94214B0C9465B40C948B4B0D94CF
:10025000532E0C94C8B20C9468BD0C9420B10C942D
:1002600098BC0C9445BD0C9490BD0C94E4B10C94D6
:1002700077B50C9421BD0C9488B40C9405B20C9401
:100280005BB10D9447300C9439B20C9437B10C9497
:10029000CFB20C94B9B20D9445300C9475B40D9452
:1002A000BB370D9449300C943BBD0C9445B10C9474
:1002B00086BD0C943BB10C94D6B20C947CBD0C94CE
:1002C00082B14E414E494E495459494E46CDCCCC4F
:1002D0003D0AD7233C17B7D13877CC2B329595E61A
:1002E000241FB14F0A000020410000C84200401CFA
:1002F0004620BCBE4CCA1B0E5AAEC59D7452464920
:100300004453656E736F72476F6F64203D200044E5
:10031000697374616E636553656E736F72476F6F57
:1003200064203D20004C6F616443656C6C53656EC6
:10033000736F72476F6F64203D2000416374756175
:10034000746F72486F6D696E67476F6F64203D20F0
:10035000004163747561746F724F75746572557086
:100360004F70746F476F6F64203D20004163747558
:1003700061746F72496E6E657255704F70746F471D
:100380006F6F64203D20004163747561746F724D1E
:100390006F746F72456E636F646572476F6F642030
:1003A0003D20004163747561746F724D6F746F729C
:1003B000476F6F64203D20004361726F7573656CF9
:1003C000486F6D696E67476F6F64203D2000436121
:1003D000726F7573656C43656E746572456E636F9D
:1003E000646572476F6F64203D20004361726F75D2
:1003F00073656C4D6F746F72456E636F64657247A1
:100400006F6F64203D20004361726F7573656C4DA2
:100410006F746F72476F6F64203D20004361726F8D
:100420007573656C486F6D654F70746F476F6F645F
:10043000203D2000526967687450756D7053657275
:1004400069616C4E756D6265725B5D203D20005286
:100450006967687450756D7053657269616C4E752B
:100460006D6265724861734265656E44697370655B
:100470006E736564203D20004C65667450756D7028
:1004800053657269616C4E756D6265725B5D203D8E
:1004900020004C65667450756D7053657269616CAF
:1004A0004E756D6265724861734265656E4469732D
:1004B00070656E736564203D20004F7665727269C9
:1004C00064655246494449664974446F65736E7465
:1004D0005265616450726F7065726C79203D2000C6
:1004E000675369646550616E656C427269676874D0
:1004F0006E657373203D20005369646550616E65BD
:100500006C4272696768746E657373203D200048A1
:10051000617352656C6F6164446F6F724C6F636B93
:10052000203D20004973426C61636B426F776C41E0
:10053000726561203D20002C20436F756E74203D54
:10054000200041766572616765206F66206E6F6E70
:100550002D7A65726F20496E697469616C416374AC
:100560007561746F72506F736974696F6E73203D3B
:1005700020005D203D200053657269616C4E756DF1
:10058000626572735B005D203D2000536572696196
:100590006C4E756D6265724861734265656E446943
:1005A0007370656E7365645B005D203D2000496E6D
:1005B000697469616C4163747561746F72506F73B3
:1005C0006974696F6E735B00496E697469616C412F
:1005D00063747561746F72506F736974696F6E20A4
:1005E0003D20005363616C655F43616C69627261B9
:1005F00074696F6E5F576569676874203D200053AA
:1006000063616C655F43616C6962726174696F6E8E
:100610005F32303067203D20005363616C655F437B
:10062000616C6962726174696F6E5F5A65726F2086
:100630003D20005363616C655F43616C6962726168
:1006400074696F6E203D200046575F4255494C4407
:10065000203D200044697370656E7365725F4D6F55
:1006600064656C5F4D696E6F72203D200044697354
:1006700070656E7365725F4D6F64656C5F4D616A26
:100680006F72203D200044697370656E7365725F00
:1006900053657269616C203D200045455050524FB2
:1006A0004D5F56455253494F4E203D2000476574DB
:1006B000414D54323033456E636F646572506F73D1
:1006C0006974696F6E20414D5432303363757272B4
:1006D000656E74506F736974696F6E3A2000526171
:1006E0007720414D5432303363757272656E7450A9
:1006F0006F736974696F6E3A200052657365742078
:1007000041726475696E6F20746F207265737461D5
:1007100072742070726F6772616D2E004572726F15
:1007200072206F627461696E696E6720706F7369A1
:1007300074696F6E2E00446F6E65207A65726F6902
:100740006E6720656E636F6465722C2043757272EC
:10075000656E7420706F736974696F6E3A20005211
:10076000657365742041726475696E6F20746F20C3
:10077000726573746172742070726F6772616D2E2E
:10078000004572726F72206F627461696E696E6784
:1007900020706F736974696F6E2E00342E2E2E00D8
:1007A000332E2E2E00322E2E2E00312E2E2E0047CE
:1007B0006F696E6720746F207A65726F2074686548
:1007C00020414D5432303320656E636F6465722072
:1007D0006E6F772E2E2E206D6179206E65656420F8
:1007E000746F20706F776572206379636C65206128
:1007F0006674657220746869732E00436F72726547
:100800006374656420414D5432323220456E636F0B
:100810006465723A2000414D5432323220456E6395
:100820006F6465723A2000414D5432323220726555
:100830006164206572726F722E20417474656D70F0
:1008400074733A2000446F6E65207A65726F696E2A
:100850006720656E636F6465722C204375727265E4
:100860006E7420706F736974696F6E3A2000476F01
:10087000696E6720746F207A65726F2074686520D6
:10088000414D5432323220656E636F646572206E62
:100890006F772E2E2E00456E64696E67204163745B
:1008A0007561746F7220506F736974696F6E203D4B
:1008B00020005374617274696E67204163747561BE
:1008C000746F7220506F736974696F6E203D2000E1
:1008D000486F6D654163747561746F7220776173E1
:1008E000207375636365737366756C212020426F96
:1008F0007468206163747561746F727320656E64CF
:1009000065642075702E00414C4552543A20486F62
:100910006D654163747561746F7220776173204EE9
:100920004F54207375636365737366756C2C204137
:1009300063747561746F7220456E636F64657220B5
:1009400052616E6765203C2032207768656E2073A7
:10095000686F756C64206265207E3230302D3330D4
:1009600030002C204163747561746F724F7574652B
:100970007255704F70746F203D2000414C455254A9
:100980003A20486F6D654163747561746F722077AA
:100990006173204E4F54207375636365737366757E
:1009A0006C2C206265636175736520616374756189
:1009B000746F727320617265206E6F7420626F7441
:1009C000682075702E20204163747561746F7249C0
:1009D0006E6E657255704F70746F203D20005375B8
:1009E000626F7074696D616C206F7269656E74619D
:1009F00074696F6E2C207265636F6D6D656E642017
:100A0000666C6970206163747561746F722031382F
:100A100030206465677265657320736F2074686148
:100A200074206D617820746F727175652069732010
:100A30006F6E206F7574657220736C6F74732073A2
:100A4000696E6365207468657927726520757365C2
:100A500064206D6F7265206F6674656E2E00476F3F
:100A60006F64206F7269656E746174696F6E2C209B
:100A70006D617820746F72717565206F6E206F756F
:100A800074657220736C6F74732073696E63652074
:100A9000746865792772652075736564206D6F725F
:100AA00065206F6674656E2E002C2041637475613D
:100AB000746F72446972656374696F6E496E6E65B6
:100AC00072446F776E4F757465725570203D2000CB
:100AD000456E64206F6620486F6D696E67204163C4
:100AE000747561746F722C20456E636F646572203B
:100AF0003D200046696E616C204163747561746FBE
:100B00007220706F736974696F6E206166746572AC
:100B100020686F6D6520746F20302069732000435A
:100B20006F6E6669726D696E67206E657720706F93
:100B3000736974696F6E20697320002C20736F20B5
:100B40006E657720706F736974696F6E20697320AA
:100B5000002C20736F2074616B65207468652064BD
:100B60006966666572656E636520696E207A657276
:100B70006F20706F696E747320616E642061646AA7
:100B800075737420697420627920004375727265F0
:100B90006E746C7920617420002C20736F20736553
:100BA00074207A65726F20706F696E74206265744C
:100BB0007765656E207468652074776F2C2061748A
:100BC000200020746F20004163747561746F72207F
:100BD000456E636F6465722072616E67652069732C
:100BE00020004163747561746F7220456E636F6499
:100BF00065722052616E6765203C203220776865FF
:100C00006E2073686F756C64206265207E323030B0
:100C10002D3330302E20436865636B20416374753B
:100C200061746F7220456E636F64657220576972DC
:100C300065732028342070696E20636F6E6E656363
:100C4000746F72292E202049662061637475617467
:100C50006F727320646964206E6F74206D6F7665A7
:100C60002C20636865636B206163747561746F72B7
:100C7000206D6F746F72207769726573202832203F
:100C800070696E20636F6E6E6563746F72292E00DB
:100C9000414C4552543A20426F7468206163747528
:100CA00061746F72206F70746F732072656164205D
:100CB000646F776E202D20746869732069732061DA
:100CC0006E206572726F7220636173652E202047FB
:100CD0006F696E6720746F2073746F7020616E642B
:100CE0002072657475726E206661696C757265201C
:100CF0006F6E20486F6D654163747561746F72210A
:100D0000005374616C6C6564206D6F72652074684B
:100D1000616E2035302074696D65732C20657869AB
:100D200074696E672074686973206C6F6F702E0031
:100D30005374616C6C656421204E65656420746F2A
:100D400020676F20696E206F746865722064697215
:100D5000656374696F6E206E6F772C20616E6420FE
:100D600072657665727365206C6F6769632E004FDC
:100D7000757465722075702C20696E6E65722064C2
:100D80006F776E202D20736F206D6F766520696EF2
:100D90006E657220757020666972737420746F209E
:100DA0006D616B65206F7574657220676F20646F6D
:100DB000776E00095573696E672072657665727388
:100DC0006564206C6F6769632C2077616974656462
:100DD00020666F7220496E6E657220746F20676F97
:100DE00020646F776E20686572652073696E636535
:100DF000206F757465722077656E7420646F776EEE
:100E000020696E2070726576696F7573206C6F6FE4
:100E1000702E005374616C6C6564206D6F72652078
:100E20007468616E2035302074696D65732C20659F
:100E3000786974696E672074686973206C6F6F706D
:100E40002E005374616C6C656421204E65656420CE
:100E5000746F20676F20696E206F746865722064FC
:100E60006972656374696F6E206E6F772C20616E96
:100E7000642072657665727365206C6F6769632E96
:100E800000094F757465722077656E7420646F7702
:100E90006E207768656E20657870656374696E672B
:100EA00020696E6E65722E202052657665727369B8
:100EB0006E67206C6F6769632E0009496E6E6572FC
:100EC00020646F776E2C2073746F7070696E67206A
:100ED0006669727374206C6F6F7000416374756122
:100EE000746F724F7574657255704F70746F2069AE
:100EF0007320646F776E20616C72656164792E2057
:100F0000204D6F76696E6720697420757020616E60
:100F10006420496E6E657220646F776E2E00426F9A
:100F20007468206172652075702C20636F756C6425
:100F300020676F20656974686572206469726563F3
:100F400074696F6E2E202043686F6F73696E67201F
:100F5000496E6E657220446F776E2E002C204163BF
:100F6000747561746F72446972656374696F6E49F8
:100F70006E6E6572446F776E4F7574657255702032
:100F80003D20005374617274206F6620486F6D6954
:100F90006E67204163747561746F722C20456E63B7
:100FA0006F646572203D200046696E616C20524777
:100FB00042204F75743A09005269676874436F6C38
:100FC0006F7250756C7365496E3A09004C656674B2
:100FD000436F6C6F7250756C7365496E3A090046C9
:100FE00061696C656420746F2067657420337820B4
:100FF00064697374616E63652072656164696E67AC
:101000007320696E2052656164436F6C6F72536523
:101010006E736F72732C20617373756D696E6720C8
:1010200063656E74657265642E000941766752616E
:101030006E67653A09000952616E6765333A0900C7
:101040000952616E6765323A090052616E67653117
:101050003A0900446F2066756C6C20574849544526
:101060002072656164696E6700446F20616D62691A
:10107000656E74206C696768742072656164696E5E
:10108000672077697468204E656F506978656C7366
:10109000204F464600436F6C6F722073656E736F0E
:1010A0007273206E6F7420696E7374616C6C65640A
:1010B0002C2064656661756C74696E6720746F209E
:1010C000524742282D312C2D312C2D3129000A4C2C
:1010D0006F61642043656C6C2053616D706C696E48
:1010E00067206661696C7572652C20526561646960
:1010F0006E6773206E6F742077697468696E20372D
:10110000352E30206772616D7320696E20302E316C
:10111000207365632E2053616D706C6573202831D8
:101120003078204144432076616C75657320666990
:101130007273742C207468656E2031307820696E6B
:10114000206772616D73293A0900094E6577205353
:10115000616D706C65733A09000A54776F204261C3
:10116000642053616D706C65732C20676F696E67C6
:1011700020746F207265706C616365207769746894
:101180002032206E65772073616D706C65733A094B
:10119000000A54776F204261642053616D706C6562
:1011A00073206661696C7572652C20676F696E6764
:1011B00020746F207265706C616365207769746854
:1011C0002032206E65772073616D706C65733A090B
:1011D000002A2A2A4641494C45442A2A2A002A2A1A
:1011E0002A5041535345442A2A2A005461726765A4
:1011F00074206973206C657373207468616E20308D
:101200002E312067202F20313030206D672C207345
:101210006F2074686973207465737420004176656B
:101220007261676520446966666572656E636520F4
:10123000286D67293A200041766572616765204410
:101240006966666572656E6365202867293A2000C5
:1012500041766572616765205765696768743A20F1
:10126000004D6561737572696E67206C6F616420F3
:1012700063656C6C206E6F6973652C203230302092
:1012800073616D706C65732C2073616D706C657328
:10129000207065722072656164696E67203D200070
:1012A00009616C69676E6D656E7409000947657444
:1012B0004F7574657252656C6F6164536C6F74091D
:1012C00000436865636B696E67204F757465725281
:1012D000656C6F61644973416C69676E6564282948
:1012E0003A204765744F7574657252656C6F61641E
:1012F000536C6F744173466C6F6174090009616CC3
:1013000069676E6D656E74090009476574496E6E94
:10131000657252656C6F6164536C6F740900436849
:1013200065636B696E6720496E6E657252656C6F9E
:1013300061644973416C69676E656428293A204786
:101340006574496E6E657252656C6F6164536C6F43
:10135000744173466C6F6174090009496E6E657261
:10136000536C6F745F48696768203D2009004F75B2
:10137000746572536C6F745F48696768203D20091B
:101380000009496E6E6572536C6F745F4C6F772005
:101390003D2009004F75746572536C6F745F4C6F1C
:1013A00077203D20090009496E6E6572536C6F7499
:1013B000203D2009004F75746572536C6F74203D99
:1013C00020090009446F6F724F70656E6564456E49
:1013D000636F64657253746570706572506F735F8C
:1013E0004C6F77203D20090009446F6F724F706584
:1013F0006E6564456E636F64657253746570706585
:1014000072506F735F48696768203D200900446F20
:101410006F724F70656E6564456E636F646572537D
:10142000746570706572506F73203D20090009412A
:1014300063747561746F724F7574657255704F7017
:10144000746F203D200900094163747561746F72E7
:10145000496E6E657255704F70746F203D200900A3
:10146000094361726F7573656C486F6D65203D202F
:101470000900094163747561746F72506F73203D88
:1014800020090009414D54323232506F736974693A
:101490006F6E090009414D54323033506F736974D7
:1014A000696F6E0900094361726F7573656C4472F0
:1014B00069766572506F736974696F6E0900436174
:1014C000726F7573656C456E636F646572506F7390
:1014D0006974696F6E0900484F4D494E4720444971
:1014E00044204E4F5420574F524B2050524F50459E
:1014F000524C59212020574520415245204E4F54EF
:101500002041542054484520484F4D454341524FB7
:101510005553454C204F50544F204255542053486A
:101520004F554C4420424521204F72207765206E54
:1015300065766572206D6F766564206F6666206FD4
:10154000662069742070726F7065726C792E204FFE
:1015500072206D6F746F7220656E636F64657220A8
:101560006F722063656E74657220656E636F64656B
:1015700072206973206261642E20536565206D6559
:101580007373616765732061626F76652E00486FC3
:101590006D654361726F7573656C207365717565F8
:1015A0006E6365207375636365737366756C2E0077
:1015B000094163747561746F724F7574657255700B
:1015C0004F70746F203D2009000941637475617488
:1015D0006F72496E6E657255704F70746F203D204A
:1015E0000900094361726F7573656C486F6D652002
:1015F0003D20090009616363656C53746570706513
:10160000722E63757272656E74506F736974696F50
:101610006E2829203D200900537465707065725052
:101620006F7330203D20090053746570706572201F
:101630006D6F746F72206E6F7420706F7765726556
:1016400064206F72206E6F74206D6F76696E6720F4
:101650002D20636C6F73652072656C6F616420640C
:101660006F6F7220616E64207472792061676169A6
:101670006E2E0009486F6D654361726F7573656CFE
:10168000456E636F646572506F736974696F6E2025
:101690003D20090009486F6D654361726F75736580
:1016A0006C53746570706572506F736974696F6E96
:1016B000203D200900096669727374486F6D6543A7
:1016C00061726F7573656C456E636F646572506FA0
:1016D000736974696F6E203D2009006669727374C6
:1016E000486F6D654361726F7573656C5374657097
:1016F000706572506F736974696F6E203D200900C8
:1017000043656E7465724D6F746F72456E636F647E
:101710006572206973206261642C2069742073688B
:101720006F756C642068617665206D6F76656420E6
:101730003533206F72203733202831302D3930294E
:101740002062757420696E7374656164206D6F76B4
:1017500065642043656E746572456E636F6465727F
:10176000446966666572656E6365203D200043616D
:10177000726F7573656C4D6F746F72456E636F64D5
:101780006572206973206261642C2069742073681B
:101790006F756C642068617665206D6F7665642076
:1017A0003735202836352D38352920627574206963
:1017B0006E7374656164206D6F7665642043617239
:1017C0006F7573656C456E636F64657244696666B8
:1017D0006572656E6365203D20000943656E746522
:1017E00072456E636F646572446966666572656EA4
:1017F0006365203D200900094361726F7573656C54
:10180000456E636F646572446966666572656E6392
:1018100065203D200900094F6666486F6D65436588
:101820006E746572456E636F646572506F73697430
:10183000696F6E203D200900094F6666486F6D652F
:101840004361726F7573656C456E636F646572504A
:101850006F736974696F6E203D200900094F6666D9
:10186000486F6D6553746570706572506F736974FD
:10187000696F6E203D200900096669727374486FB4
:101880006D6543656E746572456E636F6465725015
:101890006F736974696F6E203D2009000966697273
:1018A0007374486F6D654361726F7573656C456ED7
:1018B000636F646572506F736974696F6E203D2049
:1018C0000900436865636B696E6720656E636F64CA
:1018D0006572733A206669727374486F6D6543610F
:1018E000726F7573656C53746570706572506F7349
:1018F0006974696F6E203D2009005374616C6C69D6
:101900006E672064657465637465642C2064696423
:101910006E2774206D6F7665206174206C6561732D
:10192000742032303020656E636F64657220636F9F
:10193000756E747320696E2031207365632E0054B8
:101940006F6F206D616E7920476F546F506F7369B0
:1019500074696F6E2072657472696573202D2065DD
:1019600072726F72696E67206F7574207769746820
:10197000206D69736D617463682062657477656555
:101980006E20414D5431303220616E6420414D54FF
:101990003230332F414D54323232206F72206A750B
:1019A0007374206469646E27742067657420746F93
:1019B000207461726765742E20476F546F506F7387
:1019C0006974696F6E204661696C7572652E00528C
:1019D00065686F6D696E67207375636365737366A1
:1019E000756C2C20676F696E6720746F2074727934
:1019F0002074686520476F546F506F736974696F06
:101A00006E20616761696E2E005265686F6D696E48
:101A100067206661696C65642C20676976696E670A
:101A2000207570206F6E20746865206361726F7519
:101A300073656C206D6F76656D656E742E00436501
:101A40006E74657220656E636F646572206D697374
:101A50006D617463682C20676F696E6720746F20F6
:101A60007265686F6D6520746865206361726F755B
:101A700073656C20616E642074727920616761699E
:101A80006E005265747279696E67207468652063B0
:101A900061726F7573656C206D6F76656D656E74C0
:101AA0002064756520746F2063656E7465722065AF
:101AB0006E636F646572206D69736D617463682015
:101AC0002D20736C697070696E672063656E746534
:101AD0007220656E636F6465722E204C696D697447
:101AE000206F6620333520616E64206163747561F8
:101AF0006C206F6620005265747279696E6720747D
:101B00006865206361726F7573656C206D6F7665B3
:101B10006D656E742064756520746F2073746570D4
:101B2000706572206D6F746F7220656E636F64658F
:101B300072206D69736D61746368202D206C696B10
:101B4000656C79207374616C6C6564206D6F746F63
:101B5000722C20746F6F2068656176792C20746F09
:101B60006F206D756368206672696374696F6E2C8F
:101B7000206F7220626164206D6F746F72206D6FD0
:101B8000756E7420616C69676E6D656E742F73700D
:101B900072696E672E204C696D6974206F66203201
:101BA0003020616E642061637475616C206F662003
:101BB00000414D5432323220456E636F64657220AD
:101BC000506F736974696F6E204572726F72206F07
:101BD00066200054617267657420414D5432323280
:101BE00020456E636F64657220506F736974696F0E
:101BF0006E206F66200043757272656E7420414DD1
:101C00005432323220456E636F64657220506F73B8
:101C10006974696F6E206F662000414D5432303315
:101C200020456E636F64657220506F736974696FCD
:101C30006E204572726F72206F6620005461726769
:101C4000657420414D5432303320456E636F6465B6
:101C50007220506F736974696F6E206F6620004345
:101C6000757272656E7420414D5432303320456E6A
:101C7000636F64657220506F736974696F6E206F53
:101C80006620005374657070657220456E636F64E2
:101C9000657220506F736974696F6E204572726F40
:101CA00072206F66200043757272656E74205374E3
:101CB000657070657220456E636F64657220506F49
:101CC000736974696F6E206F66200053746570705D
:101CD00065722044726976657220506F7369746909
:101CE0006F6E204572726F72206F662000437572AE
:101CF00072656E74205374657070657220447269E9
:101D000076657220506F736974696F6E206F6620FC
:101D1000004361726F7573656C206D6F76656D65DC
:101D20006E74206661696C6564202D2073746F7019
:101D300070696E672E2020456974686572206E6F29
:101D4000206D6F76656D656E7420617420616C6CBA
:101D500020283C352073746570732073696E636549
:101D6000206C61737420353030206D736563292CCD
:101D7000206F7220706F736974696F6E206465766E
:101D8000696174696F6E2066726F6D207768657225
:101D9000652073686F756C642062652076732077A8
:101DA0006865726520617265206261736564206F89
:101DB0006E20656E636F6465722E0046696E616C9D
:101DC0002052657472792023342C206C6F776572F1
:101DD000696E6720616363656C65726174696F6EBB
:101DE00020616E642072616973696E67206D6F7621
:101DF000652063757272656E742E00526574727917
:101E00002023332C206C6F776572696E67206163C5
:101E100063656C65726174696F6E20616E642072B7
:101E2000616973696E67206D6F7665206375727284
:101E3000656E742E0052657472792023322C206CEA
:101E40006F776572696E6720616363656C65726147
:101E500074696F6E20616E642072616973696E6768
:101E6000206D6F76652063757272656E742E0052F8
:101E7000657472792023312C206C6F776572696EDE
:101E80006720616363656C65726174696F6E206160
:101E90006E642072616973696E67206D6F7665206C
:101EA00063757272656E742E002E204469737461BE
:101EB0006E636546726F6D546172676574203D2074
:101EC00000292043616C6C65642C20437572726537
:101ED0006E7420506F736974696F6E203D200047E7
:101EE0006F546F506F736974696F6E456E636F6482
:101EF000657228002E2044697374616E63654672B2
:101F00006F6D546172676574203D20002920436124
:101F10006C6C65642C2043757272656E7420506F12
:101F2000736974696F6E203D2000476F546F506F66
:101F3000736974696F6E280044697374616E6365B8
:101F400046726F6D5461726765744D696E7573206A
:101F50003D20090044697374616E636546726F6D5C
:101F6000546172676574506C7573203D200900449C
:101F7000697374616E636546726F6D5461726765F3
:101F800074203D20090043757272656E74506F7342
:101F90006974696F6E203D20090054617267657431
:101FA000506F736974696F6E203D20090054727917
:101FB000696E6720746F20486F6D654361726F753D
:101FC00073656C2C2073696E636520697420686189
:101FD000736E2774207375636365737366756C6CB9
:101FE0007920686F6D6564207965742E00496E767E
:101FF000616C696420736C6F74206E756D626572BC
:1020000020666F7220353020736C6F7420646973A2
:1020100070656E7365723A20536C6F742000496E60
:1020200076616C696420736C6F74206E756D626587
:102030007220666F7220353020736C6F7420646973
:102040007370656E73657200656E636F646572535D
:10205000746570706572506F73206F7574206F6651
:102060002072616E6765202D2073657474696E67D8
:10207000206E657720656E636F646572537465705A
:10208000706572506F73206F6620004375727265C1
:102090006E74506F736974696F6E206F7574206F02
:1020A000662072616E6765202D2073657474696E99
:1020B00067206E65772043757272656E7420506F6D
:1020C000736974696F6E206F662000656E636F645C
:1020D000657253746570706572506F73206F75749C
:1020E000206F662072616E6765202D2073657474A1
:1020F000696E67206E657720656E636F64657253E5
:10210000746570706572506F73206F662000437540
:102110007272656E74506F736974696F6E206F753B
:1021200074206F662072616E6765202D2073657460
:1021300074696E67206E65772043757272656E7480
:1021400020506F736974696F6E206F662000436161
:10215000726F7573656C206D6F76656D656E74203A
:102160006661696C65642E2020536C697070696EBD
:10217000672063757272656E742077617320004109
:102180004D5432323220456E636F64657220506F59
:10219000736974696F6E204572726F72206F66206A
:1021A0000054617267657420414D543232322045CB
:1021B0006E636F64657220506F736974696F6E200F
:1021C0006F66200043757272656E7420414D543203
:1021D000323220456E636F64657220506F7369748C
:1021E000696F6E206F662000414D543230332045B8
:1021F0006E636F64657220506F736974696F6E20CF
:102200004572726F72206F66200054617267657448
:1022100020414D5432303320456E636F6465722027
:10222000506F736974696F6E206F6620004375721A
:1022300072656E7420414D5432303320456E636FA9
:1022400064657220506F736974696F6E206F6620C9
:10225000005374657070657220456E636F646572BB
:1022600020506F736974696F6E204572726F7220AF
:102270006F66200043757272656E742053746570CA
:1022800070657220456E636F64657220506F73696C
:1022900074696F6E206F662000537465707065728C
:1022A0002044726976657220506F736974696F6E2D
:1022B000204572726F72206F6620004375727265DE
:1022C0006E7420537465707065722044726976650F
:1022D0007220506F736974696F6E206F66200043BF
:1022E00061726F7573656C206D6F76656D656E7468
:1022F000206661696C65642C206D7573742068615B
:102300007665207374616C6C65642E20204D6F7649
:10231000652043757272656E7420746861742069FB
:1023200074206661696C6564206174207761732034
:10233000002E2044697374616E636546726F6D543C
:102340006172676574203D2000292043616C6C65D3
:10235000642C2043757272656E7420506F736974BB
:10236000696F6E203D2000476F546F506F73697422
:10237000696F6E456E636F64657228002E20446934
:102380007374616E636546726F6D546172676574D4
:10239000203D2000292043616C6C65642C2043752E
:1023A0007272656E7420506F736974696F6E203D30
:1023B0002000476F546F506F736974696F6E280007
:1023C00044697374616E636546726F6D54617267C0
:1023D00065744D696E7573203D20090044697374FE
:1023E000616E636546726F6D546172676574506C9F
:1023F0007573203D20090044697374616E636546FE
:10240000726F6D546172676574203D2009004375D9
:102410007272656E74506F736974696F6E203D20BF
:102420000900546172676574506F736974696F6EE7
:10243000203D200900416D6F756E745F44697370B3
:10244000656E7365643A0900576569676874204171
:10245000667465722031207365633A0900576569B7
:102460006768742041667465723A0900446F6E654E
:1024700000526576657273696E67005765696768B3
:1024800074204265666F72653A09005E6C65667419
:10249000646F6F725F6F70656E65643A307C3A246A
:1024A000005E6C656674646F6F725F6F70656E65F9
:1024B000643A307C3A24005E6C656674646F6F72B7
:1024C0005F636C6F7365643A307C3A24005E6C65C0
:1024D0006674646F6F725F636C6F7365643A307CAF
:1024E0003A24005E7269676874646F6F725F6F7020
:1024F000656E65643A307C3A24005E726967687480
:10250000646F6F725F6F70656E65643A307C3A24F9
:10251000005E7269676874646F6F725F636C6F737B
:1025200065643A307C3A24005E7269676874646F4F
:102530006F725F636C6F7365643A307C3A2400524B
:102540004649442072617720646174613A200052E8
:102550004649442063617264206E756D6265723A0B
:1025600020002C20466F756E64203D2000524649A5
:10257000444C6F6F702000436865636B696E672021
:10258000524649442053656E736F723A00206F665D
:1025900020000A0A4379636C6520005E646F6F72E5
:1025A0005F6F70656E65643A307C3A24005E646FDC
:1025B0006F725F6F70656E65643A307C3A24005EBE
:1025C000646F6F725F636C6F7365643A307C3A243A
:1025D000005E646F6F725F636C6F7365643A307C2A
:1025E0003A240052657363616E204C6566746F76A1
:1025F0006572203D200052657363616E20577261E1
:1026000070203D200052657363616E204C656674D6
:102610006F766572203D200052657363616E204EB7
:102620006F2057726170203D200052657363616EA8
:10263000204C6566746F766572203D20005265738C
:1026400063616E2057726170203D20005265736394
:10265000616E204C6566746F766572203D20005275
:10266000657363616E204E6F2057726170203D204C
:102670000052657363616E20416C6C203D20005EEA
:1026800070617573653A005E72657365743A005ED9
:1026900063616E63656C3A005E70617573653A00E4
:1026A0005E72657365743A005E63616E63656C3A71
:1026B000003A24005E6F7665723A317C003A24005D
:1026C0005E6F7665723A317C003A24005E6D697304
:1026D000733A317C003A24005E6D6973733A317C41
:1026E000003A24005E7365745F7363616C655F6CB0
:1026F0006564735F726573703A327C73756363658A
:1027000073733A003A24005E7365745F7363616C9F
:10271000655F6C6564735F726573703A327C737564
:1027200063636573733A007365745F7363616C65AB
:102730005F6C656473006F66660066696E697368D6
:10274000656400616C6572740064697370656E73B2
:10275000696E67006469737000626F776C00616313
:10276000746976650069646C650056616C756520F6
:102770007061737365643D00496E207365745F73A7
:1027800063616C655F6C65647321003A24005E646C
:10279000656D6F5F726573703A327C7375636365E4
:1027A00073733A003A24005E64656D6F5F726573FF
:1027B000703A327C737563636573733A0064656D58
:1027C0006F0056616C7565207061737365643D00C0
:1027D000496E2064656D6F2066756E6374696F6EF7
:1027E00021005E70696E673A307C3A24005E706941
:1027F0006E673A307C3A2400416D6F756E745F44A9
:10280000697370656E7365643A0900576569676836
:10281000742041667465722031207365633A090043
:102820005765696768742041667465723A090044A7
:102830006F6E6500526576657273696E67005765E5
:1028400069676874204265666F72653A090053745F
:1028500065707065722050756D7020447269766580
:102860007220506F736974696F6E204572726F7257
:10287000206F66200043757272656E742050756D0E
:102880007020537465707065722044726976657249
:1028900020506F736974696F6E206F6620002E2060
:1028A00044697374616E636546726F6D54617267DB
:1028B0006574203D2000292043616C6C65642C20E8
:1028C00043757272656E7420506F736974696F6EB0
:1028D000203D2000476F546F506F736974696F6EAD
:1028E0002800537465707065722050756D702044B7
:1028F000726976657220506F736974696F6E2045D6
:1029000072726F72206F66200043757272656E740A
:102910002050756D7020537465707065722044721C
:102920006976657220506F736974696F6E206F6687
:1029300020002E2044697374616E636546726F6D6A
:10294000546172676574203D2000292043616C6CDE
:1029500065642C2043757272656E7420506F7369C4
:1029600074696F6E203D2000476F546F506F73691C
:1029700074696F6E28003A24005E64697370656E36
:1029800073655F74696D65645F726573703A327CFC
:10299000737563636573733A003A24005E64697308
:1029A00070656E73655F74696D65645F7265737081
:1029B0003A327C737563636573733A00646973704C
:1029C000656E73655F74696D6564004166746572F8
:1029D00020686F6D652061637475616C2C20736570
:1029E00074706F696E742C2070776D3A00456E6458
:1029F000696E67204163747561746F7220616374DE
:102A000075616C2C20736574706F696E742C207006
:102A1000776D3A005374617274696E672041637414
:102A20007561746F722061637475616C2C207365BD
:102A300074706F696E742C2070776D3A0056616CFB
:102A40007565207061737365643D0056616C7565D2
:102A5000207061737365643D00496E206469737012
:102A6000656E73652074696D656421005E646F6FC7
:102A7000725F756E6C6F636B5F726573703A317CF9
:102A8000737563636573733A24005E646F6F725F7E
:102A9000756E6C6F636B5F726573703A317C7375C2
:102AA00063636573733A2400646F6F725F756E6C55
:102AB0006F636B006C6F636B656400756E6C6F6346
:102AC0006B6564006C6F636B656400756E6C6F633F
:102AD0006B656400203D2000416674657220556E70
:102AE0006C6F636B696E672C2052656C6F61644418
:102AF0006F6F72556E6C6F636B53656E7365506963
:102B00006E203D2000203D20004265666F726520EA
:102B1000556E6C6F636B696E672C2052656C6F61CC
:102B200064446F6F72556E6C6F636B53656E736543
:102B300050696E203D2000496E20646F6F725F7592
:102B40006E6C6F636B2066756E6374696F6E2100C7
:102B50005E636162696E65745F6C6F636B5F726503
:102B600073703A317C737563636573733A24005EE6
:102B7000636162696E65745F6C6F636B5F726573CE
:102B8000703A317C737563636573733A24006361D3
:102B900062696E65745F6C6F636B00416674657229
:102BA000204C6F636B696E672C2045787465726E7C
:102BB000616C446F6F72556E6C6F636B53656E73AF
:102BC0006550696E3A20004265666F7265204C6FF1
:102BD000636B696E672C2045787465726E616C4416
:102BE0006F6F72556E6C6F636B53656E7365506972
:102BF0006E3A2000496E20636162696E65745F6C95
:102C00006F636B2066756E6374696F6E21005E631F
:102C10006162696E65745F756E6C6F636B5F726520
:102C200073703A317C737563636573733A24005E25
:102C3000636162696E65745F756E6C6F636B5F7202
:102C40006573703A317C737563636573733A2400FE
:102C5000636162696E65745F756E6C6F636B004172
:102C60006674657220556E6C6F636B696E672C209D
:102C700045787465726E616C446F6F72556E6C6FDF
:102C8000636B53656E736550696E3A2000426566EA
:102C90006F726520556E6C6F636B696E672C204593
:102CA000787465726E616C446F6F72556E6C6F6391
:102CB0006B53656E736550696E3A2000496E2063F0
:102CC0006162696E65745F756E6C6F636B206675AB
:102CD0006E6374696F6E2100636C6F736564006F5F
:102CE00070656E003A2400636C6F736564006F70EA
:102CF000656E005E6C656674646F6F725F7374619D
:102D00007475735F726573703A317C003A24005EAB
:102D10006C656674646F6F725F7374617475735FF2
:102D2000726573703A317C006C656674646F6F72A3
:102D30005F737461747573004C656674446F6F7271
:102D40004F70656E203D2000636C6F736564006F8B
:102D500070656E003A2400636C6F736564006F7079
:102D6000656E005E7269676874646F6F725F73741A
:102D7000617475735F726573703A317C003A240038
:102D80005E7269676874646F6F725F737461747583
:102D9000735F726573703A317C007269676874643E
:102DA0006F6F725F737461747573005269676874D2
:102DB000446F6F724F70656E203D200072656D6FBD
:102DC00076656400696E736572746564003A240008
:102DD00072656D6F76656400696E736572746564A3
:102DE000005E77697065725F7374617475735F728A
:102DF0006573703A317C003A24005E7769706572C1
:102E00005F7374617475735F726573703A317C00BF
:102E100077697065725F7374617475730057697058
:102E20006572496E736572746564203D2000726539
:102E30006D6F76656400696E736572746564003ADF
:102E4000240072656D6F76656400696E73657274D7
:102E50006564005E64726970747261795F73746135
:102E60007475735F726573703A317C003A24005E4A
:102E700064726970747261795F7374617475735F81
:102E8000726573703A317C00647269707472617932
:102E90005F73746174757300447269705472617900
:102EA000496E736572746564203D20003A24005EAB
:102EB000706F736974696F6E5F63616E6973746557
:102EC000725F7265706C6163655F726573703A32D0
:102ED0007C6661696C7572653A003A24005E706FB9
:102EE000736974696F6E5F63616E69737465725F35
:102EF0007265706C6163655F726573703A327C668F
:102F000061696C7572653A003A24005E706F73698E
:102F100074696F6E5F63616E69737465725F726509
:102F2000706C6163655F726573703A327C73756350
:102F3000636573733A003A24005E706F7369746955
:102F40006F6E5F63616E69737465725F7265706CDA
:102F50006163655F726573703A327C737563636534
:102F600073733A00706F736974696F6E5F63616E3B
:102F700069737465725F7265706C61636500566138
:102F80006C7565207061737365643D00496E2070D7
:102F90006F736974696F6E2063616E6973746572B3
:102FA000207265706C6163652066756E6374696F0D
:102FB0006E2100496E2070617573652066756E63C1
:102FC00074696F6E21005E72657363616E5F737406
:102FD00061727465643A307C3A24005E7265736392
:102FE000616E5F737461727465643A307C3A240078
:102FF0005E72657363616E5F66696E69736865644E
:103000003A307C3A24005E72657363616E5F666974
:103010006E69736865643A307C3A24005E72657349
:1030200063616E5F63616E6973746572735F72650D
:1030300073703A317C6661696C7572653A24005E22
:1030400072657363616E5F63616E697374657273D9
:103050005F726573703A317C6661696C7572653A4E
:1030600024004861766557655375636365737366BD
:10307000756C6C79486F6D65644361726F757365CB
:103080006C4265666F7265203D2000486F6D65413A
:1030900063747561746F72537563636573734F6E98
:1030A00053746172747570203D20005361666554DD
:1030B0006F526F746174654361726F7573656C28CC
:1030C00029203D200052656C6F6164446F6F724F20
:1030D00070656E203D20005E72657363616E5F6394
:1030E000616E6973746572735F726573703A317C77
:1030F000737563636573733A24005E72657363610D
:103100006E5F63616E6973746572735F726573700D
:103110003A317C737563636573733A24005E72653C
:103120007363616E5F63616E6973746572735F72FE
:103130006573703A317C6661696C7572653A24001A
:103140005E72657363616E5F63616E6973746572ED
:10315000735F726573703A317C6661696C75726514
:103160003A24002152656C6F6164446F6F724F7036
:10317000656E2026262053616665546F526F746118
:1031800074654361726F7573656C2829202626204B
:10319000486F6D654163747561746F7253756363D5
:1031A0006573734F6E537461727475702026262098
:1031B0004861766557655375636365737366756CAF
:1031C0006C79486F6D65644361726F7573656C42AD
:1031D00065666F7265203D2000556E61626C6520EA
:1031E000746F2072657363616E2063616E697374BE
:1031F0006572732064756520746F2074686973202C
:10320000636865636B206661696C696E673A005438
:103210007279696E6720746F20486F6D65436172C3
:103220006F7573656C2C2073696E636520697420FB
:103230006861736E27742073756363657373667555
:103240006C6C7920686F6D6564207965742E004917
:103250006E2072657363616E5F63616E697374651E
:1032600072732066756E6374696F6E2100626C61A3
:10327000636B007768697465005E72657365745F7F
:10328000726573703A317C737563636573733A2446
:10329000005E72657365745F726573703A317C733A
:1032A0007563636573733A2400496E2072657365B4
:1032B000742066756E6374696F6E21005E63616E63
:1032C00063656C5F726573703A317C7375636365B7
:1032D00073733A24005E63616E63656C5F7265733D
:1032E000703A317C737563636573733A2400496E79
:1032F0002063616E63656C2066756E6374696F6EC2
:103300002100496E20726573756D655F66756E6329
:1033100074696F6E2066756E6374696F6E21003A12
:1033200024005E73797374656D5F636865636B5FBA
:10333000726573703A317C00496E207379737465DD
:103340006D5F636865636B2066756E6374696F6E2D
:1033500021003A24005E7374617475735F72657343
:10336000703A317C003A24005E7374617475735F47
:10337000726573703A317C0052656C6F6164446FA2
:103380006F72556E6C6F636B53656E736550696ECB
:10339000203D20005769706572496E7365727465CF
:1033A00064203D2000094163747561746F724F752C
:1033B00074657255704F70746F203D200009416331
:1033C000747561746F72496E6E657255704F70746A
:1033D0006F203D20004163747561746F72456E63A8
:1033E0006F646572203D200041313420414D4953C6
:1033F0002D3330353433205664642052656C6F6150
:1034000064446F6F72436C6F736564203D200043AA
:10341000757272656E74205765696768743A090041
:10342000496E207374617475735F66756E63746939
:103430006F6E2066756E6374696F6E21005E626FD9
:10344000776C5F7765696768745F726573703A322D
:103450007C737563636573733A005E626F776C5F4C
:103460007765696768745F726573703A327C7375EB
:1034700063636573733A005E626F776C5F7765694B
:103480006768745F726573703A327C6661696C75E7
:1034900072653A005E626F776C5F77656967687422
:1034A0005F726573703A327C6661696C7572653AF9
:1034B000002C2053616D706C657320776572653ADE
:1034C0002000426F776C20776569676874204E4FE3
:1034D0005420534554544C45442C20736F2072653E
:1034E0007475726E204661696C75726520627574C0
:1034F0002072657475726E204162736F6C757465AD
:1035000057656967687420616E797761792C20410D
:1035100062736F6C757465576569676874203D20C8
:10352000004E6577205246494420746167206465E7
:103530007465637465642C2074686579206D757397
:1035400074206861766520737761707065642062AD
:103550006F776C732C20736F207765206E656564C0
:1035600020746F2073656E6420626F776C5F706C7F
:1035700061636564206E6F77206265666F72652097
:10358000626F776C5F7765696768745F7265737087
:103590002E00524649442074616773206D61746344
:1035A000682C206E6F206E65656420746F207468CF
:1035B000726F7720626F776C5F706C6163656420F7
:1035C0006576656E7400436C656172696E67206133
:1035D0006C6C20496E697469616C416374756174C7
:1035E0006F72506F736974696F6E735B5D20616E8B
:1035F000642053657269616C4E756D6265724861D5
:10360000734265656E44697370656E7365645B5D76
:103610002E00206F7574206F6620626F756E647364
:103620002C2063616E6E6F742073657420746869FA
:103630007320696E2074686520454550524F4D2EA9
:1036400000736C6F745F6E756D6265722000292067
:10365000746F20005D2028736C6F742000536574B4
:1036600074696E6720496E697469616C4163747531
:1036700061746F72506F736974696F6E735B00462B
:10368000696E616C20656E636F646572203D200019
:103690004166746572206272616B652C20656E6391
:1036A0006F646572203D2000446573697265642013
:1036B000706F736974696F6E203D2000416374758B
:1036C00061746F7252657475726E546F486F6D6578
:1036D000466173742C204265666F726520456E6387
:1036E0006F646572203D2000436865636B206365ED
:1036F0006E74657220656E636F64657220666F72AA
:10370000206C6F6F73656E6573732F736C69707067
:10371000696E67202D20656974686572207468651C
:103720002079656C6C6F7720696E736572742068A0
:10373000617320636F6D65206C6F6F7365206672B7
:103740006F6D207468652073686166742C206861F1
:103750007320706F70706564206F7574206F6620C1
:1037600063656E74657220656E636F6465722C208C
:103770006F72207468652077686F6C6520656E6372
:103780006F64657220697473656C6620686173206C
:10379000746F6F206D75636820776967676C65204B
:1037A000746F206974206F722069736E27742073A0
:1037B00065617465642077656C6C2E002A2A2A4640
:1037C00041494C45442A2A2A002A2A2A5041535367
:1037D00045442A2A2A004174206C65617374206F65
:1037E0006E65206F6620746865206361726F757303
:1037F000656C206D6F76656D656E747320666169AA
:103800006C65642C20736F20746869732069732061
:1038100061206661696C75726520616E64206E6FEF
:103820007420612076616C69642063656E746572D2
:1038300020656E636F64657220736C697070696E69
:103840006720746573742E002A2A2A4641494C4524
:10385000442A2A2A00546869732076616C756520B1
:1038600073686F756C64206265203C20313520746C
:103870006F20656E73757265206E6F20736C697052
:1038800070696E672E00446966666572656E636571
:1038900020696E2063656E74657220656E636F6467
:1038A000657220706F736974696F6E207768656EDA
:1038B000206D6F76696E6720636C6F636B776973D9
:1038C0006520767320636F756E746572636C6F63C9
:1038D0006B77697365206973200043656E74657248
:1038E00020656E636F64657220506F736974696FD1
:1038F0006E4174536C6F743130434357203D200048
:1039000043656E74657220656E636F6465722050E6
:103910006F736974696F6E4174536C6F74313043A7
:1039200057203D20000A43656E74657220656E6302
:103930006F64657220506F736974696F6E4174486B
:103940006F6D65203D20004F766572616C6C207252
:103950006573756C74203D202A2A2A4641494C45DE
:10396000442A2A2A004F766572616C6C2072657356
:10397000756C74203D202A2A2A5041535345442A0D
:103980002A2A004E756D626572206F66206D6F7613
:10399000656D656E74206661696C75726573203D36
:1039A00020004E756D626572206F66206D6F7665C2
:1039B0006D656E742072657472696573203D2000B8
:1039C000206379636C65732E000A0A46696E697319
:1039D000686564204379636C652054657374206F57
:1039E0006620006E756D4661696C75726573203D69
:1039F00020006E756D52657472696573203D2000FC
:103A000053756363657373203D200067476F546F80
:103A1000506F736974696F6E526574726965732053
:103A20003D2000476F546F44697370656E73655332
:103A30006C6F74203D20006E756D4661696C757207
:103A40006573203D20006E756D52657472696573F3
:103A5000203D200053756363657373203D2000672C
:103A6000476F546F506F736974696F6E52657472EB
:103A7000696573203D2000476F546F44697370651A
:103A80006E7365536C6F74203D20002054696D6522
:103A900073004379636C6520546573742052464902
:103AA0004420446F6E652C2052464944204D697372
:103AB00073696E6720002054696D657300437963F4
:103AC0006C652054657374205246494420446F6EDF
:103AD000652C2052464944204465746563746564CE
:103AE00020002054696D6573002054696D65732C46
:103AF0002052464944204D697373696E6720004324
:103B000079636C65205465737420526573756C74A9
:103B10007320536F20466172202D20524649442065
:103B20004465746563746564200020636F6D706C18
:103B3000657465642C20486F7572732052656D61E1
:103B4000696E696E67203D2000206F7574206F6676
:103B500020004379636C65200052464944204E6F33
:103B60007420446574656374656421005E776970D0
:103B700065725F72656D6F7665643A307C3A2400D9
:103B80005E77697065725F72656D6F7665643A30F5
:103B90007C3A24005E77697065725F696E73657246
:103BA0007465643A307C3A24005E77697065725FB0
:103BB000696E7365727465643A307C3A24005E64A1
:103BC000726970747261795F72656D6F7665643A5F
:103BD000307C3A24005E64726970747261795F723D
:103BE000656D6F7665643A307C3A24005E64726974
:103BF00070747261795F696E7365727465643A306E
:103C00007C3A24005E64726970747261795F696ED7
:103C10007365727465643A307C3A240066696E6933
:103C20007368656400616C657274006469737065C3
:103C30006E73696E6700626F776C0061637469769A
:103C4000650069646C65003A24005E6E61636B3ADE
:103C5000317C003A24005E6E61636B3A317C006314
:103C600079636C655F746573745F72666964006321
:103C700079636C655F746573745F616C6C00637904
:103C8000636C655F746573745F6163747561746F91
:103C90007273006379636C655F746573745F6361ED
:103CA000726F7573656C00746573745F7363616CB8
:103CB000655F6E6F69736500746573745F636172CD
:103CC0006F7573656C5F656E636F646572730062B8
:103CD00075726E5F696E5F6361726F7573656C009C
:103CE000746573745F6361726F7573656C5F667220
:103CF000696374696F6E007A65726F5F63656E7475
:103D000065725F656E636F646572007365745F7280
:103D10006669645F6F766572726964650064656385
:103D200072656173655F70616E656C5F6272696711
:103D300068746E65737300696E6372656173655F45
:103D400070616E656C5F6272696768746E657373CB
:103D5000007365745F70616E656C5F62726967683D
:103D6000746E657373006361726F7573656C5F70F9
:103D70006F736974696F6E006163747561746F72DB
:103D80005F636F756E746572636C6F636B77697375
:103D900065006163747561746F725F636C6F636BF0
:103DA00077697365006163747561746F725F7265C2
:103DB0007475726E746F686F6D6566617374706927
:103DC00064006163747561746F725F72657475729B
:103DD0006E746F686F6D656661737400616374758E
:103DE00061746F725F706F736974696F6E00616385
:103DF000747561746F725F686F6D65007365745F71
:103E0000696E697469616C5F6163747561746F7206
:103E10005F706F736974696F6E00636C6561725F68
:103E20006163747561746F725F706F736974696FC9
:103E30006E730031323334353637383930313233FE
:103E4000343536373839303132333435363738391E
:103E50003031323334353637383930313233343526
:103E600036373839300063616C6962726174655F3E
:103E70007363616C655F73686966745F7A65726F9E
:103E80000063616C6962726174655F7363616C6524
:103E90000076657273696F6E00626F776C5F77652D
:103EA0006967687400626F776C5F737461747573AF
:103EB000007374617475730073797374656D5F63F7
:103EC0006865636B00666F726365007363616E5F44
:103ED000616C6C00726573756D650063616E63651E
:103EE0006C007265736574007365745F64656D6FF3
:103EF0005F6D6F6465007365745F6861735F7265A1
:103F00006C6F61645F646F6F725F6C6F636B007383
:103F100065745F626F776C5F617265615F636F6C20
:103F20006F725F7479706500706F7765725F73612F
:103F300076655F6D6F64650072657363616E5F6364
:103F4000616E69737465727300706175736500707A
:103F50006F736974696F6E5F63616E6973746572A4
:103F60005F7265706C616365007363616E5F62614F
:103F700072636F646500636162696E65745F737418
:103F8000617475730064726970747261795F7374BF
:103F9000617475730077697065725F7374617475AD
:103FA00073007269676874646F6F725F73746174B1
:103FB0007573006C656674646F6F725F737461749F
:103FC000757300646F6F725F7374617475730063EF
:103FD0006162696E65745F756E6C6F636B006361BF
:103FE00062696E65745F6C6F636B00646F6F725FA4
:103FF000756E6C6F636B00646F6F725F6C6F636B79
:104000000064697370656E73655F66756C6C5F6381
:10401000616E0064697370656E73655F74696D6568
:10402000640064697370656E73655F616C6C0041F8
:104030006D6F756E745F44697370656E7365643A15
:10404000090057656967687420416674657220319C
:10405000207365633A090057656967687420416693
:104060007465723A0900576569676874204265662D
:104070006F72653A09007365745F7374657070657B
:10408000725F72696768745F706F736974696F6E6D
:1040900000416D6F756E745F44697370656E736512
:1040A000643A0900576569676874204166746572EF
:1040B0002031207365633A09005765696768742089
:1040C00041667465723A09005765696768742042F1
:1040D00065666F72653A09007365745F7374657025
:1040E0007065725F6C6566745F706F736974696F19
:1040F0006E007365745F737465707065725F72696A
:104100006768745F7370656564007365745F73746A
:1041100065707065725F6C6566745F737065656409
:10412000007365745F70756D705F737065656400B2
:1041300064697370656E73655F646576656C6F70D6
:1041400065720064697370656E73655F7765696732
:1041500068740070696E670064656D6F00706F73DE
:104160006974696F6E5F63616E6973746572007301
:1041700065745F7363616C655F6C65647300736520
:10418000745F6C656473002D2D2D2D2D2D2D2D2D1F
:104190002D2D2D2D2D00706172616D35203D20007B
:1041A000706172616D34203D2000706172616D3309
:1041B000203D2000706172616D32203D20007061F1
:1041C00072616D31203D2000706172616D34203D5F
:1041D0002000706172616D33203D2000706172615A
:1041E0006D32203D2000706172616D31203D2000F4
:1041F000706172616D33203D2000706172616D32BB
:10420000203D2000706172616D31203D20007061A1
:1042100072616D32203D2000706172616D31203D10
:104220002000706172616D31203D2000416C6C2076
:1042300074686520646174612076616C75657320B3
:104240003D2000496E7465676572204E756D506142
:1042500072616D6574657273203D2000416C6C2045
:10426000506172616D732050617373656420004DFD
:1042700065737361676554797065203D20002A2A53
:104280002A2A2A2A2A2A2A2A2A2A2A2A2A2A2A00B8
:104290003A24003A24003030303030303030303082
:1042A0000030303030303030303030005E626F7788
:1042B0006C5F706C616365643A357C005E626F7739
:1042C0006C5F706C616365643A357C00436F6C6F42
:1042D000722073656E736F7273206E6F7420696ED7
:1042E0007374616C6C65642C2064656661756C74B4
:1042F000696E6720746F20524742282D312C2D3172
:104300002C2D3129005E626F776C5F72656D6F7660
:1043100065643A307C3A24005E626F776C5F726548
:104320006D6F7665643A307C3A24003A24005E630F
:10433000616E69737465725F696E7374616C6C65CC
:10434000643A327C003A24005E63616E697374657E
:10435000725F696E7374616C6C65643A327C003AAA
:1043600024005E63616E69737465725F72656D6F60
:104370007665643A317C003A24005E63616E69734D
:104380007465725F72656D6F7665643A317C003A70
:104390002409003A00095E646973705F70726F6788
:1043A000726573733A327C003A24003A005E6469A5
:1043B00073705F70726F67726573733A327C00520C
:1043C000616E67652072656164696E67206F7665EE
:1043D00072666C6F770052616E676520726561640A
:1043E000696E6720756E646572666C6F77005261E6
:1043F000772072656164696E67206F766572666C9E
:104400006F77005261772072656164696E6720750D
:104410006E646572666C6F77005369676E616C2FAE
:104420004E6F697365206572726F720049676E6FB7
:1044300072696E672072616E6765004E6F20636FF0
:104440006E76657267656E636500454345206661FB
:10445000696C7572650053797374656D206572724D
:104460006F72004162736F6C757465576569676838
:1044700074206973203C2033352C207468726F7768
:10448000696E6720626F776C5F72656D6F766564C9
:10449000206576656E742E20204E6F20676F6F64E6
:1044A0002064697374616E63652073656E736F72E7
:1044B0002072656164696E6720617661696C616212
:1044C0006C652C20636865636B20666F7220657273
:1044D000726F722062656C6F772E20204162736F5D
:1044E0006C757465576569676874203D20002C20E1
:1044F0004162736F6C757465576569676874203DB8
:10450000200052616E6765203E203530206F72209A
:104510004162736F6C757465576569676874203C98
:104520002033352C20736F207468726F77696E6743
:1045300020626F776C5F72656D6F7665642065765B
:10454000656E742E2052616E6765203D20003A240E
:104550000030303030303030303030005246494456
:10456000526561644661696C436F756E743D3130AC
:104570002E20576F756C64206861766520746872B0
:104580006F776E207468697320626F776C5F706CF0
:1045900061636564206576656E7420657863657017
:1045A000742052464944204F7665727269646520D2
:1045B0006973206E6F74206F6E2C20736F20646996
:1045C000646E27743A205E626F776C5F706C616313
:1045D00065643A357C003A24003030303030303079
:1045E00030303000436865636B2052464944207484
:1045F0006167732E20576F756C6420686176652043
:104600007468726F776E207468697320626F776C5C
:104610005F706C61636564206576656E7420657893
:10462000636570742052464944204F766572726902
:104630006465206973206E6F74206F6E2C20736F19
:10464000206469646E27743A205E626F776C5F70D5
:104650006C616365643A357C002C20426F776C5046
:104660006C6163656453616D706C657341667465FC
:104670007252464944203D20002C204162736F6CE9
:10468000757465576569676874203D200052616ED6
:104690006765203D20002C20426F776C506C616371
:1046A000656453616D706C65734265666F726552C7
:1046B000464944203D20002C204162736F6C757484
:1046C00065576569676874203D200052616E6765B3
:1046D000203D20005E6361726F7573656C5F6A6177
:1046E0006D3A307C3A24005E6361726F7573656C5D
:1046F0005F6A616D3A307C3A24003A24005E706F44
:10470000736974696F6E5F63616E69737465725FFC
:10471000726573703A327C6661696C7572653A00D5
:104720003A24005E706F736974696F6E5F63616EC7
:1047300069737465725F726573703A327C66616921
:104740006C7572653A003A24005E706F7369746923
:104750006F6E5F63616E69737465725F72657370AB
:104760003A327C737563636573733A003A24005E72
:10477000706F736974696F6E5F63616E697374657E
:10478000725F726573703A327C73756363657373BD
:104790003A00706F736974696F6E5F63616E6973FD
:1047A0007465720056616C75652070617373656421
:1047B0003D00496E20706F736974696F6E2063618C
:1047C0006E69737465722066756E6374696F6E21AD
:1047D000005E646F6F725F6C6F636B5F72657370A6
:1047E0003A317C737563636573733A24005E646F5A
:1047F0006F725F6C6F636B5F726573703A317C735D
:104800007563636573733A2400646F6F725F6C6FD6
:10481000636B004166746572204C6F636B696E67F1
:104820002C2052656C6F6164446F6F72556E6C6FB3
:10483000636B53656E736550696E3A20004265661E
:104840006F7265204C6F636B696E672C2052656CCC
:104850006F6164446F6F72556E6C6F636B53656EFE
:10486000736550696E3A2000496E20646F6F725F05
:104870006C6F636B2066756E6374696F6E21005098
:10488000726F647563744944206973206120726596
:1048900067756C61722064697370656E73652073EF
:1048A000706565642070726F647563742C20736F1B
:1048B00020646F206E6F726D616C20646973706527
:1048C0006E73652E0050726F64756374494420697D
:1048D00073206120666173742064697370656E7300
:1048E000652073706565642070726F647563742CE5
:1048F00020736F20676F2066617374657220616E2C
:104900006420646F6E277420736C6F7720646F77F8
:104910006E20617420656E642E00303032390030B4
:1049200030323800303032370030303236003030FC
:10493000323400474F4C4457454C4C2D41534800AE
:104940003030353800474F4C4457454C4C2D3131B1
:1049500047003030353700474F4C4457454C4C2DBD
:10496000384341003030353600474F4C4457454CB2
:104970004C2D3552003030353500474F4C445745AB
:104980004C4C2D354B003030353400474F4C44579C
:10499000454C4C2D5252003030353300474F4C447B
:1049A00057454C4C2D5656003030353200474F4C51
:1049B0004457454C4C2D4747003030353100474F68
:1049C0004C4457454C4C2D4B4B0030303530004754
:1049D0004F4C4457454C4C2D500030303439004733
:1049E0004F4C4457454C4C2D410030303438004733
:1049F0004F4C4457454C4C2D384200303034370032
:104A0000474F4C4457454C4C2D34420030303436DF
:104A100000474F4C4457454C4C2D354D42003030EB
:104A2000343500474F4C4457454C4C2D31314100F3
:104A30003030343400474F4C4457454C4C2D3130C6
:104A400041003030343300474F4C4457454C4C2DD7
:104A50003941003030343200474F4C4457454C4CBC
:104A60002D3541003030343100474F4C4457454CD0
:104A70004C2D3241003030343000474F4C445745C4
:104A80004C4C2D3847003030333900474F4C445799
:104A9000454C4C2D3747003030333800474F4C449D
:104AA00057454C4C2D3447003030333700474F4C7E
:104AB0004457454C4C2D31304E0030303336004792
:104AC0004F4C4457454C4C2D384E00303033350058
:104AD000474F4C4457454C4C2D364E003030333404
:104AE00000474F4C4457454C4C2D344E003030332A
:104AF0003300474F4C4457454C4C2D324E0030301C
:104B0000333200434C4943532D56322D314E003041
:104B100030333000434C4943532D56322D4C49001D
:104B20003030323900434C4943532D56322D4434F2
:104B300030003030323800434C4943532D56322D2B
:104B4000443230003030323700434C4943532D5605
:104B5000322D4430003030323600434C4943532D1F
:104B600056322D5048003030323500434C494353C3
:104B70002D56322D434C003030323400434C4943E3
:104B8000532D56322D434F42003030323300434CC8
:104B90004943532D56322D4C54594F003030323248
:104BA00000434C4943532D56322D4F59003030327B
:104BB0003100434C4943532D56322D4C544F520033
:104BC0003030323000434C4943532D56322D524F32
:104BD000003030313900434C4943532D56322D5665
:104BE00052003030313800434C4943532D56322D5A
:104BF0004C545642003030313700434C4943532D1A
:104C000056322D4256003030313600434C49435322
:104C10002D56322D4247003030313500434C494348
:104C2000532D56322D4C5442420030303134004323
:104C30004C4943532D56322D590030303133004307
:104C40004C4943532D56322D4F0030303132004302
:104C50004C4943532D56322D420030303131004300
:104C60004C4943532D56322D5200303031300043E1
:104C70004C4943532D56322D4700303030390043D4
:104C80004C4943532D56322D5600303030380043B6
:104C90004C4943532D56322D31324E00303030378F
:104CA00000434C4943532D56322D31304E003030A5
:104CB000303600434C4943532D56322D384E003088
:104CC00030303500434C4943532D56322D364E007B
:104CD0003030303400434C4943532D56322D344E3E
:104CE000003030303300434C4943532D56322D327F
:104CF0004E003030303200434C4943532D56322D54
:104D000030304E0030303031002C2050726F6475DE
:104D100063744E616D6520697320002C2050726FA2
:104D2000647563744944206973200063616E69731C
:104D3000746572436F6465206973200054686973F9
:104D4000206973204C69676874656E65722C2073E6
:104D50006F20646F6E277420676F20617320666117
:104D60007374206F746865727769736520636F75FB
:104D70006C6420686176652070696E6368206F6678
:104D8000662069737375652E0030303239005265C4
:104D900073746F7265642F536176656420496E6920
:104DA0007469616C4163747561746F72506F73697B
:104DB00074696F6E446174613A00496E2D6D656D62
:104DC0006F727920496E697469616C4163747561B1
:104DD000746F72506F736974696F6E446174613A75
:104DE000002C20736F2077726974696E6720746F6E
:104DF00020454550524F4D206576656E2074686F92
:104E0000756768206F7574206F662072616E6765C4
:104E10002C20736F206E6578742074696D65206D29
:104E2000617920776F726B206265747465722E00F1
:104E3000203C2050726576696F7573496E6974699C
:104E4000616C4163747561746F72506F73697469DA
:104E50006F6E206F6620004E657720496E69746919
:104E6000616C4163747561746F72506F73697469BA
:104E70006F6E5B5D206F6620003A24003A003A00B6
:104E80003A005E64697370656E73655F7765696724
:104E900068745F726573703A357C72616E67653AEB
:104EA000003A24003A003A003A005E646973706583
:104EB0006E73655F7765696768745F726573703A72
:104EC000357C72616E67653A003A24003A003A0018
:104ED0003A005E64697370656E73655F77656967D4
:104EE00068745F726573703A357C7375636365735C
:104EF000733A003A24003A003A003A005E6469735B
:104F000070656E73655F7765696768745F726573F6
:104F1000703A357C737563636573733A003A2400A5
:104F20003A003A003A005E64697370656E73655FBB
:104F30007765696768745F726573703A357C636121
:104F40006E63656C3A003A24003A003A003A005E1B
:104F500064697370656E73655F7765696768745FB0
:104F6000726573703A357C63616E63656C3A002CD0
:104F700020736F2077726974696E6720746F2045A3
:104F80004550524F4D206576656E2074686F756789
:104F900068207468697320697320612074616D7082
:104FA00065722C20736F206E6578742074696D654E
:104FB000206D617920776F726B2062657474657201
:104FC0002E00203C2050726576696F7573496E69BA
:104FD0007469616C4163747561746F72506F736949
:104FE00074696F6E206F6620004E657720496E6988
:104FF0007469616C4163747561746F72506F736929
:1050000074696F6E5B5D206F6620003A24003A0081
:105010003A003A005E64697370656E73655F776528
:10502000696768745F726573703A357C74616D701E
:1050300065723A003A24003A003A003A005E646928
:105040007370656E73655F7765696768745F7265B5
:1050500073703A357C74616D7065723A006469737F
:1050600070656E73655F616C6C0064697370656E0A
:1050700073655F776569676874002C2053686F7586
:105080006C645265747279476F46617374426563EC
:1050900061757365466972737444697370656E7384
:1050A0006554696D65644F7574203D2000446973D3
:1050B00070656E7365206661696C7572652C206E13
:1050C00065656420746F2072657472792C20476F57
:1050D000696E6720746F2064697370656E736520F4
:1050E0006D6F7265206F6E20612072657472792C0D
:1050F0002074686973206D756368206D6F72652018
:105100003D200052657472792053756D20416D6F9A
:10511000756E745F44697370656E736564203D20BD
:105120000054414D50455220444554454354454454
:105130002061667465722066696E697368656420B3
:1051400064697370656E73696E672C20726574751F
:10515000726E696E672074616D706572207265731E
:10516000756C74207769746820616D6F756E74203A
:1051700064697370656E7365642061732054726135
:10518000696C696E67576569676874203D200041E6
:105190006D6F756E745F44697370656E73656420BE
:1051A0006973206E656761746976652C206D6F7216
:1051B00065207468616E202D31672C2074686572DB
:1051C00065206D7573742068617665206265656E13
:1051D00020736F6D652074797065206F662074612F
:1051E0006D7065722E204E6F7420676F696E672038
:1051F000746F2072657472792E00416D6F756E74D4
:105200005F44697370656E736564203D20002C20D7
:10521000626563617573652054726C5634207374D3
:10522000696C6C20756E64657220302E3033203DC1
:1052300020004C6F6F702054696D6564204F757449
:10524000206174204C6F6F7054696D656F757420A8
:105250003D20002C204C6F6F70436F756E7465722B
:105260005768656E526561636865644D6178416336
:1052700074756174696F6E203D20005365747469A4
:105280006E67204C6F6F7054696D656F7574203D4B
:105290002000206772616D732C20736F2072657619
:1052A0006572736520746865206163747561746FDD
:1052B00072210041626F757420746F2063726F7386
:1052C00073200052656365697665642061204361DF
:1052D0006E63656C20636F6D6D616E642066726FC6
:1052E0006D206D616368696E652055492E005441DB
:1052F0004D5045522044455445435445442C207359
:10530000746F7070696E6720616374756174696F22
:105310006E20616E642072657475726E696E6720AE
:1053200074616D70657220726573756C742E0054B3
:10533000616D7065722064657465637465642C20AA
:10534000776569676874206D6F7265206E65676147
:1053500074697665207468616E202D312C20736F1E
:105360006D65626F6479206D757374206861766510
:105370002072656D6F766564207765696768742053
:1053800066726F6D207363616C652C207265747535
:10539000726E696E672074616D7065722E00207484
:1053A0006F20302E30352073696E6365203C3330BA
:1053B000206C6F6F7073206C65667400094C6F779A
:1053C0006572696E672074617267657420737065B9
:1053D00065642066726F6D2000094C4C09002C201A
:1053E0004D6178416374756174696F6E203D200072
:1053F0002C204D6178416374756174696F6E284C1F
:105400006929203D200009534554504F494E5420EE
:1054100043616C633D000954726C563409000954B1
:10542000726C5609000954726C570900094C6F617F
:10543000642063656C6C2073616D706C696E6720AD
:105440006661696C7572652C20676F74203E32301E
:10545000306720666F722061766572616765206FC4
:1054600066203130782073616D706C65732C206418
:10547000697363617264696E6720616E6420746130
:105480006B696E67206E65772073616D706C652047
:10549000686572653A090053616D700900095475B9
:1054A000726E41726F756E64000A4C69676874654C
:1054B0006E657220666C6F7720637574206F666608
:1054C000205374616C6C696E6720646574656374E5
:1054D0006564202D20747279696E67204C69676855
:1054E00074656E657220616374756174696F6E2096
:1054F00072657472792023005374616C6C696E67F5
:10550000206465746563746564202D207265636F23
:1055100076657279206469646E277420776F726B88
:105520002C20736F2073746F7070696E67207468BD
:10553000652064697370656E736520736F2077658D
:1055400020646F6E27742064616D616765207468E4
:1055500065206D6F746F7220616E6420647269766D
:1055600065722E00095475726E41726F756E64001B
:105570000A5374616C6C696E67206465746563744A
:105580006564202D20747279696E672074686520C7
:105590006261636B2D6F66662D616E642D676F2D82
:1055A000666173742072657472792E0009456E64A9
:1055B000313530004D6178416374756174696F6E87
:1055C000203D20005374617274696E6720536574C6
:1055D000706F696E74496E6974466F72546869734E
:1055E0004D616368696E65203D20000953657470E4
:1055F0006F696E74416D6F756E74546F4261636B49
:105600004F66665768656E48697454617267657461
:105610005370656564203D200009536574706F699F
:105620006E744C6F6F70496E6372656D656E742039
:105630003D2000097461726765745F646973706509
:105640006E73655F7370656564203D200009414697
:1056500061737444697370656E7365534B55203D77
:1056600020006744656D6F4D6F6465203D200042EA
:105670006F776C20776569676874206E6F7420732C
:105680006574746C6564206166746572203520737E
:1056900065636F6E64732C2072657475726E20740E
:1056A000616D7065722E00424F574C204E4F542052
:1056B000504C41434544207768656E207374617295
:1056C00074696E672064697370656E7365202D2040
:1056D000736F206E6F7420616374756174696E6797
:1056E0002C20616E642072657475726E696E67201D
:1056F00074616D7065722E00094162736F6C757410
:1057000065576569676874203D20000954617265BA
:1057100041444356616C7565203D20000953434167
:105720004C45203D2000094F4646534554203D201E
:105730000054617265576569676874203D20005D9B
:10574000203D2000496E697469616C57656967681E
:105750007452656164696E67735B005363616C6565
:10576000206E6F7420736574746C65642C206265A0
:105770006C6F772073616D706C6573206E6F742031
:1057800077697468696E2031206772616D2C2072B0
:1057900065747279696E6720757020746F2035208A
:1057A00074696D65732E003A24003A31302E303022
:1057B0003A005E64697370656E73655F77656967EB
:1057C00068745F726573703A357C74616D70657270
:1057D0003A302E30303A003A24003A31302E303010
:1057E0003A005E64697370656E73655F77656967BB
:1057F00068745F726573703A357C74616D70657240
:105800003A302E30303A0064697370656E73655FAC
:10581000616C6C0064697370656E73655F77656950
:1058200067687400706F736974696F6E5F63616E2F
:105830006973746572206661696C7572652C20638A
:10584000616E6E6F742067756172616E746565203C
:105850006361726F7573656C20706F736974696FC3
:105860006E20736F2065786974696E67207468654F
:105870002064697370656E73655F776569676874C6
:1058800020636F6D6D616E6420616E64207265745B
:1058900075726E696E672074616D70657221005655
:1058A000616C7565207061737365643D0056616C51
:1058B0007565207061737365643D00496E2064698D
:1058C0007370656E736520776569676874206675A7
:1058D0006E6374696F6E21003A24005E64697370B0
:1058E000656E73655F66756C6C5F63616E5F726534
:1058F00073703A327C737563636573733A003A244C
:10590000005E64697370656E73655F66756C6C5F6D
:1059100063616E5F726573703A327C737563636541
:1059200073733A0064697370656E73655F66756C56
:105930006C5F63616E00546F74616C2054696D65B7
:1059400020746F2044697370656E7365203D206C10
:105950006F6F70202D2035203D20090046696E6153
:105960006C20576569676874203D200900416674A2
:10597000657220686F6D652061637475616C2C20A1
:10598000736574706F696E742C2070776D3A004582
:105990006E64696E67204163747561746F72206113
:1059A000637475616C2C20736574706F696E742CF0
:1059B0002070776D3A0057656967687420696E6377
:1059C000726561736564206279206C6573732074FD
:1059D00068616E20302E31206772616D7320696EB0
:1059E00020746865206C6173742035207365636F63
:1059F0006E64732C20736F2073746F7070696E67A0
:105A0000206C6F6F702E00576569676874203E20A8
:105A10003335302C2065786974696E67206C6F6F40
:105A200070202863616E63656C6C696E67292E0057
:105A30000944656C7461576569676874203D200985
:105A40000009576569676874203D20090009546999
:105A50006D65203D2009004C6F6F70203D200900CE
:105A60005374617274696E67204163747561746FF9
:105A7000722061637475616C2C20736574706F693A
:105A80006E742C2070776D3A000920537461727423
:105A90002054696D65203D20090057656967687469
:105AA000203D20090056616C756520706173736537
:105AB000643D0056616C7565207061737365643D6B
:105AC00000496E2064697370656E73652066756C3D
:105AD0006C2063616E21003A24005E7363616E5F27
