:100000000C94D94C0C94AC7B0C94817B0C94567B57
:100010000C942B7B0C94007B0C94D57A0C94AA7ACC
:100020000C947F7A0C941FCB0C94107A0C949A79D0
:100030000C940A4D0C9432540C940A4D0C940A4DB5
:100040000C940A4D0C940A4D0C940A4D0C940A4DD4
:100050000C940A4D0C94AF720C940A4D0C940DC67E
:100060000C940A4D0C9455C30C942BC30C940A4D5C
:100070000C940A4D0C940A4D0C940A4D0C940A4DA4
:100080000C940A4D0C940A4D0C940A4D0C940A4D94
:100090000C9401C30C94D7C20C940A4D0C94FBC968
:1000A0000C940A4D0C940A4D0C940A4D0C940A4D74
:1000B0000C940A4D0C940A4D0C940A4D0C940A4D64
:1000C0000C940A4D0C940A4D0C940A4D0C94ADC23C
:1000D0000C9483C20C940A4D0C9459C20C942FC2F8
:1000E0000C940A4D08000000BE922449123EABAAAF
:1000F000AA2ABECDCCCC4C3E00000080BEABAAAA42
:10010000AA3E00000000BF000000803F0000000089
:1001100000084178D3BB4387D1133D190E3CC3BDC2
:100120004282AD2B3E68EC8276BED98FE1A93E4C6F
:1001300080EFFFBE01C4FF7F3F00000000000C9471
:1001400043BA0C9422B90C9431B90D944D380C94E7
:1001500099BC0C94D2BA0C9465B90D9451380C9496
:1001600081BD0C940DBD0C9496BA0C942F4E0C943A
:100170009AC50C9449B90D94D63F0C94C6BC0C9406
:10018000A3B70C9412C50C942EB90C94A2C40C9471
:1001900092BC0C947CC50C946FBC0C948CB90C94E0
:1001A00021C50D94DC340C9469BD0C9445B90C94B4
:1001B000F5BA0C944FB90C9494B90C94E7BA0D9419
:1001C00047380C94014E0C94A4C50C94CDBD0C94EE
:1001D000F5BC0C945CB90C94ACBA0C943BB90C947F
:1001E000D9BA0D9449380D944B380C9457B90D94E5
:1001F0004F380C9490B90C94EEB90C9453B90C94FC
:1002000045C50C9417C50C942AB90C943DC80C94A0
:100210001BB80C9490C50C94AF720C9461B90C94FB
:100220008EB90C940FBA0C9426B90C9492B90C9414
:100230000DB80D945B360C9486C50C941CB90C94C7
:10024000C54D0C94A2BD0C940AC50C9496B90C949F
:10025000FAB70C9463C50C9459C50C942BC50C9437
:1002600098B90C943DC50C9441B90C9437B90C94D1
:1002700035C50C94C3BA0C94E34D0C94EEBA0C94AF
:10028000EBB70C948AB90D9458380C94A6B70C941B
:1002900072C50C94D6C30C946CB80C9464BA0C94CC
:1002A000B9B80C94A4B70C9470BC0C945DB90C94C0
:1002B0007FBC0C94CBBA0C944FC50C94E0BA0C9450
:1002C0006EC44E414E494E495459494E46CDCCCC50
:1002D0003D0AD7233C17B7D13877CC2B329595E61A
:1002E000241FB14F0A000020410000C84200401CFA
:1002F0004620BCBE4CCA1B0E5AAEC59D74414C452F
:1003000052543A2053797374656D4865616C746812
:10031000204661696C7572652C2044697374616E46
:10032000636553656E736F72476F6F64203D200085
:10033000414C4552543A2053797374656D48656158
:100340006C7468204661696C7572652C204C6F6115
:100350006443656C6C53656E736F72476F6F642096
:100360003D2000414C4552543A2053797374656DD9
:100370004865616C7468204661696C7572652C20F3
:100380004163747561746F72486F6D696E67476F12
:100390006F64203D2000414C4552543A20537973FC
:1003A00074656D4865616C7468204661696C75722E
:1003B000652C204163747561746F724F757465723A
:1003C00055704F70746F476F6F64203D2000414C33
:1003D0004552543A2053797374656D4865616C7465
:1003E00068204661696C7572652C20416374756183
:1003F000746F72496E6E657255704F70746F476F8F
:100400006F64203D2000414C4552543A205379738B
:1004100074656D4865616C7468204661696C7572BD
:10042000652C204163747561746F724D6F746F72C7
:10043000456E636F646572476F6F64203D200041B5
:100440004C4552543A2053797374656D4865616C1C
:100450007468204661696C7572652C2041637475FF
:1004600061746F724D6F746F72476F6F64203D20BF
:1004700000414C4552543A2053797374656D486578
:10048000616C7468204661696C7572652C204361EB
:10049000726F7573656C486F6D696E67476F6F64D7
:1004A000203D2000414C4552543A205379737465E5
:1004B0006D4865616C7468204661696C7572652C65
:1004C000204361726F7573656C43656E7465724528
:1004D0006E636F646572476F6F64203D2000414C0E
:1004E0004552543A2053797374656D4865616C7454
:1004F00068204661696C7572652C204361726F7566
:1005000073656C4D6F746F72456E636F646572478F
:100510006F6F64203D2000414C4552543A2053797E
:100520007374656D4865616C7468204661696C75AB
:1005300072652C204361726F7573656C4D6F746FBB
:1005400072476F6F64203D2000414C4552543A2061
:1005500053797374656D4865616C74682046616990
:100560006C7572652C204361726F7573656C486F92
:100570006D654F70746F476F6F64203D2000524669
:10058000494453656E736F72476F6F64203D20005E
:1005900044697374616E636553656E736F72476F00
:1005A0006F64203D20004C6F616443656C6C536543
:1005B0006E736F72476F6F64203D200041637475E6
:1005C00061746F72486F6D696E67476F6F64203D2D
:1005D00020004163747561746F724F757465725554
:1005E000704F70746F476F6F64203D2000416374DB
:1005F0007561746F72496E6E657255704F70746F6D
:10060000476F6F64203D20004163747561746F72A1
:100610004D6F746F72456E636F646572476F6F6480
:10062000203D20004163747561746F724D6F746F6B
:1006300072476F6F64203D20004361726F75736570
:100640006C486F6D696E67476F6F64203D20004393
:1006500061726F7573656C43656E746572456E6328
:100660006F646572476F6F64203D20004361726F55
:100670007573656C4D6F746F72456E636F646572F0
:10068000476F6F64203D20004361726F7573656C26
:100690004D6F746F72476F6F64203D20004361722D
:1006A0006F7573656C486F6D654F70746F476F6FD2
:1006B00064203D2000426C61636B426F776C44693B
:1006C0007374616E6365203D2000576869746542EC
:1006D0006F776C44697374616E6365203D200052CE
:1006E0006967687450756D7053657269616C4E7599
:1006F0006D6265725B5D203D2000526967687450D1
:10070000756D7053657269616C4E756D6265724886
:1007100061734265656E44697370656E73656420CC
:100720003D20004C65667450756D7053657269614B
:100730006C4E756D6265725B5D203D20004C656698
:100740007450756D7053657269616C4E756D62653C
:10075000724861734265656E44697370656E736556
:1007600064203D20004F7665727269646552464987
:100770004449664974446F65736E74526561645090
:10078000726F7065726C79203D20006753696465F3
:1007900050616E656C4272696768746E6573732030
:1007A0003D20005369646550616E656C42726967F3
:1007B00068746E657373203D200048617352656CE8
:1007C0006F6164446F6F724C6F636B203D20004912
:1007D00073426C61636B426F776C41726561203D5F
:1007E00020002C20436F756E74203D2000417665FB
:1007F00072616765206F66206E6F6E2D7A65726F0D
:1008000020496E697469616C4163747561746F72BB
:10081000506F736974696F6E73203D20005D203DD9
:10082000200053657269616C4E756D626572735B11
:10083000005D203D200053657269616C4E756D62EC
:1008400065724861734265656E44697370656E7365
:1008500065645B005D203D2000496E697469616CD0
:100860004163747561746F72506F736974696F6EF0
:10087000735B00496E697469616C4163747561747E
:100880006F72506F736974696F6E203D20005363FF
:10089000616C655F43616C6962726174696F6E5F00
:1008A000576569676874203D20005363616C655F1C
:1008B00043616C6962726174696F6E5F3230306778
:1008C000203D20005363616C655F43616C69627217
:1008D0006174696F6E5F5A65726F203D20005363CB
:1008E000616C655F43616C6962726174696F6E20EF
:1008F0003D200046575F4255494C44203D2000446E
:10090000697370656E7365725F4D6F64656C5F4D82
:10091000696E6F72203D200044697370656E736567
:10092000725F4D6F64656C5F4D616A6F72203D2030
:100930000044697370656E7365725F5365726961B7
:100940006C203D200045455050524F4D5F5645525A
:1009500053494F4E203D2000476574414D5432307D
:1009600033456E636F646572506F736974696F6E3F
:1009700020414D5432303363757272656E74506F1E
:10098000736974696F6E3A200052617720414D544B
:1009900032303363757272656E74506F7369746947
:1009A0006F6E3A20005265736574204172647569F8
:1009B0006E6F20746F207265737461727420707230
:1009C0006F6772616D2E004572726F72206F627474
:1009D00061696E696E6720706F736974696F6E2EDE
:1009E00000446F6E65207A65726F696E6720656E70
:1009F000636F6465722C2043757272656E7420702B
:100A00006F736974696F6E3A200052657365742064
:100A100041726475696E6F20746F207265737461C2
:100A200072742070726F6772616D2E004572726F02
:100A300072206F627461696E696E6720706F73698E
:100A400074696F6E2E00342E2E2E00332E2E2E0043
:100A5000322E2E2E00312E2E2E00476F696E67200B
:100A6000746F207A65726F2074686520414D54322E
:100A7000303320656E636F646572206E6F772E2E43
:100A80002E206D6179206E65656420746F20706F13
:100A9000776572206379636C652061667465722086
:100AA000746869732E00436F7272656374656420A5
:100AB000414D5432323220456E636F6465723A2084
:100AC00000414D5432323220456E636F6465723A94
:100AD0002000414D543232322072656164206572CB
:100AE000726F722E20417474656D7074733A2000B9
:100AF000446F6E65207A65726F696E6720656E63FC
:100B00006F6465722C2043757272656E7420706F0D
:100B1000736974696F6E3A2000476F696E6720745D
:100B20006F207A65726F2074686520414D543232AF
:100B30003220656E636F646572206E6F772E2E2E85
:100B400000456E64696E67204163747561746F72ED
:100B500020506F736974696F6E203D20005374617B
:100B60007274696E67204163747561746F7220508E
:100B70006F736974696F6E203D2000486F6D654129
:100B800063747561746F722077617320737563632A
:100B900065737366756C212020426F7468206163F1
:100BA000747561746F727320656E6465642075700E
:100BB0002E00414C4552543A20486F6D6541637494
:100BC0007561746F7220776173204E4F5420737576
:100BD000636365737366756C2C204163747561740F
:100BE0006F7220456E636F6465722052616E676537
:100BF000203C2032207768656E2073686F756C64C6
:100C0000206265207E3230302D333030002C204180
:100C100063747561746F724F7574657255704F703F
:100C2000746F203D2000414C4552543A20486F6D6E
:100C3000654163747561746F7220776173204E4FE4
:100C400054207375636365737366756C2C206265DD
:100C50006361757365206163747561746F7273206D
:100C6000617265206E6F7420626F74682075702EDB
:100C700020204163747561746F72496E6E657255A0
:100C8000704F70746F203D20005375626F707469EF
:100C90006D616C206F7269656E746174696F6E2C22
:100CA000207265636F6D6D656E6420666C6970207F
:100CB0006163747561746F722031383020646567C8
:100CC0007265657320736F2074686174206D61783C
:100CD00020746F72717565206973206F6E206F7557
:100CE00074657220736C6F74732073696E63652012
:100CF000746865792772652075736564206D6F72FD
:100D000065206F6674656E2E00476F6F64206F728A
:100D100069656E746174696F6E2C206D61782074E2
:100D20006F72717565206F6E206F757465722073B8
:100D30006C6F74732073696E6365207468657927BE
:100D400072652075736564206D6F7265206F6674BF
:100D5000656E2E002C204163747561746F72446956
:100D600072656374696F6E496E6E6572446F776EFB
:100D70004F757465725570203D2000456E64206F7C
:100D80006620486F6D696E67204163747561746F8A
:100D9000722C20456E636F646572203D20004669A9
:100DA0006E616C204163747561746F7220706F7333
:100DB0006974696F6E20616674657220686F6D6515
:100DC00020746F20302069732000436F6E66697253
:100DD0006D696E67206E657720706F736974696FD7
:100DE0006E20697320002C20736F206E6577207051
:100DF0006F736974696F6E20697320002C20736FA4
:100E00002074616B6520746865206469666665722C
:100E1000656E636520696E207A65726F20706F69F8
:100E20006E747320616E642061646A7573742069E6
:100E300074206279200043757272656E746C79203B
:100E4000617420002C20736F20736574207A6572A2
:100E50006F20706F696E74206265747765656E20AF
:100E60007468652074776F2C206174200020746F83
:100E700020004163747561746F7220456E636F6406
:100E800065722072616E676520697320004163742A
:100E90007561746F7220456E636F64657220526174
:100EA0006E6765203C2032207768656E2073686F1E
:100EB000756C64206265207E3230302D3330302EE8
:100EC00020436865636B204163747561746F7220A1
:100ED000456E636F646572205769726573202834AC
:100EE0002070696E20636F6E6E6563746F72292E59
:100EF00020204966206163747561746F7273206489
:100F00006964206E6F74206D6F76652C2063686550
:100F1000636B206163747561746F72206D6F746FA1
:100F2000722077697265732028322070696E2063A1
:100F30006F6E6E6563746F72292E00414C4552547A
:100F40003A20426F7468206163747561746F722017
:100F50006F70746F73207265616420646F776E20A8
:100F60002D207468697320697320616E2065727228
:100F70006F7220636173652E2020476F696E672052
:100F8000746F2073746F7020616E64207265747565
:100F9000726E206661696C757265206F6E20486F95
:100FA0006D654163747561746F7221005374616C77
:100FB0006C6564206D6F7265207468616E203530D9
:100FC0002074696D65732C2065786974696E67207B
:100FD00074686973206C6F6F702E005374616C6C51
:100FE000656421204E65656420746F20676F2069F9
:100FF0006E206F7468657220646972656374696FCE
:101000006E206E6F772C20616E642072657665723B
:101010007365206C6F6769632E004F75746572206D
:1010200075702C20696E6E657220646F776E202D4E
:1010300020736F206D6F766520696E6E6572207506
:101040007020666972737420746F206D616B652007
:101050006F7574657220676F20646F776E00095535
:1010600073696E67207265766572736564206C6F54
:101070006769632C2077616974656420666F7220EC
:10108000496E6E657220746F20676F20646F776E93
:1010900020686572652073696E6365206F7574657D
:1010A000722077656E7420646F776E20696E207091
:1010B000726576696F7573206C6F6F702E00537454
:1010C000616C6C6564206D6F7265207468616E2060
:1010D00035302074696D65732C2065786974696E8C
:1010E000672074686973206C6F6F702E0053746191
:1010F0006C6C656421204E65656420746F20676F99
:1011000020696E206F74686572206469726563740B
:10111000696F6E206E6F772C20616E642072657629
:1011200065727365206C6F6769632E00094F757473
:1011300065722077656E7420646F776E20776865BE
:101140006E20657870656374696E6720696E6E6580
:10115000722E2020526576657273696E67206C6FFF
:101160006769632E0009496E6E657220646F776E41
:101170002C2073746F7070696E6720666972737467
:10118000206C6F6F70004163747561746F724F757E
:1011900074657255704F70746F20697320646F7737
:1011A0006E20616C72656164792E20204D6F7669C6
:1011B0006E6720697420757020616E6420496E6EC0
:1011C000657220646F776E2E00426F7468206172C2
:1011D000652075702C20636F756C6420676F2065C7
:1011E000697468657220646972656374696F6E2ED4
:1011F000202043686F6F73696E6720496E6E657259
:1012000020446F776E2E002C204163747561746FDB
:1012100072446972656374696F6E496E6E6572447B
:101220006F776E4F757465725570203D2000537452
:10123000617274206F6620486F6D696E672041632C
:10124000747561746F722C20456E636F64657220D3
:101250003D200046696E616C20524742204F7574F4
:101260003A09005269676874436F6C6F7250756C0D
:101270007365496E3A09004C656674436F6C6F7212
:1012800050756C7365496E3A09004661696C656416
:1012900020746F20676574203378206469737461EB
:1012A0006E63652072656164696E677320696E2084
:1012B00052656164436F6C6F7253656E736F7273C6
:1012C0002C20617373756D696E672063656E74653C
:1012D0007265642E000941766752616E67653A094E
:1012E000000952616E6765333A09000952616E6701
:1012F00065323A090052616E6765313A0900446F00
:101300002066756C6C2057484954452072656164AD
:10131000696E6700446F20616D6269656E74206C50
:10132000696768742072656164696E6720776974A3
:1013300068204E656F506978656C73204F46460093
:10134000436F6C6F722073656E736F7273206E6F74
:101350007420696E7374616C6C65642C20646566BE
:1013600061756C74696E6720746F20524742282D36
:10137000312C2D312C2D3129000A4C6F6164204312
:10138000656C6C2053616D706C696E672066616975
:101390006C7572652C2052656164696E6773206E8E
:1013A0006F742077697468696E2037352E30206736
:1013B00072616D7320696E20302E31207365632E4B
:1013C0002053616D706C6573202831307820414462
:1013D000432076616C7565732066697273742C2086
:1013E0007468656E2031307820696E206772616D97
:1013F00073293A0900094E65772053616D706C6559
:10140000733A09000A54776F204261642053616D7A
:10141000706C65732C20676F696E6720746F207223
:1014200065706C61636520776974682032206E6531
:10143000772073616D706C65733A09000A54776F99
:10144000204261642053616D706C65732066616930
:101450006C7572652C20676F696E6720746F2072DF
:1014600065706C61636520776974682032206E65F1
:10147000772073616D706C65733A09002A2A2A46D9
:1014800041494C45442A2A2A002A2A2A50415353CA
:1014900045442A2A2A0054617267657420697320C2
:1014A0006C657373207468616E20302E3120672064
:1014B0002F20313030206D672C20736F20746869C5
:1014C00073207465737420004176657261676520CE
:1014D000446966666572656E636520286D67293AA2
:1014E00020004176657261676520446966666572B1
:1014F000656E6365202867293A2000417665726130
:101500006765205765696768743A20004D656173A7
:101510007572696E67206C6F61642063656C6C2006
:101520006E6F6973652C203230302073616D706C82
:1015300065732C2073616D706C657320706572200B
:1015400072656164696E67203D200009616C69679E
:101550006E6D656E740900094765744F7574657228
:1015600052656C6F6164536C6F7409004368656306
:101570006B696E67204F7574657252656C6F61643C
:101580004973416C69676E656428293A2047657420
:101590004F7574657252656C6F6164536C6F744102
:1015A00073466C6F6174090009616C69676E6D65E3
:1015B0006E74090009476574496E6E657252656CF8
:1015C0006F6164536C6F740900436865636B696E87
:1015D0006720496E6E657252656C6F616449734134
:1015E0006C69676E656428293A20476574496E6E98
:1015F000657252656C6F6164536C6F744173466CB5
:101600006F6174090009496E6E6572536C6F745F87
:1016100048696768203D2009004F75746572536CF6
:101620006F745F48696768203D20090009496E6E44
:101630006572536C6F745F4C6F77203D2009004FCB
:1016400075746572536C6F745F4C6F77203D200921
:101650000009496E6E6572536C6F74203D2009005D
:101660004F75746572536C6F74203D2009000944F6
:101670006F6F724F70656E6564456E636F646572FF
:1016800053746570706572506F735F4C6F77203D57
:1016900020090009446F6F724F70656E6564456E76
:1016A000636F64657253746570706572506F735FB9
:1016B00048696768203D200900446F6F724F70656C
:1016C0006E6564456E636F646572537465707065B2
:1016D00072506F73203D2009000941637475617475
:1016E0006F724F7574657255704F70746F203D2026
:1016F0000900094163747561746F72496E6E657299
:1017000055704F70746F203D200900094361726F5E
:101710007573656C486F6D65203D20090009416354
:10172000747561746F72506F73203D200900094118
:101730004D54323232506F736974696F6E0900090B
:10174000414D54323033506F736974696F6E0900C4
:10175000094361726F7573656C4472697665725086
:101760006F736974696F6E09004361726F75736599
:101770006C456E636F646572506F736974696F6EE8
:101780000900484F4D494E4720444944204E4F548C
:1017900020574F524B2050524F5045524C59212008
:1017A00020574520415245204E4F5420415420544B
:1017B000484520484F4D454341524F5553454C20D5
:1017C0004F50544F204255542053484F554C4420BD
:1017D000424521204F72207765206E657665722024
:1017E0006D6F766564206F6666206F662069742071
:1017F00070726F7065726C792E204F72206D6F74ED
:101800006F7220656E636F646572206F722063650E
:101810006E74657220656E636F64657220697320F3
:101820006261642E20536565206D65737361676521
:10183000732061626F76652E00486F6D654361723B
:101840006F7573656C2073657175656E6365207364
:1018500075636365737366756C2E000941637475F7
:1018600061746F724F7574657255704F70746F202C
:101870003D200900094163747561746F72496E6E91
:10188000657255704F70746F203D200900094361E7
:10189000726F7573656C486F6D65203D2009000996
:1018A000616363656C537465707065722E637572E5
:1018B00072656E74506F736974696F6E2829203D6C
:1018C00020090053746570706572506F7330203D4D
:1018D00020090053746570706572206D6F746F72AB
:1018E000206E6F7420706F7765726564206F722050
:1018F0006E6F74206D6F76696E67202D20636C6F3C
:1019000073652072656C6F616420646F6F72206113
:101910006E642074727920616761696E2E000948D7
:101920006F6D654361726F7573656C456E636F644F
:101930006572506F736974696F6E203D20090009EC
:10194000486F6D654361726F7573656C5374657034
:10195000706572506F736974696F6E203D20090065
:10196000096669727374486F6D654361726F757350
:10197000656C456E636F646572506F736974696FEF
:101980006E203D2009006669727374486F6D65436F
:1019900061726F7573656C53746570706572506FAA
:1019A000736974696F6E203D20090043656E74652C
:1019B000724D6F746F72456E636F646572206973E8
:1019C000206261642C2069742073686F756C6420D8
:1019D00068617665206D6F766564203533206F729F
:1019E000203733202831302D39302920627574207A
:1019F000696E7374656164206D6F766564204365FC
:101A00006E746572456E636F64657244696666657F
:101A100072656E6365203D20004361726F7573656A
:101A20006C4D6F746F72456E636F6465722069737D
:101A3000206261642C2069742073686F756C642067
:101A400068617665206D6F766564203735202836AD
:101A5000352D3835292062757420696E737465617F
:101A600064206D6F766564204361726F7573656C79
:101A7000456E636F646572446966666572656E6320
:101A800065203D20000943656E746572456E636F85
:101A9000646572446966666572656E6365203D20A3
:101AA0000900094361726F7573656C456E636F64FD
:101AB0006572446966666572656E6365203D2009DE
:101AC00000094F6666486F6D6543656E74657245C3
:101AD0006E636F646572506F736974696F6E203DD9
:101AE000200900094F6666486F6D654361726F7526
:101AF00073656C456E636F646572506F736974696A
:101B00006F6E203D200900094F6666486F6D655372
:101B1000746570706572506F736974696F6E203D83
:101B2000200900096669727374486F6D6543656EBC
:101B3000746572456E636F646572506F7369746922
:101B40006F6E203D200900096669727374486F6DDD
:101B5000654361726F7573656C456E636F64657222
:101B6000506F736974696F6E203D2009004368658A
:101B7000636B696E6720656E636F646572733A208C
:101B80006669727374486F6D654361726F757365D2
:101B90006C53746570706572506F736974696F6EA1
:101BA000203D2009005374616C6C696E6720646588
:101BB0007465637465642C206469646E2774206D99
:101BC0006F7665206174206C6561737420323030EB
:101BD00020656E636F64657220636F756E74732029
:101BE000696E2031207365632E00546F6F206D6124
:101BF0006E7920476F546F506F736974696F6E20F0
:101C000072657472696573202D206572726F7269D6
:101C10006E67206F75742077697468206D69736DC5
:101C200061746368206265747765656E20414D5408
:101C300031303220616E6420414D543230332F41B7
:101C40004D54323232206F72206A75737420646989
:101C5000646E27742067657420746F2074617267E6
:101C600065742E20476F546F506F736974696F6E7F
:101C7000204661696C7572652E005265686F6D69EA
:101C80006E67207375636365737366756C2C20676C
:101C90006F696E6720746F20747279207468652094
:101CA000476F546F506F736974696F6E206167611D
:101CB000696E2E005265686F6D696E672066616996
:101CC0006C65642C20676976696E67207570206F7B
:101CD0006E20746865206361726F7573656C206D2A
:101CE0006F76656D656E742E0043656E7465722047
:101CF000656E636F646572206D69736D617463688E
:101D00002C20676F696E6720746F207265686F6D35
:101D10006520746865206361726F7573656C2061FE
:101D20006E642074727920616761696E0020616E53
:101D3000642061637475616C206F66200052657465
:101D40007279696E6720746865206361726F75735C
:101D5000656C206D6F76656D656E742064756520A9
:101D6000746F2063656E74657220656E636F646561
:101D700072206D69736D61746368202D20736C69C6
:101D80007070696E672063656E74657220656E633E
:101D90006F6465722E204C696D6974206F66200037
:101DA0005265747279696E67207468652063617228
:101DB0006F7573656C206D6F76656D656E742064EC
:101DC000756520746F2073746570706572206D6F17
:101DD000746F7220656E636F646572206D69736DD8
:101DE00061746368202D206C696B656C7920737455
:101DF000616C6C6564206D6F746F722C20746F6FF2
:101E00002068656176792C20746F6F206D7563682A
:101E1000206672696374696F6E2C206F7220626134
:101E200064206D6F746F72206D6F756E7420616CBD
:101E300069676E6D656E742F737072696E672E20A0
:101E40004C696D6974206F6620323020616E6420A9
:101E500061637475616C206F662000414D543232AD
:101E60003220456E636F64657220506F73697469C8
:101E70006F6E204572726F72206F6620005461721F
:101E800067657420414D5432323220456E636F6471
:101E9000657220506F736974696F6E206F662000E1
:101EA00043757272656E7420414D54323232204552
:101EB0006E636F64657220506F736974696F6E2012
:101EC0006F662000414D5432303320456E636F649D
:101ED000657220506F736974696F6E204572726FFE
:101EE00072206F66200054617267657420414D5402
:101EF00032303320456E636F64657220506F7369B2
:101F000074696F6E206F66200043757272656E741F
:101F100020414D5432303320456E636F646572202A
:101F2000506F736974696F6E206F6620005374651B
:101F30007070657220456E636F64657220506F73B8
:101F40006974696F6E204572726F72206F6620002F
:101F500043757272656E742053746570706572207B
:101F6000456E636F64657220506F736974696F6E3C
:101F7000206F66200053746570706572204472692A
:101F800076657220506F736974696F6E2045727246
:101F90006F72206F66200043757272656E742053F5
:101FA0007465707065722044726976657220506F36
:101FB000736974696F6E206F6620004361726F757C
:101FC00073656C206D6F76656D656E7420666169F2
:101FD0006C6564202D2073746F7070696E672E209D
:101FE00020456974686572206E6F206D6F76656D2F
:101FF000656E7420617420616C6C20283C35207300
:10200000746570732073696E6365206C61737420EE
:10201000353030206D736563292C206F7220706F0E
:10202000736974696F6E20646576696174696F6E37
:102030002066726F6D2077686572652073686F75B2
:102040006C64206265207673207768657265206114
:102050007265206261736564206F6E20656E636FC8
:102060006465722E0046696E616C205265747279E7
:102070002023342C206C6F776572696E6720616352
:1020800063656C65726174696F6E20616E64207245
:10209000616973696E67206D6F7665206375727212
:1020A000656E742E0052657472792023332C206C77
:1020B0006F776572696E6720616363656C657261D5
:1020C00074696F6E20616E642072616973696E67F6
:1020D000206D6F76652063757272656E742E005286
:1020E000657472792023322C206C6F776572696E6B
:1020F0006720616363656C65726174696F6E2061EE
:102100006E642072616973696E67206D6F766520F9
:1021100063757272656E742E005265747279202335
:10212000312C206C6F776572696E6720616363651F
:102130006C65726174696F6E20616E642072616992
:1021400073696E67206D6F76652063757272656E58
:10215000742E002E2044697374616E636546726F3D
:102160006D546172676574203D2000292043616CC5
:102170006C65642C2043757272656E7420506F73A9
:102180006974696F6E203D2000476F546F506F7304
:102190006974696F6E456E636F64657228002E20E6
:1021A00044697374616E636546726F6D54617267E2
:1021B0006574203D2000292043616C6C65642C20EF
:1021C00043757272656E7420506F736974696F6EB7
:1021D000203D2000476F546F506F736974696F6EB4
:1021E000280044697374616E636546726F6D546153
:1021F000726765744D696E7573203D2009004469EE
:102200007374616E636546726F6D54617267657455
:10221000506C7573203D20090044697374616E63CE
:102220006546726F6D546172676574203D200900C8
:1022300043757272656E74506F736974696F6E2046
:102240003D200900546172676574506F7369746949
:102250006F6E203D200900547279696E6720746F9B
:1022600020486F6D654361726F7573656C2C2073C8
:10227000696E6365206974206861736E27742073CA
:1022800075636365737366756C6C7920686F6D65D3
:1022900064207965742E00496E76616C69642073E0
:1022A0006C6F74206E756D62657220666F7220357A
:1022B0003020736C6F742064697370656E7365721F
:1022C0003A20536C6F742000496E76616C6964200B
:1022D000736C6F74206E756D62657220666F72200C
:1022E000353020736C6F742064697370656E73652C
:1022F0007200656E636F64657253746570706572A9
:10230000506F73206F7574206F662072616E676501
:10231000202D2073657474696E67206E6577206563
:102320006E636F64657253746570706572506F731D
:10233000206F66200043757272656E74506F73690A
:1023400074696F6E206F7574206F662072616E679E
:1023500065202D2073657474696E67206E65772023
:1023600043757272656E7420506F736974696F6E15
:10237000206F662000656E636F64657253746570CC
:10238000706572506F73206F7574206F6620726174
:102390006E6765202D2073657474696E67206E65A5
:1023A0007720656E636F64657253746570706572D3
:1023B000506F73206F66200043757272656E7450A3
:1023C0006F736974696F6E206F7574206F66207209
:1023D000616E6765202D2073657474696E67206E69
:1023E00065772043757272656E7420506F736974DF
:1023F000696F6E206F6620004361726F7573656C44
:10240000206D6F76656D656E74206661696C6564BC
:102410002E2020536C697070696E6720637572722C
:10242000656E74207761732000414D543232322042
:10243000456E636F64657220506F736974696F6E67
:10244000204572726F72206F66200054617267655A
:102450007420414D5432323220456E636F64657290
:1024600020506F736974696F6E206F66200043752A
:102470007272656E7420414D5432323220456E6363
:102480006F64657220506F736974696F6E206F6638
:102490002000414D5432303320456E636F646572C5
:1024A00020506F736974696F6E204572726F72206D
:1024B0006F66200054617267657420414D5432305C
:1024C0003320456E636F64657220506F7369746961
:1024D0006F6E206F66200043757272656E742041C6
:1024E0004D5432303320456E636F64657220506FF7
:1024F000736974696F6E206F662000537465707025
:10250000657220456E636F64657220506F736974E5
:10251000696F6E204572726F72206F66200043757E
:102520007272656E74205374657070657220456EAA
:10253000636F64657220506F736974696F6E206F8A
:102540006620005374657070657220447269766508
:102550007220506F736974696F6E204572726F726A
:10256000206F66200043757272656E742053746527
:10257000707065722044726976657220506F73695D
:1025800074696F6E206F6620004361726F757365AA
:102590006C206D6F76656D656E74206661696C6523
:1025A000642C206D75737420686176652073746186
:1025B0006C6C65642E20204D6F76652043757272B9
:1025C000656E742074686174206974206661696C3A
:1025D00065642061742077617320002E2044697344
:1025E00074616E636546726F6D54617267657420C5
:1025F0003D2000292043616C6C65642C204375727A
:1026000072656E7420506F736974696F6E203D201F
:1026100000476F546F506F736974696F6E456E63D6
:102620006F64657228002E2044697374616E63655F
:1026300046726F6D546172676574203D20002920D9
:1026400043616C6C65642C2043757272656E7420F6
:10265000506F736974696F6E203D2000476F546F2F
:10266000506F736974696F6E280044697374616E8A
:10267000636546726F6D5461726765744D696E75FE
:1026800073203D20090044697374616E636546726E
:102690006F6D546172676574506C7573203D2009CD
:1026A0000044697374616E636546726F6D54617244
:1026B000676574203D20090043757272656E745021
:1026C0006F736974696F6E203D20090054617267F1
:1026D0006574506F736974696F6E203D2009004105
:1026E0006D6F756E745F44697370656E7365643A7F
:1026F0000900576569676874204166746572203106
:10270000207365633A0900576569676874204166FC
:102710007465723A0900446F6E65005265766572A1
:1027200073696E6700576569676874204265666FF4
:1027300072653A09005E6C656674646F6F725F6FF4
:1027400070656E65643A307C3A24005E6C65667430
:10275000646F6F725F6F70656E65643A307C3A24A7
:10276000005E6C656674646F6F725F636C6F736537
:10277000643A307C3A24005E6C656674646F6F72F4
:102780005F636C6F7365643A307C3A24005E7269F3
:10279000676874646F6F725F6F70656E65643A30FE
:1027A0007C3A24005E7269676874646F6F725F6F51
:1027B00070656E65643A307C3A24005E72696768C1
:1027C00074646F6F725F636C6F7365643A307C3AE8
:1027D00024005E7269676874646F6F725F636C6F08
:1027E0007365643A307C3A24005246494420726151
:1027F0007720646174613A20005246494420636145
:102800007264206E756D6265723A20002C20466FEE
:10281000756E64203D2000524649444C6F6F702015
:1028200000436865636B696E6720524649442053D4
:10283000656E736F723A00206F6620000A0A437952
:10284000636C6520005E646F6F725F6F70656E65AC
:10285000643A307C3A24005E646F6F725F6F70651B
:102860006E65643A307C3A24005E646F6F725F6319
:102870006C6F7365643A307C3A24005E646F6F72EB
:102880005F636C6F7365643A307C3A240052657301
:1028900063616E204C6566746F766572203D200022
:1028A00052657363616E2057726170203D20005243
:1028B000657363616E204C6566746F766572203D4A
:1028C000200052657363616E204E6F2057726170F5
:1028D000203D200052657363616E204C6566746F05
:1028E000766572203D200052657363616E205772D9
:1028F0006170203D200052657363616E204C6566F7
:10290000746F766572203D200052657363616E209E
:102910004E6F2057726170203D20005265736361D5
:102920006E20416C6C203D20005E70617573653ACD
:10293000005E72657365743A005E63616E63656C18
:102940003A005E70617573653A005E726573657416
:102950003A005E63616E63656C3A003A24005E6F14
:102960007665723A317C003A24005E6F7665723A81
:10297000317C003A24005E6D6973733A317C003A11
:1029800024005E6D6973733A317C003A24005E73F3
:1029900065745F7363616C655F6C6564735F7265BA
:1029A00073703A327C737563636573733A003A24CB
:1029B000005E7365745F7363616C655F6C656473FF
:1029C0005F726573703A327C737563636573733AD3
:1029D000007365745F7363616C655F6C656473003D
:1029E0006F66660066696E697368656400616C6530
:1029F00072740064697370656E73696E67006469F0
:102A0000737000626F776C0061637469766500694A
:102A1000646C650056616C756520706173736564E4
:102A20003D00496E207365745F7363616C655F6C14
:102A300065647321003A24005E64656D6F5F7265A2
:102A400073703A327C737563636573733A003A242A
:102A5000005E64656D6F5F726573703A327C73758A
:102A600063636573733A0064656D6F0056616C75DE
:102A700065207061737365643D00496E2064656D07
:102A80006F2066756E6374696F6E21005E70696E8B
:102A9000673A307C3A24005E70696E673A307C3A5F
:102AA0002400416D6F756E745F44697370656E7359
:102AB00065643A0900576569676874204166746502
:102AC000722031207365633A09005765696768743D
:102AD0002041667465723A0900446F6E6500526564
:102AE00076657273696E670057656967687420421E
:102AF00065666F72653A090053746570706572207F
:102B000050756D702044726976657220506F7369DC
:102B100074696F6E204572726F72206F6620004379
:102B2000757272656E742050756D70205374657087
:102B30007065722044726976657220506F73697493
:102B4000696F6E206F6620002E2044697374616E79
:102B5000636546726F6D546172676574203D200035
:102B6000292043616C6C65642C2043757272656E1C
:102B70007420506F736974696F6E203D2000476F39
:102B8000546F506F736974696F6E28005374657069
:102B90007065722050756D70204472697665722080
:102BA000506F736974696F6E204572726F72206F17
:102BB00066200043757272656E742050756D7020CA
:102BC0005374657070657220447269766572205026
:102BD0006F736974696F6E206F6620002E204469E0
:102BE0007374616E636546726F6D5461726765746C
:102BF000203D2000292043616C6C65642C204375C6
:102C00007272656E7420506F736974696F6E203DC7
:102C10002000476F546F506F736974696F6E28009E
:102C20003A24005E64697370656E73655F74696DE4
:102C300065645F726573703A327C73756363657344
:102C4000733A003A24005E64697370656E73655F61
:102C500074696D65645F726573703A327C73756315
:102C6000636573733A0064697370656E73655F744E
:102C7000696D656400416674657220686F6D6520DA
:102C800061637475616C2C20736574706F696E7408
:102C90002C2070776D3A00456E64696E6720416341
:102CA000747561746F722061637475616C2C20732C
:102CB0006574706F696E742C2070776D3A00537470
:102CC000617274696E67204163747561746F7220FC
:102CD00061637475616C2C20736574706F696E74B8
:102CE0002C2070776D3A0056616C756520706173A9
:102CF0007365643D0056616C756520706173736522
:102D0000643D00496E2064697370656E736520745C
:102D1000696D656421005E646F6F725F756E6C6FC4
:102D2000636B5F726573703A317C7375636365734F
:102D3000733A24005E646F6F725F756E6C6F636BC5
:102D40005F726573703A317C737563636573733A50
:102D50002400646F6F725F756E6C6F636B006C6FD5
:102D6000636B656400756E6C6F636B6564006C6F9C
:102D7000636B656400756E6C6F636B656400203D0A
:102D80002000416674657220556E6C6F636B696ECE
:102D9000672C2052656C6F6164446F6F72556E6C66
:102DA0006F636B53656E736550696E203D20002024
:102DB0003D20004265666F726520556E6C6F636BD7
:102DC000696E672C2052656C6F6164446F6F725539
:102DD0006E6C6F636B53656E736550696E203D203A
:102DE00000496E20646F6F725F756E6C6F636B204D
:102DF00066756E6374696F6E21005E636162696EF1
:102E000065745F6C6F636B5F726573703A317C736E
:102E10007563636573733A24005E636162696E650E
:102E2000745F6C6F636B5F726573703A317C73753E
:102E300063636573733A2400636162696E65745FEE
:102E40006C6F636B004166746572204C6F636B69D5
:102E50006E672C2045787465726E616C446F6F727A
:102E6000556E6C6F636B53656E736550696E3A2077
:102E7000004265666F7265204C6F636B696E672CEC
:102E80002045787465726E616C446F6F72556E6C1C
:102E90006F636B53656E736550696E3A2000496EBF
:102EA00020636162696E65745F6C6F636B20667529
:102EB0006E6374696F6E21005E636162696E657432
:102EC0005F756E6C6F636B5F726573703A317C73A4
:102ED0007563636573733A24005E636162696E654E
:102EE000745F756E6C6F636B5F726573703A317C83
:102EF000737563636573733A2400636162696E6519
:102F0000745F756E6C6F636B0041667465722055FB
:102F10006E6C6F636B696E672C2045787465726E9A
:102F2000616C446F6F72556E6C6F636B53656E733B
:102F30006550696E3A20004265666F726520556E75
:102F40006C6F636B696E672C2045787465726E6177
:102F50006C446F6F72556E6C6F636B53656E736507
:102F600050696E3A2000496E20636162696E657433
:102F70005F756E6C6F636B2066756E6374696F6EE0
:102F80002100636C6F736564006F70656E003A2496
:102F900000636C6F736564006F70656E005E6C65D6
:102FA0006674646F6F725F7374617475735F72655A
:102FB00073703A317C003A24005E6C656674646F0D
:102FC0006F725F7374617475735F726573703A3199
:102FD0007C006C656674646F6F725F737461747586
:102FE00073004C656674446F6F724F70656E203D60
:102FF0002000636C6F736564006F70656E003A2427
:1030000000636C6F736564006F70656E005E72695B
:10301000676874646F6F725F7374617475735F72E5
:103020006573703A317C003A24005E726967687497
:10303000646F6F725F7374617475735F72657370C0
:103040003A317C007269676874646F6F725F737481
:1030500061747573005269676874446F6F724F7062
:10306000656E203D200072656D6F76656400696E47
:10307000736572746564003A240072656D6F7665DD
:103080006400696E736572746564005E776970656B
:10309000725F7374617475735F726573703A317CBB
:1030A000003A24005E77697065725F7374617475AD
:1030B000735F726573703A317C0077697065725F17
:1030C000737461747573005769706572496E7365C6
:1030D00072746564203D200072656D6F76656400D2
:1030E000696E736572746564003A240072656D6F71
:1030F00076656400696E736572746564005E6472FF
:103100006970747261795F7374617475735F7265ED
:1031100073703A317C003A24005E64726970747294
:1031200061795F7374617475735F726573703A313E
:103130007C0064726970747261795F737461747514
:1031400073004472697054726179496E7365727468
:103150006564203D20003A24005E706F73697469D5
:103160006F6E5F63616E69737465725F7265706CB8
:103170006163655F726573703A327C6661696C7514
:1031800072653A003A24005E706F736974696F6EFD
:103190005F63616E69737465725F7265706C6163A1
:1031A000655F726573703A327C6661696C757265D1
:1031B0003A003A24005E706F736974696F6E5F63E2
:1031C000616E69737465725F7265706C6163655F6F
:1031D000726573703A327C737563636573733A001A
:1031E0003A24005E706F736974696F6E5F63616E1D
:1031F00069737465725F7265706C6163655F726537
:1032000073703A327C737563636573733A00706FE1
:10321000736974696F6E5F63616E69737465725F01
:103220007265706C6163650056616C7565207061D4
:10323000737365643D00496E20706F736974696FC4
:103240006E2063616E6973746572207265706C6163
:1032500063652066756E6374696F6E2100496E2028
:1032600070617573652066756E6374696F6E210099
:103270005E72657363616E5F737461727465643AE4
:10328000307C3A24005E72657363616E5F737461B3
:10329000727465643A307C3A24005E7265736361CF
:1032A0006E5F66696E69736865643A307C3A2400C3
:1032B0005E72657363616E5F66696E69736865648B
:1032C0003A307C3A24005E72657363616E5F6361BD
:1032D0006E6973746572735F726573703A317C6680
:1032E00061696C7572653A24005E72657363616E24
:1032F0005F63616E6973746572735F726573703A50
:10330000317C6661696C7572653A24004861766546
:1033100057655375636365737366756C6C79486F35
:103320006D65644361726F7573656C4265666F723B
:1033300065203D2000486F6D654163747561746F51
:1033400072537563636573734F6E537461727475F2
:1033500070203D200053616665546F526F74617434
:10336000654361726F7573656C2829203D2000529A
:10337000656C6F6164446F6F724F70656E203D20A5
:10338000005E72657363616E5F63616E697374651D
:1033900072735F726573703A317C737563636573C2
:1033A000733A24005E72657363616E5F63616E6978
:1033B00073746572735F726573703A317C73756391
:1033C000636573733A24005E72657363616E5F6355
:1033D000616E6973746572735F726573703A317C84
:1033E0006661696C7572653A24005E72657363612B
:1033F0006E5F63616E6973746572735F726573701B
:103400003A317C6661696C7572653A2400215265B7
:103410006C6F6164446F6F724F70656E202626205A
:1034200053616665546F526F746174654361726F66
:103430007573656C282920262620486F6D654163C9
:10344000747561746F72537563636573734F6E53F4
:103450007461727475702026262048617665576500
:103460005375636365737366756C6C79486F6D65CE
:10347000644361726F7573656C4265666F72652037
:103480003D2000556E61626C6520746F207265731B
:1034900063616E2063616E69737465727320647515
:1034A0006520746F207468697320636865636B209E
:1034B0006661696C696E673A00547279696E67205B
:1034C000746F20486F6D654361726F7573656C2C06
:1034D0002073696E6365206974206861736E277458
:1034E000207375636365737366756C6C7920686FA0
:1034F0006D6564207965742E00496E207265736372
:10350000616E5F63616E6973746572732066756E58
:103510006374696F6E2100626C61636B0077686928
:103520007465005E72657365745F726573703A31BD
:103530007C737563636573733A24005E72657365AB
:10354000745F726573703A317C737563636573730E
:103550003A2400496E2072657365742066756E6347
:1035600074696F6E21005E63616E63656C5F726586
:1035700073703A317C737563636573733A24005ECC
:1035800063616E63656C5F726573703A317C7375ED
:1035900063636573733A2400496E2063616E6365EB
:1035A0006C2066756E6374696F6E2100496E2072BF
:1035B0006573756D655F66756E6374696F6E2066A1
:1035C000756E6374696F6E21003A24005E737973BF
:1035D00074656D5F636865636B5F726573703A31C4
:1035E0007C00496E2073797374656D5F63686563F1
:1035F0006B2066756E6374696F6E21003A24005EFD
:103600007374617475735F726573703A317C003ADC
:1036100024005E7374617475735F726573703A3100
:103620007C0052656C6F6164446F6F72556E6C6F95
:10363000636B53656E736550696E203D200057695A
:10364000706572496E736572746564203D2000096F
:103650004163747561746F724F7574657255704F04
:1036600070746F203D2000094163747561746F723E
:10367000496E6E657255704F70746F203D20004129
:1036800063747561746F72456E636F646572203D1B
:10369000200041313420414D49532D3330353433EE
:1036A000205664642052656C6F6164446F6F72438E
:1036B0006C6F736564203D200043757272656E7493
:1036C000205765696768743A0900496E2073746110
:1036D0007475735F66756E6374696F6E2066756E60
:1036E0006374696F6E21005E626F776C5F776569E6
:1036F0006768745F726573703A327C737563636573
:1037000073733A005E626F776C5F776569676874A0
:103710005F726573703A327C737563636573733A75
:10372000005E626F776C5F7765696768745F72656A
:1037300073703A327C6661696C7572653A005E62DC
:103740006F776C5F7765696768745F726573703AED
:10375000327C6661696C7572653A002C2053616D2C
:10376000706C657320776572653A2000426F776CE4
:1037700020776569676874204E4F54205345545430
:103780004C45442C20736F2072657475726E204610
:1037900061696C75726520627574207265747572EA
:1037A0006E204162736F6C757465576569676874E4
:1037B00020616E797761792C204162736F6C75742A
:1037C00065576569676874203D20004E6577205213
:1037D0004649442074616720646574656374656458
:1037E0002C2074686579206D757374206861766526
:1037F000207377617070656420626F776C732C2022
:10380000736F207765206E65656420746F20736523
:103810006E6420626F776C5F706C61636564206EAC
:103820006F77206265666F726520626F776C5F7775
:1038300065696768745F726573702E00524649440B
:103840002074616773206D617463682C206E6F2033
:103850006E65656420746F207468726F7720626F84
:10386000776C5F706C61636564206576656E74006B
:10387000436C656172696E6720616C6C20496E698A
:103880007469616C4163747561746F72506F7369B0
:1038900074696F6E735B5D20616E6420536572693D
:1038A000616C4E756D6265724861734265656E4408
:1038B000697370656E7365645B5D2E00206F75744F
:1038C000206F6620626F756E64732C2063616E6E6C
:1038D0006F7420736574207468697320696E207436
:1038E000686520454550524F4D2E00736C6F745FD4
:1038F0006E756D62657220002920746F20005D2056
:1039000028736C6F74200053657474696E67204966
:103910006E697469616C4163747561746F72506F24
:10392000736974696F6E735B0041667465722053CE
:1039300063616C655F43616C6962726174696F6E2B
:103940003A20004265666F7265205363616C655F63
:1039500043616C6962726174696F6E3A20004166FE
:10396000746572205363616C655F43616C69627258
:103970006174696F6E5F5765696768743A200042C9
:1039800065666F7265205363616C655F43616C6946
:1039900062726174696F6E5F5765696768743A2017
:1039A000004166746572205363616C655F43616CAE
:1039B0006962726174696F6E5F323030673A2000FD
:1039C0004265666F7265205363616C655F43616C2D
:1039D0006962726174696F6E5F323030673A2000DD
:1039E0004166746572205363616C655F43616C6905
:1039F00062726174696F6E5F5A65726F3A2000423D
:103A000065666F7265205363616C655F43616C69C5
:103A100062726174696F6E5F5A65726F3A20004618
:103A200061696C656420746F206765742035782047
:103A3000676F6F642064697374616E63652072657B
:103A40006164696E677320696E2063616C6962727C
:103A50006174655F77686974655F626F776C282948
:103A6000000941766752616E67653A090009526143
:103A70006E6765353A09000952616E6765343A0927
:103A8000000952616E6765333A09000952616E6739
:103A900065323A090052616E6765313A0900466144
:103AA000696C656420746F206765742035782067C1
:103AB0006F6F642064697374616E63652072656101
:103AC00064696E677320696E2063616C69627261FC
:103AD00074655F626C61636B5F626F776C2829004D
:103AE0000941766752616E67653A09000952616E55
:103AF0006765353A09000952616E6765343A090015
:103B00000952616E6765333A09000952616E676553
:103B1000323A090052616E6765313A090046696EB2
:103B2000616C20656E636F646572203D20004166A4
:103B3000746572206272616B652C20656E636F64C0
:103B40006572203D20004465736972656420706F62
:103B5000736974696F6E203D2000416374756174F0
:103B60006F7252657475726E546F486F6D65466101
:103B700073742C204265666F726520456E636F64B6
:103B80006572203D2000436865636B2063656E7439
:103B9000657220656E636F64657220666F72206C5B
:103BA0006F6F73656E6573732F736C697070696E78
:103BB00067202D20656974686572207468652079B6
:103BC000656C6C6F7720696E7365727420686173C1
:103BD00020636F6D65206C6F6F73652066726F6D0B
:103BE000207468652073686166742C206861732096
:103BF000706F70706564206F7574206F66206365E8
:103C00006E74657220656E636F6465722C206F72CE
:103C1000207468652077686F6C6520656E636F64DB
:103C2000657220697473656C662068617320746FB7
:103C30006F206D75636820776967676C6520746FA6
:103C4000206974206F722069736E27742073656118
:103C50007465642077656C6C2E002A2A2A464149D7
:103C60004C45442A2A2A002A2A2A504153534544C3
:103C70002A2A2A004174206C65617374206F6E6576
:103C8000206F6620746865206361726F7573656C60
:103C9000206D6F76656D656E7473206661696C6505
:103CA000642C20736F20746869732069732061200D
:103CB0006661696C75726520616E64206E6F742038
:103CC000612076616C69642063656E74657220653D
:103CD0006E636F64657220736C697070696E6720C3
:103CE000746573742E002A2A2A4641494C45442A99
:103CF0002A2A00546869732076616C7565207368A0
:103D00006F756C64206265203C20353020746F2014
:103D1000656E73757265206E6F20736C6970706963
:103D20006E672E00446966666572656E636520691C
:103D30006E2063656E74657220656E636F64657274
:103D400020706F736974696F6E207768656E206D7F
:103D50006F76696E6720636C6F636B77697365203C
:103D6000767320636F756E746572636C6F636B77C7
:103D7000697365206973200043656E746572206500
:103D80006E636F64657220506F736974696F6E4102
:103D900074536C6F743130434357203D20004365AA
:103DA0006E74657220656E636F64657220506F7308
:103DB0006974696F6E4174536C6F7431304357206E
:103DC0003D20000A43656E74657220656E636F6402
:103DD000657220506F736974696F6E4174486F6DBE
:103DE00065203D20004F766572616C6C20726573B2
:103DF000756C74203D202A2A2A4641494C45442AA4
:103E00002A2A004F766572616C6C20726573756C3E
:103E100074203D202A2A2A5041535345442A2A2AF5
:103E2000004E756D626572206F66206D6F76656DF0
:103E3000656E74206661696C75726573203D200043
:103E40004E756D626572206F66206D6F76656D656B
:103E50006E742072657472696573203D2000206362
:103E600079636C65732E000A0A46696E697368652A
:103E700064204379636C652054657374206F6620F9
:103E8000006E756D4661696C75726573203D20002A
:103E90006E756D52657472696573203D20005375AF
:103EA0006363657373203D200067476F546F506FE5
:103EB000736974696F6E52657472696573203D2011
:103EC00000476F546F44697370656E7365536C6F10
:103ED00074203D20006E756D4661696C7572657366
:103EE000203D20006E756D52657472696573203DCA
:103EF000200053756363657373203D200067476F2F
:103F0000546F506F736974696F6E5265747269652E
:103F100073203D2000476F546F44697370656E7362
:103F200065536C6F74203D20002054696D657300EB
:103F30004379636C6520546573742052464944206C
:103F4000446F6E652C2052464944204D6973736955
:103F50006E6720002054696D6573004379636C655A
:103F60002054657374205246494420446F6E652C7A
:103F7000205246494420446574656374656420009A
:103F80002054696D6573002054696D65732C20524F
:103F9000464944204D697373696E67200043796315
:103FA0006C65205465737420526573756C7473204E
:103FB000536F20466172202D2052464944204465AB
:103FC000746563746564200020636F6D706C657444
:103FD00065642C20486F7572732052656D61696E3F
:103FE000696E67203D2000206F7574206F66200089
:103FF0004379636C65200052464944204E6F74201B
:10400000446574656374656421005E7769706572E8
:104010005F72656D6F7665643A307C3A24005E7736
:10402000697065725F72656D6F7665643A307C3A6F
:1040300024005E77697065725F696E73657274657E
:10404000643A307C3A24005E77697065725F696E0D
:104050007365727465643A307C3A24005E647269F8
:1040600070747261795F72656D6F7665643A307CE9
:104070003A24005E64726970747261795F72656D72
:104080006F7665643A307C3A24005E6472697074BD
:104090007261795F696E7365727465643A307C3AF7
:1040A00024005E64726970747261795F696E736511
:1040B000727465643A307C3A240066696E6973688C
:1040C000656400616C6572740064697370656E7319
:1040D000696E6700626F776C006163746976650072
:1040E00069646C65003A24005E6E61636B3A317CF2
:1040F000003A24005E6E61636B3A317C0063796341
:104100006C655F746573745F72666964006379637C
:104110006C655F746573745F616C6C006379636C6C
:10412000655F746573745F6163747561746F7273D6
:10413000006379636C655F746573745F6361726F4C
:104140007573656C00746573745F7363616C655F30
:104150006E6F69736500746573745F6361726F7508
:1041600073656C5F656E636F646572730062757210
:104170006E5F696E5F6361726F7573656C00746505
:1041800073745F6361726F7573656C5F6672696388
:1041900074696F6E007A65726F5F63656E746572C5
:1041A0005F656E636F646572007365745F726669E4
:1041B000645F6F76657272696465006465637265D9
:1041C0006173655F70616E656C5F62726967687468
:1041D0006E65737300696E6372656173655F7061AC
:1041E0006E656C5F6272696768746E657373007385
:1041F00065745F70616E656C5F6272696768746E2A
:10420000657373006361726F7573656C5F706F7354
:104210006974696F6E006163747561746F725F6356
:104220006F756E746572636C6F636B77697365002D
:104230006163747561746F725F636C6F636B7769D0
:104240007365006163747561746F725F7265747514
:10425000726E746F686F6D65666173747069640007
:104260006163747561746F725F72657475726E7478
:104270006F686F6D656661737400616374756174F6
:104280006F725F706F736974696F6E0061637475CC
:1042900061746F725F686F6D650063616C696272F3
:1042A0006174655F626C61636B5F626F776C006302
:1042B000616C6962726174655F77686974655F6279
:1042C0006F776C007365745F626C61636B5F626FC4
:1042D000776C5F64697374616E6365007365745FA6
:1042E00077686974655F626F776C5F646973746126
:1042F0006E6365007365745F7363616C655F6361B2
:104300006C6962726174696F6E007365745F696E67
:10431000697469616C5F6163747561746F725F70F9
:104320006F736974696F6E00636C6561725F61635E
:10433000747561746F725F706F736974696F6E7397
:104340000031323334353637383930313233343561
:104350003637383930313233343536373839303111
:104360003233343536373839303132333435363705
:104370003839300063616C6962726174655F7363C0
:10438000616C655F73686966745F7A65726F0063FC
:10439000616C6962726174655F7363616C650076FC
:1043A000657273696F6E00626F776C5F77656967BE
:1043B000687400626F776C5F7374617475730073F7
:1043C00074617475730073797374656D5F63686588
:1043D000636B00666F726365007363616E5F616C2F
:1043E0006C00726573756D650063616E63656C006A
:1043F0007265736574007365745F64656D6F5F6D7E
:104400006F6465007365745F6861735F72656C6F7C
:1044100061645F646F6F725F6C6F636B0073657470
:104420005F626F776C5F617265615F636F6C6F7203
:104430005F7479706500706F7765725F7361766520
:104440005F6D6F64650072657363616E5F63616E5B
:1044500069737465727300706175736500706F7352
:104460006974696F6E5F63616E69737465725F72A0
:1044700065706C616365007363616E5F6261726336
:104480006F646500636162696E65745F7374617403
:1044900075730064726970747261795F73746174AA
:1044A00075730077697065725F73746174757300FA
:1044B0007269676874646F6F725F73746174757327
:1044C000006C656674646F6F725F7374617475738A
:1044D00000646F6F725F73746174757300636162FF
:1044E000696E65745F756E6C6F636B0063616269A2
:1044F0006E65745F6C6F636B00646F6F725F756E77
:104500006C6F636B00646F6F725F6C6F636B0064E2
:10451000697370656E73655F66756C6C5F63616E01
:104520000064697370656E73655F74696D656400BE
:1045300064697370656E73655F616C6C00416D6F6B
:10454000756E745F44697370656E7365643A0900D3
:1045500057656967687420416674657220312073FD
:1045600065633A0900576569676874204166746538
:10457000723A0900576569676874204265666F7210
:10458000653A09007365745F737465707065725F76
:1045900072696768745F706F736974696F6E0041E8
:1045A0006D6F756E745F44697370656E7365643AA0
:1045B0000900576569676874204166746572203127
:1045C000207365633A09005765696768742041661E
:1045D0007465723A090057656967687420426566B8
:1045E0006F72653A09007365745F73746570706506
:1045F000725F6C6566745F706F736974696F6E006B
:104600007365745F737465707065725F72696768F3
:10461000745F7370656564007365745F737465704F
:104620007065725F6C6566745F7370656564007356
:1046300065745F70756D705F737065656400646943
:104640007370656E73655F646576656C6F706572B7
:104650000064697370656E73655F77656967687418
:104660000070696E670064656D6F00706F736974C8
:10467000696F6E5F63616E697374657200736574F0
:104680005F7363616C655F6C656473007365745F11
:104690006C656473002D2D2D2D2D2D2D2D2D2D2D83
:1046A0002D2D2D00706172616D35203D20007061EF
:1046B00072616D34203D2000706172616D33203D68
:1046C0002000706172616D32203D20007061726166
:1046D0006D31203D2000706172616D34203D2000FD
:1046E000706172616D33203D2000706172616D32C6
:1046F000203D2000706172616D31203D20007061AD
:1047000072616D33203D2000706172616D32203D19
:104710002000706172616D31203D20007061726116
:104720006D32203D2000706172616D31203D2000AE
:10473000706172616D31203D2000416C6C207468A5
:104740006520646174612076616C756573203D201D
:1047500000496E7465676572204E756D50617261B7
:104760006D6574657273203D2000416C6C20506152
:1047700072616D732050617373656420004D6573C1
:104780007361676554797065203D20002A2A2A2AC2
:104790002A2A2A2A2A2A2A2A2A2A2A2A2A003A2499
:1047A000003A24003030303030303030303000309B
:1047B000303030303030303030005E626F776C5FD8
:1047C000706C616365643A357C005E626F776C5F24
:1047D000706C616365643A357C00436F6C6F722066
:1047E00073656E736F7273206E6F7420696E73746D
:1047F000616C6C65642C2064656661756C74696EAF
:104800006720746F20524742282D312C2D312C2DDA
:104810003129005E626F776C5F72656D6F766564DB
:104820003A307C3A24005E626F776C5F72656D6F20
:104830007665643A307C3A24003A24005E63616E07
:1048400069737465725F696E7374616C6C65643AE8
:10485000327C003A24005E63616E69737465725F36
:10486000696E7374616C6C65643A327C003A240042
:104870005E63616E69737465725F72656D6F766594
:10488000643A317C003A24005E63616E697374653A
:10489000725F72656D6F7665643A317C003A240907
:1048A000003A00095E646973705F70726F677265C9
:1048B00073733A327C003A24003A005E6469737084
:1048C0005F70726F67726573733A327C0052616E0B
:1048D00067652072656164696E67206F76657266D0
:1048E0006C6F770052616E67652072656164696EF6
:1048F0006720756E646572666C6F77005261772011
:1049000072656164696E67206F766572666C6F7739
:10491000005261772072656164696E6720756E640C
:104920006572666C6F77005369676E616C2F4E6FAE
:10493000697365206572726F720049676E6F726984
:104940006E672072616E6765004E6F20636F6E76D2
:10495000657267656E636500454345206661696CF5
:104960007572650053797374656D206572726F722C
:10497000004162736F6C7574655765696768742070
:104980006973203C2035302C207468726F77696E13
:104990006720626F776C5F72656D6F766564206506
:1049A00076656E742E20204E6F20676F6F642064D2
:1049B000697374616E63652073656E736F722072C4
:1049C000656164696E6720617661696C61626C65BE
:1049D0002C20636865636B20666F72206572726F4E
:1049E000722062656C6F772E20204162736F6C7548
:1049F0007465576569676874203D20002C2041620A
:104A0000736F6C757465576569676874203D200025
:104A1000206F72204162736F6C75746557656967AA
:104A20006874203C2035302C20736F207468726FBE
:104A300077696E6720626F776C5F72656D6F766500
:104A400064206576656E742E2052616E6765203D28
:104A5000200052616E6765203E20003A240030300D
:104A60003030303030303030005246494452656189
:104A7000644661696C436F756E743D31302E20570A
:104A80006F756C642068617665207468726F776EEC
:104A9000207468697320626F776C5F706C61636506
:104AA00064206576656E7420657863657074205245
:104AB000464944204F7665727269646520697320A7
:104AC0006E6F74206F6E2C20736F206469646E2784
:104AD000743A205E626F776C5F706C616365643AF4
:104AE000357C003A240030303030303030303030D7
:104AF00000436865636B20524649442074616773C4
:104B00002E20576F756C642068617665207468721A
:104B10006F776E207468697320626F776C5F706C5A
:104B200061636564206576656E7420657863657081
:104B3000742052464944204F76657272696465203C
:104B40006973206E6F74206F6E2C20736F20646900
:104B5000646E27743A205E626F776C5F706C61637D
:104B600065643A357C002C20426F776C506C616331
:104B7000656453616D706C6573416674657252460D
:104B80004944203D20002C204162736F6C75746590
:104B9000576569676874203D200052616E67652023
:104BA0003D20002C20426F776C506C61636564532C
:104BB000616D706C65734265666F726552464944FB
:104BC000203D20002C204162736F6C757465576521
:104BD00069676874203D200052616E6765203D2042
:104BE000005E6361726F7573656C5F6A616D3A3008
:104BF0007C3A24005E6361726F7573656C5F6A61F5
:104C00006D3A307C3A24003A24005E706F73697408
:104C1000696F6E5F63616E69737465725F726573ED
:104C2000703A327C6661696C7572653A003A2400AC
:104C30005E706F736974696F6E5F63616E697374C0
:104C400065725F726573703A327C6661696C757209
:104C5000653A003A24005E706F736974696F6E5F25
:104C600063616E69737465725F726573703A327CEA
:104C7000737563636573733A003A24005E706F73F3
:104C80006974696F6E5F63616E69737465725F7278
:104C90006573703A327C737563636573733A007041
:104CA0006F736974696F6E5F63616E697374657247
:104CB0000056616C7565207061737365643D0049D1
:104CC0006E20706F736974696F6E2063616E6973B3
:104CD0007465722066756E6374696F6E21005E6420
:104CE0006F6F725F6C6F636B5F726573703A317C6C
:104CF000737563636573733A24005E646F6F725FEC
:104D00006C6F636B5F726573703A317C737563634C
:104D10006573733A2400646F6F725F6C6F636B002E
:104D20004166746572204C6F636B696E672C20520C
:104D3000656C6F6164446F6F72556E6C6F636B531B
:104D4000656E736550696E3A20004265666F7265E4
:104D5000204C6F636B696E672C2052656C6F6164C9
:104D6000446F6F72556E6C6F636B53656E736550F5
:104D7000696E3A2000496E20646F6F725F6C6F63DA
:104D80006B2066756E6374696F6E210050726F647C
:104D90007563744944206973206120726567756C7E
:104DA00061722064697370656E73652073706565E8
:104DB000642070726F647563742C20736F20646F4D
:104DC000206E6F726D616C2064697370656E7365BF
:104DD0002E0050726F6475637449442069732061BA
:104DE00020666173742064697370656E73652073E7
:104DF000706565642070726F647563742C20736FC6
:104E000020676F2066617374657220616E64206430
:104E10006F6E277420736C6F7720646F776E2061DC
:104E20007420656E642E00303032390030303238F4
:104E3000003030323700303032360030303234001B
:104E4000474F4C4457454C4C2D415348003030356A
:104E50003800474F4C4457454C4C2D3131470030BA
:104E600030353700474F4C4457454C4C2D38434163
:104E7000003030353600474F4C4457454C4C2D35AB
:104E800052003030353500474F4C4457454C4C2D7F
:104E9000354B003030353400474F4C4457454C4C6F
:104EA0002D5252003030353300474F4C4457454C5B
:104EB0004C2D5656003030353200474F4C44574544
:104EC0004C4C2D4747003030353100474F4C44574C
:104ED000454C4C2D4B4B003030353000474F4C4447
:104EE00057454C4C2D50003030343900474F4C441E
:104EF00057454C4C2D41003030343800474F4C441E
:104F000057454C4C2D3842003030343700474F4C19
:104F10004457454C4C2D3442003030343600474F16
:104F20004C4457454C4C2D354D4200303034350003
:104F3000474F4C4457454C4C2D31314100303034B3
:104F40003400474F4C4457454C4C2D3130410030D4
:104F500030343300474F4C4457454C4C2D394100B9
:104F60003030343200474F4C4457454C4C2D35417E
:104F7000003030343100474F4C4457454C4C2D32B3
:104F800041003030343000474F4C4457454C4C2D95
:104F90003847003030333900474F4C4457454C4C6C
:104FA0002D3747003030333800474F4C4457454C7D
:104FB0004C2D3447003030333700474F4C44574571
:104FC0004C4C2D31304E003030333600474F4C447E
:104FD00057454C4C2D384E003030333500474F4C40
:104FE0004457454C4C2D364E003030333400474F3B
:104FF0004C4457454C4C2D344E0030303333004731
:105000004F4C4457454C4C2D324E0030303332001B
:10501000434C4943532D56322D314E0030303330FE
:1050200000434C4943532D56322D4C490030303209
:105030003900434C4943532D56322D44343000300F
:1050400030323800434C4943532D56322D443230D0
:10505000003030323700434C4943532D56322D44F3
:1050600030003030323600434C4943532D56322DF8
:105070005048003030323500434C4943532D5632AE
:105080002D434C003030323400434C4943532D56AD
:10509000322D434F42003030323300434C494353AA
:1050A0002D56322D4C54594F003030323200434C83
:1050B0004943532D56322D4F590030303231004381
:1050C0004C4943532D56322D4C544F520030303200
:1050D0003000434C4943532D56322D524F0030304F
:1050E000313900434C4943532D56322D565200302E
:1050F00030313800434C4943532D56322D4C5456D1
:1051000042003030313700434C4943532D56322D45
:105110004256003030313600434C4943532D56320D
:105120002D4247003030313500434C4943532D5612
:10513000322D4C544242003030313400434C49430C
:10514000532D56322D59003030313300434C4943F2
:10515000532D56322D4F003030313200434C4943ED
:10516000532D56322D42003030313100434C4943EB
:10517000532D56322D52003030313000434C4943CC
:10518000532D56322D47003030303900434C4943BF
:10519000532D56322D56003030303800434C4943A1
:1051A000532D56322D31324E003030303700434CC3
:1051B0004943532D56322D31304E003030303600B9
:1051C000434C4943532D56322D384E003030303544
:1051D00000434C4943532D56322D364E003030306B
:1051E0003400434C4943532D56322D344E00303059
:1051F000303300434C4943532D56322D324E00304C
:1052000030303200434C4943532D56322D30304E0E
:105210000030303031002C2050726F647563744E52
:10522000616D6520697320002C2050726F64756376
:10523000744944206973200063616E6973746572F8
:10524000436F646520697320005468697320697333
:10525000204C69676874656E65722C20736F2064DA
:105260006F6E277420676F206173206661737420EE
:105270006F746865727769736520636F756C6420FD
:10528000686176652070696E6368206F6666206964
:10529000737375652E003030323900526573746F48
:1052A0007265642F536176656420496E6974696123
:1052B0006C4163747561746F72506F736974696F58
:1052C0006E446174613A00496E2D6D656D6F72793F
:1052D00020496E697469616C4163747561746F72A1
:1052E000506F736974696F6E446174613A002C2069
:1052F000736F2077726974696E6720746F204545FB
:1053000050524F4D206576656E2074686F756768E2
:10531000206F7574206F662072616E67652C207334
:105320006F206E6578742074696D65206D617920D9
:10533000776F726B206265747465722E00203C205A
:1053400050726576696F7573496E697469616C41F5
:1053500063747561746F72506F736974696F6E20D6
:105360006F6620004E657720496E697469616C41F3
:1053700063747561746F72506F736974696F6E5B7B
:105380005D206F6620003A24003A003A003A005E41
:1053900064697370656E73655F7765696768745F6C
:1053A000726573703A357C72616E67653A003A24B3
:1053B000003A003A003A005E64697370656E736586
:1053C0005F7765696768745F726573703A357C7280
:1053D000616E67653A003A24003A003A003A005E8E
:1053E00064697370656E73655F7765696768745F1C
:1053F000726573703A357C737563636573733A00D5
:105400003A24003A003A003A005E64697370656EAF
:1054100073655F7765696768745F726573703A3545
:105420007C737563636573733A003A24003A003AFB
:10543000003A005E64697370656E73655F776569D5
:105440006768745F726573703A357C63616E63651B
:105450006C3A003A24003A003A003A005E646973FC
:1054600070656E73655F7765696768745F72657391
:10547000703A357C63616E63656C3A002C20736F03
:105480002077726974696E6720746F2045455052A9
:105490004F4D206576656E2074686F75676820745F
:1054A00068697320697320612074616D7065722C66
:1054B00020736F206E6578742074696D65206D614E
:1054C0007920776F726B206265747465722E00208C
:1054D0003C2050726576696F7573496E69746961B5
:1054E0006C4163747561746F72506F736974696F26
:1054F0006E206F6620004E657720496E6974696181
:105500006C4163747561746F72506F736974696F05
:105510006E5B5D206F6620003A24003A003A003A44
:10552000005E64697370656E73655F77656967684F
:10553000745F726573703A357C74616D7065723A30
:10554000003A24003A003A003A005E6469737065DC
:105550006E73655F7765696768745F726573703ACB
:10556000357C74616D7065723A0064697370656E44
:1055700073655F616C6C0064697370656E73655F01
:10558000776569676874002C2053686F756C645286
:1055900065747279476F46617374426563617573B0
:1055A00065466972737444697370656E7365546996
:1055B0006D65644F7574203D200044697370656E9D
:1055C0007365206661696C7572652C206E65656413
:1055D00020746F2072657472792C20476F696E6732
:1055E00020746F2064697370656E7365206D6F72CF
:1055F00065206F6E20612072657472792C2074684A
:105600006973206D756368206D6F7265203D2000A1
:1056100052657472792053756D20416D6F756E748B
:105620005F44697370656E736564203D200054416A
:105630004D504552204445544543544544206166ED
:105640007465722066696E69736865642064697345
:1056500070656E73696E672C2072657475726E6901
:105660006E672074616D70657220726573756C74FD
:10567000207769746820616D6F756E74206469733A
:1056800070656E73656420617320547261696C6922
:105690006E67576569676874203D2000416D6F75BE
:1056A0006E745F44697370656E73656420697320FE
:1056B0006E656761746976652C206D6F7265207404
:1056C00068616E202D31672C207468657265206DCD
:1056D0007573742068617665206265656E20736FEE
:1056E0006D652074797065206F662074616D7065DA
:1056F000722E204E6F7420676F696E6720746F2062
:1057000072657472792E00416D6F756E745F4469B5
:105710007370656E736564203D20002C20626563A4
:10572000617573652054726C5634207374696C6CA7
:1057300020756E64657220302E3033203D20004C81
:105740006F6F702054696D6564204F7574206174AB
:10575000204C6F6F7054696D656F7574203D20002B
:105760002C204C6F6F70436F756E7465725768654F
:105770006E526561636865644D61784163747561FB
:1057800074696F6E203D200053657474696E6720E4
:105790004C6F6F7054696D656F7574203D200020EB
:1057A0006772616D732C20736F20726576657273FA
:1057B0006520746865206163747561746F7221007F
:1057C00041626F757420746F2063726F7373200071
:1057D000526563656976656420612043616E636527
:1057E0006C20636F6D6D616E642066726F6D206DED
:1057F000616368696E652055492E0054414D5045DE
:10580000522044455445435445442C2073746F70D2
:1058100070696E6720616374756174696F6E206171
:105820006E642072657475726E696E672074616D46
:1058300070657220726573756C742E0054616D70A2
:1058400065722064657465637465642C207765698E
:10585000676874206D6F7265206E65676174697624
:1058600065207468616E202D312C20736F6D656228
:105870006F6479206D757374206861766520726538
:105880006D6F766564207765696768742066726FEE
:105890006D207363616C652C2072657475726E691E
:1058A0006E672074616D7065722E0020746F2030F9
:1058B0002E31302073696E6365203E313030206CAC
:1058C0006F6F7073206C656674000952616973694B
:1058D0006E672074617267657420737065656420FB
:1058E00066726F6D200020746F20302E303520736B
:1058F000696E6365203C3330206C6F6F7073206C71
:1059000065667400094C6F776572696E6720746113
:10591000726765742073706565642066726F6D20B0
:1059200000094C4C09002C204D617841637475616D
:1059300074696F6E203D20002C204D6178416374A6
:10594000756174696F6E284C6929203D20000953E8
:105950004554504F494E542043616C633D000954F7
:10596000726C563409000954726C5609000954725D
:105970006C570900094C6F61642063656C6C20737F
:10598000616D706C696E67206661696C7572652CFB
:1059900020676F74203E3230306720666F7220615E
:1059A000766572616765206F66203130782073619B
:1059B0006D706C65732C2064697363617264696EC9
:1059C0006720616E642074616B696E67206E657715
:1059D0002073616D706C6520686572653A090053CB
:1059E000616D700900095475726E41726F756E6455
:1059F000000A4C69676874656E657220666C6F7723
:105A000020637574206F6666205374616C6C696ED8
:105A100067206465746563746564202D20747279F1
:105A2000696E67204C69676874656E657220616392
:105A300074756174696F6E207265747279202300C9
:105A40005374616C6C696E6720646574656374651A
:105A500064202D207265636F7665727920646964B5
:105A60006E277420776F726B2C20736F2073746FA6
:105A70007070696E67207468652064697370656E04
:105A8000736520736F20776520646F6E27742064C0
:105A9000616D61676520746865206D6F746F722039
:105AA000616E64206472697665722E0009547572A5
:105AB0006E41726F756E64000A5374616C6C696E2E
:105AC00067206465746563746564202D2074727941
:105AD000696E6720746865206261636B2D6F66660E
