:100000000C9402310C94476E0C941C6E0C94F16DA0
:100010000C94C66D0C949B6D0C94706D0C94456D96
:100020000C941A6D0C9428460C94AB6C0C94356CA3
:100030000C9433310C9433310C9433310C943331B0
:100040000C9433310C9433310C9433310C943331A0
:100050000C9433310C9483700C9433310C944543DD
:100060000C9433310C9423A80C94F9A70C943331DD
:100070000C9433310C9433310C9433310C94333170
:100080000C9433310C9433310C9433310C94333160
:100090000C94CFA70C94A5A70C9433310C94044571
:1000A0000C9433310C9433310C9433310C94333140
:1000B0000C9433310C9433310C9433310C94333130
:1000C0000C9433310C9433310C9433310C947BA762
:1000D0000C9451A70C9433310C9427A70C94FDA6D3
:1000E0000C94333108000000BE922449123EABAAA2
:1000F000AA2ABECDCCCC4C3E00000080BEABAAAA42
:10010000AA3E00000000BF000000803F0000000089
:1001100000084178D3BB4387D1133D190E3CC3BDC2
:100120004282AD2B3E68EC8276BED98FE1A93E4C6F
:1001300080EFFFBE01C4FF7F3F00000000004E4182
:100140004E494E495459494E46CDCCCC3D0AD72351
:100150003C17B7D13877CC2B329595E6241FB14F99
:100160000A000020410000C84200401C4620BCBEDE
:100170004CCA1B0E5AAEC59D7448617352656C6FB4
:100180006164446F6F724C6F636B203D2000497354
:10019000426C61636B426F776C41726561203D20F8
:1001A000002C20436F756E74203D200041766572EF
:1001B000616765206F66206E6F6E2D7A65726F20A5
:1001C000496E697469616C4163747561746F7250D2
:1001D0006F736974696F6E73203D20005D203D2050
:1001E0000053657269616C4E756D626572735B0078
:1001F0005D203D200053657269616C4E756D6265CE
:10020000724861734265656E44697370656E7365AB
:10021000645B005D203D2000496E697469616C413A
:1002200063747561746F72506F736974696F6E7304
:100230005B00496E697469616C4163747561746FC8
:1002400072506F736974696F6E203D200053636153
:100250006C655F43616C6962726174696F6E5F5750
:100260006569676874203D20005363616C655F4376
:10027000616C6962726174696F6E5F3230306720E1
:100280003D20005363616C655F43616C696272611C
:1002900074696F6E5F5A65726F203D200053636111
:1002A0006C655F43616C6962726174696F6E203D59
:1002B000200046575F4255494C44203D2000465798
:1002C0005F4D494E4F52203D200046575F4D414AF9
:1002D0004F52203D200044697370656E7365725FF4
:1002E00053657269616C203D200045455050524F66
:1002F0004D5F56455253494F4E203D20004765748F
:10030000414D54323033456E636F646572506F7384
:100310006974696F6E20414D543230336375727267
:10032000656E74506F736974696F6E3A2000526124
:100330007720414D5432303363757272656E74505C
:100340006F736974696F6E3A20005265736574202B
:1003500041726475696E6F20746F20726573746189
:1003600072742070726F6772616D2E004572726FC9
:1003700072206F627461696E696E6720706F736955
:1003800074696F6E2E00446F6E65207A65726F69B6
:100390006E6720656E636F6465722C2043757272A0
:1003A000656E7420706F736974696F6E3A200052C5
:1003B000657365742041726475696E6F20746F2077
:1003C000726573746172742070726F6772616D2EE2
:1003D000004572726F72206F627461696E696E6738
:1003E00020706F736974696F6E2E00342E2E2E008C
:1003F000332E2E2E00322E2E2E00312E2E2E004782
:100400006F696E6720746F207A65726F20746865FB
:1004100020414D5432303320656E636F6465722025
:100420006E6F772E2E2E206D6179206E65656420AB
:10043000746F20706F776572206379636C652061DB
:100440006674657220746869732E00436F727265FA
:100450006374656420414D5432323220456E636FBF
:100460006465723A2000414D5432323220456E6349
:100470006F6465723A2000414D5432323220726509
:100480006164206572726F722E20417474656D70A4
:1004900074733A2000446F6E65207A65726F696EDE
:1004A0006720656E636F6465722C20437572726598
:1004B0006E7420706F736974696F6E3A2000476FB5
:1004C000696E6720746F207A65726F20746865208A
:1004D000414D5432323220656E636F646572206E16
:1004E0006F772E2E2E00456E64696E67204163740F
:1004F0007561746F7220506F736974696F6E203DFF
:1005000020005374617274696E6720416374756171
:10051000746F7220506F736974696F6E203D200094
:10052000486F6D654163747561746F722077617394
:10053000207375636365737366756C212020426F49
:100540007468206163747561746F727320656E6482
:1005500065642075702E002C204163747561746F82
:10056000724F7574657255704F70746F203D200026
:10057000486F6D654163747561746F722077617344
:10058000204E4F54207375636365737366756C2CCE
:100590002062656361757365206163747561746F52
:1005A000727320617265206E6F7420626F746820B0
:1005B00075702E20204163747561746F72496E6E80
:1005C000657255704F70746F203D20004261642049
:1005D0006F7269656E746174696F6E2C20726563E9
:1005E0006F6D6D656E6420666C69702061637475F3
:1005F00061746F722031383020646567726565738D
:1006000020736F2074686174206D617820746F723C
:10061000717565206973206F6E206F757465722027
:10062000736C6F74732073696E6365207468657989
:100630002772652075736564206D6F7265206F6623
:1006400074656E2E00476F6F64206F7269656E74FB
:100650006174696F6E2C206D617820746F72717592
:1006600065206F6E206F7574657220736C6F747384
:100670002073696E636520746865792772652075DB
:10068000736564206D6F7265206F6674656E2E00F1
:100690002C204163747561746F7244697265637470
:1006A000696F6E496E6E6572446F776E4F757465D3
:1006B000725570203D2000456E64206F6620486FA3
:1006C0006D696E67204163747561746F722C20458B
:1006D0006E636F646572203D200046696E616C2018
:1006E0004163747561746F7220706F736974696FA0
:1006F0006E20616674657220686F6D6520746F206E
:10070000302069732000436F6E6669726D696E6791
:10071000206E657720706F736974696F6E206973DE
:1007200020002C20736F206E657720706F736974C2
:10073000696F6E20697320002C20736F2074616BC9
:10074000652074686520646966666572656E6365B8
:1007500020696E207A65726F20706F696E747320E5
:10076000616E642061646A757374206974206279B3
:10077000200043757272656E746C7920617420007C
:100780002C20736F20736574207A65726F20706FF0
:10079000696E74206265747765656E207468652083
:1007A00074776F2C206174200020746F20004163E7
:1007B000747561746F7220456E636F646572207228
:1007C000616E676520697320004163747561746FA1
:1007D0007220456E636F6465722052616E6765209A
:1007E0003C2032207768656E2073686F756C6420DA
:1007F0006265207E3230302D3330302E20436865E4
:10080000636B204163747561746F7220456E636F12
:100810006465722057697265732028342070696E90
:1008200020636F6E6E6563746F72292E2020496697
:10083000206163747561746F727320646964206EE3
:100840006F74206D6F76652C20636865636B206123
:1008500063747561746F72206D6F746F7220776945
:100860007265732028322070696E20636F6E6E652A
:1008700063746F72292E00426F746820616374750F
:1008800061746F72206F70746F7320726561642081
:10089000646F776E202D20746869732069732061FE
:1008A0006E206572726F7220636173652E2020471F
:1008B0006F696E6720746F2073746F7020616E644F
:1008C0002072657475726E206661696C7572652040
:1008D0006F6E20486F6D654163747561746F72212E
:1008E000005374616C6C6564206D6F726520746870
:1008F000616E2035302074696D65732C20657869D0
:1009000074696E672074686973206C6F6F702E0055
:100910005374616C6C656421204E65656420746F4E
:1009200020676F20696E206F746865722064697239
:10093000656374696F6E206E6F772C20616E642022
:1009400072657665727365206C6F6769632E004F00
:10095000757465722075702C20696E6E65722064E6
:100960006F776E202D20736F206D6F766520696E16
:100970006E657220757020666972737420746F20C2
:100980006D616B65206F7574657220676F20646F91
:10099000776E00095573696E6720726576657273AC
:1009A0006564206C6F6769632C2077616974656486
:1009B00020666F7220496E6E657220746F20676FBB
:1009C00020646F776E20686572652073696E636559
:1009D000206F757465722077656E7420646F776E12
:1009E00020696E2070726576696F7573206C6F6F09
:1009F000702E005374616C6C6564206D6F7265209D
:100A00007468616E2035302074696D65732C2065C3
:100A1000786974696E672074686973206C6F6F7091
:100A20002E005374616C6C656421204E65656420F2
:100A3000746F20676F20696E206F74686572206420
:100A40006972656374696F6E206E6F772C20616EBA
:100A5000642072657665727365206C6F6769632EBA
:100A600000094F757465722077656E7420646F7726
:100A70006E207768656E20657870656374696E674F
:100A800020696E6E65722E202052657665727369DC
:100A90006E67206C6F6769632E0009496E6E657220
:100AA00020646F776E2C2073746F7070696E67208E
:100AB0006669727374206C6F6F7000416374756146
:100AC000746F724F7574657255704F70746F2069D2
:100AD0007320646F776E20616C72656164792E207B
:100AE000204D6F76696E6720697420757020616E85
:100AF0006420496E6E657220646F776E2E00426FBF
:100B00007468206172652075702C20636F756C6449
:100B100020676F2065697468657220646972656317
:100B200074696F6E2E202043686F6F73696E672043
:100B3000496E6E657220446F776E2E002C204163E3
:100B4000747561746F72446972656374696F6E491C
:100B50006E6E6572446F776E4F7574657255702056
:100B60003D20005374617274206F6620486F6D6978
:100B70006E67204163747561746F722C20456E63DB
:100B80006F646572203D2000486F6D65486F6C652D
:100B900050756E6368207761732073756363657346
:100BA0007366756C212020426F746820686F6C65D5
:100BB0002070756E6368206F70746F73207265614A
:100BC0006420736166652E002C204469644F75743F
:100BD00065724F70746F546F67676C6550726F7099
:100BE00065726C79203D20002C20446964496E6E4A
:100BF00065724F70746F546F67676C6550726F7079
:100C000065726C79203D20002C20486F6C65507512
:100C10006E63684F75746572536166654F70746F6B
:100C2000203D2000486F6D65486F6C6550756E63A0
:100C30006820776173204E4F54207375636365732A
:100C40007366756C2C206265636175736520686FCF
:100C50006C652070756E6368206F70746F732061AF
:100C60007265206E6F7420626F74682073616665B0
:100C70002C206F7220696E6E6572206F72206F7506
:100C8000746572206F70746F20646964206E6F7475
:100C900020746F67676C6520647572696E67206881
:100CA0006F6D696E672E0A486F6C6550756E63686C
:100CB000496E6E6572536166654F70746F203D209A
:100CC0000046696E616C20486F6C652050756E63DC
:100CD0006820706F736974696F6E206166746572E5
:100CE00020686F6D6520746F203020697320004389
:100CF0006F6E6669726D696E67206E657720706FC2
:100D0000736974696F6E20697320002C20736F20E3
:100D10006E657720706F736974696F6E20697320D8
:100D2000002C20736F2074616B65207468652064EB
:100D30006966666572656E636520696E207A6572A4
:100D40006F20706F696E747320616E642061646AD5
:100D5000757374206974206279200043757272651E
:100D60006E746C7920617420002C20736F20736581
:100D700074207A65726F20706F696E74206265747A
:100D80007765656E207468652074776F2C206174B8
:100D9000200020746F2000486F6C652050756E63D2
:100DA0006820456E636F6465722072616E676520AE
:100DB00069732000486F6C652050756E636820452C
:100DC0006E636F6465722052616E6765203C2032ED
:100DD000207768656E2073686F756C64206265208B
:100DE0007E3230302D3330302E20436865636B20E7
:100DF0004163747561746F7220456E636F646572D0
:100E00002057697265732028342070696E20636FE3
:100E10006E6E6563746F72292E20204966206163AF
:100E2000747561746F727320646964206E6F7420CE
:100E30006D6F76652C20636865636B2061637475E4
:100E400061746F72206D6F746F7220776972657351
:100E50002028322070696E20636F6E6E6563746F38
:100E600072292E00426F746820686F6C652070755F
:100E70006E6368206F70746F7320726561642064A4
:100E80006F776E202D207468697320697320616EFE
:100E9000206572726F7220636173652E2020476F28
:100EA000696E6720746F2073746F7020616E6420A8
:100EB00072657475726E206661696C757265206FFB
:100EC0006E20486F6D65486F6C6550756E63682164
:100ED00000574520474F5420544F20454E44204F43
:100EE0004620484F4D4520484F4C452050554E43D5
:100EF00048204C4F4F5020574954484F5554204993
:100F00004E4E4552204F50544F20544F47474C4966
:100F10004E47212020436865636B20496E6E6572E1
:100F200020486F6C6550756E6368204F70746F2039
:100F3000666F722066756E6374696F6E616C69743A
:100F4000792E00574520474F5420544F20454E449A
:100F5000204F4620484F4D4520484F4C4520505586
:100F60004E4348204C4F4F5020574954484F5554FA
:100F7000204F55544552204F50544F20544F47470F
:100F80004C494E47212020436865636B204F7574A0
:100F9000657220486F6C6550756E6368204F707481
:100FA0006F20666F722066756E6374696F6E616C18
:100FB0006974792E004F7574657220736166652CB3
:100FC00020736F2073746172742070756E6368692A
:100FD0006E6720696E776172642077697468206F2C
:100FE000757465722E00574520474F5420544F208A
:100FF000454E44204F4620484F4D4520484F4C45D4
:101000002050554E4348204C4F4F5020574954488C
:101010004F5554204F55544552204F50544F205453
:101020004F47474C494E47212020436865636B205A
:101030004F7574657220486F6C6550756E636820DB
:101040004F70746F20666F722066756E6374696F7F
:101050006E616C6974792E00574520474F542054B7
:101060004F20454E44204F4620484F4D4520484F85
:101070004C452050554E4348204C4F4F5020574927
:1010800054484F555420494E4E4552204F50544FCE
:1010900020544F47474C494E472120204368656301
:1010A0006B20496E6E657220486F6C6550756E637B
:1010B00068204F70746F20666F722066756E63745F
:1010C000696F6E616C6974792E00496E6E6572206D
:1010D000736166652C20736F20676F20696E77617E
:1010E0007264207769746820696E6E657200486F5B
:1010F0006D696E6720486F6C652050756E63682C53
:1011000020456E636F646572203D200046696E6104
:101110006C20524742204F75743A09005269676843
:1011200074436F6C6F7250756C7365496E3A090049
:101130004C656674436F6C6F7250756C7365496E65
:101140003A09004661696C656420746F20676574B4
:101150002033782064697374616E63652072656101
:1011600064696E677320696E2052656164436F6CB9
:101170006F7253656E736F72732C20617373756D2C
:10118000696E672063656E74657265642E0009413F
:10119000766752616E67653A09000952616E67654C
:1011A000333A09000952616E6765323A09005261AB
:1011B0006E6765313A0900446F2066756C6C205784
:1011C000484954452072656164696E6700446F2028
:1011D000616D6269656E74206C6967687420726500
:1011E0006164696E672077697468204E656F506925
:1011F00078656C73204F464600436F6C6F722073A6
:10120000656E736F7273206E6F7420696E73746194
:101210006C6C65642C2064656661756C74696E67BE
:1012200020746F20524742282D312C2D312C2D3126
:1012300029000A4C6F61642043656C6C2053616D1A
:10124000706C696E672069737375652C20526561D7
:1012500064696E6773206E6F742077697468696E55
:101260002037352E30206772616D7320696E203013
:101270002E31207365632E2053616D706C65732071
:1012800028313078204144432076616C75657320A5
:1012900066697273742C207468656E203130782012
:1012A000696E206772616D73293A09000A4C6F619B
:1012B000642043656C6C2053616D706C696E6720AF
:1012C0006661696C7572652C2052656164696E6730
:1012D00073206E6F742077697468696E2037352EBD
:1012E00030206772616D7320696E20302E3120735B
:1012F00065632E2053616D706C65732028313078E2
:10130000204144432076616C756573206669727371
:10131000742C207468656E2031307820696E2067E7
:1013200072616D73293A0900094E65772053616D2A
:10133000706C65733A09000A54776F20426164202B
:1013400053616D706C65732C20676F696E672074D4
:101350006F207265706C61636520776974682032F4
:10136000206E65772073616D706C65733A09000AB1
:1013700054776F204261642053616D706C657320F7
:101380006661696C7572652C20676F696E67207481
:101390006F207265706C61636520776974682032B4
:1013A000206E65772073616D706C65733A09000972
:1013B000616C69676E6D656E740900094765744FED
:1013C0007574657252656C6F6164536C6F7409005B
:1013D000436865636B696E67204F7574657252650B
:1013E0006C6F61644973416C69676E656428293A62
:1013F000204765744F7574657252656C6F616453F4
:101400006C6F744173466C6F6174090009616C699B
:10141000676E6D656E74090009476574496E6E6587
:101420007252656C6F6164536C6F74090043686538
:10143000636B696E6720496E6E657252656C6F6191
:10144000644973416C69676E656428293A20476571
:1014500074496E6E657252656C6F6164536C6F7423
:101460004173466C6F6174090009496E6E65725371
:101470006C6F745F48696768203D2009004F757480
:101480006572536C6F745F48696768203D2009007E
:1014900009496E6E6572536C6F745F4C6F77203DB7
:1014A0002009004F75746572536C6F745F4C6F77D1
:1014B000203D20090009496E6E6572536C6F7420DF
:1014C0003D2009004F75746572536C6F74203D2088
:1014D000090009446F6F724F70656E6564456E63F5
:1014E0006F64657253746570706572506F735F4C92
:1014F0006F77203D20090009446F6F724F70656E51
:101500006564456E636F646572537465707065726F
:10151000506F735F48696768203D200900446F6F12
:10152000724F70656E6564456E636F646572537467
:101530006570706572506F73203D2009000941632A
:10154000747561746F724F7574657255704F7074F5
:101550006F203D200900094163747561746F724901
:101560006E6E657255704F70746F203D20090009D2
:101570004361726F7573656C486F6D65203D20091E
:1015800000094163747561746F72506F73203D2060
:10159000090009414D54323232506F736974696FDA
:1015A0006E090009414D54323033506F73697469CC
:1015B0006F6E0900094361726F7573656C447269DF
:1015C000766572506F736974696F6E09004361725A
:1015D0006F7573656C456E636F646572506F736988
:1015E00074696F6E0900484F4D494E472044494485
:1015F000204E4F5420574F524B2050524F5045527F
:101600004C59212020574520415245204E4F54200F
:1016100041542054484520484F4D454341524F5571
:1016200053454C204F50544F204255542053484F5F
:10163000554C4420424521204F72207765206E652D
:10164000766572206D6F766564206F6666206F66C2
:101650002069742070726F7065726C792E00486F0B
:101660006D654361726F7573656C20736571756527
:101670006E6365207375636365737366756C2E00A6
:10168000094163747561746F724F7574657255703A
:101690004F70746F203D20090009416374756174B7
:1016A0006F72496E6E657255704F70746F203D2079
:1016B0000900094361726F7573656C486F6D652031
:1016C0003D20090009616363656C53746570706542
:1016D000722E63757272656E74506F736974696F80
:1016E0006E2829203D200900537465707065725082
:1016F0006F7330203D20090053746570706572204F
:101700006D6F746F72206E6F7420706F7765726585
:1017100064206F72206E6F74206D6F76696E672023
:101720002D20636C6F73652072656C6F616420643B
:101730006F6F7220616E64207472792061676169D5
:101740006E2E0009486F6D654361726F7573656C2D
:10175000456E636F646572506F736974696F6E2054
:101760003D20090009486F6D654361726F757365AF
:101770006C53746570706572506F736974696F6EC5
:10178000203D200900096669727374486F6D6543D6
:1017900061726F7573656C456E636F646572506FCF
:1017A000736974696F6E203D2009006669727374F5
:1017B000486F6D654361726F7573656C53746570C6
:1017C000706572506F736974696F6E203D200900F7
:1017D0005374616C6C696E672064657465637465CD
:1017E000642C206469646E2774206D6F76652061B7
:1017F00074206C65617374203520656E636F646559
:101800007220636F756E747320696E20312073656A
:10181000632E00656E636F646572537465707065E6
:1018200072506F73206F7574206F662072616E67DF
:1018300065202D2073657474696E67206E6577204E
:10184000656E636F64657253746570706572506F16
:1018500073206F66200043757272656E74506F73EB
:101860006974696F6E206F7574206F662072616E87
:101870006765202D2073657474696E67206E6577C7
:101880002043757272656E7420506F736974696F4E
:101890006E206F662000656E636F646572537465B9
:1018A00070706572506F73206F7574206F66207250
:1018B000616E6765202D2073657474696E67206E94
:1018C000657720656E636F646572537465707065CB
:1018D00072506F73206F66200043757272656E746C
:1018E000506F736974696F6E206F7574206F662016
:1018F00072616E6765202D2073657474696E672050
:101900006E65772043757272656E7420506F7369CF
:1019100074696F6E206F662000546F6F206D616E6A
:101920007920476F546F506F736974696F6E2072BE
:10193000657472696573202D206572726F72696EAD
:1019400067206F75742077697468206D69736D61A5
:10195000746368206265747765656E20414D54310B
:10196000303220616E6420414D543230332F414D6E
:1019700054323232206F72206A7573742064696445
:101980006E27742067657420746F207461726765B8
:10199000742E20476F546F506F736974696F6E2097
:1019A0004661696C7572652E005265747279696E54
:1019B0006720746865206361726F7573656C206D54
:1019C0006F76656D656E742064756520746F206335
:1019D000656E74657220656E636F646572206D69F3
:1019E000736D61746368202D20736C697070696E0B
:1019F000672063656E74657220656E636F646572DF
:101A00002E204C696D6974206F6620333020616E22
:101A1000642061637475616C206F66200052657488
:101A20007279696E6720746865206361726F75737F
:101A3000656C206D6F76656D656E742064756520CC
:101A4000746F2073746570706572206D6F746F723F
:101A500020656E636F646572206D69736D61746378
:101A600068202D206C696B656C79207374616C6CD7
:101A70006564206D6F746F722C20746F6F206865C1
:101A80006176792C20746F6F206D756368206672A3
:101A9000696374696F6E2C206F7220626164206DBF
:101AA0006F746F72206D6F756E7420616C69676EF4
:101AB0006D656E742F737072696E672E204C696D40
:101AC0006974206F6620323020616E642061637417
:101AD00075616C206F662000414D543232322045D2
:101AE0006E636F64657220506F736974696F6E20E6
:101AF0004572726F72206F66200054617267657460
:101B000020414D5432323220456E636F646572203D
:101B1000506F736974696F6E206F66200043757231
:101B200072656E7420414D5432323220456E636FBF
:101B300064657220506F736974696F6E206F6620E0
:101B400000414D5432303320456E636F646572201E
:101B5000506F736974696F6E204572726F72206F77
:101B600066200054617267657420414D54323033F1
:101B700020456E636F64657220506F736974696F7E
:101B80006E206F66200043757272656E7420414D41
:101B90005432303320456E636F64657220506F732A
:101BA0006974696F6E206F6620005374657070658C
:101BB0007220456E636F64657220506F736974693B
:101BC0006F6E204572726F72206F662000437572CF
:101BD00072656E74205374657070657220456E6313
:101BE0006F64657220506F736974696F6E206F66E1
:101BF0002000537465707065722044726976657256
:101C000020506F736974696F6E204572726F722015
:101C10006F66200043757272656E74205374657030
:101C20007065722044726976657220506F736974B2
:101C3000696F6E206F6620004361726F7573656C0B
:101C4000206D6F76656D656E74206661696C656484
:101C5000202D2073746F7070696E672E2020456987
:101C600074686572206E6F206D6F76656D656E7439
:101C700020617420616C6C20283C35207374657081
:101C8000732073696E6365206C6173742035303026
:101C9000206D736563292C206F7220706F736974D7
:101CA000696F6E20646576696174696F6E20667213
:101CB0006F6D2077686572652073686F756C64203E
:101CC0006265207673207768657265206172652091
:101CD0006261736564206F6E20656E636F64657208
:101CE0002E0046696E616C2052657472792023342F
:101CF0002C206C6F776572696E6720616363656C19
:101D000065726174696F6E20616E642072616973BF
:101D1000696E67206D6F76652063757272656E748B
:101D20002E0052657472792023332C206C6F7765F6
:101D300072696E6720616363656C65726174696F57
:101D40006E20616E642072616973696E67206D6FC9
:101D500076652063757272656E742E0052657472BA
:101D6000792023322C206C6F776572696E67206151
:101D70006363656C65726174696F6E20616E642067
:101D800072616973696E67206D6F76652063757225
:101D900072656E742E0052657472792023312C2086
:101DA0006C6F776572696E6720616363656C6572DD
:101DB0006174696F6E20616E642072616973696E0F
:101DC00067206D6F76652063757272656E742E0084
:101DD0002E2044697374616E636546726F6D546141
:101DE00072676574203D2000292043616C6C656436
:101DF0002C2043757272656E7420506F736974691C
:101E00006F6E203D2000476F546F506F7369746987
:101E10006F6E456E636F64657228002E204469738F
:101E200074616E636546726F6D546172676574208C
:101E30003D2000292043616C6C65642C2043757241
:101E400072656E7420506F736974696F6E203D20E7
:101E500000476F546F506F736974696F6E28004448
:101E6000697374616E636546726F6D546172676504
:101E7000744D696E7573203D200900446973746167
:101E80006E636546726F6D546172676574506C75F0
:101E900073203D20090044697374616E6365467266
:101EA0006F6D546172676574203D2009004375723F
:101EB00072656E74506F736974696F6E203D20098E
:101EC00000546172676574506F736974696F6E2036
:101ED0003D200900547279696E6720746F20486F45
:101EE0006D654361726F7573656C2C2073696E63E9
:101EF00065206974206861736E277420737563634D
:101F000065737366756C6C7920686F6D6564207994
:101F100065742E00496E76616C696420736C6F7411
:101F2000206E756D6265722000496E76616C696421
:101F300020736C6F74206E756D6265722000496E3F
:101F400076616C696420736C6F74206E756D626568
:101F500072200052464944207261772064617461A6
:101F60003A2000524649442063617264206E756DC8
:101F70006265723A2000436865636B696E67205240
:101F80004649442053656E736F723A00206F662095
:101F9000000A0A4379636C6520005E646F6F725FAC
:101FA0006F70656E65643A307C3A24005E646F6FD2
:101FB000725F6F70656E65643A307C3A24005E64CF
:101FC0006F6F725F636C6F7365643A307C3A2400A4
:101FD0005E646F6F725F636C6F7365643A307C3AF6
:101FE000240052657363616E204C6566746F76657C
:101FF00072203D200052657363616E2057726170DC
:10200000203D200052657363616E204C6566746FDD
:10201000766572203D200052657363616E204E6FBD
:102020002057726170203D200052657363616E20FD
:102030004C6566746F766572203D2000526573634F
:10204000616E2057726170203D200052657363619C
:102050006E204C6566746F766572203D2000526577
:102060007363616E204E6F2057726170203D2000B7
:1020700052657363616E20416C6C203D20003A24F0
:10208000005E6F7665723A317C003A24005E6F76AE
:1020900065723A317C003A24005E6D6973733A319F
:1020A0007C003A24005E6D6973733A317C003A24F7
:1020B000005E7365745F7363616C655F6C65647308
:1020C0005F726573703A327C737563636573733ADC
:1020D000003A24005E7365745F7363616C655F6CC6
:1020E0006564735F726573703A327C7375636365A0
:1020F00073733A007365745F7363616C655F6C65DD
:102100006473006F66660066696E69736865640073
:10211000616C6572740064697370656E73696E6773
:10212000006469737000626F776C00616374697634
:10213000650069646C650056616C7565207061733B
:102140007365643D00496E207365745F7363616CF1
:10215000655F6C65647321003A24005E64656D6F91
:102160005F726573703A327C737563636573733A3B
:10217000003A24005E64656D6F5F726573703A3279
:102180007C737563636573733A0064656D6F0056A5
:10219000616C7565207061737365643D00496E20E4
:1021A00064656D6F2066756E6374696F6E21005E85
:1021B00070696E673A307C3A24005E70696E673AE7
:1021C000307C3A2400416C6C20646F6E6520646939
:1021D0007370656E736520414C4C2066756E637438
:1021E000696F6E21002A2A2A4641494C2A2A2A0070
:1021F0002A2A2A504153532A2A2A005461726765B9
:1022000074206F66207468697320617665726167F7
:1022100065206973203432352D3637352C20736FA5
:102220002074686973206973206120002C20436F3B
:10223000756E74203D200041766572616765206F80
:1022400066206E6F6E2D7A65726F20496E697469B3
:10225000616C4163747561746F72506F73697469F6
:102260006F6E735B312D35305D203D2000203D20A9
:1022700000536C6F742000656D7074790056616C4A
:102280007565207061737365643D00496E206469F3
:102290007370656E736520414C4C2066756E637477
:1022A000696F6E21005E646F6F725F756E6C6F6335
:1022B0006B5F726573703A317C73756363657373BA
:1022C0003A24005E646F6F725F756E6C6F636B5F54
:1022D000726573703A317C737563636573733A2406
:1022E00000646F6F725F756E6C6F636B0041667434
:1022F000657220556E6C6F636B696E672C2052653A
:102300006C6F6164446F6F72556E6C6F636B536575
:102310006E736550696E3A20004265666F72652083
:10232000556E6C6F636B696E672C2052656C6F61C4
:1023300064446F6F72556E6C6F636B53656E73653B
:1023400050696E3A2000496E20646F6F725F756E3F
:102350006C6F636B2066756E6374696F6E21006CC1
:102360006F636B656400756E6C6F636B6564003AD8
:102370002400636C6F7365643A006F70656E3A0099
:102380006C6F636B656400756E6C6F636B65640086
:102390005E646F6F725F7374617475735F7265737F
:1023A000703A327C003A2400636C6F7365643A00C3
:1023B0006F70656E3A005E646F6F725F7374617404
:1023C00075735F726573703A327C00646F6F725F11
:1023D0007374617475730052656C6F6164446F6FE0
:1023E00072556E6C6F636B53656E736550696E20CA
:1023F0003D200052656C6F6164446F6F724F706571
:102400006E203D200041313420414D49532D333061
:10241000353433205664642052656C6F6164446FB8
:102420006F72436C6F736564203D200072656D6F41
:1024300076656400696E736572746564003A2400A1
:1024400072656D6F76656400696E7365727465643C
:10245000005E77697065725F7374617475735F7223
:102460006573703A317C003A24005E77697065725A
:102470005F7374617475735F726573703A317C0059
:1024800077697065725F73746174757300576970F2
:102490006572496E736572746564203D20003A244C
:1024A000005E706F736974696F6E5F63616E6973EC
:1024B0007465725F7265706C6163655F726573707D
:1024C0003A327C6661696C7572653A003A24005E46
:1024D000706F736974696F6E5F63616E6973746541
:1024E000725F7265706C6163655F726573703A32BA
:1024F0007C6661696C7572653A003A24005E706FA3
:10250000736974696F6E5F63616E69737465725F1E
:102510007265706C6163655F726573703A327C736B
:102520007563636573733A003A24005E706F736974
:1025300074696F6E5F63616E69737465725F7265F3
:10254000706C6163655F726573703A327C7375633A
:10255000636573733A00706F736974696F6E5F635C
:10256000616E69737465725F7265706C616365003A
:1025700056616C7565207061737365643D00496ECA
:1025800020706F736974696F6E2063616E69737414
:102590006572207265706C6163652066756E637428
:1025A000696F6E2100496E207061757365206675D4
:1025B0006E6374696F6E21005E72657363616E5F36
:1025C000737461727465643A307C3A24005E72659B
:1025D0007363616E5F737461727465643A307C3AE0
:1025E00024005E72657363616E5F66696E6973680D
:1025F00065643A307C3A24005E72657363616E5F95
:1026000066696E69736865643A307C3A24005E726C
:10261000657363616E5F63616E6973746572735F26
:10262000726573703A317C6661696C7572653A24C3
:10263000005E72657363616E5F63616E697374657A
:1026400072735F726573703A317C6661696C757222
:10265000653A24005E72657363616E5F63616E69E3
:1026600073746572735F726573703A317C737563EE
:10267000636573733A24005E72657363616E5F63B2
:10268000616E6973746572735F726573703A317CE1
:10269000737563636573733A2400282152656C6F08
:1026A0006164446F6F724F70656E20262620486FFC
:1026B0006D654163747561746F725375636365739F
:1026C000734F6E5374617274757020262620486FA4
:1026D0006D65486F6C6550756E63685375636365AF
:1026E00073734F6E5374617274757029203D2000AE
:1026F000486F6D65486F6C6550756E6368537563A0
:10270000636573734F6E53746172747570203D20EE
:1027100000486F6D654163747561746F72537563C2
:10272000636573734F6E53746172747570203D20CE
:102730000052656C6F6164446F6F724F70656E20FC
:102740003D2000547279696E6720746F20486F6D68
:10275000654361726F7573656C2C2073696E636578
:10276000206974206861736E2774207375636365D4
:10277000737366756C6C7920686F6D65642079651C
:10278000742E00496E2072657363616E5F63616EC3
:102790006973746572732066756E6374696F6E21F8
:1027A00000626C61636B007768697465005E7265D6
:1027B0007365745F726573703A317C7375636365BA
:1027C00073733A24005E72657365745F726573702B
:1027D0003A317C737563636573733A2400496E20E4
:1027E00072657365742066756E6374696F6E21001F
:1027F0005E63616E63656C5F726573703A317C73A2
:102800007563636573733A24005E63616E63656C20
:102810005F726573703A317C737563636573733A85
:102820002400496E2063616E63656C2066756E637B
:1028300074696F6E2100496E20726573756D655FF6
:1028400066756E6374696F6E2066756E6374696F0A
:102850006E21003A24005E73797374656D5F63685E
:1028600065636B5F726573703A317C00496E2073EB
:10287000797374656D5F636865636B2066756E63FD
:1028800074696F6E21003A24005E7374617475730D
:102890005F726573703A317C003A24005E73746134
:1028A0007475735F726573703A317C0052656C6F3A
:1028B0006164446F6F72556E6C6F636B53656E73BA
:1028C0006550696E203D20005769706572496E73CE
:1028D0006572746564203D200009486F6C65507511
:1028E0006E63684F75746572536166654F70746F7F
:1028F000203D200009486F6C6550756E6368496E15
:102900006E6572536166654F70746F203D2000657F
:102910006E636F646572486F6C6550756E63684D69
:102920006F746F72506F73203D200009416374759E
:1029300061746F724F7574657255704F70746F204B
:102940003D2000094163747561746F72496E6E6554
:102950007255704F70746F203D2000416374756133
:10296000746F72456E636F646572203D2000413163
:102970003420414D49532D3330353433205664646F
:102980002052656C6F6164446F6F72436C6F736546
:1029900064203D200043757272656E74205765692E
:1029A0006768743A0900496E207374617475735FC7
:1029B00066756E6374696F6E2066756E6374696F99
:1029C0006E21005E626F776C5F7765696768745F20
:1029D000726573703A327C737563636573733A0022
:1029E0005E626F776C5F7765696768745F72657345
:1029F000703A327C737563636573733A005E626F1D
:102A0000776C5F7765696768745F726573703A3277
:102A10007C6661696C7572653A005E626F776C5FA7
:102A20007765696768745F726573703A327C666156
:102A3000696C7572653A002C2053616D706C65731A
:102A400020776572653A2000426F776C2077656960
:102A5000676874204E4F5420534554544C45442CC1
:102A600020736F2072657475726E204661696C7593
:102A70007265206275742072657475726E20416291
:102A8000736F6C75746557656967687420616E79DA
:102A90007761792C204162736F6C75746557656935
:102AA000676874203D20005E70756E63685F686FB4
:102AB0006C655F726573703A317C6661696C7572C2
:102AC000653A24005E70756E63685F686F6C655F61
:102AD000726573703A317C6661696C7572653A240F
:102AE000003A24005E70756E63685F686F6C655FA6
:102AF000726573703A327C737563636573733A24DD
:102B0000003A24005E70756E63685F686F6C655F85
:102B1000726573703A327C737563636573733A00E0
:102B200070756E63685F686F6C6500436C65617299
:102B3000696E6720616C6C20496E697469616C41D3
:102B400063747561746F72506F736974696F6E73BB
:102B50005B5D20616E642053657269616C4E756DBA
:102B60006265724861734265656E44697370656E33
:102B70007365645B5D2E00436865636B2063656EFF
:102B800074657220656E636F64657220666F722073
:102B90006C6F6F73656E6573732F736C697070699A
:102BA0006E67202D206569746865722074686520E1
:102BB00079656C6C6F7720696E73657274206861DB
:102BC0007320636F6D65206C6F6F73652066726F25
:102BD0006D207468652073686166742C2068617369
:102BE00020706F70706564206F7574206F6620634D
:102BF000656E74657220656E636F6465722C206FFC
:102C000072207468652077686F6C6520656E636FED
:102C100064657220697473656C66206861732074E2
:102C20006F6F206D75636820776967676C652074C6
:102C30006F2069742C206E65656473206D6F7265FA
:102C40002074617065206F722069736E2774207321
:102C500065617465642077656C6C2E002A2A2A46AB
:102C600041494C45442A2A2A002A2A2A50415353D2
:102C700045442A2A2A004174206C65617374206FD0
:102C80006E65206F6620746865206361726F75736E
:102C9000656C206D6F76656D656E74732066616915
:102CA0006C65642C20736F207468697320697320CD
:102CB00061206661696C75726520616E64206E6F5B
:102CC0007420612076616C69642063656E7465723E
:102CD00020656E636F64657220736C697070696ED5
:102CE0006720746573742E002A2A2A4641494C4590
:102CF000442A2A2A00546869732076616C7565201D
:102D000073686F756C64206265203C2031352074D7
:102D10006F20656E73757265206E6F20736C6970BD
:102D200070696E672E00446966666572656E6365DC
:102D300020696E2063656E74657220656E636F64D2
:102D4000657220706F736974696F6E207768656E45
:102D5000206D6F76696E6720636C6F636B77697344
:102D60006520767320636F756E746572636C6F6334
:102D70006B77697365206973200043656E746572B3
:102D800020656E636F64657220506F736974696F3C
:102D90006E4174536C6F743130434357203D2000B3
:102DA00043656E74657220656E636F646572205052
:102DB0006F736974696F6E4174536C6F7431304313
:102DC00057203D20000A43656E74657220656E636E
:102DD0006F64657220506F736974696F6E417448D7
:102DE0006F6D65203D20002A2A2A4641494C454402
:102DF0002A2A2A002A2A2A5041535345442A2A2A99
:102E000000546172676574206973206C6573732068
:102E10007468616E20302E312067202F20313030D1
:102E2000206D672C20736F2074686973207465733C
:102E30007420004176657261676520446966666545
:102E400072656E636520286D67293A2000417665BA
:102E50007261676520446966666572656E636520A8
:102E60002867293A200041766572616765205765B9
:102E7000696768743A20004D6561737572696E67A1
:102E8000206C6F61642063656C6C206E6F69736584
:102E90002C203230302073616D706C65732C207380
:102EA000616D706C6573207065722073616D706CFC
:102EB00065203D20004F766572616C6C20726573F1
:102EC000756C74203D202A2A2A4641494C45442AE3
:102ED0002A2A004F766572616C6C20726573756C7E
:102EE00074203D202A2A2A5041535345442A2A2A35
:102EF000004E756D626572206F66206D6F76656D30
:102F0000656E74206661696C75726573203D200082
:102F10004E756D626572206F66206D6F76656D65AA
:102F20006E742072657472696573203D20002063A1
:102F300079636C65732E000A0A46696E6973686569
:102F400064204379636C652054657374206F662038
:102F5000006E756D4661696C75726573203D200069
:102F60006E756D52657472696573203D20005375EE
:102F70006363657373203D200067476F546F506F24
:102F8000736974696F6E52657472696573203D2050
:102F9000006E756D4661696C75726573203D200029
:102FA0006E756D52657472696573203D20005375AE
:102FB0006363657373203D200067476F546F506FE4
:102FC000736974696F6E52657472696573203D2010
:102FD000005E77697065725F72656D6F7665643AE1
:102FE000307C3A24005E77697065725F72656D6F40
:102FF0007665643A307C3A24005E77697065725F6A
:10300000696E7365727465643A307C3A24005E7749
:10301000697065725F696E7365727465643A307C5D
:103020003A240066696E697368656400616C657254
:10303000740064697370656E73696E6700626F77A0
:103040006C006163746976650069646C65003A249C
:10305000005E6E61636B3A317C003A24005E6E6103
:10306000636B3A317C006379636C655F746573747C
:103070005F616C6C006379636C655F746573745F2A
:10308000686F6C6570756E6368006379636C655F0B
:10309000746573745F6163747561746F72730063D8
:1030A00079636C655F746573745F6361726F757368
:1030B000656C00746573745F7363616C655F6E6FDC
:1030C00069736500746573745F6361726F757365AE
:1030D0006C5F656E636F6465727300746573745FB3
:1030E0006361726F7573656C5F6672696374696F33
:1030F0006E007A65726F5F63656E7465725F656E90
:10310000636F646572007365745F70616E656C5F98
:103110006272696768746E657373006361726F755C
:1031200073656C5F706F736974696F6E006163744F
:103130007561746F725F636F756E746572636C6FC7
:10314000636B77697365006163747561746F725F37
:10315000636C6F636B776973650061637475617429
:103160006F725F706F736974696F6E0061637475FD
:1031700061746F725F686F6D6500636C6561725F2B
:103180006163747561746F725F706F736974696F76
:103190006E730031323334353637383930313233AB
:1031A00034353637383930313233343536373839CB
:1031B00030313233343536373839303132333435D3
:1031C00036373839300070756E63685F686F6C65CC
:1031D0000063616C6962726174655F7363616C65E1
:1031E0000076657273696F6E00626F776C5F7765EA
:1031F0006967687400626F776C5F7374617475736C
:10320000007374617475730073797374656D5F63B3
:103210006865636B00666F726365007363616E5F00
:10322000616C6C00726573756D650063616E6365DA
:103230006C007265736574007365745F64656D6FAF
:103240005F6D6F6465007365745F6861735F72655D
:103250006C6F61645F646F6F725F6C6F636B007340
:1032600065745F626F776C5F617265615F636F6CDD
:103270006F725F7479706500706F7765725F7361EC
:1032800076655F6D6F64650072657363616E5F6321
:10329000616E697374657273007061757365007037
:1032A0006F736974696F6E5F63616E697374657261
:1032B0005F7265706C616365007363616E5F62610C
:1032C00072636F64650077697065725F73746174AF
:1032D000757300646F6F725F7374617475730064EB
:1032E0006F6F725F756E6C6F636B00646F6F725F90
:1032F0006C6F636B0064697370656E73655F74698E
:103300006D65640064697370656E73655F616C6C94
:103310000064697370656E73655F7765696768746B
:103320000070696E670064656D6F00706F7369741B
:10333000696F6E5F63616E69737465720073657443
:103340005F7363616C655F6C656473007365745F64
:103350006C656473002D2D2D2D2D2D2D2D2D2D2DD6
:103360002D2D2D00706172616D33203D2000706144
:1033700072616D32203D2000706172616D31203DBF
:103380002000706172616D32203D200070617261B9
:103390006D31203D2000706172616D31203D200053
:1033A000416C6C2074686520646174612076616C86
:1033B000756573203D2000496E7465676572204E07
:1033C000756D506172616D6574657273203D20008A
:1033D000416C6C20506172616D7320506173736534
:1033E0006420004D65737361676554797065203D95
:1033F00020002A2A2A2A2A2A2A2A2A2A2A2A2A2A61
:103400002A2A2A005E626F776C5F72656D6F76653F
:10341000643A307C3A24005E626F776C5F72656D4F
:103420006F7665643A307C3A24003A24003A2400EE
:103430005E626F776C5F706C616365643A357C00C7
:103440005E626F776C5F706C616365643A357C00B7
:10345000436F6C6F722073656E736F7273206E6F43
:103460007420696E7374616C6C65642C206465668D
:1034700061756C74696E6720746F20524742282D05
:10348000312C2D312C2D31290044697374616E6308
:10349000652073656E736F72207265616420564C8F
:1034A00036313830585F4552524F525F4E4F434F7E
:1034B0004E56455247452C20736F207468726F77C3
:1034C000696E6720626F776C5F72656D6F76656499
:1034D000206576656E74206966204162736F6C7535
:1034E000746557656967687420697320616C736FD0
:1034F000203C2033352E20205479706963616C6C38
:10350000792068617070656E7320776865726520D8
:1035100074686520626F776C207761732072656DC7
:103520006F76656420717569636B6C792077697457
:10353000686F757420612072616E676520726561C5
:1035400064696E6720617661696C61626C65206197
:103550006E796D6F72652C206F72206120626C61D4
:10356000636B20626F776C20696E20626C61636BA5
:103570002061726561206973206861726420746FD4
:1035800020726561642E204162736F6C757465579B
:103590006569676874203D20002C204162736F6C60
:1035A000757465576569676874203D200052616EC7
:1035B0006765203E203730206F72204162736F6C48
:1035C000757465576569676874203C2033352C2015
:1035D000736F207468726F77696E6720626F776CA3
:1035E0005F72656D6F766564206576656E742E20FA
:1035F00052616E6765203D20002C20426F776C5031
:103600006C6163656453616D706C6573416674656C
:103610007252464944203D2000426F776C506C61E5
:1036200063656453616D706C65734265666F726546
:1036300052464944203D2000426F776C506C6163D4
:10364000656453616D706C65734166746572524652
:103650004944203D2000426F776C506C6163656483
:1036600053616D706C65734265666F726552464951
:1036700044203D20003A24005E706F736974696FC6
:103680006E5F63616E69737465725F726573703AC1
:10369000327C6661696C7572653A003A24005E702E
:1036A0006F736974696F6E5F63616E69737465725D
:1036B0005F726573703A327C6661696C7572653AE7
:1036C000003A24005E706F736974696F6E5F6361A6
:1036D0006E69737465725F726573703A327C73756C
:1036E00063636573733A003A24005E706F736974A4
:1036F000696F6E5F63616E69737465725F72657323
:10370000703A327C737563636573733A00706F73DC
:103710006974696F6E5F63616E6973746572005678
:10372000616C7565207061737365643D00496E203E
:10373000706F736974696F6E2063616E697374650D
:10374000722066756E6374696F6E21005E646F6FC0
:10375000725F6C6F636B5F726573703A317C737507
:1037600063636573733A24005E646F6F725F6C6F9E
:10377000636B5F726573703A317C737563636573F5
:10378000733A2400646F6F725F6C6F636B00416605
:10379000746572204C6F636B696E672C2052656C88
:1037A0006F6164446F6F72556E6C6F636B53656EBF
:1037B000736550696E3A20004265666F7265204CF1
:1037C0006F636B696E672C2052656C6F6164446F28
:1037D0006F72556E6C6F636B53656E736550696E77
:1037E0003A2000496E20646F6F725F6C6F636B20CC
:1037F00066756E6374696F6E210050726F647563D5
:10380000744944206973206120726567756C617228
:103810002064697370656E736520737065656420DC
:1038200070726F647563742C20736F20646F206EE8
:103830006F726D616C2064697370656E73652E00C4
:1038400050726F6475637449442069732061206607
:103850006173742064697370656E7365207370653D
:1038600065642070726F647563742C20736F2067B9
:103870006F2066617374657220616E6420646F6E80
:10388000277420736C6F7720646F776E20617420CB
:10389000656E642E003030323900303032380030FE
:1038A00030323700303032360030303234002C20A5
:1038B00050726F64756374494420697320006361BA
:1038C0006E6973746572436F646520697320005478
:1038D000686973206973204C69676874656E6572E6
:1038E0002C20736F20646F6E277420676F206173C4
:1038F0002066617374206F746865727769736520E0
:10390000636F756C6420686176652070696E6368AA
:10391000206F66662069737375652E00303032390A
:10392000003A2409003A00095E646973705F70729E
:103930006F67726573733A327C003A24003A005E16
:10394000646973705F70726F67726573733A327C0B
:10395000005E70617573653A005E72657365743AF6
:10396000005E63616E63656C3A005E7061757365DD
:103970003A005E72657365743A005E63616E6365FA
:103980006C3A00526573746F7265642F536176658B
:103990006420496E697469616C4163747561746F08
:1039A00072506F736974696F6E446174613A004953
:1039B0006E2D6D656D6F727920496E697469616CE9
:1039C0004163747561746F72506F736974696F6E5F
:1039D000446174613A002C20736F207772697469B6
:1039E0006E6720746F20454550524F4D20657665B7
:1039F0006E2074686F756768206F7574206F66201D
:103A000072616E67652C20736F206E657874207408
:103A1000696D652077696C6C20776F726B206265C9
:103A2000747465722E00203C2050726576696F7543
:103A300073496E697469616C4163747561746F7206
:103A4000506F736974696F6E206F6620004E6577E2
:103A500020496E697469616C4163747561746F7239
:103A6000506F736974696F6E5B5D206F6620003AFA
:103A700024003A003A003A005E64697370656E7320
:103A8000655F7765696768745F726573703A357CE6
:103A900072616E67653A003A24003A003A003A00D3
:103AA0005E64697370656E73655F77656967687476
:103AB0005F726573703A357C72616E67653A003A81
:103AC00024003A003A003A005E64697370656E73D0
:103AD000655F7765696768745F726573703A357C96
:103AE000737563636573733A003A24003A003A00D1
:103AF0003A005E64697370656E73655F77656967C8
:103B000068745F726573703A357C7375636365734F
:103B1000733A003A24003A003A003A005E6469734E
:103B200070656E73655F7765696768745F726573EA
:103B3000703A357C63616E63656C3A003A24003AF2
:103B4000003A003A005E64697370656E73655F7772
:103B500065696768745F726573703A357C63616E1E
:103B600063656C3A003A24003A003A003A005E6419
:103B7000697370656E73655F7765696768745F7296
:103B80006573703A357C74616D7065723A003A24E1
:103B9000003A003A003A005E64697370656E7365BE
:103BA0005F7765696768745F726573703A357C74B6
:103BB000616D7065723A0064697370656E73655FFC
:103BC000616C6C0064697370656E73655F776569BD
:103BD000676874002C2053686F756C64526574724A
:103BE00079476F46617374426563617573654669B1
:103BF00072737444697370656E736554696D65643E
:103C00004F7574203D200044697370656E736520A4
:103C10006661696C7572652C206E65656420746FD1
:103C20002072657472792C20476F696E6720746FFB
:103C30002064697370656E7365206D6F7265206FA7
:103C40006E20612072657472792C2074686973200B
:103C50006D756368206D6F7265203D20005265743C
:103C600072792053756D20416D6F756E745F446974
:103C70007370656E736564203D200054414D50455E
:103C8000522044455445435445442061667465724E
:103C90002066696E69736865642064697370656E17
:103CA00073696E672C2072657475726E696E672019
:103CB00074616D70657220726573756C74207769BC
:103CC000746820616D6F756E742064697370656EC1
:103CD00073656420617320547261696C696E675703
:103CE0006569676874203D2000416D6F756E745F73
:103CF00044697370656E736564206973206E6567CF
:103D000061746976652C206D6F7265207468616ED0
:103D1000202D31672C207468657265206D75737471
:103D20002068617665206265656E20736F6D652021
:103D300074797065206F662074616D7065722E20D5
:103D40004E6F7420676F696E6720746F20726574A0
:103D500072792E00416D6F756E745F446973706582
:103D60006E736564203D2000206772616D732C20A6
:103D7000736F207265766572736520746865206163
:103D800063747561746F72210041626F7574207481
:103D90006F2063726F737320005265636569766587
:103DA0006420612043616E63656C20636F6D6D619B
:103DB0006E642066726F6D206D616368696E652048
:103DC00055492E0054414D504552204445544543D9
:103DD0005445442C2073746F7070696E6720616362
:103DE00074756174696F6E20616E6420726574759C
:103DF000726E696E672074616D7065722072657392
:103E0000756C742E0054616D706572206465746504
:103E1000637465642C20776569676874206D6F72C0
:103E200065206E65676174697665207468616E20CF
:103E30002D312C20736F6D65626F6479206D757301
:103E40007420686176652072656D6F766564207791
:103E500065696768742066726F6D207363616C6555
:103E60002C2072657475726E696E672074616D7056
:103E700065722E0020746F20302E30352073696EED
:103E80006365203C3330206C6F6F7073206C656607
:103E90007400094C6F776572696E67207461726790
:103EA00065742073706565642066726F6D2000090B
:103EB0004C4C090009534554504F494E542043611E
:103EC0006C633D000954726C563409000954726CDD
:103ED0005609000954726C570900094C6F6164203F
:103EE00063656C6C2073616D706C696E67206661D0
:103EF000696C7572652C20676F74203E32303067B4
:103F000020666F722061766572616765206F66203A
:103F10003130782073616D706C65732C2064697327
:103F200063617264696E6720616E642074616B699D
:103F30006E67206E65772073616D706C65206865B3
:103F400072653A090053616D7009005374616C6CBD
:103F5000696E67206465746563746564202D2072E2
:103F600065636F76657279206469646E2774207763
:103F70006F726B2C20736F2073746F7070696E6733
:103F8000207468652064697370656E736520736F53
:103F900020776520646F6E27742064616D616765AA
:103FA00020746865206D6F746F7220616E64206488
:103FB00072697665722E00095475726E41726F7562
:103FC0006E64000A5374616C6C696E67206465747A
:103FD0006563746564202D20747279696E6720743E
:103FE0006865206261636B2D6F66662D616E642D5E
:103FF000676F2D666173742072657472792E000983
:10400000456E64313530005374617274696E672097
:10401000536574706F696E74496E6974466F72543B
:104020006869734D616368696E65203D20000953BE
:104030006574706F696E74416D6F756E74546F4204
:1040400061636B4F66665768656E48697454617248
:104050006765745370656564203D2000095365747D
:10406000706F696E744C6F6F70496E6372656D65C9
:104070006E74203D2000097461726765745F646925
:104080007370656E73655F7370656564203D2000B5
:1040900009414661737444697370656E7365534B6F
:1040A00055203D20006744656D6F4D6F6465203D70
:1040B0002000426F776C20776569676874206E6FA7
:1040C0007420736574746C65642061667465722015
:1040D00035207365636F6E64732C2072657475721E
:1040E0006E2074616D7065722E00424F574C204EE9
:1040F0004F5420504C41434544207768656E2073EF
:1041000074617274696E672064697370656E73653B
:10411000202D20736F206E6F74206163747561743D
:10412000696E672C20616E642072657475726E69A9
:104130006E672074616D7065722E00094162736F45
:104140006C757465576569676874203D2000095473
:1041500061726541444356616C7565203D200009DC
:104160005343414C45203D2000094F46465345549A
:10417000203D200054617265576569676874203D71
:1041800020005D203D2000496E697469616C5765AF
:104190006967687452656164696E67735B00536335
:1041A000616C65206E6F7420736574746C65642C2B
:1041B0002062656C6F772073616D706C6573206E23
:1041C0006F742077697468696E2031206772616D41
:1041D0002C207265747279696E6720757020746F17
:1041E00020352074696D65732E0056616C756520ED
:1041F0007061737365643D0056616C756520706114
:10420000737365643D00496E2064697370656E73F5
:1042100065207765696768742066756E6374696F79
:104220006E21003A24005E64697370656E73655F89
:1042300074696D65645F726573703A327C7375631F
:10424000636573733A003A24005E64697370656E47
:1042500073655F74696D65645F726573703A327C13
:10426000737563636573733A0064697370656E7325
:10427000655F74696D656400416674657220686F7E
:104280006D652061637475616C2C20736574706F4B
:10429000696E742C2070776D3A00456E64696E67A4
:1042A000204163747561746F722061637475616C11
:1042B0002C20736574706F696E742C2070776D3A62
:1042C000005374617274696E672041637475617420
:1042D0006F722061637475616C2C20736574706FEC
:1042E000696E742C2070776D3A0056616C7565208C
:1042F0007061737365643D0056616C756520706113
:10430000737365643D00496E2064697370656E73F4
:10431000652074696D656421003A24003A24005ECA
:104320007363616E5F616C6C5F726573703A327C4F
:104330006661696C7572653A005E7363616E5F6198
:104340006C6C5F726573703A327C6661696C757211
:10435000653A005E7363616E5F616C6C5F7265737A
:10436000703A327C737563636573733A005E73638E
:10437000616E5F616C6C5F726573703A327C7375ED
:1043800063636573733A007363616E5F616C6C00A5
:10439000496E207363616E5F616C6C2066756E633D
:1043A00074696F6E210053657269616C206E756D62
:1043B0006265727320646F206E6F74206D61746328
:1043C000682C20776520686176656E2774206469A3
:1043D0007370656E736564207769746820746869AA
:1043E000732063616E6973746572206265666F72B3
:1043F00065212020536F20626C616E6B206F757495
:10440000207468652053657269616C4E756D6265D4
:10441000724861734265656E44697370656E736559
:10442000645B5D2C20616E642073746F7265207410
:104430006865206E65772073657269616C205365CD
:104440007269616C4E756D626572735B5D5B355D43
:104450000053657269616C206E756D6265727320C0
:104460006D617463682C20776527766520736565B8
:104470006E20746869732063616E6973746572205D
:104480006265666F72652100476C6F62616C2049DE
:104490006E697469616C4163747561746F72506F99
:1044A000736974696F6E203D20005D203D200049D6
:1044B0006E697469616C4163747561746F72506F79
:1044C000736974696F6E735B005D203D20005365F6
:1044D0007269616C4E756D626572486173426565A3
:1044E0006E44697370656E7365645B00496E7661D6
:1044F0006C696420626172636F64652C2063616E15
:10450000277420636F6D7061726520626172636FE2
:104510006465732E00496E76616C696420736C6FFC
:1045200074206E756D6265722C2063616E27742035
:10453000636F6D7061726520626172636F64657331
:104540002E0043616E6973746572206E6F74206112
:104550006C69676E65642077697468696E2052655E
:10456000616446726F6D426172636F64655363612B
:104570006E6E6572205245545259206166746572A0
:1045800020747269676765722C206E65656420749B
:104590006F2064697363617264207468652073635B
:1045A000616E2E0043616E6973746572206E6F7464
:1045B00020616C69676E65642077697468696E2034
:1045C0005265616446726F6D426172636F646553D8
:1045D00063616E6E65722052455452592062656661
:1045E0006F726520747269676765722C206E6565ED
:1045F0006420746F206469736361726420746865F9
:10460000207363616E2E0043616E6973746572205E
:104610006E6F7420616C69676E6564207769746879
:10462000696E205265616446726F6D426172636F9C
:1046300064655363616E6E65722061667465722095
:10464000747269676765722C206E65656420746F8B
:1046500020646973636172642074686520736361A8
:104660006E2E0043616E6973746572206E6F7420E4
:10467000616C69676E65642077697468696E205241
:1046800065616446726F6D426172636F6465536306
:10469000616E6E6572206265666F72652074726904
:1046A000676765722C206E65656420746F2064698D
:1046B000736361726420746865207363616E2E0099
:1046C00043616E6973746572206E6F7420616C69EA
:1046D000676E65642077697468696E2052656164ED
:1046E00046726F6D426172636F64655363616E6E93
:1046F0006572205245545259206166746572207467
:104700007269676765722C206E65656420746F201E
:104710006469736361726420746865207363616E99
:104720002E0043616E6973746572206E6F74206130
:104730006C69676E65642077697468696E2052657C
:10474000616446726F6D426172636F646553636149
:104750006E6E6572205245545259206265666F72C2
:104760006520747269676765722C206E65656420C8
:10477000746F206469736361726420746865207368
:1047800063616E2E0043616E6973746572206E6F93
:104790007420616C69676E65642077697468696EFE
:1047A000205265616446726F6D426172636F646529
:1047B0005363616E6E6572206166746572207472F7
:1047C00069676765722C206E65656420746F20646C
:1047D00069736361726420746865207363616E2E0F
:1047E0000043616E6973746572206E6F7420616C32
:1047F00069676E65642077697468696E20526561C7
:104800006446726F6D426172636F64655363616E7B
:104810006E6572206265666F726520747269676783
:1048200065722C206E65656420746F206469736303
:1048300061726420746865207363616E2E003A248F
:10484000005E63616E69737465725F696E73746133
:104850006C6C65643A327C003A24005E63616E6978
:10486000737465725F696E7374616C6C65643A32FF
:104870007C003A24005E63616E69737465725F72D6
:10488000656D6F7665643A317C003A24005E636141
:104890006E69737465725F72656D6F7665643A31C7
:1048A0007C005E7363616E5F626172636F64655FFB
:1048B000726573703A327C6661696C7572653A66CE
:1048C00061696C7572653A24005E7363616E5F6244
:1048D0006172636F64655F726573703A327C6661A2
:1048E000696C7572653A6661696C7572653A240027
:1048F0005E7363616E5F626172636F64655F726550
:1049000073703A327C737563636573733A656D7067
:1049100074793A24005E7363616E5F626172636FE3
:1049200064655F726573703A327C73756363657337
:10493000733A656D7074793A24007363616E5F62D7
:104940006172636F646500656D7074790073636193
:104950006E5F616C6C00656D7074790042617263AA
:104960006F6465206E6F742076616C69642C2069B9
:10497000676E6F7265643A20003A24005E7363616B
:104980006E5F626172636F64655F726573703A3205
:104990007C737563636573733A003A24005E7363D6
:1049A000616E5F626172636F64655F726573703AB6
:1049B000327C737563636573733A007363616E5F12
:1049C000626172636F6465007C007C207673207C7A
:1049D00000466F756E6420444946464552454E5424
:1049E00020426172636F6465207C007363616E5F57
:1049F000616C6C0043616E6973746572206E6F74D4
:104A000020616C69676E65642C20646973636172F0
:104A100064696E6720746865207363616E206F66D9
:104A200020736C6F742023002C20536F757468639F
:104A30006F204C61746368203D20002C2052656C0F
:104A40006F6164446F6F724F70656E203D20004946
:104A50006E207363616E5F626172636F646520666E
:104A6000756E6374696F6E2120536C6F7420230020
:104A70005E76657273696F6E5F726573703A317CD2
:104A8000322D382D323032313A2400766572736916
:104A90006F6E005E76657273696F6E5F72657370BC
:104AA0003A317C322D382D323032313A2400496E81
:104AB0002076657273696F6E5F66756E6374696F79
:104AC0006E2066756E6374696F6E21003A24003A39
:104AD000005E63616C6962726174655F7363616CCF
:104AE000655F726573703A337C7375636365737366
:104AF0003A003A24003A005E63616C696272617444
:104B0000655F7363616C655F726573703A337C7364
:104B10007563636573733A0041667465722053630D
:104B2000616C655F43616C6962726174696F6E3A52
:104B300020004265666F7265205363616C655F4358
:104B4000616C6962726174696F6E3A2000416674CB
:104B500065722043616C6962726174696E672032AC
:104B600030303A20004265666F72652043616C699F
:104B700062726174696E67203230303A20003A24E4
:104B8000003A005E63616C6962726174655F7363B1
:104B9000616C655F726573703A337C7375636365CE
:104BA00073733A003A24003A005E63616C69627282
:104BB0006174655F7363616C655F726573703A33CE
:104BC0007C737563636573733A0041667465722024
:104BD00043616C6962726174696E6720303A2000CB
:104BE0004265666F72652043616C696272617469C7
:104BF0006E6720303A200056616C756520706173D5
:104C00007365643D00496E2063616C696272617412
:104C1000655F7363616C652066756E6374696F6E42
:104C200021005E7365745F70616E656C5F627269AE
:104C30006768746E6573735F726573703A317C7305
:104C40007563636573733A24005E7365745F7061A6
:104C50006E656C5F6272696768746E6573735F72AC
:104C60006573703A317C737563636573733A2400BE
:104C70007365745F70616E656C5F6272696768749A
:104C80006E657373005E7365745F70616E656C5FF3
:104C90006272696768746E6573735F726573703A88
:104CA000317C6661696C7572653A24005E73657467
:104CB0005F70616E656C5F6272696768746E657360
:104CC000735F726573703A317C6661696C75726589
:104CD0003A24007365745F70616E656C5F6272691F
:104CE0006768746E657373005E626F776C5F737470
:104CF000617475735F726573703A317C616273655C
:104D00006E743A24005E626F776C5F7374617475C1
:104D1000735F726573703A317C616273656E743A69
:104D200024003A24003A24005E626F776C5F73744B
:104D3000617475735F726573703A367C70726573F7
:104D4000656E743A005E626F776C5F737461747540
:104D5000735F726573703A367C70726573656E74DA
:104D60003A002C20426F776C506C6163656453612C
:104D70006D706C6573416674657252464944203D9E
:104D80002000426F776C20776569676874206E6FCA
:104D90007420736574746C65642C20627574207261
:104DA000657475726E204162736F6C7574655765BA
:104DB0006967687420616E797761792C20426F771A
:104DC0006C506C6163656453616D706C65734265B2
:104DD000666F726552464944203D20002C20426F88
:104DE000776C506C6163656453616D706C65734181
:104DF0006674657252464944203D2000426F776CCC
:104E0000506C6163656453616D706C657342656677
:104E10006F726552464944203D2000426F776C50C6
:104E20006C6163656453616D706C65734166746534
:104E30007252464944203D2000436F6C6F722073CC
:104E4000656E736F7273206E6F7420696E73746118
:104E50006C6C65642C2064656661756C74696E6742
:104E600020746F20524742282D312C2D312C2D31AA
:104E70002900426F776C506C6163656453616D709B
:104E80006C65734265666F726552464944203D20E9
:104E9000005D203D200053657269616C4E756D6246
:104EA0006572735B005D203D200053657269616C23
:104EB0004E756D6265724861734265656E446973D3
:104EC00070656E7365645B005D203D2000496E690E
:104ED0007469616C4163747561746F72506F73694A
:104EE00074696F6E735B00496E697469616C4163CC
:104EF000747561746F72506F736974696F6E203D61
:104F0000200000000A0B02090C0D0E080703040123
:104F10000000000000000000000000000000000091
:104F2000000000000000000000000000000012115E
:104F30001000000000000000000000000000000061
:104F400000000000000000000000210024002700F5
:104F50002A002D0030003300010100000401070188
:104F60000A01436F7272656374656420414D543267
:104F7000323220456E636F6465723A2000414D54B1
:104F800032323220456E636F6465723A2000414DC3
:104F9000543232322072656164206572726F722EF3
:104FA00020417474656D7074733A200054696D65A6
:104FB00064206F75742C206E6F20656E636F64655E
:104FC000722064657465637465642E202042757474
:104FD00020617373756D6520414D54323232206FFC
:104FE0007220746573742073746174696F6E2E001F
:104FF000414D543232322064657465637465642EA9
:1050000000414D54323033206465746563746564C7
:105010002E202057652065787065637420332066E4
:105020006F7220646174615F72656365697665643F
:10503000203D2000436865636B696E6720656E6381
:105040006F64657220747970652C20646174615F8F
:105050007265636569766564203D200053657475EB
:105060007020436F6D706C657465202D20526561F2
:10507000647920666F7220436F6D6D616E64733A60
:10508000005573696E672064656661756C74207382
:1050900063616C652063616C6962726174696F6ED3
:1050A0002076616C7565732E20506C656173652088
:1050B00063616C69627261746520746865207363F2
:1050C000616C6520736F2074686174206974206955
:1050D0007320616363757261746520666F722074FA
:1050E00068697320756E69742E00426F776C206456
:1050F000697374616E63652073656E736F72206689
:105100006F756E6421004661696C656420746F2060
:1051100066696E642064697374616E63652073658B
:105120006E736F72004C6F6F6B696E6720666F7283
:1051300020626F776C2064697374616E636520739D
:10514000656E736F72202D2041646166727569749B
:1051500020564C3631383078210067657420756EE2
:105160006974733A200909006765742076616C756B
:10517000653A200909007265616420617665726193
:1051800067653A20090900726561643A20090900DF
:1051900041667465722073657474696E67207570FA
:1051A00020746865207363616C653A005363616CB9
:1051B00065206E6F742063616C69627261746564EE
:1051C0002E20205573696E672064656661756C7466
:1051D0002E0067657420756E6974733A20090900A2
:1051E0006765742076616C75653A200909007265FF
:1051F000616420617665726167653A200909007211
:105200006561643A200909004265666F7265207322
:10521000657474696E6720757020746865207363A7
:10522000616C653A00496E697469616C697A696E8E
:105230006720746865207363616C65004545505252
:105240004F4D20626C616E6B2C2077726974696EB1
:10525000672064656661756C74732E004545505215
:105260004F4D2056657273696F6E3A20003A2400E4
:105270005E7374617475735F726573703A317C002C
:105280003A24005E7374617475735F726573703A6B
:10529000317C00496E6E657220426172636F646595
:1052A00020526561646572204641494C4544207432
:1052B0006F207363616E2E2020436865636B2066E8
:1052C0006F7220726564207363616E206C69676819
:1052D000742C20626172636F646520616C69676E13
:1052E0006D656E742C20616E6420776972696E67DB
:1052F0002F726962626F6E206361626C65732E004B
:10530000496E6E657220426172636F6465205265FA
:1053100061646572205375636365737366756C6C45
:1053200079205363616E6E656420426172636F64BD
:10533000652000656D707479004F75746572204248
:105340006172636F646520526561646572204641D5
:10535000494C454420746F207363616E2E202043B6
:105360006865636B20666F72207265642073636189
:105370006E206C696768742C20626172636F64656B
:1053800020616C69676E6D656E742C20616E64209F
:10539000776972696E672F726962626F6E206361EE
:1053A000626C65732E004F75746572204261726382
:1053B0006F6465205265616465722053756363652F
:1053C000737366756C6C79205363616E6E656420CF
:1053D000426172636F64652000656D70747900626C
:1053E0006172636F64650009486F6C6550756E6328
:1053F000684F75746572536166654F70746F203DB8
:10540000200009486F6C6550756E6368496E6E6563
:1054100072536166654F70746F203D2000656E6346
:105420006F646572486F6C6550756E63684D6F741C
:105430006F72506F73203D2000686F6C6570756EE1
:10544000636800094163747561746F724F757465A8
:105450007255704F70746F203D2000094163747560
:1054600061746F72496E6E657255704F70746F2003
:105470003D20004163747561746F72456E636F64A3
:105480006572203D20006163747561746F72006302
:1054900061726F7573656C00656570726F6D005237
:1054A000616E67652072656164696E67206F7665FD
:1054B00072666C6F770052616E6765207265616419
:1054C000696E6720756E646572666C6F77005261F5
:1054D000772072656164696E67206F766572666CAD
:1054E0006F77005261772072656164696E6720751D
:1054F0006E646572666C6F77005369676E616C2FBE
:105500004E6F697365206572726F720049676E6FC6
:1055100072696E672072616E6765004E6F20636FFF
:105520006E76657267656E6365004543452066610A
:10553000696C7572650053797374656D206572725C
:105540006F7200094C75783A090052616E67653ACE
:10555000090064697374616E63650052616E67650A
:105560002072656164696E67206F766572666C6F24
:10557000770052616E67652072656164696E6720AD
:10558000756E646572666C6F770052617720726524
:105590006164696E67206F766572666C6F77005222
:1055A00061772072656164696E6720756E646572EB
:1055B000666C6F77005369676E616C2F4E6F69730D
:1055C00065206572726F720049676E6F72696E67EF
:1055D0002072616E6765004E6F20636F6E76657234
:1055E00067656E636500454345206661696C757249
:1055F000650053797374656D206572726F7200096E
:105600004C75783A090052616E67653A090052613B
:105610006E67652072656164696E67206F7665727A
:10562000666C6F770052616E6765207265616469B0
:105630006E6720756E646572666C6F770052617775
:105640002072656164696E67206F766572666C6F43
:1056500077005261772072656164696E6720756EAC
:10566000646572666C6F77005369676E616C2F4E6C
:105670006F697365206572726F720049676E6F7231
:10568000696E672072616E6765004E6F20636F6E92
:1056900076657267656E636500454345206661699E
:1056A0006C7572650053797374656D206572726FE5
:1056B0007200094C75783A090052616E67653A09C3
:1056C0000052616E67652072656164696E67206F64
:1056D000766572666C6F770052616E6765207265E1
:1056E0006164696E6720756E646572666C6F7700C1
:1056F0005261772072656164696E67206F766572AA
:10570000666C6F77005261772072656164696E67BD
:1057100020756E646572666C6F77005369676E61A1
:105720006C2F4E6F697365206572726F72004967E6
:105730006E6F72696E672072616E6765004E6F20D2
:10574000636F6E76657267656E63650045434520DD
:105750006661696C7572650053797374656D206557
:1057600072726F7200094C75783A090052616E6767
:10577000653A090052616E67652072656164696E01
:1057800067206F766572666C6F770052616E676531
:105790002072656164696E6720756E646572666CFF
:1057A0006F77005261772072656164696E67206F60
:1057B000766572666C6F77005261772072656164FE
:1057C000696E6720756E646572666C6F77005369E9
:1057D000676E616C2F4E6F697365206572726F72B0
:1057E0000049676E6F72696E672072616E6765004F
:1057F0004E6F20636F6E76657267656E63650045F8
:105800004345206661696C757265005379737465F0
:105810006D206572726F7200094C75783A090052FA
:10582000616E67653A090052616E67652072656155
:1058300064696E67206F766572666C6F770052617F
:105840006E67652072656164696E6720756E646558
:1058500072666C6F77005261772072656164696E61
:1058600067206F766572666C6F7700526177207281
:10587000656164696E6720756E646572666C6F77CA
:10588000005369676E616C2F4E6F69736520657296
:10589000726F720049676E6F72696E672072616E17
:1058A0006765004E6F20636F6E76657267656E6325
:1058B0006500454345206661696C757265005379E2
:1058C0007374656D206572726F7200094C75783A59
:1058D000090052616E67653A09004973426C616361
:1058E0006B426F776C41726561203D2000636F6C85
:1058F0006F72005769706572496E73657274656482
:10590000203D200077697065720052656C6F61649C
:10591000446F6F72556E6C6F636B53656E73655039
:10592000696E203D200052656C6F6164446F6F7238
:105930004F70656E203D200041313420414D495368
:105940002D3330353433205664642052656C6F61DA
:1059500064446F6F72436C6F736564203D20006414
:105960006F6F7200726669640043757272656E745F
:10597000205765696768743A09004162736F6C75F6
:10598000746520776569676874207673205A65723C
:105990006F20706F696E743A200909007261772078
:1059A000414443206765742076616C7565206D699C
:1059B0006E757320746172653A200909007261770F
:1059C000204144432072656164206176657261679D
:1059D000653A200909005363616C655F43616C6936
:1059E00062726174696F6E5F323030673A20090904
:1059F000005363616C655F43616C696272617469D5
:105A00006F6E5F5A65726F3A200909005363616CCB
:105A1000655F43616C6962726174696F6E3A2009F7
:105A200009007363616C65007363616C65003A24FF
:105A3000005E61636B3A317C003A24005E61636B07
:105A40003A317C00656E636F646572537465707083
:105A50006572506F73206F7574206F662072616E6F
:105A60006765202D2073657474696E67206E657795
:105A700020656E636F6465725374657070657250F3
:105A80006F73206F66200043757272656E74506F7D
:105A9000736974696F6E206F7574206F6620726110
:105AA0006E6765202D2073657474696E67206E655E
:105AB000772043757272656E7420506F73697469D4
:105AC0006F6E206F662000656E636F64657253743D
:105AD0006570706572506F73206F7574206F6620EB
