:100000000C940F540C946A830C943F830C941483C7
:100010000C94E9820C94BE820C9493820C946882B6
:100020000C943D820C94C2D60C94CE810C945881D1
:100030000C9440540C946C5B0C9440540C944054BD
:100040000C9440540C9440540C9440540C944054E0
:100050000C9440540C94057A0C9440540C949AD10E
:100060000C9440540C94E2CE0C94B8CE0C944054B2
:100070000C9440540C9440540C9440540C944054B0
:100080000C9440540C9440540C9440540C944054A0
:100090000C948ECE0C9464CE0C9440540C949ED54B
:1000A0000C9440540C9440540C9440540C94405480
:1000B0000C9440540C9440540C9440540C94405470
:1000C0000C9440540C9440540C9440540C943ACEEC
:1000D0000C9410CE0C9440540C94E6CD0C94BCCDF2
:1000E0000C94405408000000BE922449123EABAA72
:1000F000AA2ABECDCCCC4C3E00000080BEABAAAA42
:10010000AA3E00000000BF000000803F0000000089
:1001100000084178D3BB4387D1133D190E3CC3BDC2
:100120004282AD2B3E68EC8276BED98FE1A93E4C6F
:1001300080EFFFBE01C4FF7F3F00000000000C9471
:1001400054C60C940BC60C94B2C40D94725A0C9401
:10015000F3C40C9489C40C94057A0C94E0D30C94E9
:10016000A4C40C94C8C80C9413D10C94A0C40C94CF
:100170004DC50D943D520D9439520C94A8C40C9465
:1001800097D00C94F1C40D943F520C94CBC30D94B2
:1001900041520C9446C60C94DEC70D9448520C9400
:1001A0008DC40C9469550C94E0C80C943B550C9488
:1001B000DCD00C9463CF0C94D2D00D9446500C94A8
:1001C0009AC40C94F5C40D943B520C947AC30C94CD
:1001D000B8D00C9481C40C941D550C94CAD00C94C6
:1001E000E9C40C9431D10C9403C30C94EDC40C9469
:1001F000CFC70C94FF540C94AEC40C94C2D00D9491
:1002000037520C944DC60C94FFD00C9438C60C9405
:100210007BC40C9425C80C9454C80D94C94E0C94FE
:10022000B6C40C949FD00C94F1C70C942AC60C94BD
:10023000C0C40C946CC80C9418C40C9459C30C948E
:100240006CC30C94F5C50C94F0D00C94F8C70C94C6
:10025000A4D00C9402C30C9427D10C9409D10C9413
:1002600096C40C9490C40C94BBC40C942CC90C94EC
:1002700005C30C9431C60C9485C40C94E6D00C9440
:10028000AED00C94CEC70C94F7C40C94C3C50C9498
:100290001DD10C94C4C40C94FBCF0C944AC30C9491
:1002A00001C90C94BCC40C94EFC40C94A2C50C946A
:1002B0003FC60C946EC50C94EBC40C9422C60C94EF
:1002C0002FD04E414E494E495459494E46CDCCCC83
:1002D0003D0AD7233C17B7D13877CC2B329595E61A
:1002E000241FB14F0A000020410000C84200401CFA
:1002F0004620BCBE4CCA1B0E5AAEC59D74414C452F
:1003000052543A2053797374656D4865616C746812
:10031000204661696C7572652C205269676874505B
:10032000756D70426172636F6465476F6F64203DE5
:100330002000414C4552543A2053797374656D48FE
:1003400065616C7468204661696C7572652C204C1F
:1003500065667450756D70426172636F6465476F56
:100360006F64203D2000414C4552543A205379732C
:1003700074656D4865616C7468204661696C75725E
:10038000652C204F75746572426172636F646547B6
:100390006F6F64203D2000414C4552543A20537900
:1003A0007374656D4865616C7468204661696C752D
:1003B00072652C20496E6E6572426172636F64656E
:1003C000476F6F64203D2000414C4552543A205302
:1003D000797374656D4865616C7468204661696CF9
:1003E0007572652C2044697374616E636553656E24
:1003F000736F72476F6F64203D2000414C4552542B
:100400003A2053797374656D4865616C7468204651
:1004100061696C7572652C204C6F616443656C6C0E
:1004200053656E736F72476F6F64203D2000414CBF
:100430004552543A2053797374656D4865616C7404
:1004400068204661696C7572652C20416374756122
:10045000746F72486F6D696E67476F6F64203D20DF
:1004600000414C4552543A2053797374656D486588
:10047000616C7468204661696C7572652C204163FB
:10048000747561746F724F7574657255704F7074C6
:100490006F476F6F64203D2000414C4552543A2015
:1004A00053797374656D4865616C74682046616941
:1004B0006C7572652C204163747561746F72496E3E
:1004C0006E657255704F70746F476F6F64203D207A
:1004D00000414C4552543A2053797374656D486518
:1004E000616C7468204661696C7572652C2041638B
:1004F000747561746F724D6F746F72456E636F6463
:100500006572476F6F64203D2000414C4552543A5C
:100510002053797374656D4865616C746820466119
:10052000696C7572652C204163747561746F724DCE
:100530006F746F72476F6F64203D2000414C4552CD
:10054000543A2053797374656D4865616C74682002
:100550004661696C7572652C204361726F757365B5
:100560006C486F6D696E67476F6F64203D20004176
:100570004C4552543A2053797374656D4865616CEB
:100580007468204661696C7572652C204361726FD6
:100590007573656C43656E746572456E636F6465F3
:1005A00072476F6F64203D2000414C4552543A2001
:1005B00053797374656D4865616C74682046616930
:1005C0006C7572652C204361726F7573656C4D6F2D
:1005D000746F72456E636F646572476F6F64203D20
:1005E0002000414C4552543A2053797374656D484C
:1005F00065616C7468204661696C7572652C204376
:1006000061726F7573656C4D6F746F72476F6F6455
:10061000203D2000414C4552543A20537973746573
:100620006D4865616C7468204661696C7572652CF3
:10063000204361726F7573656C486F6D654F7074A0
:100640006F476F6F64203D20005269676874507572
:100650006D70426172636F6465476F6F64203D2007
:10066000004C65667450756D70426172636F6465AD
:10067000476F6F64203D20004F7574657242617250
:10068000636F6465476F6F64203D2000496E6E653F
:1006900072426172636F6465476F6F64203D200032
:1006A0005246494453656E736F72476F6F64203DC5
:1006B000200044697374616E636553656E736F7275
:1006C000476F6F64203D20004C6F616443656C6C24
:1006D00053656E736F72476F6F64203D20004163F6
:1006E000747561746F72486F6D696E67476F6F6480
:1006F000203D20004163747561746F724F7574659D
:100700007255704F70746F476F6F64203D200041C9
:1007100063747561746F72496E6E657255704F7057
:10072000746F476F6F64203D20004163747561747E
:100730006F724D6F746F72456E636F646572476F51
:100740006F64203D20004163747561746F724D6F5A
:10075000746F72476F6F64203D20004361726F7544
:1007600073656C486F6D696E67476F6F64203D20DD
:10077000004361726F7573656C43656E7465724595
:100780006E636F646572476F6F64203D2000436144
:10079000726F7573656C4D6F746F72456E636F64C5
:1007A0006572476F6F64203D20004361726F7573FF
:1007B000656C4D6F746F72476F6F64203D2000430E
:1007C00061726F7573656C486F6D654F70746F47BC
:1007D0006F6F64203D2000426C61636B426F776CE9
:1007E00044697374616E6365203D200057686974C5
:1007F00065426F776C44697374616E6365203D2058
:1008000000526967687450756D7053657269616CE8
:100810004E756D6265725B5D203D200052696768B0
:100820007450756D7053657269616C4E756D62655B
:10083000724861734265656E44697370656E736575
:1008400064203D20004C65667450756D7053657270
:1008500069616C4E756D6265725B5D203D20004C78
:1008600065667450756D7053657269616C4E756D17
:100870006265724861734265656E44697370656E46
:10088000736564203D20004F76657272696465521D
:1008900046494449664974446F65736E7452656194
:1008A0006450726F7065726C79203D2000675369E7
:1008B000646550616E656C4272696768746E6573D9
:1008C00073203D20005369646550616E656C42720F
:1008D000696768746E657373203D200048617352C8
:1008E000656C6F6164446F6F724C6F636B203D2069
:1008F000004973426C61636B426F776C4172656152
:10090000203D20002C20436F756E74203D20004157
:10091000766572616765206F66206E6F6E2D7A65F1
:10092000726F20496E697469616C4163747561749A
:100930006F72506F736974696F6E73203D20005D34
:10094000203D200053657269616C4E756D62657261
:10095000735B005D203D200053657269616C4E75CC
:100960006D6265724861734265656E446973706556
:100970006E7365645B005D203D2000496E6974699B
:10098000616C4163747561746F72506F73697469DF
:100990006F6E735B00496E697469616C4163747555
:1009A00061746F72506F736974696F6E203D2000BF
:1009B0005363616C655F43616C6962726174696FF6
:1009C0006E5F576569676874203D20005363616CF2
:1009D000655F43616C6962726174696F6E5F32302A
:1009E0003067203D20005363616C655F43616C6933
:1009F00062726174696F6E5F5A65726F203D20008C
:100A00005363616C655F43616C6962726174696FA5
:100A10006E203D200046575F4255494C44203D2002
:100A20000044697370656E7365725F4D6F64656CC9
:100A30005F4D696E6F72203D200044697370656E72
:100A40007365725F4D6F64656C5F4D616A6F722094
:100A50003D200044697370656E7365725F53657203
:100A600069616C203D200045455050524F4D5F5606
:100A7000455253494F4E203D2000476574414D5427
:100A8000323033456E636F646572506F7369746999
:100A90006F6E20414D5432303363757272656E74DF
:100AA000506F736974696F6E3A200052617720410C
:100AB0004D5432303363757272656E74506F736962
:100AC00074696F6E3A2000526573657420417264D8
:100AD00075696E6F20746F20726573746172742013
:100AE00070726F6772616D2E004572726F72206F47
:100AF000627461696E696E6720706F736974696F83
:100B00006E2E00446F6E65207A65726F696E672085
:100B1000656E636F6465722C2043757272656E74C6
:100B200020706F736974696F6E3A20005265736547
:100B3000742041726475696E6F20746F20726573E2
:100B4000746172742070726F6772616D2E004572ED
:100B5000726F72206F627461696E696E6720706F68
:100B6000736974696F6E2E00342E2E2E00332E2E74
:100B70002E00322E2E2E00312E2E2E00476F696E43
:100B80006720746F207A65726F2074686520414D0C
:100B90005432303320656E636F646572206E6F77F8
:100BA0002E2E2E206D6179206E65656420746F2075
:100BB000706F776572206379636C65206166746518
:100BC0007220746869732E00436F72726563746576
:100BD0006420414D5432323220456E636F64657239
:100BE0003A2000414D5432323220456E636F6465C5
:100BF000723A2000414D54323232207265616420D5
:100C00006572726F722E20417474656D7074733AE0
:100C10002000446F6E65207A65726F696E6720658B
:100C20006E636F6465722C2043757272656E7420FA
:100C3000706F736974696F6E3A2000476F696E67F1
:100C400020746F207A65726F2074686520414D545E
:100C500032323220656E636F646572206E6F772E5C
:100C60002E2E00456E64696E672041637475617451
:100C70006F7220506F736974696F6E203D2000534E
:100C800074617274696E67204163747561746F7208
:100C900020506F736974696F6E203D2000486F6D3E
:100CA000654163747561746F722077617320737529
:100CB000636365737366756C212020426F746820CE
:100CC0006163747561746F727320656E646564200E
:100CD00075702E00414C4552543A20486F6D654165
:100CE00063747561746F7220776173204E4F542066
:100CF0007375636365737366756C2C2041637475DB
:100D000061746F7220456E636F6465722052616E0C
:100D10006765203C2032207768656E2073686F75A8
:100D20006C64206265207E3230302D333030002CF0
:100D3000204163747561746F724F7574657255707C
:100D40004F70746F203D2000414C4552543A20486A
:100D50006F6D654163747561746F72207761732084
:100D60004E4F54207375636365737366756C2C20E6
:100D700062656361757365206163747561746F7218
:100D80007320617265206E6F7420626F74682075C5
:100D9000702E20204163747561746F72496E6E65A8
:100DA0007255704F70746F203D20005375626F70E4
:100DB00074696D616C206F7269656E746174696FBE
:100DC0006E2C207265636F6D6D656E6420666C6954
:100DD00070206163747561746F72203138302064E3
:100DE00065677265657320736F2074686174206D28
:100DF000617820746F72717565206973206F6E2041
:100E00006F7574657220736C6F74732073696E6391
:100E10006520746865792772652075736564206D37
:100E20006F7265206F6674656E2E00476F6F642069
:100E30006F7269656E746174696F6E2C206D617874
:100E400020746F72717565206F6E206F7574657296
:100E500020736C6F74732073696E636520746865AA
:100E6000792772652075736564206D6F7265206FD8
:100E70006674656E2E002C204163747561746F7208
:100E8000446972656374696F6E496E6E6572446F12
:100E9000776E4F757465725570203D2000456E6405
:100EA000206F6620486F6D696E67204163747561BD
:100EB000746F722C20456E636F646572203D200054
:100EC00046696E616C204163747561746F72207045
:100ED0006F736974696F6E20616674657220686FE4
:100EE0006D6520746F20302069732000436F6E663B
:100EF00069726D696E67206E657720706F736974B3
:100F0000696F6E20697320002C20736F206E6577E7
:100F100020706F736974696F6E20697320002C20D4
:100F2000736F2074616B6520746865206469666600
:100F30006572656E636520696E207A65726F2070D8
:100F40006F696E747320616E642061646A75737476
:100F5000206974206279200043757272656E746C2A
:100F60007920617420002C20736F20736574207ABF
:100F700065726F20706F696E742062657477656545
:100F80006E207468652074776F2C206174200020B7
:100F9000746F20004163747561746F7220456E63D5
:100FA0006F6465722072616E67652069732000410D
:100FB00063747561746F7220456E636F646572202F
:100FC00052616E6765203C2032207768656E207321
:100FD000686F756C64206265207E3230302D33304E
:100FE000302E20436865636B204163747561746FB4
:100FF0007220456E636F6465722057697265732055
:1010000028342070696E20636F6E6E6563746F7232
:10101000292E20204966206163747561746F727394
:1010200020646964206E6F74206D6F76652C206378
:101030006865636B206163747561746F72206D6F96
:10104000746F722077697265732028322070696E20
:1010500020636F6E6E6563746F72292E00414C457C
:1010600052543A20426F7468206163747561746FE2
:1010700072206F70746F73207265616420646F7783
:101080006E202D207468697320697320616E20655D
:1010900072726F7220636173652E2020476F696ED4
:1010A0006720746F2073746F7020616E64207265A6
:1010B0007475726E206661696C757265206F6E2042
:1010C000486F6D654163747561746F72210053746C
:1010D000616C6C6564206D6F7265207468616E2050
:1010E00035302074696D65732C2065786974696E7C
:1010F000672074686973206C6F6F702E0053746181
:101100006C6C656421204E65656420746F20676F88
:1011100020696E206F7468657220646972656374FB
:10112000696F6E206E6F772C20616E642072657619
:1011300065727365206C6F6769632E004F75746507
:10114000722075702C20696E6E657220646F776EE8
:10115000202D20736F206D6F766520696E6E65722D
:1011600020757020666972737420746F206D616BD6
:1011700065206F7574657220676F20646F776E00ED
:101180005374616C6C6564206D6F72652074686166
:101190006E2035302074696D65732C206578697414
:1011A000696E67207468697320326E64206C6F6F9B
:1011B0007020616E642073657474696E6720746852
:1011C00065206F7468657220736964652E00095527
:1011D00073696E67207265766572736564206C6FE3
:1011E0006769632C2077616974656420666F72207B
:1011F000496E6E657220746F20676F20646F776E22
:1012000020686572652073696E6365206F7574650B
:10121000722077656E7420646F776E20696E20701F
:10122000726576696F7573206C6F6F702E005374E2
:10123000616C6C6564206D6F7265207468616E20EE
:1012400035302074696D65732C2065786974696E1A
:10125000672074686973206C6F6F702E005374611F
:101260006C6C656421204E65656420746F20676F27
:1012700020696E206F74686572206469726563749A
:10128000696F6E206E6F772C20616E6420726576B8
:1012900065727365206C6F6769632E00094F757402
:1012A00065722077656E7420646F776E207768654D
:1012B0006E20657870656374696E6720696E6E650F
:1012C000722E2020526576657273696E67206C6F8E
:1012D0006769632E0009496E6E657220646F776ED0
:1012E0002C2073746F7070696E67206669727374F6
:1012F000206C6F6F70004163747561746F724F750D
:1013000074657255704F70746F20697320646F77C5
:101310006E20616C72656164792E20204D6F766954
:101320006E6720697420757020616E6420496E6E4E
:10133000657220646F776E2E00426F746820617250
:10134000652075702C20636F756C6420676F206555
:10135000697468657220646972656374696F6E2E62
:10136000202043686F6F73696E6720496E6E6572E7
:1013700020446F776E2E002C204163747561746F6A
:1013800072446972656374696F6E496E6E6572440A
:101390006F776E4F757465725570203D20005374E1
:1013A000617274206F6620486F6D696E67204163BB
:1013B000747561746F722C20456E636F6465722062
:1013C0003D200046696E616C20524742204F757483
:1013D0003A09005269676874436F6C6F7250756C9C
:1013E0007365496E3A09004C656674436F6C6F72A1
:1013F00050756C7365496E3A09004661696C6564A5
:1014000020746F2067657420337820646973746179
:101410006E63652072656164696E677320696E2012
:1014200052656164436F6C6F7253656E736F727354
:101430002C20617373756D696E672063656E7465CA
:101440007265642E000941766752616E67653A09DC
:10145000000952616E6765333A09000952616E678F
:1014600065323A090052616E6765313A0900446F8E
:101470002066756C6C20574849544520726561643C
:10148000696E6700446F20616D6269656E74206CDF
:10149000696768742072656164696E672077697432
:1014A00068204E656F506978656C73204F46460022
:1014B000436F6C6F722073656E736F7273206E6F03
:1014C0007420696E7374616C6C65642C206465664D
:1014D00061756C74696E6720746F20524742282DC5
:1014E000312C2D312C2D3129000A4C6F61642043A1
:1014F000656C6C2053616D706C696E672066616904
:101500006C7572652C2052656164696E6773206E1C
:101510006F742077697468696E2037352E302067C4
:1015200072616D7320696E20302E31207365632ED9
:101530002053616D706C65732028313078204144F0
:10154000432076616C7565732066697273742C2014
:101550007468656E2031307820696E206772616D25
:1015600073293A0900094E65772053616D706C65E7
:10157000733A09000A54776F204261642053616D09
:10158000706C65732C20676F696E6720746F2072B2
:1015900065706C61636520776974682032206E65C0
:1015A000772073616D706C65733A09000A54776F28
:1015B000204261642053616D706C657320666169BF
:1015C0006C7572652C20676F696E6720746F20726E
:1015D00065706C61636520776974682032206E6580
:1015E000772073616D706C65733A09002A2A2A4668
:1015F00041494C45442A2A2A002A2A2A5041535359
:1016000045442A2A2A005461726765742069732050
:101610006C657373207468616E20302E31206720F2
:101620002F20313030206D672C20736F2074686953
:10163000732074657374200041766572616765205C
:10164000446966666572656E636520286D67293A30
:10165000200041766572616765204469666665723F
:10166000656E6365202867293A20004176657261BE
:101670006765205765696768743A20004D65617336
:101680007572696E67206C6F61642063656C6C2095
:101690006E6F6973652C203230302073616D706C11
:1016A00065732C2073616D706C657320706572209A
:1016B00072656164696E67203D200009616C69672D
:1016C0006E6D656E740900094765744F75746572B7
:1016D00052656C6F6164536C6F7409004368656395
:1016E0006B696E67204F7574657252656C6F6164CB
:1016F0004973416C69676E656428293A20476574AF
:101700004F7574657252656C6F6164536C6F744190
:1017100073466C6F6174090009616C69676E6D6571
:101720006E74090009476574496E6E657252656C86
:101730006F6164536C6F740900436865636B696E15
:101740006720496E6E657252656C6F6164497341C2
:101750006C69676E656428293A20476574496E6E26
:10176000657252656C6F6164536C6F744173466C43
:101770006F6174090009496E6E6572536C6F745F16
:1017800048696768203D2009004F75746572536C85
:101790006F745F48696768203D20090009496E6ED3
:1017A0006572536C6F745F4C6F77203D2009004F5A
:1017B00075746572536C6F745F4C6F77203D2009B0
:1017C0000009496E6E6572536C6F74203D200900EC
:1017D0004F75746572536C6F74203D200900094485
:1017E0006F6F724F70656E6564456E636F6465728E
:1017F00053746570706572506F735F4C6F77203DE6
:1018000020090009446F6F724F70656E6564456E04
:10181000636F64657253746570706572506F735F47
:1018200048696768203D200900446F6F724F7065FA
:101830006E6564456E636F64657253746570706540
:1018400072506F73203D2009000941637475617403
:101850006F724F7574657255704F70746F203D20B4
:101860000900094163747561746F72496E6E657227
:1018700055704F70746F203D200900094361726FED
:101880007573656C486F6D65203D200900094163E3
:10189000747561746F72506F73203D2009000941A7
:1018A0004D54323232506F736974696F6E0900099A
:1018B000414D54323033506F736974696F6E090053
:1018C000094361726F7573656C4472697665725015
:1018D0006F736974696F6E09004361726F75736528
:1018E0006C456E636F646572506F736974696F6E77
:1018F0000900484F4D494E4720444944204E4F541B
:1019000020574F524B2050524F5045524C59212096
:1019100020574520415245204E4F542041542054D9
:10192000484520484F4D454341524F5553454C2063
:101930004F50544F204255542053484F554C44204B
:10194000424521204F72207765206E6576657220B2
:101950006D6F766564206F6666206F6620697420FF
:1019600070726F7065726C792E204F72206D6F747B
:101970006F7220656E636F646572206F722063659D
:101980006E74657220656E636F6465722069732082
:101990006261642E20536565206D657373616765B0
:1019A000732061626F76652E00486F6D65436172CA
:1019B0006F7573656C2073657175656E63652073F3
:1019C00075636365737366756C2E00094163747586
:1019D00061746F724F7574657255704F70746F20BB
:1019E0003D200900094163747561746F72496E6E20
:1019F000657255704F70746F203D20090009436176
:101A0000726F7573656C486F6D65203D2009000924
:101A1000616363656C537465707065722E63757273
:101A200072656E74506F736974696F6E2829203DFA
:101A300020090053746570706572506F7330203DDB
:101A400020090053746570706572206D6F746F7239
:101A5000206E6F7420706F7765726564206F7220DE
:101A60006E6F74206D6F76696E67202D20636C6FCA
:101A700073652072656C6F616420646F6F722061A2
:101A80006E642074727920616761696E2E00094866
:101A90006F6D654361726F7573656C456E636F64DE
:101AA0006572506F736974696F6E203D200900097B
:101AB000486F6D654361726F7573656C53746570C3
:101AC000706572506F736974696F6E203D200900F4
:101AD000096669727374486F6D654361726F7573DF
:101AE000656C456E636F646572506F736974696F7E
:101AF0006E203D2009006669727374486F6D6543FE
:101B000061726F7573656C53746570706572506F38
:101B1000736974696F6E203D20090043656E7465BA
:101B2000724D6F746F72456E636F64657220697376
:101B3000206261642C2069742073686F756C642066
:101B400068617665206D6F766564203533206F722D
:101B5000203733202831302D393029206275742008
:101B6000696E7374656164206D6F7665642043658A
:101B70006E746572456E636F64657244696666650E
:101B800072656E6365203D20004361726F757365F9
:101B90006C4D6F746F72456E636F6465722069730C
:101BA000206261642C2069742073686F756C6420F6
:101BB00068617665206D6F7665642037352028363C
:101BC000352D3835292062757420696E737465610E
:101BD00064206D6F766564204361726F7573656C08
:101BE000456E636F646572446966666572656E63AF
:101BF00065203D20000943656E746572456E636F14
:101C0000646572446966666572656E6365203D2031
:101C10000900094361726F7573656C456E636F648B
:101C20006572446966666572656E6365203D20096C
:101C300000094F6666486F6D6543656E7465724551
:101C40006E636F646572506F736974696F6E203D67
:101C5000200900094F6666486F6D654361726F75B4
:101C600073656C456E636F646572506F73697469F8
:101C70006F6E203D200900094F6666486F6D655301
:101C8000746570706572506F736974696F6E203D12
:101C9000200900096669727374486F6D6543656E4B
:101CA000746572456E636F646572506F73697469B1
:101CB0006F6E203D200900096669727374486F6D6C
:101CC000654361726F7573656C456E636F646572B1
:101CD000506F736974696F6E203D20090043686519
:101CE000636B696E6720656E636F646572733A201B
:101CF0006669727374486F6D654361726F75736561
:101D00006C53746570706572506F736974696F6E2F
:101D1000203D2009005374616C6C696E6720646516
:101D20007465637465642C206469646E2774206D27
:101D30006F7665206174206C656173742032303079
:101D400020656E636F64657220636F756E747320B7
:101D5000696E2031207365632E00546F6F206D61B2
:101D60006E7920476F546F506F736974696F6E207E
:101D700072657472696573202D206572726F726965
:101D80006E67206F75742077697468206D69736D54
:101D900061746368206265747765656E20414D5497
:101DA00031303220616E6420414D543230332F4146
:101DB0004D54323232206F72206A75737420646918
:101DC000646E27742067657420746F207461726775
:101DD00065742E20476F546F506F736974696F6E0E
:101DE000204661696C7572652E005265686F6D6979
:101DF0006E67207375636365737366756C2C2067FB
:101E00006F696E6720746F20747279207468652022
:101E1000476F546F506F736974696F6E20616761AB
:101E2000696E2E005265686F6D696E672066616924
:101E30006C65642C20676976696E67207570206F09
:101E40006E20746865206361726F7573656C206DB8
:101E50006F76656D656E742E0043656E74657220D5
:101E6000656E636F646572206D69736D617463681C
:101E70002C20676F696E6720746F207265686F6DC4
:101E80006520746865206361726F7573656C20618D
:101E90006E642074727920616761696E0020616EE2
:101EA000642061637475616C206F662000526574F4
:101EB0007279696E6720746865206361726F7573EB
:101EC000656C206D6F76656D656E74206475652038
:101ED000746F2063656E74657220656E636F6465F0
:101EE00072206D69736D61746368202D20736C6955
:101EF0007070696E672063656E74657220656E63CD
:101F00006F6465722E204C696D6974206F662000C5
:101F10005265747279696E672074686520636172B6
:101F20006F7573656C206D6F76656D656E7420647A
:101F3000756520746F2073746570706572206D6FA5
:101F4000746F7220656E636F646572206D69736D66
:101F500061746368202D206C696B656C79207374E3
:101F6000616C6C6564206D6F746F722C20746F6F80
:101F70002068656176792C20746F6F206D756368B9
:101F8000206672696374696F6E2C206F72206261C3
:101F900064206D6F746F72206D6F756E7420616C4C
:101FA00069676E6D656E742F737072696E672E202F
:101FB0004C696D6974206F6620323020616E642038
:101FC00061637475616C206F662000414D5432323C
:101FD0003220456E636F64657220506F7369746957
:101FE0006F6E204572726F72206F662000546172AE
:101FF00067657420414D5432323220456E636F6400
:10200000657220506F736974696F6E206F6620006F
:1020100043757272656E7420414D543232322045E0
:102020006E636F64657220506F736974696F6E20A0
:102030006F662000414D5432303320456E636F642B
:10204000657220506F736974696F6E204572726F8C
:1020500072206F66200054617267657420414D5490
:1020600032303320456E636F64657220506F736940
:1020700074696F6E206F66200043757272656E74AE
:1020800020414D5432303320456E636F64657220B9
:10209000506F736974696F6E206F662000537465AA
:1020A0007070657220456E636F64657220506F7347
:1020B0006974696F6E204572726F72206F662000BE
:1020C00043757272656E742053746570706572200A
:1020D000456E636F64657220506F736974696F6ECB
:1020E000206F6620005374657070657220447269B9
:1020F00076657220506F736974696F6E20457272D5
:102100006F72206F66200043757272656E74205383
:102110007465707065722044726976657220506FC4
:10212000736974696F6E206F6620004361726F750A
:1021300073656C206D6F76656D656E742066616980
:102140006C6564202D2073746F7070696E672E202B
:1021500020456974686572206E6F206D6F76656DBD
:10216000656E7420617420616C6C20283C3520738E
:10217000746570732073696E6365206C617374207D
:10218000353030206D736563292C206F7220706F9D
:10219000736974696F6E20646576696174696F6EC6
:1021A0002066726F6D2077686572652073686F7541
:1021B0006C642062652076732077686572652061A3
:1021C0007265206261736564206F6E20656E636F57
:1021D0006465722E0046696E616C20526574727976
:1021E0002023342C206C6F776572696E67206163E1
:1021F00063656C65726174696F6E20616E642072D4
:10220000616973696E67206D6F76652063757272A0
:10221000656E742E0052657472792023332C206C05
:102220006F776572696E6720616363656C65726163
:1022300074696F6E20616E642072616973696E6784
:10224000206D6F76652063757272656E742E005214
:10225000657472792023322C206C6F776572696EF9
:102260006720616363656C65726174696F6E20617C
:102270006E642072616973696E67206D6F76652088
:1022800063757272656E742E0052657472792023C4
:10229000312C206C6F776572696E672061636365AE
:1022A0006C65726174696F6E20616E642072616921
:1022B00073696E67206D6F76652063757272656EE7
:1022C000742E002E2044697374616E636546726FCC
:1022D0006D546172676574203D2000292043616C54
:1022E0006C65642C2043757272656E7420506F7338
:1022F0006974696F6E203D2000476F546F506F7393
:102300006974696F6E456E636F64657228002E2074
:1023100044697374616E636546726F6D5461726770
:102320006574203D2000292043616C6C65642C207D
:1023300043757272656E7420506F736974696F6E45
:10234000203D2000476F546F506F736974696F6E42
:10235000280044697374616E636546726F6D5461E1
:10236000726765744D696E7573203D20090044697C
:102370007374616E636546726F6D546172676574E4
:10238000506C7573203D20090044697374616E635D
:102390006546726F6D546172676574203D20090057
:1023A00043757272656E74506F736974696F6E20D5
:1023B0003D200900546172676574506F73697469D8
:1023C0006F6E203D200900547279696E6720746F2A
:1023D00020486F6D654361726F7573656C2C207357
:1023E000696E6365206974206861736E2774207359
:1023F00075636365737366756C6C7920686F6D6562
:1024000064207965742E00496E76616C696420736E
:102410006C6F74206E756D62657220666F72203508
:102420003020736C6F742064697370656E736572AD
:102430003A20536C6F742000496E76616C69642099
:10244000736C6F74206E756D62657220666F72209A
:10245000353020736C6F742064697370656E7365BA
:102460007200656E636F6465725374657070657237
:10247000506F73206F7574206F662072616E676590
:10248000202D2073657474696E67206E65772065F2
:102490006E636F64657253746570706572506F73AC
:1024A000206F66200043757272656E74506F736999
:1024B00074696F6E206F7574206F662072616E672D
:1024C00065202D2073657474696E67206E657720B2
:1024D00043757272656E7420506F736974696F6EA4
:1024E000206F662000656E636F646572537465705B
:1024F000706572506F73206F7574206F6620726103
:102500006E6765202D2073657474696E67206E6533
:102510007720656E636F6465725374657070657261
:10252000506F73206F66200043757272656E745031
:102530006F736974696F6E206F7574206F66207297
:10254000616E6765202D2073657474696E67206EF7
:1025500065772043757272656E7420506F7369746D
:10256000696F6E206F6620004361726F7573656CD2
:10257000206D6F76656D656E74206661696C65644B
:102580002E2020536C697070696E672063757272BB
:10259000656E74207761732000414D5432323220D1
:1025A000456E636F64657220506F736974696F6EF6
:1025B000204572726F72206F6620005461726765E9
:1025C0007420414D5432323220456E636F6465721F
:1025D00020506F736974696F6E206F6620004375B9
:1025E0007272656E7420414D5432323220456E63F2
:1025F0006F64657220506F736974696F6E206F66C7
:102600002000414D5432303320456E636F64657253
:1026100020506F736974696F6E204572726F7220FB
:102620006F66200054617267657420414D543230EA
:102630003320456E636F64657220506F73697469EF
:102640006F6E206F66200043757272656E74204154
:102650004D5432303320456E636F64657220506F85
:10266000736974696F6E206F6620005374657070B3
:10267000657220456E636F64657220506F73697474
:10268000696F6E204572726F72206F66200043750D
:102690007272656E74205374657070657220456E39
:1026A000636F64657220506F736974696F6E206F19
:1026B0006620005374657070657220447269766597
:1026C0007220506F736974696F6E204572726F72F9
:1026D000206F66200043757272656E7420537465B6
:1026E000707065722044726976657220506F7369EC
:1026F00074696F6E206F6620004361726F75736539
:102700006C206D6F76656D656E74206661696C65B1
:10271000642C206D75737420686176652073746114
:102720006C6C65642E20204D6F7665204375727247
:10273000656E742074686174206974206661696CC8
:1027400065642061742077617320002E20446973D2
:1027500074616E636546726F6D5461726765742053
:102760003D2000292043616C6C65642C2043757208
:1027700072656E7420506F736974696F6E203D20AE
:1027800000476F546F506F736974696F6E456E6365
:102790006F64657228002E2044697374616E6365EE
:1027A00046726F6D546172676574203D2000292068
:1027B00043616C6C65642C2043757272656E742085
:1027C000506F736974696F6E203D2000476F546FBE
:1027D000506F736974696F6E280044697374616E19
:1027E000636546726F6D5461726765744D696E758D
:1027F00073203D20090044697374616E63654672FD
:102800006F6D546172676574506C7573203D20095B
:102810000044697374616E636546726F6D546172D2
:10282000676574203D20090043757272656E7450AF
:102830006F736974696F6E203D200900546172677F
:102840006574506F736974696F6E203D2009003A9A
:1028500024005E756E6A616D5F6361726F7573658A
:102860006C5F726573703A327C6661696C75726513
:102870003A003A24005E756E6A616D5F6361726F43
:102880007573656C5F726573703A327C6661696CF2
:102890007572653A003A24005E756E6A616D5F6319
:1028A00061726F7573656C5F726573703A327C73B9
:1028B0007563636573733A003A24005E756E6A61EE
:1028C0006D5F6361726F7573656C5F726573703A8B
:1028D000327C737563636573733A00656E636F640E
:1028E000657253746570706572506F73206F757484
:1028F000206F662072616E6765202D207365747489
:10290000696E67206E657720656E636F64657253CC
:10291000746570706572506F73206F662000437528
:102920007272656E74506F736974696F6E206F7523
:1029300074206F662072616E6765202D2073657448
:1029400074696E67206E65772043757272656E7468
:1029500020506F736974696F6E206F662000656E1A
:10296000636F64657253746570706572506F732025
:102970006F7574206F662072616E6765202D2073FD
:10298000657474696E67206E657720656E636F6429
:10299000657253746570706572506F73206F662036
:1029A0000043757272656E74506F736974696F6EEF
:1029B000206F7574206F662072616E6765202D2010
:1029C00073657474696E67206E65772043757272E3
:1029D000656E7420506F736974696F6E206F662026
:1029E000004361726F7573656C20737465707065F8
:1029F0007220656E636F646572206572726F722EED
:102A00002020536C697070696E67206375727265FF
:102A10006E74207761732000414D5432323220456C
:102A20006E636F64657220506F736974696F6E2096
:102A30004572726F72206F66200054617267657410
:102A400020414D5432323220456E636F64657220EE
:102A5000506F736974696F6E206F662000437572E2
:102A600072656E7420414D5432323220456E636F70
:102A700064657220506F736974696F6E206F662091
:102A800000414D5432303320456E636F64657220CF
:102A9000506F736974696F6E204572726F72206F28
:102AA00066200054617267657420414D54323033A2
:102AB00020456E636F64657220506F736974696F2F
:102AC0006E206F66200043757272656E7420414DF2
:102AD0005432303320456E636F64657220506F73DB
:102AE0006974696F6E206F6620005374657070653D
:102AF0007220456E636F64657220506F73697469EC
:102B00006F6E204572726F72206F6620004375727F
:102B100072656E74205374657070657220456E63C3
:102B20006F64657220506F736974696F6E206F6691
:102B30002000537465707065722044726976657206
:102B400020506F736974696F6E204572726F7220C6
:102B50006F66200043757272656E742053746570E1
:102B60007065722044726976657220506F73697463
:102B7000696F6E206F662000556E6A616D436172E9
:102B80006F7573656C206D6F76656D656E7420660C
:102B900061696C65642C206D75737420686176655D
:102BA000207374616C6C65642E20204D6F766520F7
:102BB00043757272656E7420746861742069742044
:102BC0006661696C65642061742077617320002EF2
:102BD0002044697374616E636546726F6D546172EF
:102BE000676574203D2000292043616C6C65642C6E
:102BF0002043757272656E7420506F736974696FCB
:102C00006E203D2000476F546F506F736974696F79
:102C10006E456E636F64657228002E20446973747C
:102C2000616E636546726F6D546172676574203DB5
:102C30002000292043616C6C65642C2043757272FE
:102C4000656E7420506F736974696F6E203D20004B
:102C5000476F546F506F736974696F6E28004469D1
:102C60007374616E636546726F6D546172676574EB
:102C7000203D20090043757272656E74506F736950
:102C800074696F6E203D200900546172676574504D
:102C90006F736974696F6E203D200900416D6F7517
:102CA0006E745F44697370656E7365643A090057AA
:102CB00065696768742041667465722031207365A8
:102CC000633A0900576569676874204166746572E4
:102CD0003A0900446F6E6500526576657273696EDD
:102CE0006700576569676874204265666F72653A68
:102CF00009005E6C656674646F6F725F6F70656EFD
:102D000065643A307C3A24005E6C656674646F6F6B
:102D1000725F6F70656E65643A307C3A24005E6C59
:102D2000656674646F6F725F636C6F7365643A306D
:102D30007C3A24005E6C656674646F6F725F636CCE
:102D40006F7365643A307C3A24005E726967687418
:102D5000646F6F725F6F70656E65643A307C3A24A1
:102D6000005E7269676874646F6F725F6F70656E22
:102D700065643A307C3A24005E7269676874646FF7
:102D80006F725F636C6F7365643A307C3A24005EE7
:102D90007269676874646F6F725F636C6F73656488
:102DA0003A307C3A240052464944207261772064CC
:102DB0006174613A20005246494420636172642084
:102DC0006E756D6265723A20002C20466F756E64D8
:102DD000203D2000524649444C6F6F7020004368EC
:102DE00065636B696E6720524649442053656E7374
:102DF0006F723A00206F6620000A0A4379636C659F
:102E000020005E646F6F725F6F70656E65643A304C
:102E10007C3A24005E646F6F725F6F70656E6564EC
:102E20003A307C3A24005E646F6F725F636C6F733C
:102E300065643A307C3A24005E646F6F725F636C45
:102E40006F7365643A307C3A240052657363616E37
:102E5000204C6566746F766572203D200052657364
:102E600063616E2057726170203D2000526573636C
:102E7000616E204C6566746F766572203D2000524D
:102E8000657363616E204E6F2057726170203D2024
:102E90000052657363616E204C6566746F7665726F
:102EA000203D200052657363616E2057726170206F
:102EB0003D200052657363616E204C6566746F76C9
:102EC0006572203D200052657363616E204E6F2055
:102ED00057726170203D200052657363616E20411E
:102EE0006C6C203D20005E70617573653A005E7207
:102EF000657365743A005E63616E63656C3A005E8B
:102F000070617573653A005E72657365743A005E50
:102F100063616E63656C3A003A24005E6F76657299
:102F20003A317C003A24005E6F7665723A317C005B
:102F30003A24005E6D6973733A317C003A24005E76
:102F40006D6973733A317C003A24005E7365745F77
:102F50007363616C655F6C6564735F726573703A0F
:102F6000327C737563636573733A003A24005E7351
:102F700065745F7363616C655F6C6564735F7265D4
:102F800073703A327C737563636573733A0073656B
:102F9000745F7363616C655F6C656473006F666614
:102FA0000066696E697368656400616C65727400BF
:102FB00064697370656E73696E670064697370002D
:102FC000626F776C006163746976650069646C6533
:102FD0000056616C7565207061737365643D0049CE
:102FE0006E207365745F7363616C655F6C65647399
:102FF00021003A24005E64656D6F5F726573703AFC
:10300000327C737563636573733A003A24005E64BF
:10301000656D6F5F726573703A327C73756363655B
:1030200073733A0064656D6F0056616C756520704E
:1030300061737365643D00496E2064656D6F206641
:10304000756E6374696F6E21005E70696E673A30E9
:103050007C3A24005E70696E673A307C3A24004105
:103060006D6F756E745F44697370656E7365643AF5
:10307000090057656967687420416674657220317C
:10308000207365633A090057656967687420416673
:103090007465723A0900446F6E6500526576657218
:1030A00073696E6700576569676874204265666F6B
:1030B00072653A0900537465707065722050756DC1
:1030C000702044726976657220506F736974696FFD
:1030D0006E204572726F72206F66200043757272A7
:1030E000656E742050756D702053746570706572D4
:1030F0002044726976657220506F736974696F6ECF
:10310000206F6620002E2044697374616E636546EB
:10311000726F6D546172676574203D2000292043F1
:10312000616C6C65642C2043757272656E742050FE
:103130006F736974696F6E203D2000476F546F5044
:103140006F736974696F6E2800537465707065726F
:103150002050756D702044726976657220506F73CF
:103160006974696F6E204572726F72206F662000FD
:1031700043757272656E742050756D70205374655E
:10318000707065722044726976657220506F736941
:1031900074696F6E206F6620002E2044697374611D
:1031A0006E636546726F6D546172676574203D2071
:1031B00000292043616C6C65642C20437572726534
:1031C0006E7420506F736974696F6E203D200047E4
:1031D0006F546F506F736974696F6E28003A2400E2
:1031E0005E64697370656E73655F74696D65645F55
:1031F000726573703A327C737563636573733A00FA
:103200003A24005E64697370656E73655F74696DFE
:1032100065645F726573703A327C7375636365735E
:10322000733A0064697370656E73655F74696D6588
:103230006400416674657220686F6D652061637417
:1032400075616C2C20736574706F696E742C2070BE
:10325000776D3A00456E64696E67204163747561ED
:10326000746F722061637475616C2C207365747067
:103270006F696E742C2070776D3A005374617274AC
:10328000696E67204163747561746F722061637445
:1032900075616C2C20736574706F696E742C20706E
:1032A000776D3A0056616C75652070617373656463
:1032B0003D0056616C7565207061737365643D00F7
:1032C000496E2064697370656E73652074696D65FD
:1032D0006421005E646F6F725F756E6C6F636B5F0D
:1032E000726573703A317C737563636573733A24E6
:1032F000005E646F6F725F756E6C6F636B5F72659B
:1033000073703A317C737563636573733A24006438
:103310006F6F725F756E6C6F636B006C6F636B6564
:103320006400756E6C6F636B6564006C6F636B65D6
:103330006400756E6C6F636B656400203D20004116
:103340006674657220556E6C6F636B696E672C20B6
:1033500052656C6F6164446F6F72556E6C6F636B16
:1033600053656E736550696E203D2000203D20003E
:103370004265666F726520556E6C6F636B696E6730
:103380002C2052656C6F6164446F6F72556E6C6F68
:10339000636B53656E736550696E203D2000496E06
:1033A00020646F6F725F756E6C6F636B2066756EF5
:1033B0006374696F6E21005E636162696E65745F3C
:1033C0006C6F636B5F726573703A317C73756363A6
:1033D0006573733A24005E636162696E65745F6C45
:1033E0006F636B5F726573703A317C73756363658D
:1033F00073733A2400636162696E65745F6C6F6316
:103400006B004166746572204C6F636B696E672C4C
:103410002045787465726E616C446F6F72556E6C86
:103420006F636B53656E736550696E3A2000426539
:10343000666F7265204C6F636B696E672C204578F0
:103440007465726E616C446F6F72556E6C6F636BF6
:1034500053656E736550696E3A2000496E20636152
:1034600062696E65745F6C6F636B2066756E637402
:10347000696F6E21005E636162696E65745F756E6F
:103480006C6F636B5F726573703A317C73756363E5
:103490006573733A24005E636162696E65745F757B
:1034A0006E6C6F636B5F726573703A317C737563BA
:1034B000636573733A2400636162696E65745F7556
:1034C0006E6C6F636B00416674657220556E6C6F35
:1034D000636B696E672C2045787465726E616C440D
:1034E0006F6F72556E6C6F636B53656E7365506969
:1034F0006E3A20004265666F726520556E6C6F6390
:103500006B696E672C2045787465726E616C446FD0
:103510006F72556E6C6F636B53656E736550696E39
:103520003A2000496E20636162696E65745F756E52
:103530006C6F636B2066756E6374696F6E210063D8
:103540006C6F736564006F70656E003A2400636C85
:103550006F736564006F70656E005E6C65667464A1
:103560006F6F725F7374617475735F726573703AB5
:10357000317C003A24005E6C656674646F6F725F24
:103580007374617475735F726573703A317C006C2B
:10359000656674646F6F725F737461747573004CE9
:1035A000656674446F6F724F70656E203D200063D6
:1035B0006C6F736564006F70656E003A2400636C15
:1035C0006F736564006F70656E005E726967687422
:1035D000646F6F725F7374617475735F726573701B
:1035E0003A317C003A24005E7269676874646F6FD8
:1035F000725F7374617475735F726573703A317C56
:10360000007269676874646F6F725F737461747558
:1036100073005269676874446F6F724F70656E20F3
:103620003D200072656D6F76656400696E7365722A
:10363000746564003A240072656D6F766564006994
:103640006E736572746564005E77697065725F732E
:1036500074617475735F726573703A317C003A24DB
:10366000005E77697065725F7374617475735F7201
:103670006573703A317C0077697065725F7374614D
:10368000747573005769706572496E7365727465FD
:1036900064203D200072656D6F76656400696E730D
:1036A0006572746564003A240072656D6F766564B6
:1036B00000696E736572746564005E64726970742B
:1036C0007261795F7374617475735F726573703A58
:1036D000317C003A24005E64726970747261795FB3
:1036E0007374617475735F726573703A317C0064D2
:1036F000726970747261795F737461747573004478
:1037000072697054726179496E7365727465642070
:103710003D20003A24005E706F736974696F6E5FBC
:1037200063616E69737465725F7265706C61636505
:103730005F726573703A327C6661696C7572653A66
:10374000003A24005E706F736974696F6E5F636125
:103750006E69737465725F7265706C6163655F72C8
:103760006573703A327C6661696C7572653A003ACD
:1037700024005E706F736974696F6E5F63616E6958
:10378000737465725F7265706C6163655F72657397
:10379000703A327C737563636573733A003A240040
:1037A0005E706F736974696F6E5F63616E69737465
:1037B00065725F7265706C6163655F726573703AA4
:1037C000327C737563636573733A00706F736974E9
:1037D000696F6E5F63616E69737465725F72657045
:1037E0006C6163650056616C75652070617373650B
:1037F000643D00496E20706F736974696F6E206359
:10380000616E6973746572207265706C61636520A6
:1038100066756E6374696F6E2100496E2070617504
:1038200073652066756E6374696F6E21005E7265E4
:103830007363616E5F737461727465643A307C3A6D
:1038400024005E72657363616E5F73746172746588
:10385000643A307C3A24005E72657363616E5F6621
:10386000696E69736865643A307C3A24005E7265FB
:103870007363616E5F66696E69736865643A307C14
:103880003A24005E72657363616E5F63616E697393
:10389000746572735F726573703A317C6661696CCE
:1038A0007572653A24005E72657363616E5F636171
:1038B0006E6973746572735F726573703A317C669A
:1038C00061696C7572653A24004861766557655385
:1038D00075636365737366756C6C79486F6D656449
:1038E0004361726F7573656C4265666F7265203DEA
:1038F0002000486F6D654163747561746F72537514
:1039000063636573734F6E53746172747570203D99
:10391000200053616665546F526F74617465436132
:10392000726F7573656C2829203D200052656C6F9D
:103930006164446F6F724F70656E203D20005E724F
:10394000657363616E5F63616E6973746572735FE3
:10395000726573703A317C737563636573733A246F
:10396000005E72657363616E5F63616E6973746537
:1039700072735F726573703A317C737563636573DC
:10398000733A24005E72657363616E5F63616E6992
:1039900073746572735F726573703A317C666169C6
:1039A0006C7572653A24005E72657363616E5F6365
:1039B000616E6973746572735F726573703A317C9E
:1039C0006661696C7572653A24002152656C6F619D
:1039D00064446F6F724F70656E20262620536166B7
:1039E00065546F526F746174654361726F7573656E
:1039F0006C282920262620486F6D65416374756107
:103A0000746F72537563636573734F6E5374617231
:103A10007475702026262048617665576553756356
:103A20006365737366756C6C79486F6D656443612B
:103A3000726F7573656C4265666F7265203D20001C
:103A4000556E61626C6520746F2072657363616E80
:103A50002063616E69737465727320647565207488
:103A60006F207468697320636865636B20666169A1
:103A70006C696E673A00547279696E6720746F20C2
:103A8000486F6D654361726F7573656C2C20736947
:103A90006E6365206974206861736E277420737586
:103AA000636365737366756C6C7920686F6D6564AC
:103AB000207965742E00496E2072657363616E5FB4
:103AC00063616E6973746572732066756E63746981
:103AD0006F6E2100626C61636B00776869746500CA
:103AE0005E72657365745F726573703A317C73756D
:103AF00063636573733A24005E72657365745F7205
:103B00006573703A317C737563636573733A24002F
:103B1000496E2072657365742066756E6374696F93
:103B20006E21005E63616E63656C5F726573703AEF
:103B3000317C737563636573733A24005E63616EF1
:103B400063656C5F726573703A317C73756363652E
:103B500073733A2400496E2063616E63656C20665E
:103B6000756E6374696F6E2100496E20726573759E
:103B70006D655F66756E6374696F6E2066756E63E2
:103B800074696F6E21003A24005E73797374656DF9
:103B90005F636865636B5F726573703A317C00497F
:103BA0006E2073797374656D5F636865636B2066FF
:103BB000756E6374696F6E21003A24005E737461E0
:103BC0007475735F726573703A317C003A24005EDD
:103BD0007374617475735F726573703A317C0052EF
:103BE000656C6F6164446F6F72556E6C6F636B537D
:103BF000656E736550696E203D200057697065726F
:103C0000496E736572746564203D200009416374D8
:103C10007561746F724F7574657255704F70746F03
:103C2000203D2000094163747561746F72496E6EA6
:103C3000657255704F70746F203D2000416374753C
:103C400061746F72456E636F646572203D20004140
:103C5000313420414D49532D3330353433205664AF
:103C6000642052656C6F6164446F6F72436C6F7354
:103C70006564203D200043757272656E742057653F
:103C8000696768743A0900496E20737461747573CA
:103C90005F66756E6374696F6E2066756E637469B6
:103CA0006F6E21005E626F776C5F7765696768741D
:103CB0005F726573703A327C737563636573733AD0
:103CC000005E626F776C5F7765696768745F7265C5
:103CD00073703A327C737563636573733A005E6226
:103CE0006F776C5F7765696768745F726573703A48
:103CF000327C6661696C7572653A005E626F776CE2
:103D00005F7765696768745F726573703A327C6665
:103D100061696C7572653A002C2053616D706C6539
:103D20007320776572653A2000426F776C20776563
:103D300069676874204E4F5420534554544C454491
:103D40002C20736F2072657475726E204661696CE9
:103D5000757265206275742072657475726E20418B
:103D600062736F6C75746557656967687420616EFE
:103D7000797761792C204162736F6C757465576532
:103D800069676874203D20004E657720524649449B
:103D9000207461672064657465637465642C2074A5
:103DA000686579206D757374206861766520737716
:103DB000617070656420626F776C732C20736F2064
:103DC0007765206E65656420746F2073656E64206E
:103DD000626F776C5F706C61636564206E6F7720D3
:103DE0006265666F726520626F776C5F7765696781
:103DF00068745F726573702E005246494420746186
:103E00006773206D617463682C206E6F206E65652A
:103E10006420746F207468726F7720626F776C5FB4
:103E2000706C61636564206576656E7400436C65D3
:103E30006172696E6720616C6C20496E697469619A
:103E40006C4163747561746F72506F736974696FDC
:103E50006E735B5D20616E642053657269616C4EA8
:103E6000756D6265724861734265656E4469737011
:103E7000656E7365645B5D2E00206F7574206F66E0
:103E800020626F756E64732C2063616E6E6F742098
:103E9000736574207468697320696E207468652086
:103EA000454550524F4D2E00736C6F745F6E756DAB
:103EB00062657220002920746F20005D2028736CD9
:103EC0006F74200053657474696E6720496E69745D
:103ED00069616C4163747561746F72506F7369745A
:103EE000696F6E735B004166746572205363616C29
:103EF000655F43616C6962726174696F6E3A20003C
:103F00004265666F7265205363616C655F43616CE7
:103F10006962726174696F6E3A20004166746572FD
:103F2000205363616C655F43616C6962726174699F
:103F30006F6E5F5765696768743A20004265666F07
:103F40007265205363616C655F43616C6962726185
:103F500074696F6E5F5765696768743A20004166DF
:103F6000746572205363616C655F43616C69627252
:103F70006174696F6E5F323030673A200042656667
:103F80006F7265205363616C655F43616C69627237
:103F90006174696F6E5F323030673A200041667439
:103FA0006572205363616C655F43616C6962726125
:103FB00074696F6E5F5A65726F3A20004265666F72
:103FC0007265205363616C655F43616C6962726105
:103FD00074696F6E5F5A65726F3A20004661696C52
:103FE000656420746F2067657420357820676F6F73
:103FF000642064697374616E6365207265616469CD
:104000006E677320696E2063616C696272617465AA
:104010005F77686974655F626F776C282900094172
:10402000766752616E67653A09000952616E67658D
:10403000353A09000952616E6765343A0900095240
:10404000616E6765333A09000952616E6765323AFD
:10405000090052616E6765313A09004661696C6515
:104060006420746F2067657420357820676F6F64F3
:104070002064697374616E63652072656164696E42
:10408000677320696E2063616C6962726174655F39
:10409000626C61636B5F626F776C282900094176FF
:1040A0006752616E67653A09000952616E6765354E
:1040B0003A09000952616E6765343A090009526194
:1040C0006E6765333A09000952616E6765323A09D5
:1040D0000052616E6765313A090046696E616C2075
:1040E000656E636F646572203D2000416674657281
:1040F000206272616B652C20656E636F646572204F
:104100003D20004465736972656420706F73697443
:10411000696F6E203D20004163747561746F725247
:10412000657475726E546F486F6D65466173742C5B
:10413000204265666F726520456E636F646572200C
:104140003D2000436865636B2063656E7465722073
:10415000656E636F64657220666F72206C6F6F733B
:10416000656E6573732F736C697070696E67202D4F
:1041700020656974686572207468652079656C6C67
:104180006F7720696E736572742068617320636F46
:104190006D65206C6F6F73652066726F6D2074683B
:1041A000652073686166742C2068617320706F707D
:1041B000706564206F7574206F662063656E74652A
:1041C0007220656E636F6465722C206F7220746854
:1041D000652077686F6C6520656E636F646572201B
:1041E000697473656C662068617320746F6F206DED
:1041F00075636820776967676C6520746F206974E0
:10420000206F722069736E27742073656174656412
:104210002077656C6C2E002A2A2A4641494C454479
:104220002A2A2A002A2A2A5041535345442A2A2A54
:10423000004174206C65617374206F6E65206F6639
:1042400020746865206361726F7573656C206D6F93
:1042500076656D656E7473206661696C65642C208B
:10426000736F2074686973206973206120666169C7
:104270006C75726520616E64206E6F7420612076AB
:10428000616C69642063656E74657220656E636F2E
:1042900064657220736C697070696E6720746573F1
:1042A000742E002A2A2A4641494C45442A2A2A00CB
:1042B000546869732076616C75652073686F756CDE
:1042C00064206265203C20353020746F20656E7359
:1042D000757265206E6F20736C697070696E672EE1
:1042E00000446966666572656E636520696E206369
:1042F000656E74657220656E636F64657220706FA1
:10430000736974696F6E207768656E206D6F76696A
:104310006E6720636C6F636B7769736520767320BB
:10432000636F756E746572636C6F636B77697365C9
:10433000206973200043656E74657220656E636F3B
:1043400064657220506F736974696F6E4174536C49
:104350006F743130434357203D200043656E7465D0
:104360007220656E636F64657220506F7369746943
:104370006F6E4174536C6F7431304357203D200091
:104380000A43656E74657220656E636F64657220A2
:10439000506F736974696F6E4174486F6D65203D2D
:1043A00020004F766572616C6C20726573756C7459
:1043B000203D202A2A2A4641494C45442A2A2A00DF
:1043C0004F766572616C6C20726573756C74203DFC
:1043D000202A2A2A5041535345442A2A2A004E753E
:1043E0006D626572206F66206D6F76656D656E74A7
:1043F000206661696C75726573203D20004E756D95
:10440000626572206F66206D6F76656D656E7420D3
:1044100072657472696573203D2000206379636C56
:1044200065732E000A0A46696E69736865642043E5
:1044300079636C652054657374206F6620006E7517
:104440006D4661696C75726573203D20006E756DF7
:1044500052657472696573203D200053756363650E
:104460007373203D200067476F546F506F736974FA
:10447000696F6E52657472696573203D2000476FE5
:10448000546F44697370656E7365536C6F74203D2F
:1044900020006E756D4661696C75726573203D20F4
:1044A000006E756D52657472696573203D2000530E
:1044B000756363657373203D200067476F546F50C9
:1044C0006F736974696F6E52657472696573203DAC
:1044D0002000476F546F44697370656E7365536C49
:1044E0006F74203D20002054696D6573004379632B
:1044F0006C652054657374205246494420446F6EA5
:10450000652C2052464944204D697373696E6720BB
:10451000002054696D6573004379636C65205465B0
:104520007374205246494420446F6E652C205246D5
:1045300049442044657465637465642000205469AF
:104540006D6573002054696D65732C205246494493
:10455000204D697373696E6720004379636C652031
:104560005465737420526573756C747320536F2097
:10457000466172202D20524649442044657465638B
:10458000746564200020636F6D706C657465642CC5
:1045900020486F7572732052656D61696E696E6730
:1045A000203D2000206F7574206F662000437963E2
:1045B0006C65200052464944204E6F742044657457
:1045C000656374656421005E706F7765725F6379FF
:1045D000636C655F70635F726573703A317C73758D
:1045E00063636573733A24005E706F7765725F630F
:1045F00079636C655F70635F726573703A317C7369
:104600007563636573733A2400414C4552543A20F4
:10461000506F776572204379636C696E67205043F1
:1046200021005E706F7765725F6379636C655F729E
:104630006F757465725F726573703A317C73756300
:10464000636573733A24005E706F7765725F637998
:10465000636C655F726F757465725F726573703AD3
:10466000317C737563636573733A2400414C455222
:10467000543A20506F776572204379636C696E6796
:1046800020526F7574657221005E77697065725F84
:1046900072656D6F7665643A307C3A24005E7769A6
:1046A0007065725F72656D6F7665643A307C3A242E
:1046B000005E77697065725F696E736572746564B8
:1046C0003A307C3A24005E77697065725F696E7378
:1046D00065727465643A307C3A24005E6472697075
:1046E000747261795F72656D6F7665643A307C3A99
:1046F00024005E64726970747261795F72656D6FB7
:104700007665643A307C3A24005E64726970747233
:1047100061795F696E7365727465643A307C3A24BE
:10472000005E64726970747261795F696E7365723C
:104730007465643A307C3A240066696E6973686512
:104740006400616C6572740064697370656E73698E
:104750006E6700626F776C006163746976650069EB
:10476000646C65003A24005E6E61636B3A317C00D4
:104770003A24005E6E61636B3A317C00706F77653E
:10478000725F6379636C655F726F757465720070D8
:104790006F7765725F6379636C655F7063006379DF
:1047A000636C655F746573745F72666964006379D6
:1047B000636C655F746573745F616C6C00637963CF
:1047C0006C655F746573745F6163747561746F7237
:1047D00073006379636C655F746573745F636172A2
:1047E0006F7573656C00746573745F7363616C657A
:1047F0005F6E6F69736500746573745F6361726F78
:104800007573656C5F656E636F6465727300756E5A
:104810006A616D5F6361726F7573656C006275725A
:104820006E5F696E5F6361726F7573656C0074654E
:1048300073745F6361726F7573656C5F66726963D1
:1048400074696F6E007A65726F5F63656E7465720E
:104850005F656E636F646572007365745F7266692D
:10486000645F6F7665727269646500646563726522
:104870006173655F70616E656C5F627269676874B1
:104880006E65737300696E6372656173655F7061F5
:104890006E656C5F6272696768746E6573730073CE
:1048A00065745F70616E656C5F6272696768746E73
:1048B000657373006361726F7573656C5F706F739E
:1048C0006974696F6E006163747561746F725F63A0
:1048D0006F756E746572636C6F636B776973650077
:1048E0006163747561746F725F636C6F636B77691A
:1048F0007365006163747561746F725F726574755E
:10490000726E746F686F6D65666173747069640050
:104910006163747561746F725F72657475726E74C1
:104920006F686F6D6566617374007365745F616352
:10493000747561746F725F706F736974696F6E0004
:104940006163747561746F725F706F736974696F9E
:104950006E006163747561746F725F686F6D65007E
:1049600063616C6962726174655F626C61636B5FE5
:10497000626F776C0063616C6962726174655F7706
:10498000686974655F626F776C007365745F626CF1
:1049900061636B5F626F776C5F64697374616E6390
:1049A00065007365745F77686974655F626F776CC3
:1049B0005F64697374616E6365007365745F7363CC
:1049C000616C655F63616C6962726174696F6E00CE
:1049D0007365745F696E697469616C5F6163747536
:1049E00061746F725F706F736974696F6E00636C6E
:1049F0006561725F6163747561746F725F706F730C
:104A00006974696F6E730031323334353637383933
:104A1000303132333435363738393031323334355A
:104A2000363738393031323334353637383930313A
:104A30003233343536373839300063616C6962722D
:104A40006174655F7363616C655F73686966745FE9
:104A50007A65726F0063616C6962726174655F731D
:104A600063616C650076657273696F6E00626F7763
:104A70006C5F77656967687400626F776C5F7374E9
:104A800061747573007374617475730073797374F2
:104A9000656D5F636865636B00666F726365007365
:104AA00063616E5F616C6C00726573756D65006348
:104AB000616E63656C0072657365745F6361726FCC
:104AC0007573656C007265736574007365745F64FB
:104AD000656D6F5F6D6F6465007365745F686173AA
:104AE0005F72656C6F61645F646F6F725F6C6F6340
:104AF0006B007365745F626F776C5F617265615F95
:104B0000636F6C6F725F7479706500706F77657238
:104B10005F736176655F6D6F646500726573636175
:104B20006E5F63616E697374657273007061757333
:104B30006500706F736974696F6E5F63616E69732E
:104B40007465725F7265706C616365007363616E3A
:104B50005F626172636F646500636162696E657450
:104B60005F737461747573006472697074726179D3
:104B70005F7374617475730077697065725F7374C5
:104B800061747573007269676874646F6F725F73C4
:104B90007461747573006C656674646F6F725F73B3
:104BA000746174757300646F6F725F737461747590
:104BB0007300636162696E65745F756E6C6F636BC1
:104BC00000636162696E65745F6C6F636B00646F34
:104BD0006F725F756E6C6F636B00646F6F725F6C8A
:104BE0006F636B0064697370656E73655F66756C87
:104BF0006C5F63616E0064697370656E73655F748A
:104C0000696D65640064697370656E73655F616C7E
:104C10006C00416D6F756E745F44697370656E737F
:104C200065643A0900576569676874204166746570
:104C3000722031207365633A0900576569676874AB
:104C40002041667465723A09005765696768742087
:104C50004265666F72653A09007365745F737465C7
:104C6000707065725F72696768745F706F73697482
:104C7000696F6E00416D6F756E745F446973706526
:104C80006E7365643A090057656967687420416608
:104C90007465722031207365633A0900576569674E
:104CA00068742041667465723A09005765696768DF
:104CB00074204265666F72653A09007365745F73AC
:104CC0007465707065725F6C6566745F706F736930
:104CD00074696F6E007365745F737465707065726C
:104CE0005F72696768745F7370656564007365748B
:104CF0005F737465707065725F6C6566745F737006
:104D0000656564007365745F70756D705F73706561
:104D100065640064697370656E73655F646576656C
:104D20006C6F7065720064697370656E73655F7730
:104D300065696768740070696E670064656D6F000F
:104D4000706F736974696F6E5F63616E69737465A8
:104D500072007365745F7363616C655F6C65647327
:104D6000007365745F6C656473002D2D2D2D2D2DE2
:104D70002D2D2D2D2D2D2D2D00706172616D352065
:104D80003D2000706172616D34203D2000706172C1
:104D9000616D33203D2000706172616D32203D20D5
:104DA00000706172616D31203D2000706172616D33
:104DB00034203D2000706172616D33203D20007011
:104DC0006172616D32203D2000706172616D312031
:104DD0003D2000706172616D33203D200070617272
:104DE000616D32203D2000706172616D31203D2087
:104DF00000706172616D32203D2000706172616DE2
:104E000031203D2000706172616D31203D200041F4
:104E10006C6C2074686520646174612076616C75C7
:104E20006573203D2000496E7465676572204E757C
:104E30006D506172616D6574657273203D20004133
:104E40006C6C20506172616D732050617373656486
:104E500020004D65737361676554797065203D204E
:104E6000002A2A2A2A2A2A2A2A2A2A2A2A2A2A2ACC
:104E70002A2A003A24003A240030303030303030D2
:104E80003030300030303030303030303030005E54
:104E9000626F776C5F706C616365643A357C005E4D
:104EA000626F776C5F706C616365643A357C004358
:104EB0006F6C6F722073656E736F7273206E6F7498
:104EC00020696E7374616C6C65642C206465666126
:104ED000756C74696E6720746F20524742282D31BB
:104EE0002C2D312C2D3129005E626F776C5F72653D
:104EF0006D6F7665643A307C3A24005E626F776C41
:104F00005F72656D6F7665643A307C3A24003A24AE
:104F1000005E63616E69737465725F696E7374615C
:104F20006C6C65643A327C003A24005E63616E69A1
:104F3000737465725F696E7374616C6C65643A3228
:104F40007C003A24005E63616E69737465725F72FF
:104F5000656D6F7665643A317C003A24005E63616A
:104F60006E69737465725F72656D6F7665643A31F0
:104F70007C003A2409003A00095E646973705F702E
:104F8000726F67726573733A327C003A24003A009C
:104F90005E646973705F70726F67726573733A32C3
:104FA0007C0052616E67652072656164696E67207E
:104FB0006F766572666C6F770052616E67652072FE
:104FC000656164696E6720756E646572666C6F7783
:104FD000005261772072656164696E67206F766543
:104FE00072666C6F77005261772072656164696EDA
:104FF0006720756E646572666C6F77005369676EC3
:10500000616C2F4E6F697365206572726F72004913
:10501000676E6F72696E672072616E6765004E6FB2
:1050200020636F6E76657267656E63650045434504
:10503000206661696C7572650053797374656D20C3
:105040006572726F72004162736F6C75746557653B
:1050500069676874206973203C2035302C2074689F
:10506000726F77696E6720626F776C5F72656D6FC4
:10507000766564206576656E742E20204E6F2067FD
:105080006F6F642064697374616E63652073656E0D
:10509000736F722072656164696E67206176616901
:1050A0006C61626C652C20636865636B20666F724F
:1050B000206572726F722062656C6F772E202041BE
:1050C00062736F6C757465576569676874203D20FD
:1050D000002C204162736F6C757465576569676851
:1050E00074203D2000206F72204162736F6C7574D4
:1050F00065576569676874203C2035302C20736FD4
:10510000207468726F77696E6720626F776C5F7268
:10511000656D6F766564206576656E742E205261CC
:105120006E6765203D200052616E6765203E20005D
:105130003A24003030303030303030303000524699
:105140004944526561644661696C436F756E743D94
:1051500031302E20576F756C64206861766520743D
:1051600068726F776E207468697320626F776C5F06
:10517000706C61636564206576656E742065786324
:105180006570742052464944204F76657272696496
:1051900065206973206E6F74206F6E2C20736F20F2
:1051A0006469646E27743A205E626F776C5F706C1E
:1051B000616365643A357C003A2400303030303029
:1051C000303030303000436865636B2052464944CC
:1051D00020746167732E20576F756C642068617648
:1051E00065207468726F776E207468697320626FCF
:1051F000776C5F706C61636564206576656E7420A2
:105200006578636570742052464944204F76657214
:1052100072696465206973206E6F74206F6E2C2034
:10522000736F206469646E27743A205E626F776CD6
:105230005F706C616365643A357C002C20426F7747
:105240006C506C6163656453616D706C657341662D
:1052500074657252464944203D20002C20416273FF
:105260006F6C757465576569676874203D200052DE
:10527000616E6765203D20002C20426F776C506C7A
:105280006163656453616D706C65734265666F72CE
:105290006552464944203D20002C204162736F6CCA
:1052A000757465576569676874203D200052616EAA
:1052B0006765203D20005E6361726F7573656C5F8A
:1052C0006A616D3A307C3A24005E6361726F757377
:1052D000656C5F6A616D3A307C3A24003A24005E66
:1052E000706F736974696F6E5F63616E6973746503
:1052F000725F726573703A327C6661696C75726553
:105300003A003A24005E706F736974696F6E5F6370
:10531000616E69737465725F726573703A327C6630
:1053200061696C7572653A003A24005E706F73694A
:1053300074696F6E5F63616E69737465725F7265C5
:1053400073703A327C737563636573733A003A2401
:10535000005E706F736974696F6E5F63616E69730D
:105360007465725F726573703A327C7375636365DE
:1053700073733A00706F736974696F6E5F63616E07
:1053800069737465720056616C7565207061737322
:1053900065643D00496E20706F736974696F6E209B
:1053A00063616E69737465722066756E6374696F8C
:1053B0006E21005E646F6F725F6C6F636B5F72650E
:1053C00073703A317C737563636573733A24005E5E
:1053D000646F6F725F6C6F636B5F726573703A318D
:1053E0007C737563636573733A2400646F6F725FD7
:1053F0006C6F636B004166746572204C6F636B6900
:105400006E672C2052656C6F6164446F6F72556ECD
:105410006C6F636B53656E736550696E3A20004222
:1054200065666F7265204C6F636B696E672C2052E6
:10543000656C6F6164446F6F72556E6C6F636B5314
:10544000656E736550696E3A2000496E20646F6F17
:10545000725F6C6F636B2066756E6374696F6E212B
:105460000050726F64756374494420697320612031
:10547000726567756C61722064697370656E7365BF
:105480002073706565642070726F647563742C207E
:10549000736F20646F206E6F726D616C206469732E
:1054A00070656E73652E0050726F64756374494445
:1054B000206973206120666173742064697370656C
:1054C0006E73652073706565642070726F647563B8
:1054D000742C20736F20676F20666173746572206F
:1054E000616E6420646F6E277420736C6F77206424
:1054F0006F776E20617420656E642E003030323913
:105500000030303238003030323700303032360040
:105510003030323400544F50434849432D36470011
:105520003031303500434F4C4F52414E43452D35BD
:1055300052003031303400544F50434849432D35E8
:105540005656003031303300434C4943532D4434D8
:10555000305F424F54544C45003031303200434CA0
:105560004943532D44305F424F54544C4500303131
:10557000303100474F4C4457454C4C2D443430009B
:105580003031303000474F4C4457454C4C2D44315E
:1055900030003030393900434F4C4F52414E434573
:1055A0002D434C454152003030393800434F4C4F69
:1055B00052414E43452D313047003030393700439A
:1055C0004F4C4F52414E43452D3456003030393602
:1055D00000434F4C4F52414E43452D3752520030FD
:1055E00030393500434F4C4F52414E43452D3556CF
:1055F00056003030393400434F4C4F52414E4345F2
:105600002D313056003030393300434F4C4F52412A
:105610004E43452D313050003030393200434F4C2D
:105620004F52414E43452D313042530030303931D5
:1056300000434F4C4F52414E43452D3843410030BB
:1056400030393000434F4C4F52414E43452D32418B
:10565000003030383900434F4C4F52414E43452DB6
:1056600037524F003030383800434F4C4F52414E84
:1056700043452D384F52003030383700434F4C4FA0
:1056800052414E43452D384B003030383600434FA1
:105690004C4F52414E43452D354B0030303835008C
:1056A000434F4C4F52414E43452D38470030303820
:1056B0003400434F4C4F52414E43452D354200304C
:1056C00030383300434F4C4F52414E43452D344701
:1056D000003030383200434F4C4F52414E43452D3D
:1056E000384E4E003030383100434F4C4F52414E0F
:1056F00043452D344E4E003030383000434F4C4F30
:1057000052414E43452D31304E0030303739004341
:105710004F4C4F52414E43452D384E0030303738B4
:1057200000434F4C4F52414E43452D364E003030D2
:10573000373700434F4C4F52414E43452D344E00B6
:105740003030373600434F4C4F52414E43452D3297
:105750004E003030373500544F50434849432D43B5
:105760004C454152003030373400544F5043484983
:10577000432D424C4F4E44494E47003030373300A2
:10578000544F50434849432D31314E003030373269
:1057900000544F50434849432D3752520030303760
:1057A0003100544F50434849432D35525200303058
:1057B000373000544F50434849432D374B00303069
:1057C000363900544F50434849432D394E4E00302E
:1057D00030363800544F50434849432D374E4E0021
:1057E0003030363600544F50434849432D354E4EE5
:1057F000003030363400544F50434849432D334E27
:105800004E003030363200474F4C4457454C4C2DFB
:10581000415348003030353800474F4C4457454CD1
:105820004C2D313147003030353700474F4C44570D
:10583000454C4C2D384341003030353600474F4CF5
:105840004457454C4C2D3552003030353500544FBF
:1058500050434849432D354B003030353400544FC8
:1058600050434849432D52525F4D4958003030351E
:105870003300474F4C4457454C4C2D565600303062
:10588000353200544F50434849432D47475F4D49F7
:1058900058003030353100544F50434849432D4B68
:1058A0004B5F4D4958003030353000544F5043481D
:1058B00049432D505F4D4958003030343900544F22
:1058C00050434849432D415F4D49580030303438EA
:1058D00000544F50434849432D384200303034374C
:1058E00000544F50434849432D3442003030343641
:1058F00000474F4C4457454C4C2D354D42003030FD
:10590000343500544F50434849432D313141003024
:1059100030343400474F4C4457454C4C2D313041C6
:10592000003030343300544F50434849432D3941FF
:10593000003030343200544F50434849432D3541F4
:10594000003030343100544F50434849432D3241E8
:10595000003030343000544F50434849432D3847CD
:10596000003030333900474F4C4457454C4C2D37AD
:1059700047003030333800544F50434849432D34AA
:1059800047003030333700474F4C4457454C4C2D7F
:1059900031304E003030333600474F4C4457454C81
:1059A0004C2D384E003030333500474F4C4457456E
:1059B0004C4C2D364E003030333400474F4C44575A
:1059C000454C4C2D344E003030333300474F4C445F
:1059D00057454C4C2D324E003030333200434C4949
:1059E00043532D56322D314E003030333000434C6E
:1059F0004943532D56322D4C490030303239004343
:105A00004C4943532D56322D443430003030323817
:105A100000434C4943532D56322D44323000303030
:105A2000323700434C4943532D56322D4430003019
:105A300030323600434C4943532D56322D504800E6
:105A40003030323500434C4943532D56322D434CB0
:105A5000003030323400434C4943532D56322D43ED
:105A60004F42003030323300434C4943532D5632BD
:105A70002D4C54594F003030323200434C4943537F
:105A80002D56322D4F59003030323100434C4943AE
:105A9000532D56322D4C544F52003030323000438B
:105AA0004C4943532D56322D524F0030303139007E
:105AB000434C4943532D56322D5652003030313825
:105AC00000434C4943532D56322D4C54564200301E
:105AD00030313700434C4943532D56322D42560046
