:100000000C94015E0C94058D0C94DA8C0C94AF8CDE
:100010000C94848C0C94598C0C942E8C0C94038C22
:100020000C94D88B0C9443F50C94698B0C94F38A44
:100030000C94325E0C9495650C94325E0C94325E96
:100040000C94325E0C94325E0C94325E0C94325EF0
:100050000C94325E0C947D870C94325E0D94AD0E40
:100060000C94325E0C942DF00C9403F00C94325EE0
:100070000C94325E0C94325E0C94325E0C94325EC0
:100080000C94325E0C94325E0C94325E0C94325EB0
:100090000C94D9EF0C94AFEF0C94325E0C941FF4D7
:1000A0000C94325E0C94325E0C94325E0C94325E90
:1000B0000C94325E0C94325E0C94325E0C94325E80
:1000C0000C94325E0C94325E0C94325E0C9485EF8C
:1000D0000C945BEF0C94325E0C9431EF0C9407EFB0
:1000E0000C94325E08000000BE922449123EABAA76
:1000F000AA2ABECDCCCC4C3E00000080BEABAAAA42
:10010000AA3E00000000BF000000803F0000000089
:1001100000084178D3BB4387D1133D190E3CC3BDC2
:100120004282AD2B3E68EC8276BED98FE1A93E4C6F
:1001300080EFFFBE01C4FF7F3F00000000000C9471
:1001400063E40C945FE70C94ECF80D945E060D9458
:100150009F060C943CE70D9426060C94645F0D9466
:1001600066790D9412060C9498E50C94ADE50C9408
:10017000DAE20C9493E70D946D060C9490E50C94E0
:10018000C4E80C94D7E20C94A6E80D9405060C94F0
:10019000C3F80C94C7F80C94E2F80C94BBF80C94D8
:1001A00036E80C94FAF80C9433E90C9410E50C94AE
:1001B000925F0C9466E70C9472E80C94A0E30C94A4
:1001C000465F0D9459750D940D060C9441E30C9403
:1001D0004CE70C94DCE40D9455790C942EE30D94CB
:1001E00059790C9465E40C9461E40C94D8E20D9474
:1001F0001C060C947D870C94CAF80C94BBE50D94F6
:1002000025800C94E8F80D9454060C949FE50D9409
:10021000EC760D9440060C94C2E50D944A060C94BD
:1002200032E40D945F790C94B4E50D9481060D943D
:1002300030060C94D4F80D9477060C944EE80D9487
:1002400038060C94DAE70D9495060C9459E40C9456
:1002500031E50C945DE40C9479E50C94F0F80C9481
:10026000DAF80C94F5F80C946FE80D948B060D9465
:100270005D790C9453F20C9463E50C943DE70C9477
:10028000C2E70C94F6F80C94285F0C945FE40D948C
:100290005B790C94EDE30C941FE30D9457790C9467
:1002A000BBE40C94A6E50C944FE30C94B5F80C94C5
:1002B000BFF80C94D0F80C945BE40C9457E40C94C5
:1002C000DEF84E414E494E495459494E46CDCCCCAC
:1002D0003D0AD7233C17B7D13877CC2B329595E61A
:1002E000241FB14F0A000020410000C84200401CFA
:1002F0004620BCBE4CCA1B0E5AAEC59D7400407A47
:1003000010F35A00A0724E18090010A5D4E800009E
:10031000E87648170000E40B54020000CA9A3B003C
:100320000000E1F505000080969800000040420FB3
:10033000000000A08601000000102700000000E877
:1003400003000000006400000000000A000000003C
:10035000000100000000002C76D888DC674F0823DD
:10036000DFC1DFAE59E1B1B796E5E3E453C63AE643
:1003700051997696E8E6C28426EB898C9B62ED4023
:100380007C6FFCEFBC9C9F40F2BAA56FA5F4900572
:100390005A2AF75C936B6CF9676DC11BFCE0E40DA6
:1003A00047FEF520E6B500D0ED902E03009435779A
:1003B000050080841E080000204E0A000000C80CC2
:1003C000333333330F986E12831141EF8D2114892B
:1003D0003BE65516CFFEE6DB18D1844B381BF77C85
:1003E0001D901DA4BBE424203284725E228100C9CA
:1003F000F124ECA1E53D274F76657272696465577B
:1004000069706572537769746368203D2000426C9F
:1004100061636B426F776C44697374616E636520CE
:100420003D20005768697465426F776C4469737446
:10043000616E6365203D20004F4352324154696D27
:100440006572436F756E746572203D20004D69635F
:10045000726F5374657073203D2000537465707023
:10046000657250756D704D61785370656564203D9F
:100470002000546869726450756D705365726961CB
:100480006C4E756D6265724861734265656E446954
:100490007370656E736564203D20005269676874EF
:1004A00050756D7046756C6C426172636F64655B0C
:1004B0005D203D2000526967687450756D7042611F
:1004C00072636F64654F76657272696465203D2062
:1004D00000526967687450756D7053657269616C1C
:1004E0004E756D6265725B5D203D200052696768E4
:1004F0007450756D7053657269616C4E756D62658F
:10050000724861734265656E44697370656E7365A8
:1005100064203D20004C65667450756D7046756CA6
:100520006C426172636F64655B5D203D20004C65C9
:10053000667450756D70426172636F64654F766565
:100540007272696465203D20004C65667450756D5B
:100550007053657269616C4E756D6265725B5D208A
:100560003D20004C65667450756D7053657269610D
:100570006C4E756D6265724861734265656E446963
:100580007370656E736564203D2000496E737461FD
:100590006C6C4D6F6465203D20004F76657272690A
:1005A00064655246494449664974446F65736E7484
:1005B0005265616450726F7065726C79203D2000E5
:1005C000675369646550616E656C427269676874EF
:1005D0006E657373203D20005369646550616E65DC
:1005E0006C4272696768746E657373203D200048C1
:1005F000617352656C6F6164446F6F724C6F636BB3
:10060000203D20004973426C61636B426F776C41FF
:10061000726561203D20002C20436F756E74203D73
:10062000200041766572616765206F66206E6F6E8F
:100630002D7A65726F20496E697469616C416374CB
:100640007561746F72506F736974696F6E73203D5A
:1006500020005D203D200053657269616C4E756D10
:10066000626572735B005D203D20005365726961B5
:100670006C4E756D6265724861734265656E446962
:100680007370656E7365645B005D203D2000496E8C
:10069000697469616C4163747561746F72506F73D2
:1006A0006974696F6E735B00496E697469616C414E
:1006B00063747561746F72506F736974696F6E20C3
:1006C0003D20005363616C655F43616C69627261D8
:1006D00074696F6E5F576569676874203D200053C9
:1006E00063616C655F43616C6962726174696F6EAE
:1006F0005F32303067203D20005363616C655F439B
:10070000616C6962726174696F6E5F5A65726F20A5
:100710003D20005363616C655F43616C6962726187
:1007200074696F6E203D200046575F4255494C4426
:10073000203D200044697370656E7365725F4D6F74
:1007400064656C5F4D696E6F72203D200044697373
:1007500070656E7365725F4D6F64656C5F4D616A45
:100760006F72203D200044697370656E7365725F1F
:1007700053657269616C203D200045455050524FD1
:100780004D5F56455253494F4E203D2000476574FA
:10079000414D54323033456E636F646572506F73F0
:1007A0006974696F6E20414D5432303363757272D3
:1007B000656E74506F736974696F6E3A2000526190
:1007C0007720414D5432303363757272656E7450C8
:1007D0006F736974696F6E3A200052657365742097
:1007E00041726475696E6F20746F207265737461F5
:1007F00072742070726F6772616D2E004572726F35
:1008000072206F627461696E696E6720706F7369C0
:1008100074696F6E2E00446F6E65207A65726F6921
:100820006E6720656E636F6465722C20437572720B
:10083000656E7420706F736974696F6E3A20005230
:10084000657365742041726475696E6F20746F20E2
:10085000726573746172742070726F6772616D2E4D
:10086000004572726F72206F627461696E696E67A3
:1008700020706F736974696F6E2E00342E2E2E00F7
:10088000332E2E2E00322E2E2E00312E2E2E00290B
:100890002E2E2E206D6179206E65656420746F2088
:1008A000706F776572206379636C6520616674652B
:1008B0007220746869732E00414C4552543A2047A7
:1008C0006F696E6720746F207A65726F2074686537
:1008D00020414D5432303320656E636F6465722061
:1008E0006E6F7720285072696F7220506F73697431
:1008F000696F6E203D2000436F727265637465649A
:1009000020414D5432323220456E636F6465723A35
:100910002000414D5432323220456E636F6465725F
:100920003A2000414D5432323220726561642065B4
:1009300072726F722E20417474656D7074733A20F8
:1009400000446F6E65207A65726F696E6720656E10
:10095000636F6465722C2043757272656E742070CB
:100960006F736974696F6E3A20002900476F696E72
:100970006720746F207A65726F2074686520414D1E
:100980005432323220656E636F646572206E6F7709
:1009900020285072696F7220506F736974696F6E8E
:1009A000203D20002900414C4552543A20476F69B0
:1009B0006E6720746F207A65726F207468652041BD
:1009C0004D5432323220656E636F646572206E6FF3
:1009D0007720285072696F7220506F736974696F45
:1009E0006E203D2000456E64696E6720416374751A
:1009F00061746F7220506F736974696F6E203D204F
:100A0000005374617274696E672041637475617418
:100A10006F7220506F736974696F6E203D200048BB
:100A20006F6D654163747561746F722077617320B7
:100A30007375636365737366756C212020426F74F0
:100A400068206163747561746F727320656E64658C
:100A5000642075702E00414C4552543A20486F6D09
:100A6000654163747561746F7220776173204E4FB6
:100A700054207375636365737366756C2C204163D2
:100A8000747561746F7220456E636F646572205275
:100A9000616E6765203C2032207768656E20736840
:100AA0006F756C64206265207E3230302D333030BB
:100AB000002C204163747561746F724F7574657298
:100AC00055704F70746F203D2000414C4552543A90
:100AD00020486F6D654163747561746F7220776132
:100AE00073204E4F54207375636365737366756C22
:100AF0002C20626563617573652061637475617430
:100B00006F727320617265206E6F7420626F7468FB
:100B10002075702E20204163747561746F72496E68
:100B20006E657255704F70746F203D200053756272
:100B30006F7074696D616C206F7269656E74617439
:100B4000696F6E2C207265636F6D6D656E642066D3
:100B50006C6970206163747561746F722031383014
:100B6000206465677265657320736F2074686174B3
:100B7000206D617820746F72717565206973206FC4
:100B80006E206F7574657220736C6F747320736957
:100B90006E63652074686579277265207573656476
:100BA000206D6F7265206F6674656E2E00476F6FE3
:100BB00064206F7269656E746174696F6E2C206D4C
:100BC000617820746F72717565206F6E206F757417
:100BD000657220736C6F74732073696E6365207423
:100BE0006865792772652075736564206D6F72651D
:100BF000206F6674656E2E002C20416374756174DD
:100C00006F72446972656374696F6E496E6E657266
:100C1000446F776E4F757465725570203D200045A6
:100C20006E64206F6620486F6D696E672041637443
:100C30007561746F722C20456E636F646572203D20
:100C4000200046696E616C204163747561746F7237
:100C500020706F736974696F6E20616674657220AD
:100C6000686F6D6520746F20302069732000436FBA
:100C70006E6669726D696E67206E657720706F733E
:100C80006974696F6E20697320002C20736F206E69
:100C9000657720706F736974696F6E2069732000C7
:100CA0002C20736F2074616B652074686520646903
:100CB00066666572656E636520696E207A65726F1F
:100CC00020706F696E747320616E642061646A7550
:100CD0007374206974206279200043757272656EA6
:100CE000746C7920617420002C20736F20736574FC
:100CF000207A65726F20706F696E742062657477F8
:100D000065656E207468652074776F2C206174208F
:100D10000020746F20004163747561746F72204508
:100D20006E636F6465722072616E676520697320FF
:100D3000004163747561746F7220456E636F646502
:100D4000722052616E6765203C2032207768656EA4
:100D50002073686F756C64206265207E3230302DA0
:100D60003330302E20436865636B204163747561B6
:100D7000746F7220456E636F646572205769726587
:100D8000732028342070696E20636F6E6E65637403
:100D90006F72292E20204966206163747561746F1B
:100DA000727320646964206E6F74206D6F76652C99
:100DB00020636865636B206163747561746F722072
:100DC0006D6F746F7220776972657320283220709E
:100DD000696E20636F6E6E6563746F72292E0041B9
:100DE0004C4552543A20426F7468206163747561B7
:100DF000746F72206F70746F732072656164206409
:100E00006F776E202D207468697320697320616E7E
:100E1000206572726F7220636173652E2020476FA8
:100E2000696E6720746F2073746F7020616E642028
:100E300072657475726E206661696C757265206F7B
:100E40006E20486F6D654163747561746F72210027
:100E50005374616C6C6564206D6F72652074686199
:100E60006E2035302074696D65732C206578697447
:100E7000696E672074686973206C6F6F702E005301
:100E800074616C6C656421204E65656420746F200C
:100E9000676F20696E206F7468657220646972657F
:100EA0006374696F6E206E6F772C20616E642072A0
:100EB000657665727365206C6F6769632E004F7588
:100EC0007465722075702C20696E6E657220646F77
:100ED000776E202D20736F206D6F766520696E6EA2
:100EE000657220757020666972737420746F206D4E
:100EF000616B65206F7574657220676F20646F7712
:100F00006E005374616C6C6564206D6F7265207443
:100F100068616E2035302074696D65732C206578AA
:100F20006974696E67207468697320326E64206C1E
:100F30006F6F7020616E642073657474696E6720D2
:100F4000746865206F7468657220736964652E002B
:100F5000095573696E6720726576657273656420E2
:100F60006C6F6769632C2077616974656420666FB4
:100F70007220496E6E657220746F20676F20646FF7
:100F8000776E20686572652073696E6365206F7582
:100F90007465722077656E7420646F776E20696E59
:100FA0002070726576696F7573206C6F6F702E009C
:100FB0005374616C6C6564206D6F72652074686138
:100FC0006E2035302074696D65732C2065786974E6
:100FD000696E672074686973206C6F6F702E0053A0
:100FE00074616C6C656421204E65656420746F20AB
:100FF000676F20696E206F7468657220646972651E
:101000006374696F6E206E6F772C20616E6420723E
:10101000657665727365206C6F6769632E00094F92
:10102000757465722077656E7420646F776E2077B3
:1010300068656E20657870656374696E6720696E97
:101040006E65722E2020526576657273696E672018
:101050006C6F6769632E0009496E6E657220646F5C
:10106000776E2C2073746F7070696E67206669727A
:101070007374206C6F6F70004163747561746F726C
:101080004F7574657255704F70746F20697320646A
:101090006F776E20616C72656164792E20204D6FD0
:1010A00076696E6720697420757020616E642049CE
:1010B0006E6E657220646F776E2E00426F746820CA
:1010C0006172652075702C20636F756C6420676F8A
:1010D0002065697468657220646972656374696FFC
:1010E0006E2E202043686F6F73696E6720496E6EA5
:1010F000657220446F776E2E002C204163747561F9
:10110000746F72446972656374696F6E496E6E655F
:1011100072446F776E4F757465725570203D200074
:101120005374617274206F6620486F6D696E67201A
:101130004163747561746F722C20456E636F6465D2
:1011400072203D200046696E616C20524742204F5C
:1011500075743A09005269676874436F6C6F725016
:10116000756C7365496E3A09004C656674436F6C23
:101170006F7250756C7365496E3A09004661696C0F
:10118000656420746F206765742033782064697308
:1011900074616E63652072656164696E677320694E
:1011A0006E2052656164436F6C6F7253656E736F2E
:1011B00072732C20617373756D696E672063656E41
:1011C00074657265642E000941766752616E6765C9
:1011D0003A09000952616E6765333A0900095261A4
:1011E0006E6765323A090052616E6765313A0900EF
:1011F000446F2066756C6C205748495445207265D1
:101200006164696E6700446F20616D6269656E7428
:10121000206C696768742072656164696E67207705
:10122000697468204E656F506978656C73204F460D
:101230004600436F6C6F722073656E736F7273201C
:101240006E6F7420696E7374616C6C65642C2064BD
:10125000656661756C74696E6720746F20524742D1
:10126000282D312C2D312C2D3129000A4C6F616431
:101270002043656C6C2053616D706C696E672066ED
:1012800061696C7572652C2052656164696E677363
:10129000206E6F742077697468696E2037352E3040
:1012A000206772616D7320696E20302E3120736566
:1012B000632E2053616D706C657320283130782067
:1012C0004144432076616C7565732066697273745E
:1012D0002C207468656E2031307820696E2067722A
:1012E000616D73293A0900094E65772053616D706D
:1012F0006C65733A09000A54776F20426164205389
:10130000616D706C65732C20676F696E6720746FF8
:10131000207265706C616365207769746820322083
:101320006E65772073616D706C65733A09000A54BD
:10133000776F204261642053616D706C6573206625
:1013400061696C7572652C20676F696E6720746FB8
:10135000207265706C616365207769746820322043
:101360006E65772073616D706C65733A09002A2A87
:101370002A4641494C45442A2A2A002A2A2A504111
:10138000535345442A2A2A005461726765742069C0
:1013900073206C657373207468616E20302E312069
:1013A00067202F20313030206D672C20736F207420
:1013B0006869732074657374200041766572616793
:1013C0006520446966666572656E636520286D6791
:1013D000293A200041766572616765204469666636
:1013E0006572656E6365202867293A20004176653D
:1013F00072616765205765696768743A20004D65BA
:1014000061737572696E67206C6F61642063656CCF
:101410006C206E6F6973652C203230302073616DE3
:10142000706C65732C2073616D706C6573207065D2
:10143000722072656164696E67203D200009616CED
:1014400069676E6D656E740900094765744F757440
:10145000657252656C6F6164536C6F740900436808
:1014600065636B696E67204F7574657252656C6F4A
:1014700061644973416C69676E656428293A204745
:1014800065744F7574657252656C6F6164536C6FEF
:10149000744173466C6F6174090009616C69676E11
:1014A0006D656E74090009476574496E6E65725208
:1014B000656C6F6164536C6F740900436865636B9E
:1014C000696E6720496E6E657252656C6F61644922
:1014D00073416C69676E656428293A2047657449D1
:1014E0006E6E657252656C6F6164536C6F7441739C
:1014F000466C6F6174090009496E6E6572536C6FBA
:10150000745F48696768203D2009004F75746572F3
:10151000536C6F745F48696768203D200900094972
:101520006E6E6572536C6F745F4C6F77203D20094F
:10153000004F75746572536C6F745F4C6F77203D0C
:1015400020090009496E6E6572536C6F74203D204E
:1015500009004F75746572536C6F74203D2009004B
:1015600009446F6F724F70656E6564456E636F649A
:10157000657253746570706572506F735F4C6F77EE
:10158000203D20090009446F6F724F70656E6564DD
:10159000456E636F64657253746570706572506FE9
:1015A000735F48696768203D200900446F6F724F80
:1015B00070656E6564456E636F64657253746570C3
:1015C000706572506F73203D200900094163747586
:1015D00061746F724F7574657255704F70746F20BF
:1015E0003D200900094163747561746F72496E6E24
:1015F000657255704F70746F203D2009000943617A
:10160000726F7573656C486F6D65203D2009000928
:101610004163747561746F72506F73203D200900CF
:1016200009414D54323232506F736974696F6E09DB
:101630000009414D54323033506F736974696F6ED5
:101640000900094361726F7573656C447269766550
:1016500072506F736974696F6E09004361726F75C0
:1016600073656C456E636F646572506F73697469FE
:101670006F6E0900484F4D494E4720444944204E63
:101680004F5420574F524B2050524F5045524C59B7
:10169000212020574520415245204E4F542041548F
:1016A0002054484520484F4D454341524F555345DE
:1016B0004C204F50544F204255542053484F554CC6
:1016C0004420424521204F72207765206E65766563
:1016D00072206D6F766564206F6666206F66206984
:1016E000742070726F7065726C792E204F72206D4D
:1016F0006F746F7220656E636F646572206F722005
:1017000063656E74657220656E636F6465722069CF
:1017100073206261642E20536565206D657373616B
:101720006765732061626F76652E00486F6D654353
:1017300061726F7573656C2073657175656E636535
:10174000207375636365737366756C2E000941635E
:10175000747561746F724F7574657255704F7074E3
:101760006F203D200900094163747561746F7249EF
:101770006E6E657255704F70746F203D20090009C0
:101780004361726F7573656C486F6D65203D20090C
:101790000009616363656C537465707065722E63D4
:1017A000757272656E74506F736974696F6E2829F3
:1017B000203D20090053746570706572506F73305E
:1017C000203D20090009486F6D654361726F757394
:1017D000656C456E636F646572506F736974696F91
:1017E0006E203D20090009486F6D654361726F7579
:1017F00073656C53746570706572506F736974694A
:101800006F6E203D200900096669727374486F6D20
:10181000654361726F7573656C456E636F64657265
:10182000506F736974696F6E203D2009006669729C
:101830007374486F6D654361726F7573656C537433
:101840006570706572506F736974696F6E203D20AA
:101850000900414C4552543A2043656E7465724DFF
:101860006F746F72456E636F646572206973206276
:1018700061642C2069742073686F756C64206861E2
:101880007665206D6F766564203533206F72203762
:1018900033202831302D3930292062757420696E4B
:1018A0007374656164206D6F7665642043656E7442
:1018B0006572456E636F64657244696666657265DC
:1018C0006E6365203D2000414C4552543A204361EF
:1018D000726F7573656C4D6F746F72456E636F6474
:1018E0006572206973206261642C206974207368BA
:1018F0006F756C642068617665206D6F7665642015
:101900003735202836352D38352920627574206901
:101910006E7374656164206D6F76656420436172D7
:101920006F7573656C456E636F6465724469666656
:101930006572656E6365203D2000414C4552543A06
:1019400020486F6D6520466C6167204661696C6553
:101950006420576964746820436865636B202D2098
:10196000436865636B2074686174206361726F758E
:1019700073656C207368656C66206973206C6F6397
:101980006B656420696E20666C617420616E6420F2
:101990006C6F772C20616E64206C6F6164206361D2
:1019A0006E732E2020436F6E6669726D20646973BA
:1019B00070656E7365722069732073697474696EE3
:1019C0006720666C6174206F6E2069747320342008
:1019D000666565742E20204F7220636865636B20F6
:1019E000666F722065787472612068616E67696ED7
:1019F00067206368616420756E646572206361723C
:101A00006F7573656C2E00414C4552543A2043610A
:101A1000726F7573656C486F6D652053656E736F7B
:101A20007220537475636B204F46462F4E4F5420DF
:101A3000484F4D4500414C4552543A204361726F26
:101A40007573656C486F6D652053656E736F72209A
:101A5000537475636B204F4E2F484F4D45004469BA
:101A6000645765456E644F6E486F6D65203D200973
:101A70000044696457654261636B4F6666417761F4
:101A80007946726F6D486F6D65203D20090044698D
:101A9000645765536565486F6D655468654669723E
:101AA000737454696D65203D2009000957617348BE
:101AB0006F6D65466C616750726F706572576964CF
:101AC0007468203D200900094361726F7573656C6D
:101AD000486F6D654174486F6D65203D20090009B0
:101AE00053746570706572506F736974696F6E417D
:101AF000667465724D6F76653730203D20090009A8
:101B000043757272656E744D6963726F737465703C
:101B1000506F736974696F6E4166746572486F6D5A
:101B200065203D200900486F6D65466C6167576907
:101B30006474683A20486F6D654361726F757365B0
:101B40006C53746570706572506F736974696F6EF1
:101B5000203D2009000943656E746572456E636F10
:101B6000646572446966666572656E6365203D20D2
:101B70000900094361726F7573656C456E636F642C
:101B80006572446966666572656E6365203D20090D
:101B900000094F6666486F6D6543656E74657245F2
:101BA0006E636F646572506F736974696F6E203D08
:101BB000200900094F6666486F6D654361726F7555
:101BC00073656C456E636F646572506F7369746999
:101BD0006F6E203D200900094F6666486F6D6553A2
:101BE000746570706572506F736974696F6E203DB3
:101BF000200900096669727374486F6D6543656EEC
:101C0000746572456E636F646572506F7369746951
:101C10006F6E203D200900096669727374486F6D0C
:101C2000654361726F7573656C456E636F64657251
:101C3000506F736974696F6E203D200900436865B9
:101C4000636B696E6720656E636F646572733A20BB
:101C50006669727374486F6D654361726F75736501
:101C60006C53746570706572506F736974696F6ED0
:101C7000203D200900414C4552543A205374616C78
:101C80006C696E6720646574656374656420696E51
:101C900020486F6D654361726F7573656C2C2064AD
:101CA00069646E2774206D6F7665206174206C65A1
:101CB0006173742032303020656E636F646572200A
:101CC000636F756E747320696E2031207365632EA7
:101CD00000414C4552543A2052656C6F6164446F28
:101CE0006F724F70656E207768656E2074727969C7
:101CF0006E6720746F20486F6D654361726F7573F6
:101D0000656C2E20436C6F73652072656C6F616427
:101D100020646F6F7220616E642074727920616735
:101D200061696E2E00546F6F206D616E7920476F70
:101D3000546F506F736974696F6E20726574726945
:101D40006573202D206572726F72696E67206F75E2
:101D5000742077697468206D69736D61746368209D
:101D60006265747765656E20414D54313032206173
:101D70006E6420414D543230332F414D5432323253
:101D8000206F72206A757374206469646E277420F2
:101D900067657420746F207461726765742E2047C4
:101DA0006F546F506F736974696F6E204661696C10
:101DB0007572652E005265686F6D696E6720737568
:101DC000636365737366756C2C20676F696E67203B
:101DD000746F207472792074686520476F546F5057
:101DE0006F736974696F6E20616761696E2E00524E
:101DF00065686F6D696E67206661696C65642C202B
:101E0000676976696E67207570206F6E20746865EB
:101E1000206361726F7573656C206D6F76656D659B
:101E20006E742E0043656E74657220656E636F6418
:101E30006572206D69736D617463682C20676F69CA
:101E40006E6720746F207265686F6D6520746865B9
:101E5000206361726F7573656C20616E64207472AB
:101E60007920616761696E0020616E64206163742E
:101E700075616C206F6620005265747279696E67B7
:101E800020746865206361726F7573656C206D6F77
:101E900076656D656E742064756520746F2063656A
:101EA0006E74657220656E636F646572206D697310
:101EB0006D61746368202D20736C697070696E6742
:101EC0002063656E74657220656E636F6465722E43
:101ED000204C696D6974206F6620005265747279B8
:101EE000696E6720746865206361726F7573656CD5
:101EF000206D6F76656D656E742064756520746FF6
:101F00002073746570706572206D6F746F722065D8
:101F10006E636F646572206D69736D6174636820B0
:101F20002D206C696B656C79207374616C6C6564D1
:101F3000206D6F746F722C20746F6F2068656176EE
:101F4000792C20746F6F206D7563682066726963E9
:101F500074696F6E2C206F7220626164206D6F74E3
:101F60006F72206D6F756E7420616C69676E6D6540
:101F70006E742F737072696E672E204C696D697470
:101F8000206F6620323020616E6420616374756159
:101F90006C206F662000414D5432323220456E6312
:101FA0006F64657220506F736974696F6E2045723B
:101FB000726F72206F6620005461726765742041F1
:101FC0004D5432323220456E636F64657220506F1B
:101FD000736974696F6E206F662000437572726555
:101FE0006E7420414D5432323220456E636F646509
:101FF0007220506F736974696F6E206F66200041A4
:102000004D5432303320456E636F64657220506FDB
:10201000736974696F6E204572726F72206F6620EB
:102020000054617267657420414D5432303320454D
:102030006E636F64657220506F736974696F6E2090
:102040006F66200043757272656E7420414D543284
:10205000303320456E636F64657220506F7369740E
:10206000696F6E206F662000537465707065722012
:10207000456E636F64657220506F736974696F6E2B
:10208000204572726F72206F662000437572726510
:102090006E74205374657070657220456E636F6452
:1020A000657220506F736974696F6E206F662000CF
:1020B0005374657070657220447269766572205041
:1020C0006F736974696F6E204572726F72206F66EC
:1020D000200043757272656E74205374657070656C
:1020E000722044726976657220506F736974696FEB
:1020F0006E206F6620004361726F7573656C206D92
:102100006F76656D656E74206661696C6564202DFF
:102110002073746F7070696E672E20204569746833
:102120006572206E6F206D6F76656D656E742061CF
:102130007420616C6C20283C3520737465707320AA
:1021400073696E6365206C61737420353030206D67
:10215000736563292C206F7220706F736974696FC7
:102160006E20646576696174696F6E2066726F6D4A
:102170002077686572652073686F756C642062658E
:1021800020767320776865726520617265206261D0
:10219000736564206F6E20656E636F6465722E00D8
:1021A00046696E616C2052657472792023342C204C
:1021B0006C6F776572696E6720616363656C6572C9
:1021C0006174696F6E20616E642072616973696EFB
:1021D00067206D6F76652063757272656E742E0070
:1021E00052657472792023332C206C6F7765726985
:1021F0006E6720616363656C65726174696F6E20E0
:10220000616E642072616973696E67206D6F7665B7
:102210002063757272656E742E0052657472792037
:1022200023322C206C6F776572696E67206163635F
:10223000656C65726174696F6E20616E6420726195
:102240006973696E67206D6F76652063757272655C
:102250006E742E0052657472792023312C206C6FBD
:10226000776572696E6720616363656C657261741E
:10227000696F6E20616E642072616973696E672098
:102280006D6F76652063757272656E742E002E20F8
:1022900044697374616E636546726F6D54617267F1
:1022A0006574203D2000292043616C6C65642C20FE
:1022B00043757272656E7420506F736974696F6EC6
:1022C000203D2000476F546F506F736974696F6EC3
:1022D000456E636F64657228002E204469737461D3
:1022E0006E636546726F6D546172676574203D2040
:1022F00000292043616C6C65642C20437572726503
:102300006E7420506F736974696F6E203D200047B2
:102310006F546F506F736974696F6E2800446973EE
:1023200074616E636546726F6D5461726765744D5A
:10233000696E7573203D20090044697374616E6392
:102340006546726F6D546172676574506C75732069
:102350003D20090044697374616E636546726F6D58
:10236000546172676574203D20090043757272657F
:102370006E74506F736974696F6E203D200900544C
:102380006172676574506F736974696F6E203D2068
:102390000900547279696E6720746F20486F6D650B
:1023A0004361726F7573656C2C2073696E63652071
:1023B0006974206861736E27742073756363657335
:1023C0007366756C6C7920686F6D656420796574CF
:1023D0002E00496E76616C696420736C6F74206E98
:1023E000756D62657220666F7220353020736C6F78
:1023F000742064697370656E7365723A20536C6FF4
:10240000742000496E76616C696420736C6F74206F
:102410006E756D62657220666F7220353020736C48
:102420006F742064697370656E73657200656E63A6
:102430006F64657253746570706572506F73206F4E
:102440007574206F662072616E6765202D2073653C
:102450007474696E67206E657720656E636F64655E
:102460007253746570706572506F73206F662000D0
:1024700043757272656E74506F736974696F6E2004
:102480006F7574206F662072616E6765202D2073F2
:10249000657474696E67206E657720437572726526
:1024A0006E7420506F736974696F6E206F662000C0
:1024B000656E636F64657253746570706572506F9A
:1024C00073206F7574206F662072616E6765202DB2
:1024D0002073657474696E67206E657720656E631E
:1024E0006F64657253746570706572506F73206F9E
:1024F00066200043757272656E74506F73697469FB
:102500006F6E206F7574206F662072616E67652034
:102510002D2073657474696E67206E65772043752E
:102520007272656E7420506F736974696F6E206F7C
:102530006620004361726F7573656C206D6F766500
:102540006D656E74206661696C65642E2020536C25
:10255000697070696E672063757272656E7420773A
:1025600061732000414D5432323220456E636F64F6
:10257000657220506F736974696F6E204572726F57
:1025800072206F66200054617267657420414D545B
:1025900032323220456E636F64657220506F73690A
:1025A00074696F6E206F66200043757272656E7479
:1025B00020414D5432323220456E636F6465722083
:1025C000506F736974696F6E206F662000414D54BF
:1025D00032303320456E636F64657220506F7369CB
:1025E00074696F6E204572726F72206F662000549E
:1025F000617267657420414D5432303320456E63FB
:102600006F64657220506F736974696F6E206F66B6
:10261000200043757272656E7420414D5432303320
:1026200020456E636F64657220506F736974696FC3
:102630006E206F6620005374657070657220456E61
:10264000636F64657220506F736974696F6E2045A3
:1026500072726F72206F66200043757272656E74BD
:10266000205374657070657220456E636F64657287
:1026700020506F736974696F6E206F662000537409
:1026800065707065722044726976657220506F7350
:102690006974696F6E204572726F72206F662000D8
:1026A00043757272656E7420537465707065722024
:1026B00044726976657220506F736974696F6E2019
:1026C0006F6620004361726F7573656C206D6F7665
:1026D000656D656E74206661696C65642C206D752E
:1026E00073742068617665207374616C6C65642E08
:1026F00020204D6F76652043757272656E7420746C
:10270000686174206974206661696C656420617415
:102710002077617320002E2044697374616E6365B5
:1027200046726F6D546172676574203D20002920E8
:1027300043616C6C65642C2043757272656E742005
:10274000506F736974696F6E203D2000476F546F3E
:10275000506F736974696F6E456E636F646572283C
:10276000002E2044697374616E636546726F6D5408
:102770006172676574203D2000292043616C6C659F
:10278000642C2043757272656E7420506F73697487
:10279000696F6E203D2000476F546F506F736974EE
:1027A000696F6E280044697374616E636546726F69
:1027B0006D5461726765744D696E7573203D2009B3
:1027C0000044697374616E636546726F6D54617223
:1027D000676574506C7573203D20090044697374FB
:1027E000616E636546726F6D546172676574203DFA
:1027F00020090043757272656E74506F7369746955
:102800006F6E203D200900546172676574506F73CC
:102810006974696F6E203D2009003A24005E756E70
:102820006A616D5F6361726F7573656C5F7265730A
:10283000703A327C6661696C7572653A003A2400C0
:102840005E756E6A616D5F6361726F7573656C5FF3
:10285000726573703A327C6661696C7572653A00B4
:102860003A24005E756E6A616D5F6361726F7573A5
:10287000656C5F726573703A327C73756363657300
:10288000733A003A24005E756E6A616D5F6361722F
:102890006F7573656C5F726573703A327C737563C4
:1028A000636573733A00656E636F64657253746534
:1028B00070706572506F73206F7574206F66207230
:1028C000616E6765202D2073657474696E67206E74
:1028D000657720656E636F646572537465707065AB
:1028E00072506F73206F66200043757272656E744C
:1028F000506F736974696F6E206F7574206F6620F6
:1029000072616E6765202D2073657474696E67202F
:102910006E65772043757272656E7420506F7369AF
:1029200074696F6E206F662000656E636F646572F8
:1029300053746570706572506F73206F7574206F7B
:10294000662072616E6765202D2073657474696EF0
:1029500067206E657720656E636F6465725374657A
:1029600070706572506F73206F66200043757272CD
:10297000656E74506F736974696F6E206F75742023
:102980006F662072616E6765202D207365747469AF
:102990006E67206E65772043757272656E74205085
:1029A0006F736974696F6E206F6620004361726F88
:1029B0007573656C207374657070657220656E63E5
:1029C0006F646572206572726F722E2020536C697D
:1029D0007070696E672063757272656E74207761BE
:1029E000732000414D5432323220456E636F64656E
:1029F0007220506F736974696F6E204572726F72C6
:102A0000206F66200054617267657420414D543216
:102A1000323220456E636F64657220506F73697443
:102A2000696F6E206F66200043757272656E742048
:102A3000414D5432323220456E636F6465722050CE
:102A40006F736974696F6E206F662000414D543258
:102A5000303320456E636F64657220506F73697404
:102A6000696F6E204572726F72206F66200054612C
:102A70007267657420414D5432303320456E636F68
:102A800064657220506F736974696F6E206F662081
:102A90000043757272656E7420414D54323033209C
:102AA000456E636F64657220506F736974696F6EF1
:102AB000206F6620005374657070657220456E63E8
:102AC0006F64657220506F736974696F6E20457210
:102AD000726F72206F66200043757272656E74208B
:102AE0005374657070657220456E636F6465722003
:102AF000506F736974696F6E206F66200053746540
:102B0000707065722044726976657220506F7369C7
:102B100074696F6E204572726F72206F6620004379
:102B2000757272656E74205374657070657220449E
:102B3000726976657220506F736974696F6E206F69
:102B4000662000556E6A616D4361726F7573656CC6
:102B5000206D6F76656D656E74206661696C656465
:102B60002C206D7573742068617665207374616CB8
:102B70006C65642E20204D6F7665204375727265FA
:102B80006E742074686174206974206661696C6574
:102B9000642061742077617320002E20446973746F
:102BA000616E636546726F6D546172676574203D36
:102BB0002000292043616C6C65642C20437572727F
:102BC000656E7420506F736974696F6E203D2000CC
:102BD000476F546F506F736974696F6E456E636FA2
:102BE00064657228002E2044697374616E636546C3
:102BF000726F6D546172676574203D200029204317
:102C0000616C6C65642C2043757272656E74205023
:102C10006F736974696F6E203D2000476F546F5069
:102C20006F736974696F6E280044697374616E63B1
:102C30006546726F6D546172676574203D200900AE
:102C400043757272656E74506F736974696F6E202C
:102C50003D200900546172676574506F736974692F
:102C60006F6E203D200900416D6F756E745F446981
:102C70007370656E7365643A0900576569676874B7
:102C80002041667465722031207365633A090057EC
:102C900065696768742041667465723A0900446F1B
:102CA0006E6500526576657273696E670057656977
:102CB000676874204265666F72653A090005C7044B
:102CC00000FE04D3040004C8040005C90400000881
:102CD000C6040800F2900005C704000105C70400FF
:102CE000EE07C60408FFEE0105C704005E07C60430
:102CF00008FF5E0105C704000807C60408FF0801B5
:102D000005C704008A07C60408FF8A0007C604082E
:102D1000FF8A0805C70400C907C60408FFC90304E1
:102D2000D0040004E9040004A30400526571756531
:102D30007374506172616D004361706162696C69A6
:102D4000746965730044656661756C7400446973E9
:102D500061626C654F6E5A656272610044697361AD
:102D6000626C654F6E474D363700436865636B4F45
:102D70007468657200436865636B45450050616324
:102D80006B65747300436865636B4E52004E526D01
:102D90006573736167657300436865636B313238CF
:102DA00000456E61626C6531323800436865636B63
:102DB0004D6F646500427574746F6E486F6C646922
:102DC0006E6700486F73744D6F6465004368656398
:102DD0006B42006272696768746E65737333004199
:102DE000434B00456E61626C650052657600554E3E
:102DF0004B4E4F574E005249474854004C4546549D
:102E0000004F5554455200494E4E4552002C20501B
:102E1000617273656420446174613A20004D65738A
:102E20007361676520547970653A20307800457683
:102E3000656E743A20000A00556E6B6E6F776E20D7
:102E40004576656E7420436F64653A203078004F94
:102E50007665722054656D70657261747572650077
:102E600053797374656D204661696C7572650042B3
:102E70006F6F747570004E414B0041434B004261CF
:102E800072636F646520747970653A20002C20426B
:102E90006172636F64653A20005A656272612C202A
:102EA0004669726D776172652056657273696F6EDF
:102EB0003A2000556E6B6E6F776E00474D36372C9B
:102EC00020534E3A00532F4E3A00556E6B6E6F777B
:102ED0006E004D6F64656C005B496E76616C696471
:102EE00020436865636B73756D5D0053656E742078
:102EF00041434B20746F20426172636F64652053BD
:102F000063616E6E657220666F722056616C6964D3
:102F1000204D6573736167650041434B004E52005D
:102F2000426172636F64653A00426172636F646507
:102F30003A004D65737361676520547970653A2076
:102F4000307846330052656164206F6E20003A206D
:102F5000002E20496E76616C6964204D6573736143
:102F600067653A20005265616420417474656D7034
:102F700074206F6E200072657475726E65643A20FD
:102F800054696D656F7574206F7220496E636F6D43
:102F9000706C65746520526573706F6E73650A009E
:102FA0005363616E6E65723A20002C205761732066
:102FB00073656E74206D6573736167653A20002CCC
:102FC0002000556E6B6E6F776E206D657373616751
:102FD000653A20005E6C656674646F6F725F6F7037
:102FE000656E65643A307C3A24005E6C6566746494
:102FF0006F6F725F6F70656E65643A307C3A240063
:103000005E6C656674646F6F725F636C6F7365642A
:103010003A307C3A24005E6C656674646F6F725F50
:10302000636C6F7365643A307C3A24005E72696742
:103030006874646F6F725F6F70656E65643A307C40
:103040003A24005E7269676874646F6F725F6F70B4
:10305000656E65643A307C3A24005E726967687414
:10306000646F6F725F636C6F7365643A307C3A248F
:10307000005E7269676874646F6F725F636C6F7310
:1030800065643A307C3A24003A200020616E642066
:1030900000414C4552543A204475706C6963617428
:1030A0006520626172636F646520666F756E64206F
:1030B000696E20736C6F74732000656D7074790095
:1030C0003A24003A24002C3130323D002C31303289
:1030D0003D002C3130313D002C3130313D003D0080
:1030E0003D656D707479005E7363616E5F616C6CD9
:1030F0005F726573703A327C6661696C7572653AAD
:10310000005E7363616E5F616C6C5F726573703AD1
:10311000327C6661696C7572653A005E7363616EDC
:103120005F616C6C5F726573703A327C7375636358
:103130006573733A005E7363616E5F616C6C5F729E
:103140006573703A327C737563636573733A005EBE
:103150007363616E5F616C6C5F726573703A327C31
:10316000696E7374616C6C6D6F64653A005E736355
:10317000616E5F616C6C5F726573703A327C696E10
:103180007374616C6C6D6F64653A00446174613A8C
:103190002041434B0053657474696E6720706172FF
:1031A000616D20666F722000474D3637005265769C
:1031B000206661696C65642E20536B697070696E5E
:1031C00067206675727468657220636F6E666967E2
:1031D00020666F722074686973207363616E6E6518
:1031E000722E0054696D656F7574206F7220496E80
:1031F000636F6D706C65746520526573706F6E736C
:103200006500526576005246494420726177206419
:103210006174613A2000524649442063617264201F
:103220006E756D6265723A20002C20466F756E6473
:10323000203D2000524649444C6F6F702000436887
:1032400065636B696E6720524649442053656E730F
:103250006F723A00206F6620000A0A4379636C653A
:103260002000414C4552543A2052696768745075A9
:103270006D70426172636F64654F766572726964E6
:1032800065206973204F4E2E20446F6E2774206690
:103290006F7267657420746F207475726E206F662C
:1032A00066206F6E63652066697865642E00414C08
:1032B0004552543A204C65667450756D7042617287
:1032C000636F64654F766572726964652069732007
:1032D0004F4E2E20446F6E277420666F72676574A0
:1032E00020746F207475726E206F6666206F6E6337
:1032F000652066697865642E00414C4552543A2039
:10330000576970657220537769746368204F7665DA
:103310007272696465206973204F4E2E20446F6E6F
:10332000277420666F7267657420746F20747572DD
:103330006E206F6666206F6E6365206669786564CF
:103340002E00414C4552543A2052464944204F7673
:10335000657272696465206973204F4E2E20446F38
:103360006E277420666F7267657420746F207475A1
:10337000726E206F6666206F6E6365206669786581
:10338000642E00414C4552543A2053797374656D54
:103390004865616C7468204661696C7572652C20A3
:1033A000526967687450756D70426172636F6465CD
:1033B000476F6F64203D2000414C4552543A2053E2
:1033C000797374656D4865616C7468204661696CD9
:1033D0007572652C204C65667450756D7042617213
:1033E000636F6465476F6F64203D2000414C455218
:1033F000543A2053797374656D4865616C74682024
:103400004661696C7572652C204F757465724261F6
:1034100072636F6465476F6F64203D2000414C45C7
:1034200052543A2053797374656D4865616C7468C1
:10343000204661696C7572652C20496E6E6572421A
:103440006172636F6465476F6F64203D2000414C7B
:103450004552543A2053797374656D4865616C74B4
:1034600068204661696C7572652C204469737461CB
:103470006E636553656E736F72476F6F64203D2096
:1034800000414C4552543A2053797374656D486538
:10349000616C7468204661696C7572652C204C6F94
:1034A000616443656C6C53656E736F72476F6F64D4
:1034B000203D2000414C4552543A205379737465A5
:1034C0006D4865616C7468204661696C7572652C25
:1034D000204163747561746F72486F6D696E6747E0
:1034E0006F6F64203D2000414C4552543A2053797F
:1034F0007374656D4865616C7468204661696C75AC
:1035000072652C204163747561746F724F757465B8
:103510007255704F70746F476F6F64203D2000418B
:103520004C4552543A2053797374656D4865616C0B
:103530007468204661696C7572652C2041637475EE
:1035400061746F72496E6E657255704F70746F471B
:103550006F6F64203D2000414C4552543A2053790E
:103560007374656D4865616C7468204661696C753B
:1035700072652C204163747561746F724D6F746F46
:1035800072456E636F646572476F6F64203D200003
:10359000414C4552543A2053797374656D486561C6
:1035A0006C7468204661696C7572652C2041637487
:1035B0007561746F724D6F746F72476F6F64203DE9
:1035C0002000414C4552543A2053797374656D483C
:1035D00065616C7468204661696C7572652C204366
:1035E00061726F7573656C486F6D696E67476F6F59
:1035F00064203D2000414C4552543A205379737465
:10360000656D4865616C7468204661696C757265AA
:103610002C204361726F7573656C43656E746572BF
:10362000456E636F646572476F6F64203D20004193
:103630004C4552543A2053797374656D4865616CFA
:103640007468204661696C7572652C204361726FE5
:103650007573656C4D6F746F72456E636F646572E0
:10366000476F6F64203D2000414C4552543A20532F
:10367000797374656D4865616C7468204661696C26
:103680007572652C204361726F7573656C4D6F7434
:103690006F72476F6F64203D2000414C4552543A91
:1036A0002053797374656D4865616C746820466158
:1036B000696C7572652C204361726F7573656C4817
:1036C0006F6D654F70746F476F6F64203D200041D0
:1036D0004C4552543A2044697370656E736572208C
:1036E00069732063757272656E746C7920696E20DF
:1036F000496E7374616C6C4D6F64652E20204E6F43
:103700007420617474656D7074696E6720746F20C5
:10371000686F6D65206361726F7573656C20796584
:10372000742E00526967687450756D7042617263DF
:103730006F6465476F6F64203D20004C6566745070
:10374000756D70426172636F6465476F6F64203D91
:1037500020004F75746572426172636F6465476FD4
:103760006F64203D2000496E6E6572426172636F26
:103770006465476F6F64203D20005246494453659D
:103780006E736F72476F6F64203D200044697374DD
:10379000616E636553656E736F72476F6F64203D32
:1037A00020004C6F616443656C6C53656E736F727F
:1037B000476F6F64203D20004163747561746F72C0
:1037C000486F6D696E67476F6F64203D20004163ED
:1037D000747561746F724F7574657255704F707443
:1037E0006F476F6F64203D20004163747561746F93
:1037F00072496E6E657255704F70746F476F6F646B
:10380000203D20004163747561746F724D6F746F59
:1038100072456E636F646572476F6F64203D200070
:103820004163747561746F724D6F746F72476F6F1F
:1038300064203D20004361726F7573656C486F6D45
:10384000696E67476F6F64203D20004361726F753A
:1038500073656C43656E746572456E636F64657203
:10386000476F6F64203D20004361726F7573656C14
:103870004D6F746F72456E636F646572476F6F64EE
:10388000203D20004361726F7573656C4D6F746FDE
:1038900072476F6F64203D20004361726F757365DE
:1038A0006C486F6D654F70746F476F6F64203D207B
:1038B000005E646F6F725F6F70656E65643A307C36
:1038C0003A24005E646F6F725F6F70656E65643A74
:1038D000307C3A24005E646F6F725F636C6F736557
:1038E000643A307C3A24005E646F6F725F636C6F81
:1038F0007365643A307C3A240052657363616E20CC
:103900004C6566746F766572203D20005265736366
:10391000616E2057726170203D20005265736361B3
:103920006E204C6566746F766572203D200052658E
:103930007363616E204E6F2057726170203D2000CE
:1039400052657363616E204C6566746F7665722094
:103950003D200052657363616E2057726170203D97
:10396000200052657363616E204C6566746F7665E6
:1039700072203D200052657363616E204E6F2057A8
:10398000726170203D200052657363616E20416C4E
:103990006C203D20005E70617573653A005E726553
:1039A0007365743A005E63616E63656C3A005E70C5
:1039B000617573653A005E72657365743A005E63A3
:1039C000616E63656C3A003A24005E6F7665723A08
:1039D000317C003A24005E6F7665723A317C003AA1
:1039E00024005E6D6973733A317C003A24005E6D89
:1039F0006973733A317C003A24005E7365745F73B7
:103A000063616C655F6C6564735F726573703A3295
:103A10007C737563636573733A003A24005E736563
:103A2000745F7363616C655F6C6564735F7265730B
:103A3000703A327C737563636573733A00736574AF
:103A40005F7363616C655F6C65647300776869744C
:103A500065006D61787768697465006F66660066F9
:103A6000696E697368656400616C6572740064698D
:103A70007370656E73696E67006469737000626F5E
:103A8000776C006163746976650069646C650056E3
:103A9000616C7565207061737365643D00496E20CB
:103AA0007365745F7363616C655F6C65647321003B
:103AB0003A24005E64656D6F5F726573703A327CA4
:103AC000737563636573733A003A24005E64656DD1
:103AD0006F5F726573703A327C737563636573737D
:103AE0003A0064656D6F0056616C75652070617396
:103AF0007365643D00496E2064656D6F2066756E68
:103B00006374696F6E21005E70696E673A307C3A4B
:103B100024005E70696E673A307C3A2400416D6F14
:103B2000756E745F44697370656E7365643A0900FD
:103B30005765696768742041667465722031207327
:103B400065633A0900576569676874204166746562
:103B5000723A0900446F6E6500526576657273694A
:103B60006E6700576569676874204265666F7265A5
:103B70003A0900416D6F756E745F44697370656ECC
:103B80007365643A09005765696768742041667413
:103B900065722031207365633A090057656967686B
:103BA000742041667465723A0900446F6E65005274
:103BB0006576657273696E6700576569676874201A
:103BC0004265666F72653A0900537465707065727C
:103BD0002050756D702044726976657220506F7345
:103BE0006974696F6E204572726F72206F66200073
:103BF00043757272656E742050756D7020537465D4
:103C0000707065722044726976657220506F7369B6
:103C100074696F6E206F6620002E20446973746192
:103C20006E636546726F6D546172676574203D20E6
:103C300000292043616C6C65642C204375727265A9
:103C40006E7420506F736974696F6E203D20004759
:103C50006F546F506F736974696F6E280053746589
:103C6000707065722050756D70204472697665724F
:103C700020506F736974696F6E204572726F722085
:103C80006F66200043757272656E742050756D709A
:103C90002053746570706572204472697665722075
:103CA000506F736974696F6E206F6620002E204418
:103CB000697374616E636546726F6D546172676596
:103CC00074203D2000292043616C6C65642C2043E6
:103CD000757272656E7420506F736974696F6E20AF
:103CE0003D2000476F546F506F736974696F6E2881
:103CF000003A24005E64697370656E73655F746971
:103D00006D65645F726573703A327C737563636569
:103D100073733A003A24005E64697370656E73656C
:103D20005F74696D65645F726573703A327C737538
:103D300063636573733A0064697370656E73655F7E
:103D400074696D656400416674657220686F6D65A5
:103D50002061637475616C2C20736574706F696E7B
:103D6000742C2070776D3A00456E64696E6720414F
:103D700063747561746F722061637475616C2C205B
:103D8000736574706F696E742C2070776D3A005390
:103D900074617274696E67204163747561746F72C7
:103DA0002061637475616C2C20736574706F696E2B
:103DB000742C2070776D3A0056616C7565207061C7
:103DC000737365643D0056616C7565207061737333
:103DD00065643D00496E2064697370656E7365208B
:103DE00074696D656421005E646F6F725F756E6CDF
:103DF0006F636B5F726573703A317C737563636573
:103E000073733A24005E646F6F725F756E6C6F63DC
:103E10006B5F726573703A317C737563636573733E
:103E20003A2400646F6F725F756E6C6F636B006C29
:103E30006F636B656400756E6C6F636B6564006CBB
:103E40006F636B656400756E6C6F636B65640020F7
:103E50003D2000416674657220556E6C6F636B691E
:103E60006E672C2052656C6F6164446F6F72556E83
:103E70006C6F636B53656E736550696E203D2000F7
:103E8000203D20004265666F726520556E6C6F6341
:103E90006B696E672C2052656C6F6164446F6F7242
:103EA000556E6C6F636B53656E736550696E203D24
:103EB0002000496E20646F6F725F756E6C6F636B6C
:103EC0002066756E6374696F6E21005E636162695E
:103ED0006E65745F6C6F636B5F726573703A317C93
:103EE000737563636573733A24005E636162696E20
:103EF00065745F6C6F636B5F726573703A317C736E
:103F00007563636573733A2400636162696E6574F7
:103F10005F6C6F636B004166746572204C6F636BFE
:103F2000696E672C2045787465726E616C446F6FA2
:103F300072556E6C6F636B53656E736550696E3A44
:103F400020004265666F7265204C6F636B696E6717
:103F50002C2045787465726E616C446F6F72556E7B
:103F60006C6F636B53656E736550696E3A200049E0
:103F70006E20636162696E65745F6C6F636B20664F
:103F8000756E6374696F6E21005E636162696E6550
:103F9000745F756E6C6F636B5F726573703A317CC2
:103FA000737563636573733A24005E636162696E5F
:103FB00065745F756E6C6F636B5F726573703A31B9
:103FC0007C737563636573733A2400636162696E21
:103FD00065745F756E6C6F636B004166746572200B
:103FE000556E6C6F636B696E672C204578746572D3
:103FF0006E616C446F6F72556E6C6F636B53656E60
:10400000736550696E3A20004265666F726520558F
:104010006E6C6F636B696E672C2045787465726E89
:10402000616C446F6F72556E6C6F636B53656E732A
:104030006550696E3A2000496E20636162696E6561
:10404000745F756E6C6F636B2066756E6374696FF9
:104050006E21005E74616E6B646F6F725F756E6C63
:104060006F636B5F726573703A317C737563636500
:1040700073733A24005E74616E6B646F6F725F7568
:104080006E6C6F636B5F726573703A317C737563CE
:10409000636573733A240074616E6B646F6F725F53
:1040A000756E6C6F636B00416674657220556E6C43
:1040B0006F636B696E672C2045787465726E616CF6
:1040C000446F6F72556E6C6F636B53656E736550A2
:1040D000696E3A20004265666F726520556E6C6F9E
:1040E000636B696E672C2045787465726E616C44F1
:1040F0006F6F72556E6C6F636B53656E736550694D
:104100006E3A2000496E2074616E6B646F6F725F4F
:10411000756E6C6F636B2066756E6374696F6E216C
:1041200000636C6F736564006F70656E003A240005
:10413000636C6F736564006F70656E005E6C6566BE
:1041400074646F6F725F7374617475735F7265739B
:10415000703A317C003A24005E6C656674646F6F5F
:10416000725F7374617475735F726573703A317CDA
:10417000006C656674646F6F725F737461747573DD
:10418000004C656674446F6F724F70656E203D2001
:1041900000636C6F736564006F70656E003A240095
:1041A000636C6F736564006F70656E005E72696743
:1041B0006874646F6F725F7374617475735F726536
:1041C00073703A317C003A24005E726967687464E7
:1041D0006F6F725F7374617475735F726573703A39
:1041E000317C007269676874646F6F725F737461A9
:1041F000747573005269676874446F6F724F7065AD
:104200006E203D200072656D6F76656400696E7387
:104210006572746564003A240072656D6F7665643A
:1042200000696E736572746564005E7769706572AB
:104230005F7374617475735F726573703A317C007B
:104240003A24005E77697065725F73746174757388
:104250005F726573703A317C0077697065725F7365
:104260007461747573004F7665727269646557691D
:10427000706572537769746368206973204F4E2CA0
:104280002073657474696E67205769706572496E32
:10429000736572746564203D2054727565005769BA
:1042A000706572496E736572746564203D2000729A
:1042B000656D6F76656400696E7365727465640020
:1042C0003A240072656D6F76656400696E7365727D
:1042D000746564005E64726970747261795F73748E
:1042E000617475735F726573703A317C003A2400B3
:1042F0005E64726970747261795F737461747573EE
:104300005F726573703A317C0064726970747261B7
:10431000795F73746174757300447269705472616B
:1043200079496E736572746564203D20006C6F631B
:104330006B656400756E6C6F636B6564003A240096
:104340006F70656E3A00636C6F7365643A006C6FF2
:10435000636B656400756E6C6F636B6564005E63B0
:104360006162696E65745F7374617475735F7265A1
:1043700073703A327C003A24006F70656E3A0063C5
:104380006C6F7365643A005E636162696E65745F49
:104390007374617475735F726573703A327C006C0C
:1043A0006F636B656400756E6C6F636B656400634F
:1043B0006162696E65745F737461747573006F70A8
:1043C000656E00636C6F73656400203D2000457866
:1043D0007465726E616C446F6F72556E6C6F636B57
:1043E00053656E736550696E203D2000203D2000AE
:1043F000436162696E6574446F6F72436C6F73657D
:1044000064203D20003A24005E74616E6B5F73741B
:10441000617475735F726573703A317C003A240081
:104420005E74616E6B5F7374617475735F726573D4
:10443000703A317C0074616E6B5F73746174757374
:10444000003A24005E706F736974696F6E5F636118
:104450006E69737465725F7265706C6163655F72BB
:104460006573703A327C6661696C7572653A003AC0
:1044700024005E706F736974696F6E5F63616E694B
:10448000737465725F7265706C6163655F7265738A
:10449000703A327C6661696C7572653A003A240044
:1044A0005E706F736974696F6E5F63616E69737458
:1044B00065725F7265706C6163655F726573703A97
:1044C000327C737563636573733A003A24005E70DF
:1044D0006F736974696F6E5F63616E69737465721F
:1044E0005F7265706C6163655F726573703A327C90
:1044F000737563636573733A00706F736974696F82
:104500006E5F63616E69737465725F7265706C6112
:1045100063650056616C7565207061737365643DF9
:1045200000496E20706F736974696F6E2063616EED
:104530006973746572207265706C6163652066755D
:104540006E6374696F6E2100496E207061757365CA
:104550002066756E6374696F6E21005E72657363A9
:10456000616E5F737461727465643A307C3A2400E2
:104570005E72657363616E5F737461727465643AD1
:10458000307C3A24005E72657363616E5F66696EAB
:1045900069736865643A307C3A24005E72657363BF
:1045A000616E5F66696E69736865643A307C3A244F
:1045B00000414C4552543A204455504C49434154D3
:1045C0004520424152434F444528532920444554F5
:1045D000454354454420445552494E472052455383
:1045E00043414E5F43414E4953544552532120208D
:1045F00052657475726E696E67207363616E5F6178
:104600006C6C5F72657370206661696C7572652091
:10461000616E6420626C616E6B696E67206F757489
:1046200020626172636F6465732E005E72657363EE
:10463000616E5F63616E6973746572735F726573D7
:10464000703A317C6661696C7572653A24005E72FD
:10465000657363616E5F63616E6973746572735FC6
:10466000726573703A317C6661696C7572653A2463
:104670000048617665576553756363657373667546
:104680006C6C79486F6D65644361726F7573656CAE
:104690004265666F7265203D2000486F6D6541631D
:1046A000747561746F72537563636573734F6E5382
:1046B000746172747570203D200053616665546F9B
:1046C000526F746174654361726F7573656C2829EC
:1046D000203D200052656C6F6164446F6F724F70B3
:1046E000656E203D20005E72657363616E5F63617D
:1046F0006E6973746572735F726573703A317C733F
:104700007563636573733A24005E72657363616EEB
:104710005F63616E6973746572735F726573703A1B
:10472000317C737563636573733A24005E726573DD
:1047300063616E5F63616E6973746572735F7265E6
:1047400073703A317C6661696C7572653A24005EFB
:1047500072657363616E5F63616E697374657273B2
:104760005F726573703A317C6661696C7572653A27
:1047700024002152656C6F6164446F6F724F7065E5
:104780006E2026262053616665546F526F746174E3
:10479000654361726F7573656C2829202626204851
:1047A0006F6D654163747561746F72537563636592
:1047B00073734F6E5374617274757020262620488F
:1047C00061766557655375636365737366756C6C65
:1047D00079486F6D65644361726F7573656C42658E
:1047E000666F7265203D2000556E61626C652074B5
:1047F0006F2072657363616E2063616E69737465A7
:1048000072732064756520746F2074686973206307
:104810006865636B206661696C696E673A00547203
:1048200079696E6720746F20486F6D654361726FA0
:104830007573656C2C2073696E63652069742068DC
:1048400061736E2774207375636365737366756C2B
:104850006C7920686F6D6564207965742E00496EEF
:104860002072657363616E5F63616E6973746572F4
:10487000732066756E6374696F6E2100626C61638C
:104880006B007768697465005E72657365745F724A
:104890006573703A317C737563636573733A240092
:1048A0005E72657365745F726573703A317C73759F
:1048B00063636573733A2400496E2072657365748F
:1048C0002066756E6374696F6E21005E63616E634E
:1048D000656C5F726573703A317C73756363657381
:1048E000733A24005E63616E63656C5F726573701A
:1048F0003A317C737563636573733A2400496E20A3
:1049000063616E63656C2066756E6374696F6E219A
:1049100000496E20726573756D655F66756E6374B0
:10492000696F6E2066756E6374696F6E21005E73C9
:10493000797374656D5F636865636B5F72657370CF
:104940003A317C737563636573733A24005E7379DF
:104950007374656D5F636865636B5F726573703AEE
:10496000317C737563636573733A24005E73797386
:1049700074656D5F636865636B5F726573703A3110
:104980007C6661696C7572653A24005E7379737434
:10499000656D5F636865636B5F726573703A317CE8
:1049A0006661696C7572653A240073797374656D1C
:1049B0005F636865636B00496E2073797374656D1E
:1049C0005F636865636B2066756E6374696F6E21E3
:1049D000005E72656164795F746F5F736869705FB0
:1049E000726573703A317C737563636573733A24CF
:1049F000005E72656164795F746F5F736869705F90
:104A0000726573703A317C737563636573733A24AE
:104A1000005E72656164795F746F5F736869705F6F
:104A2000726573703A317C6661696C7572653A249F
:104A3000005E72656164795F746F5F736869705F4F
:104A4000726573703A317C6661696C7572653A247F
:104A50000072656164795F746F5F736869700049A3
:104A60006E2072656164795F746F5F73686970202E
:104A700066756E6374696F6E21005E72656164793C
:104A80005F746F5F7573655F726573703A317C73C5
:104A90007563636573733A24005E72656164795F60
:104AA000746F5F7573655F726573703A317C73758F
:104AB00063636573733A24005E72656164795F7441
:104AC0006F5F7573655F726573703A317C6661699B
:104AD0006C7572653A24005E72656164795F746F0B
:104AE0005F7573655F726573703A317C6661696C7E
:104AF0007572653A240072656164795F746F5F75E1
:104B0000736500496E2072656164795F746F5F75CB
:104B100073652066756E6374696F6E21003A2400B8
:104B20005E7374617475735F726573703A317C0083
:104B30003A24005E7374617475735F726573703AC2
:104B4000317C0052656C6F6164446F6F72556E6C9E
:104B50006F636B53656E736550696E203D2000571F
:104B600069706572496E736572746564203D2000DA
:104B7000094163747561746F724F75746572557015
:104B80004F70746F203D2000094163747561746F2C
:104B900072496E6E657255704F70746F203D2000C3
:104BA0004163747561746F72456E636F64657220E2
:104BB0003D200041313420414D49532D33303534AF
:104BC00033205664642052656C6F6164446F6F7269
:104BD000436C6F736564203D200043757272656E8F
:104BE00074205765696768743A0900496E207374C8
:104BF000617475735F66756E6374696F6E20667538
:104C00006E6374696F6E21005E626F776C5F7765AB
:104C1000696768745F726573703A327C7375636339
:104C20006573733A005E626F776C5F77656967687A
:104C3000745F726573703A327C7375636365737306
:104C40003A005E626F776C5F7765696768745F7260
:104C50006573703A327C6661696C7572653A005EA4
:104C6000626F776C5F7765696768745F7265737090
:104C70003A327C6661696C7572653A002C2053612A
:104C80006D706C657320776572653A2000426F77AE
:104C90006C20776569676874204E4F5420534554E3
:104CA000544C45442C20736F2072657475726E20CD
:104CB0004661696C757265206275742072657475E1
:104CC000726E204162736F6C7574655765696768B1
:104CD0007420616E797761792C204162736F6C75F5
:104CE0007465576569676874203D20004E657720BC
:104CF0005246494420746167206465746563746535
:104D0000642C2074686579206D75737420686176F1
:104D100065207377617070656420626F776C732CA7
:104D200020736F207765206E65656420746F207333
:104D3000656E6420626F776C5F706C616365642080
:104D40006E6F77206265666F726520626F776C5F49
:104D50007765696768745F726573702E00524649A3
:104D6000442074616773206D617463682C206E6FDA
:104D7000206E65656420746F207468726F7720629E
:104D80006F776C5F706C61636564206576656E74C7
:104D900000436C656172696E6720616C6C20496EBE
:104DA000697469616C4163747561746F72506F737B
:104DB0006974696F6E735B5D20616E642053657208
:104DC00069616C4E756D6265724861734265656EAE
:104DD00044697370656E7365645B5D2E00206F754A
:104DE00074206F6620626F756E64732C2063616E31
:104DF0006E6F7420736574207468697320696E2007
:104E000074686520454550524F4D2E00736C6F7489
:104E10005F6E756D62657220002920746F20005DE1
:104E20002028736C6F74200053657474696E67205A
:104E3000496E697469616C4163747561746F725015
:104E40006F736974696F6E735B004166746572207D
:104E50005363616C655F43616C6962726174696F11
:104E60006E3A20004265666F7265205363616C651F
:104E70005F43616C6962726174696F6E3A200041D0
:104E800066746572205363616C655F43616C69622F
:104E9000726174696F6E5F5765696768743A200064
:104EA0004265666F7265205363616C655F43616C38
:104EB0006962726174696F6E5F5765696768743A99
:104EC00020004166746572205363616C655F4361C5
:104ED0006C6962726174696F6E5F323030673A205C
:104EE000004265666F7265205363616C655F436164
:104EF0006C6962726174696F6E5F323030673A203C
:104F0000004166746572205363616C655F43616C38
:104F10006962726174696F6E5F5A65726F3A2000E0
:104F20004265666F7265205363616C655F43616CB7
:104F30006962726174696F6E5F5A65726F3A2000C0
:104F40004661696C656420746F20676574203578EC
:104F500020676F6F642064697374616E636520728B
:104F6000656164696E677320696E2063616C696254
:104F7000726174655F77686974655F626F776C28CA
:104F800029000941766752616E67653A0900095246
:104F9000616E6765353A09000952616E6765343A9A
:104FA00009000952616E6765333A09000952616E62
:104FB0006765323A090052616E6765313A09004609
:104FC00061696C656420746F206765742035782092
:104FD000676F6F642064697374616E6365207265C6
:104FE0006164696E677320696E2063616C696272C7
:104FF0006174655F626C61636B5F626F776C2829B7
:10500000000941766752616E67653A09000952618D
:105010006E6765353A09000952616E6765343A0971
:10502000000952616E6765333A09000952616E6783
:1050300065323A090052616E6765313A0900466986
:105040006E616C20656E636F646572203D20004167
:1050500066746572206272616B652C20656E636F89
:10506000646572203D200044657369726564207038
:105070006F736974696F6E203D20004163747561C0
:10508000746F7252657475726E546F486F6D6546B9
:105090006173742C204265666F726520456E636F84
:1050A000646572203D20000943656E746572456E2B
:1050B000636F646572506F736974696F6E203D2011
:1050C0000900094361726F7573656C486F6D6520E7
:1050D0003D20090009616363656C537465707065F8
:1050E000722E63757272656E74506F736974696F36
:1050F0006E2829203D200900537465707065725038
:105100006F7330203D200900436865636B20636541
:105110006E74657220656E636F64657220666F726F
:10512000206C6F6F73656E6573732F736C6970702D
:10513000696E67202D2065697468657220746865E2
:105140002079656C6C6F7720696E73657274206866
:10515000617320636F6D65206C6F6F73652066727D
:105160006F6D207468652073686166742C206861B7
:105170007320706F70706564206F7574206F662087
:1051800063656E74657220656E636F6465722C2052
:105190006F72207468652077686F6C6520656E6338
:1051A0006F64657220697473656C66206861732032
:1051B000746F6F206D75636820776967676C652011
:1051C000746F206974206F722069736E2774207366
:1051D00065617465642077656C6C2E002A2A2A4606
:1051E00041494C45442A2A2A002A2A2A504153532D
:1051F00045442A2A2A004174206C65617374206F2B
:105200006E65206F6620746865206361726F7573C8
:10521000656C206D6F76656D656E7473206661696F
:105220006C65642C20736F20746869732069732027
:1052300061206661696C75726520616E64206E6FB5
:105240007420612076616C69642063656E74657298
:1052500020656E636F64657220736C697070696E2F
:105260006720746573742E002A2A2A4641494C45EA
:10527000442A2A2A00546869732076616C75652077
:1052800073686F756C64206265203C203530207433
:105290006F20656E73757265206E6F20736C697018
:1052A00070696E672E00446966666572656E636537
:1052B00020696E2063656E74657220656E636F642D
:1052C000657220706F736974696F6E207768656EA0
:1052D000206D6F76696E6720636C6F636B7769739F
:1052E0006520767320636F756E746572636C6F638F
:1052F0006B77697365206973200043656E7465720E
:1053000020656E636F64657220506F736974696F96
:105310006E4174536C6F743130434357203D20000D
:1053200043656E74657220656E636F6465722050AC
:105330006F736974696F6E4174536C6F743130436D
:1053400057203D20000A43656E74657220656E63C8
:105350006F64657220506F736974696F6E41744831
:105360006F6D65203D20004F766572616C6C207218
:105370006573756C74203D202A2A2A4641494C45A4
:10538000442A2A2A004F766572616C6C207265731C
:10539000756C74203D202A2A2A5041535345442AD3
:1053A0002A2A004E756D626572206F66206D6F76D9
:1053B000656D656E74206661696C75726573203DFC
:1053C00020004E756D626572206F66206D6F766588
:1053D0006D656E742072657472696573203D20007E
:1053E000206379636C65732E000A0A46696E6973DF
:1053F000686564204379636C652054657374206F1D
:105400006620006E756D4661696C75726573203D2E
:1054100020006E756D52657472696573203D2000C1
:1054200053756363657373203D200067476F546F46
:10543000506F736974696F6E526574726965732019
:105440003D2000476F546F44697370656E736553F8
:105450006C6F74203D20006E756D4661696C7572CD
:105460006573203D20006E756D52657472696573B9
:10547000203D200053756363657373203D200067F2
:10548000476F546F506F736974696F6E52657472B1
:10549000696573203D2000476F546F4469737065E0
:1054A0006E7365536C6F74203D20002054696D65E8
:1054B00073004379636C65205465737420524649C8
:1054C0004420446F6E652C2052464944204D697338
:1054D00073696E6720002054696D657300437963BA
:1054E0006C652054657374205246494420446F6EA5
:1054F000652C205246494420446574656374656494
:1055000020002054696D6573002054696D65732C0B
:105510002052464944204D697373696E67200043E9
:1055200079636C65205465737420526573756C746F
:105530007320536F20466172202D2052464944202B
:105540004465746563746564200020636F6D706CDE
:10555000657465642C20486F7572732052656D61A7
:10556000696E696E67203D2000206F7574206F663C
:1055700020004379636C65200052464944204E6FF9
:105580007420446574656374656421005E706F7790
:1055900065725F6379636C655F70635F726573707A
:1055A0003A317C737563636573733A24005E706F80
:1055B0007765725F6379636C655F70635F72657353
:1055C000703A317C737563636573733A2400414CA0
:1055D0004552543A20506F776572204379636C6965
:1055E0006E6720504321005E706F7765725F63794C
:1055F000636C655F726F757465725F726573703A24
:10560000317C737563636573733A24005E706F77E2
:1056100065725F6379636C655F726F757465725FE5
:10562000726573703A317C737563636573733A2482
:1056300000414C4552543A20506F776572204379AF
:10564000636C696E6720526F7574657221005E77B6
:10565000697065725F72656D6F7665643A307C3A29
:1056600024005E77697065725F72656D6F76656440
:105670003A307C3A24005E77697065725F696E73B8
:1056800065727465643A307C3A24005E77697065AF
:10569000725F696E7365727465643A307C3A240097
:1056A0005E64726970747261795F72656D6F766540
:1056B000643A307C3A24005E647269707472617975
:1056C0005F72656D6F7665643A307C3A24005E6483
:1056D000726970747261795F696E73657274656402
:1056E0003A307C3A24005E64726970747261795F4A
:1056F000696E7365727465643A307C3A2400666939
:105700006E697368656400616C65727400646973C6
:1057100070656E73696E6700626F776C00616374A9
:105720006976650069646C6500706F7765725F7398
:105730006176655F6D6F6465003A24005E6E61633B
:105740006B3A317C003A24005E6E61636B3A317CC7
:1057500000706F7765725F6379636C655F726F75F8
:1057600074657200706F7765725F6379636C655FF3
:105770007063006379636C655F746573745F7266F0
:105780006964006379636C655F746573745F616CF1
:105790006C006379636C655F746573745F616374D7
:1057A0007561746F7273006379636C655F746573A0
:1057B000745F6361726F7573656C00746573745F99
:1057C0007363616C655F6E6F697365007465737494
:1057D0005F6361726F7573656C5F656E636F64653F
:1057E000727300756E6A616D5F6361726F75736568
:1057F0006C006275726E5F696E5F6361726F757364
:10580000656C00746573745F6361726F7573656C4A
:105810005F6672696374696F6E007A65726F5F6349
:10582000656E7465725F656E636F646572003A24BD
:10583000005E6765745F696E7374616C6C5F6D6F39
:1058400064655F726573703A317C003A24005E676C
:1058500065745F696E7374616C6C5F6D6F64655FB6
:10586000726573703A317C006765745F696E73743A
:10587000616C6C5F6D6F6465003A24005E736574E3
:105880005F696E7374616C6C5F6D6F64655F726588
:1058900073703A317C003A24005E7365745F696E00
:1058A0007374616C6C5F6D6F64655F726573703A81
:1058B000317C007365745F696E7374616C6C5F6DCD
:1058C0006F6465007365745F77697065725F6F768A
:1058D000657272696465007365745F726669645F9E
:1058E0006F76657272696465006465637265617381
:1058F000655F70616E656C5F6272696768746E6522
:10590000737300696E6372656173655F70616E6564
:105910006C5F6272696768746E6573730073657437
:105920005F70616E656C5F6272696768746E6573E3
:105930007300686F6D655F6361726F7573656C5F2F
:105940007377656570006361726F7573656C5F7006
:105950006F736974696F6E006163747561746F72DF
:105960005F636F756E746572636C6F636B77697379
:1059700065006163747561746F725F636C6F636BF4
:1059800077697365006163747561746F725F7265C6
:105990007475726E746F686F6D656661737470692B
:1059A00064006163747561746F725F72657475729F
:1059B0006E746F686F6D6566617374007365745F94
:1059C0006163747561746F725F706F736974696F0E
:1059D0006E006163747561746F725F706F73697468
:1059E000696F6E006163747561746F725F686F6D6B
:1059F000650063616C6962726174655F626C6163AA
:105A00006B5F626F776C0063616C69627261746571
:105A10005F77686974655F626F776C007365745F48
:105A2000626C61636B5F626F776C5F6469737461F2
:105A30006E6365007365745F77686974655F626F34
:105A4000776C5F64697374616E6365007365745F1E
:105A50007363616C655F63616C6962726174696FC5
:105A60006E007365745F696E697469616C5F616310
:105A7000747561746F725F706F736974696F6E00B3
:105A8000636C6561725F6163747561746F725F707E
:105A90006F736974696F6E73003132333435363722
:105AA00038393031323334353637383930313233B2
:105AB0003435363738393031323334353637383992
:105AC00030313233343536373839300063616C6900
:105AD00062726174655F7363616C655F7368696648
