:100000000C94CD350C94F6700C94CB700C94A070BD
:100010000C9475700C944A700C941F700C94F46FCF
:100020000C94C96F0C94A7480C945A6F0C94E46E0E
:100030000C94FE350C94FE350C94FE350C94FE3574
:100040000C94FE350C94FE350C94FE350C94FE3564
:100050000C94FE350C9466730C94FE350C94C245DA
:100060000C94FE350C94D8A60C94AEA60C94FE35D8
:100070000C94FE350C94FE350C94FE350C94FE3534
:100080000C94FE350C94FE350C94FE350C94FE3524
:100090000C9484A60C945AA60C94FE350C948347B9
:1000A0000C94FE350C94FE350C94FE350C94FE3504
:1000B0000C94FE350C94FE350C94FE350C94FE35F4
:1000C0000C94FE350C94FE350C94FE350C9430A641
:1000D0000C9406A60C94FE350C94DCA50C94B2A5E9
:1000E0000C94FE3508000000BE922449123EABAAD3
:1000F000AA2ABECDCCCC4C3E00000080BEABAAAA42
:10010000AA3E00000000BF000000803F0000000089
:1001100000084178D3BB4387D1133D190E3CC3BDC2
:100120004282AD2B3E68EC8276BED98FE1A93E4C6F
:1001300080EFFFBE01C4FF7F3F00000000004E4182
:100140004E494E495459494E46CDCCCC3D0AD72351
:100150003C17B7D13877CC2B329595E6241FB14F99
:100160000A000020410000C84200401C4620BCBEDE
:100170004CCA1B0E5AAEC59D7467536964655061C5
:100180006E656C4272696768746E657373203D209A
:10019000005369646550616E656C4272696768748A
:1001A0006E657373203D200048617352656C6F610A
:1001B00064446F6F724C6F636B203D200049734243
:1001C0006C61636B426F776C41726561203D20000A
:1001D0002C20436F756E74203D200041766572615E
:1001E0006765206F66206E6F6E2D7A65726F20498D
:1001F0006E697469616C4163747561746F72506F7C
:10020000736974696F6E73203D20005D203D20008E
:1002100053657269616C4E756D626572735B005DEA
:10022000203D200053657269616C4E756D62657288
:100230004861734265656E44697370656E73656489
:100240005B005D203D2000496E697469616C41630B
:10025000747561746F72506F736974696F6E735BDC
:1002600000496E697469616C4163747561746F7281
:10027000506F736974696F6E203D20005363616C29
:10028000655F43616C6962726174696F6E5F576527
:1002900069676874203D20005363616C655F43614A
:1002A0006C6962726174696F6E5F32303067203DD5
:1002B00020005363616C655F43616C6962726174B5
:1002C000696F6E5F5A65726F203D20005363616CE9
:1002D000655F43616C6962726174696F6E203D2075
:1002E0000046575F4255494C44203D200044697305
:1002F00070656E7365725F4D6F64656C5F4D696E9E
:100300006F72203D200044697370656E7365725F83
:100310004D6F64656C5F4D616A6F72203D200044D3
:10032000697370656E7365725F53657269616C2085
:100330003D200045455050524F4D5F564552534960
:100340004F4E203D2000476574414D5432303345B7
:100350006E636F646572506F736974696F6E20416C
:100360004D5432303363757272656E74506F7369B9
:1003700074696F6E3A200052617720414D543230DB
:100380003363757272656E74506F736974696F6EE2
:100390003A200052657365742041726475696E6F0E
:1003A00020746F20726573746172742070726F674D
:1003B00072616D2E004572726F72206F6274616996
:1003C0006E696E6720706F736974696F6E2E00447A
:1003D0006F6E65207A65726F696E6720656E636FF8
:1003E0006465722C2043757272656E7420706F7331
:1003F0006974696F6E3A20005265736574204172AA
:100400006475696E6F20746F2072657374617274A5
:100410002070726F6772616D2E004572726F72206C
:100420006F627461696E696E6720706F7369746959
:100430006F6E2E00342E2E2E00332E2E2E00322ED6
:100440002E2E00312E2E2E00476F696E6720746F9E
:10045000207A65726F2074686520414D54323033C4
:1004600020656E636F646572206E6F772E2E2E206E
:100470006D6179206E65656420746F20706F77659B
:1004800072206379636C652061667465722074689C
:1004900069732E00436F7272656374656420414D09
:1004A0005432323220456E636F6465723A200041E7
:1004B0004D5432323220456E636F6465723A2000CB
:1004C000414D543232322072656164206572726F20
:1004D000722E20417474656D7074733A2000446FFD
:1004E0006E65207A65726F696E6720656E636F64F2
:1004F00065722C2043757272656E7420706F73691B
:1005000074696F6E3A2000476F696E6720746F20C0
:100510007A65726F2074686520414D543232322002
:10052000656E636F646572206E6F772E2E2E0045A8
:100530006E64696E67204163747561746F722050D8
:100540006F736974696F6E203D200053746172741B
:10055000696E67204163747561746F7220506F73A8
:100560006974696F6E203D2000486F6D654163744A
:100570007561746F7220776173207375636365733F
:100580007366756C212020426F74682061637475F6
:1005900061746F727320656E6465642075702E00DF
:1005A0002C204163747561746F724F757465725558
:1005B000704F70746F203D2000486F6D654163740B
:1005C0007561746F7220776173204E4F542073757C
:1005D000636365737366756C2C2062656361757304
:1005E00065206163747561746F7273206172652038
:1005F0006E6F7420626F74682075702E20204163C6
:10060000747561746F72496E6E657255704F707457
:100610006F203D2000426164206F7269656E7461D5
:1006200074696F6E2C207265636F6D6D656E6420EA
:10063000666C6970206163747561746F7220313803
:1006400030206465677265657320736F207468611C
:1006500074206D617820746F7271756520697320E4
:100660006F6E206F7574657220736C6F7473207376
:10067000696E636520746865792772652075736596
:1006800064206D6F7265206F6674656E2E00476F13
:100690006F64206F7269656E746174696F6E2C206F
:1006A0006D617820746F72717565206F6E206F7543
:1006B00074657220736C6F74732073696E63652048
:1006C000746865792772652075736564206D6F7233
:1006D00065206F6674656E2E002C20416374756111
:1006E000746F72446972656374696F6E496E6E658A
:1006F00072446F776E4F757465725570203D20009F
:10070000456E64206F6620486F6D696E6720416397
:10071000747561746F722C20456E636F646572200E
:100720003D200046696E616C204163747561746F91
:100730007220706F736974696F6E20616674657280
:1007400020686F6D6520746F20302069732000432E
:100750006F6E6669726D696E67206E657720706F67
:10076000736974696F6E20697320002C20736F2089
:100770006E657720706F736974696F6E206973207E
:10078000002C20736F2074616B6520746865206491
:100790006966666572656E636520696E207A65724A
:1007A0006F20706F696E747320616E642061646A7B
:1007B00075737420697420627920004375727265C4
:1007C0006E746C7920617420002C20736F20736527
:1007D00074207A65726F20706F696E742062657420
:1007E0007765656E207468652074776F2C2061745E
:1007F000200020746F20004163747561746F722053
:10080000456E636F6465722072616E6765206973FF
:1008100020004163747561746F7220456E636F646C
:1008200065722052616E6765203C203220776865D2
:100830006E2073686F756C64206265207E32303084
:100840002D3330302E20436865636B20416374750F
:1008500061746F7220456E636F64657220576972B0
:1008600065732028342070696E20636F6E6E656337
:10087000746F72292E20204966206163747561743B
:100880006F727320646964206E6F74206D6F76657B
:100890002C20636865636B206163747561746F728B
:1008A000206D6F746F722077697265732028322013
:1008B00070696E20636F6E6E6563746F72292E00AF
:1008C000426F7468206163747561746F72206F7019
:1008D000746F73207265616420646F776E202D20C1
:1008E0007468697320697320616E206572726F721B
:1008F00020636173652E2020476F696E6720746FD7
:100900002073746F7020616E642072657475726EEE
:10091000206661696C757265206F6E20486F6D6529
:100920004163747561746F7221005374616C6C65FE
:1009300064206D6F7265207468616E20353020749C
:10094000696D65732C2065786974696E67207468B9
:100950006973206C6F6F702E005374616C6C6564EA
:1009600021204E65656420746F20676F20696E20BA
:100970006F7468657220646972656374696F6E2054
:100980006E6F772C20616E64207265766572736578
:10099000206C6F6769632E004F75746572207570E7
:1009A0002C20696E6E657220646F776E202D207327
:1009B0006F206D6F766520696E6E65722075702090
:1009C000666972737420746F206D616B65206F753A
:1009D00074657220676F20646F776E0009557369C4
:1009E0006E67207265766572736564206C6F6769E7
:1009F000632C2077616974656420666F7220496E8C
:100A00006E657220746F20676F20646F776E206848
:100A10006572652073696E6365206F7574657220F9
:100A200077656E7420646F776E20696E20707265D2
:100A300076696F7573206C6F6F702E005374616CE4
:100A40006C6564206D6F7265207468616E2035304E
:100A50002074696D65732C2065786974696E6720F0
:100A600074686973206C6F6F702E005374616C6CC6
:100A7000656421204E65656420746F20676F20696E
:100A80006E206F7468657220646972656374696F43
:100A90006E206E6F772C20616E64207265766572B1
:100AA0007365206C6F6769632E00094F75746572FA
:100AB0002077656E7420646F776E207768656E208E
:100AC000657870656374696E6720696E6E65722EF5
:100AD0002020526576657273696E67206C6F676956
:100AE000632E0009496E6E657220646F776E2C204C
:100AF00073746F7070696E67206669727374206CAE
:100B00006F6F70004163747561746F724F757465B7
:100B10007255704F70746F20697320646F776E2008
:100B2000616C72656164792E20204D6F76696E6705
:100B300020697420757020616E6420496E6E657244
:100B400020646F776E2E00426F746820617265209A
:100B500075702C20636F756C6420676F20656974F5
:100B600068657220646972656374696F6E2E2020F7
:100B700043686F6F73696E6720496E6E65722044BB
:100B80006F776E2E002C204163747561746F724410
:100B90006972656374696F6E496E6E6572446F77D2
:100BA0006E4F757465725570203D200053746172EC
:100BB00074206F6620486F6D696E6720416374759D
:100BC00061746F722C20456E636F646572203D20E6
:100BD00000486F6D65486F6C6550756E636820776F
:100BE0006173207375636365737366756C21202070
:100BF000426F746820686F6C652070756E63682042
:100C00006F70746F73207265616420736166652E06
:100C1000002C204469644F757465724F70746F5472
:100C20006F67676C6550726F7065726C79203D20DC
:100C3000002C20446964496E6E65724F70746F5465
:100C40006F67676C6550726F7065726C79203D20BC
:100C5000002C20486F6C6550756E63684F75746525
:100C600072536166654F70746F203D2000486F6D50
:100C700065486F6C6550756E636820776173204EB0
:100C80004F54207375636365737366756C2C2062B3
:100C900065636175736520686F6C652070756E6340
:100CA00068206F70746F7320617265206E6F74209E
:100CB000626F746820736166652C206F7220696EA4
:100CC0006E6572206F72206F75746572206F70741C
:100CD0006F20646964206E6F7420746F67676C6541
:100CE00020647572696E6720686F6D696E672E0A81
:100CF000486F6C6550756E6368496E6E65725361BE
:100D000066654F70746F203D200046696E616C20EF
:100D1000486F6C652050756E636820706F736974DE
:100D2000696F6E20616674657220686F6D652074EE
:100D30006F20302069732000436F6E6669726D69A1
:100D40006E67206E657720706F736974696F6E20AF
:100D5000697320002C20736F206E657720706F738D
:100D60006974696F6E20697320002C20736F207482
:100D7000616B652074686520646966666572656E7E
:100D8000636520696E207A65726F20706F696E747A
:100D90007320616E642061646A75737420697420C5
:100DA0006279200043757272656E746C792061748B
:100DB00020002C20736F20736574207A65726F2079
:100DC000706F696E74206265747765656E207468F3
:100DD000652074776F2C206174200020746F2000D0
:100DE000486F6C652050756E636820456E636F6454
:100DF00065722072616E67652069732000486F6CB0
:100E0000652050756E636820456E636F646572205F
:100E100052616E6765203C2032207768656E2073D2
:100E2000686F756C64206265207E3230302D3330FF
:100E3000302E20436865636B204163747561746F65
:100E40007220456E636F6465722057697265732006
:100E500028342070696E20636F6E6E6563746F72E4
:100E6000292E20204966206163747561746F727346
:100E700020646964206E6F74206D6F76652C20632A
:100E80006865636B206163747561746F72206D6F48
:100E9000746F722077697265732028322070696ED2
:100EA00020636F6E6E6563746F72292E00426F74DB
:100EB0006820686F6C652070756E6368206F707451
:100EC0006F73207265616420646F776E202D2074CB
:100ED00068697320697320616E206572726F722079
:100EE000636173652E2020476F696E6720746F20E1
:100EF00073746F7020616E642072657475726E20F9
:100F00006661696C757265206F6E20486F6D65480B
:100F10006F6C6550756E63682100574520474F54CC
:100F200020544F20454E44204F4620484F4D4520E9
:100F3000484F4C452050554E4348204C4F4F502071
:100F4000574954484F555420494E4E4552204F5012
:100F5000544F20544F47474C494E47212020436867
:100F600065636B20496E6E657220486F6C655075C5
:100F70006E6368204F70746F20666F722066756EA6
:100F80006374696F6E616C6974792E0057452047F0
:100F90004F5420544F20454E44204F4620484F4D3B
:100FA0004520484F4C452050554E4348204C4F4F0C
:100FB0005020574954484F5554204F5554455220BE
:100FC0004F50544F20544F47474C494E4721202003
:100FD000436865636B204F7574657220486F6C655C
:100FE00050756E6368204F70746F20666F72206654
:100FF000756E6374696F6E616C6974792E004F75DC
:1010000074657220736166652C20736F2073746140
:1010100072742070756E6368696E6720696E77619F
:1010200072642077697468206F757465722E00573A
:101030004520474F5420544F20454E44204F4620D2
:10104000484F4D4520484F4C452050554E43482071
:101050004C4F4F5020574954484F5554204F5554EA
:101060004552204F50544F20544F47474C494E470C
:10107000212020436865636B204F7574657220489A
:101080006F6C6550756E6368204F70746F20666F6B
:10109000722066756E6374696F6E616C6974792E07
:1010A00000574520474F5420544F20454E44204F71
:1010B0004620484F4D4520484F4C452050554E4303
:1010C00048204C4F4F5020574954484F55542049C1
:1010D0004E4E4552204F50544F20544F47474C4995
:1010E0004E47212020436865636B20496E6E657210
:1010F00020486F6C6550756E6368204F70746F2068
:10110000666F722066756E6374696F6E616C697468
:10111000792E00496E6E657220736166652C2073AE
:101120006F20676F20696E776172642077697468D9
:1011300020696E6E657200486F6D696E6720486F3A
:101140006C652050756E63682C20456E636F646516
:1011500072203D200046696E616C20524742204F4C
:1011600075743A09005269676874436F6C6F725006
:10117000756C7365496E3A09004C656674436F6C13
:101180006F7250756C7365496E3A09004661696CFF
:10119000656420746F2067657420337820646973F8
:1011A00074616E63652072656164696E677320693E
:1011B0006E2052656164436F6C6F7253656E736F1E
:1011C00072732C20617373756D696E672063656E31
:1011D00074657265642E000941766752616E6765B9
:1011E0003A09000952616E6765333A090009526194
:1011F0006E6765323A090052616E6765313A0900DF
:10120000446F2066756C6C205748495445207265C0
:101210006164696E6700446F20616D6269656E7418
:10122000206C696768742072656164696E672077F5
:10123000697468204E656F506978656C73204F46FD
:101240004600436F6C6F722073656E736F7273200C
:101250006E6F7420696E7374616C6C65642C2064AD
:10126000656661756C74696E6720746F20524742C1
:10127000282D312C2D312C2D3129000A4C6F616421
:101280002043656C6C2053616D706C696E672066DD
:1012900061696C7572652C2052656164696E677353
:1012A000206E6F742077697468696E2037352E3030
:1012B000206772616D7320696E20302E3120736556
:1012C000632E2053616D706C657320283130782057
:1012D0004144432076616C7565732066697273744E
:1012E0002C207468656E2031307820696E2067721A
:1012F000616D73293A0900094E65772053616D705D
:101300006C65733A09000A54776F20426164205378
:10131000616D706C65732C20676F696E6720746FE8
:10132000207265706C616365207769746820322073
:101330006E65772073616D706C65733A09000A54AD
:10134000776F204261642053616D706C6573206615
:1013500061696C7572652C20676F696E6720746FA8
:10136000207265706C616365207769746820322033
:101370006E65772073616D706C65733A09002A2A77
:101380002A4641494C45442A2A2A002A2A2A504101
:10139000535345442A2A2A005461726765742069B0
:1013A00073206C657373207468616E20302E312059
:1013B00067202F20313030206D672C20736F207410
:1013C0006869732074657374200041766572616783
:1013D0006520446966666572656E636520286D6781
:1013E000293A200041766572616765204469666626
:1013F0006572656E6365202867293A20004176652D
:1014000072616765205765696768743A20004D65A9
:1014100061737572696E67206C6F61642063656CBF
:101420006C206E6F6973652C203230302073616DD3
:10143000706C65732C2073616D706C6573207065C2
:10144000722072656164696E67203D200009616CDD
:1014500069676E6D656E740900094765744F757430
:10146000657252656C6F6164536C6F7409004368F8
:1014700065636B696E67204F7574657252656C6F3A
:1014800061644973416C69676E656428293A204735
:1014900065744F7574657252656C6F6164536C6FDF
:1014A000744173466C6F6174090009616C69676E01
:1014B0006D656E74090009476574496E6E657252F8
:1014C000656C6F6164536C6F740900436865636B8E
:1014D000696E6720496E6E657252656C6F61644912
:1014E00073416C69676E656428293A2047657449C1
:1014F0006E6E657252656C6F6164536C6F7441738C
:10150000466C6F6174090009496E6E6572536C6FA9
:10151000745F48696768203D2009004F75746572E3
:10152000536C6F745F48696768203D200900094962
:101530006E6E6572536C6F745F4C6F77203D20093F
:10154000004F75746572536C6F745F4C6F77203DFC
:1015500020090009496E6E6572536C6F74203D203E
:1015600009004F75746572536C6F74203D2009003B
:1015700009446F6F724F70656E6564456E636F648A
:10158000657253746570706572506F735F4C6F77DE
:10159000203D20090009446F6F724F70656E6564CD
:1015A000456E636F64657253746570706572506FD9
:1015B000735F48696768203D200900446F6F724F70
:1015C00070656E6564456E636F64657253746570B3
:1015D000706572506F73203D200900094163747576
:1015E00061746F724F7574657255704F70746F20AF
:1015F0003D200900094163747561746F72496E6E14
:10160000657255704F70746F203D20090009436169
:10161000726F7573656C486F6D65203D2009000918
:101620004163747561746F72506F73203D200900BF
:1016300009414D54323232506F736974696F6E09CB
:101640000009414D54323033506F736974696F6EC5
:101650000900094361726F7573656C447269766540
:1016600072506F736974696F6E09004361726F75B0
:1016700073656C456E636F646572506F73697469EE
:101680006F6E0900484F4D494E4720444944204E53
:101690004F5420574F524B2050524F5045524C59A7
:1016A000212020574520415245204E4F542041547F
:1016B0002054484520484F4D454341524F555345CE
:1016C0004C204F50544F204255542053484F554CB6
:1016D0004420424521204F72207765206E65766553
:1016E00072206D6F766564206F6666206F66206974
:1016F000742070726F7065726C792E00486F6D6522
:101700004361726F7573656C2073657175656E6387
:1017100065207375636365737366756C2E0009418C
:1017200063747561746F724F7574657255704F7024
:10173000746F203D200900094163747561746F72F4
:10174000496E6E657255704F70746F203D200900B0
:10175000094361726F7573656C486F6D65203D203C
:10176000090009616363656C537465707065722E5E
:1017700063757272656E74506F736974696F6E28E9
:1017800029203D20090053746570706572506F7395
:1017900030203D20090053746570706572206D6FB4
:1017A000746F72206E6F7420706F7765726564203D
:1017B0006F72206E6F74206D6F76696E67202D20BA
:1017C000636C6F73652072656C6F616420646F6F0A
:1017D0007220616E642074727920616761696E2E77
:1017E0000009486F6D654361726F7573656C456E76
:1017F000636F646572506F736974696F6E203D200A
:10180000090009486F6D654361726F7573656C53AC
:10181000746570706572506F736974696F6E203D86
:10182000200900096669727374486F6D65436172BF
:101830006F7573656C456E636F646572506F736925
:1018400074696F6E203D2009006669727374486F79
:101850006D654361726F7573656C53746570706507
:1018600072506F736974696F6E203D200900537464
:10187000616C6C696E672064657465637465642C63
:10188000206469646E2774206D6F76652061742012
:101890006C65617374203520656E636F64657220BA
:1018A000636F756E747320696E2031207365632ECB
:1018B00000656E636F646572537465707065725015
:1018C0006F73206F7574206F662072616E6765207C
:1018D0002D2073657474696E67206E657720656E60
:1018E000636F64657253746570706572506F7320B6
:1018F0006F66200043757272656E74506F73697401
:10190000696F6E206F7574206F662072616E6765F7
:10191000202D2073657474696E67206E657720438F
:10192000757272656E7420506F736974696F6E2082
:101930006F662000656E636F6465725374657070C6
:101940006572506F73206F7574206F662072616EC0
:101950006765202D2073657474696E67206E6577E6
:1019600020656E636F646572537465707065725044
:101970006F73206F66200043757272656E74506FCE
:10198000736974696F6E206F7574206F6620726161
:101990006E6765202D2073657474696E67206E65AF
:1019A000772043757272656E7420506F7369746925
:1019B0006F6E206F662000546F6F206D616E79200E
:1019C000476F546F506F736974696F6E20726574DE
:1019D00072696573202D206572726F72696E67205F
:1019E0006F75742077697468206D69736D617463B5
:1019F00068206265747765656E20414D54313032E0
:101A000020616E6420414D543230332F414D5432A9
:101A10003232206F72206A757374206469646E2795
:101A2000742067657420746F207461726765742E0A
:101A300020476F546F506F736974696F6E204661F1
:101A4000696C7572652E005265686F6D696E6720EE
:101A50007375636365737366756C2C20676F696E4D
:101A60006720746F207472792074686520476F5402
:101A70006F506F736974696F6E20616761696E2E54
:101A8000005265686F6D696E67206661696C656498
:101A90002C20676976696E67207570206F6E2074E0
:101AA0006865206361726F7573656C206D6F766514
:101AB0006D656E742E0043656E74657220656E638D
:101AC0006F646572206D69736D617463682C206743
:101AD0006F696E6720746F207265686F6D65207422
:101AE0006865206361726F7573656C20616E642038
:101AF00074727920616761696E00526574727969E8
:101B00006E6720746865206361726F7573656C2001
:101B10006D6F76656D656E742064756520746F20D9
:101B200063656E74657220656E636F646572206DA7
:101B300069736D61746368202D20736C69707069BE
:101B40006E672063656E74657220656E636F646591
:101B5000722E204C696D6974206F662033302061CD
:101B60006E642061637475616C206F66200052653D
:101B7000747279696E6720746865206361726F752D
:101B800073656C206D6F76656D656E742064756528
:101B900020746F2073746570706572206D6F746F40
:101BA0007220656E636F646572206D69736D617418
:101BB0006368202D206C696B656C79207374616C8F
:101BC0006C6564206D6F746F722C20746F6F206869
:101BD000656176792C20746F6F206D75636820665F
:101BE00072696374696F6E2C206F72206261642069
:101BF0006D6F746F72206D6F756E7420616C6967A4
:101C00006E6D656E742F737072696E672E204C69ED
:101C10006D6974206F6620323020616E64206163CC
:101C20007475616C206F662000414D543232322051
:101C3000456E636F64657220506F736974696F6E6F
:101C4000204572726F72206F662000546172676562
:101C50007420414D5432323220456E636F64657298
:101C600020506F736974696F6E206F662000437532
:101C70007272656E7420414D5432323220456E636B
:101C80006F64657220506F736974696F6E206F6640
:101C90002000414D5432303320456E636F646572CD
:101CA00020506F736974696F6E204572726F722075
:101CB0006F66200054617267657420414D54323064
:101CC0003320456E636F64657220506F7369746969
:101CD0006F6E206F66200043757272656E742041CE
:101CE0004D5432303320456E636F64657220506FFF
:101CF000736974696F6E206F66200053746570702D
:101D0000657220456E636F64657220506F736974ED
:101D1000696F6E204572726F72206F662000437586
:101D20007272656E74205374657070657220456EB2
:101D3000636F64657220506F736974696F6E206F92
:101D40006620005374657070657220447269766510
:101D50007220506F736974696F6E204572726F7272
:101D6000206F66200043757272656E74205374652F
:101D7000707065722044726976657220506F736965
:101D800074696F6E206F6620004361726F757365B2
:101D90006C206D6F76656D656E74206661696C652B
:101DA00064202D2073746F7070696E672E2020453B
:101DB0006974686572206E6F206D6F76656D656EF3
:101DC0007420617420616C6C20283C35207374652C
:101DD00070732073696E6365206C61737420353095
:101DE00030206D736563292C206F7220706F7369CA
:101DF00074696F6E20646576696174696F6E2066C0
:101E0000726F6D2077686572652073686F756C649A
:101E1000206265207673207768657265206172653F
:101E2000206261736564206F6E20656E636F646508
:101E3000722E0046696E616C20526574727920239F
:101E4000342C206C6F776572696E672061636365FF
:101E50006C65726174696F6E20616E642072616975
:101E600073696E67206D6F76652063757272656E3B
:101E7000742E0052657472792023332C206C6F7796
:101E80006572696E6720616363656C657261746910
:101E90006F6E20616E642072616973696E67206D78
:101EA0006F76652063757272656E742E005265746C
:101EB00072792023322C206C6F776572696E6720EF
:101EC000616363656C65726174696F6E20616E64D5
:101ED0002072616973696E67206D6F766520637526
:101EE0007272656E742E0052657472792023312CE3
:101EF000206C6F776572696E6720616363656C65DE
:101F0000726174696F6E20616E64207261697369B9
:101F10006E67206D6F76652063757272656E742EC4
:101F2000002E2044697374616E636546726F6D5450
:101F30006172676574203D2000292043616C6C65E7
:101F4000642C2043757272656E7420506F736974CF
:101F5000696F6E203D2000476F546F506F73697436
:101F6000696F6E456E636F64657228002E20446948
:101F70007374616E636546726F6D546172676574E8
:101F8000203D2000292043616C6C65642C20437542
:101F90007272656E7420506F736974696F6E203D44
:101FA0002000476F546F506F736974696F6E28001B
:101FB00044697374616E636546726F6D54617267D4
:101FC00065744D696E7573203D2009004469737412
:101FD000616E636546726F6D546172676574506CB3
:101FE0007573203D20090044697374616E63654612
:101FF000726F6D546172676574203D2009004375EE
:102000007272656E74506F736974696F6E203D20D3
:102010000900546172676574506F736974696F6EFB
:10202000203D200900547279696E6720746F204842
:102030006F6D654361726F7573656C2C2073696E8B
:102040006365206974206861736E277420737563FB
:102050006365737366756C6C7920686F6D65642059
:102060007965742E00496E76616C696420736C6FBB
:1020700074206E756D6265722000496E76616C69C0
:102080006420736C6F74206E756D626572200049F8
:102090006E76616C696420736C6F74206E756D620E
:1020A0006572200052464944207261772064617451
:1020B000613A2000524649442063617264206E7583
:1020C0006D6265723A2000436865636B696E6720D4
:1020D000524649442053656E736F723A00206F6612
:1020E00020000A0A4379636C6520005E646F6F729A
:1020F0005F6F70656E65643A307C3A24005E646F91
:102100006F725F6F70656E65643A307C3A24005E72
:10211000646F6F725F636C6F7365643A307C3A24EE
:10212000005E646F6F725F636C6F7365643A307CDE
:102130003A240052657363616E204C6566746F7655
:102140006572203D200052657363616E2057726195
:1021500070203D200052657363616E204C6566748B
:102160006F766572203D200052657363616E204E6C
:102170006F2057726170203D200052657363616E5D
:10218000204C6566746F766572203D200052657341
:1021900063616E2057726170203D20005265736349
:1021A000616E204C6566746F766572203D2000522A
:1021B000657363616E204E6F2057726170203D2001
:1021C0000052657363616E20416C6C203D20003AC3
:1021D00024005E6F7665723A317C003A24005E6FAF
:1021E0007665723A317C003A24005E6D6973733A09
:1021F000317C003A24005E6D6973733A317C003A99
:1022000024005E7365745F7363616C655F6C656405
:10221000735F726573703A327C7375636365737351
:102220003A003A24005E7365745F7363616C655FA6
:102230006C6564735F726573703A327C7375636347
:102240006573733A007365745F7363616C655F6C8B
:10225000656473006F66660066696E6973686564BD
:1022600000616C6572740064697370656E73696E89
:1022700067006469737000626F776C0061637469F2
:1022800076650069646C650056616C7565207061E7
:10229000737365643D00496E207365745F73636199
:1022A0006C655F6C65647321003A24005E64656D43
:1022B0006F5F726573703A327C73756363657373B5
:1022C0003A003A24005E64656D6F5F726573703A20
:1022D000327C737563636573733A0064656D6F0078
:1022E00056616C7565207061737365643D00496E5D
:1022F0002064656D6F2066756E6374696F6E210072
:102300005E70696E673A307C3A24005E70696E6771
:102310003A307C3A2400416C6C20646F6E65206416
:10232000697370656E736520414C4C2066756E63F1
:1023300074696F6E21002A2A2A4641494C2A2A2AAA
:10234000002A2A2A504153532A2A2A0054617267CC
:102350006574206F662074686973206176657261A8
:102360006765206973203432352D3637352C20735C
:102370006F2074686973206973206120002C2043EA
:102380006F756E74203D200041766572616765202F
:102390006F66206E6F6E2D7A65726F20496E69745C
:1023A00069616C4163747561746F72506F736974A5
:1023B000696F6E735B312D35305D203D2000203D0F
:1023C0002000536C6F742000656D70747900566145
:1023D0006C7565207061737365643D00496E20649F
:1023E000697370656E736520414C4C2066756E6331
:1023F00074696F6E21005E646F6F725F756E6C6FD3
:10240000636B5F726573703A317C73756363657378
:10241000733A24005E646F6F725F756E6C6F636BEE
:102420005F726573703A317C737563636573733A79
:102430002400646F6F725F756E6C6F636B00416632
:1024400074657220556E6C6F636B696E672C2052D9
:10245000656C6F6164446F6F72556E6C6F636B5324
:10246000656E736550696E3A20004265666F7265ED
:1024700020556E6C6F636B696E672C2052656C6FB4
:102480006164446F6F72556E6C6F636B53656E73EE
:102490006550696E3A2000496E20646F6F725F75F7
:1024A0006E6C6F636B2066756E6374696F6E21006E
:1024B0006C6F636B656400756E6C6F636B65640055
:1024C0003A2400636C6F7365643A006F70656E3A0E
:1024D000006C6F636B656400756E6C6F636B656435
:1024E000005E646F6F725F7374617475735F7265A1
:1024F00073703A327C003A2400636C6F7365643AFF
:10250000006F70656E3A005E646F6F725F73746126
:102510007475735F726573703A327C00646F6F72AA
:102520005F7374617475730052656C6F6164446F9E
:102530006F72556E6C6F636B53656E736550696E29
:10254000203D200052656C6F6164446F6F724F7064
:10255000656E203D200041313420414D49532D33DB
:1025600030353433205664642052656C6F616444A6
:102570006F6F72436C6F736564203D200072656DF0
:102580006F76656400696E736572746564003A24E1
:102590000072656D6F76656400696E73657274654F
:1025A00064005E77697065725F7374617475735FE0
:1025B000726573703A317C003A24005E7769706509
:1025C000725F7374617475735F726573703A317C96
:1025D0000077697065725F73746174757300576911
:1025E000706572496E736572746564203D20003AAF
:1025F00024005E706F736974696F6E5F63616E69EA
:10260000737465725F7265706C6163655F72657328
:10261000703A327C6661696C7572653A003A2400E2
:102620005E706F736974696F6E5F63616E697374F6
:1026300065725F7265706C6163655F726573703A35
:10264000327C6661696C7572653A003A24005E708E
:102650006F736974696F6E5F63616E6973746572BD
:102660005F7265706C6163655F726573703A327C2E
:10267000737563636573733A003A24005E706F7319
:102680006974696F6E5F63616E69737465725F729E
:1026900065706C6163655F726573703A327C7375E7
:1026A00063636573733A00706F736974696F6E5F0B
:1026B00063616E69737465725F7265706C61636586
:1026C0000056616C7565207061737365643D0049E7
:1026D0006E20706F736974696F6E2063616E6973C9
:1026E000746572207265706C6163652066756E63D7
:1026F00074696F6E2100496E207061757365206684
:10270000756E6374696F6E21005E72657363616ECE
:102710005F737461727465643A307C3A24005E724F
:10272000657363616E5F737461727465643A307C63
:102730003A24005E72657363616E5F66696E6973E9
:102740006865643A307C3A24005E72657363616E3A
:102750005F66696E69736865643A307C3A24005E2E
:1027600072657363616E5F63616E697374657273C2
:102770005F726573703A317C6661696C7572653A37
:1027800024005E72657363616E5F63616E6973746A
:102790006572735F726573703A317C6661696C75DE
:1027A00072653A24004861766557655375636365C1
:1027B000737366756C6C79486F6D65644361726F95
:1027C0007573656C4265666F7265203D2000486FC9
:1027D0006D65486F6C6550756E63685375636365AE
:1027E00073734F6E53746172747570203D2000488E
:1027F0006F6D654163747561746F72537563636562
:1028000073734F6E53746172747570203D20005362
:10281000616665546F526F746174654361726F7560
:1028200073656C2829203D200052656C6F616444FB
:102830006F6F724F70656E203D20005E726573632E
:10284000616E5F63616E6973746572735F726573E5
:10285000703A317C737563636573733A24005E72FA
:10286000657363616E5F63616E6973746572735FD4
:10287000726573703A317C737563636573733A2460
:10288000002152656C6F6164446F6F724F70656EAA
:102890002026262053616665546F526F74617465FB
:1028A0004361726F7573656C282920262620486F56
:1028B0006D654163747561746F725375636365739D
:1028C000734F6E5374617274757020262620486FA2
:1028D0006D65486F6C6550756E63685375636365AD
:1028E00073734F6E5374617274757020262620487E
:1028F00061766557655375636365737366756C6C54
:1029000079486F6D65644361726F7573656C42657C
:10291000666F7265203D2000556E61626C652074A3
:102920006F2072657363616E2063616E6973746595
:1029300072732064756520746F20746869732063F6
:102940006865636B206661696C696E673A005472F2
:1029500079696E6720746F20486F6D654361726F8F
:102960007573656C2C2073696E63652069742068CB
:1029700061736E2774207375636365737366756C1A
:102980006C7920686F6D6564207965742E00496EDE
:102990002072657363616E5F63616E6973746572E3
:1029A000732066756E6374696F6E2100626C61637B
:1029B0006B007768697465005E72657365745F7239
:1029C0006573703A317C737563636573733A240081
:1029D0005E72657365745F726573703A317C73758E
:1029E00063636573733A2400496E2072657365747E
:1029F0002066756E6374696F6E21005E63616E633D
:102A0000656C5F726573703A317C7375636365736F
:102A1000733A24005E63616E63656C5F7265737008
:102A20003A317C737563636573733A2400496E2091
:102A300063616E63656C2066756E6374696F6E2189
:102A400000496E20726573756D655F66756E63749F
:102A5000696F6E2066756E6374696F6E21003A242B
:102A6000005E73797374656D5F636865636B5F7235
:102A70006573703A317C00496E2073797374656DAB
:102A80005F636865636B2066756E6374696F6E2142
:102A9000003A24005E7374617475735F72657370BD
:102AA0003A317C003A24005E7374617475735F720E
:102AB0006573703A317C0052656C6F6164446F6F6E
:102AC00072556E6C6F636B53656E736550696E20E3
:102AD0003D20005769706572496E73657274656454
:102AE000203D200009486F6C6550756E63684F7516
:102AF000746572536166654F70746F203D200009E4
:102B0000486F6C6550756E6368496E6E657253618F
:102B100066654F70746F203D2000656E636F64655D
:102B200072486F6C6550756E63684D6F746F72504C
:102B30006F73203D2000094163747561746F724F9B
:102B40007574657255704F70746F203D2000094197
:102B500063747561746F72496E6E657255704F70F3
:102B6000746F203D20004163747561746F72456E0F
:102B7000636F646572203D200041313420414D492E
:102B8000532D3330353433205664642052656C6FD6
:102B90006164446F6F72436C6F736564203D200005
:102BA00043757272656E74205765696768743A0977
:102BB00000496E207374617475735F66756E63741B
:102BC000696F6E2066756E6374696F6E21005E6258
:102BD0006F776C5F7765696768745F726573703A69
:102BE000327C737563636573733A005E626F776CF2
:102BF0005F7765696768745F726573703A327C737A
:102C00007563636573733A005E626F776C5F7765B7
:102C1000696768745F726573703A327C6661696C6B
:102C20007572653A005E626F776C5F776569676899
:102C3000745F726573703A327C6661696C75726537
:102C40003A002C2053616D706C6573207765726556
:102C50003A2000426F776C20776569676874204E70
:102C60004F5420534554544C45442C20736F2072CC
:102C7000657475726E204661696C75726520627547
:102C8000742072657475726E204162736F6C757416
:102C90006557656967687420616E797761792C2062
:102CA0004162736F6C757465576569676874203D20
:102CB00020005E70756E63685F686F6C655F72653B
:102CC00073703A317C6661696C7572653A24005E96
:102CD00070756E63685F686F6C655F726573703A7C
:102CE000317C6661696C7572653A24003A24005E35
:102CF00070756E63685F686F6C655F726573703A5C
:102D0000327C737563636573733A24003A24005E02
:102D100070756E63685F686F6C655F726573703A3B
:102D2000327C737563636573733A0070756E6368A4
:102D30005F686F6C6500436C656172696E672061E6
:102D40006C6C20496E697469616C4163747561745F
:102D50006F72506F736974696F6E735B5D20616E23
:102D6000642053657269616C4E756D62657248616D
:102D7000734265656E44697370656E7365645B5D0F
:102D80002E00436865636B2063656E746572206511
:102D90006E636F64657220666F72206C6F6F73650F
:102DA0006E6573732F736C697070696E67202D2068
:102DB000656974686572207468652079656C6C6FEC
:102DC0007720696E736572742068617320636F6D1C
:102DD00065206C6F6F73652066726F6D2074686517
:102DE0002073686166742C2068617320706F707046
:102DF0006564206F7574206F662063656E746572FC
:102E000020656E636F6465722C206F722074686534
:102E10002077686F6C6520656E636F6465722069EA
:102E20007473656C662068617320746F6F206D75B4
:102E3000636820776967676C6520746F2069742CFC
:102E4000206E65656473206D6F72652074617065B6
:102E5000206F722069736E277420736561746564D6
:102E60002077656C6C2E002A2A2A4641494C45443D
:102E70002A2A2A002A2A2A5041535345442A2A2A18
:102E8000004174206C65617374206F6E65206F66FD
:102E900020746865206361726F7573656C206D6F57
:102EA00076656D656E7473206661696C65642C204F
:102EB000736F20746869732069732061206661698B
:102EC0006C75726520616E64206E6F74206120766F
:102ED000616C69642063656E74657220656E636FF2
:102EE00064657220736C697070696E6720746573B5
:102EF000742E002A2A2A4641494C45442A2A2A008F
:102F0000546869732076616C75652073686F756CA1
:102F100064206265203C20313520746F20656E731B
:102F2000757265206E6F20736C697070696E672EA4
:102F300000446966666572656E636520696E20632C
:102F4000656E74657220656E636F64657220706F64
:102F5000736974696F6E207768656E206D6F76692E
:102F60006E6720636C6F636B77697365207673207F
:102F7000636F756E746572636C6F636B776973658D
:102F8000206973200043656E74657220656E636FFF
:102F900064657220506F736974696F6E4174536C0D
:102FA0006F743130434357203D200043656E746594
:102FB0007220656E636F64657220506F7369746907
:102FC0006F6E4174536C6F7431304357203D200055
:102FD0000A43656E74657220656E636F6465722066
:102FE000506F736974696F6E4174486F6D65203DF1
:102FF00020004F766572616C6C20726573756C741D
:10300000203D202A2A2A4641494C45442A2A2A00A2
:103010004F766572616C6C20726573756C74203DBF
:10302000202A2A2A5041535345442A2A2A004E7501
:103030006D626572206F66206D6F76656D656E746A
:10304000206661696C75726573203D20004E756D58
:10305000626572206F66206D6F76656D656E742097
:1030600072657472696573203D2000206379636C1A
:1030700065732E000A0A46696E69736865642043A9
:1030800079636C652054657374206F6620006E75DB
:103090006D4661696C75726573203D20006E756DBB
:1030A00052657472696573203D20005375636365D2
:1030B0007373203D200067476F546F506F736974BE
:1030C000696F6E52657472696573203D20006E757C
:1030D0006D4661696C75726573203D20006E756D7B
:1030E00052657472696573203D2000537563636592
:1030F0007373203D200067476F546F506F7369747E
:10310000696F6E52657472696573203D20005E7749
:10311000697065725F72656D6F7665643A307C3A8E
:1031200024005E77697065725F72656D6F766564A5
:103130003A307C3A24005E77697065725F696E731D
:1031400065727465643A307C3A24005E7769706514
:10315000725F696E7365727465643A307C3A2400FC
:1031600066696E697368656400616C657274006499
:10317000697370656E73696E6700626F776C00616A
:1031800063746976650069646C65003A24005E6E5C
:1031900061636B3A317C003A24005E6E61636B3A86
:1031A000317C006379636C655F746573745F616C17
:1031B0006C006379636C655F746573745F686F6CD2
:1031C0006570756E6368006379636C655F746573C1
:1031D000745F6163747561746F7273006379636C9B
:1031E000655F746573745F6361726F7573656C009E
:1031F000746573745F7363616C655F6E6F6973652B
:1032000000746573745F6361726F7573656C5F657D
:103210006E636F6465727300746573745F6361726B
:103220006F7573656C5F6672696374696F6E007A3F
:1032300065726F5F63656E7465725F656E636F6400
:103240006572007365745F70616E656C5F62726950
:103250006768746E657373006361726F7573656C14
:103260005F706F736974696F6E0061637475617408
:103270006F725F636F756E746572636C6F636B778B
:10328000697365006163747561746F725F636C6FFD
:10329000636B77697365006163747561746F725FE6
:1032A000706F736974696F6E006163747561746FB8
:1032B000725F686F6D6500636C6561725F616374F6
:1032C0007561746F725F706F736974696F6E73008C
:1032D00031323334353637383930313233343536AC
:1032E0003738393031323334353637383930313296
:1032F0003334353637383930313233343536373880
:1033000039300070756E63685F686F6C650063616B
:103310006C6962726174655F7363616C6500766588
:103320007273696F6E00626F776C5F77656967684B
:103330007400626F776C5F7374617475730073747B
:10334000617475730073797374656D5F6368656329
:103350006B00666F726365007363616E5F616C6CB6
:1033600000726573756D650063616E63656C0072F4
:1033700065736574007365745F64656D6F5F6D6F11
:103380006465007365745F6861735F72656C6F611B
:10339000645F646F6F725F6C6F636B007365745F03
:1033A000626F776C5F617265615F636F6C6F725F94
:1033B0007479706500706F7765725F736176655FB1
:1033C0006D6F64650072657363616E5F63616E69E2
:1033D000737465727300706175736500706F7369E3
:1033E00074696F6E5F63616E69737465725F726535
:1033F000706C616365007363616E5F626172636FBD
:1034000064650077697065725F73746174757300C9
:10341000646F6F725F73746174757300646F6F7241
:103420005F756E6C6F636B00646F6F725F6C6F6360
:103430006B0064697370656E73655F66756C6C5F55
:1034400063616E0064697370656E73655F74696D46
:1034500065640064697370656E73655F616C6C00B0
:1034600064697370656E73655F776569676874001A
:1034700070696E670064656D6F00706F7369746961
:103480006F6E5F63616E6973746572007365745FFC
:103490007363616C655F6C656473007365745F6C06
:1034A000656473002D2D2D2D2D2D2D2D2D2D2D2DC4
:1034B0002D2D00706172616D33203D2000706172AE
:1034C000616D32203D2000706172616D31203D20C0
:1034D00000706172616D32203D2000706172616D1B
:1034E00031203D2000706172616D31203D2000412E
:1034F0006C6C2074686520646174612076616C7501
:103500006573203D2000496E7465676572204E75B5
:103510006D506172616D6574657273203D2000416C
:103520006C6C20506172616D7320506173736564BF
:1035300020004D65737361676554797065203D2087
:10354000002A2A2A2A2A2A2A2A2A2A2A2A2A2A2A05
:103550002A2A005E626F776C5F72656D6F766564B4
:103560003A307C3A24005E626F776C5F72656D6FF3
:103570007665643A307C3A24003A24003A24005EAE
:10358000626F776C5F706C616365643A357C005E76
:10359000626F776C5F706C616365643A357C004381
:1035A0006F6C6F722073656E736F7273206E6F74C1
:1035B00020696E7374616C6C65642C20646566614F
:1035C000756C74696E6720746F20524742282D31E4
:1035D0002C2D312C2D31290044697374616E636583
:1035E0002073656E736F72207265616420564C366D
:1035F000313830585F4552524F525F4E4F434F4E15
:1036000056455247452C20736F207468726F776956
:103610006E6720626F776C5F72656D6F7665642090
:103620006576656E74206966204162736F6C75748F
:103630006557656967687420697320616C736F20D2
:103640003C2033352E20205479706963616C6C798D
:103650002068617070656E7320776865726520748C
:10366000686520626F776C207761732072656D6F7B
:1036700076656420717569636B6C7920776974680D
:103680006F757420612072616E6765207265616478
:10369000696E6720617661696C61626C6520616E3C
:1036A000796D6F72652C206F72206120626C61638E
:1036B0006B20626F776C20696E20626C61636B2097
:1036C00061726561206973206861726420746F2083
:1036D000726561642E204162736F6C757465576505
:1036E00069676874203D20002C204162736F6C75FF
:1036F0007465576569676874203D200052616E6784
:1037000065203E203730206F72204162736F6C75E8
:103710007465576569676874203C2033352C2073C5
:103720006F207468726F77696E6720626F776C5F65
:1037300072656D6F766564206576656E742E2052B5
:10374000616E6765203D20002C20426F776C506CC5
:103750006163656453616D706C6573416674657215
:1037600052464944203D2000426F776C506C6163A3
:10377000656453616D706C65734265666F72655206
:10378000464944203D2000426F776C506C61636570
:103790006453616D706C657341667465725246491D
:1037A00044203D2000426F776C506C616365645328
:1037B000616D706C65734265666F7265524649440F
:1037C000203D20003A24005E706F736974696F6E4B
:1037D0005F63616E69737465725F726573703A32AC
:1037E0007C6661696C7572653A003A24005E706FA0
:1037F000736974696F6E5F63616E69737465725F1C
:10380000726573703A327C6661696C7572653A00F4
:103810003A24005E706F736974696F6E5F63616EE6
:1038200069737465725F726573703A327C73756325
:10383000636573733A003A24005E706F736974694C
:103840006F6E5F63616E69737465725F72657370CA
:103850003A327C737563636573733A00706F736992
:1038600074696F6E5F63616E69737465720056612F
:103870006C7565207061737365643D00496E2070DE
:103880006F736974696F6E2063616E6973746572BA
:103890002066756E6374696F6E21005E646F6F726F
:1038A0005F6C6F636B5F726573703A317C737563C5
:1038B000636573733A24005E646F6F725F6C6F634D
:1038C0006B5F726573703A317C7375636365737394
:1038D0003A2400646F6F725F6C6F636B00416674B3
:1038E0006572204C6F636B696E672C2052656C6F3C
:1038F0006164446F6F72556E6C6F636B53656E736A
:103900006550696E3A20004265666F7265204C6FA3
:10391000636B696E672C2052656C6F6164446F6FD6
:1039200072556E6C6F636B53656E736550696E3A5A
:103930002000496E20646F6F725F6C6F636B20664E
:10394000756E6374696F6E210050726F6475637475
:103950004944206973206120726567756C6172202B
:1039600064697370656E736520737065656420703B
:10397000726F647563742C20736F20646F206E6F98
:10398000726D616C2064697370656E73652E005092
:10399000726F6475637449442069732061206661A5
:1039A00073742064697370656E73652073706565E8
:1039B000642070726F647563742C20736F20676F5E
:1039C0002066617374657220616E6420646F6E2777
:1039D0007420736C6F7720646F776E20617420653C
:1039E0006E642E00303032390030303238003030E2
:1039F00032370030303236003030323400474F4CEE
:103A00004457454C4C2D4153480030303538004721
:103A10004F4C4457454C4C2D3131470030303537F1
:103A200000474F4C4457454C4C2D384341003030F3
:103A3000353600474F4C4457454C4C2D35520030DD
:103A400030353500474F4C4457454C4C2D354B00D5
:103A50003030353400474F4C4457454C4C2D525272
:103A6000003030353300474F4C4457454C4C2D56B1
:103A700056003030353200474F4C4457454C4C2DA2
:103A80004747003030353100474F4C4457454C4C88
:103A90002D4B4B003030353000474F4C4457454C90
:103AA0004C2D50003030343900474F4C4457454C72
:103AB0004C2D41003030343800474F4C4457454C72
:103AC0004C2D3842003030343700474F4C44574576
:103AD0004C4C2D3442003030343600474F4C445764
:103AE000454C4C2D354D42003030343500474F4C5D
:103AF0004457454C4C2D313141003030343400476F
:103B00004F4C4457454C4C2D31304100303034330C
:103B100000474F4C4457454C4C2D39410030303410
:103B20003200474F4C4457454C4C2D354100303006
:103B3000343100474F4C4457454C4C2D32410030F6
:103B400030343000474F4C4457454C4C2D384700DB
:103B50003030333900474F4C4457454C4C2D374794
:103B6000003030333800474F4C4457454C4C2D34CF
:103B700047003030333700474F4C4457454C4C2DAD
:103B800031304E003030333600474F4C4457454CAF
:103B90004C2D384E003030333500474F4C4457459C
:103BA0004C4C2D364E003030333400474F4C445788
:103BB000454C4C2D344E003030333300474F4C448D
:103BC00057454C4C2D324E003030333200434C4977
:103BD00043532D56322D314E003030333000434C9C
:103BE0004943532D56322D4C490030303239004371
:103BF0004C4943532D56322D443430003030323846
:103C000000434C4943532D56322D4432300030305E
:103C1000323700434C4943532D56322D4430003047
:103C200030323600434C4943532D56322D50480014
:103C30003030323500434C4943532D56322D434CDE
:103C4000003030323400434C4943532D56322D431B
:103C50004F42003030323300434C4943532D5632EB
:103C60002D4C54594F003030323200434C494353AD
:103C70002D56322D4F59003030323100434C4943DC
:103C8000532D56322D4C544F5200303032300043B9
:103C90004C4943532D56322D524F003030313900AC
:103CA000434C4943532D56322D5652003030313853
:103CB00000434C4943532D56322D4C54564200304C
:103CC00030313700434C4943532D56322D42560074
:103CD0003030313600434C4943532D56322D424744
:103CE000003030313500434C4943532D56322D4C72
:103CF000544242003030313400434C4943532D5636
:103D0000322D59003030313300434C4943532D5646
:103D1000322D4F003030313200434C4943532D5641
:103D2000322D42003030313100434C4943532D563F
:103D3000322D52003030313000434C4943532D5620
:103D4000322D47003030303900434C4943532D5613
:103D5000322D56003030303800434C4943532D56F5
:103D6000322D31324E003030303700434C4943530E
:103D70002D56322D31304E003030303600434C4914
:103D800043532D56322D384E003030303500434CE1
:103D90004943532D56322D364E00303030340043D7
:103DA0004C4943532D56322D344E003030303300C1
:103DB000434C4943532D56322D324E003030303271
:103DC00000434C4943532D56322D30304E00303095
:103DD0003031002C2050726F647563744E616D65D4
:103DE00020697320002C2050726F647563744944FD
:103DF000206973200063616E6973746572436F6438
:103E000065206973200054686973206973204C69C8
:103E1000676874656E65722C20736F20646F6E27FF
:103E20007420676F2061732066617374206F7468FB
:103E300065727769736520636F756C64206861765D
:103E4000652070696E6368206F666620697373759C
:103E5000652E0030303239003A2409003A00095EFC
:103E6000646973705F70726F67726573733A327CE6
:103E7000003A24003A005E646973705F70726F6785
:103E8000726573733A327C005E70617573653A00D7
:103E90005E72657365743A005E63616E63656C3A69
:103EA000005E70617573653A005E72657365743AA1
:103EB000005E63616E63656C3A00526573746F7285
:103EC00065642F536176656420496E697469616C1D
:103ED0004163747561746F72506F736974696F6E4A
:103EE000446174613A00496E2D6D656D6F72792081
:103EF000496E697469616C4163747561746F725065
:103F00006F736974696F6E446174613A002C207339
:103F10006F2077726974696E6720746F2045455011
:103F2000524F4D206576656E2074686F7567682006
:103F30006F7574206F662072616E67652C20736FD9
:103F4000206E6578742074696D652077696C6C20CB
:103F5000776F726B206265747465722E00203C204E
:103F600050726576696F7573496E697469616C41E9
:103F700063747561746F72506F736974696F6E20CA
:103F80006F6620004E657720496E697469616C41E7
:103F900063747561746F72506F736974696F6E5B6F
:103FA0005D206F6620003A24003A003A003A005E35
:103FB00064697370656E73655F7765696768745F60
:103FC000726573703A357C72616E67653A003A24A7
:103FD000003A003A003A005E64697370656E73657A
:103FE0005F7765696768745F726573703A357C7274
:103FF000616E67653A003A24003A003A003A005E82
:1040000064697370656E73655F7765696768745F0F
:10401000726573703A357C737563636573733A00C8
:104020003A24003A003A003A005E64697370656EA3
:1040300073655F7765696768745F726573703A3539
:104040007C737563636573733A003A24003A003AEF
:10405000003A005E64697370656E73655F776569C9
:104060006768745F726573703A357C63616E63650F
:104070006C3A003A24003A003A003A005E646973F0
:1040800070656E73655F7765696768745F72657385
:10409000703A357C63616E63656C3A003A24003A8D
:1040A000003A003A005E64697370656E73655F770D
:1040B00065696768745F726573703A357C74616DA9
:1040C0007065723A003A24003A003A003A005E64A1
:1040D000697370656E73655F7765696768745F7231
:1040E0006573703A357C74616D7065723A0064690D
:1040F0007370656E73655F616C6C00646973706585
:104100006E73655F776569676874002C2053686F0C
:10411000756C645265747279476F46617374426559
:104120006361757365466972737444697370656E13
:10413000736554696D65644F7574203D2000446952
:104140007370656E7365206661696C7572652C208D
:104150006E65656420746F2072657472792C2047D7
:104160006F696E6720746F2064697370656E736524
:10417000206D6F7265206F6E206120726574727998
:104180002C2074686973206D756368206D6F72658B
:10419000203D200052657472792053756D20416D69
:1041A0006F756E745F44697370656E736564203DEE
:1041B000200054414D5045522044455445435445F8
:1041C000442061667465722066696E69736865640F
:1041D0002064697370656E73696E672C20726574F4
:1041E00075726E696E672074616D7065722072659C
:1041F00073756C74207769746820616D6F756E7467
:104200002064697370656E736564206173205472F5
:1042100061696C696E67576569676874203D200045
:10422000416D6F756E745F44697370656E7365641C
:10423000206973206E656761746976652C206D6FE7
:104240007265207468616E202D31672C207468655A
:104250007265206D7573742068617665206265658E
:104260006E20736F6D652074797065206F662074A1
:10427000616D7065722E204E6F7420676F696E6776
:1042800020746F2072657472792E00416D6F756EA7
:10429000745F44697370656E736564203D20002C03
:1042A00020626563617573652054726C56342073A7
:1042B00074696C6C20756E64657220302E3033200A
:1042C0003D20004C6F6F702054696D6564204F7500
:1042D00074206174204C6F6F7054696D656F7574D4
:1042E000203D20002C204C6F6F70436F756E7465FD
:1042F000725768656E526561636865644D617841A7
:104300006374756174696F6E203D20005365747429
:10431000696E67204C6F6F7054696D656F7574209E
:104320003D2000206772616D732C20736F207265D1
:104330007665727365207468652061637475617455
:104340006F72210041626F757420746F2063726F09
:10435000737320005265636569766564206120434C
:10436000616E63656C20636F6D6D616E6420667253
:104370006F6D206D616368696E652055492E00542C
:10438000414D5045522044455445435445442C200A
:1043900073746F7070696E6720616374756174699E
:1043A0006F6E20616E642072657475726E696E67DF
:1043B0002074616D70657220726573756C742E0067
:1043C00054616D7065722064657465637465642CF6
:1043D00020776569676874206D6F7265206E656708
:1043E0006174697665207468616E202D312C2073AC
:1043F0006F6D65626F6479206D7573742068617686
:10440000652072656D6F766564207765696768748D
:104410002066726F6D207363616C652C2072657409
:1044200075726E696E672074616D7065722E002002
:10443000746F20302E30352073696E6365203C33F5
:1044400030206C6F6F7073206C65667400094C6F60
:10445000776572696E672074617267657420737026
:104460006565642066726F6D2000094C4C09002C54
:10447000204D6178416374756174696F6E203D20D1
:10448000002C204D6178416374756174696F6E28EA
:104490004C6929203D200009534554504F494E5442
:1044A0002043616C633D000954726C563409000965
:1044B00054726C5609000954726C570900094C6F0C
:1044C00061642063656C6C2073616D706C696E67EC
:1044D000206661696C7572652C20676F74203E32AE
:1044E00030306720666F7220617665726167652083
:1044F0006F66203130782073616D706C65732C208D
:1045000064697363617264696E6720616E642074AC
:10451000616B696E67206E65772073616D706C6585
:1045200020686572653A090053616D70090009548D
:1045300075726E41726F756E64000A4C69676874BB
:10454000656E657220666C6F7720637574206F6688
:1045500066205374616C6C696E6720646574656372
:10456000746564202D20747279696E67204C6967C8
:104570006874656E657220616374756174696F6ECD
:104580002072657472792023005374616C6C696EBB
:1045900067206465746563746564202D20726563AB
:1045A0006F76657279206469646E277420776F7204
:1045B0006B2C20736F2073746F7070696E6720743A
:1045C00068652064697370656E736520736F20770A
:1045D0006520646F6E27742064616D616765207467
:1045E0006865206D6F746F7220616E6420647269FB
:1045F0007665722E00095475726E41726F756E6425
:10460000000A5374616C6C696E672064657465633D
:10461000746564202D20747279696E6720746865F2
:10462000206261636B2D6F66662D616E642D676F0E
:104630002D666173742072657472792E0009456E5F
:1046400064313530004D6178416374756174696F10
:104650006E203D20005374617274696E672053654B
:1046600074706F696E74496E6974466F72546869CC
:10467000734D616368696E65203D20000953657460
:10468000706F696E74416D6F756E74546F426163C3
:104690006B4F66665768656E4869745461726765EA
:1046A000745370656564203D200009536574706F14
:1046B000696E744C6F6F70496E6372656D656E7470
:1046C000203D2000097461726765745F64697370CE
:1046D000656E73655F7370656564203D20000941F8
:1046E0004661737444697370656E7365534B5520EE
:1046F0003D20006744656D6F4D6F6465203D20006F
:10470000426F776C20776569676874206E6F7420DC
:10471000736574746C6564206166746572203520FD
:104720007365636F6E64732C2072657475726E208E
:1047300074616D7065722E00424F574C204E4F547D
:1047400020504C41434544207768656E2073746166
:104750007274696E672064697370656E7365202D6D
:1047600020736F206E6F7420616374756174696E5D
:10477000672C20616E642072657475726E696E6755
:104780002074616D7065722E00094162736F6C75E3
:104790007465576569676874203D2000095461722B
:1047A0006541444356616C7565203D2000095343C3
:1047B000414C45203D2000094F4646534554203D7D
:1047C000200054617265576569676874203D200058
:1047D0005D203D2000496E697469616C57656967A9
:1047E000687452656164696E67735B005363616CE2
:1047F00065206E6F7420736574746C65642C206220
:10480000656C6F772073616D706C6573206E6F746B
:104810002077697468696E2031206772616D2C2081
:104820007265747279696E6720757020746F2035B7
:104830002074696D65732E003A24003A31302E30B1
:10484000303A005E64697370656E73655F776569A1
:104850006768745F726573703A357C74616D7065FA
:10486000723A302E30303A003A24003A31302E304D
:10487000303A005E64697370656E73655F77656971
:104880006768745F726573703A357C74616D7065CA
:10489000723A302E30303A0064697370656E736519
:1048A0005F616C6C0064697370656E73655F7765DA
:1048B0006967687400706F736974696F6E5F6361B4
:1048C0006E6973746572206661696C7572652C20FF
:1048D00063616E6E6F742067756172616E74656579
:1048E000206361726F7573656C20706F7369746992
:1048F0006F6E20736F2065786974696E67207468C5
:10490000652064697370656E73655F776569676854
:104910007420636F6D6D616E6420616E64207265DA
:104920007475726E696E672074616D7065722100B6
:1049300056616C7565207061737365643D005661E6
:104940006C7565207061737365643D00496E206409
:10495000697370656E736520776569676874206632
:10496000756E6374696F6E21003A24005E6469732A
:1049700070656E73655F74696D65645F7265737091
:104980003A327C737563636573733A003A24005E50
:1049900064697370656E73655F74696D65645F7279
:1049A0006573703A327C737563636573733A006440
:1049B000697370656E73655F74696D6564004166E7
:1049C00074657220686F6D652061637475616C2C0D
:1049D00020736574706F696E742C2070776D3A0067
:1049E000456E64696E67204163747561746F7220EF
:1049F00061637475616C2C20736574706F696E747B
:104A00002C2070776D3A005374617274696E672060
:104A10004163747561746F722061637475616C2C8D
:104A200020736574706F696E742C2070776D3A0016
:104A300056616C7565207061737365643D005661E5
:104A40006C7565207061737365643D00496E206408
:104A5000697370656E73652074696D656421003AD1
:104A600024005E64697370656E73655F66756C6C57
:104A70005F63616E5F726573703A327C73756363F6
:104A80006573733A003A24005E64697370656E73EF
:104A9000655F66756C6C5F63616E5F726573703ABB
:104AA000327C737563636573733A00646973706510
:104AB0006E73655F66756C6C5F63616E00546F74D6
:104AC000616C2054696D6520746F20446973706552
:104AD0006E7365203D206C6F6F70202D2035203D5A
:104AE00020090046696E616C20576569676874200B
:104AF0003D200900416674657220686F6D65206114
:104B0000637475616C2C20736574706F696E742C9E
:104B10002070776D3A00456E64696E67204163745A
:104B20007561746F722061637475616C2C2073659C
:104B300074706F696E742C2070776D3A00576569D8
:104B400067687420696E6372656173656420627959
:104B5000206C657373207468616E20302E3120677D
:104B600072616D7320696E20746865206C61737466
:104B70002035207365636F6E64732C20736F207310
:104B8000746F7070696E67206C6F6F702E00576560
:104B900069676874203E203335302C20657869744D
:104BA000696E67206C6F6F70202863616E63656C3F
:104BB0006C696E67292E000944656C7461576569DC
:104BC000676874203D20090009576569676874208B
:104BD0003D2009000954696D65203D2009004C6F96
:104BE0006F70203D2009005374617274696E6720F4
:104BF0004163747561746F722061637475616C2CAC
:104C000020736574706F696E742C2070776D3A0034
:104C1000092053746172742054696D65203D200928
:104C200000576569676874203D20090056616C75FE
:104C300065207061737365643D0056616C75652015
:104C40007061737365643D00496E206469737065BB
:104C50006E73652066756C6C2063616E21003A246A
:104C6000003A24005E7363616E5F616C6C5F726515
:104C700073703A327C6661696C7572653A005E7376
:104C800063616E5F616C6C5F726573703A327C66F3
:104C900061696C7572653A005E7363616E5F616C29
:104CA0006C5F726573703A327C737563636573739E
:104CB0003A005E7363616E5F616C6C5F7265737006
:104CC0003A327C737563636573733A007363616E24
:104CD0005F616C6C00496E207363616E5F616C6C28
:104CE0002066756E6374696F6E2100536572696129
:104CF0006C206E756D6265727320646F206E6F74C8
:104D0000206D617463682C20776520686176656E1C
:104D100027742064697370656E73656420776974A5
:104D20006820746869732063616E697374657220AA
:104D30006265666F7265212020536F20626C616E20
:104D40006B206F7574207468652053657269616C9F
:104D50004E756D6265724861734265656E44697334
:104D600070656E7365645B5D2C20616E6420737486
:104D70006F726520746865206E657720736572694F
:104D8000616C2053657269616C4E756D62657273FA
:104D90005B5D5B355D0053657269616C206E756D9E
:104DA00062657273206D617463682C207765277665
:104DB00065207365656E20746869732063616E6930
:104DC00073746572206265666F72652100476C6F4F
:104DD00062616C20496E697469616C4163747561CC
:104DE000746F72506F736974696F6E203D20005D3F
:104DF000203D2000496E697469616C41637475617E
:104E0000746F72506F736974696F6E735B005D20AD
:104E10003D200053657269616C4E756D6265724824
:104E200061734265656E44697370656E7365645B3A
:104E300000496E76616C696420626172636F6465BB
:104E40002C2063616E277420636F6D706172652022
:104E5000626172636F6465732E00496E76616C697E
:104E60006420736C6F74206E756D6265722C2063A4
:104E7000616E277420636F6D70617265206261726C
:104E8000636F6465732E0043616E6973746572208D
:104E90006E6F7420616C69676E65642077697468F1
:104EA000696E205265616446726F6D426172636F14
:104EB00064655363616E6E65722052455452592089
:104EC000616674657220747269676765722C206E02
:104ED00065656420746F2064697363617264207413
:104EE0006865207363616E2E0043616E697374653B
:104EF00072206E6F7420616C69676E6564207769DB
:104F00007468696E205265616446726F6D426172A9
:104F1000636F64655363616E6E65722052455452CF
:104F200059206265666F7265207472696767657281
:104F30002C206E65656420746F20646973636172F0
:104F40006420746865207363616E2E0043616E692E
:104F500073746572206E6F7420616C69676E65642E
:104F60002077697468696E205265616446726F6D5E
:104F7000426172636F64655363616E6E6572206136
:104F80006674657220747269676765722C206E653D
:104F9000656420746F20646973636172642074684F
:104FA00065207363616E2E0043616E697374657270
:104FB000206E6F7420616C69676E65642077697418
:104FC00068696E205265616446726F6D42617263FA
:104FD0006F64655363616E6E6572206265666F72A1
:104FE0006520747269676765722C206E6565642040
:104FF000746F2064697363617264207468652073E0
:1050000063616E2E0043616E6973746572206E6F0A
:105010007420616C69676E65642077697468696E75
:10502000205265616446726F6D426172636F6465A0
:105030005363616E6E657220524554525920616609
:1050400074657220747269676765722C206E65657D
:105050006420746F2064697363617264207468658E
:10506000207363616E2E0043616E697374657220F4
:105070006E6F7420616C69676E656420776974680F
:10508000696E205265616446726F6D426172636F32
:1050900064655363616E6E657220524554525920A7
:1050A0006265666F726520747269676765722C202D
:1050B0006E65656420746F20646973636172642037
:1050C000746865207363616E2E0043616E6973744A
:1050D0006572206E6F7420616C69676E65642077FD
:1050E000697468696E205265616446726F6D4261D1
:1050F00072636F64655363616E6E6572206166747E
:10510000657220747269676765722C206E656564CC
:1051100020746F2064697363617264207468652011
:105120007363616E2E0043616E6973746572206EE5
:105130006F7420616C69676E656420776974686953
:105140006E205265616446726F6D426172636F6476
:10515000655363616E6E6572206265666F7265206D
:10516000747269676765722C206E65656420746F60
:10517000206469736361726420746865207363617D
:105180006E2E003A24005E63616E69737465725F0F
:10519000696E7374616C6C65643A327C003A240009
:1051A0005E63616E69737465725F696E7374616C5E
:1051B0006C65643A327C003A24005E63616E697308
:1051C0007465725F72656D6F7665643A317C003A22
:1051D00024005E63616E69737465725F72656D6FE2
:1051E0007665643A317C005E7363616E5F62617202
:1051F000636F64655F726573703A327C6661696C77
:105200007572653A6661696C7572653A24005E7301
:1052100063616E5F626172636F64655F7265737014
:105220003A327C6661696C7572653A6661696C7563
:1052300072653A24005E7363616E5F626172636FD0
:1052400064655F726573703A327C7375636365730E
:10525000733A656D7074793A24005E7363616E5FB2
:10526000626172636F64655F726573703A327C73FA
:105270007563636573733A656D7074793A2400736E
:1052800063616E5F626172636F646500656D707407
:1052900079007363616E5F616C6C00656D70747929
:1052A00000426172636F6465206E6F742076616C7A
:1052B00069642C2069676E6F7265643A20003A2435
:1052C000005E7363616E5F626172636F64655F72DB
:1052D0006573703A327C737563636573733A003A31
:1052E00024005E7363616E5F626172636F64655F09
:1052F000726573703A327C737563636573733A00D9
:105300007363616E5F626172636F6465007C007CD1
:10531000207673207C00466F756E642044494646B3
:105320004552454E5420426172636F6465207C0093
:105330007363616E5F616C6C0043616E6973746569
:1053400072206E6F7420616C69676E65642C2064D6
:10535000697363617264696E672074686520736342
:10536000616E206F6620736C6F742023002C2053B5
:105370006F757468636F204C61746368203D200012
:105380002C2052656C6F6164446F6F724F70656E54
:10539000203D2000496E207363616E5F626172631D
:1053A0006F64652066756E6374696F6E2120536C3F
:1053B0006F742023005E76657273696F6E5F72652D
:1053C00073703A327C31302D31392D323032313AEE
:1053D00035302E323A24005E76657273696F6E5FE7
:1053E000726573703A327C31302D31392D32303262
:1053F000313A35302E313A240076657273696F6E1A
:10540000005E76657273696F6E5F726573703A32B3
:105410007C31302D31392D323032313A35302E3227
:105420003A24005E76657273696F6E5F72657370A1
:105430003A327C31302D31392D323032313A3530FB
:105440002E313A2400496E2076657273696F6E5F63
:1054500066756E6374696F6E2066756E6374696FCE
:105460006E21003A24003A005E63616C69627261E9
:1054700074655F7363616C655F726573703A337CEA
:10548000737563636573733A003A24003A005E6390
:10549000616C6962726174655F7363616C655F7290
:1054A0006573703A337C737563636573733A004157
:1054B00066746572205363616C655F43616C6962F9
:1054C000726174696F6E3A20004265666F72652082
:1054D0005363616C655F43616C6962726174696F8B
:1054E0006E3A200041667465722043616C69627295
:1054F0006174696E67203230303A20004265666F11
:1055000072652043616C6962726174696E672032F2
:1055100030303A20003A24003A005E63616C6962E0
:10552000726174655F7363616C655F726573703A15
:10553000337C737563636573733A003A24003A00F1
:105540005E63616C6962726174655F7363616C65EF
:105550005F726573703A337C737563636573733A16
:105560000041667465722043616C6962726174699E
:105570006E6720303A20004265666F726520436195
:105580006C6962726174696E6720303A20005661FE
:105590006C7565207061737365643D00496E2063AE
:1055A000616C6962726174655F7363616C652066CA
:1055B000756E6374696F6E21005E7365745F7061F0
:1055C0006E656C5F6272696768746E6573735F7233
:1055D0006573703A317C737563636573733A240045
:1055E0005E7365745F70616E656C5F627269676837
:1055F000746E6573735F726573703A317C73756333
:10560000636573733A24007365745F70616E656CD3
:105610005F6272696768746E657373005E73657448
:105620005F70616E656C5F6272696768746E6573E6
:10563000735F726573703A317C6661696C7572650F
:105640003A24005E7365745F70616E656C5F6272B0
:10565000696768746E6573735F726573703A317CE5
:105660006661696C7572653A24007365745F706178
:105670006E656C5F6272696768746E657373005EF5
:10568000626F776C5F7374617475735F726573704A
:105690003A317C616273656E743A24005E626F77A2
:1056A0006C5F7374617475735F726573703A317C8B
:1056B000616273656E743A24003A24003A24005EF5
:1056C000626F776C5F7374617475735F726573700A
:1056D0003A367C70726573656E743A005E626F77FD
:1056E0006C5F7374617475735F726573703A367C46
:1056F00070726573656E743A002C20426F776C503F
:105700006C6163656453616D706C6573416674654B
:105710007252464944203D2000426F776C207765E5
:1057200069676874206E6F7420736574746C656447
:105730002C206275742072657475726E20416273DC
:105740006F6C75746557656967687420616E7977E9
:1057500061792C20426F776C506C61636564536192
:105760006D706C65734265666F7265524649442080
:105770003D20002C20426F776C506C616365645350
:10578000616D706C65734166746572524649442060
:105790003D2000426F776C506C6163656453616DAE
:1057A000706C65734265666F726552464944203D70
:1057B0002000426F776C506C6163656453616D705B
:1057C0006C6573416674657252464944203D200001
:1057D000436F6C6F722073656E736F7273206E6FA0
:1057E0007420696E7374616C6C65642C20646566EA
:1057F00061756C74696E6720746F20524742282D62
:10580000312C2D312C2D312900426F776C506C6179
:1058100063656453616D706C65734265666F726534
:1058200052464944203D20005D203D2000536572D2
:1058300069616C4E756D626572735B005D203D2021
:105840000053657269616C4E756D62657248617373
:105850004265656E44697370656E7365645B005D77
:10586000203D2000496E697469616C416374756103
:10587000746F72506F736974696F6E735B00496EF9
:10588000697469616C4163747561746F72506F7390
:105890006974696F6E203D200000000A0B02090C3C
:1058A0000D0E0807030401000000000000000000C6
:1058B00000000000000000000000000000000000E8
:1058C00000000000001211100000000000000000A5
:1058D00000000000000000000000000000000000C8
:1058E000002100240027002A002D00300033000191
:1058F000010000040107010A01436F7272656374BD
:10590000656420414D5432323220456E636F6465C8
:10591000723A2000414D5432323220456E636F643A
:1059200065723A2000414D54323232207265616412
:10593000206572726F722E20417474656D7074737D
:105940003A200054696D6564206F75742C206E6F69
:1059500020656E636F646572206465746563746549
:10596000642E202042757420617373756D6520412B
:105970004D54323232206F72207465737420737408
:105980006174696F6E2E00414D543232322064656D
:105990007465637465642E00414D54323033206465
:1059A000657465637465642E202057652065787082
:1059B000656374203320666F7220646174615F7266
:1059C00065636569766564203D2000436865636BA7
:1059D000696E6720656E636F6465722074797065A7
:1059E0002C20646174615F7265636569766564200B
:1059F0003D2000536574757020436F6D706C657445
:105A000065202D20526561647920666F7220436F96
:105A10006D6D616E64733A005573696E67206465DD
:105A20006661756C74207363616C652063616C6979
:105A300062726174696F6E2076616C7565732E2079
:105A4000506C656173652063616C69627261746535
:105A500020746865207363616C6520736F207468BF
:105A60006174206974206973206163637572617465
:105A70006520666F72207468697320756E69742E74
:105A800000426F776C2064697374616E6365207384
:105A9000656E736F7220666F756E64210046616972
:105AA0006C656420746F2066696E64206469737429
:105AB000616E63652073656E736F72004C6F6F6B00
:105AC000696E6720666F7220626F776C20646973FD
:105AD00074616E63652073656E736F72202D204153
