:100000000C94B9540C94ED840C94C2840C94978491
:100010000C946C840C9441840C9416840C94EB83A3
:100020000C94C0830C94BDD70C9451830C94DB8248
:100030000C94EA540C94165C0C94EA540C94EA5414
:100040000C94EA540C94EA540C94EA540C94EA5438
:100050000C94EA540C94887B0C94EA540C9495D23A
:100060000C94EA540C94DDCF0C94B3CF0C94EA5466
:100070000C94EA540C94EA540C94EA540C94EA5408
:100080000C94EA540C94EA540C94EA540C94EA54F8
:100090000C9489CF0C945FCF0C94EA540C9499D6AD
:1000A0000C94EA540C94EA540C94EA540C94EA54D8
:1000B0000C94EA540C94EA540C94EA540C94EA54C8
:1000C0000C94EA540C94EA540C94EA540C9435CFF2
:1000D0000C940BCF0C94EA540C94E1CE0C94B7CE54
:1000E0000C94EA5408000000BE922449123EABAAC8
:1000F000AA2ABECDCCCC4C3E00000080BEABAAAA42
:10010000AA3E00000000BF000000803F0000000089
:1001100000084178D3BB4387D1133D190E3CC3BDC2
:100120004282AD2B3E68EC8276BED98FE1A93E4C6F
:1001300080EFFFBE01C4FF7F3F00000000000C9471
:1001400013C50C94FDC30C942AD10C94C7550C9480
:10015000ECC80C94F3C80D94C3540C94C9C80C9407
:10016000A9C50C94E5550C9425C70D94F45C0C942A
:10017000E8C50C942CD20C94B1C50C94F6D00C9418
:1001800067C40C94ADC50C94EAC50C94F2C50C94EC
:10019000EEC50C9484C50C94A3C50C942CC70C9488
:1001A00095C50C94E1D10C94C5D10D94BD540C941B
:1001B000B3D10C9420C90C945ED00C94F0C50D946E
:1001C0004B510C94CDD10C94FAD10C94DBD40C94FB
:1001D000FCC90C940ED20C949DC60C9491C50C9441
:1001E0003AC70C9454C40D94BF540C94ECC50C94B1
:1001F000BDD10C94DBC90C949BC50D94BB540C94DD
:10020000E4C50C949FC50C9448C60C949AD10C94E8
:10021000C3C90C947CC50C94E6C50C9400C40C9422
:10022000BFC50C9406C70C9488C50C9413560C9447
:1002300022D20C9433C70C94F0C60C9441C70C9492
:10024000B7C50C948BC50C94A9D10C94A9550D94E9
:10025000CA540C9475C40C9427CA0C94EBD10C941A
:10026000D7D10C94FEC30D94C8520C9467C90C945A
:10027000D9C80D94C1540C94B6C50C94C6C40C9442
:10028000CAC80C944FC70C949FD10C94887B0C94D3
:10029000BEC60C9445C40C9492D10C94BBC50C946E
:1002A00069C60D94B9540C9404D20C9476C50C9480
:1002B00080C50C944FC90C9448C70C9418D20C9468
:1002C0001DC74E414E494E495459494E46CDCCCC9E
:1002D0003D0AD7233C17B7D13877CC2B329595E61A
:1002E000241FB14F0A000020410000C84200401CFA
:1002F0004620BCBE4CCA1B0E5AAEC59D74414C452F
:1003000052543A2053797374656D4865616C746812
:10031000204661696C7572652C205269676874505B
:10032000756D70426172636F6465476F6F64203DE5
:100330002000414C4552543A2053797374656D48FE
:1003400065616C7468204661696C7572652C204C1F
:1003500065667450756D70426172636F6465476F56
:100360006F64203D2000414C4552543A205379732C
:1003700074656D4865616C7468204661696C75725E
:10038000652C204F75746572426172636F646547B6
:100390006F6F64203D2000414C4552543A20537900
:1003A0007374656D4865616C7468204661696C752D
:1003B00072652C20496E6E6572426172636F64656E
:1003C000476F6F64203D2000414C4552543A205302
:1003D000797374656D4865616C7468204661696CF9
:1003E0007572652C2044697374616E636553656E24
:1003F000736F72476F6F64203D2000414C4552542B
:100400003A2053797374656D4865616C7468204651
:1004100061696C7572652C204C6F616443656C6C0E
:1004200053656E736F72476F6F64203D2000414CBF
:100430004552543A2053797374656D4865616C7404
:1004400068204661696C7572652C20416374756122
:10045000746F72486F6D696E67476F6F64203D20DF
:1004600000414C4552543A2053797374656D486588
:10047000616C7468204661696C7572652C204163FB
:10048000747561746F724F7574657255704F7074C6
:100490006F476F6F64203D2000414C4552543A2015
:1004A00053797374656D4865616C74682046616941
:1004B0006C7572652C204163747561746F72496E3E
:1004C0006E657255704F70746F476F6F64203D207A
:1004D00000414C4552543A2053797374656D486518
:1004E000616C7468204661696C7572652C2041638B
:1004F000747561746F724D6F746F72456E636F6463
:100500006572476F6F64203D2000414C4552543A5C
:100510002053797374656D4865616C746820466119
:10052000696C7572652C204163747561746F724DCE
:100530006F746F72476F6F64203D2000414C4552CD
:10054000543A2053797374656D4865616C74682002
:100550004661696C7572652C204361726F757365B5
:100560006C486F6D696E67476F6F64203D20004176
:100570004C4552543A2053797374656D4865616CEB
:100580007468204661696C7572652C204361726FD6
:100590007573656C43656E746572456E636F6465F3
:1005A00072476F6F64203D2000414C4552543A2001
:1005B00053797374656D4865616C74682046616930
:1005C0006C7572652C204361726F7573656C4D6F2D
:1005D000746F72456E636F646572476F6F64203D20
:1005E0002000414C4552543A2053797374656D484C
:1005F00065616C7468204661696C7572652C204376
:1006000061726F7573656C4D6F746F72476F6F6455
:10061000203D2000414C4552543A20537973746573
:100620006D4865616C7468204661696C7572652CF3
:10063000204361726F7573656C486F6D654F7074A0
:100640006F476F6F64203D20005269676874507572
:100650006D70426172636F6465476F6F64203D2007
:10066000004C65667450756D70426172636F6465AD
:10067000476F6F64203D20004F7574657242617250
:10068000636F6465476F6F64203D2000496E6E653F
:1006900072426172636F6465476F6F64203D200032
:1006A0005246494453656E736F72476F6F64203DC5
:1006B000200044697374616E636553656E736F7275
:1006C000476F6F64203D20004C6F616443656C6C24
:1006D00053656E736F72476F6F64203D20004163F6
:1006E000747561746F72486F6D696E67476F6F6480
:1006F000203D20004163747561746F724F7574659D
:100700007255704F70746F476F6F64203D200041C9
:1007100063747561746F72496E6E657255704F7057
:10072000746F476F6F64203D20004163747561747E
:100730006F724D6F746F72456E636F646572476F51
:100740006F64203D20004163747561746F724D6F5A
:10075000746F72476F6F64203D20004361726F7544
:1007600073656C486F6D696E67476F6F64203D20DD
:10077000004361726F7573656C43656E7465724595
:100780006E636F646572476F6F64203D2000436144
:10079000726F7573656C4D6F746F72456E636F64C5
:1007A0006572476F6F64203D20004361726F7573FF
:1007B000656C4D6F746F72476F6F64203D2000430E
:1007C00061726F7573656C486F6D654F70746F47BC
:1007D0006F6F64203D2000426C61636B426F776CE9
:1007E00044697374616E6365203D200057686974C5
:1007F00065426F776C44697374616E6365203D2058
:1008000000526967687450756D7053657269616CE8
:100810004E756D6265725B5D203D200052696768B0
:100820007450756D7053657269616C4E756D62655B
:10083000724861734265656E44697370656E736575
:1008400064203D20004C65667450756D7053657270
:1008500069616C4E756D6265725B5D203D20004C78
:1008600065667450756D7053657269616C4E756D17
:100870006265724861734265656E44697370656E46
:10088000736564203D20004F76657272696465521D
:1008900046494449664974446F65736E7452656194
:1008A0006450726F7065726C79203D2000675369E7
:1008B000646550616E656C4272696768746E6573D9
:1008C00073203D20005369646550616E656C42720F
:1008D000696768746E657373203D200048617352C8
:1008E000656C6F6164446F6F724C6F636B203D2069
:1008F000004973426C61636B426F776C4172656152
:10090000203D20002C20436F756E74203D20004157
:10091000766572616765206F66206E6F6E2D7A65F1
:10092000726F20496E697469616C4163747561749A
:100930006F72506F736974696F6E73203D20005D34
:10094000203D200053657269616C4E756D62657261
:10095000735B005D203D200053657269616C4E75CC
:100960006D6265724861734265656E446973706556
:100970006E7365645B005D203D2000496E6974699B
:10098000616C4163747561746F72506F73697469DF
:100990006F6E735B00496E697469616C4163747555
:1009A00061746F72506F736974696F6E203D2000BF
:1009B0005363616C655F43616C6962726174696FF6
:1009C0006E5F576569676874203D20005363616CF2
:1009D000655F43616C6962726174696F6E5F32302A
:1009E0003067203D20005363616C655F43616C6933
:1009F00062726174696F6E5F5A65726F203D20008C
:100A00005363616C655F43616C6962726174696FA5
:100A10006E203D200046575F4255494C44203D2002
:100A20000044697370656E7365725F4D6F64656CC9
:100A30005F4D696E6F72203D200044697370656E72
:100A40007365725F4D6F64656C5F4D616A6F722094
:100A50003D200044697370656E7365725F53657203
:100A600069616C203D200045455050524F4D5F5606
:100A7000455253494F4E203D2000476574414D5427
:100A8000323033456E636F646572506F7369746999
:100A90006F6E20414D5432303363757272656E74DF
:100AA000506F736974696F6E3A200052617720410C
:100AB0004D5432303363757272656E74506F736962
:100AC00074696F6E3A2000526573657420417264D8
:100AD00075696E6F20746F20726573746172742013
:100AE00070726F6772616D2E004572726F72206F47
:100AF000627461696E696E6720706F736974696F83
:100B00006E2E00446F6E65207A65726F696E672085
:100B1000656E636F6465722C2043757272656E74C6
:100B200020706F736974696F6E3A20005265736547
:100B3000742041726475696E6F20746F20726573E2
:100B4000746172742070726F6772616D2E004572ED
:100B5000726F72206F627461696E696E6720706F68
:100B6000736974696F6E2E00342E2E2E00332E2E74
:100B70002E00322E2E2E00312E2E2E00292E2E2E1D
:100B8000206D6179206E65656420746F20706F77C9
:100B90006572206379636C65206166746572207488
:100BA0006869732E00414C4552543A20476F696E74
:100BB0006720746F207A65726F2074686520414DDC
:100BC0005432303320656E636F646572206E6F77C8
:100BD00020285072696F7220506F736974696F6E4C
:100BE000203D2000436F7272656374656420414D3F
:100BF0005432323220456E636F6465723A20004190
:100C00004D5432323220456E636F6465723A200073
:100C1000414D543232322072656164206572726FC8
:100C2000722E20417474656D7074733A2000446FA5
:100C30006E65207A65726F696E6720656E636F649A
:100C400065722C2043757272656E7420706F7369C3
:100C500074696F6E3A20002900414C4552543A2085
:100C6000476F696E6720746F207A65726F207468B1
:100C70006520414D5432323220656E636F64657277
:100C8000206E6F7720285072696F7220506F7369E1
:100C900074696F6E203D2000456E64696E67204167
:100CA00063747561746F7220506F736974696F6ECD
:100CB000203D20005374617274696E672041637433
:100CC0007561746F7220506F736974696F6E203D27
:100CD0002000486F6D654163747561746F72207791
:100CE0006173207375636365737366756C2120206F
:100CF000426F7468206163747561746F72732065EC
:100D00006E6465642075702E00414C4552543A2043
:100D1000486F6D654163747561746F72207761739C
:100D2000204E4F54207375636365737366756C2C26
:100D3000204163747561746F7220456E636F6465E2
:100D4000722052616E6765203C2032207768656EA4
:100D50002073686F756C64206265207E3230302DA0
:100D6000333030002C204163747561746F724F759D
:100D700074657255704F70746F203D2000414C4572
:100D800052543A20486F6D654163747561746F7297
:100D900020776173204E4F542073756363657373BE
:100DA00066756C2C20626563617573652061637480
:100DB0007561746F727320617265206E6F7420624A
:100DC0006F74682075702E20204163747561746F94
:100DD00072496E6E657255704F70746F203D2000C1
:100DE0005375626F7074696D616C206F7269656EA6
:100DF000746174696F6E2C207265636F6D6D656EC2
:100E00006420666C6970206163747561746F722010
:100E1000313830206465677265657320736F2074A4
:100E2000686174206D617820746F727175652069D6
:100E300073206F6E206F7574657220736C6F74739E
:100E40002073696E63652074686579277265207503
:100E5000736564206D6F7265206F6674656E2E0019
:100E6000476F6F64206F7269656E746174696F6E2D
:100E70002C206D617820746F72717565206F6E2003
:100E80006F7574657220736C6F74732073696E6311
:100E90006520746865792772652075736564206DB7
:100EA0006F7265206F6674656E2E002C204163742E
:100EB0007561746F72446972656374696F6E496EAF
:100EC0006E6572446F776E4F757465725570203D14
:100ED0002000456E64206F6620486F6D696E672044
:100EE0004163747561746F722C20456E636F646525
:100EF00072203D200046696E616C2041637475610B
:100F0000746F7220706F736974696F6E206166749C
:100F1000657220686F6D6520746F203020697320C2
:100F200000436F6E6669726D696E67206E6577202B
:100F3000706F736974696F6E20697320002C207361
:100F40006F206E657720706F736974696F6E2069AA
:100F50007320002C20736F2074616B6520746865AA
:100F600020646966666572656E636520696E207AC5
:100F700065726F20706F696E747320616E6420619A
:100F8000646A7573742069742062792000437572F5
:100F900072656E746C7920617420002C20736F2050
:100FA000736574207A65726F20706F696E74206249
:100FB00065747765656E207468652074776F2C2082
:100FC0006174200020746F20004163747561746F38
:100FD0007220456E636F6465722072616E67652072
:100FE000697320004163747561746F7220456E638C
:100FF0006F6465722052616E6765203C20322077F5
:1010000068656E2073686F756C64206265207E323F
:1010100030302D3330302E20436865636B204163C0
:10102000747561746F7220456E636F6465722057CA
:10103000697265732028342070696E20636F6E6E4C
:101040006563746F72292E20204966206163747570
:1010500061746F727320646964206E6F74206D6FA9
:1010600076652C20636865636B20616374756174B9
:101070006F72206D6F746F722077697265732028AC
:10108000322070696E20636F6E6E6563746F7229B3
:101090002E00414C4552543A20426F7468206163DF
:1010A000747561746F72206F70746F7320726561F4
:1010B0006420646F776E202D2074686973206973D3
:1010C00020616E206572726F7220636173652E20DD
:1010D00020476F696E6720746F2073746F70206192
:1010E0006E642072657475726E206661696C7572CB
:1010F00065206F6E20486F6D654163747561746F14
:101100007221005374616C6C6564206D6F72652090
:101110007468616E2035302074696D65732C2065AC
:10112000786974696E672074686973206C6F6F707A
:101130002E005374616C6C656421204E65656420DB
:10114000746F20676F20696E206F74686572206409
:101150006972656374696F6E206E6F772C20616EA3
:10116000642072657665727365206C6F6769632EA3
:10117000004F757465722075702C20696E6E6572F3
:1011800020646F776E202D20736F206D6F76652041
:10119000696E6E6572207570206669727374207452
:1011A0006F206D616B65206F7574657220676F20AD
:1011B000646F776E005374616C6C6564206D6F7240
:1011C00065207468616E2035302074696D65732CFC
:1011D0002065786974696E67207468697320326E5F
:1011E00064206C6F6F7020616E6420736574746925
:1011F0006E6720746865206F746865722073696417
:10120000652E00095573696E672072657665727385
:101210006564206C6F6769632C207761697465640D
:1012200020666F7220496E6E657220746F20676F42
:1012300020646F776E20686572652073696E6365E0
:10124000206F757465722077656E7420646F776E99
:1012500020696E2070726576696F7573206C6F6F90
:10126000702E005374616C6C6564206D6F72652024
:101270007468616E2035302074696D65732C20654B
:10128000786974696E672074686973206C6F6F7019
:101290002E005374616C6C656421204E656564207A
:1012A000746F20676F20696E206F746865722064A8
:1012B0006972656374696F6E206E6F772C20616E42
:1012C000642072657665727365206C6F6769632E42
:1012D00000094F757465722077656E7420646F77AE
:1012E0006E207768656E20657870656374696E67D7
:1012F00020696E6E65722E20205265766572736964
:101300006E67206C6F6769632E0009496E6E6572A7
:1013100020646F776E2C2073746F7070696E672015
:101320006669727374206C6F6F70004163747561CD
:10133000746F724F7574657255704F70746F206959
:101340007320646F776E20616C72656164792E2002
:10135000204D6F76696E6720697420757020616E0C
:101360006420496E6E657220646F776E2E00426F46
:101370007468206172652075702C20636F756C64D1
:1013800020676F206569746865722064697265639F
:1013900074696F6E2E202043686F6F73696E6720CB
:1013A000496E6E657220446F776E2E002C2041636B
:1013B000747561746F72446972656374696F6E49A4
:1013C0006E6E6572446F776E4F75746572557020DE
:1013D0003D20005374617274206F6620486F6D6900
:1013E0006E67204163747561746F722C20456E6363
:1013F0006F646572203D200046696E616C20524723
:1014000042204F75743A09005269676874436F6CE3
:101410006F7250756C7365496E3A09004C6566745D
:10142000436F6C6F7250756C7365496E3A09004674
:1014300061696C656420746F20676574203378205F
:1014400064697374616E63652072656164696E6757
:101450007320696E2052656164436F6C6F725365CF
:101460006E736F72732C20617373756D696E672074
:1014700063656E74657265642E000941766752611A
:101480006E67653A09000952616E6765333A090073
:101490000952616E6765323A090052616E676531C3
:1014A0003A0900446F2066756C6C205748495445D2
:1014B0002072656164696E6700446F20616D6269C6
:1014C000656E74206C696768742072656164696E0A
:1014D000672077697468204E656F506978656C7312
:1014E000204F464600436F6C6F722073656E736FBA
:1014F0007273206E6F7420696E7374616C6C6564B6
:101500002C2064656661756C74696E6720746F2049
:10151000524742282D312C2D312C2D3129000A4CD7
:101520006F61642043656C6C2053616D706C696EF3
:1015300067206661696C7572652C2052656164690B
:101540006E6773206E6F742077697468696E2037D8
:10155000352E30206772616D7320696E20302E3118
:10156000207365632E2053616D706C657320283184
:101570003078204144432076616C7565732066693C
:101580007273742C207468656E2031307820696E17
:10159000206772616D73293A0900094E65772053FF
:1015A000616D706C65733A09000A54776F2042616F
:1015B000642053616D706C65732C20676F696E6772
:1015C00020746F207265706C616365207769746840
:1015D0002032206E65772073616D706C65733A09F7
:1015E000000A54776F204261642053616D706C650E
:1015F00073206661696C7572652C20676F696E6710
:1016000020746F207265706C6163652077697468FF
:101610002032206E65772073616D706C65733A09B6
:10162000002A2A2A4641494C45442A2A2A002A2AC5
:101630002A5041535345442A2A2A0054617267654F
:1016400074206973206C657373207468616E203038
:101650002E312067202F20313030206D672C2073F1
:101660006F20746869732074657374200041766517
:101670007261676520446966666572656E636520A0
:10168000286D67293A2000417665726167652044BC
:101690006966666572656E6365202867293A200071
:1016A00041766572616765205765696768743A209D
:1016B000004D6561737572696E67206C6F6164209F
:1016C00063656C6C206E6F6973652C20323030203E
:1016D00073616D706C65732C2073616D706C6573D4
:1016E000207065722072656164696E67203D20001C
:1016F00009616C69676E6D656E74090009476574F0
:101700004F7574657252656C6F6164536C6F7409C8
:1017100000436865636B696E67204F75746572522C
:10172000656C6F61644973416C69676E65642829F3
:101730003A204765744F7574657252656C6F6164C9
:10174000536C6F744173466C6F6174090009616C6E
:1017500069676E6D656E74090009476574496E6E40
:10176000657252656C6F6164536C6F7409004368F5
:1017700065636B696E6720496E6E657252656C6F4A
:1017800061644973416C69676E656428293A204732
:101790006574496E6E657252656C6F6164536C6FEF
:1017A000744173466C6F6174090009496E6E65720D
:1017B000536C6F745F48696768203D2009004F755E
:1017C000746572536C6F745F48696768203D2009C7
:1017D0000009496E6E6572536C6F745F4C6F7720B1
:1017E0003D2009004F75746572536C6F745F4C6FC8
:1017F00077203D20090009496E6E6572536C6F7445
:10180000203D2009004F75746572536C6F74203D44
:1018100020090009446F6F724F70656E6564456EF4
:10182000636F64657253746570706572506F735F37
:101830004C6F77203D20090009446F6F724F70652F
:101840006E6564456E636F64657253746570706530
:1018500072506F735F48696768203D200900446FCC
:101860006F724F70656E6564456E636F6465725329
:10187000746570706572506F73203D2009000941D6
:1018800063747561746F724F7574657255704F70C3
:10189000746F203D200900094163747561746F7293
:1018A000496E6E657255704F70746F203D2009004F
:1018B000094361726F7573656C486F6D65203D20DB
:1018C0000900094163747561746F72506F73203D34
:1018D00020090009414D54323232506F73697469E6
:1018E0006F6E090009414D54323033506F73697483
:1018F000696F6E0900094361726F7573656C44729C
:1019000069766572506F736974696F6E090043611F
:10191000726F7573656C456E636F646572506F733B
:101920006974696F6E0900484F4D494E472044491C
:1019300044204E4F5420574F524B2050524F504549
:10194000524C59212020574520415245204E4F549A
:101950002041542054484520484F4D454341524F63
:101960005553454C204F50544F2042555420534816
:101970004F554C4420424521204F72207765206E00
:1019800065766572206D6F766564206F6666206F80
:10199000662069742070726F7065726C792E204FAA
:1019A00072206D6F746F7220656E636F6465722054
:1019B0006F722063656E74657220656E636F646517
:1019C00072206973206261642E20536565206D6505
:1019D0007373616765732061626F76652E00486F6F
:1019E0006D654361726F7573656C207365717565A4
:1019F0006E6365207375636365737366756C2E0023
:101A0000094163747561746F724F757465725570B6
:101A10004F70746F203D2009000941637475617433
:101A20006F72496E6E657255704F70746F203D20F5
:101A30000900094361726F7573656C486F6D6520AD
:101A40003D20090009616363656C537465707065BE
:101A5000722E63757272656E74506F736974696FFC
:101A60006E2829203D2009005374657070657250FE
:101A70006F7330203D2009005374657070657220CB
:101A80006D6F746F72206E6F7420706F7765726502
:101A900064206F72206E6F74206D6F76696E6720A0
:101AA0002D20636C6F73652072656C6F61642064B8
:101AB0006F6F7220616E6420747279206167616952
:101AC0006E2E0009486F6D654361726F7573656CAA
:101AD000456E636F646572506F736974696F6E20D1
:101AE0003D20090009486F6D654361726F7573652C
:101AF0006C53746570706572506F736974696F6E42
:101B0000203D200900096669727374486F6D654352
:101B100061726F7573656C456E636F646572506F4B
:101B2000736974696F6E203D200900666972737471
:101B3000486F6D654361726F7573656C5374657042
:101B4000706572506F736974696F6E203D20090073
:101B500043656E7465724D6F746F72456E636F642A
:101B60006572206973206261642C20697420736837
:101B70006F756C642068617665206D6F7665642092
:101B80003533206F72203733202831302D393029FA
:101B90002062757420696E7374656164206D6F7660
:101BA00065642043656E746572456E636F6465722B
:101BB000446966666572656E6365203D2000436119
:101BC000726F7573656C4D6F746F72456E636F6481
:101BD0006572206973206261642C206974207368C7
:101BE0006F756C642068617665206D6F7665642022
:101BF0003735202836352D3835292062757420690F
:101C00006E7374656164206D6F76656420436172E4
:101C10006F7573656C456E636F6465724469666663
:101C20006572656E6365203D200009576173486FDA
:101C30006D65466C616750726F7065725769647448
:101C400068203D200900094361726F7573656C4817
:101C50006F6D654174486F6D65203D200900095323
:101C6000746570706572506F736974696F6E4166E8
:101C70007465724D6F7665313130203D2009000961
:101C800043757272656E744D6963726F73746570BB
:101C9000506F736974696F6E4166746572486F6DD9
:101CA00065203D200900486F6D65466C6167576986
:101CB0006474683A20486F6D654361726F7573652F
:101CC0006C53746570706572506F736974696F6E70
:101CD000203D2009000943656E746572456E636F8F
:101CE000646572446966666572656E6365203D2051
:101CF0000900094361726F7573656C456E636F64AB
:101D00006572446966666572656E6365203D20098B
:101D100000094F6666486F6D6543656E7465724570
:101D20006E636F646572506F736974696F6E203D86
:101D3000200900094F6666486F6D654361726F75D3
:101D400073656C456E636F646572506F7369746917
:101D50006F6E203D200900094F6666486F6D655320
:101D6000746570706572506F736974696F6E203D31
:101D7000200900096669727374486F6D6543656E6A
:101D8000746572456E636F646572506F73697469D0
:101D90006F6E203D200900096669727374486F6D8B
:101DA000654361726F7573656C456E636F646572D0
:101DB000506F736974696F6E203D20090043686538
:101DC000636B696E6720656E636F646572733A203A
:101DD0006669727374486F6D654361726F75736580
:101DE0006C53746570706572506F736974696F6E4F
:101DF000203D2009005374616C6C696E6720646536
:101E00007465637465642C206469646E2774206D46
:101E10006F7665206174206C656173742032303098
:101E200020656E636F64657220636F756E747320D6
:101E3000696E2031207365632E00546F6F206D61D1
:101E40006E7920476F546F506F736974696F6E209D
:101E500072657472696573202D206572726F726984
:101E60006E67206F75742077697468206D69736D73
:101E700061746368206265747765656E20414D54B6
:101E800031303220616E6420414D543230332F4165
:101E90004D54323232206F72206A75737420646937
:101EA000646E27742067657420746F207461726794
:101EB00065742E20476F546F506F736974696F6E2D
:101EC000204661696C7572652E005265686F6D6998
:101ED0006E67207375636365737366756C2C20671A
:101EE0006F696E6720746F20747279207468652042
:101EF000476F546F506F736974696F6E20616761CB
:101F0000696E2E005265686F6D696E672066616943
:101F10006C65642C20676976696E67207570206F28
:101F20006E20746865206361726F7573656C206DD7
:101F30006F76656D656E742E0043656E74657220F4
:101F4000656E636F646572206D69736D617463683B
:101F50002C20676F696E6720746F207265686F6DE3
:101F60006520746865206361726F7573656C2061AC
:101F70006E642074727920616761696E0020616E01
:101F8000642061637475616C206F66200052657413
:101F90007279696E6720746865206361726F75730A
:101FA000656C206D6F76656D656E74206475652057
:101FB000746F2063656E74657220656E636F64650F
:101FC00072206D69736D61746368202D20736C6974
:101FD0007070696E672063656E74657220656E63EC
:101FE0006F6465722E204C696D6974206F662000E5
:101FF0005265747279696E672074686520636172D6
:102000006F7573656C206D6F76656D656E74206499
:10201000756520746F2073746570706572206D6FC4
:10202000746F7220656E636F646572206D69736D85
:1020300061746368202D206C696B656C7920737402
:10204000616C6C6564206D6F746F722C20746F6F9F
:102050002068656176792C20746F6F206D756368D8
:10206000206672696374696F6E2C206F72206261E2
:1020700064206D6F746F72206D6F756E7420616C6B
:1020800069676E6D656E742F737072696E672E204E
:102090004C696D6974206F6620323020616E642057
:1020A00061637475616C206F662000414D5432325B
:1020B0003220456E636F64657220506F7369746976
:1020C0006F6E204572726F72206F662000546172CD
:1020D00067657420414D5432323220456E636F641F
:1020E000657220506F736974696F6E206F6620008F
:1020F00043757272656E7420414D54323232204500
:102100006E636F64657220506F736974696F6E20BF
:102110006F662000414D5432303320456E636F644A
:10212000657220506F736974696F6E204572726FAB
:1021300072206F66200054617267657420414D54AF
:1021400032303320456E636F64657220506F73695F
:1021500074696F6E206F66200043757272656E74CD
:1021600020414D5432303320456E636F64657220D8
:10217000506F736974696F6E206F662000537465C9
:102180007070657220456E636F64657220506F7366
:102190006974696F6E204572726F72206F662000DD
:1021A00043757272656E7420537465707065722029
:1021B000456E636F64657220506F736974696F6EEA
:1021C000206F6620005374657070657220447269D8
:1021D00076657220506F736974696F6E20457272F4
:1021E0006F72206F66200043757272656E742053A3
:1021F0007465707065722044726976657220506FE4
:10220000736974696F6E206F6620004361726F7529
:1022100073656C206D6F76656D656E74206661699F
:102220006C6564202D2073746F7070696E672E204A
:1022300020456974686572206E6F206D6F76656DDC
:10224000656E7420617420616C6C20283C352073AD
:10225000746570732073696E6365206C617374209C
:10226000353030206D736563292C206F7220706FBC
:10227000736974696F6E20646576696174696F6EE5
:102280002066726F6D2077686572652073686F7560
:102290006C642062652076732077686572652061C2
:1022A0007265206261736564206F6E20656E636F76
:1022B0006465722E0046696E616C20526574727995
:1022C0002023342C206C6F776572696E6720616300
:1022D00063656C65726174696F6E20616E642072F3
:1022E000616973696E67206D6F76652063757272C0
:1022F000656E742E0052657472792023332C206C25
:102300006F776572696E6720616363656C65726182
:1023100074696F6E20616E642072616973696E67A3
:10232000206D6F76652063757272656E742E005233
:10233000657472792023322C206C6F776572696E18
:102340006720616363656C65726174696F6E20619B
:102350006E642072616973696E67206D6F766520A7
:1023600063757272656E742E0052657472792023E3
:10237000312C206C6F776572696E672061636365CD
:102380006C65726174696F6E20616E642072616940
:1023900073696E67206D6F76652063757272656E06
:1023A000742E002E2044697374616E636546726FEB
:1023B0006D546172676574203D2000292043616C73
:1023C0006C65642C2043757272656E7420506F7357
:1023D0006974696F6E203D2000476F546F506F73B2
:1023E0006974696F6E456E636F64657228002E2094
:1023F00044697374616E636546726F6D5461726790
:102400006574203D2000292043616C6C65642C209C
:1024100043757272656E7420506F736974696F6E64
:10242000203D2000476F546F506F736974696F6E61
:10243000280044697374616E636546726F6D546100
:10244000726765744D696E7573203D20090044699B
:102450007374616E636546726F6D54617267657403
:10246000506C7573203D20090044697374616E637C
:102470006546726F6D546172676574203D20090076
:1024800043757272656E74506F736974696F6E20F4
:102490003D200900546172676574506F73697469F7
:1024A0006F6E203D200900547279696E6720746F49
:1024B00020486F6D654361726F7573656C2C207376
:1024C000696E6365206974206861736E2774207378
:1024D00075636365737366756C6C7920686F6D6581
:1024E00064207965742E00496E76616C696420738E
:1024F0006C6F74206E756D62657220666F72203528
:102500003020736C6F742064697370656E736572CC
:102510003A20536C6F742000496E76616C696420B8
:10252000736C6F74206E756D62657220666F7220B9
:10253000353020736C6F742064697370656E7365D9
:102540007200656E636F6465725374657070657256
:10255000506F73206F7574206F662072616E6765AF
:10256000202D2073657474696E67206E6577206511
:102570006E636F64657253746570706572506F73CB
:10258000206F66200043757272656E74506F7369B8
:1025900074696F6E206F7574206F662072616E674C
:1025A00065202D2073657474696E67206E657720D1
:1025B00043757272656E7420506F736974696F6EC3
:1025C000206F662000656E636F646572537465707A
:1025D000706572506F73206F7574206F6620726122
:1025E0006E6765202D2073657474696E67206E6553
:1025F0007720656E636F6465725374657070657281
:10260000506F73206F66200043757272656E745050
:102610006F736974696F6E206F7574206F662072B6
:10262000616E6765202D2073657474696E67206E16
:1026300065772043757272656E7420506F7369748C
:10264000696F6E206F6620004361726F7573656CF1
:10265000206D6F76656D656E74206661696C65646A
:102660002E2020536C697070696E672063757272DA
:10267000656E74207761732000414D5432323220F0
:10268000456E636F64657220506F736974696F6E15
:10269000204572726F72206F662000546172676508
:1026A0007420414D5432323220456E636F6465723E
:1026B00020506F736974696F6E206F6620004375D8
:1026C0007272656E7420414D5432323220456E6311
:1026D0006F64657220506F736974696F6E206F66E6
:1026E0002000414D5432303320456E636F64657273
:1026F00020506F736974696F6E204572726F72201B
:102700006F66200054617267657420414D54323009
:102710003320456E636F64657220506F736974690E
:102720006F6E206F66200043757272656E74204173
:102730004D5432303320456E636F64657220506FA4
:10274000736974696F6E206F6620005374657070D2
:10275000657220456E636F64657220506F73697493
:10276000696F6E204572726F72206F66200043752C
:102770007272656E74205374657070657220456E58
:10278000636F64657220506F736974696F6E206F38
:1027900066200053746570706572204472697665B6
:1027A0007220506F736974696F6E204572726F7218
:1027B000206F66200043757272656E7420537465D5
:1027C000707065722044726976657220506F73690B
:1027D00074696F6E206F6620004361726F75736558
:1027E0006C206D6F76656D656E74206661696C65D1
:1027F000642C206D75737420686176652073746134
:102800006C6C65642E20204D6F7665204375727266
:10281000656E742074686174206974206661696CE7
:1028200065642061742077617320002E20446973F1
:1028300074616E636546726F6D5461726765742072
:102840003D2000292043616C6C65642C2043757227
:1028500072656E7420506F736974696F6E203D20CD
:1028600000476F546F506F736974696F6E456E6384
:102870006F64657228002E2044697374616E63650D
:1028800046726F6D546172676574203D2000292087
:1028900043616C6C65642C2043757272656E7420A4
:1028A000506F736974696F6E203D2000476F546FDD
:1028B000506F736974696F6E280044697374616E38
:1028C000636546726F6D5461726765744D696E75AC
:1028D00073203D20090044697374616E636546721C
:1028E0006F6D546172676574506C7573203D20097B
:1028F0000044697374616E636546726F6D546172F2
:10290000676574203D20090043757272656E7450CE
:102910006F736974696F6E203D200900546172679E
:102920006574506F736974696F6E203D2009003AB9
:1029300024005E756E6A616D5F6361726F757365A9
:102940006C5F726573703A327C6661696C75726532
:102950003A003A24005E756E6A616D5F6361726F62
:102960007573656C5F726573703A327C6661696C11
:102970007572653A003A24005E756E6A616D5F6338
:1029800061726F7573656C5F726573703A327C73D8
:102990007563636573733A003A24005E756E6A610D
:1029A0006D5F6361726F7573656C5F726573703AAA
:1029B000327C737563636573733A00656E636F642D
:1029C000657253746570706572506F73206F7574A3
:1029D000206F662072616E6765202D2073657474A8
:1029E000696E67206E657720656E636F64657253EC
:1029F000746570706572506F73206F662000437548
:102A00007272656E74506F736974696F6E206F7542
:102A100074206F662072616E6765202D2073657467
:102A200074696E67206E65772043757272656E7487
:102A300020506F736974696F6E206F662000656E39
:102A4000636F64657253746570706572506F732044
:102A50006F7574206F662072616E6765202D20731C
:102A6000657474696E67206E657720656E636F6448
:102A7000657253746570706572506F73206F662055
:102A80000043757272656E74506F736974696F6E0E
:102A9000206F7574206F662072616E6765202D202F
:102AA00073657474696E67206E6577204375727202
:102AB000656E7420506F736974696F6E206F662045
:102AC000004361726F7573656C2073746570706517
:102AD0007220656E636F646572206572726F722E0C
:102AE0002020536C697070696E672063757272651F
:102AF0006E74207761732000414D5432323220458C
:102B00006E636F64657220506F736974696F6E20B5
:102B10004572726F72206F6620005461726765742F
:102B200020414D5432323220456E636F646572200D
:102B3000506F736974696F6E206F66200043757201
:102B400072656E7420414D5432323220456E636F8F
:102B500064657220506F736974696F6E206F6620B0
:102B600000414D5432303320456E636F64657220EE
:102B7000506F736974696F6E204572726F72206F47
:102B800066200054617267657420414D54323033C1
:102B900020456E636F64657220506F736974696F4E
:102BA0006E206F66200043757272656E7420414D11
:102BB0005432303320456E636F64657220506F73FA
:102BC0006974696F6E206F6620005374657070655C
:102BD0007220456E636F64657220506F736974690B
:102BE0006F6E204572726F72206F6620004375729F
:102BF00072656E74205374657070657220456E63E3
:102C00006F64657220506F736974696F6E206F66B0
:102C10002000537465707065722044726976657225
:102C200020506F736974696F6E204572726F7220E5
:102C30006F66200043757272656E74205374657000
:102C40007065722044726976657220506F73697482
:102C5000696F6E206F662000556E6A616D43617208
:102C60006F7573656C206D6F76656D656E7420662B
:102C700061696C65642C206D75737420686176657C
:102C8000207374616C6C65642E20204D6F76652016
:102C900043757272656E7420746861742069742063
:102CA0006661696C65642061742077617320002E11
:102CB0002044697374616E636546726F6D5461720E
:102CC000676574203D2000292043616C6C65642C8D
:102CD0002043757272656E7420506F736974696FEA
:102CE0006E203D2000476F546F506F736974696F99
:102CF0006E456E636F64657228002E20446973749C
:102D0000616E636546726F6D546172676574203DD4
:102D10002000292043616C6C65642C20437572721D
:102D2000656E7420506F736974696F6E203D20006A
:102D3000476F546F506F736974696F6E28004469F0
:102D40007374616E636546726F6D5461726765740A
:102D5000203D20090043757272656E74506F73696F
:102D600074696F6E203D200900546172676574506C
:102D70006F736974696F6E203D200900416D6F7536
:102D80006E745F44697370656E7365643A090057C9
:102D900065696768742041667465722031207365C7
:102DA000633A090057656967687420416674657203
:102DB0003A0900446F6E6500526576657273696EFC
:102DC0006700576569676874204265666F72653A87
:102DD0000900416D6F756E745F44697370656E7341
:102DE00065643A09005765696768742041667465CF
:102DF000722031207365633A09005765696768740A
:102E00002041667465723A0900446F6E6500526530
:102E100076657273696E67005765696768742042EA
:102E200065666F72653A09005E6C656674646F6F03
:102E3000725F6F70656E65643A307C3A24005E6C38
:102E4000656674646F6F725F6F70656E65643A304B
:102E50007C3A24005E6C656674646F6F725F636CAD
:102E60006F7365643A307C3A24005E6C6566746406
:102E70006F6F725F636C6F7365643A307C3A2400E5
:102E80005E7269676874646F6F725F6F70656E659C
:102E9000643A307C3A24005E7269676874646F6FCC
:102EA000725F6F70656E65643A307C3A24005E72C2
:102EB00069676874646F6F725F636C6F7365643A9F
:102EC000307C3A24005E7269676874646F6F725F69
:102ED000636C6F7365643A307C3A2400524649440F
:102EE0002072617720646174613A2000524649443F
:102EF0002063617264206E756D6265723A20002CE9
:102F000020466F756E64203D2000524649444C6F48
:102F10006F702000436865636B696E672052464995
:102F2000442053656E736F723A00206F6620000A6A
:102F30000A4379636C6520005E646F6F725F6F7027
:102F4000656E65643A307C3A24005E646F6F725F30
:102F50006F70656E65643A307C3A24005E646F6F12
:102F6000725F636C6F7365643A307C3A24005E6410
:102F70006F6F725F636C6F7365643A307C3A2400E4
:102F800052657363616E204C6566746F766572205E
:102F90003D200052657363616E2057726170203D61
:102FA000200052657363616E204C6566746F7665B0
:102FB00072203D200052657363616E204E6F205772
:102FC000726170203D200052657363616E204C6514
:102FD00066746F766572203D200052657363616E82
:102FE0002057726170203D200052657363616E202E
:102FF0004C6566746F766572203D20005265736380
:10300000616E204E6F2057726170203D2000526526
:103010007363616E20416C6C203D20005E706175B1
:1030200073653A005E72657365743A005E63616E43
:1030300063656C3A005E70617573653A005E726537
:103040007365743A005E63616E63656C3A003A249E
:10305000005E6F7665723A317C003A24005E6F76CE
:1030600065723A317C003A24005E6D6973733A31BF
:103070007C003A24005E6D6973733A317C003A2417
:10308000005E7365745F7363616C655F6C65647328
:103090005F726573703A327C737563636573733AFC
:1030A000003A24005E7365745F7363616C655F6CE6
:1030B0006564735F726573703A327C7375636365C0
:1030C00073733A007365745F7363616C655F6C65FD
:1030D0006473006F66660066696E69736865640094
:1030E000616C6572740064697370656E73696E6794
:1030F000006469737000626F776C00616374697655
:10310000650069646C650056616C7565207061735B
:103110007365643D00496E207365745F7363616C11
:10312000655F6C65647321003A24005E64656D6FB1
:103130005F726573703A327C737563636573733A5B
:10314000003A24005E64656D6F5F726573703A3299
:103150007C737563636573733A0064656D6F0056C5
:10316000616C7565207061737365643D00496E2004
:1031700064656D6F2066756E6374696F6E21005EA5
:1031800070696E673A307C3A24005E70696E673A07
:10319000307C3A2400537465707065722050756DF0
:1031A000702044726976657220506F736974696F1C
:1031B0006E204572726F72206F66200043757272C6
:1031C000656E742050756D702053746570706572F3
:1031D0002044726976657220506F736974696F6EEE
:1031E000206F6620002E2044697374616E6365460B
:1031F000726F6D546172676574203D200029204311
:10320000616C6C65642C2043757272656E7420501D
:103210006F736974696F6E203D2000476F546F5063
:103220006F736974696F6E2800537465707065728E
:103230002050756D702044726976657220506F73EE
:103240006974696F6E204572726F72206F6620001C
:1032500043757272656E742050756D70205374657D
:10326000707065722044726976657220506F736960
:1032700074696F6E206F6620002E2044697374613C
:103280006E636546726F6D546172676574203D2090
:1032900000292043616C6C65642C20437572726553
:1032A0006E7420506F736974696F6E203D20004703
:1032B0006F546F506F736974696F6E28003A240001
:1032C0005E64697370656E73655F74696D65645F74
:1032D000726573703A327C737563636573733A0019
:1032E0003A24005E64697370656E73655F74696D1E
:1032F00065645F726573703A327C7375636365737E
:10330000733A0064697370656E73655F74696D65A7
:103310006400416674657220686F6D652061637436
:1033200075616C2C20736574706F696E742C2070DD
:10333000776D3A00456E64696E672041637475610C
:10334000746F722061637475616C2C207365747086
:103350006F696E742C2070776D3A005374617274CB
:10336000696E67204163747561746F722061637464
:1033700075616C2C20736574706F696E742C20708D
:10338000776D3A0056616C75652070617373656482
:103390003D0056616C7565207061737365643D0016
:1033A000496E2064697370656E73652074696D651C
:1033B0006421005E646F6F725F756E6C6F636B5F2C
:1033C000726573703A317C737563636573733A2405
:1033D000005E646F6F725F756E6C6F636B5F7265BA
:1033E00073703A317C737563636573733A24006458
:1033F0006F6F725F756E6C6F636B006C6F636B6584
:103400006400756E6C6F636B6564006C6F636B65F5
:103410006400756E6C6F636B656400203D20004135
:103420006674657220556E6C6F636B696E672C20D5
:1034300052656C6F6164446F6F72556E6C6F636B35
:1034400053656E736550696E203D2000203D20005D
:103450004265666F726520556E6C6F636B696E674F
:103460002C2052656C6F6164446F6F72556E6C6F87
:10347000636B53656E736550696E203D2000496E25
:1034800020646F6F725F756E6C6F636B2066756E14
:103490006374696F6E21005E636162696E65745F5B
:1034A0006C6F636B5F726573703A317C73756363C5
:1034B0006573733A24005E636162696E65745F6C64
:1034C0006F636B5F726573703A317C7375636365AC
:1034D00073733A2400636162696E65745F6C6F6335
:1034E0006B004166746572204C6F636B696E672C6C
:1034F0002045787465726E616C446F6F72556E6CA6
:103500006F636B53656E736550696E3A2000426558
:10351000666F7265204C6F636B696E672C2045780F
:103520007465726E616C446F6F72556E6C6F636B15
:1035300053656E736550696E3A2000496E20636171
:1035400062696E65745F6C6F636B2066756E637421
:10355000696F6E21005E636162696E65745F756E8E
:103560006C6F636B5F726573703A317C7375636304
:103570006573733A24005E636162696E65745F759A
:103580006E6C6F636B5F726573703A317C737563D9
:10359000636573733A2400636162696E65745F7575
:1035A0006E6C6F636B00416674657220556E6C6F54
:1035B000636B696E672C2045787465726E616C442C
:1035C0006F6F72556E6C6F636B53656E7365506988
:1035D0006E3A20004265666F726520556E6C6F63AF
:1035E0006B696E672C2045787465726E616C446FF0
:1035F0006F72556E6C6F636B53656E736550696E59
:103600003A2000496E20636162696E65745F756E71
:103610006C6F636B2066756E6374696F6E210063F7
:103620006C6F736564006F70656E003A2400636CA4
:103630006F736564006F70656E005E6C65667464C0
:103640006F6F725F7374617475735F726573703AD4
:10365000317C003A24005E6C656674646F6F725F43
:103660007374617475735F726573703A317C006C4A
:10367000656674646F6F725F737461747573004C08
:10368000656674446F6F724F70656E203D200063F5
:103690006C6F736564006F70656E003A2400636C34
:1036A0006F736564006F70656E005E726967687441
:1036B000646F6F725F7374617475735F726573703A
:1036C0003A317C003A24005E7269676874646F6FF7
:1036D000725F7374617475735F726573703A317C75
:1036E000007269676874646F6F725F737461747578
:1036F00073005269676874446F6F724F70656E2013
:103700003D200072656D6F76656400696E73657249
:10371000746564003A240072656D6F7665640069B3
:103720006E736572746564005E77697065725F734D
:1037300074617475735F726573703A317C003A24FA
:10374000005E77697065725F7374617475735F7220
:103750006573703A317C0077697065725F7374616C
:10376000747573005769706572496E73657274651C
:1037700064203D200072656D6F76656400696E732C
:103780006572746564003A240072656D6F766564D5
:1037900000696E736572746564005E64726970744A
:1037A0007261795F7374617475735F726573703A77
:1037B000317C003A24005E64726970747261795FD2
:1037C0007374617475735F726573703A317C0064F1
:1037D000726970747261795F737461747573004497
:1037E00072697054726179496E7365727465642090
:1037F0003D20006C6F636B656400756E6C6F636B6E
:103800006564003A24006F70656E3A00636C6F73F4
:1038100065643A006C6F636B656400756E6C6F6312
:103820006B6564005E636162696E65745F73746189
:103830007475735F726573703A327C003A24006F5E
:1038400070656E3A00636C6F7365643A005E636125
:1038500062696E65745F7374617475735F726573AA
:10386000703A327C006C6F636B656400756E6C6FD0
:10387000636B656400636162696E65745F73746134
:10388000747573006F70656E00636C6F73656400B0
:10389000203D200045787465726E616C446F6F72D4
:1038A000556E6C6F636B53656E736550696E203D2A
:1038B0002000203D2000436162696E6574446F6F93
:1038C00072436C6F736564203D20003A24005E7083
:1038D0006F736974696F6E5F63616E69737465722B
:1038E0005F7265706C6163655F726573703A327C9C
:1038F0006661696C7572653A003A24005E706F7398
:103900006974696F6E5F63616E69737465725F720B
:1039100065706C6163655F726573703A327C666175
:10392000696C7572653A003A24005E706F73697451
:10393000696F6E5F63616E69737465725F726570E3
:103940006C6163655F726573703A327C7375636333
:103950006573733A003A24005E706F736974696F1F
:103960006E5F63616E69737465725F7265706C61BE
:1039700063655F726573703A327C737563636573F8
:10398000733A00706F736974696F6E5F63616E691B
:10399000737465725F7265706C6163650056616C0B
:1039A0007565207061737365643D00496E20706FAA
:1039B000736974696F6E2063616E697374657220D8
:1039C0007265706C6163652066756E6374696F6E95
:1039D0002100496E2070617573652066756E637491
:1039E000696F6E21005E72657363616E5F737461EF
:1039F000727465643A307C3A24005E726573636168
:103A00006E5F737461727465643A307C3A24005E50
:103A100072657363616E5F66696E69736865643A47
:103A2000307C3A24005E72657363616E5F66696E16
:103A300069736865643A307C3A24005E726573632A
:103A4000616E5F63616E6973746572735F726573D3
:103A5000703A317C6661696C7572653A24005E72F9
:103A6000657363616E5F63616E6973746572735FC2
:103A7000726573703A317C6661696C7572653A245F
:103A80000048617665576553756363657373667542
:103A90006C6C79486F6D65644361726F7573656CAA
:103AA0004265666F7265203D2000486F6D65416319
:103AB000747561746F72537563636573734F6E537E
:103AC000746172747570203D200053616665546F97
:103AD000526F746174654361726F7573656C2829E8
:103AE000203D200052656C6F6164446F6F724F70AF
:103AF000656E203D20005E72657363616E5F636179
:103B00006E6973746572735F726573703A317C733A
:103B10007563636573733A24005E72657363616EE7
:103B20005F63616E6973746572735F726573703A17
:103B3000317C737563636573733A24005E726573D9
:103B400063616E5F63616E6973746572735F7265E2
:103B500073703A317C6661696C7572653A24005EF7
:103B600072657363616E5F63616E697374657273AE
:103B70005F726573703A317C6661696C7572653A23
:103B800024002152656C6F6164446F6F724F7065E1
:103B90006E2026262053616665546F526F746174DF
:103BA000654361726F7573656C282920262620484D
:103BB0006F6D654163747561746F7253756363658E
:103BC00073734F6E5374617274757020262620488B
:103BD00061766557655375636365737366756C6C61
:103BE00079486F6D65644361726F7573656C42658A
:103BF000666F7265203D2000556E61626C652074B1
:103C00006F2072657363616E2063616E69737465A2
:103C100072732064756520746F2074686973206303
:103C20006865636B206661696C696E673A005472FF
:103C300079696E6720746F20486F6D654361726F9C
:103C40007573656C2C2073696E63652069742068D8
:103C500061736E2774207375636365737366756C27
:103C60006C7920686F6D6564207965742E00496EEB
:103C70002072657363616E5F63616E6973746572F0
:103C8000732066756E6374696F6E2100626C616388
:103C90006B007768697465005E72657365745F7246
:103CA0006573703A317C737563636573733A24008E
:103CB0005E72657365745F726573703A317C73759B
:103CC00063636573733A2400496E2072657365748B
:103CD0002066756E6374696F6E21005E63616E634A
:103CE000656C5F726573703A317C7375636365737D
:103CF000733A24005E63616E63656C5F7265737016
:103D00003A317C737563636573733A2400496E209E
:103D100063616E63656C2066756E6374696F6E2196
:103D200000496E20726573756D655F66756E6374AC
:103D3000696F6E2066756E6374696F6E21003A2438
:103D4000005E73797374656D5F636865636B5F7242
:103D50006573703A317C00496E2073797374656DB8
:103D60005F636865636B2066756E6374696F6E214F
:103D7000003A24005E7374617475735F72657370CA
:103D80003A317C003A24005E7374617475735F721B
:103D90006573703A317C0052656C6F6164446F6F7B
:103DA00072556E6C6F636B53656E736550696E20F0
:103DB0003D20005769706572496E73657274656461
:103DC000203D2000094163747561746F724F7574F2
:103DD000657255704F70746F203D20000941637407
:103DE0007561746F72496E6E657255704F70746F45
:103DF000203D20004163747561746F72456E636F7E
:103E0000646572203D200041313420414D49532DDD
:103E10003330353433205664642052656C6F6164EE
:103E2000446F6F72436C6F736564203D200043756F
:103E30007272656E74205765696768743A09004943
:103E40006E207374617475735F66756E6374696FE9
:103E50006E2066756E6374696F6E21005E626F77A7
:103E60006C5F7765696768745F726573703A327CFE
:103E7000737563636573733A005E626F776C5F7727
:103E800065696768745F726573703A327C737563D5
:103E9000636573733A005E626F776C5F776569671D
:103EA00068745F726573703A327C6661696C7572B2
:103EB000653A005E626F776C5F7765696768745F0B
:103EC000726573703A327C6661696C7572653A002E
:103ED0002C2053616D706C657320776572653A2094
:103EE00000426F776C20776569676874204E4F5485
:103EF00020534554544C45442C20736F20726574F4
:103F000075726E204661696C7572652062757420E9
:103F100072657475726E204162736F6C757465574B
:103F2000656967687420616E797761792C204162D8
:103F3000736F6C757465576569676874203D200000
:103F40004E65772052464944207461672064657449
:103F500065637465642C2074686579206D7573746D
:103F60002068617665207377617070656420626F88
:103F7000776C732C20736F207765206E65656420E5
:103F8000746F2073656E6420626F776C5F706C6114
:103F9000636564206E6F77206265666F726520626C
:103FA0006F776C5F7765696768745F726573702E91
:103FB00000524649442074616773206D61746368E0
:103FC0002C206E6F206E65656420746F207468729B
:103FD0006F7720626F776C5F706C616365642065DA
:103FE00076656E7400436C656172696E6720616C02
:103FF0006C20496E697469616C4163747561746F9A
:1040000072506F736974696F6E735B5D20616E646B
:104010002053657269616C4E756D6265724861739B
:104020004265656E44697370656E7365645B5D2E91
:1040300000206F7574206F6620626F756E64732C3C
:104040002063616E6E6F7420736574207468697389
:1040500020696E2074686520454550524F4D2E00F2
:10406000736C6F745F6E756D6265722000292074C9
:104070006F20005D2028736C6F742000536574748A
:10408000696E6720496E697469616C41637475611A
:10409000746F72506F736974696F6E735B00416601
:1040A000746572205363616C655F43616C69627211
:1040B0006174696F6E3A20004265666F72652053C5
:1040C00063616C655F43616C6962726174696F6E94
:1040D0003A20004166746572205363616C655F43EA
:1040E000616C6962726174696F6E5F576569676858
:1040F000743A20004265666F7265205363616C6597
:104100005F43616C6962726174696F6E5F57656964
:104110006768743A20004166746572205363616C6D
:10412000655F43616C6962726174696F6E5F3230A2
:1041300030673A20004265666F7265205363616C98
:10414000655F43616C6962726174696F6E5F323082
:1041500030673A20004166746572205363616C6574
:104160005F43616C6962726174696F6E5F5A6572F8
:104170006F3A20004265666F7265205363616C651B
:104180005F43616C6962726174696F6E5F5A6572D8
:104190006F3A20004661696C656420746F20676522
:1041A0007420357820676F6F642064697374616E62
:1041B00063652072656164696E677320696E206350
:1041C000616C6962726174655F77686974655F626A
:1041D0006F776C2829000941766752616E67653AEE
:1041E00009000952616E6765353A09000952616E2E
:1041F0006765343A09000952616E6765333A090010
:104200000952616E6765323A090052616E67653125
:104210003A09004661696C656420746F20676574B3
:1042200020357820676F6F642064697374616E63F2
:10423000652072656164696E677320696E206361D1
:104240006C6962726174655F626C61636B5F626FFF
:10425000776C2829000941766752616E67653A09D3
:10426000000952616E6765353A09000952616E674F
:1042700065343A09000952616E6765333A090009ED
:1042800052616E6765323A090052616E6765313A74
:10429000090046696E616C20656E636F646572200B
:1042A0003D20004166746572206272616B652C204E
:1042B000656E636F646572203D20004465736972AA
:1042C000656420706F736974696F6E203D200041D2
:1042D00063747561746F7252657475726E546F4851
:1042E0006F6D65466173742C204265666F72652040
:1042F000456E636F646572203D20000943656E74EE
:104300006572456E636F646572506F736974696F2F
:104310006E203D200900094361726F7573656C481A
:104320006F6D65203D20090009616363656C5374FE
:1043300065707065722E63757272656E74506F73FE
:104340006974696F6E2829203D20090053746570D7
:10435000706572506F7330203D20090043686563BB
:104360006B2063656E74657220656E636F64657241
:1043700020666F72206C6F6F73656E6573732F7339
:104380006C697070696E67202D206569746865724C
:10439000207468652079656C6C6F7720696E736531
:1043A00072742068617320636F6D65206C6F6F732A
:1043B000652066726F6D207468652073686166742D
:1043C0002C2068617320706F70706564206F757445
:1043D000206F662063656E74657220656E636F641E
:1043E00065722C206F72207468652077686F6C6529
:1043F00020656E636F64657220697473656C6620F6
:1044000068617320746F6F206D75636820776967CA
:10441000676C6520746F206974206F722069736EF9
:104420002774207365617465642077656C6C2E0059
:104430002A2A2A4641494C45442A2A2A002A2A2A5D
:104440005041535345442A2A2A004174206C656127
:104450007374206F6E65206F6620746865206361D9
:10446000726F7573656C206D6F76656D656E7473B4
:10447000206661696C65642C20736F2074686973B1
:104480002069732061206661696C75726520616EB8
:1044900064206E6F7420612076616C6964206365AE
:1044A0006E74657220656E636F64657220736C69EB
:1044B0007070696E6720746573742E002A2A2A460C
:1044C00041494C45442A2A2A005468697320766180
:1044D0006C75652073686F756C64206265203C2084
:1044E000353020746F20656E73757265206E6F2095
:1044F000736C697070696E672E00446966666572D8
:10450000656E636520696E2063656E7465722065F3
:104510006E636F64657220706F736974696F6E206B
:104520007768656E206D6F76696E6720636C6F6368
:104530006B7769736520767320636F756E7465722F
:10454000636C6F636B7769736520697320004365E3
:104550006E74657220656E636F64657220506F7350
:104560006974696F6E4174536C6F74313043435793
:10457000203D200043656E74657220656E636F6434
:10458000657220506F736974696F6E4174536C6FFC
:104590007431304357203D20000A43656E746572C4
:1045A00020656E636F64657220506F736974696F04
:1045B0006E4174486F6D65203D20004F76657261D5
:1045C0006C6C20726573756C74203D202A2A2A4613
:1045D00041494C45442A2A2A004F766572616C6C29
:1045E00020726573756C74203D202A2A2A5041532D
:1045F0005345442A2A2A004E756D626572206F6603
:10460000206D6F76656D656E74206661696C75727C
:104610006573203D20004E756D626572206F6620C7
:104620006D6F76656D656E74207265747269657301
:10463000203D2000206379636C65732E000A0A46D2
:10464000696E6973686564204379636C652054659D
:104650007374206F6620006E756D4661696C7572AB
:104660006573203D20006E756D52657472696573C7
:10467000203D200053756363657373203D20006700
:10468000476F546F506F736974696F6E52657472BF
:10469000696573203D2000476F546F4469737065EE
:1046A0006E7365536C6F74203D20006E756D4661AE
:1046B000696C75726573203D20006E756D5265746E
:1046C00072696573203D20005375636365737320C1
:1046D0003D200067476F546F506F736974696F6E48
:1046E00052657472696573203D2000476F546F44B2
:1046F000697370656E7365536C6F74203D20002084
:1047000054696D6573004379636C652054657374F7
:10471000205246494420446F6E652C20524649443D
:10472000204D697373696E6720002054696D65734D
:10473000004379636C652054657374205246494484
:1047400020446F6E652C20524649442044657465B0
:104750006374656420002054696D6573002054699A
:104760006D65732C2052464944204D697373696E00
:104770006720004379636C6520546573742052652B
:1047800073756C747320536F20466172202D205214
:104790004649442044657465637465642000206361
:1047A0006F6D706C657465642C20486F7572732032
:1047B00052656D61696E696E67203D2000206F75DE
:1047C00074206F6620004379636C6520005246496F
:1047D00044204E6F742044657465637465642100E1
:1047E0005E706F7765725F6379636C655F70635F3E
:1047F000726573703A317C737563636573733A24C1
:10480000005E706F7765725F6379636C655F70637C
:104810005F726573703A317C737563636573733A65
:104820002400414C4552543A20506F776572204322
:1048300079636C696E6720504321005E706F776505
:10484000725F6379636C655F726F757465725F72B6
:104850006573703A317C737563636573733A2400D2
:104860005E706F7765725F6379636C655F726F7599
:104870007465725F726573703A317C7375636365DA
:1048800073733A2400414C4552543A20506F776577
:1048900072204379636C696E6720526F757465721C
:1048A00021005E77697065725F72656D6F76656411
:1048B0003A307C3A24005E77697065725F72656D8C
:1048C0006F7665643A307C3A24005E776970657271
:1048D0005F696E7365727465643A307C3A24005E79
:1048E00077697065725F696E7365727465643A307A
:1048F0007C3A24005E64726970747261795F7265DB
:104900006D6F7665643A307C3A24005E647269703B
:10491000747261795F72656D6F7665643A307C3A66
:1049200024005E64726970747261795F696E736588
:10493000727465643A307C3A24005E647269707403
:104940007261795F696E7365727465643A307C3A3E
:10495000240066696E697368656400616C657274D1
:104960000064697370656E73696E6700626F776C5F
:10497000006163746976650069646C65003A2400BF
:104980005E6E61636B3A317C003A24005E6E616357
:104990006B3A317C00706F7765725F6379636C6529
:1049A0005F726F7574657200706F7765725F63799F
:1049B000636C655F7063006379636C655F746573D6
:1049C000745F72666964006379636C655F746573B4
:1049D000745F616C6C006379636C655F746573749C
:1049E0005F6163747561746F7273006379636C6582
:1049F0005F746573745F6361726F7573656C007467
:104A00006573745F7363616C655F6E6F6973650076
:104A1000746573745F6361726F7573656C5F656EE7
:104A2000636F6465727300756E6A616D5F63617256
:104A30006F7573656C006275726E5F696E5F63613E
:104A4000726F7573656C00746573745F6361726F08
:104A50007573656C5F6672696374696F6E007A6501
:104A6000726F5F63656E7465725F656E636F6465B8
:104A700072007365745F726669645F6F76657272E7
:104A80006964650064656372656173655F70616E1A
:104A9000656C5F6272696768746E65737300696ED6
:104AA0006372656173655F70616E656C5F62726988
:104AB0006768746E657373007365745F70616E65AB
:104AC0006C5F6272696768746E65737300686F6D9E
:104AD000655F6361726F7573656C5F737765657031
:104AE000006361726F7573656C5F706F7369746971
:104AF0006F6E006163747561746F725F636F756E62
:104B0000746572636C6F636B77697365006163745E
:104B10007561746F725F636C6F636B776973650047
:104B20006163747561746F725F72657475726E74AF
:104B30006F686F6D6566617374706964006163743A
:104B40007561746F725F72657475726E746F686F81
:104B50006D6566617374007365745F61637475611C
:104B6000746F725F706F736974696F6E00616374E4
:104B70007561746F725F706F736974696F6E0061D5
:104B800063747561746F725F686F6D650063616CEB
:104B90006962726174655F626C61636B5F626F779B
:104BA0006C0063616C6962726174655F77686974D7
:104BB000655F626F776C007365745F626C61636BD5
:104BC0005F626F776C5F64697374616E63650073B5
:104BD00065745F77686974655F626F776C5F64693D
:104BE0007374616E6365007365745F7363616C6594
:104BF0005F63616C6962726174696F6E0073657482
:104C00005F696E697469616C5F6163747561746F0B
:104C1000725F706F736974696F6E00636C65617247
:104C20005F6163747561746F725F706F73697469CB
:104C30006F6E7300313233343536373839303132B4
:104C40003334353637383930313233343536373816
:104C50003930313233343536373839303132333414
:104C60003536373839300063616C6962726174655A
:104C70005F7363616C655F73686966745F7A6572A0
:104C80006F0063616C6962726174655F7363616C0C
:104C9000650076657273696F6E00626F776C5F771F
:104CA000656967687400626F776C5F7374617475AF
:104CB00073007374617475730073797374656D5FD9
:104CC000636865636B00666F726365007363616E32
:104CD0005F616C6C00726573756D650063616E6316
:104CE000656C0072657365745F6361726F7573657F
:104CF0006C007265736574007365745F64656D6FD5
:104D00005F6D6F6465007365745F6861735F726582
:104D10006C6F61645F646F6F725F6C6F636B007365
:104D200065745F626F776C5F617265615F636F6C02
:104D30006F725F7479706500706F7765725F736111
:104D400076655F6D6F64650072657363616E5F6346
:104D5000616E69737465727300706175736500705C
:104D60006F736974696F6E5F63616E697374657286
:104D70005F7265706C616365007363616E5F626131
:104D800072636F646500636162696E65745F7374FA
:104D9000617475730064726970747261795F7374A1
:104DA000617475730077697065725F73746174758F
:104DB00073007269676874646F6F725F7374617493
:104DC0007573006C656674646F6F725F7374617481
:104DD000757300646F6F725F7374617475730063D1
:104DE0006162696E65745F756E6C6F636B006361A1
:104DF00062696E65745F6C6F636B00646F6F725F86
:104E0000756E6C6F636B00646F6F725F6C6F636B5A
:104E10000064697370656E73655F66756C6C5F6363
:104E2000616E0064697370656E73655F74696D654A
:104E3000640064697370656E73655F616C6C0041DA
:104E40006D6F756E745F44697370656E7365643AF7
:104E5000090057656967687420416674657220317E
:104E6000207365633A090057656967687420416675
:104E70007465723A0900576569676874204265660F
:104E80006F72653A09007365745F7374657070655D
:104E9000725F72696768745F706F736974696F6E4F
:104EA00000416D6F756E745F44697370656E7365F4
:104EB000643A0900576569676874204166746572D1
:104EC0002031207365633A0900576569676874206B
:104ED00041667465723A09005765696768742042D3
:104EE00065666F72653A09007365745F7374657007
:104EF0007065725F6C6566745F706F736974696FFB
:104F00006E007365745F737465707065725F72694B
:104F10006768745F7370656564007365745F73744C
:104F200065707065725F6C6566745F7370656564EB
:104F3000007365745F70756D705F73706565640094
:104F400064697370656E73655F646576656C6F70B8
:104F500065720064697370656E73655F7765696714
:104F600068740070696E670064656D6F00706F73C0
:104F70006974696F6E5F63616E69737465720073E3
:104F800065745F7363616C655F6C65647300736502
:104F9000745F6C656473002D2D2D2D2D2D2D2D2D01
:104FA0002D2D2D2D2D00706172616D35203D20005D
:104FB000706172616D34203D2000706172616D33EB
:104FC000203D2000706172616D32203D20007061D3
:104FD00072616D31203D2000706172616D34203D41
:104FE0002000706172616D33203D2000706172613C
:104FF0006D32203D2000706172616D31203D2000D6
:10500000706172616D33203D2000706172616D329C
:10501000203D2000706172616D31203D2000706183
:1050200072616D32203D2000706172616D31203DF2
:105030002000706172616D31203D2000416C6C2058
:1050400074686520646174612076616C7565732095
:105050003D2000496E7465676572204E756D506124
:1050600072616D6574657273203D2000416C6C2027
:10507000506172616D732050617373656420004DDF
:1050800065737361676554797065203D20002A2A35
:105090002A2A2A2A2A2A2A2A2A2A2A2A2A2A2A009A
:1050A0003A24003A24003030303030303030303064
:1050B0000030303030303030303030005E626F776A
:1050C0006C5F706C616365643A357C005E626F771B
:1050D0006C5F706C616365643A357C00436F6C6F24
:1050E000722073656E736F7273206E6F7420696EB9
:1050F0007374616C6C65642C2064656661756C7496
:10510000696E6720746F20524742282D312C2D3153
:105110002C2D3129005E626F776C5F72656D6F7642
:1051200065643A307C3A24005E626F776C5F72652A
:105130006D6F7665643A307C3A24003A24005E63F1
:10514000616E69737465725F696E7374616C6C65AE
:10515000643A327C003A24005E63616E6973746560
:10516000725F696E7374616C6C65643A327C003A8C
:1051700024005E63616E69737465725F72656D6F42
:105180007665643A317C003A24005E63616E69732F
:105190007465725F72656D6F7665643A317C003A52
:1051A0002409003A00095E646973705F70726F676A
:1051B000726573733A327C003A24003A005E646987
:1051C00073705F70726F67726573733A327C0052EE
:1051D000616E67652072656164696E67206F7665D0
:1051E00072666C6F770052616E67652072656164EC
:1051F000696E6720756E646572666C6F77005261C8
:10520000772072656164696E67206F766572666C7F
:105210006F77005261772072656164696E672075EF
:105220006E646572666C6F77005369676E616C2F90
:105230004E6F697365206572726F720049676E6F99
:1052400072696E672072616E6765004E6F20636FD2
:105250006E76657267656E636500454345206661DD
:10526000696C7572650053797374656D206572722F
:105270006F72004162736F6C75746557656967681A
:1052800074206973203C2035302C207468726F774D
:10529000696E6720626F776C5F72656D6F766564AB
:1052A000206576656E742E20204E6F20676F6F64C8
:1052B0002064697374616E63652073656E736F72C9
:1052C0002072656164696E6720617661696C6162F4
:1052D0006C652C20636865636B20666F7220657255
:1052E000726F722062656C6F772E20204162736F3F
:1052F0006C757465576569676874203D20002C20C3
:105300004162736F6C757465576569676874203D99
:105310002000206F72204162736F6C757465576551
:1053200069676874203C2035302C20736F207468C6
:10533000726F77696E6720626F776C5F72656D6FF1
:10534000766564206576656E742E2052616E6765A1
:10535000203D200052616E6765203E20003A240007
:1053600030303030303030303030005246494452E6
:105370006561644661696C436F756E743D31302EB2
:1053800020576F756C642068617665207468726F51
:10539000776E207468697320626F776C5F706C61E0
:1053A000636564206576656E7420657863657074E6
:1053B0002052464944204F766572726964652069BF
:1053C00073206E6F74206F6E2C20736F206469647D
:1053D0006E27743A205E626F776C5F706C616365F4
:1053E000643A357C003A2400303030303030303090
:1053F000303000436865636B205246494420746135
:1054000067732E20576F756C642068617665207411
:1054100068726F776E207468697320626F776C5F53
:10542000706C61636564206576656E742065786371
:105430006570742052464944204F766572726964E3
:1054400065206973206E6F74206F6E2C20736F203F
:105450006469646E27743A205E626F776C5F706C6B
:10546000616365643A357C002C20426F776C506C28
:105470006163656453616D706C65734166746572D8
:1054800052464944203D20002C204162736F6C75C8
:105490007465576569676874203D200052616E67C6
:1054A00065203D20002C20426F776C506C61636555
:1054B0006453616D706C65734265666F72655246C8
:1054C0004944203D20002C204162736F6C75746547
:1054D000576569676874203D200052616E676520DA
:1054E0003D20005E6361726F7573656C5F6A616D0C
:1054F0003A307C3A24005E6361726F7573656C5F4D
:105500006A616D3A307C3A24003A24005E706F7311
:105510006974696F6E5F63616E69737465725F72DF
:105520006573703A327C6661696C7572653A003AEF
:1055300024005E706F736974696F6E5F63616E697A
:10554000737465725F726573703A327C6661696C00
:105550007572653A003A24005E706F736974696F02
:105560006E5F63616E69737465725F726573703AC2
:10557000327C737563636573733A003A24005E701E
:105580006F736974696F6E5F63616E69737465725E
:105590005F726573703A327C737563636573733AD7
:1055A00000706F736974696F6E5F63616E697374A5
:1055B00065720056616C7565207061737365643D3A
:1055C00000496E20706F736974696F6E2063616E3D
:1055D00069737465722066756E6374696F6E2100FD
:1055E0005E646F6F725F6C6F636B5F726573703A4E
:1055F000317C737563636573733A24005E646F6F07
:10560000725F6C6F636B5F726573703A317C737538
:1056100063636573733A2400646F6F725F6C6F63CA
:105620006B004166746572204C6F636B696E672C0A
:105630002052656C6F6164446F6F72556E6C6F635E
:105640006B53656E736550696E3A20004265666FF4
:105650007265204C6F636B696E672C2052656C6FAE
:105660006164446F6F72556E6C6F636B53656E73DC
:105670006550696E3A2000496E20646F6F725F6CEE
:105680006F636B2066756E6374696F6E2100507274
:105690006F64756374494420697320612072656783
:1056A000756C61722064697370656E7365207370C8
:1056B0006565642070726F647563742C20736F204D
:1056C000646F206E6F726D616C2064697370656EBB
:1056D00073652E0050726F6475637449442069735A
:1056E000206120666173742064697370656E7365F0
:1056F0002073706565642070726F647563742C200C
:10570000736F20676F2066617374657220616E64C9
:1057100020646F6E277420736C6F7720646F776ED0
:1057200020617420656E642E0030303239003030D4
:1057300032380030303237003030323600303032DC
:105740003400544F50434849432D364700303130E0
:105750003500434F4C4F52414E43452D355200309A
:1057600031303400544F50434849432D355656008C
:105770003031303300434C4943532D4434305F4281
:105780004F54544C45003031303200434C49435360
:105790002D44305F424F54544C450030313031007D
:1057A000474F4C4457454C4C2D4434300030313039
:1057B0003000474F4C4457454C4C2D44313000305D
:1057C00030393900434F4C4F52414E43452D434CE5
:1057D000454152003030393800434F4C4F52414E12
:1057E00043452D313047003030393700434F4C4F5F
:1057F00052414E43452D3456003030393600434F28
:105800004C4F52414E43452D3752520030303935BE
:1058100000434F4C4F52414E43452D3556560030B4
:1058200030393400434F4C4F52414E43452D3130B7
:1058300056003030393300434F4C4F52414E4345B0
:105840002D313050003030393200434F4C4F5241EF
:105850004E43452D31304253003030393100434FF3
:105860004C4F52414E43452D384341003030393082
:1058700000434F4C4F52414E43452D324100303092
:10588000383900434F4C4F52414E43452D37524F0C
:10589000003030383800434F4C4F52414E43452D75
:1058A000384F52003030383700434F4C4F52414E42
:1058B00043452D384B003030383600434F4C4F5263
:1058C000414E43452D354B003030383500434F4C69
:1058D0004F52414E43452D38470030303834004355
:1058E0004F4C4F52414E43452D35420030303833F6
:1058F00000434F4C4F52414E43452D34470030300A
:10590000383200434F4C4F52414E43452D384E4E96
:10591000003030383100434F4C4F52414E43452DFB
:10592000344E4E003030383000434F4C4F52414ED1
:1059300043452D31304E003030373900434F4C4F06
:1059400052414E43452D384E003030373800434FDA
:105950004C4F52414E43452D364E003030373700C4
:10596000434F4C4F52414E43452D344E003030375B
:105970003600434F4C4F52414E43452D324E00307E
:1059800030373500544F50434849432D434C45412F
:1059900052003030373400544F50434849432D4271
:1059A0004C4F4E44494E47003030373300544F502F
:1059B000434849432D31314E003030373200544F87
:1059C00050434849432D375252003030373100544C
:1059D0004F50434849432D35525200303037300044
:1059E000544F50434849432D374B0030303639002F
:1059F000544F50434849432D394E4E0030303638CD
:105A000000544F50434849432D374E4E00303036F6
:105A10003600544F50434849432D354E4E003030E8
:105A2000363400544F50434849432D334E4E0030D6
:105A300030363200474F4C4457454C4C2D4153486B
:105A4000003030353800474F4C4457454C4C2D31D1
:105A50003147003030353700474F4C4457454C4CA8
:105A60002D384341003030353600474F4C445745C0
:105A70004C4C2D3552003030353500544F50434892
:105A800049432D354B003030353400544F50434896
:105A900049432D52525F4D4958003030353300474D
:105AA0004F4C4457454C4C2D565600303035320043
:105AB000544F50434849432D47475F4D49580030A4
:105AC00030353100544F50434849432D4B4B5F4DC7
:105AD0004958003030353000544F50434849432D29
