:100000000C94524A0C9461780C9436780C940B78CA
:100010000C94E0770C94B5770C948A770C945F7706
:100020000C9434770C945FC30C94C5760C944F7683
:100030000C94834A0C94AB510C94834A0C94834ADD
:100040000C94834A0C94834A0C94834A0C94834AFC
:100050000C94834A0C9428700C94834A0C944DBEE3
:100060000C94834A0C9495BB0C946BBB0C94834A00
:100070000C94834A0C94834A0C94834A0C94834ACC
:100080000C94834A0C94834A0C94834A0C94834ABC
:100090000C9441BB0C9417BB0C94834A0C943BC248
:1000A0000C94834A0C94834A0C94834A0C94834A9C
:1000B0000C94834A0C94834A0C94834A0C94834A8C
:1000C0000C94834A0C94834A0C94834A0C94EDBAA2
:1000D0000C94C3BA0C94834A0C9499BA0C946FBADA
:1000E0000C94834A08000000BE922449123EABAA39
:1000F000AA2ABECDCCCC4C3E00000080BEABAAAA42
:10010000AA3E00000000BF000000803F0000000089
:1001100000084178D3BB4387D1133D190E3CC3BDC2
:100120004282AD2B3E68EC8276BED98FE1A93E4C6F
:1001300080EFFFBE01C4FF7F3F00000000000C9471
:1001400006B50C949DB10C94D4B10C9466B10D9489
:1001500089300C9462B10C942BB00D9481300C94C6
:100160008FBD0C9427B30C94D8B10C94E4BD0C94BF
:1001700089B10C9485BD0C940DB60C9457BD0C94AC
:1001800075BD0C944ABD0C9477B10C94C1B50C9418
:10019000ECB20C94A4B20C94D6B20C9419B30C9497
:1001A000D2B10C94E6AF0C948FB10D9492300C94B4
:1001B00052BD0C9471B10C9499BD0C94DABD0C94A1
:1001C000ACB00C94D0BD0C943AB00C944DB50C94DA
:1001D000CCB10C9483B20C947DBD0C94A1B10C9461
:1001E000D9B40C942EB30C94B0B40C94BFB40D9449
:1001F00087300D94FD370C9428700C94D2B40C9475
:10020000D6B10C9497B10D9485300C947BB10C94BD
:100210000BB30C94D0B10C94E4AF0C9403B30C94D6
:1002200035B50C9412B30C9461BD0C94A84B0C948E
:100230006EB10C94AFB40C9435B30C94BCBD0C945B
:100240005C4B0C943E4B0C9416BC0D94952E0C9468
:1002500081B10D94162D0C947DC00C945BB00C9460
:10026000B2BD0C946BBD0C94C6BD0C944FB20C94F3
:1002700020B30C94AEBC0C94CEB10C947A4B0C947D
:10028000CAB10C94E3AF0D9483300C9493B10C94E9
:1002900085B10C94E2B50C949CB10C942EB20C94E4
:1002A000F9B00C94A9B50C94A3BD0C94A5B10C9411
:1002B000E2BC0D948B300C946AB10C945CB10C943C
:1002C0004DB04E414E494E495459494E46CDCCCC85
:1002D0003D0AD7233C17B7D13877CC2B329595E61A
:1002E000241FB14F0A000020410000C84200401CFA
:1002F0004620BCBE4CCA1B0E5AAEC59D7452464920
:100300004453656E736F72476F6F64203D200044E5
:10031000697374616E636553656E736F72476F6F57
:1003200064203D20004C6F616443656C6C53656EC6
:10033000736F72476F6F64203D2000416374756175
:10034000746F72486F6D696E67476F6F64203D20F0
:10035000004163747561746F724F75746572557086
:100360004F70746F476F6F64203D20004163747558
:1003700061746F72496E6E657255704F70746F471D
:100380006F6F64203D20004163747561746F724D1E
:100390006F746F72456E636F646572476F6F642030
:1003A0003D20004163747561746F724D6F746F729C
:1003B000476F6F64203D20004361726F7573656CF9
:1003C000486F6D696E67476F6F64203D2000436121
:1003D000726F7573656C43656E746572456E636F9D
:1003E000646572476F6F64203D20004361726F75D2
:1003F00073656C4D6F746F72456E636F64657247A1
:100400006F6F64203D20004361726F7573656C4DA2
:100410006F746F72476F6F64203D20004361726F8D
:100420007573656C486F6D654F70746F476F6F645F
:10043000203D2000526967687450756D7053657275
:1004400069616C4E756D6265725B5D203D20005286
:100450006967687450756D7053657269616C4E752B
:100460006D6265724861734265656E44697370655B
:100470006E736564203D20004C65667450756D7028
:1004800053657269616C4E756D6265725B5D203D8E
:1004900020004C65667450756D7053657269616CAF
:1004A0004E756D6265724861734265656E4469732D
:1004B00070656E736564203D20004F7665727269C9
:1004C00064655246494449664974446F65736E7465
:1004D0005265616450726F7065726C79203D2000C6
:1004E000675369646550616E656C427269676874D0
:1004F0006E657373203D20005369646550616E65BD
:100500006C4272696768746E657373203D200048A1
:10051000617352656C6F6164446F6F724C6F636B93
:10052000203D20004973426C61636B426F776C41E0
:10053000726561203D20002C20436F756E74203D54
:10054000200041766572616765206F66206E6F6E70
:100550002D7A65726F20496E697469616C416374AC
:100560007561746F72506F736974696F6E73203D3B
:1005700020005D203D200053657269616C4E756DF1
:10058000626572735B005D203D2000536572696196
:100590006C4E756D6265724861734265656E446943
:1005A0007370656E7365645B005D203D2000496E6D
:1005B000697469616C4163747561746F72506F73B3
:1005C0006974696F6E735B00496E697469616C412F
:1005D00063747561746F72506F736974696F6E20A4
:1005E0003D20005363616C655F43616C69627261B9
:1005F00074696F6E5F576569676874203D200053AA
:1006000063616C655F43616C6962726174696F6E8E
:100610005F32303067203D20005363616C655F437B
:10062000616C6962726174696F6E5F5A65726F2086
:100630003D20005363616C655F43616C6962726168
:1006400074696F6E203D200046575F4255494C4407
:10065000203D200044697370656E7365725F4D6F55
:1006600064656C5F4D696E6F72203D200044697354
:1006700070656E7365725F4D6F64656C5F4D616A26
:100680006F72203D200044697370656E7365725F00
:1006900053657269616C203D200045455050524FB2
:1006A0004D5F56455253494F4E203D2000476574DB
:1006B000414D54323033456E636F646572506F73D1
:1006C0006974696F6E20414D5432303363757272B4
:1006D000656E74506F736974696F6E3A2000526171
:1006E0007720414D5432303363757272656E7450A9
:1006F0006F736974696F6E3A200052657365742078
:1007000041726475696E6F20746F207265737461D5
:1007100072742070726F6772616D2E004572726F15
:1007200072206F627461696E696E6720706F7369A1
:1007300074696F6E2E00446F6E65207A65726F6902
:100740006E6720656E636F6465722C2043757272EC
:10075000656E7420706F736974696F6E3A20005211
:10076000657365742041726475696E6F20746F20C3
:10077000726573746172742070726F6772616D2E2E
:10078000004572726F72206F627461696E696E6784
:1007900020706F736974696F6E2E00342E2E2E00D8
:1007A000332E2E2E00322E2E2E00312E2E2E0047CE
:1007B0006F696E6720746F207A65726F2074686548
:1007C00020414D5432303320656E636F6465722072
:1007D0006E6F772E2E2E206D6179206E65656420F8
:1007E000746F20706F776572206379636C65206128
:1007F0006674657220746869732E00436F72726547
:100800006374656420414D5432323220456E636F0B
:100810006465723A2000414D5432323220456E6395
:100820006F6465723A2000414D5432323220726555
:100830006164206572726F722E20417474656D70F0
:1008400074733A2000446F6E65207A65726F696E2A
:100850006720656E636F6465722C204375727265E4
:100860006E7420706F736974696F6E3A2000476F01
:10087000696E6720746F207A65726F2074686520D6
:10088000414D5432323220656E636F646572206E62
:100890006F772E2E2E00456E64696E67204163745B
:1008A0007561746F7220506F736974696F6E203D4B
:1008B00020005374617274696E67204163747561BE
:1008C000746F7220506F736974696F6E203D2000E1
:1008D000486F6D654163747561746F7220776173E1
:1008E000207375636365737366756C212020426F96
:1008F0007468206163747561746F727320656E64CF
:1009000065642075702E00414C4552543A20486F62
:100910006D654163747561746F7220776173204EE9
:100920004F54207375636365737366756C2C204137
:1009300063747561746F7220456E636F64657220B5
:1009400052616E6765203C2032207768656E2073A7
:10095000686F756C64206265207E3230302D3330D4
:1009600030002C204163747561746F724F7574652B
:100970007255704F70746F203D2000414C455254A9
:100980003A20486F6D654163747561746F722077AA
:100990006173204E4F54207375636365737366757E
:1009A0006C2C206265636175736520616374756189
:1009B000746F727320617265206E6F7420626F7441
:1009C000682075702E20204163747561746F7249C0
:1009D0006E6E657255704F70746F203D20005375B8
:1009E000626F7074696D616C206F7269656E74619D
:1009F00074696F6E2C207265636F6D6D656E642017
:100A0000666C6970206163747561746F722031382F
:100A100030206465677265657320736F2074686148
:100A200074206D617820746F727175652069732010
:100A30006F6E206F7574657220736C6F74732073A2
:100A4000696E6365207468657927726520757365C2
:100A500064206D6F7265206F6674656E2E00476F3F
:100A60006F64206F7269656E746174696F6E2C209B
:100A70006D617820746F72717565206F6E206F756F
:100A800074657220736C6F74732073696E63652074
:100A9000746865792772652075736564206D6F725F
:100AA00065206F6674656E2E002C2041637475613D
:100AB000746F72446972656374696F6E496E6E65B6
:100AC00072446F776E4F757465725570203D2000CB
:100AD000456E64206F6620486F6D696E67204163C4
:100AE000747561746F722C20456E636F646572203B
:100AF0003D200046696E616C204163747561746FBE
:100B00007220706F736974696F6E206166746572AC
:100B100020686F6D6520746F20302069732000435A
:100B20006F6E6669726D696E67206E657720706F93
:100B3000736974696F6E20697320002C20736F20B5
:100B40006E657720706F736974696F6E20697320AA
:100B5000002C20736F2074616B65207468652064BD
:100B60006966666572656E636520696E207A657276
:100B70006F20706F696E747320616E642061646AA7
:100B800075737420697420627920004375727265F0
:100B90006E746C7920617420002C20736F20736553
:100BA00074207A65726F20706F696E74206265744C
:100BB0007765656E207468652074776F2C2061748A
:100BC000200020746F20004163747561746F72207F
:100BD000456E636F6465722072616E67652069732C
:100BE00020004163747561746F7220456E636F6499
:100BF00065722052616E6765203C203220776865FF
:100C00006E2073686F756C64206265207E323030B0
:100C10002D3330302E20436865636B20416374753B
:100C200061746F7220456E636F64657220576972DC
:100C300065732028342070696E20636F6E6E656363
:100C4000746F72292E202049662061637475617467
:100C50006F727320646964206E6F74206D6F7665A7
:100C60002C20636865636B206163747561746F72B7
:100C7000206D6F746F72207769726573202832203F
:100C800070696E20636F6E6E6563746F72292E00DB
:100C9000414C4552543A20426F7468206163747528
:100CA00061746F72206F70746F732072656164205D
:100CB000646F776E202D20746869732069732061DA
:100CC0006E206572726F7220636173652E202047FB
:100CD0006F696E6720746F2073746F7020616E642B
:100CE0002072657475726E206661696C757265201C
:100CF0006F6E20486F6D654163747561746F72210A
:100D0000005374616C6C6564206D6F72652074684B
:100D1000616E2035302074696D65732C20657869AB
:100D200074696E672074686973206C6F6F702E0031
:100D30005374616C6C656421204E65656420746F2A
:100D400020676F20696E206F746865722064697215
:100D5000656374696F6E206E6F772C20616E6420FE
:100D600072657665727365206C6F6769632E004FDC
:100D7000757465722075702C20696E6E65722064C2
:100D80006F776E202D20736F206D6F766520696EF2
:100D90006E657220757020666972737420746F209E
:100DA0006D616B65206F7574657220676F20646F6D
:100DB000776E00095573696E672072657665727388
:100DC0006564206C6F6769632C2077616974656462
:100DD00020666F7220496E6E657220746F20676F97
:100DE00020646F776E20686572652073696E636535
:100DF000206F757465722077656E7420646F776EEE
:100E000020696E2070726576696F7573206C6F6FE4
:100E1000702E005374616C6C6564206D6F72652078
:100E20007468616E2035302074696D65732C20659F
:100E3000786974696E672074686973206C6F6F706D
:100E40002E005374616C6C656421204E65656420CE
:100E5000746F20676F20696E206F746865722064FC
:100E60006972656374696F6E206E6F772C20616E96
:100E7000642072657665727365206C6F6769632E96
:100E800000094F757465722077656E7420646F7702
:100E90006E207768656E20657870656374696E672B
:100EA00020696E6E65722E202052657665727369B8
:100EB0006E67206C6F6769632E0009496E6E6572FC
:100EC00020646F776E2C2073746F7070696E67206A
:100ED0006669727374206C6F6F7000416374756122
:100EE000746F724F7574657255704F70746F2069AE
:100EF0007320646F776E20616C72656164792E2057
:100F0000204D6F76696E6720697420757020616E60
:100F10006420496E6E657220646F776E2E00426F9A
:100F20007468206172652075702C20636F756C6425
:100F300020676F20656974686572206469726563F3
:100F400074696F6E2E202043686F6F73696E67201F
:100F5000496E6E657220446F776E2E002C204163BF
:100F6000747561746F72446972656374696F6E49F8
:100F70006E6E6572446F776E4F7574657255702032
:100F80003D20005374617274206F6620486F6D6954
:100F90006E67204163747561746F722C20456E63B7
:100FA0006F646572203D200046696E616C20524777
:100FB00042204F75743A09005269676874436F6C38
:100FC0006F7250756C7365496E3A09004C656674B2
:100FD000436F6C6F7250756C7365496E3A090046C9
:100FE00061696C656420746F2067657420337820B4
:100FF00064697374616E63652072656164696E67AC
:101000007320696E2052656164436F6C6F72536523
:101010006E736F72732C20617373756D696E6720C8
:1010200063656E74657265642E000941766752616E
:101030006E67653A09000952616E6765333A0900C7
:101040000952616E6765323A090052616E67653117
:101050003A0900446F2066756C6C20574849544526
:101060002072656164696E6700446F20616D62691A
:10107000656E74206C696768742072656164696E5E
:10108000672077697468204E656F506978656C7366
:10109000204F464600436F6C6F722073656E736F0E
:1010A0007273206E6F7420696E7374616C6C65640A
:1010B0002C2064656661756C74696E6720746F209E
:1010C000524742282D312C2D312C2D3129000A4C2C
:1010D0006F61642043656C6C2053616D706C696E48
:1010E00067206661696C7572652C20526561646960
:1010F0006E6773206E6F742077697468696E20372D
:10110000352E30206772616D7320696E20302E316C
:10111000207365632E2053616D706C6573202831D8
:101120003078204144432076616C75657320666990
:101130007273742C207468656E2031307820696E6B
:10114000206772616D73293A0900094E6577205353
:10115000616D706C65733A09000A54776F204261C3
:10116000642053616D706C65732C20676F696E67C6
:1011700020746F207265706C616365207769746894
:101180002032206E65772073616D706C65733A094B
:10119000000A54776F204261642053616D706C6562
:1011A00073206661696C7572652C20676F696E6764
:1011B00020746F207265706C616365207769746854
:1011C0002032206E65772073616D706C65733A090B
:1011D000002A2A2A4641494C45442A2A2A002A2A1A
:1011E0002A5041535345442A2A2A005461726765A4
:1011F00074206973206C657373207468616E20308D
:101200002E312067202F20313030206D672C207345
:101210006F2074686973207465737420004176656B
:101220007261676520446966666572656E636520F4
:10123000286D67293A200041766572616765204410
:101240006966666572656E6365202867293A2000C5
:1012500041766572616765205765696768743A20F1
:10126000004D6561737572696E67206C6F616420F3
:1012700063656C6C206E6F6973652C203230302092
:1012800073616D706C65732C2073616D706C657328
:10129000207065722072656164696E67203D200070
:1012A00009616C69676E6D656E7409000947657444
:1012B0004F7574657252656C6F6164536C6F74091D
:1012C00000436865636B696E67204F757465725281
:1012D000656C6F61644973416C69676E6564282948
:1012E0003A204765744F7574657252656C6F61641E
:1012F000536C6F744173466C6F6174090009616CC3
:1013000069676E6D656E74090009476574496E6E94
:10131000657252656C6F6164536C6F740900436849
:1013200065636B696E6720496E6E657252656C6F9E
:1013300061644973416C69676E656428293A204786
:101340006574496E6E657252656C6F6164536C6F43
:10135000744173466C6F6174090009496E6E657261
:10136000536C6F745F48696768203D2009004F75B2
:10137000746572536C6F745F48696768203D20091B
:101380000009496E6E6572536C6F745F4C6F772005
:101390003D2009004F75746572536C6F745F4C6F1C
:1013A00077203D20090009496E6E6572536C6F7499
:1013B000203D2009004F75746572536C6F74203D99
:1013C00020090009446F6F724F70656E6564456E49
:1013D000636F64657253746570706572506F735F8C
:1013E0004C6F77203D20090009446F6F724F706584
:1013F0006E6564456E636F64657253746570706585
:1014000072506F735F48696768203D200900446F20
:101410006F724F70656E6564456E636F646572537D
:10142000746570706572506F73203D20090009412A
:1014300063747561746F724F7574657255704F7017
:10144000746F203D200900094163747561746F72E7
:10145000496E6E657255704F70746F203D200900A3
:10146000094361726F7573656C486F6D65203D202F
:101470000900094163747561746F72506F73203D88
:1014800020090009414D54323232506F736974693A
:101490006F6E090009414D54323033506F736974D7
:1014A000696F6E0900094361726F7573656C4472F0
:1014B00069766572506F736974696F6E0900436174
:1014C000726F7573656C456E636F646572506F7390
:1014D0006974696F6E0900484F4D494E4720444971
:1014E00044204E4F5420574F524B2050524F50459E
:1014F000524C59212020574520415245204E4F54EF
:101500002041542054484520484F4D454341524FB7
:101510005553454C204F50544F204255542053486A
:101520004F554C4420424521204F72207765206E54
:1015300065766572206D6F766564206F6666206FD4
:10154000662069742070726F7065726C792E204FFE
:1015500072206D6F746F7220656E636F64657220A8
:101560006F722063656E74657220656E636F64656B
:1015700072206973206261642E20536565206D6559
:101580007373616765732061626F76652E00486FC3
:101590006D654361726F7573656C207365717565F8
:1015A0006E6365207375636365737366756C2E0077
:1015B000094163747561746F724F7574657255700B
:1015C0004F70746F203D2009000941637475617488
:1015D0006F72496E6E657255704F70746F203D204A
:1015E0000900094361726F7573656C486F6D652002
:1015F0003D20090009616363656C53746570706513
:10160000722E63757272656E74506F736974696F50
:101610006E2829203D200900537465707065725052
:101620006F7330203D20090053746570706572201F
:101630006D6F746F72206E6F7420706F7765726556
:1016400064206F72206E6F74206D6F76696E6720F4
:101650002D20636C6F73652072656C6F616420640C
:101660006F6F7220616E64207472792061676169A6
:101670006E2E0009486F6D654361726F7573656CFE
:10168000456E636F646572506F736974696F6E2025
:101690003D20090009486F6D654361726F75736580
:1016A0006C53746570706572506F736974696F6E96
:1016B000203D200900096669727374486F6D6543A7
:1016C00061726F7573656C456E636F646572506FA0
:1016D000736974696F6E203D2009006669727374C6
:1016E000486F6D654361726F7573656C5374657097
:1016F000706572506F736974696F6E203D200900C8
:1017000043656E7465724D6F746F72456E636F647E
:101710006572206973206261642C2069742073688B
:101720006F756C642068617665206D6F76656420E6
:101730003533206F72203733202831302D3930294E
:101740002062757420696E7374656164206D6F76B4
:1017500065642043656E746572456E636F6465727F
:10176000446966666572656E6365203D200043616D
:10177000726F7573656C4D6F746F72456E636F64D5
:101780006572206973206261642C2069742073681B
:101790006F756C642068617665206D6F7665642076
:1017A0003735202836352D38352920627574206963
:1017B0006E7374656164206D6F7665642043617239
:1017C0006F7573656C456E636F64657244696666B8
:1017D0006572656E6365203D20000943656E746522
:1017E00072456E636F646572446966666572656EA4
:1017F0006365203D200900094361726F7573656C54
:10180000456E636F646572446966666572656E6392
:1018100065203D200900094F6666486F6D65436588
:101820006E746572456E636F646572506F73697430
:10183000696F6E203D200900094F6666486F6D652F
:101840004361726F7573656C456E636F646572504A
:101850006F736974696F6E203D200900094F6666D9
:10186000486F6D6553746570706572506F736974FD
:10187000696F6E203D200900096669727374486FB4
:101880006D6543656E746572456E636F6465725015
:101890006F736974696F6E203D2009000966697273
:1018A0007374486F6D654361726F7573656C456ED7
:1018B000636F646572506F736974696F6E203D2049
:1018C0000900436865636B696E6720656E636F64CA
:1018D0006572733A206669727374486F6D6543610F
:1018E000726F7573656C53746570706572506F7349
:1018F0006974696F6E203D2009005374616C6C69D6
:101900006E672064657465637465642C2064696423
:101910006E2774206D6F7665206174206C6561732D
:10192000742032303020656E636F64657220636F9F
:10193000756E747320696E2031207365632E0054B8
:101940006F6F206D616E7920476F546F506F7369B0
:1019500074696F6E2072657472696573202D2065DD
:1019600072726F72696E67206F7574207769746820
:10197000206D69736D617463682062657477656555
:101980006E20414D5431303220616E6420414D54FF
:101990003230332F414D54323232206F72206A750B
:1019A0007374206469646E27742067657420746F93
:1019B000207461726765742E20476F546F506F7387
:1019C0006974696F6E204661696C7572652E00528C
:1019D00065686F6D696E67207375636365737366A1
:1019E000756C2C20676F696E6720746F2074727934
:1019F0002074686520476F546F506F736974696F06
:101A00006E20616761696E2E005265686F6D696E48
:101A100067206661696C65642C20676976696E670A
:101A2000207570206F6E20746865206361726F7519
:101A300073656C206D6F76656D656E742E00436501
:101A40006E74657220656E636F646572206D697374
:101A50006D617463682C20676F696E6720746F20F6
:101A60007265686F6D6520746865206361726F755B
:101A700073656C20616E642074727920616761699E
:101A80006E0020616E642061637475616C206F6606
:101A900020005265747279696E67207468652063EE
:101AA00061726F7573656C206D6F76656D656E74B0
:101AB0002064756520746F2063656E74657220659F
:101AC0006E636F646572206D69736D617463682005
:101AD0002D20736C697070696E672063656E746524
:101AE0007220656E636F6465722E204C696D697437
:101AF000206F6620005265747279696E6720746881
:101B000065206361726F7573656C206D6F76656DAE
:101B1000656E742064756520746F207374657070D1
:101B20006572206D6F746F7220656E636F6465728D
:101B3000206D69736D61746368202D206C696B651D
:101B40006C79207374616C6C6564206D6F746F7256
:101B50002C20746F6F2068656176792C20746F6F0C
:101B6000206D756368206672696374696F6E2C20DE
:101B70006F7220626164206D6F746F72206D6F757B
:101B80006E7420616C69676E6D656E742F73707210
:101B9000696E672E204C696D6974206F6620323043
:101BA00020616E642061637475616C206F66200033
:101BB000414D5432323220456E636F64657220505D
:101BC0006F736974696F6E204572726F72206F66F1
:101BD000200054617267657420414D5432323220C6
:101BE000456E636F64657220506F736974696F6EC0
:101BF000206F66200043757272656E7420414D54EB
:101C000032323220456E636F64657220506F7369A3
:101C100074696F6E206F662000414D54323033205E
:101C2000456E636F64657220506F736974696F6E7F
:101C3000204572726F72206F662000546172676572
:101C40007420414D5432303320456E636F646572A9
:101C500020506F736974696F6E206F662000437542
:101C60007272656E7420414D5432303320456E637C
:101C70006F64657220506F736974696F6E206F6650
:101C800020005374657070657220456E636F6465E3
:101C90007220506F736974696F6E204572726F7233
:101CA000206F66200043757272656E7420537465F0
:101CB0007070657220456E636F64657220506F733B
:101CC0006974696F6E206F6620005374657070656B
:101CD000722044726976657220506F736974696FFF
:101CE0006E204572726F72206F66200043757272AB
:101CF000656E7420537465707065722044726976E5
:101D0000657220506F736974696F6E206F66200072
:101D10004361726F7573656C206D6F76656D656E6E
:101D200074206661696C6564202D2073746F707017
:101D3000696E672E2020456974686572206E6F2079
:101D40006D6F76656D656E7420617420616C6C20BA
:101D5000283C352073746570732073696E63652049
:101D60006C61737420353030206D736563292C20CD
:101D70006F7220706F736974696F6E206465766925
:101D80006174696F6E2066726F6D20776865726529
:101D90002073686F756C64206265207673207768A5
:101DA00065726520617265206261736564206F6E83
:101DB00020656E636F6465722E0046696E616C20EB
:101DC00052657472792023342C206C6F77657269A8
:101DD0006E6720616363656C65726174696F6E2004
:101DE000616E642072616973696E67206D6F7665DC
:101DF0002063757272656E742E005265747279205C
:101E000023332C206C6F776572696E672061636382
:101E1000656C65726174696F6E20616E64207261B9
:101E20006973696E67206D6F766520637572726580
:101E30006E742E0052657472792023322C206C6FE0
:101E4000776572696E6720616363656C6572617442
:101E5000696F6E20616E642072616973696E6720BC
:101E60006D6F76652063757272656E742E005265B3
:101E70007472792023312C206C6F776572696E67DC
:101E800020616363656C65726174696F6E20616E59
:101E9000642072616973696E67206D6F7665206377
:101EA000757272656E742E002E2044697374616EB3
:101EB000636546726F6D546172676574203D2000E2
:101EC000292043616C6C65642C2043757272656EC9
:101ED0007420506F736974696F6E203D2000476FE6
:101EE000546F506F736974696F6E456E636F64658C
:101EF0007228002E2044697374616E636546726FA8
:101F00006D546172676574203D2000292043616C27
:101F10006C65642C2043757272656E7420506F730B
:101F20006974696F6E203D2000476F546F506F7366
:101F30006974696F6E280044697374616E636546E5
:101F4000726F6D5461726765744D696E7573203D73
:101F500020090044697374616E636546726F6D5445
:101F60006172676574506C7573203D200900446987
:101F70007374616E636546726F6D546172676574E8
:101F8000203D20090043757272656E74506F73694D
:101F900074696F6E203D200900546172676574504A
:101FA0006F736974696F6E203D20090054727969FE
:101FB0006E6720746F20486F6D654361726F757333
:101FC000656C2C2073696E63652069742068617389
:101FD0006E2774207375636365737366756C6C79B3
:101FE00020686F6D6564207965742E00496E766196
:101FF0006C696420736C6F74206E756D62657220FD
:10200000666F7220353020736C6F74206469737052
:10201000656E7365723A20536C6F742000496E765A
:10202000616C696420736C6F74206E756D6265728B
:1020300020666F7220353020736C6F742064697372
:1020400070656E73657200656E636F64657253745C
:102050006570706572506F73206F7574206F6620A5
:1020600072616E6765202D2073657474696E6720D8
:102070006E657720656E636F64657253746570700A
:102080006572506F73206F66200043757272656EC3
:1020900074506F736974696F6E206F7574206F660A
:1020A0002072616E6765202D2073657474696E6798
:1020B000206E65772043757272656E7420506F7361
:1020C0006974696F6E206F662000656E636F64656A
:1020D0007253746570706572506F73206F757420E1
:1020E0006F662072616E6765202D20736574746958
:1020F0006E67206E657720656E636F6465725374DA
:102100006570706572506F73206F66200043757242
:1021100072656E74506F736974696F6E206F757439
:10212000206F662072616E6765202D207365747460
:10213000696E67206E65772043757272656E7420D4
:10214000506F736974696F6E206F6620004361720F
:102150006F7573656C206D6F76656D656E74206646
:1021600061696C65642E2020536C697070696E67BC
:102170002063757272656E74207761732000414D23
:102180005432323220456E636F64657220506F7333
:102190006974696F6E204572726F72206F662000DD
:1021A00054617267657420414D5432323220456E5D
:1021B000636F64657220506F736974696F6E206F0E
:1021C00066200043757272656E7420414D54323240
:1021D0003220456E636F64657220506F7369746955
:1021E0006F6E206F662000414D5432303320456EB3
:1021F000636F64657220506F736974696F6E2045F8
:1022000072726F72206F662000546172676574206D
:10221000414D5432303320456E636F6465722050F7
:102220006F736974696F6E206F66200043757272F8
:10223000656E7420414D5432303320456E636F64B7
:10224000657220506F736974696F6E206F6620002D
:102250005374657070657220456E636F646572209B
:10226000506F736974696F6E204572726F72206F60
:1022700066200043757272656E74205374657070C9
:10228000657220456E636F64657220506F73697468
:10229000696F6E206F6620005374657070657220E0
:1022A00044726976657220506F736974696F6E202D
:1022B0004572726F72206F66200043757272656E90
:1022C000742053746570706572204472697665720B
:1022D00020506F736974696F6E206F6620004361D0
:1022E000726F7573656C206D6F76656D656E7420A9
:1022F0006661696C65642C206D7573742068617605
:1023000065207374616C6C65642E20204D6F76655A
:102310002043757272656E742074686174206974EC
:10232000206661696C6564206174207761732000A8
:102330002E2044697374616E636546726F6D5461DB
:1023400072676574203D2000292043616C6C6564D0
:102350002C2043757272656E7420506F73697469B6
:102360006F6E203D2000476F546F506F7369746922
:102370006F6E456E636F64657228002E204469732A
:1023800074616E636546726F6D5461726765742027
:102390003D2000292043616C6C65642C20437572DC
:1023A00072656E7420506F736974696F6E203D2082
:1023B00000476F546F506F736974696F6E280044E3
:1023C000697374616E636546726F6D54617267659F
:1023D000744D696E7573203D200900446973746102
:1023E0006E636546726F6D546172676574506C758B
:1023F00073203D20090044697374616E6365467201
:102400006F6D546172676574203D200900437572D9
:1024100072656E74506F736974696F6E203D200928
:1024200000546172676574506F736974696F6E20D0
:102430003D200900416D6F756E745F44697370656E
:102440006E7365643A090057656967687420416670
:102450007465722031207365633A090057656967B6
:1024600068742041667465723A0900446F6E6500B5
:10247000526576657273696E67005765696768743F
:10248000204265666F72653A09005E6C6566746429
:102490006F6F725F6F70656E65643A307C3A2400CE
:1024A0005E6C656674646F6F725F6F70656E656495
:1024B0003A307C3A24005E6C656674646F6F725FBC
:1024C000636C6F7365643A307C3A24005E6C6566B9
:1024D00074646F6F725F636C6F7365643A307C3ADB
:1024E00024005E7269676874646F6F725F6F7065F5
:1024F0006E65643A307C3A24005E72696768746481
:102500006F6F725F6F70656E65643A307C3A24005D
:102510005E7269676874646F6F725F636C6F736516
:10252000643A307C3A24005E7269676874646F6F45
:10253000725F636C6F7365643A307C3A2400524674
:1025400049442072617720646174613A20005246E8
:1025500049442063617264206E756D6265723A2031
:10256000002C20466F756E64203D20005246494481
:102570004C6F6F702000436865636B696E67205213
:102580004649442053656E736F723A00206F66208F
:10259000000A0A4379636C6520005E646F6F725FA6
:1025A0006F70656E65643A307C3A24005E646F6FCC
:1025B000725F6F70656E65643A307C3A24005E64C9
:1025C0006F6F725F636C6F7365643A307C3A24009E
:1025D0005E646F6F725F636C6F7365643A307C3AF0
:1025E000240052657363616E204C6566746F766576
:1025F00072203D200052657363616E2057726170D6
:10260000203D200052657363616E204C6566746FD7
:10261000766572203D200052657363616E204E6FB7
:102620002057726170203D200052657363616E20F7
:102630004C6566746F766572203D20005265736349
:10264000616E2057726170203D2000526573636196
:102650006E204C6566746F766572203D2000526571
:102660007363616E204E6F2057726170203D2000B1
:1026700052657363616E20416C6C203D20005E707A
:10268000617573653A005E72657365743A005E63E6
:10269000616E63656C3A005E70617573653A005EE9
:1026A00072657365743A005E63616E63656C3A00CF
:1026B0003A24005E6F7665723A317C003A24005EFF
:1026C0006F7665723A317C003A24005E6D697373EF
:1026D0003A317C003A24005E6D6973733A317C00B4
:1026E0003A24005E7365745F7363616C655F6C654B
:1026F00064735F726573703A327C7375636365737C
:10270000733A003A24005E7365745F7363616C65AD
:102710005F6C6564735F726573703A327C73756366
:10272000636573733A007365745F7363616C655FAF
:102730006C656473006F66660066696E69736865D0
:102740006400616C6572740064697370656E7369AE
:102750006E67006469737000626F776C0061637408
:102760006976650069646C650056616C75652070FA
:1027700061737365643D00496E207365745F7363B4
:10278000616C655F6C65647321003A24005E64656A
:102790006D6F5F726573703A327C737563636573D6
:1027A000733A003A24005E64656D6F5F7265737002
:1027B0003A327C737563636573733A0064656D6F59
:1027C0000056616C7565207061737365643D0049E6
:1027D0006E2064656D6F2066756E6374696F6E211F
:1027E000005E70696E673A307C3A24005E70696EF4
:1027F000673A307C3A2400416D6F756E745F4469AE
:102800007370656E7365643A09005765696768742B
:102810002041667465722031207365633A09005760
:1028200065696768742041667465723A0900446F8F
:102830006E6500526576657273696E6700576569EB
:10284000676874204265666F72653A090053746563
:10285000707065722050756D702044726976657273
:1028600020506F736974696F6E204572726F7220A9
:102870006F66200043757272656E742050756D70BE
:102880002053746570706572204472697665722099
:10289000506F736974696F6E206F6620002E20443C
:1028A000697374616E636546726F6D5461726765BA
:1028B00074203D2000292043616C6C65642C20430A
:1028C000757272656E7420506F736974696F6E20D3
:1028D0003D2000476F546F506F736974696F6E28A5
:1028E00000537465707065722050756D702044726D
:1028F0006976657220506F736974696F6E204572D6
:10290000726F72206F66200043757272656E74205C
:1029100050756D70205374657070657220447269D3
:1029200076657220506F736974696F6E206F6620D0
:10293000002E2044697374616E636546726F6D5436
:102940006172676574203D2000292043616C6C65CD
:10295000642C2043757272656E7420506F736974B5
:10296000696F6E203D2000476F546F506F7369741C
:10297000696F6E28003A24005E64697370656E7337
:10298000655F74696D65645F726573703A327C73FC
:102990007563636573733A003A24005E646973700B
:1029A000656E73655F74696D65645F726573703AB7
:1029B000327C737563636573733A00646973706521
:1029C0006E73655F74696D6564004166746572203D
:1029D000686F6D652061637475616C2C207365741C
:1029E000706F696E742C2070776D3A00456E646963
:1029F0006E67204163747561746F722061637475D2
:102A0000616C2C20736574706F696E742C20707704
:102A10006D3A005374617274696E67204163747516
:102A200061746F722061637475616C2C20736574BE
:102A3000706F696E742C2070776D3A0056616C75FA
:102A400065207061737365643D0056616C75652027
:102A50007061737365643D00496E206469737065CD
:102A60006E73652074696D656421005E646F6F72BA
:102A70005F756E6C6F636B5F726573703A317C73F8
:102A80007563636573733A24005E646F6F725F757C
:102A90006E6C6F636B5F726573703A317C737563D4
:102AA000636573733A2400646F6F725F756E6C6F49
:102AB000636B006C6F636B656400756E6C6F636B4A
:102AC0006564006C6F636B656400756E6C6F636B3F
:102AD000656400203D2000416674657220556E6C6F
:102AE0006F636B696E672C2052656C6F6164446F15
:102AF0006F72556E6C6F636B53656E736550696E64
:102B0000203D2000203D20004265666F7265205503
:102B10006E6C6F636B696E672C2052656C6F6164BD
:102B2000446F6F72556E6C6F636B53656E73655057
:102B3000696E203D2000496E20646F6F725F756E74
:102B40006C6F636B2066756E6374696F6E21005ED7
:102B5000636162696E65745F6C6F636B5F726573EE
:102B6000703A317C737563636573733A24005E63F6
:102B70006162696E65745F6C6F636B5F72657370C1
:102B80003A317C737563636573733A2400636162E1
:102B9000696E65745F6C6F636B004166746572206B
:102BA0004C6F636B696E672C2045787465726E613B
:102BB0006C446F6F72556E6C6F636B53656E7365AB
:102BC00050696E3A20004265666F7265204C6F63F3
:102BD0006B696E672C2045787465726E616C446F0A
:102BE0006F72556E6C6F636B53656E736550696E73
:102BF0003A2000496E20636162696E65745F6C6F94
:102C0000636B2066756E6374696F6E21005E63612D
:102C100062696E65745F756E6C6F636B5F7265730E
:102C2000703A317C737563636573733A24005E6335
:102C30006162696E65745F756E6C6F636B5F726500
:102C400073703A317C737563636573733A24006300
:102C50006162696E65745F756E6C6F636B0041666F
:102C600074657220556E6C6F636B696E672C2045BE
:102C7000787465726E616C446F6F72556E6C6F63C1
:102C80006B53656E736550696E3A20004265666FDE
:102C9000726520556E6C6F636B696E672C2045788A
:102CA0007465726E616C446F6F72556E6C6F636B9E
:102CB00053656E736550696E3A2000496E206361FA
:102CC00062696E65745F756E6C6F636B2066756E9E
:102CD0006374696F6E2100636C6F736564006F705D
:102CE000656E003A2400636C6F736564006F7065F5
:102CF0006E005E6C656674646F6F725F737461748E
:102D000075735F726573703A317C003A24005E6CB3
:102D1000656674646F6F725F7374617475735F72EC
:102D20006573703A317C006C656674646F6F725FB6
:102D3000737461747573004C656674446F6F724F81
:102D400070656E203D2000636C6F736564006F706A
:102D5000656E003A2400636C6F736564006F706584
:102D60006E005E7269676874646F6F725F7374611E
:102D70007475735F726573703A317C003A24005E3B
:102D80007269676874646F6F725F7374617475736E
:102D90005F726573703A317C007269676874646F42
:102DA0006F725F73746174757300526967687444FD
:102DB0006F6F724F70656E203D200072656D6F768B
:102DC000656400696E736572746564003A2400720C
:102DD000656D6F76656400696E7365727465640015
:102DE0005E77697065725F7374617475735F726525
:102DF00073703A317C003A24005E77697065725FC7
:102E00007374617475735F726573703A317C0077A7
:102E1000697065725F73746174757300576970656A
:102E200072496E736572746564203D200072656D31
:102E30006F76656400696E736572746564003A2428
:102E40000072656D6F76656400696E736572746596
:102E500064005E64726970747261795F7374617426
:102E600075735F726573703A317C003A24005E645A
:102E7000726970747261795F7374617475735F7273
:102E80006573703A317C0064726970747261795F45
:102E90007374617475730044726970547261794916
:102EA0006E736572746564203D20003A24005E7084
:102EB0006F736974696F6E5F63616E697374657255
:102EC0005F7265706C6163655F726573703A327CC6
:102ED0006661696C7572653A003A24005E706F73C2
:102EE0006974696F6E5F63616E69737465725F7236
:102EF00065706C6163655F726573703A327C6661A0
:102F0000696C7572653A003A24005E706F7369747B
:102F1000696F6E5F63616E69737465725F7265700D
:102F20006C6163655F726573703A327C737563635D
:102F30006573733A003A24005E706F736974696F49
:102F40006E5F63616E69737465725F7265706C61E8
:102F500063655F726573703A327C73756363657322
:102F6000733A00706F736974696F6E5F63616E6945
:102F7000737465725F7265706C6163650056616C35
:102F80007565207061737365643D00496E20706FD4
:102F9000736974696F6E2063616E69737465722002
:102FA0007265706C6163652066756E6374696F6EBF
:102FB0002100496E2070617573652066756E6374BB
:102FC000696F6E21005E72657363616E5F73746119
:102FD000727465643A307C3A24005E726573636192
:102FE0006E5F737461727465643A307C3A24005E7B
:102FF00072657363616E5F66696E69736865643A72
:10300000307C3A24005E72657363616E5F66696E40
:1030100069736865643A307C3A24005E7265736354
:10302000616E5F63616E6973746572735F726573FD
:10303000703A317C6661696C7572653A24005E7223
:10304000657363616E5F63616E6973746572735FEC
:10305000726573703A317C6661696C7572653A2489
:10306000004861766557655375636365737366756C
:103070006C6C79486F6D65644361726F7573656CD4
:103080004265666F7265203D2000486F6D65416343
:10309000747561746F72537563636573734F6E53A8
:1030A000746172747570203D200053616665546FC1
:1030B000526F746174654361726F7573656C282912
:1030C000203D200052656C6F6164446F6F724F70D9
:1030D000656E203D20005E72657363616E5F6361A3
:1030E0006E6973746572735F726573703A317C7365
:1030F0007563636573733A24005E72657363616E12
:103100005F63616E6973746572735F726573703A41
:10311000317C737563636573733A24005E72657303
:1031200063616E5F63616E6973746572735F72650C
:1031300073703A317C6661696C7572653A24005E21
:1031400072657363616E5F63616E697374657273D8
:103150005F726573703A317C6661696C7572653A4D
:1031600024002152656C6F6164446F6F724F70650B
:103170006E2026262053616665546F526F74617409
:10318000654361726F7573656C2829202626204877
:103190006F6D654163747561746F725375636365B8
:1031A00073734F6E537461727475702026262048B5
:1031B00061766557655375636365737366756C6C8B
:1031C00079486F6D65644361726F7573656C4265B4
:1031D000666F7265203D2000556E61626C652074DB
:1031E0006F2072657363616E2063616E69737465CD
:1031F00072732064756520746F207468697320632E
:103200006865636B206661696C696E673A00547229
:1032100079696E6720746F20486F6D654361726FC6
:103220007573656C2C2073696E6365206974206802
:1032300061736E2774207375636365737366756C51
:103240006C7920686F6D6564207965742E00496E15
:103250002072657363616E5F63616E69737465721A
:10326000732066756E6374696F6E2100626C6163B2
:103270006B007768697465005E72657365745F7270
:103280006573703A317C737563636573733A2400B8
:103290005E72657365745F726573703A317C7375C5
:1032A00063636573733A2400496E207265736574B5
:1032B0002066756E6374696F6E21005E63616E6374
:1032C000656C5F726573703A317C737563636573A7
:1032D000733A24005E63616E63656C5F7265737040
:1032E0003A317C737563636573733A2400496E20C9
:1032F00063616E63656C2066756E6374696F6E21C1
:1033000000496E20726573756D655F66756E6374D6
:10331000696F6E2066756E6374696F6E21003A2462
:10332000005E73797374656D5F636865636B5F726C
:103330006573703A317C00496E2073797374656DE2
:103340005F636865636B2066756E6374696F6E2179
:10335000003A24005E7374617475735F72657370F4
:103360003A317C003A24005E7374617475735F7245
:103370006573703A317C0052656C6F6164446F6FA5
:1033800072556E6C6F636B53656E736550696E201A
:103390003D20005769706572496E7365727465648B
:1033A000203D2000094163747561746F724F75741C
:1033B000657255704F70746F203D20000941637431
:1033C0007561746F72496E6E657255704F70746F6F
:1033D000203D20004163747561746F72456E636FA8
:1033E000646572203D200041313420414D49532D08
:1033F0003330353433205664642052656C6F616419
:10340000446F6F72436C6F736564203D2000437599
:103410007272656E74205765696768743A0900496D
:103420006E207374617475735F66756E6374696F13
:103430006E2066756E6374696F6E21005E626F77D1
:103440006C5F7765696768745F726573703A327C28
:10345000737563636573733A005E626F776C5F7751
:1034600065696768745F726573703A327C737563FF
:10347000636573733A005E626F776C5F7765696747
:1034800068745F726573703A327C6661696C7572DC
:10349000653A005E626F776C5F7765696768745F35
:1034A000726573703A327C6661696C7572653A0058
:1034B0002C2053616D706C657320776572653A20BE
:1034C00000426F776C20776569676874204E4F54AF
:1034D00020534554544C45442C20736F207265741E
:1034E00075726E204661696C757265206275742014
:1034F00072657475726E204162736F6C7574655776
:10350000656967687420616E797761792C20416202
:10351000736F6C757465576569676874203D20002A
:103520004E65772052464944207461672064657473
:1035300065637465642C2074686579206D75737497
:103540002068617665207377617070656420626FB2
:10355000776C732C20736F207765206E656564200F
:10356000746F2073656E6420626F776C5F706C613E
:10357000636564206E6F77206265666F7265206296
:103580006F776C5F7765696768745F726573702EBB
:1035900000524649442074616773206D617463680A
:1035A0002C206E6F206E65656420746F20746872C5
:1035B0006F7720626F776C5F706C61636564206504
:1035C00076656E7400436C656172696E6720616C2C
:1035D0006C20496E697469616C4163747561746FC4
:1035E00072506F736974696F6E735B5D20616E6496
:1035F0002053657269616C4E756D626572486173C6
:103600004265656E44697370656E7365645B5D2EBB
:1036100000206F7574206F6620626F756E64732C66
:103620002063616E6E6F74207365742074686973B3
:1036300020696E2074686520454550524F4D2E001C
:10364000736C6F745F6E756D6265722000292074F3
:103650006F20005D2028736C6F74200053657474B4
:10366000696E6720496E697469616C416374756144
:10367000746F72506F736974696F6E735B00466923
:103680006E616C20656E636F646572203D20004141
:1036900066746572206272616B652C20656E636F63
:1036A000646572203D200044657369726564207012
:1036B0006F736974696F6E203D200041637475619A
:1036C000746F7252657475726E546F486F6D654693
:1036D0006173742C204265666F726520456E636F5E
:1036E000646572203D2000436865636B2063656EEE
:1036F00074657220656E636F64657220666F7220F8
:103700006C6F6F73656E6573732F736C697070691E
:103710006E67202D20656974686572207468652065
:1037200079656C6C6F7720696E736572742068615F
:103730007320636F6D65206C6F6F73652066726FA9
:103740006D207468652073686166742C20686173ED
:1037500020706F70706564206F7574206F662063D1
:10376000656E74657220656E636F6465722C206F80
:1037700072207468652077686F6C6520656E636F72
:1037800064657220697473656C6620686173207467
:103790006F6F206D75636820776967676C6520744B
:1037A0006F206974206F722069736E2774207365AF
:1037B000617465642077656C6C2E002A2A2A464164
:1037C000494C45442A2A2A002A2A2A504153534563
:1037D000442A2A2A004174206C65617374206F6E3C
:1037E00065206F6620746865206361726F7573650C
:1037F0006C206D6F76656D656E7473206661696CA3
:1038000065642C20736F207468697320697320616C
:10381000206661696C75726520616E64206E6F74DC
:1038200020612076616C69642063656E7465722026
:10383000656E636F64657220736C697070696E6722
:1038400020746573742E002A2A2A4641494C454447
:103850002A2A2A00546869732076616C7565207382
:10386000686F756C64206265203C20353020746F71
:1038700020656E73757265206E6F20736C69707051
:10388000696E672E00446966666572656E636520C1
:10389000696E2063656E74657220656E636F646522
:1038A0007220706F736974696F6E207768656E201F
:1038B0006D6F76696E6720636C6F636B7769736594
:1038C00020767320636F756E746572636C6F636BC3
:1038D00077697365206973200043656E7465722093
:1038E000656E636F64657220506F736974696F6E83
:1038F0004174536C6F743130434357203D20004373
:10390000656E74657220656E636F64657220506FBA
:10391000736974696F6E4174536C6F7431304357BF
:10392000203D20000A43656E74657220656E636FEA
:1039300064657220506F736974696F6E4174486F6B
:103940006D65203D20004F766572616C6C2072655C
:1039500073756C74203D202A2A2A4641494C4544FF
:103960002A2A2A004F766572616C6C207265737525
:103970006C74203D202A2A2A5041535345442A2A58
:103980002A004E756D626572206F66206D6F7665D8
:103990006D656E74206661696C75726573203D207B
:1039A000004E756D626572206F66206D6F76656D75
:1039B000656E742072657472696573203D20002005
:1039C0006379636C65732E000A0A46696E697368D1
:1039D0006564204379636C652054657374206F6659
:1039E00020006E756D4661696C75726573203D20AF
:1039F000006E756D52657472696573203D200053C9
:103A0000756363657373203D200067476F546F5083
:103A10006F736974696F6E52657472696573203D66
:103A20002000476F546F44697370656E7365536C03
:103A30006F74203D20006E756D4661696C7572650E
:103A400073203D20006E756D526574726965732038
:103A50003D200053756363657373203D2000674705
:103A60006F546F506F736974696F6E5265747269C9
:103A70006573203D2000476F546F44697370656E15
:103A80007365536C6F74203D20002054696D65731D
:103A9000004379636C652054657374205246494431
:103AA00020446F6E652C2052464944204D69737343
:103AB000696E6720002054696D6573004379636CFB
:103AC000652054657374205246494420446F6E65E6
:103AD0002C20524649442044657465637465642013
:103AE000002054696D6573002054696D65732C2046
:103AF00052464944204D697373696E6720004379CB
:103B0000636C65205465737420526573756C7473AF
:103B100020536F20466172202D2052464944204494
:103B200065746563746564200020636F6D706C65F7
:103B30007465642C20486F7572732052656D6169DD
:103B40006E696E67203D2000206F7574206F6620BF
:103B5000004379636C65200052464944204E6F74DF
:103B600020446574656374656421005E77697065DF
:103B7000725F72656D6F7665643A307C3A24005EE0
:103B800077697065725F72656D6F7665643A307CD7
:103B90003A24005E77697065725F696E736572744E
:103BA00065643A307C3A24005E77697065725F69BB
:103BB0006E7365727465643A307C3A24005E647298
:103BC0006970747261795F72656D6F7665643A30A1
:103BD0007C3A24005E64726970747261795F726508
:103BE0006D6F7665643A307C3A24005E6472697069
:103BF000747261795F696E7365727465643A307C62
:103C00003A24005E64726970747261795F696E73E0
:103C100065727465643A307C3A240066696E697333
:103C200068656400616C6572740064697370656EC8
:103C300073696E6700626F776C00616374697665A3
:103C40000069646C65003A24005E6E61636B3A3112
:103C50007C003A24005E6E61636B3A317C006379CC
:103C6000636C655F746573745F7266696400637921
:103C7000636C655F746573745F616C6C006379631A
:103C80006C655F746573745F6163747561746F7282
:103C900073006379636C655F746573745F636172ED
:103CA0006F7573656C00746573745F7363616C65C5
:103CB0005F6E6F69736500746573745F6361726FC3
:103CC0007573656C5F656E636F64657273006275B2
:103CD000726E5F696E5F6361726F7573656C00749D
:103CE0006573745F6361726F7573656C5F6672692B
:103CF0006374696F6E007A65726F5F63656E746579
:103D0000725F656E636F646572007365745F72667F
:103D100069645F6F76657272696465006465637279
:103D2000656173655F70616E656C5F62726967681B
:103D3000746E65737300696E6372656173655F703D
:103D4000616E656C5F6272696768746E657373003B
:103D50007365745F70616E656C5F627269676874C9
:103D60006E657373006361726F7573656C5F706FFE
:103D7000736974696F6E006163747561746F725FEB
:103D8000636F756E746572636C6F636B776973656F
:103D9000006163747561746F725F636C6F636B77DE
:103DA000697365006163747561746F725F726574C5
:103DB00075726E746F686F6D656661737470696437
:103DC000006163747561746F725F72657475726E91
:103DD000746F686F6D65666173740061637475619B
:103DE000746F725F706F736974696F6E0061637472
:103DF0007561746F725F686F6D65007365745F697C
:103E00006E697469616C5F6163747561746F725F10
:103E1000706F736974696F6E00636C6561725F6166
:103E200063747561746F725F706F736974696F6EBC
:103E30007300313233343536373839303132333438
:103E40003536373839303132333435363738393022
:103E50003132333435363738393031323334353620
:103E6000373839300063616C6962726174655F7301
:103E700063616C655F73686966745F7A65726F0011
:103E800063616C6962726174655F7363616C650024
:103E900076657273696F6E00626F776C5F776569C4
:103EA00067687400626F776C5F7374617475730018
:103EB0007374617475730073797374656D5F63688F
:103EC00065636B00666F726365007363616E5F614B
:103ED0006C6C00726573756D650063616E63656C13
:103EE000007265736574007365745F64656D6F5F00
:103EF0006D6F6465007365745F6861735F72656C94
:103F00006F61645F646F6F725F6C6F636B0073658A
:103F1000745F626F776C5F617265615F636F6C6F16
:103F2000725F7479706500706F7765725F73617628
:103F3000655F6D6F64650072657363616E5F636179
:103F40006E69737465727300706175736500706F6C
:103F5000736974696F6E5F63616E69737465725FB4
:103F60007265706C616365007363616E5F6261723C
:103F7000636F646500636162696E65745F73746129
:103F80007475730064726970747261795F737461BF
:103F90007475730077697065725F7374617475739B
:103FA000007269676874646F6F725F7374617475AF
:103FB00073006C656674646F6F725F73746174759F
:103FC0007300646F6F725F73746174757300636103
:103FD00062696E65745F756E6C6F636B00636162BE
:103FE000696E65745F6C6F636B00646F6F725F7591
:103FF0006E6C6F636B00646F6F725F6C6F636B00EE
:1040000064697370656E73655F66756C6C5F636120
:104010006E0064697370656E73655F74696D656465
:104020000064697370656E73655F616C6C00416DEF
:104030006F756E745F44697370656E7365643A0979
:104040000057656967687420416674657220312085
:104050007365633A0900576569676874204166743F
:1040600065723A0900576569676874204265666F32
:1040700072653A09007365745F7374657070657278
:104080005F72696768745F706F736974696F6E00DF
:10409000416D6F756E745F44697370656E736564AE
:1040A0003A09005765696768742041667465722033
:1040B00031207365633A0900576569676874204168
:1040C000667465723A0900576569676874204265CD
:1040D000666F72653A09007365745F73746570701A
:1040E00065725F6C6566745F706F736974696F6E1B
:1040F000007365745F737465707065725F72696771
:1041000068745F7370656564007365745F7374656C
:10411000707065725F6C6566745F7370656564006E
:104120007365745F70756D705F737065656400644E
:10413000697370656E73655F646576656C6F7065D5
:10414000720064697370656E73655F77656967682F
:10415000740070696E670064656D6F00706F7369DD
:1041600074696F6E5F63616E697374657200736505
:10417000745F7363616C655F6C6564730073657411
:104180005F6C656473002D2D2D2D2D2D2D2D2D2D66
:104190002D2D2D2D00706172616D35203D20007038
:1041A0006172616D34203D2000706172616D332059
:1041B0003D2000706172616D32203D20007061729F
:1041C000616D31203D2000706172616D34203D20B1
:1041D00000706172616D33203D2000706172616D0D
:1041E00032203D2000706172616D31203D200070F1
:1041F0006172616D33203D2000706172616D32200B
:104200003D2000706172616D31203D20007061724F
:10421000616D32203D2000706172616D31203D2062
:1042200000706172616D31203D2000416C6C207422
:10423000686520646174612076616C756573203DEA
:104240002000496E7465676572204E756D5061720D
:10425000616D6574657273203D2000416C6C205067
:104260006172616D732050617373656420004D65E8
:10427000737361676554797065203D20002A2A2A8E
:104280002A2A2A2A2A2A2A2A2A2A2A2A2A2A003AA8
:1042900024003A24003030303030303030303000BC
:1042A00030303030303030303030005E626F776C1C
:1042B0005F706C616365643A357C005E626F776C39
:1042C0005F706C616365643A357C00436F6C6F723C
:1042D0002073656E736F7273206E6F7420696E73D6
:1042E00074616C6C65642C2064656661756C7469BE
:1042F0006E6720746F20524742282D312C2D312CAF
:104300002D3129005E626F776C5F72656D6F766527
:10431000643A307C3A24005E626F776C5F72656D40
:104320006F7665643A307C3A24003A24005E63611B
:104330006E69737465725F696E7374616C6C6564C9
:104340003A327C003A24005E63616E697374657270
:104350005F696E7374616C6C65643A327C003A24F8
:10436000005E63616E69737465725F72656D6F760E
:1043700065643A317C003A24005E63616E6973744F
:1043800065725F72656D6F7665643A317C003A24C0
:1043900009003A00095E646973705F70726F67723A
:1043A0006573733A327C003A24003A005E646973A4
:1043B000705F70726F67726573733A327C0052611E
:1043C0006E67652072656164696E67206F766572DD
:1043D000666C6F770052616E676520726561646913
:1043E0006E6720756E646572666C6F7700526177D8
:1043F0002072656164696E67206F766572666C6FA6
:1044000077005261772072656164696E6720756E0E
:10441000646572666C6F77005369676E616C2F4ECE
:104420006F697365206572726F720049676E6F7293
:10443000696E672072616E6765004E6F20636F6EF4
:1044400076657267656E6365004543452066616900
:104450006C7572650053797374656D206572726F47
:1044600072004162736F6C75746557656967687433
:10447000206973203C2035302C207468726F776976
:104480006E6720626F776C5F72656D6F7665642012
:104490006576656E742E20204E6F20676F6F6420E6
:1044A00064697374616E63652073656E736F7220E7
:1044B00072656164696E6720617661696C61626CC6
:1044C000652C20636865636B20666F72206572726D
:1044D0006F722062656C6F772E20204162736F6C63
:1044E000757465576569676874203D20002C20410C
:1044F00062736F6C757465576569676874203D20D9
:104500000052616E6765203E203530206F72204179
:1045100062736F6C757465576569676874203C20B9
:1045200035302C20736F207468726F77696E672046
:10453000626F776C5F72656D6F7665642065766516
:104540006E742E2052616E6765203D20003A240073
:104550003030303030303030303000524649445204
:104560006561644661696C436F756E743D31302ED0
:1045700020576F756C642068617665207468726F6F
:10458000776E207468697320626F776C5F706C61FE
:10459000636564206576656E742065786365707404
:1045A0002052464944204F766572726964652069DD
:1045B00073206E6F74206F6E2C20736F206469649B
:1045C0006E27743A205E626F776C5F706C61636512
:1045D000643A357C003A24003030303030303030AE
:1045E000303000436865636B205246494420746153
:1045F00067732E20576F756C642068617665207430
:1046000068726F776E207468697320626F776C5F71
:10461000706C61636564206576656E74206578638F
:104620006570742052464944204F76657272696401
:1046300065206973206E6F74206F6E2C20736F205D
:104640006469646E27743A205E626F776C5F706C89
:10465000616365643A357C002C20426F776C506C46
:104660006163656453616D706C65734166746572F6
:1046700052464944203D20002C204162736F6C75E6
:104680007465576569676874203D200052616E67E4
:1046900065203D20002C20426F776C506C61636573
:1046A0006453616D706C65734265666F72655246E6
:1046B0004944203D20002C204162736F6C75746565
:1046C000576569676874203D200052616E676520F8
:1046D0003D20005E6361726F7573656C5F6A616D2A
:1046E0003A307C3A24005E6361726F7573656C5F6B
:1046F0006A616D3A307C3A24003A24005E706F7330
:104700006974696F6E5F63616E69737465725F72FD
:104710006573703A327C6661696C7572653A003A0D
:1047200024005E706F736974696F6E5F63616E6998
:10473000737465725F726573703A327C6661696C1E
:104740007572653A003A24005E706F736974696F20
:104750006E5F63616E69737465725F726573703AE0
:10476000327C737563636573733A003A24005E703C
:104770006F736974696F6E5F63616E69737465727C
:104780005F726573703A327C737563636573733AF5
:1047900000706F736974696F6E5F63616E697374C3
:1047A00065720056616C7565207061737365643D58
:1047B00000496E20706F736974696F6E2063616E5B
:1047C00069737465722066756E6374696F6E21001B
:1047D0005E646F6F725F6C6F636B5F726573703A6C
:1047E000317C737563636573733A24005E646F6F25
:1047F000725F6C6F636B5F726573703A317C737557
:1048000063636573733A2400646F6F725F6C6F63E8
:104810006B004166746572204C6F636B696E672C28
:104820002052656C6F6164446F6F72556E6C6F637C
:104830006B53656E736550696E3A20004265666F12
:104840007265204C6F636B696E672C2052656C6FCC
:104850006164446F6F72556E6C6F636B53656E73FA
:104860006550696E3A2000496E20646F6F725F6C0C
:104870006F636B2066756E6374696F6E2100507292
:104880006F647563744944206973206120726567A1
:10489000756C61722064697370656E7365207370E6
:1048A0006565642070726F647563742C20736F206B
:1048B000646F206E6F726D616C2064697370656ED9
:1048C00073652E0050726F64756374494420697378
:1048D000206120666173742064697370656E73650E
:1048E0002073706565642070726F647563742C202A
:1048F000736F20676F2066617374657220616E64E8
:1049000020646F6E277420736C6F7720646F776EEE
:1049100020617420656E642E0030303239003030F2
:1049200032380030303237003030323600303032FA
:104930003400474F4C4457454C4C2D4153480030B0
:1049400030353800474F4C4457454C4C2D3131479A
:10495000003030353700474F4C4457454C4C2D38CC
:104960004341003030353600474F4C4457454C4C9E
:104970002D3552003030353500474F4C4457454CAB
:104980004C2D354B003030353400474F4C445745A3
:104990004C4C2D5252003030353300474F4C445769
:1049A000454C4C2D5656003030353200474F4C4464
:1049B00057454C4C2D4747003030353100474F4C60
:1049C0004457454C4C2D4B4B003030353000474F51
:1049D0004C4457454C4C2D50003030343900474F33
:1049E0004C4457454C4C2D41003030343800474F33
:1049F0004C4457454C4C2D3842003030343700473A
:104A00004F4C4457454C4C2D344200303034360026
:104A1000474F4C4457454C4C2D354D4200303034B7
:104A20003500474F4C4457454C4C2D3131410030F7
:104A300030343400474F4C4457454C4C2D313041B5
:104A4000003030343300474F4C4457454C4C2D39DF
:104A500041003030343200474F4C4457454C4C2DC8
:104A60003541003030343100474F4C4457454C4CB1
:104A70002D3241003030343000474F4C4457454CC4
:104A80004C2D3847003030333900474F4C445745A0
:104A90004C4C2D3747003030333800474F4C44578B
:104AA000454C4C2D3447003030333700474F4C4491
:104AB00057454C4C2D31304E003030333600474F87
:104AC0004C4457454C4C2D384E0030303335004760
:104AD0004F4C4457454C4C2D364E0030303334004B
:104AE000474F4C4457454C4C2D344E0030303333F7
:104AF00000474F4C4457454C4C2D324E003030331C
:104B00003200434C4943532D56322D314E00303044
:104B1000333000434C4943532D56322D4C4900301D
:104B200030323900434C4943532D56322D443430F2
:104B3000003030323800434C4943532D56322D4417
:104B40003230003030323700434C4943532D563217
:104B50002D4430003030323600434C4943532D56FB
:104B6000322D5048003030323500434C4943532DEC
:104B700056322D434C003030323400434C494353BD
:104B80002D56322D434F42003030323300434C49D2
:104B900043532D56322D4C54594F00303032320091
:104BA000434C4943532D56322D4F5900303032314A
:104BB00000434C4943532D56322D4C544F52003034
:104BC00030323000434C4943532D56322D524F0062
:104BD0003030313900434C4943532D56322D565213
:104BE000003030313800434C4943532D56322D4C60
:104BF000545642003030313700434C4943532D5610
:104C0000322D4256003030313600434C4943532D4B
:104C100056322D4247003030313500434C49435322
:104C20002D56322D4C544242003030313400434C2A
:104C30004943532D56322D59003030313300434C07
:104C40004943532D56322D4F003030313200434C02
:104C50004943532D56322D42003030313100434C00
:104C60004943532D56322D52003030313000434CE1
:104C70004943532D56322D47003030303900434CD4
:104C80004943532D56322D56003030303800434CB6
:104C90004943532D56322D31324E003030303700DB
:104CA000434C4943532D56322D31304E0030303075
:104CB0003600434C4943532D56322D384E00303088
:104CC000303500434C4943532D56322D364E00307B
:104CD00030303400434C4943532D56322D344E006E
:104CE0003030303300434C4943532D56322D324E31
:104CF000003030303200434C4943532D56322D3072
:104D0000304E0030303031002C2050726F647563AB
:104D1000744E616D6520697320002C2050726F64A1
:104D20007563744944206973200063616E6973740C
:104D30006572436F6465206973200054686973204D
:104D40006973204C69676874656E65722C20736F97
:104D500020646F6E277420676F2061732066617313
:104D600074206F746865727769736520636F756C02
:104D70006420686176652070696E6368206F66667E
:104D80002069737375652E003030323900526573B7
:104D9000746F7265642F536176656420496E69741F
:104DA00069616C4163747561746F72506F7369747B
:104DB000696F6E446174613A00496E2D6D656D6F67
:104DC000727920496E697469616C416374756174AC
:104DD0006F72506F736974696F6E446174613A00E9
:104DE0002C20736F2077726974696E6720746F204E
:104DF000454550524F4D206576656E2074686F753D
:104E00006768206F7574206F662072616E67652C0D
:104E100020736F206E6578742074696D65206D61F4
:104E20007920776F726B206265747465722E002032
:104E30003C2050726576696F7573496E697469615B
:104E40006C4163747561746F72506F736974696FCC
:104E50006E206F6620004E657720496E6974696127
:104E60006C4163747561746F72506F736974696FAC
:104E70006E5B5D206F6620003A24003A003A003AEB
:104E8000005E64697370656E73655F7765696768F6
:104E9000745F726573703A357C72616E67653A0053
:104EA0003A24003A003A003A005E64697370656E15
:104EB00073655F7765696768745F726573703A35AB
:104EC0007C72616E67653A003A24003A003A003A13
:104ED000005E64697370656E73655F7765696768A6
:104EE000745F726573703A357C7375636365737351
:104EF0003A003A24003A003A003A005E646973705E
:104F0000656E73655F7765696768745F72657370F6
:104F10003A357C737563636573733A003A24003ADB
:104F2000003A003A005E64697370656E73655F777E
:104F300065696768745F726573703A357C63616E2A
:104F400063656C3A003A24003A003A003A005E6425
:104F5000697370656E73655F7765696768745F72A2
:104F60006573703A357C63616E63656C3A002C2022
:104F7000736F2077726974696E6720746F2045457E
:104F800050524F4D206576656E2074686F75676866
:104F9000207468697320697320612074616D706585
:104FA000722C20736F206E6578742074696D652093
:104FB0006D617920776F726B206265747465722EF3
:104FC00000203C2050726576696F7573496E697474
:104FD00069616C4163747561746F72506F73697449
:104FE000696F6E206F6620004E657720496E697488
:104FF00069616C4163747561746F72506F73697429
:10500000696F6E5B5D206F6620003A24003A003ABB
:10501000003A005E64697370656E73655F776569F9
:105020006768745F726573703A357C74616D706522
:10503000723A003A24003A003A003A005E6469731A
:1050400070656E73655F7765696768745F726573B5
:10505000703A357C74616D7065723A006469737082
:10506000656E73655F616C6C0064697370656E7307
:10507000655F776569676874002C2053686F756C8D
:10508000645265747279476F4661737442656361F7
:10509000757365466972737444697370656E736580
:1050A00054696D65644F7574203D200044697370C8
:1050B000656E7365206661696C7572652C206E651E
:1050C000656420746F2072657472792C20476F6953
:1050D0006E6720746F2064697370656E7365206DF0
:1050E0006F7265206F6E20612072657472792C205A
:1050F00074686973206D756368206D6F7265203DFB
:10510000200052657472792053756D20416D6F7562
:105110006E745F44697370656E736564203D200032
:1051200054414D5045522044455445435445442034
:1051300061667465722066696E697368656420646F
:10514000697370656E73696E672C20726574757211
:105150006E696E672074616D70657220726573751B
:105160006C74207769746820616D6F756E7420644B
:10517000697370656E736564206173205472616930
:105180006C696E67576569676874203D2000416DE2
:105190006F756E745F44697370656E7365642069C2
:1051A00073206E656761746976652C206D6F72651A
:1051B000207468616E202D31672C207468657265DB
:1051C000206D7573742068617665206265656E2058
:1051D000736F6D652074797065206F662074616DE2
:1051E0007065722E204E6F7420676F696E67207431
:1051F0006F2072657472792E00416D6F756E745FE9
:1052000044697370656E736564203D20002C2062D4
:105210006563617573652054726C563420737469CC
:105220006C6C20756E64657220302E3033203D200A
:10523000004C6F6F702054696D6564204F75742049
:105240006174204C6F6F7054696D656F7574203D8B
:1052500020002C204C6F6F70436F756E7465725711
:1052600068656E526561636865644D617841637419
:10527000756174696F6E203D200053657474696EAA
:1052800067204C6F6F7054696D656F7574203D2099
:1052900000206772616D732C20736F2072657665D4
:1052A00072736520746865206163747561746F72D0
:1052B000210041626F757420746F2063726F737385
:1052C0002000526563656976656420612043616EE4
:1052D00063656C20636F6D6D616E642066726F6DC7
:1052E000206D616368696E652055492E0054414DFB
:1052F0005045522044455445435445442C20737432
:105300006F7070696E6720616374756174696F6E28
:1053100020616E642072657475726E696E672074A8
:10532000616D70657220726573756C742E005461C6
:105330006D7065722064657465637465642C207794
:105340006569676874206D6F7265206E656761744A
:10535000697665207468616E202D312C20736F6D25
:1053600065626F6479206D7573742068617665205D
:1053700072656D6F7665642077656967687420660D
:10538000726F6D207363616C652C20726574757229
:105390006E696E672074616D7065722E0020746F87
:1053A00020302E31302073696E6365203E313030FD
:1053B000206C6F6F7073206C6566740009526169B0
:1053C00073696E67207461726765742073706565B8
:1053D000642066726F6D200020746F20302E30358F
:1053E0002073696E6365203C3330206C6F6F70737F
:1053F000206C65667400094C6F776572696E672072
:105400007461726765742073706565642066726F7D
:105410006D2000094C4C09002C204D6178416374CB
:10542000756174696F6E203D20002C204D617841BC
:105430006374756174696F6E284C6929203D200082
:1054400009534554504F494E542043616C633D000D
:105450000954726C563409000954726C56090009DB
:1054600054726C570900094C6F61642063656C6C61
:105470002073616D706C696E67206661696C75720E
:10548000652C20676F74203E3230306720666F7263
:105490002061766572616765206F66203130782003
:1054A00073616D706C65732C2064697363617264E1
:1054B000696E6720616E642074616B696E67206E2F
:1054C00065772073616D706C6520686572653A0957
:1054D0000053616D700900095475726E41726F75E9
:1054E0006E64000A4C69676874656E657220666C4C
:1054F0006F7720637574206F6666205374616C6CDF
:10550000696E67206465746563746564202D20741A
:105510007279696E67204C69676874656E65722080
:10552000616374756174696F6E207265747279203D
:1055300023005374616C6C696E67206465746563E5
:10554000746564202D207265636F766572792064BE
:1055500069646E277420776F726B2C20736F2073D1
:10556000746F7070696E6720746865206469737009
:10557000656E736520736F20776520646F6E277486
:105580002064616D61676520746865206D6F746F5C
:105590007220616E64206472697665722E0009540F
:1055A00075726E41726F756E64000A5374616C6C33
:1055B000696E67206465746563746564202D20746A
:1055C0007279696E6720746865206261636B2D6F04
:1055D00066662D616E642D676F2D6661737420722F
:1055E000657472792E0009456E64313530004D6165
:1055F00078416374756174696F6E203D2000537447
:10560000617274696E6720536574706F696E744956
:105610006E6974466F72546869734D616368696E30
:1056200065203D200009536574706F696E74416D8B
:105630006F756E74546F4261636B4F666657686531
:105640006E4869745461726765745370656564204F
:105650003D200009536574706F696E744C6F6F70F4
:10566000496E6372656D656E74203D20000974613A
:10567000726765745F64697370656E73655F73707C
:10568000656564203D200009414661737444697377
:1056900070656E7365534B55203D20006744656D02
:1056A0006F4D6F6465203D2000426F776C207765F9
:1056B00069676874206E6F7420736574746C6564B8
:1056C0002061667465722035207365636F6E647344
:1056D0002C2072657475726E2074616D7065722E07
:1056E00000424F574C204E4F5420504C41434544AC
:1056F000207768656E207374617274696E672064C8
:10570000697370656E7365202D20736F206E6F74E2
:1057100020616374756174696E672C20616E64200A
:1057200072657475726E696E672074616D706572F2
:105730002E00094162736F6C7574655765696768FF
:1057400074203D2000095461726541444356616CE8
:105750007565203D2000095343414C45203D200004
:10576000094F4646534554203D2000546172655709
:105770006569676874203D20005D203D2000496E0A
:10578000697469616C5765696768745265616469B9
:105790006E67735B005363616C65206E6F7420737A
:1057A0006574746C65642C2062656C6F772073611E
:1057B0006D706C6573206E6F742077697468696EA4
:1057C0002031206772616D2C207265747279696E68
:1057D0006720757020746F20352074696D65732E95
:1057E000003A24003A31302E30303A005E6469735A
:1057F00070656E73655F7765696768745F726573FE
:10580000703A357C74616D7065723A302E30303A82
:10581000003A24003A31302E30303A005E64697329
:1058200070656E73655F7765696768745F726573CD
:10583000703A357C74616D7065723A302E30303A52
:105840000064697370656E73655F616C6C00646998
:105850007370656E73655F77656967687400706FF4
:10586000736974696F6E5F63616E697374657220CA
:105870006661696C7572652C2063616E6E6F742051
:1058800067756172616E746565206361726F7573AF
:10589000656C20706F736974696F6E20736F20651B
:1058A000786974696E6720746865206469737065CF
:1058B0006E73655F77656967687420636F6D6D618E
:1058C0006E6420616E642072657475726E696E67B5
:1058D0002074616D706572210056616C7565207071
:1058E00061737365643D0056616C7565207061730A
:1058F0007365643D00496E2064697370656E7365FD
:10590000207765696768742066756E6374696F6E69
:1059100021003A24005E64697370656E73655F668A
:10592000756C6C5F63616E5F726573703A327C7325
:105930007563636573733A003A24005E646973703B
:10594000656E73655F66756C6C5F63616E5F7265D3
:1059500073703A327C737563636573733A0064697C
:105960007370656E73655F66756C6C5F63616E0006
:10597000546F74616C2054696D6520746F204469A4
:105980007370656E7365203D206C6F6F70202D20E5
:1059900035203D20090046696E616C2057656967B6
:1059A0006874203D200900416674657220686F6D3F
:1059B000652061637475616C2C20736574706F6908
:1059C0006E742C2070776D3A00456E64696E6720A6
:1059D0004163747561746F722061637475616C2CBE
:1059E00020736574706F696E742C2070776D3A0047
:1059F00057656967687420696E6372656173656471
:105A0000206279206C657373207468616E20302E7B
:105A100031206772616D7320696E20746865206C37
:105A20006173742035207365636F6E64732C20730B
:105A30006F2073746F7070696E67206C6F6F702E5B
:105A400000576569676874203E203335302C206527
:105A5000786974696E67206C6F6F70202863616E5F
:105A600063656C6C696E67292E000944656C74610E
:105A7000576569676874203D2009000957656967A3
:105A80006874203D2009000954696D65203D200996
:105A9000004C6F6F70203D2009005374617274696F
:105AA0006E67204163747561746F722061637475F1
:105AB000616C2C20736574706F696E742C20707724
:105AC0006D3A00092053746172742054696D652029
:105AD0003D200900576569676874203D200900561C
