:100000000C9404400C9495730C946A730C943F7395
:100010000C9414730C94E9720C94BE720C94937249
:100020000C9468720C940D980C94F9710C94837173
:100030000C9435400C9435400C9435400C9435406C
:100040000C9435400C9435400C9435400C9435405C
:100050000C9435400C94EF6B0C9435400C94069244
:100060000C9435400C948EB90C9464B90C943540C2
:100070000C9435400C9435400C9435400C9435402C
:100080000C9435400C9435400C9435400C9435401C
:100090000C943AB90C9410B90C9435400C94E99630
:1000A0000C9435400C9435400C9435400C943540FC
:1000B0000C9435400C9435400C9435400C943540EC
:1000C0000C9435400C9435400C9435400C94E6B8B3
:1000D0000C94BCB80C9435400C9492B80C9468B84D
:1000E0000C94354008000000BE922449123EABAA91
:1000F000AA2ABECDCCCC4C3E00000080BEABAAAA42
:10010000AA3E00000000BF000000803F0000000089
:1001100000084178D3BB4387D1133D190E3CC3BDC2
:100120004282AD2B3E68EC8276BED98FE1A93E4C6F
:1001300080EFFFBE01C4FF7F3F00000000000C9471
:1001400055BC0C94B6900C9419A80C942FBC0C942C
:10015000FF8E0C947BA90C942ABC0D94CA020C94BB
:10016000D8A80C94F88F0C9449A90C946EA90C94FF
:1001700030900C94B2BC0C9456A90C94EA8F0C9459
:10018000548F0C94A98E0C94D48F0D949A090C94CE
:100190002A910C94CE900C942F900C94A38E0C94D6
:1001A0005AA90C9464A90C94C5A70C9422410C94F0
:1001B000768E0C9445A90C9422BC0C94EF6B0C9495
:1001C00067BC0C94A58E0C94A78F0C940AA80C9471
:1001D000E38F0C9450920C9442910C948ABC0C9432
:1001E00063910C9476A90C94F6910D949E090C944D
:1001F0008BA80C9487900C949F8E0C949EBC0C94AE
:100200007BBC0C94DC8F0C9431900C949A400C9431
:100210005DBC0C947CA90C94D6400C9460A90C9401
:10022000A78E0C9441A90C943BA90D94AB090C9496
:10023000BCBC0C942E900C9439BC0C949A910D94E7
:100240009C090C9450A90C94A18E0C9443BC0C9462
:1002500071BC0C945A900C9494BC0C94EAC60C9407
:1002600068A90C9406900C9440900C94BD8F0C944B
:100270004DA90C947C400C9466910C94B8910C940C
:1002800072A90C944DBC0C94208F0C94B8400D9422
:10029000A0090C94A8BC0D94A4090C9480A90C94FA
:1002A000758F0D94A2090C942CA80C943AA80D9467
:1002B00049070C949B8E0C94F4400C94FF8F0C9483
:1002C00053900C94F18F0C949D8E4E414E494E49A3
:1002D0005459494E46CDCCCC3D0AD7233C17B7D113
:1002E0003877CC2B329595E6241FB14F0A000020B9
:1002F000410000C84200401C4620BCBE4CCA1B0E38
:100300005AAEC59D745246494453656E736F724729
:100310006F6F64203D200044697374616E636553A0
:10032000656E736F72476F6F64203D20004C6F6184
:100330006443656C6C53656E736F72476F6F6420B6
:100340003D20004163747561746F72486F6D696E12
:1003500067476F6F64203D20004163747561746F5F
:10036000724F7574657255704F70746F476F6F641C
:10037000203D20004163747561746F72496E6E6533
:100380007255704F70746F476F6F64203D2000414D
:1003900063747561746F724D6F746F72456E636FC5
:1003A000646572476F6F64203D200041637475611E
:1003B000746F724D6F746F72476F6F64203D2000D1
:1003C0004361726F7573656C486F6D696E67476FD7
:1003D0006F64203D20004361726F7573656C4365E7
:1003E0006E746572456E636F646572476F6F6420EB
:1003F0003D20004361726F7573656C4D6F746F7251
:10040000456E636F646572476F6F64203D200043E3
:1004100061726F7573656C4D6F746F72476F6F6447
:10042000203D20004361726F7573656C486F6D6588
:100430004F70746F476F6F64203D20004F76657278
:10044000726964655246494449664974446F6573EC
:100450006E745265616450726F7065726C79203D84
:100460002000675369646550616E656C427269670C
:1004700068746E657373203D200053696465506134
:100480006E656C4272696768746E657373203D2097
:100490000048617352656C6F6164446F6F724C6F9A
:1004A000636B203D20004973426C61636B426F7740
:1004B0006C41726561203D20002C20436F756E7485
:1004C000203D200041766572616765206F66206E71
:1004D0006F6E2D7A65726F20496E697469616C4127
:1004E00063747561746F72506F736974696F6E7342
:1004F000203D20005D203D200053657269616C4EF7
:10050000756D626572735B005D203D2000536572FE
:1005100069616C4E756D6265724861734265656EA6
:1005200044697370656E7365645B005D203D2000F7
:10053000496E697469616C4163747561746F72505E
:100540006F736974696F6E735B00496E697469617A
:100550006C4163747561746F72506F736974696F05
:100560006E203D20005363616C655F43616C69627E
:10057000726174696F6E5F576569676874203D20AA
:10058000005363616C655F43616C69627261746999
:100590006F6E5F32303067203D20005363616C65C1
:1005A0005F43616C6962726174696F6E5F5A6572F4
:1005B0006F203D20005363616C655F43616C69622D
:1005C000726174696F6E203D200046575F42554945
:1005D0004C44203D200044697370656E7365725F02
:1005E0004D6F64656C5F4D696E6F72203D200044F5
:1005F000697370656E7365725F4D6F64656C5F4D96
:10060000616A6F72203D200044697370656E736586
:10061000725F53657269616C203D20004545505002
:10062000524F4D5F56455253494F4E203D20004793
:100630006574414D54323033456E636F646572505A
:100640006F736974696F6E20414D54323033637536
:100650007272656E74506F736974696F6E3A2000C0
:1006600052617720414D5432303363757272656E3A
:1006700074506F736974696F6E3A200052657365C8
:10068000742041726475696E6F20746F2072657397
:10069000746172742070726F6772616D2E004572A2
:1006A000726F72206F627461696E696E6720706F1D
:1006B000736974696F6E2E00446F6E65207A65727F
:1006C0006F696E6720656E636F6465722C20437579
:1006D0007272656E7420706F736974696F6E3A2000
:1006E0000052657365742041726475696E6F207481
:1006F0006F20726573746172742070726F677261BB
:100700006D2E004572726F72206F627461696E693E
:100710006E6720706F736974696F6E2E00342E2EB1
:100720002E00332E2E2E00322E2E2E00312E2E2E67
:1007300000476F696E6720746F207A65726F20744E
:10074000686520414D5432303320656E636F6465B7
:1007500072206E6F772E2E2E206D6179206E65656A
:100760006420746F20706F776572206379636C65A5
:1007700020616674657220746869732E00436F721D
:1007800072656374656420414D5432323220456E87
:10079000636F6465723A2000414D54323232204515
:1007A0006E636F6465723A2000414D5432323220DC
:1007B00072656164206572726F722E204174746577
:1007C0006D7074733A2000446F6E65207A65726FA5
:1007D000696E6720656E636F6465722C2043757265
:1007E00072656E7420706F736974696F6E3A200061
:1007F000476F696E6720746F207A65726F20746826
:100800006520414D5432323220656E636F646572EB
:10081000206E6F772E2E2E00456E64696E67204124
:1008200063747561746F7220506F736974696F6E51
:10083000203D20005374617274696E6720416374B7
:100840007561746F7220506F736974696F6E203DAB
:100850002000486F6D654163747561746F72207715
:100860006173207375636365737366756C212020F3
:10087000426F7468206163747561746F7273206570
:100880006E6465642075702E00486F6D65416374F9
:100890007561746F7220776173204E4F54207375A9
:1008A000636365737366756C2C2041637475617442
:1008B0006F7220456E636F6465722052616E67656A
:1008C000203C2032207768656E2073686F756C64F9
:1008D000206265207E3230302D333030002C2041B4
:1008E00063747561746F724F7574657255704F7073
:1008F000746F203D2000486F6D65416374756174AD
:100900006F7220776173204E4F5420737563636557
:10091000737366756C2C2062656361757365206105
:1009200063747561746F727320617265206E6F7489
:1009300020626F74682075702E2020416374756189
:10094000746F72496E6E657255704F70746F203D92
:1009500020005375626F7074696D616C206F7269ED
:10096000656E746174696F6E2C207265636F6D6D56
:10097000656E6420666C6970206163747561746F64
:100980007220313830206465677265657320736F3B
:100990002074686174206D617820746F7271756560
:1009A000206973206F6E206F7574657220736C6F91
:1009B00074732073696E6365207468657927726546
:1009C0002075736564206D6F7265206F6674656E47
:1009D0002E00476F6F64206F7269656E7461746971
:1009E0006F6E2C206D617820746F72717565206F49
:1009F0006E206F7574657220736C6F7473207369E9
:100A00006E63652074686579277265207573656407
:100A1000206D6F7265206F6674656E2E002C20410C
:100A200063747561746F72446972656374696F6E23
:100A3000496E6E6572446F776E4F7574657255704E
:100A4000203D2000456E64206F6620486F6D696E02
:100A500067204163747561746F722C20456E636FFB
:100A6000646572203D200046696E616C20416374AC
:100A70007561746F7220706F736974696F6E206135
:100A80006674657220686F6D6520746F2030206910
:100A9000732000436F6E6669726D696E67206E65C4
:100AA0007720706F736974696F6E20697320002CF2
:100AB00020736F206E657720706F736974696F6E35
:100AC00020697320002C20736F2074616B65207483
:100AD000686520646966666572656E636520696E27
:100AE000207A65726F20706F696E747320616E6416
:100AF0002061646A757374206974206279200043F0
:100B0000757272656E746C7920617420002C20738C
:100B10006F20736574207A65726F20706F696E74D0
:100B2000206265747765656E207468652074776FE0
:100B30002C206174200020746F2000416374756163
:100B4000746F7220456E636F6465722072616E67A8
:100B50006520697320004163747561746F7220456C
:100B60006E636F6465722052616E6765203C20324F
:100B7000207768656E2073686F756C6420626520ED
:100B80007E3230302D3330302E20436865636B2049
:100B90004163747561746F7220456E636F64657232
:100BA0002057697265732028342070696E20636F46
:100BB0006E6E6563746F72292E2020496620616312
:100BC000747561746F727320646964206E6F742031
:100BD0006D6F76652C20636865636B206163747547
:100BE00061746F72206D6F746F72207769726573B4
:100BF0002028322070696E20636F6E6E6563746F9B
:100C000072292E00426F7468206163747561746F7D
:100C100072206F70746F73207265616420646F77E7
:100C20006E202D207468697320697320616E2065C1
:100C300072726F7220636173652E2020476F696E38
:100C40006720746F2073746F7020616E642072650A
:100C50007475726E206661696C757265206F6E20A6
:100C6000486F6D654163747561746F7221005374D0
:100C7000616C6C6564206D6F7265207468616E20B4
:100C800035302074696D65732C2065786974696EE0
:100C9000672074686973206C6F6F702E00537461E5
:100CA0006C6C656421204E65656420746F20676FED
:100CB00020696E206F746865722064697265637460
:100CC000696F6E206E6F772C20616E64207265767E
:100CD00065727365206C6F6769632E004F7574656C
:100CE000722075702C20696E6E657220646F776E4D
:100CF000202D20736F206D6F766520696E6E657292
:100D000020757020666972737420746F206D616B3A
:100D100065206F7574657220676F20646F776E0051
:100D2000095573696E672072657665727365642014
:100D30006C6F6769632C2077616974656420666FE6
:100D40007220496E6E657220746F20676F20646F29
:100D5000776E20686572652073696E6365206F75B4
:100D60007465722077656E7420646F776E20696E8B
:100D70002070726576696F7573206C6F6F702E00CE
:100D80005374616C6C6564206D6F7265207468616A
:100D90006E2035302074696D65732C206578697418
:100DA000696E672074686973206C6F6F702E0053D2
:100DB00074616C6C656421204E65656420746F20DD
:100DC000676F20696E206F74686572206469726550
:100DD0006374696F6E206E6F772C20616E64207271
:100DE000657665727365206C6F6769632E00094FC5
:100DF000757465722077656E7420646F776E2077E6
:100E000068656E20657870656374696E6720696EC9
:100E10006E65722E2020526576657273696E67204A
:100E20006C6F6769632E0009496E6E657220646F8E
:100E3000776E2C2073746F7070696E6720666972AC
:100E40007374206C6F6F70004163747561746F729E
:100E50004F7574657255704F70746F20697320649C
:100E60006F776E20616C72656164792E20204D6F02
:100E700076696E6720697420757020616E64204900
:100E80006E6E657220646F776E2E00426F746820FC
:100E90006172652075702C20636F756C6420676FBC
:100EA0002065697468657220646972656374696F2E
:100EB0006E2E202043686F6F73696E6720496E6ED7
:100EC000657220446F776E2E002C2041637475612B
:100ED000746F72446972656374696F6E496E6E6592
:100EE00072446F776E4F757465725570203D2000A7
:100EF0005374617274206F6620486F6D696E67204D
:100F00004163747561746F722C20456E636F646504
:100F100072203D2000486F6D65486F6C6550756E9E
:100F20006368207761732073756363657373667597
:100F30006C212020426F746820686F6C652070758A
:100F40006E6368206F70746F7320726561642073C4
:100F50006166652E002C204469644F757465724F7C
:100F600070746F546F67676C6550726F7065726CE8
:100F700079203D20002C20446964496E6E65724FD3
:100F800070746F546F67676C6550726F7065726CC8
:100F900079203D20002C20486F6C6550756E636889
:100FA0004F75746572536166654F70746F203D2094
:100FB00000486F6D65486F6C6550756E636820778B
:100FC0006173204E4F542073756363657373667548
:100FD0006C2C206265636175736520686F6C652099
:100FE00070756E6368206F70746F73206172652016
:100FF0006E6F7420626F746820736166652C206F59
:101000007220696E6E6572206F72206F75746572E2
:10101000206F70746F20646964206E6F7420746F29
:1010200067676C6520647572696E6720686F6D69AB
:101030006E672E0A486F6C6550756E6368496E6EF8
:101040006572536166654F70746F203D200046697C
:101050006E616C20486F6C652050756E63682070FF
:101060006F736974696F6E20616674657220686F52
:101070006D6520746F20302069732000436F6E66A9
:1010800069726D696E67206E657720706F73697421
:10109000696F6E20697320002C20736F206E657756
:1010A00020706F736974696F6E20697320002C2043
:1010B000736F2074616B652074686520646966666F
:1010C0006572656E636520696E207A65726F207047
:1010D0006F696E747320616E642061646A757374E5
:1010E000206974206279200043757272656E746C99
:1010F0007920617420002C20736F20736574207A2E
:1011000065726F20706F696E7420626574776565B3
:101110006E207468652074776F2C20617420002025
:10112000746F2000486F6C652050756E63682045B1
:101130006E636F6465722072616E676520697320EB
:1011400000486F6C652050756E636820456E636F54
:101150006465722052616E6765203C20322077689A
:10116000656E2073686F756C64206265207E323016
:10117000302D3330302E20436865636B204163741B
:101180007561746F7220456E636F64657220576974
:101190007265732028342070696E20636F6E6E65EF
:1011A00063746F72292E2020496620616374756113
:1011B000746F727320646964206E6F74206D6F7633
:1011C000652C20636865636B206163747561746F5F
:1011D00072206D6F746F7220776972657320283288
:1011E0002070696E20636F6E6E6563746F72292E56
:1011F00000426F746820686F6C652070756E63685C
:10120000206F70746F73207265616420646F776EF5
:10121000202D207468697320697320616E206572C7
:10122000726F7220636173652E2020476F696E674D
:1012300020746F2073746F7020616E642072657407
:1012400075726E206661696C757265206F6E2048DC
:101250006F6D65486F6C6550756E6368210057450A
:1012600020474F5420544F20454E44204F4620489D
:101270004F4D4520484F4C452050554E4348204C3B
:101280004F4F5020574954484F555420494E4E45D2
:1012900052204F50544F20544F47474C494E4721FE
:1012A0002020436865636B20496E6E657220486F2D
:1012B0006C6550756E6368204F70746F20666F7236
:1012C0002066756E6374696F6E616C6974792E0047
:1012D000574520474F5420544F20454E44204F46F9
:1012E00020484F4D4520484F4C452050554E4348CF
:1012F000204C4F4F5020574954484F5554204F557C
:10130000544552204F50544F20544F47474C494E5C
:1013100047212020436865636B204F7574657220F8
:10132000486F6C6550756E6368204F70746F2066EF
:101330006F722066756E6374696F6E616C69747923
:101340002E004F7574657220736166652C20736F73
:101350002073746172742070756E6368696E6720A3
:10136000696E776172642077697468206F7574653F
:10137000722E00574520474F5420544F20454E446D
:10138000204F4620484F4D4520484F4C4520505552
:101390004E4348204C4F4F5020574954484F5554C6
:1013A000204F55544552204F50544F20544F4747DB
:1013B0004C494E47212020436865636B204F75746C
:1013C000657220486F6C6550756E6368204F70744D
:1013D0006F20666F722066756E6374696F6E616CE4
:1013E0006974792E00574520474F5420544F2045AB
:1013F0004E44204F4620484F4D4520484F4C4520F5
:1014000050554E4348204C4F4F5020574954484F59
:10141000555420494E4E4552204F50544F20544F62
:1014200047474C494E47212020436865636B20495C
:101430006E6E657220486F6C6550756E6368204FE4
:1014400070746F20666F722066756E6374696F6E5C
:10145000616C6974792E00496E6E657220736166E5
:10146000652C20736F20676F20696E77617264202E
:101470007769746820696E6E657200486F6D696E79
:101480006720486F6C652050756E63682C20456E30
:10149000636F646572203D200046696E616C205266
:1014A0004742204F75743A09005269676874436F68
:1014B0006C6F7250756C7365496E3A09004C6566C5
:1014C00074436F6C6F7250756C7365496E3A0900A6
:1014D0004661696C656420746F2067657420337899
:1014E0002064697374616E63652072656164696EFE
:1014F000677320696E2052656164436F6C6F72532D
:10150000656E736F72732C20617373756D696E678E
:101510002063656E74657265642E000941766752BA
:10152000616E67653A09000952616E6765333A0971
:10153000000952616E6765323A090052616E676553
:10154000313A0900446F2066756C6C205748495445
:10155000452072656164696E6700446F20616D6249
:1015600069656E74206C696768742072656164696E
:101570006E672077697468204E656F506978656C76
:1015800073204F464600436F6C6F722073656E7315
:101590006F7273206E6F7420696E7374616C6C650A
:1015A000642C2064656661756C74696E6720746F65
:1015B00020524742282D312C2D312C2D3129000A63
:1015C0004C6F61642043656C6C2053616D706C6975
:1015D0006E67206661696C7572652C205265616466
:1015E000696E6773206E6F742077697468696E2006
:1015F00037352E30206772616D7320696E20302E72
:1016000031207365632E2053616D706C65732028E3
:10161000313078204144432076616C7565732066D3
:10162000697273742C207468656E2031307820697B
:101630006E206772616D73293A0900094E65772043
:1016400053616D706C65733A09000A54776F2042DC
:1016500061642053616D706C65732C20676F696ED7
:101660006720746F207265706C61636520776974A0
:10167000682032206E65772073616D706C65733AF7
:1016800009000A54776F204261642053616D706CC9
:101690006573206661696C7572652C20676F696E71
:1016A0006720746F207265706C6163652077697460
:1016B000682032206E65772073616D706C65733AB7
:1016C00009002A2A2A4641494C45442A2A2A002A46
:1016D0002A2A5041535345442A2A2A0054617267EA
:1016E0006574206973206C657373207468616E2063
:1016F000302E312067202F20313030206D672C2094
:10170000736F207468697320746573742000417668
:10171000657261676520446966666572656E6365BA
:1017200020286D67293A200041766572616765203F
:10173000446966666572656E6365202867293A208C
:101740000041766572616765205765696768743A1C
:1017500020004D6561737572696E67206C6F6164FE
:101760002063656C6C206E6F6973652C203230309D
:101770002073616D706C65732C2073616D706C6586
:1017800073207065722072656164696E67203D2008
:101790000009616C69676E6D656E740900094765C3
:1017A000744F7574657252656C6F6164536C6F74BD
:1017B0000900436865636B696E67204F75746572D5
:1017C00052656C6F61644973416C69676E6564282A
:1017D000293A204765744F7574657252656C6F6164
:1017E00064536C6F744173466C6F617409000961D6
:1017F0006C69676E6D656E74090009476574496EA2
:101800006E657252656C6F6164536C6F740900434E
:101810006865636B696E6720496E6E657252656CB0
:101820006F61644973416C69676E656428293A2069
:10183000476574496E6E657252656C6F6164536C76
:101840006F744173466C6F6174090009496E6E656F
:1018500072536C6F745F48696768203D2009004FC0
:1018600075746572536C6F745F48696768203D20BA
:10187000090009496E6E6572536C6F745F4C6F7727
:10188000203D2009004F75746572536C6F745F4C76
:101890006F77203D20090009496E6E6572536C6FA9
:1018A00074203D2009004F75746572536C6F74206D
:1018B0003D20090009446F6F724F70656E65644585
:1018C0006E636F64657253746570706572506F7388
:1018D0005F4C6F77203D20090009446F6F724F7095
:1018E000656E6564456E636F646572537465707090
:1018F0006572506F735F48696768203D2009004436
:101900006F6F724F70656E6564456E636F6465726C
:1019100053746570706572506F73203D2009000923
:101920004163747561746F724F7574657255704F51
:1019300070746F203D200900094163747561746FF4
:1019400072496E6E657255704F70746F203D20093C
:1019500000094361726F7573656C486F6D65203D5A
:10196000200900094163747561746F72506F7320B0
:101970003D20090009414D54323232506F73697471
:10198000696F6E090009414D54323033506F7369ED
:1019900074696F6E0900094361726F7573656C44F9
:1019A0007269766572506F736974696F6E0900436E
:1019B00061726F7573656C456E636F646572506FAD
:1019C000736974696F6E0900484F4D494E47204452
:1019D0004944204E4F5420574F524B2050524F50A5
:1019E00045524C59212020574520415245204E4F09
:1019F000542041542054484520484F4D45434152BE
:101A00004F5553454C204F50544F2042555420536E
:101A1000484F554C4420424521204F722077652085
:101A20006E65766572206D6F766564206F666620E0
:101A30006F662069742070726F7065726C792E20E9
:101A40004F72206D6F746F7220656E636F64657284
:101A5000206F722063656E74657220656E636F64BB
:101A60006572206973206261642E20536565206D64
:101A7000657373616765732061626F76652E0048D8
:101A80006F6D654361726F7573656C2073657175F9
:101A9000656E6365207375636365737366756C2E1D
:101AA00000094163747561746F724F757465725586
:101AB000704F70746F203D20090009416374756197
:101AC000746F72496E6E657255704F70746F203D01
:101AD000200900094361726F7573656C486F6D650D
:101AE000203D20090009616363656C537465707063
:101AF00065722E63757272656E74506F7369746966
:101B00006F6E2829203D200900537465707065723E
:101B1000506F7330203D20090053746570706572FA
:101B2000206D6F746F72206E6F7420706F776572A6
:101B30006564206F72206E6F74206D6F76696E67BA
:101B4000202D20636C6F73652072656C6F6164205B
:101B5000646F6F7220616E642074727920616761B6
:101B6000696E2E0009486F6D654361726F7573650C
:101B70006C456E636F646572506F736974696F6EE4
:101B8000203D20090009486F6D654361726F7573D0
:101B9000656C53746570706572506F736974696FAA
:101BA0006E203D200900096669727374486F6D6587
:101BB0004361726F7573656C456E636F64657250D7
:101BC0006F736974696F6E203D20090066697273D6
:101BD00074486F6D654361726F7573656C5374659E
:101BE00070706572506F736974696F6E203D200963
:101BF0000043656E7465724D6F746F72456E636FEE
:101C0000646572206973206261642C20697420739A
:101C1000686F756C642068617665206D6F766564A9
:101C2000203533206F72203733202831302D393062
:101C3000292062757420696E7374656164206D6F0C
:101C40007665642043656E746572456E636F646586
:101C500072446966666572656E6365203D20004367
:101C600061726F7573656C4D6F746F72456E636FE3
:101C7000646572206973206261642C20697420732A
:101C8000686F756C642068617665206D6F76656439
:101C9000203735202836352D3835292062757420B7
:101CA000696E7374656164206D6F7665642043614D
:101CB000726F7573656C456E636F646572446966B7
:101CC000666572656E6365203D20000943656E742C
:101CD0006572456E636F64657244696666657265B8
:101CE0006E6365203D200900094361726F7573655D
:101CF0006C456E636F646572446966666572656E95
:101D00006365203D200900094F6666486F6D654395
:101D1000656E746572456E636F646572506F73694A
:101D200074696F6E203D200900094F6666486F6D2B
:101D3000654361726F7573656C456E636F64657240
:101D4000506F736974696F6E203D200900094F66FA
:101D500066486F6D6553746570706572506F736916
:101D600074696F6E203D20090009666972737448BA
:101D70006F6D6543656E746572456E636F64657201
:101D8000506F736974696F6E203D200900096669A0
:101D9000727374486F6D654361726F7573656C45DE
:101DA0006E636F646572506F736974696F6E203D06
:101DB000200900436865636B696E6720656E636F19
:101DC000646572733A206669727374486F6D654317
:101DD00061726F7573656C53746570706572506F66
:101DE000736974696F6E203D2009005374616C6CD7
:101DF000696E672064657465637465642C2064692A
:101E0000646E2774206D6F7665206174206C656147
:101E10007374203520656E636F64657220636F751F
:101E20006E747320696E2031207365632E00546FC9
:101E30006F206D616E7920476F546F506F736974B6
:101E4000696F6E2072657472696573202D206572EA
:101E5000726F72696E67206F75742077697468207D
:101E60006D69736D61746368206265747765656E12
:101E700020414D5431303220616E6420414D543246
:101E800030332F414D54323232206F72206A7573D5
:101E900074206469646E27742067657420746F20F1
:101EA0007461726765742E20476F546F506F736949
:101EB00074696F6E204661696C7572652E0052659B
:101EC000686F6D696E67207375636365737366759C
:101ED0006C2C20676F696E6720746F207472792094
:101EE00074686520476F546F506F736974696F6EC3
:101EF00020616761696E2E005265686F6D696E675B
:101F0000206661696C65642C20676976696E67205C
:101F10007570206F6E20746865206361726F7573D1
:101F2000656C206D6F76656D656E742E0043656E11
:101F300074657220656E636F646572206D69736D80
:101F4000617463682C20676F696E6720746F2072FC
:101F500065686F6D6520746865206361726F757365
:101F6000656C20616E642074727920616761696EAE
:101F7000005265747279696E6720746865206361C8
:101F8000726F7573656C206D6F76656D656E74200C
:101F900064756520746F2063656E74657220656E6C
:101FA000636F646572206D69736D61746368202D61
:101FB00020736C697070696E672063656E746572FA
:101FC00020656E636F6465722E204C696D697420A4
:101FD0006F6620363520616E642061637475616CB4
:101FE000206F6620005265747279696E672074688C
:101FF00065206361726F7573656C206D6F76656DBA
:10200000656E742064756520746F207374657070DC
:102010006572206D6F746F7220656E636F64657298
:10202000206D69736D61746368202D206C696B6528
:102030006C79207374616C6C6564206D6F746F7261
:102040002C20746F6F2068656176792C20746F6F17
:10205000206D756368206672696374696F6E2C20E9
:102060006F7220626164206D6F746F72206D6F7586
:102070006E7420616C69676E6D656E742F7370721B
:10208000696E672E204C696D6974206F662032304E
:1020900020616E642061637475616C206F6620003E
:1020A000414D5432323220456E636F646572205068
:1020B0006F736974696F6E204572726F72206F66FC
:1020C000200054617267657420414D5432323220D1
:1020D000456E636F64657220506F736974696F6ECB
:1020E000206F66200043757272656E7420414D54F6
:1020F00032323220456E636F64657220506F7369AF
:1021000074696F6E206F662000414D543230332069
:10211000456E636F64657220506F736974696F6E8A
:10212000204572726F72206F66200054617267657D
:102130007420414D5432303320456E636F646572B4
:1021400020506F736974696F6E206F66200043754D
:102150007272656E7420414D5432303320456E6387
:102160006F64657220506F736974696F6E206F665B
:1021700020005374657070657220456E636F6465EE
:102180007220506F736974696F6E204572726F723E
:10219000206F66200043757272656E7420537465FB
:1021A0007070657220456E636F64657220506F7346
:1021B0006974696F6E206F66200053746570706576
:1021C000722044726976657220506F736974696F0A
:1021D0006E204572726F72206F66200043757272B6
:1021E000656E7420537465707065722044726976F0
:1021F000657220506F736974696F6E206F6620007E
:102200004361726F7573656C206D6F76656D656E79
:1022100074206661696C6564202D2073746F707022
:10222000696E672E2020456974686572206E6F2084
:102230006D6F76656D656E7420617420616C6C20C5
:10224000283C352073746570732073696E63652054
:102250006C61737420353030206D736563292C20D8
:102260006F7220706F736974696F6E206465766930
:102270006174696F6E2066726F6D20776865726534
:102280002073686F756C64206265207673207768B0
:1022900065726520617265206261736564206F6E8E
:1022A00020656E636F6465722E0046696E616C20F6
:1022B00052657472792023342C206C6F77657269B3
:1022C0006E6720616363656C65726174696F6E200F
:1022D000616E642072616973696E67206D6F7665E7
:1022E0002063757272656E742E0052657472792067
:1022F00023332C206C6F776572696E67206163638E
:10230000656C65726174696F6E20616E64207261C4
:102310006973696E67206D6F76652063757272658B
:102320006E742E0052657472792023322C206C6FEB
:10233000776572696E6720616363656C657261744D
:10234000696F6E20616E642072616973696E6720C7
:102350006D6F76652063757272656E742E005265BE
:102360007472792023312C206C6F776572696E67E7
:1023700020616363656C65726174696F6E20616E64
:10238000642072616973696E67206D6F7665206382
:10239000757272656E742E002E2044697374616EBE
:1023A000636546726F6D546172676574203D2000ED
:1023B000292043616C6C65642C2043757272656ED4
:1023C0007420506F736974696F6E203D2000476FF1
:1023D000546F506F736974696F6E456E636F646597
:1023E0007228002E2044697374616E636546726FB3
:1023F0006D546172676574203D2000292043616C33
:102400006C65642C2043757272656E7420506F7316
:102410006974696F6E203D2000476F546F506F7371
:102420006974696F6E280044697374616E636546F0
:10243000726F6D5461726765744D696E7573203D7E
:1024400020090044697374616E636546726F6D5450
:102450006172676574506C7573203D200900446992
:102460007374616E636546726F6D546172676574F3
:10247000203D20090043757272656E74506F736958
:1024800074696F6E203D2009005461726765745055
:102490006F736974696F6E203D2009005472796909
:1024A0006E6720746F20486F6D654361726F75733E
:1024B000656C2C2073696E63652069742068617394
:1024C0006E2774207375636365737366756C6C79BE
:1024D00020686F6D6564207965742E00496E7661A1
:1024E0006C696420736C6F74206E756D6265722008
:1024F000666F7220333520736C6F7420646973705B
:10250000656E7365723A20536C6F742000496E7665
:10251000616C696420736C6F74206E756D62657296
:1025200020666F7220333520736C6F74206469737A
:1025300070656E73657200496E76616C69642073B4
:102540006C6F74206E756D6265722000524649444E
:102550002072617720646174613A200052464944D8
:102560002063617264206E756D6265723A20002C82
:1025700020466F756E64203D2000524649444C6FE2
:102580006F702000436865636B696E67205246492F
:10259000442053656E736F723A00206F6620000A04
:1025A0000A4379636C6520004F766572616C6C201C
:1025B000726573756C74203D202A2A2A4641494C65
:1025C00045442A2A2A004F766572616C6C20726538
:1025D00073756C74203D202A2A2A50415353454478
:1025E0002A2A2A004E756D626572206F66206D6F13
:1025F00076656D656E74206661696C7572657320B1
:102600003D20004E756D626572206F66206D6F769D
:10261000656D656E742072657472696573203D2006
:1026200000206379636C65732E000A0A46696E693F
:1026300073686564204379636C6520546573742006
:102640006F6620006E756D4661696C7572657320EA
:102650003D20006E756D52657472696573203D2072
:102660000053756363657373203D200067476F54A3
:102670006F506F736974696F6E52657472696573B8
:10268000203D2000476F546F44697370656E736519
:10269000536C6F74203D20006E756D4661696C75DA
:1026A000726573203D20006E756D526574726965A8
:1026B00073203D200053756363657373203D2000D4
:1026C00067476F546F506F736974696F6E526574AA
:1026D00072696573203D2000476F546F44697370C1
:1026E000656E7365536C6F74203D20005E646F6F80
:1026F000725F6F70656E65643A307C3A24005E6488
:102700006F6F725F6F70656E65643A307C3A24005B
:102710005E646F6F725F636C6F7365643A307C3AAE
:1027200024005E646F6F725F636C6F7365643A3030
:102730007C3A240052657363616E204C6566746F49
:10274000766572203D200052657363616E2057727A
:102750006170203D200052657363616E204C656698
:10276000746F766572203D200052657363616E2040
:102770004E6F2057726170203D2000526573636177
:102780006E204C6566746F766572203D2000526540
:102790007363616E2057726170203D200052657333
:1027A00063616E204C6566746F766572203D200013
:1027B00052657363616E204E6F2057726170203DC9
:1027C000200052657363616E20416C6C203D2000D7
:1027D0003A24005E6F7665723A317C003A24005EDE
:1027E0006F7665723A317C005E70617573653A0090
:1027F0005E72657365743A005E63616E63656C3A20
:10280000005E70617573653A005E72657365743A57
:10281000005E63616E63656C3A003A24005E6D6928
:1028200073733A317C003A24005E6D6973733A31F8
:102830007C003A24005E7365745F7363616C655F4E
:102840006C6564735F726573703A327C7375636331
:102850006573733A003A24005E7365745F73636155
:102860006C655F6C6564735F726573703A327C731C
:102870007563636573733A007365745F7363616C4A
:10288000655F6C656473006F66660066696E697388
:1028900068656400616C6572740064697370656E6C
:1028A00073696E67006469737000626F776C0061B2
:1028B00063746976650069646C650056616C756562
:1028C000207061737365643D00496E207365745FA9
:1028D0007363616C655F6C65647321003A24005E0C
:1028E00064656D6F5F726573703A327C7375636394
:1028F0006573733A003A24005E64656D6F5F7265BC
:1029000073703A327C737563636573733A00646500
:102910006D6F0056616C7565207061737365643D01
:1029200000496E2064656D6F2066756E6374696F13
:102930006E21005E70696E673A307C3A24005E70EA
:10294000696E673A307C3A24005E646F6F725F751F
:102950006E6C6F636B5F726573703A317C73756315
:10296000636573733A24005E646F6F725F756E6C9B
:102970006F636B5F726573703A317C737563636507
:1029800073733A2400646F6F725F756E6C6F636B64
:10299000006C6F636B656400756E6C6F636B656470
:1029A000006C6F636B656400756E6C6F636B656460
:1029B00000203D2000416674657220556E6C6F6387
:1029C0006B696E672C2052656C6F6164446F6F7227
:1029D000556E6C6F636B53656E736550696E203D09
:1029E0002000203D20004265666F726520556E6CA8
:1029F0006F636B696E672C2052656C6F6164446F06
:102A00006F72556E6C6F636B53656E736550696E54
:102A1000203D2000496E20646F6F725F756E6C6F91
:102A2000636B2066756E6374696F6E21005E63610F
:102A300062696E65745F6C6F636B5F726573703A29
:102A4000317C737563636573733A24005E636162FE
:102A5000696E65745F6C6F636B5F726573703A313A
:102A60007C737563636573733A2400636162696E96
:102A700065745F6C6F636B004166746572204C6FA8
:102A8000636B696E672C2045787465726E616C4467
:102A90006F6F72556E6C6F636B53656E73655069C3
:102AA0006E3A20004265666F7265204C6F636B69F9
:102AB0006E672C2045787465726E616C446F6F721E
:102AC000556E6C6F636B53656E736550696E3A201B
:102AD00000496E20636162696E65745F6C6F636B41
:102AE0002066756E6374696F6E21005E6361626952
:102AF0006E65745F756E6C6F636B5F726573703A51
:102B0000317C737563636573733A24005E6361623D
:102B1000696E65745F756E6C6F636B5F7265737001
:102B20003A317C737563636573733A240063616241
:102B3000696E65745F756E6C6F636B00416674657A
:102B40007220556E6C6F636B696E672C20457874CC
:102B500065726E616C446F6F72556E6C6F636B5310
:102B6000656E736550696E3A20004265666F7265E6
:102B700020556E6C6F636B696E672C2045787465A9
:102B8000726E616C446F6F72556E6C6F636B5365E0
:102B90006E736550696E3A2000496E206361626908
:102BA0006E65745F756E6C6F636B2066756E6374B3
:102BB000696F6E210072656D6F76656400696E7372
:102BC0006572746564003A240072656D6F766564A1
:102BD00000696E736572746564005E776970657212
:102BE0005F7374617475735F726573703A317C00E2
:102BF0003A24005E77697065725F737461747573EF
:102C00005F726573703A317C0077697065725F73CB
:102C10007461747573005769706572496E7365727B
:102C2000746564203D20003A24005E706F736974FF
:102C3000696F6E5F63616E69737465725F726570F0
:102C40006C6163655F726573703A327C6661696C52
:102C50007572653A003A24005E706F736974696F2B
:102C60006E5F63616E69737465725F7265706C61CB
:102C700063655F726573703A327C6661696C757208
:102C8000653A003A24005E706F736974696F6E5F15
:102C900063616E69737465725F7265706C616365A0
:102CA0005F726573703A327C737563636573733AF0
:102CB000003A24005E706F736974696F6E5F6361C0
:102CC0006E69737465725F7265706C6163655F7263
:102CD0006573703A327C737563636573733A007021
:102CE0006F736974696F6E5F63616E697374657227
:102CF0005F7265706C6163650056616C756520700C
:102D000061737365643D00496E20706F7369746907
:102D10006F6E2063616E6973746572207265706C8A
:102D20006163652066756E6374696F6E2100496E1C
:102D30002070617573652066756E6374696F6E21AE
:102D4000005E72657363616E5F7374617274656453
:102D50003A307C3A24005E72657363616E5F73740F
:102D600061727465643A307C3A24005E7265736304
:102D7000616E5F66696E69736865643A307C3A2497
:102D8000005E72657363616E5F66696E6973686524
:102D9000643A307C3A24005E72657363616E5F63EF
:102DA000616E6973746572735F726573703A317CBA
:102DB0006661696C7572653A24005E726573636161
:102DC0006E5F63616E6973746572735F7265737051
:102DD0003A317C6661696C7572653A2400486176A7
:102DE0006557655375636365737366756C6C794875
:102DF0006F6D65644361726F7573656C4265666F74
:102E00007265203D2000486F6D6541637475617483
:102E10006F72537563636573734F6E53746172742D
:102E20007570203D200053616665546F526F746168
:102E300074654361726F7573656C2829203D2000AD
:102E400052656C6F6164446F6F724F70656E203DA8
:102E500020005E72657363616E5F63616E69737497
:102E60006572735F726573703A317C737563636505
:102E700073733A24005E72657363616E5F63616EA3
:102E80006973746572735F726573703A317C7375C0
:102E900063636573733A24002152656C6F61644407
:102EA0006F6F724F70656E202626205361666554E1
:102EB0006F526F746174654361726F7573656C28CE
:102EC0002920262620486F6D654163747561746FF3
:102ED00072537563636573734F6E53746172747567
:102EE00070202626204861766557655375636365B3
:102EF000737366756C6C79486F6D65644361726F4E
:102F00007573656C4265666F7265203D2000556E75
:102F100061626C6520746F2072657363616E2063FB
:102F2000616E6973746572732064756520746F20B7
:102F30007468697320636865636B206661696C6996
:102F40006E673A00547279696E6720746F20486F1B
:102F50006D654361726F7573656C2C2073696E6368
:102F600065206974206861736E27742073756363CC
:102F700065737366756C6C7920686F6D6564207914
:102F800065742E00496E2072657363616E5F6361C4
:102F90006E6973746572732066756E6374696F6EA3
:102FA0002100626C61636B007768697465005E7212
:102FB000657365745F726573703A317C73756363B2
:102FC0006573733A24005E72657365745F7265732E
:102FD000703A317C737563636573733A2400496E8C
:102FE0002072657365742066756E6374696F6E21F7
:102FF000005E63616E63656C5F726573703A317C0D
:10300000737563636573733A24005E63616E636511
:103010006C5F726573703A317C737563636573734B
:103020003A2400496E2063616E63656C2066756E9C
:103030006374696F6E2100496E20726573756D65EA
:103040005F66756E6374696F6E2066756E63746912
:103050006F6E21003A24005E73797374656D5F634F
:103060006865636B5F726573703A317C00496E20EE
:1030700073797374656D5F636865636B2066756EE5
:103080006374696F6E21003A24005E737461747515
:10309000735F726573703A317C003A24005E73741A
:1030A000617475735F726573703A317C0052656C40
:1030B0006F6164446F6F72556E6C6F636B53656EB6
:1030C000736550696E203D20005769706572496EC6
:1030D000736572746564203D200009486F6C65500B
:1030E000756E63684F75746572536166654F707471
:1030F0006F203D200009486F6C6550756E6368490C
:103100006E6E6572536166654F70746F203D20006E
:10311000656E636F646572486F6C6550756E636849
:103120004D6F746F72506F73203D200009416374BE
:103130007561746F724F7574657255704F70746FEE
:10314000203D2000094163747561746F72496E6E91
:10315000657255704F70746F203D20004163747527
:1031600061746F72456E636F646572203D2000412B
:10317000313420414D49532D33303534332056649A
:10318000642052656C6F6164446F6F72436C6F733F
:103190006564203D200043757272656E742057652A
:1031A000696768743A0900496E20737461747573B5
:1031B0005F66756E6374696F6E2066756E637469A1
:1031C0006F6E21005E626F776C5F77656967687408
:1031D0005F726573703A327C737563636573733ABB
:1031E000005E626F776C5F7765696768745F7265B0
:1031F00073703A327C737563636573733A005E6211
:103200006F776C5F7765696768745F726573703A32
:10321000327C6661696C7572653A005E626F776CCC
:103220005F7765696768745F726573703A327C6650
:1032300061696C7572653A002C2053616D706C6524
:103240007320776572653A2000426F776C2077654E
:1032500069676874204E4F5420534554544C45447C
:103260002C20736F2072657475726E204661696CD4
:10327000757265206275742072657475726E204176
:1032800062736F6C75746557656967687420616EE9
:10329000797761792C204162736F6C75746557651D
:1032A00069676874203D20004E6577205246494486
:1032B000207461672064657465637465642C207490
:1032C000686579206D757374206861766520737701
:1032D000617070656420626F776C732C20736F204F
:1032E0007765206E65656420746F2073656E642059
:1032F000626F776C5F706C61636564206E6F7720BE
:103300006265666F726520626F776C5F776569676B
:1033100068745F726573702E005246494420746170
:103320006773206D617463682C206E6F206E656515
:103330006420746F207468726F7720626F776C5F9F
:10334000706C61636564206576656E74003A240074
:103350003A005E63616C6962726174655F73636198
:103360006C655F726573703A337C73756363657304
:10337000733A003A24003A005E63616C69627261DC
:1033800074655F7363616C655F726573703A337CFB
:10339000737563636573733A004166746572207375
:1033A00068696674696E67205363616C655F436129
:1033B0006C6962726174696F6E202873686F756CD6
:1033C00064206265207468652073616D65293A2008
:1033D000004265666F7265207368696674696E671E
:1033E000205363616C655F43616C696272617469EB
:1033F0006F6E3A2000416674657220736869667466
:10340000696E67205363616C655F43616C696272CA
:103410006174696F6E5F323030673A2000426566D2
:103420006F7265207368696674696E6720536361A3
:103430006C655F43616C6962726174696F6E5F3263
:103440003030673A200041667465722043616C69D0
:1034500062726174696E6720303A20004265666F5F
:1034600072652043616C6962726174696E672030B5
:103470003A2000496E2063616C6962726174655F15
:103480007363616C655F73686966745F7A65726F98
:103490002066756E6374696F6E21005E70756E6371
:1034A000685F686F6C655F726573703A317C6661E6
:1034B000696C7572653A24005E70756E63685F684A
:1034C0006F6C655F726573703A317C6661696C75AB
:1034D00072653A24003A24005E70756E63685F6816
:1034E0006F6C655F726573703A327C737563636588
:1034F00073733A24003A24005E70756E63685F68E7
:103500006F6C655F726573703A327C737563636567
:1035100073733A0070756E63685F686F6C65004323
:103520006C656172696E6720616C6C20496E6974AC
:1035300069616C4163747561746F72506F73697403
:10354000696F6E735B5D20616E64205365726961A3
:103550006C4E756D6265724861734265656E446953
:103560007370656E7365645B5D2E00206F757420EB
:103570006F6620626F756E64732C2063616E6E6F70
:103580007420736574207468697320696E20746890
:103590006520454550524F4D2E00736C6F745F6E21
:1035A000756D62657220002920746F20005D2028EF
:1035B000736C6F74200053657474696E6720496E74
:1035C000697469616C4163747561746F72506F7373
:1035D0006974696F6E735B0046696E616C20656E1D
:1035E000636F646572203D200041667465722062DD
:1035F00072616B652C20656E636F646572203D207F
:10360000004465736972656420706F736974696FD3
:103610006E203D20004163747561746F7252657451
:1036200075726E546F486F6D65466173742C2042DD
:1036300065666F726520456E636F646572203D201C
:1036400000436865636B2063656E74657220656E08
:10365000636F64657220666F72206C6F6F73656E46
:103660006573732F736C697070696E67202D2065A8
:103670006974686572207468652079656C6C6F7711
:1036800020696E736572742068617320636F6D6565
:10369000206C6F6F73652066726F6D207468652093
:1036A00073686166742C2068617320706F70706538
:1036B00064206F7574206F662063656E7465722078
:1036C000656E636F6465722C206F7220746865206C
:1036D00077686F6C6520656E636F646572206974CE
:1036E00073656C662068617320746F6F206D7563FD
:1036F0006820776967676C6520746F206974206F34
:10370000722069736E277420736561746564207715
:10371000656C6C2E002A2A2A4641494C45442A2AC7
:103720002A002A2A2A5041535345442A2A2A004172
:1037300074206C65617374206F6E65206F662074F1
:103740006865206361726F7573656C206D6F766557
:103750006D656E7473206661696C65642C20736F8F
:1037600020746869732069732061206661696C75D3
:10377000726520616E64206E6F7420612076616CCA
:1037800069642063656E74657220656E636F64653D
:103790007220736C697070696E6720746573742E23
:1037A000002A2A2A4641494C45442A2A2A005468BC
:1037B00069732076616C75652073686F756C642021
:1037C0006265203C20353020746F20656E73757201
:1037D00065206E6F20736C697070696E672E00448F
:1037E0006966666572656E636520696E2063656EE5
:1037F00074657220656E636F64657220706F7369A3
:1038000074696F6E207768656E206D6F76696E677C
:1038100020636C6F636B7769736520767320636FC9
:10382000756E746572636C6F636B7769736520691D
:1038300073200043656E74657220656E636F646506
:103840007220506F736974696F6E4174536C6F743A
:103850003130434357203D200043656E746572202C
:10386000656E636F64657220506F736974696F6E03
:103870004174536C6F7431304357203D20000A432C
:10388000656E74657220656E636F64657220506F3B
:10389000736974696F6E4174486F6D65203D2000D7
:1038A0002054696D6573004379636C6520546573BA
:1038B00074205246494420446F6E652C205246497C
:1038C00044204D697373696E6720002054696D65EB
:1038D00073004379636C65205465737420524649C4
:1038E0004420446F6E652C20524649442044657440
:1038F000656374656420002054696D65730020540D
:10390000696D65732C2052464944204D6973736973
:103910006E6720004379636C652054657374205290
:103920006573756C747320536F20466172202D206F
:1039300052464944204465746563746564200020E0
:10394000636F6D706C657465642C20486F7572735D
:103950002052656D61696E696E67203D2000206FA1
:103960007574206F6620004379636C6520005246B1
:103970004944204E6F742044657465637465642106
:10398000005E77697065725F72656D6F7665643A27
:10399000307C3A24005E77697065725F72656D6F86
:1039A0007665643A307C3A24005E77697065725FB0
:1039B000696E7365727465643A307C3A24005E7790
:1039C000697065725F696E7365727465643A307CA4
:1039D0003A240066696E697368656400616C65729B
:1039E000740064697370656E73696E6700626F77E7
:1039F0006C006163746976650069646C65003A24E3
:103A0000005E6E61636B3A317C003A24005E6E6149
:103A1000636B3A317C006379636C655F74657374C2
:103A20005F72666964006379636C655F7465737463
:103A30005F616C6C006379636C655F746573745F60
:103A4000686F6C6570756E6368006379636C655F41
:103A5000746573745F6163747561746F727300630E
:103A600079636C655F746573745F6361726F75739E
:103A7000656C00746573745F7363616C655F6E6F12
:103A800069736500746573745F6361726F757365E4
:103A90006C5F656E636F6465727300746573745FE9
:103AA0006361726F7573656C5F6672696374696F69
:103AB0006E007A65726F5F63656E7465725F656EC6
:103AC000636F646572007365745F726669645F6FCB
:103AD00076657272696465006465637265617365B9
:103AE0005F70616E656C5F6272696768746E657342
:103AF0007300696E6372656173655F70616E656C9A
:103B00005F6272696768746E657373007365745F72
:103B100070616E656C5F6272696768746E657373FD
:103B2000006361726F7573656C5F706F7369746940
:103B30006F6E006163747561746F725F636F756E31
:103B4000746572636C6F636B77697365006163742E
:103B50007561746F725F636C6F636B776973650017
:103B60006163747561746F725F72657475726E747F
:103B70006F686F6D6566617374706964006163740A
:103B80007561746F725F72657475726E746F686F51
:103B90006D6566617374006163747561746F725FE3
:103BA000706F736974696F6E006163747561746FAF
:103BB000725F686F6D65007365745F696E697469C3
:103BC000616C5F6163747561746F725F706F73694C
:103BD00074696F6E00636C6561725F6163747561B7
:103BE000746F725F706F736974696F6E73003132D6
:103BF0003334353637383930313233343536373877
:103C00003930313233343536373839303132333474
:103C10003536373839303132333435363738393054
:103C20000070756E63685F686F6C650063616C69D6
:103C300062726174655F7363616C655F7368696606
:103C4000745F7A65726F0063616C6962726174653A
:103C50005F7363616C650076657273696F6E006295
:103C60006F776C5F77656967687400626F776C5F08
:103C70007374617475730073746174757300737910
:103C80007374656D5F636865636B00666F7263650F
:103C9000007363616E5F616C6C00726573756D6556
:103CA0000063616E63656C007265736574007365B3
:103CB000745F64656D6F5F6D6F6465007365745FDD
:103CC0006861735F72656C6F61645F646F6F725F70
:103CD0006C6F636B007365745F626F776C5F6172AA
:103CE00065615F636F6C6F725F7479706500706F90
:103CF0007765725F736176655F6D6F64650072658D
:103D00007363616E5F63616E697374657273007073
:103D10006175736500706F736974696F6E5F63615D
:103D20006E69737465725F7265706C616365007350
:103D300063616E5F626172636F6465006361626993
:103D40006E65745F73746174757300776970657202
:103D50005F73746174757300646F6F725F73746105
:103D600074757300636162696E65745F756E6C6F04
:103D7000636B00636162696E65745F6C6F636B0097
:103D8000646F6F725F756E6C6F636B00646F6F72E0
:103D90005F6C6F636B0064697370656E73655F66FB
:103DA000756C6C5F63616E0064697370656E7365DA
:103DB0005F74696D65640064697370656E73655FD7
:103DC000616C6C0064697370656E73655F776569BB
:103DD0006768740070696E670064656D6F00706F6E
:103DE000736974696F6E5F63616E69737465720085
:103DF0007365745F7363616C655F6C656473007396
:103E000065745F6C656473002D2D2D2D2D2D2D2D6A
:103E10002D2D2D2D2D2D00706172616D33203D20D3
:103E200000706172616D32203D2000706172616DC1
:103E300031203D2000706172616D32203D200070A4
:103E40006172616D31203D2000706172616D3120C1
:103E50003D2000416C6C20746865206461746120B1
:103E600076616C756573203D2000496E74656765E9
:103E700072204E756D506172616D6574657273204C
:103E80003D2000416C6C20506172616D7320506167
:103E90007373656420004D65737361676554797051
:103EA00065203D20002A2A2A2A2A2A2A2A2A2A2A62
:103EB0002A2A2A2A2A2A003A24003A2400303030BA
:103EC0003030303030303000303030303030303022
:103ED0003030005E626F776C5F706C616365643A6E
:103EE000357C005E626F776C5F706C616365643A0D
:103EF000357C00436F6C6F722073656E736F7273E5
:103F0000206E6F7420696E7374616C6C65642C2014
:103F100064656661756C74696E6720746F205247C2
:103F200042282D312C2D312C2D3129005E626F77E6
:103F30006C5F72656D6F7665643A307C3A24005E22
:103F4000626F776C5F72656D6F7665643A307C3A4C
:103F5000240044697374616E63652073656E736FCA
:103F600072207265616420564C36313830585F4596
:103F700052524F525F4E4F434F4E56455247452C7B
:103F800020736F207468726F77696E6720626F7735
:103F90006C5F72656D6F766564206576656E742002
:103FA0006966204162736F6C7574655765696768EF
:103FB0007420697320616C736F203C2033352E2090
:103FC000205479706963616C6C79206861707065E8
:103FD0006E732077686572652074686520626F77FC
:103FE0006C207761732072656D6F766564207175E2
:103FF00069636B6C7920776974686F7574206120D0
:1040000072616E67652072656164696E67206176B2
:1040100061696C61626C6520616E796D6F72652C8F
:10402000206F72206120626C61636B20626F776C1D
:1040300020696E20626C61636B206172656120692A
:1040400073206861726420746F20726561642E2031
:104050004162736F6C757465576569676874203D5C
:1040600020002C204162736F6C7574655765696719
:104070006874203D200052616E6765203E20363016
:10408000206F72204162736F6C7574655765696744
:104090006874203C2033352C20736F207468726F55
:1040A00077696E6720626F776C5F72656D6F76659A
:1040B00064206576656E742E2052616E6765203DC2
:1040C00020003A2400303030303030303030300092
:1040D00052464944526561644661696C436F756E2E
:1040E000743D31302E20576F756C642068617665A1
:1040F000207468726F776E207468697320626F77BE
:104100006C5F706C61636564206576656E742065B4
:1041100078636570742052464944204F7665727208
:10412000696465206973206E6F74206F6E2C207334
:104130006F206469646E27743A205E626F776C5FEB
:10414000706C616365643A357C003A24003030302D
:104150003030303030303000436865636B20524679
:10416000494420746167732E20576F756C64206812
:10417000617665207468726F776E20746869732049
:10418000626F776C5F706C61636564206576656EE5
:1041900074206578636570742052464944204F76D8
:1041A000657272696465206973206E6F74206F6E2A
:1041B0002C20736F206469646E27743A205E626FEE
:1041C000776C5F706C616365643A357C002C2042CB
:1041D0006F776C506C6163656453616D706C65736F
:1041E000416674657252464944203D20002C2041AE
:1041F00062736F6C757465576569676874203D20DC
:104200000052616E6765203D20002C20426F776C64
:10421000506C6163656453616D706C657342656673
:104220006F726552464944203D20002C2041627344
:104230006F6C757465576569676874203D2000521E
:10424000616E6765203D20003A24005E706F7369DF
:1042500074696F6E5F63616E69737465725F7265B6
:1042600073703A327C6661696C7572653A003A2403
:10427000005E706F736974696F6E5F63616E6973FE
:104280007465725F726573703A327C6661696C75D1
:1042900072653A003A24005E706F736974696F6EDC
:1042A0005F63616E69737465725F726573703A32D1
:1042B0007C737563636573733A003A24005E706FB4
:1042C000736974696F6E5F63616E69737465725F41
:1042D000726573703A327C737563636573733A0009
:1042E000706F736974696F6E5F63616E6973746513
:1042F000720056616C7565207061737365643D0072
:10430000496E20706F736974696F6E2063616E69A6
:10431000737465722066756E6374696F6E21005EDA
:10432000646F6F725F6C6F636B5F726573703A314D
:104330007C737563636573733A24005E646F6F7298
:104340005F6C6F636B5F726573703A317C7375631A
:10435000636573733A2400646F6F725F6C6F636B95
:10436000004166746572204C6F636B696E672C2028
:1043700052656C6F6164446F6F72556E6C6F636BE6
:1043800053656E736550696E3A20004265666F72C0
:1043900065204C6F636B696E672C2052656C6F6192
:1043A00064446F6F72556E6C6F636B53656E7365AB
:1043B00050696E3A2000496E20646F6F725F6C6FB7
:1043C000636B2066756E6374696F6E210050726F47
:1043D0006475637449442069732061207265677550
:1043E0006C61722064697370656E736520737065AB
:1043F00065642070726F647563742C20736F206421
:104400006F206E6F726D616C2064697370656E737E
:10441000652E0050726F647563744944206973207F
:104420006120666173742064697370656E736520C2
:1044300073706565642070726F647563742C20738B
:104440006F20676F2066617374657220616E6420EF
:10445000646F6E277420736C6F7720646F776E20A3
:10446000617420656E642E00303032390030303295
:1044700038003030323700303032360030303234AD
:1044800000474F4C4457454C4C2D41534800303069
:10449000353800474F4C4457454C4C2D313147007F
:1044A0003030353700474F4C4457454C4C2D38433E
:1044B00041003030353600474F4C4457454C4C2D69
:1044C0003552003030353500474F4C4457454C4C41
:1044D0002D354B003030353400474F4C4457454C58
:1044E0004C2D5252003030353300474F4C44574525
:1044F0004C4C2D5656003030353200474F4C445707
:10450000454C4C2D4747003030353100474F4C4427
:1045100057454C4C2D4B4B003030353000474F4CFD
:104520004457454C4C2D50003030343900474F4CE7
:104530004457454C4C2D41003030343800474F4CE7
:104540004457454C4C2D3842003030343700474FEB
:104550004C4457454C4C2D344200303034360047E3
:104560004F4C4457454C4C2D354D4200303034357E
:1045700000474F4C4457454C4C2D313141003030B1
:10458000343400474F4C4457454C4C2D313041009A
:104590003030343300474F4C4457454C4C2D394153
:1045A000003030343200474F4C4457454C4C2D3589
:1045B00041003030343100474F4C4457454C4C2D6E
:1045C0003241003030343000474F4C4457454C4C5A
:1045D0002D3847003030333900474F4C4457454C55
:1045E0004C2D3747003030333800474F4C44574547
:1045F0004C4C2D3447003030333700474F4C445734
:10460000454C4C2D31304E003030333600474F4C46
:104610004457454C4C2D384E003030333500474F11
:104620004C4457454C4C2D364E0030303334004707
:104630004F4C4457454C4C2D344E003030333300F2
:10464000474F4C4457454C4C2D324E00303033329E
:1046500000434C4943532D56322D314E00303033F8
:104660003000434C4943532D56322D4C49003030D5
:10467000323900434C4943532D56322D44343000D7
:104680003030323800434C4943532D56322D44329A
:1046900030003030323700434C4943532D56322DD1
:1046A0004430003030323600434C4943532D5632AB
:1046B0002D5048003030323500434C4943532D567D
:1046C000322D434C003030323400434C4943532D9B
:1046D00056322D434F42003030323300434C494371
:1046E000532D56322D4C54594F0030303232004346
:1046F0004C4943532D56322D4F5900303032310042
:10470000434C4943532D56322D4C544F52003030B8
:10471000323000434C4943532D56322D524F003016
:1047200030313900434C4943532D56322D565200F7
:104730003030313800434C4943532D56322D4C54C0
:104740005642003030313700434C4943532D5632E6
:104750002D4256003030313600434C4943532D56DC
:10476000322D4247003030313500434C4943532D00
:1047700056322D4C544242003030313400434C49C3
:1047800043532D56322D59003030313300434C49BC
:1047900043532D56322D4F003030313200434C49B7
:1047A00043532D56322D42003030313100434C49B5
:1047B00043532D56322D52003030313000434C4996
:1047C00043532D56322D47003030303900434C4989
:1047D00043532D56322D56003030303800434C496B
:1047E00043532D56322D31324E0030303037004396
:1047F0004C4943532D56322D31304E003030303637
:1048000000434C4943532D56322D384E0030303042
:104810003500434C4943532D56322D364E0030302F
:10482000303400434C4943532D56322D344E003022
:1048300030303300434C4943532D56322D324E0015
:104840003030303200434C4943532D56322D3030F6
:104850004E0030303031002C2050726F647563741C
:104860004E616D6520697320002C2050726F647555
:1048700063744944206973200063616E69737465D1
:1048800072436F64652069732000546869732069FE
:1048900073204C69676874656E65722C20736F2095
:1048A000646F6E277420676F206173206661737474
:1048B000206F746865727769736520636F756C64C7
:1048C00020686176652070696E6368206F66662077
:1048D00069737375652E0030303239003A2409004F
:1048E0003A00095E646973705F70726F6772657316
:1048F000733A327C003A24003A005E646973705F58
:1049000070726F67726573733A327C0052657374AC
:104910006F7265642F536176656420496E697469AE
:10492000616C4163747561746F72506F73697469FF
:104930006F6E446174613A00496E2D6D656D6F72E2
:104940007920496E697469616C4163747561746F33
:1049500072506F736974696F6E446174613A002CB0
:1049600020736F2077726974696E6720746F2045B9
:104970004550524F4D206576656E2074686F75679F
:1049800068206F7574206F662072616E67652C20D9
:10499000736F206E6578742074696D65206D617920
:1049A00020776F726B206265747465722E00203CF4
:1049B0002050726576696F7573496E697469616CB0
:1049C0004163747561746F72506F736974696F6E4F
:1049D000206F6620004E657720496E697469616CAE
:1049E0004163747561746F72506F736974696F6E2F
:1049F0005B5D206F6620003A24003A003A003A00DE
:104A00005E64697370656E73655F77656967687406
:104A10005F726573703A357C72616E67653A003A11
:104A200024003A003A003A005E64697370656E7360
:104A3000655F7765696768745F726573703A357C26
:104A400072616E67653A003A24003A003A003A0013
:104A50005E64697370656E73655F776569676874B6
:104A60005F726573703A357C737563636573733A0F
:104A7000003A24003A003A003A005E6469737065B7
:104A80006E73655F7765696768745F726573703AA6
:104A9000357C737563636573733A003A24003A009A
:104AA0003A003A005E64697370656E73655F77659E
:104AB000696768745F726573703A357C63616E63B1
:104AC000656C3A003A24003A003A003A005E6469A4
:104AD0007370656E73655F7765696768745F72652B
:104AE00073703A357C63616E63656C3A002C207399
:104AF0006F2077726974696E6720746F2045455026
:104B0000524F4D206576656E2074686F756768201A
:104B10007468697320697320612074616D706572B7
:104B20002C20736F206E6578742074696D65206D1C
:104B3000617920776F726B206265747465722E00E4
:104B4000203C2050726576696F7573496E6974698F
:104B5000616C4163747561746F72506F73697469CD
:104B60006F6E206F6620004E657720496E6974690C
:104B7000616C4163747561746F72506F73697469AD
:104B80006F6E5B5D206F6620003A24003A003A00A9
:104B90003A005E64697370656E73655F7765696717
:104BA00068745F726573703A357C74616D7065729C
:104BB0003A003A24003A003A003A005E64697370A1
:104BC000656E73655F7765696768745F726573703A
:104BD0003A357C74616D7065723A00646973706512
:104BE0006E73655F616C6C0064697370656E73658C
:104BF0005F776569676874002C2053686F756C6413
:104C00005265747279476F4661737442656361756A
:104C10007365466972737444697370656E73655425
:104C2000696D65644F7574203D200044697370653B
:104C30006E7365206661696C7572652C206E6565A2
:104C40006420746F2072657472792C20476F696ECE
:104C50006720746F2064697370656E7365206D6F73
:104C60007265206F6E20612072657472792C2074D9
:104C7000686973206D756368206D6F7265203D20D3
:104C80000052657472792053756D20416D6F756E99
:104C9000745F44697370656E736564203D200054D1
:104CA000414D5045522044455445435445442061AC
:104CB000667465722066696E6973686564206469EC
:104CC0007370656E73696E672C2072657475726E91
:104CD000696E672074616D70657220726573756CA2
:104CE00074207769746820616D6F756E74206469D3
:104CF0007370656E73656420617320547261696CB2
:104D0000696E67576569676874203D2000416D6F63
:104D1000756E745F44697370656E73656420697342
:104D2000206E656761746976652C206D6F726520F1
:104D30007468616E202D31672C207468657265205F
:104D40006D7573742068617665206265656E207389
:104D50006F6D652074797065206F662074616D7069
:104D600065722E204E6F7420676F696E6720746FB6
:104D70002072657472792E00416D6F756E745F4498
:104D8000697370656E736564203D20002C20626538
:104D900063617573652054726C5634207374696C4A
:104DA0006C20756E64657220302E3033203D2000FB
:104DB0004C6F6F702054696D6564204F757420616D
:104DC00074204C6F6F7054696D656F7574203D2051
:104DD000002C204C6F6F70436F756E74657257684E
:104DE000656E526561636865644D61784163747591
:104DF0006174696F6E203D200053657474696E673D
:104E0000204C6F6F7054696D656F7574203D200084
:104E1000206772616D732C20736F207265766572E6
:104E2000736520746865206163747561746F7221A5
:104E30000041626F757420746F2063726F7373200A
:104E400000526563656976656420612043616E6325
:104E5000656C20636F6D6D616E642066726F6D208E
:104E60006D616368696E652055492E0054414D504F
:104E700045522044455445435445442C2073746F97
:104E80007070696E6720616374756174696F6E20FC
:104E9000616E642072657475726E696E67207461EC
:104EA0006D70657220726573756C742E0054616D3F
:104EB0007065722064657465637465642C20776521
:104EC00069676874206D6F7265206E6567617469CB
:104ED0007665207468616E202D312C20736F6D65AE
:104EE000626F6479206D75737420686176652072D5
:104EF000656D6F7665642077656967687420667292
:104F00006F6D207363616C652C2072657475726EB1
:104F1000696E672074616D7065722E0020746F2059
:104F2000302E30352073696E6365203C3330206C41
:104F30006F6F7073206C65667400094C6F776572D3
:104F4000696E67207461726765742073706565644B
:104F50002066726F6D2000094C4C09002C204D61B9
:104F600078416374756174696F6E203D20002C2058
:104F70004D6178416374756174696F6E284C69295D
:104F8000203D200009534554504F494E5420436161
:104F90006C633D000954726C563409000954726CFC
:104FA0005609000954726C570900094C6F6164205E
:104FB00063656C6C2073616D706C696E67206661EF
:104FC000696C7572652C20676F74203E32303067D3
:104FD00020666F722061766572616765206F66205A
:104FE0003130782073616D706C65732C2064697347
:104FF00063617264696E6720616E642074616B69BD
:105000006E67206E65772073616D706C65206865D2
:1050100072653A090053616D700900095475726E2A
:1050200041726F756E64000A4C69676874656E65DD
:105030007220666C6F7720637574206F66662053EC
:1050400074616C6C696E6720646574656374656413
:10505000202D20747279696E67204C6967687465C9
:105060006E657220616374756174696F6E2072651C
:105070007472792023005374616C6C696E672064CC
:1050800065746563746564202D207265636F766551
:105090007279206469646E277420776F726B2C209C
:1050A000736F2073746F7070696E67207468652009
:1050B00064697370656E736520736F207765206413
:1050C0006F6E27742064616D616765207468652068
:1050D0006D6F746F7220616E6420647269766572A0
:1050E0002E00095475726E41726F756E64000A531A
:1050F00074616C6C696E6720646574656374656463
:10510000202D20747279696E672074686520626151
:10511000636B2D6F66662D616E642D676F2D666102
:1051200073742072657472792E0009456E6431358E
:1051300030004D6178416374756174696F6E203D14
:1051400020005374617274696E6720536574706FC8
:10515000696E74496E6974466F72546869734D6103
:105160006368696E65203D200009536574706F693E
:105170006E74416D6F756E74546F4261636B4F66F0
:10518000665768656E4869745461726765745370D8
:10519000656564203D200009536574706F696E7405
:1051A0004C6F6F70496E6372656D656E74203D2043
:1051B00000097461726765745F64697370656E730A
:1051C000655F7370656564203D2000094146617329
:1051D0007444697370656E7365534B55203D2000B0
:1051E0006744656D6F4D6F6465203D2000426F77A9
:1051F0006C20776569676874206E6F7420736574BE
:10520000746C656420616674657220352073656313
:105210006F6E64732C2072657475726E2074616D8C
:105220007065722E00424F574C204E4F5420504C08
:1052300041434544207768656E20737461727469D8
:105240006E672064697370656E7365202D20736FBF
:10525000206E6F7420616374756174696E672C20B1
:10526000616E642072657475726E696E6720746118
:105270006D7065722E00094162736F6C75746557AD
:105280006569676874203D20000954617265414476
:105290004356616C7565203D2000095343414C45E0
:1052A000203D2000094F4646534554203D200054E0
:1052B000617265576569676874203D20005D203D17
:1052C0002000496E697469616C576569676874523A
:1052D000656164696E67735B005363616C65206E22
:1052E0006F7420736574746C65642C2062656C6FD8
:1052F000772073616D706C6573206E6F74207769B1
:105300007468696E2031206772616D2C207265743B
:105310007279696E6720757020746F20352074690A
:105320006D65732E003A24003A31302E30303A0049
:105330005E64697370656E73655F776569676874CD
:105340005F726573703A357C74616D7065723A3066
:105350002E30303A003A24003A31302E30303A00C4
:105360005E64697370656E73655F7765696768749D
:105370005F726573703A357C74616D7065723A3036
:105380002E30303A0064697370656E73655F616CCE
:105390006C0064697370656E73655F7765696768D3
:1053A0007400706F736974696F6E5F63616E6973A7
:1053B000746572206661696C7572652C2063616E1C
:1053C0006E6F742067756172616E746565206361CC
:1053D000726F7573656C20706F736974696F6E207E
:1053E000736F2065786974696E67207468652064DE
:1053F000697370656E73655F77656967687420634C
:105400006F6D6D616E6420616E642072657475727B
:105410006E696E672074616D706572210056616CF3
:105420007565207061737365643D0056616C7565C8
:10543000207061737365643D00496E206469737008
:10544000656E7365207765696768742066756E633D
:1054500074696F6E21003A24005E64697370656E32
:1054600073655F74696D65645F726573703A327CF1
:10547000737563636573733A003A24005E646973FD
:1054800070656E73655F74696D65645F7265737076
:105490003A327C737563636573733A006469737041
:1054A000656E73655F74696D6564004166746572ED
:1054B00020686F6D652061637475616C2C20736565
:1054C00074706F696E742C2070776D3A00456E644D
:1054D000696E67204163747561746F7220616374D3
:1054E00075616C2C20736574706F696E742C2070FC
:1054F000776D3A005374617274696E67204163740A
:105500007561746F722061637475616C2C207365B2
:1055100074706F696E742C2070776D3A0056616CF0
:105520007565207061737365643D0056616C7565C7
:10553000207061737365643D00496E206469737007
:10554000656E73652074696D656421003A24005EA0
:1055500064697370656E73655F66756C6C5F6361BB
:105560006E5F726573703A327C73756363657373D3
:105570003A003A24005E64697370656E73655F6615
:10558000756C6C5F63616E5F726573703A327C73C9
:105590007563636573733A0064697370656E7365F0
:1055A0005F66756C6C5F63616E00546F74616C2034
:1055B00054696D6520746F2044697370656E7365FE
:1055C000203D206C6F6F70202D2035203D2009007C
:1055D00046696E616C20576569676874203D2009D3
:1055E00000416674657220686F6D65206163747533
:1055F000616C2C20736574706F696E742C207077E9
:105600006D3A00456E64696E67204163747561741C
:105610006F722061637475616C2C20736574706F98
:10562000696E742C2070776D3A00576569676874ED
:1056300020696E63726561736564206279206C65B0
:105640007373207468616E20302E31206772616D33
:105650007320696E20746865206C61737420352036
:105660007365636F6E64732C20736F2073746F7037
:1056700070696E67206C6F6F702E00576569676880
:1056800074203E203335302C2065786974696E674C
:10569000206C6F6F70202863616E63656C6C696E3F
:1056A00067292E000944656C7461576569676874E1
:1056B000203D20090009576569676874203D20096D
:1056C000000954696D65203D2009004C6F6F702002
:1056D0003D2009005374617274696E6720416374E0
:1056E0007561746F722061637475616C2C207365D1
:1056F00074706F696E742C2070776D3A00092053B6
:10570000746172742054696D65203D2009005765ED
:1057100069676874203D20090056616C75652070CA
:1057200061737365643D0056616C756520706173CB
:105730007365643D00496E2064697370656E7365BE
:105740002066756C6C2063616E21003A24005E73E4
:1057500063616E5F616C6C5F70726F6772657373AB
:105760003A317C003A24005E7363616E5F616C6C59
:105770005F70726F67726573733A317C003A240010
:105780003A24005E7363616E5F616C6C5F72657377
:10579000703A327C6661696C7572653A005E73635B
:1057A000616E5F616C6C5F726573703A327C6661CA
:1057B000696C7572653A005E7363616E5F616C6CF3
:1057C0005F726573703A327C737563636573733AA5
:1057D000005E7363616E5F616C6C5F726573703ADB
:1057E000327C737563636573733A007363616E5FD4
:1057F000616C6C00496E207363616E5F616C6C203C
:1058000066756E6374696F6E210053657269616CB1
:10581000206E756D6265727320646F206E6F7420E8
:105820006D617463682C20776520686176656E27EA
:10583000742064697370656E736564207769746839
:1058400020746869732063616E6973746572206285
:1058500065666F7265212020536F20626C616E6BEC
:10586000206F7574207468652053657269616C4E91
:10587000756D6265724861734265656E44697370E7
:10588000656E7365645B5D2C20616E642073746F5C
:10589000726520746865206E657720736572696132
:1058A0006C2053657269616C4E756D626572735BD5
:1058B0005D5B355D0053657269616C206E756D626C
:1058C000657273206D617463682C20776527766537
:1058D000207365656E20746869732063616E6973F7
:1058E000746572206265666F72652100476C6F6235
:1058F000616C20496E697469616C4163747561748F
:105900006F72506F736974696F6E203D20005D2067
:105910003D2000496E697469616C416374756174FE
:105920006F72506F736974696F6E735B005D203DB9
:10593000200053657269616C4E756D6265724861D5
:10594000734265656E44697370656E7365645B0070
:10595000496E76616C696420626172636F64652C64
:105960002063616E277420636F6D706172652062C1
:105970006172636F6465732E00496E76616C696451
:1059800020736C6F74206E756D6265722C2063617C
:105990006E277420636F6D7061726520626172633F
:1059A0006F6465732E0043616E6973746572206E57
:1059B0006F7420616C69676E6564207769746869CB
:1059C0006E205265616446726F6D426172636F64EE
:1059D000655363616E6E6572205245545259206161
:1059E0006674657220747269676765722C206E65D3
:1059F000656420746F2064697363617264207468E5
:105A000065207363616E2E004445544543544544FC
:105A100020424152434F4445204F4E2033524420B0
:105A20005343414E204F4E20534C4F54200043616E
:105A30006E6973746572206E6F7420616C69676E35
:105A400065642077697468696E2052656164467286
:105A50006F6D426172636F64655363616E6E6572F0
:105A6000205245545259206265666F7265207472E7
:105A700069676765722C206E65656420746F2064A9
:105A800069736361726420746865207363616E2E4C
:105A90000043616E6973746572206E6F7420616C6F
:105AA00069676E65642077697468696E2052656104
:105AB0006446726F6D426172636F64655363616EB9
:105AC0006E65722052455452592061667465722089
:105AD000747269676765722C206E65656420746FE7
