:100000000C94AF5A0C94E5900C94BA900C948F9089
:100010000C9464900C9439900C940E900C94E38F93
:100020000C94B88F0C9472E90C94498F0C94D38E75
:100030000C94E05A0C9407630C94E05A0C94E05A28
:100040000C94E05A0C94E05A0C94E05A0C94E05A48
:100050000C94E05A0C9495880C94E05A0C9460E14E
:100060000C94E05A0C9460D60C9436D60C94E05A5A
:100070000C94E05A0C94E05A0C94E05A0C94E05A18
:100080000C94E05A0C94E05A0C94E05A0C94E05A08
:100090000C940CD60C94E2D50C94E05A0C944EE8D7
:1000A0000C94E05A0C94E05A0C94E05A0C94E05AE8
:1000B0000C94E05A0C94E05A0C94E05A0C94E05AD8
:1000C0000C94E05A0C94E05A0C94E05A0C94B8D575
:1000D0000C948ED50C94E05A0C9464D50C943AD5BB
:1000E0000C94E05A08000000BE922449123EABAACC
:1000F000AA2ABECDCCCC4C3E00000080BEABAAAA42
:10010000AA3E00000000BF000000803F0000000089
:1001100000084178D3BB4387D1133D190E3CC3BDC2
:100120004282AD2B3E68EC8276BED98FE1A93E4C6F
:1001300080EFFFBE01C4FF7F3F00000000000C9471
:10014000AEC40C94AD5B0C940ADA0C94F6D90C9402
:10015000B4C50C9414DA0C947AC40C94175C0D9406
:10016000FF110C943BE50C9483C40C94CAC50C9409
:10017000E9C50C94C1D90C9440C40C947BC40C9474
:1001800034E50C94C9D90C94CB5B0C9460E60C94C8
:100190008ED90C9495880C94E95B0C94AFD90C948F
:1001A00044C40C94B2C40C9487C30C9404D90D9429
:1001B00003120C949BD90C9415C30C94B0C40C94EA
:1001C000B9D90D9401120C94F0C50C9463C40C942D
:1001D000FEC50C9428C30C94B6C40C9467C40C944C
:1001E00005C60D94FD110C94B4C40C943AC40C943F
:1001F000D3D90D940A120C9406C30C946DC40D94BB
:10020000F9110C940BE60C9412E50C9455C40C9463
:10021000A8C40C94F7C50C944CC40D94FB110C9419
:10022000DDD90C9482C50C94AFE50C9459C40C94A0
:10023000A5D90C9421E50C941EDA0C9475C40C9489
:10024000E1C50C9471C40C9438D90C9468E50C94F5
:100250008AD80C9410E50C9461C50C944FC40C948E
:1002600047E60C94AAC40C9496D90C94ACC40C9494
:100270000FE50C9448C40C9428DA0C9423E60C94F3
:10028000D7C30C9400DA0C945FC40C9413C60C947E
:100290000CC60C9436C30D9443300C942DC50C94AD
:1002A000C1C20C940CC50C947FC40C94E7D90C9477
:1002B00044E60C9411E50D94CA0A0C9497E50D944C
:1002C000F60F4E414E494E495459494E46CDCCCC7D
:1002D0003D0AD7233C17B7D13877CC2B329595E61A
:1002E000241FB14F0A000020410000C84200401CFA
:1002F0004620BCBE4CCA1B0E5AAEC59D74426C61F2
:10030000636B426F776C44697374616E6365203D03
:1003100020005768697465426F776C446973746133
:100320006E6365203D2000526967687450756D707A
:1003300053657269616C4E756D6265725B5D203DDF
:100340002000526967687450756D705365726961F9
:100350006C4E756D6265724861734265656E446985
:100360007370656E736564203D20004C6566745043
:10037000756D7053657269616C4E756D6265725B07
:100380005D203D20004C65667450756D705365723C
:1003900069616C4E756D6265724861734265656E28
:1003A00044697370656E736564203D2000496E7307
:1003B00074616C6C4D6F6465203D20004F766572F2
:1003C000726964655246494449664974446F65736D
:1003D0006E745265616450726F7065726C79203D05
:1003E0002000675369646550616E656C427269678D
:1003F00068746E657373203D2000536964655061B5
:100400006E656C4272696768746E657373203D2017
:100410000048617352656C6F6164446F6F724C6F1A
:10042000636B203D20004973426C61636B426F77C0
:100430006C41726561203D20002C20436F756E7405
:10044000203D200041766572616765206F66206EF1
:100450006F6E2D7A65726F20496E697469616C41A7
:1004600063747561746F72506F736974696F6E73C2
:10047000203D20005D203D200053657269616C4E77
:10048000756D626572735B005D203D20005365727F
:1004900069616C4E756D6265724861734265656E27
:1004A00044697370656E7365645B005D203D200078
:1004B000496E697469616C4163747561746F7250DF
:1004C0006F736974696F6E735B00496E69746961FB
:1004D0006C4163747561746F72506F736974696F86
:1004E0006E203D20005363616C655F43616C6962FF
:1004F000726174696F6E5F576569676874203D202B
:10050000005363616C655F43616C69627261746919
:100510006F6E5F32303067203D20005363616C6541
:100520005F43616C6962726174696F6E5F5A657274
:100530006F203D20005363616C655F43616C6962AD
:10054000726174696F6E203D200046575F425549C5
:100550004C44203D200044697370656E7365725F82
:100560004D6F64656C5F4D696E6F72203D20004475
:10057000697370656E7365725F4D6F64656C5F4D16
:10058000616A6F72203D200044697370656E736507
:10059000725F53657269616C203D20004545505083
:1005A000524F4D5F56455253494F4E203D20004714
:1005B0006574414D54323033456E636F64657250DB
:1005C0006F736974696F6E20414D543230336375B7
:1005D0007272656E74506F736974696F6E3A200041
:1005E00052617720414D5432303363757272656EBB
:1005F00074506F736974696F6E3A20005265736549
:10060000742041726475696E6F20746F2072657317
:10061000746172742070726F6772616D2E00457222
:10062000726F72206F627461696E696E6720706F9D
:10063000736974696F6E2E00446F6E65207A6572FF
:100640006F696E6720656E636F6465722C204375F9
:100650007272656E7420706F736974696F6E3A2080
:100660000052657365742041726475696E6F207401
:100670006F20726573746172742070726F6772613B
:100680006D2E004572726F72206F627461696E69BF
:100690006E6720706F736974696F6E2E00342E2E32
:1006A0002E00332E2E2E00322E2E2E00312E2E2EE8
:1006B00000292E2E2E206D6179206E6565642074D0
:1006C0006F20706F776572206379636C6520616657
:1006D00074657220746869732E00414C4552543A17
:1006E00020476F696E6720746F207A65726F20747F
:1006F000686520414D5432303320656E636F646508
:1007000072206E6F7720285072696F7220506F735D
:100710006974696F6E203D2000436F727265637467
:10072000656420414D5432323220456E636F6465FA
:10073000723A2000414D5432323220456E636F646C
:1007400065723A2000414D54323232207265616444
:10075000206572726F722E20417474656D707473AF
:100760003A2000446F6E65207A65726F696E67206B
:10077000656E636F6465722C2043757272656E746A
:1007800020706F736974696F6E3A20002900476F9B
:10079000696E6720746F207A65726F2074686520B7
:1007A000414D5432323220656E636F646572206E43
:1007B0006F7720285072696F7220506F7369746967
:1007C0006F6E203D20002900414C4552543A20478D
:1007D0006F696E6720746F207A65726F2074686528
:1007E00020414D5432323220656E636F6465722051
:1007F0006E6F7720285072696F7220506F73697422
:10080000696F6E203D2000456E64696E672041630C
:10081000747561746F7220506F736974696F6E20A4
:100820003D20005374617274696E67204163747572
:1008300061746F7220506F736974696F6E203D2010
:1008400000486F6D654163747561746F72207761E4
:1008500073207375636365737366756C2120204222
:100860006F7468206163747561746F727320656E54
:100870006465642075702E00414C4552543A2048FE
:100880006F6D654163747561746F72207761732059
:100890004E4F54207375636365737366756C2C20BB
:1008A0004163747561746F7220456E636F64657225
:1008B0002052616E6765203C2032207768656E208B
:1008C00073686F756C64206265207E3230302D3322
:1008D0003030002C204163747561746F724F7574F1
:1008E000657255704F70746F203D2000414C455229
:1008F000543A20486F6D654163747561746F72205E
:10090000776173204E4F542073756363657373660C
:10091000756C2C2062656361757365206163747505
:1009200061746F727320617265206E6F7420626FE4
:1009300074682075702E20204163747561746F7225
:10094000496E6E657255704F70746F203D20005374
:1009500075626F7074696D616C206F7269656E7419
:100960006174696F6E2C207265636F6D6D656E6466
:1009700020666C6970206163747561746F722031D8
:100980003830206465677265657320736F20746802
:100990006174206D617820746F7271756520697360
:1009A000206F6E206F7574657220736C6F74732086
:1009B00073696E6365207468657927726520757345
:1009C0006564206D6F7265206F6674656E2E0047DA
:1009D0006F6F64206F7269656E746174696F6E2CDD
:1009E000206D617820746F72717565206F6E206F55
:1009F0007574657220736C6F74732073696E6365B0
:100A000020746865792772652075736564206D6F41
:100A10007265206F6674656E2E002C2041637475BC
:100A200061746F72446972656374696F6E496E6E4A
:100A30006572446F776E4F757465725570203D20F6
:100A400000456E64206F6620486F6D696E672041B7
:100A500063747561746F722C20456E636F64657288
:100A6000203D200046696E616C204163747561749D
:100A70006F7220706F736974696F6E206166746540
:100A80007220686F6D6520746F20302069732000BC
:100A9000436F6E6669726D696E67206E6577207050
:100AA0006F736974696F6E20697320002C20736FF7
:100AB000206E657720706F736974696F6E2069733B
:100AC00020002C20736F2074616B65207468652092
:100AD000646966666572656E636520696E207A6515
:100AE000726F20706F696E747320616E6420616430
:100AF0006A7573742069742062792000437572727C
:100B0000656E746C7920617420002C20736F2073E3
:100B10006574207A65726F20706F696E74206265EB
:100B2000747765656E207468652074776F2C20611A
:100B300074200020746F20004163747561746F72BB
:100B400020456E636F6465722072616E676520690F
:100B50007320004163747561746F7220456E636F1A
:100B60006465722052616E6765203C203220776890
:100B7000656E2073686F756C64206265207E32300C
:100B8000302D3330302E20436865636B2041637411
:100B90007561746F7220456E636F6465722057696A
:100BA0007265732028342070696E20636F6E6E65E5
:100BB00063746F72292E2020496620616374756109
:100BC000746F727320646964206E6F74206D6F7629
:100BD000652C20636865636B206163747561746F55
:100BE00072206D6F746F722077697265732028327E
:100BF0002070696E20636F6E6E6563746F72292E4C
:100C000000414C4552543A20426F7468206163742D
:100C10007561746F72206F70746F73207265616498
:100C200020646F776E202D207468697320697320AB
:100C3000616E206572726F7220636173652E202071
:100C4000476F696E6720746F2073746F7020616ED8
:100C5000642072657475726E206661696C75726568
:100C6000206F6E20486F6D654163747561746F729B
:100C700021005374616C6C6564206D6F7265207423
:100C800068616E2035302074696D65732C2065783D
:100C90006974696E672074686973206C6F6F702E59
:100CA000005374616C6C656421204E65656420742A
:100CB0006F20676F20696E206F74686572206469A9
:100CC00072656374696F6E206E6F772C20616E643D
:100CD0002072657665727365206C6F6769632E009C
:100CE0004F757465722075702C20696E6E65722068
:100CF000646F776E202D20736F206D6F766520698D
:100D00006E6E657220757020666972737420746FE0
:100D1000206D616B65206F7574657220676F20644C
:100D20006F776E005374616C6C6564206D6F7265D3
:100D3000207468616E2035302074696D65732C20D5
:100D400065786974696E67207468697320326E64AF
:100D5000206C6F6F7020616E642073657474696EAF
:100D60006720746865206F746865722073696465B4
:100D70002E00095573696E6720726576657273651A
:100D800064206C6F6769632C2077616974656420E7
:100D9000666F7220496E6E657220746F20676F20D7
:100DA000646F776E20686572652073696E63652075
:100DB0006F757465722077656E7420646F776E202E
:100DC000696E2070726576696F7573206C6F6F70D5
:100DD0002E005374616C6C6564206D6F72652074B5
:100DE00068616E2035302074696D65732C206578DC
:100DF0006974696E672074686973206C6F6F702EF8
:100E0000005374616C6C656421204E6565642074C8
:100E10006F20676F20696E206F7468657220646947
:100E200072656374696F6E206E6F772C20616E64DB
:100E30002072657665727365206C6F6769632E003A
:100E4000094F757465722077656E7420646F776ED4
:100E5000207768656E20657870656374696E6720B9
:100E6000696E6E65722E2020526576657273696EAA
:100E700067206C6F6769632E0009496E6E6572208A
:100E8000646F776E2C2073746F7070696E67206664
:100E900069727374206C6F6F700041637475617454
:100EA0006F724F7574657255704F70746F206973EF
:100EB00020646F776E20616C72656164792E2020EA
:100EC0004D6F76696E6720697420757020616E645D
:100ED00020496E6E657220646F776E2E00426F74CB
:100EE00068206172652075702C20636F756C6420BA
:100EF000676F2065697468657220646972656374E0
:100F0000696F6E2E202043686F6F73696E6720498A
:100F10006E6E657220446F776E2E002C20416374D4
:100F20007561746F72446972656374696F6E496E3E
:100F30006E6572446F776E4F757465725570203DA3
:100F400020005374617274206F6620486F6D696E63
:100F500067204163747561746F722C20456E636FF6
:100F6000646572203D200046696E616C20524742E4
:100F7000204F75743A09005269676874436F6C6F4B
:100F80007250756C7365496E3A09004C656674431E
:100F90006F6C6F7250756C7365496E3A09004661EB
:100FA000696C656420746F206765742033782064F1
:100FB000697374616E63652072656164696E6773DD
:100FC00020696E2052656164436F6C6F7253656E69
:100FD000736F72732C20617373756D696E67206314
:100FE000656E74657265642E000941766752616EA4
:100FF00067653A09000952616E6765333A0900096D
:1010000052616E6765323A090052616E6765313A26
:101010000900446F2066756C6C2057484954452080
:1010200072656164696E6700446F20616D62696515
:101030006E74206C696768742072656164696E679C
:101040002077697468204E656F506978656C7320ED
:101050004F464600436F6C6F722073656E736F72FC
:1010600073206E6F7420696E7374616C6C65642C90
:101070002064656661756C74696E6720746F2052B8
:101080004742282D312C2D312C2D3129000A4C6F4F
:1010900061642043656C6C2053616D706C696E6790
:1010A000206661696C7572652C2052656164696E99
:1010B0006773206E6F742077697468696E203735A6
:1010C0002E30206772616D7320696E20302E3120C2
:1010D0007365632E2053616D706C65732028313009
:1010E00078204144432076616C756573206669728F
:1010F00073742C207468656E2031307820696E20FE
:101100006772616D73293A0900094E657720536152
:101110006D706C65733A09000A54776F2042616400
:101120002053616D706C65732C20676F696E67204A
:10113000746F207265706C616365207769746820D4
:1011400032206E65772073616D706C65733A0900AB
:101150000A54776F204261642053616D706C65732F
:10116000206661696C7572652C20676F696E6720F7
:10117000746F207265706C61636520776974682094
:1011800032206E65772073616D706C65733A09006B
:101190002A2A2A4641494C45442A2A2A002A2A2A30
:1011A0005041535345442A2A2A005461726765749A
:1011B000206973206C657373207468616E20302E13
:1011C000312067202F20313030206D672C20736F45
:1011D00020746869732074657374200041766572A9
:1011E00061676520446966666572656E636520287F
:1011F0006D67293A20004176657261676520446910
:1012000066666572656E6365202867293A2000412D
:10121000766572616765205765696768743A200072
:101220004D6561737572696E67206C6F61642063D0
:10123000656C6C206E6F6973652C203230302073C2
:10124000616D706C65732C2073616D706C657320BB
:101250007065722072656164696E67203D200009C7
:10126000616C69676E6D656E740900094765744F3E
:101270007574657252656C6F6164536C6F740900AC
:10128000436865636B696E67204F7574657252655C
:101290006C6F61644973416C69676E656428293AB3
:1012A000204765744F7574657252656C6F61645345
:1012B0006C6F744173466C6F6174090009616C69ED
:1012C000676E6D656E74090009476574496E6E65D9
:1012D0007252656C6F6164536C6F7409004368658A
:1012E000636B696E6720496E6E657252656C6F61E3
:1012F000644973416C69676E656428293A204765C3
:1013000074496E6E657252656C6F6164536C6F7474
:101310004173466C6F6174090009496E6E657253C2
:101320006C6F745F48696768203D2009004F7574D1
:101330006572536C6F745F48696768203D200900CF
:1013400009496E6E6572536C6F745F4C6F77203D08
:101350002009004F75746572536C6F745F4C6F7722
:10136000203D20090009496E6E6572536C6F742030
:101370003D2009004F75746572536C6F74203D20D9
:10138000090009446F6F724F70656E6564456E6346
:101390006F64657253746570706572506F735F4CE3
:1013A0006F77203D20090009446F6F724F70656EA2
:1013B0006564456E636F64657253746570706572C1
:1013C000506F735F48696768203D200900446F6F64
:1013D000724F70656E6564456E636F6465725374B9
:1013E0006570706572506F73203D2009000941637C
:1013F000747561746F724F7574657255704F707447
:101400006F203D200900094163747561746F724952
:101410006E6E657255704F70746F203D2009000923
:101420004361726F7573656C486F6D65203D20096F
:1014300000094163747561746F72506F73203D20B1
:10144000090009414D54323232506F736974696F2B
:101450006E090009414D54323033506F736974691D
:101460006F6E0900094361726F7573656C44726930
:10147000766572506F736974696F6E0900436172AB
:101480006F7573656C456E636F646572506F7369D9
:1014900074696F6E0900484F4D494E4720444944D6
:1014A000204E4F5420574F524B2050524F504552D0
:1014B0004C59212020574520415245204E4F542061
:1014C00041542054484520484F4D454341524F55C3
:1014D00053454C204F50544F204255542053484FB1
:1014E000554C4420424521204F72207765206E657F
:1014F000766572206D6F766564206F6666206F6614
:101500002069742070726F7065726C792E204F7232
:10151000206D6F746F7220656E636F646572206FEB
:10152000722063656E74657220656E636F646572A8
:10153000206973206261642E20536565206D657398
:1015400073616765732061626F76652E00486F6D09
:10155000654361726F7573656C2073657175656E37
:101560006365207375636365737366756C2E00091C
:101570004163747561746F724F7574657255704F05
:1015800070746F203D200900094163747561746FA8
:1015900072496E6E657255704F70746F203D2009F0
:1015A00000094361726F7573656C486F6D65203D0E
:1015B00020090009616363656C537465707065721E
:1015C0002E63757272656E74506F736974696F6E95
:1015D0002829203D20090053746570706572506F92
:1015E0007330203D20090009486F6D654361726FBB
:1015F0007573656C456E636F646572506F73697463
:10160000696F6E203D20090009486F6D6543617266
:101610006F7573656C53746570706572506F736924
:1016200074696F6E203D2009000966697273744801
:101630006F6D654361726F7573656C456E636F6442
:101640006572506F736974696F6E203D2009006682
:1016500069727374486F6D654361726F7573656C01
:1016600053746570706572506F736974696F6E2022
:101670003D200900414C4552543A2043656E746543
:10168000724D6F746F72456E636F6465722069731B
:10169000206261642C2069742073686F756C64200B
:1016A00068617665206D6F766564203533206F72D2
:1016B000203733202831302D3930292062757420AD
:1016C000696E7374656164206D6F7665642043652F
:1016D0006E746572456E636F6465724469666665B3
:1016E00072656E6365203D2000414C4552543A209E
:1016F0004361726F7573656C4D6F746F72456E6385
:101700006F646572206973206261642C20697420A3
:1017100073686F756C642068617665206D6F76659F
:1017200064203735202836352D38352920627574E8
:1017300020696E7374656164206D6F766564204303
:1017400061726F7573656C456E636F646572446931
:1017500066666572656E6365203D2000414C4552AA
:10176000543A20486F6D6520466C61672046616978
:101770006C656420576964746820436865636B20F6
:101780002D20436865636B20746861742063617207
:101790006F7573656C207368656C66206973206C67
:1017A0006F636B656420696E20666C617420616E86
:1017B00064206C6F772C20616E64206C6F616420F4
:1017C00063616E732E20204F7220636865636B2007
:1017D000666F722065787472612068616E67696EE9
:1017E00067206368616420756E646572206361724E
:1017F0006F7573656C2E00414C4552543A2043611D
:10180000726F7573656C486F6D652053656E736F8D
:101810007220537475636B204F46462F4E4F5420F1
:10182000484F4D4500414C4552543A204361726F38
:101830007573656C486F6D652053656E736F7220AC
:10184000537475636B204F4E2F484F4D45004469CC
:10185000645765456E644F6E486F6D65203D200985
:101860000044696457654261636B4F666641776106
:101870007946726F6D486F6D65203D20090044699F
:10188000645765536565486F6D6554686546697250
:10189000737454696D65203D2009000957617348D0
:1018A0006F6D65466C616750726F706572576964E1
:1018B0007468203D200900094361726F7573656C7F
:1018C000486F6D654174486F6D65203D20090009C2
:1018D00053746570706572506F736974696F6E418F
:1018E000667465724D6F76653730203D20090009BA
:1018F00043757272656E744D6963726F737465704F
:10190000506F736974696F6E4166746572486F6D6C
:1019100065203D200900486F6D65466C6167576919
:101920006474683A20486F6D654361726F757365C2
:101930006C53746570706572506F736974696F6E03
:10194000203D2009000943656E746572456E636F22
:10195000646572446966666572656E6365203D20E4
:101960000900094361726F7573656C456E636F643E
:101970006572446966666572656E6365203D20091F
:1019800000094F6666486F6D6543656E7465724504
:101990006E636F646572506F736974696F6E203D1A
:1019A000200900094F6666486F6D654361726F7567
:1019B00073656C456E636F646572506F73697469AB
:1019C0006F6E203D200900094F6666486F6D6553B4
:1019D000746570706572506F736974696F6E203DC5
:1019E000200900096669727374486F6D6543656EFE
:1019F000746572456E636F646572506F7369746964
:101A00006F6E203D200900096669727374486F6D1E
:101A1000654361726F7573656C456E636F64657263
:101A2000506F736974696F6E203D200900436865CB
:101A3000636B696E6720656E636F646572733A20CD
:101A40006669727374486F6D654361726F75736513
:101A50006C53746570706572506F736974696F6EE2
:101A6000203D200900414C4552543A205374616C8A
:101A70006C696E6720646574656374656420696E63
:101A800020486F6D654361726F7573656C2C2064BF
:101A900069646E2774206D6F7665206174206C65B3
:101AA0006173742032303020656E636F646572201C
:101AB000636F756E747320696E2031207365632EB9
:101AC00000414C4552543A2052656C6F6164446F3A
:101AD0006F724F70656E207768656E2074727969D9
:101AE0006E6720746F20486F6D654361726F757308
:101AF000656C2E20436C6F73652072656C6F61643A
:101B000020646F6F7220616E642074727920616747
:101B100061696E2E00546F6F206D616E7920476F82
:101B2000546F506F736974696F6E20726574726957
:101B30006573202D206572726F72696E67206F75F4
:101B4000742077697468206D69736D6174636820AF
:101B50006265747765656E20414D54313032206185
:101B60006E6420414D543230332F414D5432323265
:101B7000206F72206A757374206469646E27742004
:101B800067657420746F207461726765742E2047D6
:101B90006F546F506F736974696F6E204661696C22
:101BA0007572652E005265686F6D696E672073757A
:101BB000636365737366756C2C20676F696E67204D
:101BC000746F207472792074686520476F546F5069
:101BD0006F736974696F6E20616761696E2E005260
:101BE00065686F6D696E67206661696C65642C203D
:101BF000676976696E67207570206F6E20746865FE
:101C0000206361726F7573656C206D6F76656D65AD
:101C10006E742E0043656E74657220656E636F642A
:101C20006572206D69736D617463682C20676F69DC
:101C30006E6720746F207265686F6D6520746865CB
:101C4000206361726F7573656C20616E64207472BD
:101C50007920616761696E0020616E642061637440
:101C600075616C206F6620005265747279696E67C9
:101C700020746865206361726F7573656C206D6F89
:101C800076656D656E742064756520746F2063657C
:101C90006E74657220656E636F646572206D697322
:101CA0006D61746368202D20736C697070696E6754
:101CB0002063656E74657220656E636F6465722E55
:101CC000204C696D6974206F6620005265747279CA
:101CD000696E6720746865206361726F7573656CE7
:101CE000206D6F76656D656E742064756520746F08
:101CF0002073746570706572206D6F746F722065EB
:101D00006E636F646572206D69736D6174636820C2
:101D10002D206C696B656C79207374616C6C6564E3
:101D2000206D6F746F722C20746F6F206865617600
:101D3000792C20746F6F206D7563682066726963FB
:101D400074696F6E2C206F7220626164206D6F74F5
:101D50006F72206D6F756E7420616C69676E6D6552
:101D60006E742F737072696E672E204C696D697482
:101D7000206F6620323020616E642061637475616B
:101D80006C206F662000414D5432323220456E6324
:101D90006F64657220506F736974696F6E2045724D
:101DA000726F72206F662000546172676574204103
:101DB0004D5432323220456E636F64657220506F2D
:101DC000736974696F6E206F662000437572726567
:101DD0006E7420414D5432323220456E636F64651B
:101DE0007220506F736974696F6E206F66200041B6
:101DF0004D5432303320456E636F64657220506FEE
:101E0000736974696F6E204572726F72206F6620FD
:101E10000054617267657420414D5432303320455F
:101E20006E636F64657220506F736974696F6E20A2
:101E30006F66200043757272656E7420414D543296
:101E4000303320456E636F64657220506F73697420
:101E5000696F6E206F662000537465707065722024
:101E6000456E636F64657220506F736974696F6E3D
:101E7000204572726F72206F662000437572726522
:101E80006E74205374657070657220456E636F6464
:101E9000657220506F736974696F6E206F662000E1
:101EA0005374657070657220447269766572205053
:101EB0006F736974696F6E204572726F72206F66FE
:101EC000200043757272656E74205374657070657E
:101ED000722044726976657220506F736974696FFD
:101EE0006E206F6620004361726F7573656C206DA4
:101EF0006F76656D656E74206661696C6564202D12
:101F00002073746F7070696E672E20204569746845
:101F10006572206E6F206D6F76656D656E742061E1
:101F20007420616C6C20283C3520737465707320BC
:101F300073696E6365206C61737420353030206D79
:101F4000736563292C206F7220706F736974696FD9
:101F50006E20646576696174696F6E2066726F6D5C
:101F60002077686572652073686F756C64206265A0
:101F700020767320776865726520617265206261E2
:101F8000736564206F6E20656E636F6465722E00EA
:101F900046696E616C2052657472792023342C205E
:101FA0006C6F776572696E6720616363656C6572DB
:101FB0006174696F6E20616E642072616973696E0D
:101FC00067206D6F76652063757272656E742E0082
:101FD00052657472792023332C206C6F7765726997
:101FE0006E6720616363656C65726174696F6E20F2
:101FF000616E642072616973696E67206D6F7665CA
:102000002063757272656E742E0052657472792049
:1020100023322C206C6F776572696E672061636371
:10202000656C65726174696F6E20616E64207261A7
:102030006973696E67206D6F76652063757272656E
:102040006E742E0052657472792023312C206C6FCF
:10205000776572696E6720616363656C6572617430
:10206000696F6E20616E642072616973696E6720AA
:102070006D6F76652063757272656E742E002E200A
:1020800044697374616E636546726F6D5461726703
:102090006574203D2000292043616C6C65642C2010
:1020A00043757272656E7420506F736974696F6ED8
:1020B000203D2000476F546F506F736974696F6ED5
:1020C000456E636F64657228002E204469737461E5
:1020D0006E636546726F6D546172676574203D2052
:1020E00000292043616C6C65642C20437572726515
:1020F0006E7420506F736974696F6E203D200047C5
:102100006F546F506F736974696F6E280044697300
:1021100074616E636546726F6D5461726765744D6C
:10212000696E7573203D20090044697374616E63A4
:102130006546726F6D546172676574506C7573207B
:102140003D20090044697374616E636546726F6D6A
:10215000546172676574203D200900437572726591
:102160006E74506F736974696F6E203D200900545E
:102170006172676574506F736974696F6E203D207A
:102180000900547279696E6720746F20486F6D651D
:102190004361726F7573656C2C2073696E63652083
:1021A0006974206861736E27742073756363657347
:1021B0007366756C6C7920686F6D656420796574E1
:1021C0002E00496E76616C696420736C6F74206EAA
:1021D000756D62657220666F7220353020736C6F8A
:1021E000742064697370656E7365723A20536C6F06
:1021F000742000496E76616C696420736C6F742082
:102200006E756D62657220666F7220353020736C5A
:102210006F742064697370656E73657200656E63B8
:102220006F64657253746570706572506F73206F60
:102230007574206F662072616E6765202D2073654E
:102240007474696E67206E657720656E636F646570
:102250007253746570706572506F73206F662000E2
:1022600043757272656E74506F736974696F6E2016
:102270006F7574206F662072616E6765202D207304
:10228000657474696E67206E657720437572726538
:102290006E7420506F736974696F6E206F662000D2
:1022A000656E636F64657253746570706572506FAC
:1022B00073206F7574206F662072616E6765202DC4
:1022C0002073657474696E67206E657720656E6330
:1022D0006F64657253746570706572506F73206FB0
:1022E00066200043757272656E74506F736974690D
:1022F0006F6E206F7574206F662072616E67652047
:102300002D2073657474696E67206E657720437540
:102310007272656E7420506F736974696F6E206F8E
:102320006620004361726F7573656C206D6F766512
:102330006D656E74206661696C65642E2020536C37
:10234000697070696E672063757272656E7420774C
:1023500061732000414D5432323220456E636F6408
:10236000657220506F736974696F6E204572726F69
:1023700072206F66200054617267657420414D546D
:1023800032323220456E636F64657220506F73691C
:1023900074696F6E206F66200043757272656E748B
:1023A00020414D5432323220456E636F6465722095
:1023B000506F736974696F6E206F662000414D54D1
:1023C00032303320456E636F64657220506F7369DD
:1023D00074696F6E204572726F72206F66200054B0
:1023E000617267657420414D5432303320456E630D
:1023F0006F64657220506F736974696F6E206F66C9
:10240000200043757272656E7420414D5432303332
:1024100020456E636F64657220506F736974696FD5
:102420006E206F6620005374657070657220456E73
:10243000636F64657220506F736974696F6E2045B5
:1024400072726F72206F66200043757272656E74CF
:10245000205374657070657220456E636F64657299
:1024600020506F736974696F6E206F66200053741B
:1024700065707065722044726976657220506F7362
:102480006974696F6E204572726F72206F662000EA
:1024900043757272656E7420537465707065722036
:1024A00044726976657220506F736974696F6E202B
:1024B0006F6620004361726F7573656C206D6F7677
:1024C000656D656E74206661696C65642C206D7540
:1024D00073742068617665207374616C6C65642E1A
:1024E00020204D6F76652043757272656E7420747E
:1024F000686174206974206661696C656420617428
:102500002077617320002E2044697374616E6365C7
:1025100046726F6D546172676574203D20002920FA
:1025200043616C6C65642C2043757272656E742017
:10253000506F736974696F6E203D2000476F546F50
:10254000506F736974696F6E456E636F646572284E
:10255000002E2044697374616E636546726F6D541A
:102560006172676574203D2000292043616C6C65B1
:10257000642C2043757272656E7420506F73697499
:10258000696F6E203D2000476F546F506F73697400
:10259000696F6E280044697374616E636546726F7B
:1025A0006D5461726765744D696E7573203D2009C5
:1025B0000044697374616E636546726F6D54617235
:1025C000676574506C7573203D200900446973740D
:1025D000616E636546726F6D546172676574203D0C
:1025E00020090043757272656E74506F7369746967
:1025F0006F6E203D200900546172676574506F73DF
:102600006974696F6E203D2009003A24005E756E82
:102610006A616D5F6361726F7573656C5F7265731C
:10262000703A327C6661696C7572653A003A2400D2
:102630005E756E6A616D5F6361726F7573656C5F05
:10264000726573703A327C6661696C7572653A00C6
:102650003A24005E756E6A616D5F6361726F7573B7
:10266000656C5F726573703A327C73756363657312
:10267000733A003A24005E756E6A616D5F63617241
:102680006F7573656C5F726573703A327C737563D6
:10269000636573733A00656E636F64657253746546
:1026A00070706572506F73206F7574206F66207242
:1026B000616E6765202D2073657474696E67206E86
:1026C000657720656E636F646572537465707065BD
:1026D00072506F73206F66200043757272656E745E
:1026E000506F736974696F6E206F7574206F662008
:1026F00072616E6765202D2073657474696E672042
:102700006E65772043757272656E7420506F7369C1
:1027100074696F6E206F662000656E636F6465720A
:1027200053746570706572506F73206F7574206F8D
:10273000662072616E6765202D2073657474696E02
:1027400067206E657720656E636F6465725374658C
:1027500070706572506F73206F66200043757272DF
:10276000656E74506F736974696F6E206F75742035
:102770006F662072616E6765202D207365747469C1
:102780006E67206E65772043757272656E74205097
:102790006F736974696F6E206F6620004361726F9A
:1027A0007573656C207374657070657220656E63F7
:1027B0006F646572206572726F722E2020536C698F
:1027C0007070696E672063757272656E74207761D0
:1027D000732000414D5432323220456E636F646580
:1027E0007220506F736974696F6E204572726F72D8
:1027F000206F66200054617267657420414D543229
:10280000323220456E636F64657220506F73697455
:10281000696F6E206F66200043757272656E74205A
:10282000414D5432323220456E636F6465722050E0
:102830006F736974696F6E206F662000414D54326A
:10284000303320456E636F64657220506F73697416
:10285000696F6E204572726F72206F66200054613E
:102860007267657420414D5432303320456E636F7A
:1028700064657220506F736974696F6E206F662093
:102880000043757272656E7420414D5432303320AE
:10289000456E636F64657220506F736974696F6E03
:1028A000206F6620005374657070657220456E63FA
:1028B0006F64657220506F736974696F6E20457222
:1028C000726F72206F66200043757272656E74209D
:1028D0005374657070657220456E636F6465722015
:1028E000506F736974696F6E206F66200053746552
:1028F000707065722044726976657220506F7369DA
:1029000074696F6E204572726F72206F662000438B
:10291000757272656E7420537465707065722044B0
:10292000726976657220506F736974696F6E206F7B
:10293000662000556E6A616D4361726F7573656CD8
:10294000206D6F76656D656E74206661696C656477
:102950002C206D7573742068617665207374616CCA
:102960006C65642E20204D6F76652043757272650C
:102970006E742074686174206974206661696C6586
:10298000642061742077617320002E204469737481
:10299000616E636546726F6D546172676574203D48
:1029A0002000292043616C6C65642C204375727291
:1029B000656E7420506F736974696F6E203D2000DE
:1029C000476F546F506F736974696F6E456E636FB4
:1029D00064657228002E2044697374616E636546D5
:1029E000726F6D546172676574203D200029204329
:1029F000616C6C65642C2043757272656E74205036
:102A00006F736974696F6E203D2000476F546F507B
:102A10006F736974696F6E280044697374616E63C3
:102A20006546726F6D546172676574203D200900C0
:102A300043757272656E74506F736974696F6E203E
:102A40003D200900546172676574506F7369746941
:102A50006F6E203D200900416D6F756E745F446993
:102A60007370656E7365643A0900576569676874C9
:102A70002041667465722031207365633A090057FE
:102A800065696768742041667465723A0900446F2D
:102A90006E6500526576657273696E670057656989
:102AA000676874204265666F72653A0900416D6F10
:102AB000756E745F44697370656E7365643A09007E
:102AC00057656967687420416674657220312073A8
:102AD00065633A09005765696768742041667465E3
:102AE000723A0900446F6E650052657665727369CB
:102AF0006E6700576569676874204265666F726526
:102B00003A09005E6C656674646F6F725F6F706522
:102B10006E65643A307C3A24005E6C656674646F5E
:102B20006F725F6F70656E65643A307C3A24005E48
:102B30006C656674646F6F725F636C6F7365643A23
:102B4000307C3A24005E6C656674646F6F725F63FC
:102B50006C6F7365643A307C3A24005E7269676812
:102B600074646F6F725F6F70656E65643A307C3A43
:102B700024005E7269676874646F6F725F6F70655E
:102B80006E65643A307C3A24005E726967687464EA
:102B90006F6F725F636C6F7365643A307C3A2400C8
:102BA0005E7269676874646F6F725F636C6F736580
:102BB000643A307C3A24003A200020616E642000A0
:102BC000414C4552543A204475706C696361746598
:102BD00020626172636F646520666F756E64206940
:102BE0006E20736C6F74732000656D707479003A99
:102BF00024003A24002C3130323D002C3130323D5B
:102C0000002C3130313D002C3130313D005E73639A
:102C1000616E5F616C6C5F726573703A327C666185
:102C2000696C7572653A005E7363616E5F616C6CAE
:102C30005F726573703A327C6661696C7572653A71
:102C4000005E7363616E5F616C6C5F726573703A96
:102C5000327C737563636573733A005E7363616E90
:102C60005F616C6C5F726573703A327C737563631D
:102C70006573733A005E7363616E5F616C6C5F7263
:102C80006573703A327C696E7374616C6C6D6F64DD
:102C9000653A005E7363616E5F616C6C5F72657351
:102CA000703A327C696E7374616C6C6D6F64653AF6
:102CB00000524649442072617720646174613A2071
:102CC00000524649442063617264206E756D6265EE
:102CD000723A20002C20466F756E64203D20005211
:102CE0004649444C6F6F702000436865636B696EA2
:102CF0006720524649442053656E736F723A002034
:102D00006F6620000A0A4379636C652000414C45D8
:102D100052543A2053797374656D4865616C7468D8
:102D2000204661696C7572652C2052696768745021
:102D3000756D70426172636F6465476F6F64203DAB
:102D40002000414C4552543A2053797374656D48C4
:102D500065616C7468204661696C7572652C204CE5
:102D600065667450756D70426172636F6465476F1C
:102D70006F64203D2000414C4552543A20537973F2
:102D800074656D4865616C7468204661696C757224
:102D9000652C204F75746572426172636F6465477C
:102DA0006F6F64203D2000414C4552543A205379C6
:102DB0007374656D4865616C7468204661696C75F3
:102DC00072652C20496E6E6572426172636F646534
:102DD000476F6F64203D2000414C4552543A2053C8
:102DE000797374656D4865616C7468204661696CBF
:102DF0007572652C2044697374616E636553656EEA
:102E0000736F72476F6F64203D2000414C455254F0
:102E10003A2053797374656D4865616C7468204617
:102E200061696C7572652C204C6F616443656C6CD4
:102E300053656E736F72476F6F64203D2000414C85
:102E40004552543A2053797374656D4865616C74CA
:102E500068204661696C7572652C204163747561E8
:102E6000746F72486F6D696E67476F6F64203D20A5
:102E700000414C4552543A2053797374656D48654E
:102E8000616C7468204661696C7572652C204163C1
:102E9000747561746F724F7574657255704F70748C
:102EA0006F476F6F64203D2000414C4552543A20DB
:102EB00053797374656D4865616C74682046616907
:102EC0006C7572652C204163747561746F72496E04
:102ED0006E657255704F70746F476F6F64203D2040
:102EE00000414C4552543A2053797374656D4865DE
:102EF000616C7468204661696C7572652C20416351
:102F0000747561746F724D6F746F72456E636F6428
:102F10006572476F6F64203D2000414C4552543A22
:102F20002053797374656D4865616C7468204661DF
:102F3000696C7572652C204163747561746F724D94
:102F40006F746F72476F6F64203D2000414C455293
:102F5000543A2053797374656D4865616C746820C8
:102F60004661696C7572652C204361726F7573657B
:102F70006C486F6D696E67476F6F64203D2000413C
:102F80004C4552543A2053797374656D4865616CB1
:102F90007468204661696C7572652C204361726F9C
:102FA0007573656C43656E746572456E636F6465B9
:102FB00072476F6F64203D2000414C4552543A20C7
:102FC00053797374656D4865616C746820466169F6
:102FD0006C7572652C204361726F7573656C4D6FF3
:102FE000746F72456E636F646572476F6F64203DE6
:102FF0002000414C4552543A2053797374656D4812
:1030000065616C7468204661696C7572652C20433B
:1030100061726F7573656C4D6F746F72476F6F641B
:10302000203D2000414C4552543A20537973746539
:103030006D4865616C7468204661696C7572652CB9
:10304000204361726F7573656C486F6D654F707466
:103050006F476F6F64203D2000414C4552543A2029
:1030600044697370656E736572206973206375724D
:1030700072656E746C7920696E20496E7374616C30
:103080006C4D6F64652E20204E6F742061747465E2
:103090006D7074696E6720746F20686F6D65206352
:1030A00061726F7573656C207965742E0052696763
:1030B000687450756D70426172636F6465476F6FBD
:1030C00064203D20004C65667450756D70426172DD
:1030D000636F6465476F6F64203D20004F757465B2
:1030E00072426172636F6465476F6F64203D2000B8
:1030F000496E6E6572426172636F6465476F6F649B
:10310000203D20005246494453656E736F72476FED
:103110006F64203D200044697374616E636553657C
:103120006E736F72476F6F64203D20004C6F616457
:1031300043656C6C53656E736F72476F6F64203DAF
:1031400020004163747561746F72486F6D696E67BA
:10315000476F6F64203D20004163747561746F7226
:103160004F7574657255704F70746F476F6F642040
:103170003D20004163747561746F72496E6E6572B3
:1031800055704F70746F476F6F64203D200041632E
:10319000747561746F724D6F746F72456E636F6496
:1031A0006572476F6F64203D2000416374756174E0
:1031B0006F724D6F746F72476F6F64203D200043D4
:1031C00061726F7573656C486F6D696E67476F6F7D
:1031D00064203D20004361726F7573656C43656EBA
:1031E000746572456E636F646572476F6F64203DEE
:1031F00020004361726F7573656C4D6F746F72451B
:103200006E636F646572476F6F64203D2000436199
:10321000726F7573656C4D6F746F72476F6F64205A
:103220003D20004361726F7573656C486F6D654F2B
:1032300070746F476F6F64203D20005E646F6F7223
:103240005F6F70656E65643A307C3A24005E646F2F
:103250006F725F6F70656E65643A307C3A24005E11
:10326000646F6F725F636C6F7365643A307C3A248D
:10327000005E646F6F725F636C6F7365643A307C7D
:103280003A240052657363616E204C6566746F76F4
:103290006572203D200052657363616E2057726134
:1032A00070203D200052657363616E204C6566742A
:1032B0006F766572203D200052657363616E204E0B
:1032C0006F2057726170203D200052657363616EFC
:1032D000204C6566746F766572203D2000526573E0
:1032E00063616E2057726170203D200052657363E8
:1032F000616E204C6566746F766572203D200052C9
:10330000657363616E204E6F2057726170203D209F
:103310000052657363616E20416C6C203D20005E3D
:1033200074616E6B646F6F725F6F70656E65643A27
:10333000307C3A24005E74616E6B646F6F725F6FF5
:1033400070656E65643A307C3A24005E74616E6B21
:10335000646F6F725F636C6F7365643A307C3A249C
:10336000005E74616E6B646F6F725F636C6F736528
:10337000643A307C3A24005E70617573653A005E91
:1033800072657365743A005E63616E63656C3A00E2
:103390005E70617573653A005E72657365743A00BC
:1033A0005E63616E63656C3A003A24005E6F766519
:1033B000723A317C003A24005E6F7665723A317C55
:1033C000003A24005E6D6973733A317C003A240040
:1033D0005E6D6973733A317C003A24005E736574E4
:1033E0005F7363616C655F6C6564735F7265737056
:1033F0003A327C737563636573733A003A24005EF6
:103400007365745F7363616C655F6C6564735F7231
:103410006573703A327C737563636573733A0073D6
:1034200065745F7363616C655F6C656473006F6680
:10343000660066696E697368656400616C657274C4
:103440000064697370656E73696E67006469737098
:1034500000626F776C006163746976650069646C03
:10346000650056616C7565207061737365643D001D
:10347000496E207365745F7363616C655F6C65642E
:103480007321003A24005E64656D6F5F726573702E
:103490003A327C737563636573733A003A24005E55
:1034A00064656D6F5F726573703A327C73756363C8
:1034B0006573733A0064656D6F0056616C756520C5
:1034C0007061737365643D00496E2064656D6F20A3
:1034D00066756E6374696F6E21005E70696E673A1F
:1034E000307C3A24005E70696E673A307C3A240082
:1034F000416D6F756E745F44697370656E7365645A
:103500003A090057656967687420416674657220DE
:1035100031207365633A0900576569676874204113
:10352000667465723A0900446F6E6500526576658F
:103530007273696E670057656967687420426566D3
:103540006F72653A0900537465707065722050752A
:103550006D702044726976657220506F736974696A
:103560006F6E204572726F72206F66200043757215
:1035700072656E742050756D70205374657070653F
:10358000722044726976657220506F736974696F36
:103590006E206F6620002E2044697374616E63652F
:1035A00046726F6D546172676574203D200029205A
:1035B00043616C6C65642C2043757272656E742077
:1035C000506F736974696F6E203D2000476F546FB0
:1035D000506F736974696F6E2800537465707065FD
:1035E000722050756D702044726976657220506F3C
:1035F000736974696F6E204572726F72206F6620F6
:103600000043757272656E742050756D702053742E
:1036100065707065722044726976657220506F73B0
:103620006974696F6E206F6620002E204469737480
:10363000616E636546726F6D546172676574203D9B
:103640002000292043616C6C65642C2043757272E4
:10365000656E7420506F736974696F6E203D200031
:10366000476F546F506F736974696F6E28003A2406
:10367000005E64697370656E73655F74696D65641F
:103680005F726573703A327C737563636573733A06
:10369000003A24005E64697370656E73655F7469D7
:1036A0006D65645F726573703A327C7375636365D0
:1036B00073733A0064697370656E73655F74696DE6
:1036C000656400416674657220686F6D6520616392
:1036D0007475616C2C20736574706F696E742C2026
:1036E00070776D3A00456E64696E6720416374754A
:1036F00061746F722061637475616C2C20736574E2
:10370000706F696E742C2070776D3A00537461721B
:1037100074696E67204163747561746F72206163B0
:103720007475616C2C20736574706F696E742C20D5
:1037300070776D3A0056616C7565207061737365C2
:10374000643D0056616C7565207061737365643DFE
:1037500000496E2064697370656E73652074696DCD
:10376000656421005E646F6F725F756E6C6F636B72
:103770005F726573703A317C737563636573733A16
:1037800024005E646F6F725F756E6C6F636B5F7247
:103790006573703A317C737563636573733A2400A3
:1037A000646F6F725F756E6C6F636B006C6F636BD1
:1037B000656400756E6C6F636B6564006C6F636B42
:1037C000656400756E6C6F636B656400203D20005E
:1037D000416674657220556E6C6F636B696E672C01
:1037E0002052656C6F6164446F6F72556E6C6F63CD
:1037F0006B53656E736550696E203D2000203D203F
:10380000004265666F726520556E6C6F636B696E02
:10381000672C2052656C6F6164446F6F72556E6CDB
:103820006F636B53656E736550696E203D20004970
:103830006E20646F6F725F756E6C6F636B20667560
:103840006E6374696F6E21005E636162696E657498
:103850005F6C6F636B5F726573703A317C73756315
:10386000636573733A24005E636162696E65745FB9
:103870006C6F636B5F726573703A317C73756363F1
:103880006573733A2400636162696E65745F6C6F7F
:10389000636B004166746572204C6F636B696E6781
:1038A0002C2045787465726E616C446F6F72556E32
:1038B0006C6F636B53656E736550696E3A2000429E
:1038C00065666F7265204C6F636B696E672C20456F
:1038D000787465726E616C446F6F72556E6C6F6355
:1038E0006B53656E736550696E3A2000496E2063B4
:1038F0006162696E65745F6C6F636B2066756E6381
:1039000074696F6E21005E636162696E65745F75D4
:103910006E6C6F636B5F726573703A317C73756345
:10392000636573733A24005E636162696E65745FF8
:10393000756E6C6F636B5F726573703A317C737513
:1039400063636573733A2400636162696E65745FD3
:10395000756E6C6F636B00416674657220556E6C9A
:103960006F636B696E672C2045787465726E616C4D
:10397000446F6F72556E6C6F636B53656E736550F9
:10398000696E3A20004265666F726520556E6C6FF5
:10399000636B696E672C2045787465726E616C4448
:1039A0006F6F72556E6C6F636B53656E73655069A4
:1039B0006E3A2000496E20636162696E65745F75BE
:1039C0006E6C6F636B2066756E6374696F6E210039
:1039D0005E74616E6B646F6F725F756E6C6F636B3C
:1039E0005F726573703A317C737563636573733AA4
:1039F00024005E74616E6B646F6F725F756E6C6FC6
:103A0000636B5F726573703A317C73756363657362
:103A1000733A240074616E6B646F6F725F756E6CC5
:103A20006F636B00416674657220556E6C6F636BDB
:103A3000696E672C2045787465726E616C446F6F97
:103A400072556E6C6F636B53656E736550696E3A39
:103A500020004265666F726520556E6C6F636B69FE
:103A60006E672C2045787465726E616C446F6F725E
:103A7000556E6C6F636B53656E736550696E3A205B
:103A800000496E2074616E6B646F6F725F756E6C4F
:103A90006F636B2066756E6374696F6E2100636C73
:103AA0006F736564006F70656E003A2400636C6F1D
:103AB000736564006F70656E005E6C656674646F3C
:103AC0006F725F7374617475735F726573703A318E
:103AD0007C003A24005E6C656674646F6F725F737D
:103AE00074617475735F726573703A317C006C65D4
:103AF0006674646F6F725F737461747573004C6584
:103B00006674446F6F724F70656E203D2000636C69
:103B10006F736564006F70656E003A2400636C6FAC
:103B2000736564006F70656E005E726967687464C7
:103B30006F6F725F7374617475735F726573703ADF
:103B4000317C003A24005E7269676874646F6F723A
:103B50005F7374617475735F726573703A317C0062
:103B60007269676874646F6F725F73746174757380
:103B7000005269676874446F6F724F70656E203DC4
:103B8000200072656D6F76656400696E736572748E
:103B90006564003A240072656D6F76656400696E35
:103BA000736572746564005E77697065725F7374C3
:103BB000617475735F726573703A317C003A2400EA
:103BC0005E77697065725F7374617475735F726537
:103BD00073703A317C0077697065725F73746174D9
:103BE0007573005769706572496E736572746564A8
:103BF000203D200072656D6F76656400696E7365A7
:103C000072746564003A240072656D6F76656400B5
:103C1000696E736572746564005E64726970747253
:103C200061795F7374617475735F726573703A3133
:103C30007C003A24005E64726970747261795F730B
:103C400074617475735F726573703A317C0064726D
:103C50006970747261795F73746174757300447212
:103C6000697054726179496E736572746564203D40
:103C700020006C6F636B656400756E6C6F636B65C1
:103C800064003A24006F70656E3A00636C6F736570
:103C9000643A006C6F636B656400756E6C6F636B88
:103CA0006564005E636162696E65745F73746174FC
:103CB00075735F726573703A327C003A24006F70DE
:103CC000656E3A00636C6F7365643A005E636162AF
:103CD000696E65745F7374617475735F7265737018
:103CE0003A327C006C6F636B656400756E6C6F6359
:103CF0006B656400636162696E65745F737461749F
:103D00007573006F70656E00636C6F73656400207F
:103D10003D200045787465726E616C446F6F72551A
:103D20006E6C6F636B53656E736550696E203D20DA
:103D300000203D2000436162696E6574446F6F72BC
:103D4000436C6F736564203D20003A24005E706F01
:103D5000736974696F6E5F63616E69737465725FB6
:103D60007265706C6163655F726573703A327C6610
:103D700061696C7572653A003A24005E706F736910
:103D800074696F6E5F63616E69737465725F72658B
:103D9000706C6163655F726573703A327C666169ED
:103DA0006C7572653A003A24005E706F73697469CD
:103DB0006F6E5F63616E69737465725F7265706C5C
:103DC0006163655F726573703A327C7375636365B6
:103DD00073733A003A24005E706F736974696F6E92
:103DE0005F63616E69737465725F7265706C616345
:103DF000655F726573703A327C7375636365737364
:103E00003A00706F736974696F6E5F63616E697396
:103E10007465725F7265706C6163650056616C7584
:103E200065207061737365643D00496E20706F7327
:103E30006974696F6E2063616E6973746572207254
:103E400065706C6163652066756E6374696F6E2161
:103E500000496E2070617573652066756E637469C4
:103E60006F6E21005E72657363616E5F7374617261
:103E70007465643A307C3A24005E72657363616EE7
:103E80005F737461727465643A307C3A24005E72C8
:103E9000657363616E5F66696E69736865643A3005
:103EA0007C3A24005E72657363616E5F66696E6959
:103EB000736865643A307C3A2400414C4552543A68
:103EC000204455504C494341544520424152434FB0
:103ED00044452853292044455445435445442044EF
:103EE0005552494E472052455343414E5F43414E40
:103EF00049535445525321202052657475726E699E
:103F00006E67207363616E5F616C6C5F7265737066
:103F1000206661696C75726520616E6420626C61F7
:103F20006E6B696E67206F757420626172636F6477
:103F300065732E005E72657363616E5F63616E69A7
:103F400073746572735F726573703A317C66616910
:103F50006C7572653A24005E72657363616E5F63AF
:103F6000616E6973746572735F726573703A317CE8
:103F70006661696C7572653A2400486176655765BB
:103F80005375636365737366756C6C79486F6D65A3
:103F9000644361726F7573656C4265666F7265200C
:103FA0003D2000486F6D654163747561746F725395
:103FB0007563636573734F6E5374617274757020AB
:103FC0003D200053616665546F526F7461746543A0
:103FD00061726F7573656C2829203D200052656CF5
:103FE0006F6164446F6F724F70656E203D20005E9C
:103FF00072657363616E5F63616E6973746572731A
:104000005F726573703A317C737563636573733A7D
:1040100024005E72657363616E5F63616E697374C1
:104020006572735F726573703A317C737563636533
:1040300073733A24005E72657363616E5F63616ED1
:104040006973746572735F726573703A317C66610F
:10405000696C7572653A24005E72657363616E5FA8
:1040600063616E6973746572735F726573703A3100
:104070007C6661696C7572653A24002152656C6FCB
:104080006164446F6F724F70656E20262620536105
:104090006665546F526F746174654361726F7573B6
:1040A000656C282920262620486F6D65416374754C
:1040B00061746F72537563636573734F6E5374618C
:1040C0007274757020262620486176655765537591
:1040D000636365737366756C6C79486F6D65644373
:1040E00061726F7573656C4265666F7265203D2005
:1040F00000556E61626C6520746F20726573636138
:104100006E2063616E6973746572732064756520D7
:10411000746F207468697320636865636B206661DF
:10412000696C696E673A00547279696E6720746FC2
:1041300020486F6D654361726F7573656C2C2073D9
:10414000696E6365206974206861736E27742073DB
:1041500075636365737366756C6C7920686F6D65E4
:1041600064207965742E00496E2072657363616EF8
:104170005F63616E6973746572732066756E6374D4
:10418000696F6E2100626C61636B007768697465AA
:10419000005E72657365745F726573703A317C732B
:1041A0007563636573733A24005E72657365745F4B
:1041B000726573703A317C737563636573733A2407
:1041C00000496E2072657365742066756E6374694C
:1041D0006F6E21005E63616E63656C5F7265737004
:1041E0003A317C737563636573733A24005E63616F
:1041F0006E63656C5F726573703A317C737563636F
:104200006573733A2400496E2063616E63656C20A8
:1042100066756E6374696F6E2100496E20726573F6
:10422000756D655F66756E6374696F6E2066756E19
:104230006374696F6E21003A24005E73797374654C
:104240006D5F636865636B5F726573703A317C00A4
:10425000496E2073797374656D5F636865636B2065
:1042600066756E6374696F6E21003A24005E737424
:10427000617475735F726573703A317C003A240023
:104280005E7374617475735F726573703A317C002C
:1042900054616E6B4C6F7753656E736F72203D2067
:1042A0000054616E6B4D696453656E736F72203D8F
:1042B000200054616E6B4869676853656E736F7256
:1042C000203D200054616E6B446F6F72556E6C6FB1
:1042D000636B53656E736550696E3D0054616E6B20
:1042E000446F6F724F70656E3D0052656C6F616414
:1042F000446F6F72556E6C6F636B53656E73655070
:10430000696E203D20005769706572496E73657251
:10431000746564203D2000094163747561746F7297
:104320004F7574657255704F70746F203D20000991
:104330004163747561746F72496E6E657255704F2A
:1043400070746F203D20004163747561746F724515
:104350006E636F646572203D200041313420414D11
:1043600049532D3330353433205664642052656C04
:104370006F6164446F6F72436C6F736564203D209E
:104380000043757272656E74205765696768743A88
:104390000900496E207374617475735F66756E638E
:1043A00074696F6E2066756E6374696F6E21005E4E
:1043B000626F776C5F7765696768745F7265737049
:1043C0003A327C737563636573733A005E626F772C
:1043D0006C5F7765696768745F726573703A327C89
:1043E000737563636573733A005E626F776C5F77B2
:1043F00065696768745F726573703A327C6661697B
:104400006C7572653A005E626F776C5F776569679D
:1044100068745F726573703A327C6661696C75723C
:10442000653A002C2053616D706C6573207765725E
:10443000653A2000426F776C207765696768742061
:104440004E4F5420534554544C45442C20736F20F8
:1044500072657475726E204661696C757265206252
:1044600075742072657475726E204162736F6C751D
:10447000746557656967687420616E797761792C16
:10448000204162736F6C7574655765696768742045
:104490003D20004E657720524649442074616720D4
:1044A00064657465637465642C2074686579206D37
:1044B00075737420686176652073776170706564C8
:1044C00020626F776C732C20736F207765206E6588
:1044D000656420746F2073656E6420626F776C5F13
:1044E000706C61636564206E6F77206265666F72C1
:1044F0006520626F776C5F7765696768745F726566
:1045000073702E00524649442074616773206D61B8
:104510007463682C206E6F206E65656420746F2054
:104520007468726F7720626F776C5F706C6163651F
:1045300064206576656E7400436C656172696E67B0
:1045400020616C6C20496E697469616C416374759B
:1045500061746F72506F736974696F6E735B5D2005
:10456000616E642053657269616C4E756D6265722F
:104570004861734265656E44697370656E73656406
:104580005B5D2E00206F7574206F6620626F756E04
:1045900064732C2063616E6E6F7420736574207475
:1045A00068697320696E2074686520454550524FD4
:1045B0004D2E00736C6F745F6E756D6265722000B6
:1045C0002920746F20005D2028736C6F74200053C5
:1045D000657474696E6720496E697469616C4163C2
:1045E000747561746F72506F736974696F6E735B09
:1045F000004166746572205363616C655F43616C52
:104600006962726174696F6E3A20004265666F720A
:1046100065205363616C655F43616C6962726174AC
:10462000696F6E3A20004166746572205363616C55
:10463000655F43616C6962726174696F6E5F576533
:10464000696768743A20004265666F72652053633B
:10465000616C655F43616C6962726174696F6E5F02
:104660005765696768743A20004166746572205323
:1046700063616C655F43616C6962726174696F6EDE
:104680005F323030673A20004265666F72652053B2
:1046900063616C655F43616C6962726174696F6EBE
:1046A0005F323030673A2000416674657220536390
:1046B000616C655F43616C6962726174696F6E5FA2
:1046C0005A65726F3A20004265666F7265205363C7
:1046D000616C655F43616C6962726174696F6E5F82
:1046E0005A65726F3A20004661696C656420746F88
:1046F0002067657420357820676F6F642064697364
:1047000074616E63652072656164696E67732069A8
:104710006E2063616C6962726174655F7768697449
:10472000655F626F776C2829000941766752616E78
:1047300067653A09000952616E6765353A090009F3
:1047400052616E6765343A09000952616E676533DC
:104750003A09000952616E6765323A090052616E8A
:104760006765313A09004661696C656420746F20A1
:1047700067657420357820676F6F6420646973748F
:10478000616E63652072656164696E677320696E2E
:104790002063616C6962726174655F626C61636BF6
:1047A0005F626F776C2829000941766752616E67F6
:1047B000653A09000952616E6765353A0900095288
:1047C000616E6765343A09000952616E6765333A74
:1047D00009000952616E6765323A090052616E67DD
:1047E00065313A090046696E616C20656E636F64DD
:1047F0006572203D20004166746572206272616BB3
:10480000652C20656E636F646572203D20004465F1
:10481000736972656420706F736974696F6E203D8F
:1048200020004163747561746F7252657475726EA5
:10483000546F486F6D65466173742C204265666FD6
:10484000726520456E636F646572203D20000943E8
:10485000656E746572456E636F646572506F7369DF
:1048600074696F6E203D200900094361726F757392
:10487000656C486F6D65203D2009000961636365C3
:104880006C537465707065722E63757272656E74A8
:10489000506F736974696F6E2829203D2009005399
:1048A000746570706572506F7330203D200900434D
:1048B0006865636B2063656E74657220656E636FF7
:1048C00064657220666F72206C6F6F73656E6573BE
:1048D000732F736C697070696E67202D2065697421
:1048E000686572207468652079656C6C6F772069E3
:1048F0006E736572742068617320636F6D65206CE0
:104900006F6F73652066726F6D20746865207368C1
:104910006166742C2068617320706F70706564200C
:104920006F7574206F662063656E74657220656EA6
:10493000636F6465722C206F7220746865207768DD
:104940006F6C6520656E636F646572206974736552
:104950006C662068617320746F6F206D75636820CA
:10496000776967676C6520746F206974206F7220A7
:1049700069736E2774207365617465642077656C54
:104980006C2E002A2A2A4641494C45442A2A2A00EC
:104990002A2A2A5041535345442A2A2A0041742086
:1049A0006C65617374206F6E65206F662074686536
:1049B000206361726F7573656C206D6F76656D65D0
:1049C0006E7473206661696C65642C20736F20744B
:1049D0006869732069732061206661696C7572650E
:1049E00020616E64206E6F7420612076616C696452
:1049F0002063656E74657220656E636F64657220F6
:104A0000736C697070696E6720746573742E002A08
:104A10002A2A4641494C45442A2A2A005468697387
:104A20002076616C75652073686F756C64206265B3
:104A3000203C20353020746F20656E7375726520C0
:104A40006E6F20736C697070696E672E00446966C2
:104A5000666572656E636520696E2063656E746558
:104A60007220656E636F64657220706F736974691C
:104A70006F6E207768656E206D6F76696E67206354
:104A80006C6F636B7769736520767320636F756EE7
:104A9000746572636C6F636B7769736520697320EB
:104AA0000043656E74657220656E636F6465722085
:104AB000506F736974696F6E4174536C6F743130E9
:104AC000434357203D200043656E74657220656E38
:104AD000636F64657220506F736974696F6E41749F
:104AE000536C6F7431304357203D20000A43656E8C
:104AF00074657220656E636F64657220506F7369B0
:104B000074696F6E4174486F6D65203D20004F766B
:104B10006572616C6C20726573756C74203D202A1F
:104B20002A2A4641494C45442A2A2A004F76657272
:104B3000616C6C20726573756C74203D202A2A2A82
:104B40005041535345442A2A2A004E756D626572BE
:104B5000206F66206D6F76656D656E742066616985
:104B60006C75726573203D20004E756D6265722014
:104B70006F66206D6F76656D656E742072657472F8
:104B8000696573203D2000206379636C65732E0096
:104B90000A0A46696E6973686564204379636C65C7
:104BA0002054657374206F6620006E756D466169D0
:104BB0006C75726573203D20006E756D5265747260
:104BC000696573203D200053756363657373203DF1
:104BD000200067476F546F506F736974696F6E522E
:104BE000657472696573203D2000476F546F446996
:104BF0007370656E7365536C6F74203D20006E7525
:104C00006D4661696C75726573203D20006E756D2F
:104C100052657472696573203D2000537563636546
:104C20007373203D200067476F546F506F73697432
:104C3000696F6E52657472696573203D2000476F1D
:104C4000546F44697370656E7365536C6F74203D67
:104C500020002054696D6573004379636C652054AE
:104C6000657374205246494420446F6E652C20526F
:104C7000464944204D697373696E6720002054696A
:104C80006D6573004379636C6520546573742052BD
:104C900046494420446F6E652C20524649442044C6
:104CA0006574656374656420002054696D657300E4
:104CB0002054696D65732C2052464944204D697318
:104CC00073696E6720004379636C65205465737463
:104CD00020526573756C747320536F204661722087
:104CE0002D205246494420446574656374656420F0
:104CF0000020636F6D706C657465642C20486F755F
:104D000072732052656D61696E696E67203D200087
:104D1000206F7574206F6620004379636C652000F6
:104D200052464944204E6F7420446574656374652F
:104D30006421005E706F7765725F6379636C655F95
:104D400070635F726573703A317C7375636365730A
:104D5000733A24005E706F7765725F6379636C6588
:104D60005F70635F726573703A317C7375636365FE
:104D700073733A2400414C4552543A20506F776582
:104D800072204379636C696E6720504321005E7026
:104D90006F7765725F6379636C655F726F75746559
:104DA000725F726573703A317C7375636365737398
:104DB0003A24005E706F7765725F6379636C655F3C
:104DC000726F757465725F726573703A317C73755A
:104DD00063636573733A2400414C4552543A205042
:104DE0006F776572204379636C696E6720526F75C7
:104DF00074657221005E77697065725F72656D6FB0
:104E00007665643A307C3A24005E77697065725F3B
:104E100072656D6F7665643A307C3A24005E77691E
:104E20007065725F696E7365727465643A307C3A5E
:104E300024005E77697065725F696E736572746570
:104E4000643A307C3A24005E6472697074726179ED
:104E50005F72656D6F7665643A307C3A24005E64FB
:104E6000726970747261795F72656D6F7665643AAC
:104E7000307C3A24005E64726970747261795F6993
:104E80006E7365727465643A307C3A24005E6472B5
:104E90006970747261795F696E7365727465643A82
:104EA000307C3A240066696E697368656400616CE1
:104EB0006572740064697370656E73696E67006211
:104EC0006F776C006163746976650069646C650076
:104ED0003A24005E6E61636B3A317C003A24005ED6
:104EE0006E61636B3A317C00706F7765725F6379D6
:104EF000636C655F726F7574657200706F77657251
:104F00005F6379636C655F7063006379636C655F91
:104F1000746573745F72666964006379636C655F5E
:104F2000746573745F616C6C006379636C655F7446
:104F30006573745F6163747561746F727300637914
:104F4000636C655F746573745F6361726F757365BD
:104F50006C00746573745F7363616C655F6E6F6919
:104F6000736500746573745F6361726F7573656CEC
:104F70005F656E636F6465727300756E6A616D5F05
:104F80006361726F7573656C006275726E5F696ED6
:104F90005F6361726F7573656C00746573745F63D2
:104FA00061726F7573656C5F6672696374696F6E49
:104FB000007A65726F5F63656E7465725F656E63BC
:104FC0006F646572003A24005E6765745F696E7392
:104FD00074616C6C5F6D6F64655F726573703A319C
:104FE0007C003A24005E6765745F696E7374616C5F
:104FF0006C5F6D6F64655F726573703A317C0067DA
:1050000065745F696E7374616C6C5F6D6F6465006D
:105010007365745F696E7374616C6C5F6D6F6465EA
:10502000007365745F726669645F6F76657272693A
:1050300064650064656372656173655F70616E6568
:105040006C5F6272696768746E65737300696E6322
:1050500072656173655F70616E656C5F62726967CE
:1050600068746E657373007365745F70616E656CF0
:105070005F6272696768746E65737300686F6D65EF
:105080005F6361726F7573656C5F737765657000E0
:105090006361726F7573656C5F706F736974696F4C
:1050A0006E006163747561746F725F636F756E74A7
:1050B0006572636C6F636B776973650061637475A8
:1050C00061746F725F636C6F636B776973650061A6
:1050D00063747561746F725F72657475726E746FEC
:1050E000686F6D656661737470696400616374757F
:1050F00061746F725F72657475726E746F686F6DD4
:105100006566617374007365745F6163747561745F
:105110006F725F706F736974696F6E00616374752D
:1051200061746F725F706F736974696F6E00616331
:10513000747561746F725F686F6D650063616C692F
:1051400062726174655F626C61636B5F626F776CE2
:105150000063616C6962726174655F776869746528
:105160005F626F776C007365745F626C61636B5F25
:10517000626F776C5F64697374616E6365007365F9
:10518000745F77686974655F626F776C5F64697379
:1051900074616E6365007365745F7363616C655FF2
:1051A00063616C6962726174696F6E007365745FCC
:1051B000696E697469616C5F6163747561746F7243
:1051C0005F706F736974696F6E00636C6561725FA5
:1051D0006163747561746F725F706F736974696F06
:1051E0006E7300313233343536373839303132333B
:1051F000343536373839303132333435363738395B
:105200003031323334353637383930313233343562
:1052100036373839300063616C6962726174655F7A
:105220007363616C655F73686966745F7A65726FDA
:105230000063616C6962726174655F7363616C6560
:105240000076657273696F6E00626F776C5F776569
:105250006967687400626F776C5F737461747573EB
:10526000007374617475730073797374656D5F6333
:105270006865636B00666F726365007363616E5F80
:10528000616C6C00726573756D650063616E63655A
:105290006C0072657365745F6361726F7573656CC2
:1052A000007265736574007365745F64656D6F5F2C
:1052B0006D6F6465007365745F6861735F72656CC0
:1052C0006F61645F646F6F725F6C6F636B007365B7
:1052D000745F626F776C5F617265615F636F6C6F43
:1052E000725F7479706500706F7765725F73617655
:1052F000655F6D6F64650072657363616E5F6361A6
:105300006E69737465727300706175736500706F98
:10531000736974696F6E5F63616E69737465725FE0
:105320007265706C616365007365745F626172635E
:105330006F6465007363616E5F626172636F646561
:1053400000636162696E65745F7374617475730084
:1053500064726970747261795F73746174757300DB
:1053600077697065725F73746174757300726967D1
:105370006874646F6F725F737461747573006C65C9
:105380006674646F6F725F73746174757300646FB9
:105390006F725F7374617475730074616E6B646FA8
:1053A0006F725F756E6C6F636B0074616E6B646FB0
:1053B0006F725F6C6F636B00636162696E65745FCF
:1053C000756E6C6F636B00636162696E65745F6CB0
:1053D0006F636B00646F6F725F756E6C6F636B00F1
:1053E000646F6F725F6C6F636B0064697370656E7E
:1053F00073655F66756C6C5F63616E006469737082
:10540000656E73655F74696D65640064697370656A
:105410006E73655F616C6C00416D6F756E745F4497
:10542000697370656E7365643A09005765696768EA
:10543000742041667465722031207365633A0900F7
:105440005765696768742041667465723A09005748
:105450006569676874204265666F72653A09007312
:1054600065745F737465707065725F726967687484
:105470005F706F736974696F6E00416D6F756E74E4
:105480005F44697370656E7365643A0900576569B6
:105490006768742041667465722031207365633AD1
:1054A00009005765696768742041667465723A0936
:1054B00000576569676874204265666F72653A09CE
:1054C000007365745F737465707065725F6C656698
:1054D000745F706F736974696F6E007365745F7366
:1054E0007465707065725F74686972645F7370650B
:1054F0006564007365745F737465707065725F7264
:10550000696768745F7370656564007365745F7361
:105510007465707065725F6C6566745F73706565E5
:1055200064007365745F70756D705F73706565643A
:105530000064697370656E73655F74616E6B74652A
:1055400073740064697370656E73655F6465766516
:105550006C6F7065720064697370656E73655F77F8
:1055600065696768740070696E670064656D6F00D7
:10557000706F736974696F6E5F63616E6973746570
:1055800072007365745F7363616C655F6C656473EF
:10559000007365745F6C656473002D2D2D2D2D2DAA
:1055A0002D2D2D2D2D2D2D2D00706172616D35202D
:1055B0003D2000706172616D34203D200070617289
:1055C000616D33203D2000706172616D32203D209D
:1055D00000706172616D31203D2000706172616DFB
:1055E00034203D2000706172616D33203D200070D9
:1055F0006172616D32203D2000706172616D3120F9
:105600003D2000706172616D33203D200070617239
:10561000616D32203D2000706172616D31203D204E
:1056200000706172616D32203D2000706172616DA9
:1056300031203D2000706172616D31203D200041BC
:105640006C6C2074686520646174612076616C758F
:105650006573203D2000496E7465676572204E7544
:105660006D506172616D6574657273203D200041FB
:105670006C6C20506172616D73205061737365644E
:1056800020004D65737361676554797065203D2016
:10569000002A2A2A2A2A2A2A2A2A2A2A2A2A2A2A94
:1056A0002A2A003A24003A2400303030303030309A
:1056B0003030300030303030303030303030005E1C
:1056C000626F776C5F706C616365643A357C005E15
:1056D000626F776C5F706C616365643A357C004320
:1056E0006F6C6F722073656E736F7273206E6F7460
:1056F00020696E7374616C6C65642C2064656661EE
:10570000756C74696E6720746F20524742282D3182
:105710002C2D312C2D3129005E626F776C5F726504
:105720006D6F7665643A307C3A24005E626F776C08
:105730005F72656D6F7665643A307C3A24003A2476
:10574000005E63616E69737465725F696E73746124
:105750006C6C65643A327C003A24005E63616E6969
:10576000737465725F696E7374616C6C65643A32F0
:105770007C003A24005E63616E69737465725F72C7
:10578000656D6F7665643A317C003A24005E636132
:105790006E69737465725F72656D6F7665643A31B8
:1057A0007C003A2409003A00095E646973705F70F6
:1057B000726F67726573733A327C003A24003A0064
:1057C0005E646973705F70726F67726573733A328B
:1057D0007C0052616E67652072656164696E672046
:1057E0006F766572666C6F770052616E67652072C6
:1057F000656164696E6720756E646572666C6F774B
:10580000005261772072656164696E67206F76650A
:1058100072666C6F77005261772072656164696EA1
:105820006720756E646572666C6F77005369676E8A
:10583000616C2F4E6F697365206572726F720049DB
:10584000676E6F72696E672072616E6765004E6F7A
:1058500020636F6E76657267656E636500454345CC
:10586000206661696C7572650053797374656D208B
:105870006572726F72004162736F6C757465576503
:1058800069676874206973203C2035302C20746867
:10589000726F77696E6720626F776C5F72656D6F8C
:1058A000766564206576656E742E20204E6F2067C5
:1058B0006F6F642064697374616E63652073656ED5
:1058C000736F722072656164696E672061766169C9
:1058D0006C61626C652C20636865636B20666F7217
:1058E000206572726F722062656C6F772E20204186
:1058F00062736F6C757465576569676874203D20C5
:10590000002C204162736F6C757465576569676818
:1059100074203D2000206F72204162736F6C75749B
:1059200065576569676874203C2035302C20736F9B
:10593000207468726F77696E6720626F776C5F7230
:10594000656D6F766564206576656E742E20526194
:105950006E6765203D200052616E6765203E200025
:105960003A24003030303030303030303000524661
:105970004944526561644661696C436F756E743D5C
:1059800031302E20576F756C642068617665207405
:1059900068726F776E207468697320626F776C5FCE
:1059A000706C61636564206576656E7420657863EC
:1059B0006570742052464944204F7665727269645E
:1059C00065206973206E6F74206F6E2C20736F20BA
:1059D0006469646E27743A205E626F776C5F706CE6
:1059E000616365643A357C003A24003030303030F1
:1059F000303030303000436865636B205246494494
:105A000020746167732E20576F756C64206861760F
:105A100065207468726F776E207468697320626F96
:105A2000776C5F706C61636564206576656E742069
:105A30006578636570742052464944204F766572DC
:105A400072696465206973206E6F74206F6E2C20FC
:105A5000736F206469646E27743A205E626F776C9E
:105A60005F706C616365643A357C002C20426F770F
:105A70006C506C6163656453616D706C65734166F5
:105A800074657252464944203D20002C20416273C7
:105A90006F6C757465576569676874203D200052A6
:105AA000616E6765203D20002C20426F776C506C42
:105AB0006163656453616D706C65734265666F7296
:105AC0006552464944203D20002C204162736F6C92
:105AD000757465576569676874203D200052616E72
