:100000000C94DE3F0C9463730C9438730C940D7352
:100010000C94E2720C94B7720C948C720C94617212
:100020000C9436720C9499980C94C7710C9451717D
:100030000C940F400C940F400C940F400C940F4004
:100040000C940F400C940F400C940F400C940F40F4
:100050000C940F400C94BD6B0C940F400C94929236
:100060000C940F400C943BBA0C9411BA0C940F40B2
:100070000C940F400C940F400C940F400C940F40C4
:100080000C940F400C940F400C940F400C940F40B4
:100090000C94E7B90C94BDB90C940F400C9475976F
:1000A0000C940F400C940F400C940F400C940F4094
:1000B0000C940F400C940F400C940F400C940F4084
:1000C0000C940F400C940F400C940F400C9493B977
:1000D0000C9469B90C940F400C943FB90C9415B969
:1000E0000C940F4008000000BE922449123EABAAB7
:1000F000AA2ABECDCCCC4C3E00000080BEABAAAA42
:10010000AA3E00000000BF000000803F0000000089
:1001100000084178D3BB4387D1133D190E3CC3BDC2
:100120004282AD2B3E68EC8276BED98FE1A93E4C6F
:1001300080EFFFBE01C4FF7F3F00000000000C9471
:1001400015910C9437BD0C94E1900C9474400C9470
:1001500023AA0C9403AA0C94AE8F0C94FABC0C94B2
:1001600028AA0C9478900C94298F0C94F6A90C94DE
:100170002DAA0C9414BD0C94FDA90C9455BD0C949F
:10018000048F0C94358F0C9456400C94B0400C9412
:1001900086900C94DCBC0D94F6080C94BF900D94E2
:1001A000F2080C94F4910C94E8A90C948D8F0C94A3
:1001B00062900D94FA080C942D8F0C9407AA0C945D
:1001C000EEA90C94338F0C946A900C944B900D9480
:1001D000F4080C94318F0C94E7A80C94D7BC0C94C1
:1001E000FC400C9469BD0C94DC920C94BE900C9471
:1001F00035900D9403090C940ABD0C94C6A80C9478
:10020000D0910C9444910C94B8910C9403900C945C
:100210001EBD0C9485A90C9472A80C9411AA0C9480
:100220001BAA0C940DAA0C9402BD0C9497C70C94B5
:10023000CE400C94F2A90C94E28F0C94E8900D94AB
:10024000F8080C947F900C94B7A80C9428BD0C94DB
:1002500092400C94FAA90D94FC080C9438A90C94C3
:10026000BD900C94CE900C94BD6B0C945C910C944E
:10027000378F0C948D900C9446920C9484920C942D
:1002800041BD0C9429AA0C941FAA0C94D9A80D94D2
:10029000AD060C942B8F0C9415AA0D942E020C9481
:1002A000CFBC0C94F0BC0C9494900C9428920C94B9
:1002B0002F8F0C94E6BC0C94F1910C945FBD0C94C0
:1002C0004BBD0C9471900C94BC904E414E494E49DC
:1002D0005459494E46CDCCCC3D0AD7233C17B7D113
:1002E0003877CC2B329595E6241FB14F0A000020B9
:1002F000410000C84200401C4620BCBE4CCA1B0E38
:100300005AAEC59D745246494453656E736F724729
:100310006F6F64203D200044697374616E636553A0
:10032000656E736F72476F6F64203D20004C6F6184
:100330006443656C6C53656E736F72476F6F6420B6
:100340003D20004163747561746F72486F6D696E12
:1003500067476F6F64203D20004163747561746F5F
:10036000724F7574657255704F70746F476F6F641C
:10037000203D20004163747561746F72496E6E6533
:100380007255704F70746F476F6F64203D2000414D
:1003900063747561746F724D6F746F72456E636FC5
:1003A000646572476F6F64203D200041637475611E
:1003B000746F724D6F746F72476F6F64203D2000D1
:1003C0004361726F7573656C486F6D696E67476FD7
:1003D0006F64203D20004361726F7573656C4365E7
:1003E0006E746572456E636F646572476F6F6420EB
:1003F0003D20004361726F7573656C4D6F746F7251
:10040000456E636F646572476F6F64203D200043E3
:1004100061726F7573656C4D6F746F72476F6F6447
:10042000203D20004361726F7573656C486F6D6588
:100430004F70746F476F6F64203D20004F76657278
:10044000726964655246494449664974446F6573EC
:100450006E745265616450726F7065726C79203D84
:100460002000675369646550616E656C427269670C
:1004700068746E657373203D200053696465506134
:100480006E656C4272696768746E657373203D2097
:100490000048617352656C6F6164446F6F724C6F9A
:1004A000636B203D20004973426C61636B426F7740
:1004B0006C41726561203D20002C20436F756E7485
:1004C000203D200041766572616765206F66206E71
:1004D0006F6E2D7A65726F20496E697469616C4127
:1004E00063747561746F72506F736974696F6E7342
:1004F000203D20005D203D200053657269616C4EF7
:10050000756D626572735B005D203D2000536572FE
:1005100069616C4E756D6265724861734265656EA6
:1005200044697370656E7365645B005D203D2000F7
:10053000496E697469616C4163747561746F72505E
:100540006F736974696F6E735B00496E697469617A
:100550006C4163747561746F72506F736974696F05
:100560006E203D20005363616C655F43616C69627E
:10057000726174696F6E5F576569676874203D20AA
:10058000005363616C655F43616C69627261746999
:100590006F6E5F32303067203D20005363616C65C1
:1005A0005F43616C6962726174696F6E5F5A6572F4
:1005B0006F203D20005363616C655F43616C69622D
:1005C000726174696F6E203D200046575F42554945
:1005D0004C44203D200044697370656E7365725F02
:1005E0004D6F64656C5F4D696E6F72203D200044F5
:1005F000697370656E7365725F4D6F64656C5F4D96
:10060000616A6F72203D200044697370656E736586
:10061000725F53657269616C203D20004545505002
:10062000524F4D5F56455253494F4E203D20004793
:100630006574414D54323033456E636F646572505A
:100640006F736974696F6E20414D54323033637536
:100650007272656E74506F736974696F6E3A2000C0
:1006600052617720414D5432303363757272656E3A
:1006700074506F736974696F6E3A200052657365C8
:10068000742041726475696E6F20746F2072657397
:10069000746172742070726F6772616D2E004572A2
:1006A000726F72206F627461696E696E6720706F1D
:1006B000736974696F6E2E00446F6E65207A65727F
:1006C0006F696E6720656E636F6465722C20437579
:1006D0007272656E7420706F736974696F6E3A2000
:1006E0000052657365742041726475696E6F207481
:1006F0006F20726573746172742070726F677261BB
:100700006D2E004572726F72206F627461696E693E
:100710006E6720706F736974696F6E2E00342E2EB1
:100720002E00332E2E2E00322E2E2E00312E2E2E67
:1007300000476F696E6720746F207A65726F20744E
:10074000686520414D5432303320656E636F6465B7
:1007500072206E6F772E2E2E206D6179206E65656A
:100760006420746F20706F776572206379636C65A5
:1007700020616674657220746869732E00436F721D
:1007800072656374656420414D5432323220456E87
:10079000636F6465723A2000414D54323232204515
:1007A0006E636F6465723A2000414D5432323220DC
:1007B00072656164206572726F722E204174746577
:1007C0006D7074733A2000446F6E65207A65726FA5
:1007D000696E6720656E636F6465722C2043757265
:1007E00072656E7420706F736974696F6E3A200061
:1007F000476F696E6720746F207A65726F20746826
:100800006520414D5432323220656E636F646572EB
:10081000206E6F772E2E2E00456E64696E67204124
:1008200063747561746F7220506F736974696F6E51
:10083000203D20005374617274696E6720416374B7
:100840007561746F7220506F736974696F6E203DAB
:100850002000486F6D654163747561746F72207715
:100860006173207375636365737366756C212020F3
:10087000426F7468206163747561746F7273206570
:100880006E6465642075702E00486F6D65416374F9
:100890007561746F7220776173204E4F54207375A9
:1008A000636365737366756C2C2041637475617442
:1008B0006F7220456E636F6465722052616E67656A
:1008C000203C2032207768656E2073686F756C64F9
:1008D000206265207E3230302D333030002C2041B4
:1008E00063747561746F724F7574657255704F7073
:1008F000746F203D2000486F6D65416374756174AD
:100900006F7220776173204E4F5420737563636557
:10091000737366756C2C2062656361757365206105
:1009200063747561746F727320617265206E6F7489
:1009300020626F74682075702E2020416374756189
:10094000746F72496E6E657255704F70746F203D92
:1009500020005375626F7074696D616C206F7269ED
:10096000656E746174696F6E2C207265636F6D6D56
:10097000656E6420666C6970206163747561746F64
:100980007220313830206465677265657320736F3B
:100990002074686174206D617820746F7271756560
:1009A000206973206F6E206F7574657220736C6F91
:1009B00074732073696E6365207468657927726546
:1009C0002075736564206D6F7265206F6674656E47
:1009D0002E00476F6F64206F7269656E7461746971
:1009E0006F6E2C206D617820746F72717565206F49
:1009F0006E206F7574657220736C6F7473207369E9
:100A00006E63652074686579277265207573656407
:100A1000206D6F7265206F6674656E2E002C20410C
:100A200063747561746F72446972656374696F6E23
:100A3000496E6E6572446F776E4F7574657255704E
:100A4000203D2000456E64206F6620486F6D696E02
:100A500067204163747561746F722C20456E636FFB
:100A6000646572203D200046696E616C20416374AC
:100A70007561746F7220706F736974696F6E206135
:100A80006674657220686F6D6520746F2030206910
:100A9000732000436F6E6669726D696E67206E65C4
:100AA0007720706F736974696F6E20697320002CF2
:100AB00020736F206E657720706F736974696F6E35
:100AC00020697320002C20736F2074616B65207483
:100AD000686520646966666572656E636520696E27
:100AE000207A65726F20706F696E747320616E6416
:100AF0002061646A757374206974206279200043F0
:100B0000757272656E746C7920617420002C20738C
:100B10006F20736574207A65726F20706F696E74D0
:100B2000206265747765656E207468652074776FE0
:100B30002C206174200020746F2000416374756163
:100B4000746F7220456E636F6465722072616E67A8
:100B50006520697320004163747561746F7220456C
:100B60006E636F6465722052616E6765203C20324F
:100B7000207768656E2073686F756C6420626520ED
:100B80007E3230302D3330302E20436865636B2049
:100B90004163747561746F7220456E636F64657232
:100BA0002057697265732028342070696E20636F46
:100BB0006E6E6563746F72292E2020496620616312
:100BC000747561746F727320646964206E6F742031
:100BD0006D6F76652C20636865636B206163747547
:100BE00061746F72206D6F746F72207769726573B4
:100BF0002028322070696E20636F6E6E6563746F9B
:100C000072292E00426F7468206163747561746F7D
:100C100072206F70746F73207265616420646F77E7
:100C20006E202D207468697320697320616E2065C1
:100C300072726F7220636173652E2020476F696E38
:100C40006720746F2073746F7020616E642072650A
:100C50007475726E206661696C757265206F6E20A6
:100C6000486F6D654163747561746F7221005374D0
:100C7000616C6C6564206D6F7265207468616E20B4
:100C800035302074696D65732C2065786974696EE0
:100C9000672074686973206C6F6F702E00537461E5
:100CA0006C6C656421204E65656420746F20676FED
:100CB00020696E206F746865722064697265637460
:100CC000696F6E206E6F772C20616E64207265767E
:100CD00065727365206C6F6769632E004F7574656C
:100CE000722075702C20696E6E657220646F776E4D
:100CF000202D20736F206D6F766520696E6E657292
:100D000020757020666972737420746F206D616B3A
:100D100065206F7574657220676F20646F776E0051
:100D2000095573696E672072657665727365642014
:100D30006C6F6769632C2077616974656420666FE6
:100D40007220496E6E657220746F20676F20646F29
:100D5000776E20686572652073696E6365206F75B4
:100D60007465722077656E7420646F776E20696E8B
:100D70002070726576696F7573206C6F6F702E00CE
:100D80005374616C6C6564206D6F7265207468616A
:100D90006E2035302074696D65732C206578697418
:100DA000696E672074686973206C6F6F702E0053D2
:100DB00074616C6C656421204E65656420746F20DD
:100DC000676F20696E206F74686572206469726550
:100DD0006374696F6E206E6F772C20616E64207271
:100DE000657665727365206C6F6769632E00094FC5
:100DF000757465722077656E7420646F776E2077E6
:100E000068656E20657870656374696E6720696EC9
:100E10006E65722E2020526576657273696E67204A
:100E20006C6F6769632E0009496E6E657220646F8E
:100E3000776E2C2073746F7070696E6720666972AC
:100E40007374206C6F6F70004163747561746F729E
:100E50004F7574657255704F70746F20697320649C
:100E60006F776E20616C72656164792E20204D6F02
:100E700076696E6720697420757020616E64204900
:100E80006E6E657220646F776E2E00426F746820FC
:100E90006172652075702C20636F756C6420676FBC
:100EA0002065697468657220646972656374696F2E
:100EB0006E2E202043686F6F73696E6720496E6ED7
:100EC000657220446F776E2E002C2041637475612B
:100ED000746F72446972656374696F6E496E6E6592
:100EE00072446F776E4F757465725570203D2000A7
:100EF0005374617274206F6620486F6D696E67204D
:100F00004163747561746F722C20456E636F646504
:100F100072203D2000486F6D65486F6C6550756E9E
:100F20006368207761732073756363657373667597
:100F30006C212020426F746820686F6C652070758A
:100F40006E6368206F70746F7320726561642073C4
:100F50006166652E002C204469644F757465724F7C
:100F600070746F546F67676C6550726F7065726CE8
:100F700079203D20002C20446964496E6E65724FD3
:100F800070746F546F67676C6550726F7065726CC8
:100F900079203D20002C20486F6C6550756E636889
:100FA0004F75746572536166654F70746F203D2094
:100FB00000486F6D65486F6C6550756E636820778B
:100FC0006173204E4F542073756363657373667548
:100FD0006C2C206265636175736520686F6C652099
:100FE00070756E6368206F70746F73206172652016
:100FF0006E6F7420626F746820736166652C206F59
:101000007220696E6E6572206F72206F75746572E2
:10101000206F70746F20646964206E6F7420746F29
:1010200067676C6520647572696E6720686F6D69AB
:101030006E672E0A486F6C6550756E6368496E6EF8
:101040006572536166654F70746F203D200046697C
:101050006E616C20486F6C652050756E63682070FF
:101060006F736974696F6E20616674657220686F52
:101070006D6520746F20302069732000436F6E66A9
:1010800069726D696E67206E657720706F73697421
:10109000696F6E20697320002C20736F206E657756
:1010A00020706F736974696F6E20697320002C2043
:1010B000736F2074616B652074686520646966666F
:1010C0006572656E636520696E207A65726F207047
:1010D0006F696E747320616E642061646A757374E5
:1010E000206974206279200043757272656E746C99
:1010F0007920617420002C20736F20736574207A2E
:1011000065726F20706F696E7420626574776565B3
:101110006E207468652074776F2C20617420002025
:10112000746F2000486F6C652050756E63682045B1
:101130006E636F6465722072616E676520697320EB
:1011400000486F6C652050756E636820456E636F54
:101150006465722052616E6765203C20322077689A
:10116000656E2073686F756C64206265207E323016
:10117000302D3330302E20436865636B204163741B
:101180007561746F7220456E636F64657220576974
:101190007265732028342070696E20636F6E6E65EF
:1011A00063746F72292E2020496620616374756113
:1011B000746F727320646964206E6F74206D6F7633
:1011C000652C20636865636B206163747561746F5F
:1011D00072206D6F746F7220776972657320283288
:1011E0002070696E20636F6E6E6563746F72292E56
:1011F00000426F746820686F6C652070756E63685C
:10120000206F70746F73207265616420646F776EF5
:10121000202D207468697320697320616E206572C7
:10122000726F7220636173652E2020476F696E674D
:1012300020746F2073746F7020616E642072657407
:1012400075726E206661696C757265206F6E2048DC
:101250006F6D65486F6C6550756E6368210057450A
:1012600020474F5420544F20454E44204F4620489D
:101270004F4D4520484F4C452050554E4348204C3B
:101280004F4F5020574954484F555420494E4E45D2
:1012900052204F50544F20544F47474C494E4721FE
:1012A0002020436865636B20496E6E657220486F2D
:1012B0006C6550756E6368204F70746F20666F7236
:1012C0002066756E6374696F6E616C6974792E0047
:1012D000574520474F5420544F20454E44204F46F9
:1012E00020484F4D4520484F4C452050554E4348CF
:1012F000204C4F4F5020574954484F5554204F557C
:10130000544552204F50544F20544F47474C494E5C
:1013100047212020436865636B204F7574657220F8
:10132000486F6C6550756E6368204F70746F2066EF
:101330006F722066756E6374696F6E616C69747923
:101340002E004F7574657220736166652C20736F73
:101350002073746172742070756E6368696E6720A3
:10136000696E776172642077697468206F7574653F
:10137000722E00574520474F5420544F20454E446D
:10138000204F4620484F4D4520484F4C4520505552
:101390004E4348204C4F4F5020574954484F5554C6
:1013A000204F55544552204F50544F20544F4747DB
:1013B0004C494E47212020436865636B204F75746C
:1013C000657220486F6C6550756E6368204F70744D
:1013D0006F20666F722066756E6374696F6E616CE4
:1013E0006974792E00574520474F5420544F2045AB
:1013F0004E44204F4620484F4D4520484F4C4520F5
:1014000050554E4348204C4F4F5020574954484F59
:10141000555420494E4E4552204F50544F20544F62
:1014200047474C494E47212020436865636B20495C
:101430006E6E657220486F6C6550756E6368204FE4
:1014400070746F20666F722066756E6374696F6E5C
:10145000616C6974792E00496E6E657220736166E5
:10146000652C20736F20676F20696E77617264202E
:101470007769746820696E6E657200486F6D696E79
:101480006720486F6C652050756E63682C20456E30
:10149000636F646572203D200046696E616C205266
:1014A0004742204F75743A09005269676874436F68
:1014B0006C6F7250756C7365496E3A09004C6566C5
:1014C00074436F6C6F7250756C7365496E3A0900A6
:1014D0004661696C656420746F2067657420337899
:1014E0002064697374616E63652072656164696EFE
:1014F000677320696E2052656164436F6C6F72532D
:10150000656E736F72732C20617373756D696E678E
:101510002063656E74657265642E000941766752BA
:10152000616E67653A09000952616E6765333A0971
:10153000000952616E6765323A090052616E676553
:10154000313A0900446F2066756C6C205748495445
:10155000452072656164696E6700446F20616D6249
:1015600069656E74206C696768742072656164696E
:101570006E672077697468204E656F506978656C76
:1015800073204F464600436F6C6F722073656E7315
:101590006F7273206E6F7420696E7374616C6C650A
:1015A000642C2064656661756C74696E6720746F65
:1015B00020524742282D312C2D312C2D3129000A63
:1015C0004C6F61642043656C6C2053616D706C6975
:1015D0006E67206661696C7572652C205265616466
:1015E000696E6773206E6F742077697468696E2006
:1015F00037352E30206772616D7320696E20302E72
:1016000031207365632E2053616D706C65732028E3
:10161000313078204144432076616C7565732066D3
:10162000697273742C207468656E2031307820697B
:101630006E206772616D73293A0900094E65772043
:1016400053616D706C65733A09000A54776F2042DC
:1016500061642053616D706C65732C20676F696ED7
:101660006720746F207265706C61636520776974A0
:10167000682032206E65772073616D706C65733AF7
:1016800009000A54776F204261642053616D706CC9
:101690006573206661696C7572652C20676F696E71
:1016A0006720746F207265706C6163652077697460
:1016B000682032206E65772073616D706C65733AB7
:1016C00009002A2A2A4641494C45442A2A2A002A46
:1016D0002A2A5041535345442A2A2A0054617267EA
:1016E0006574206973206C657373207468616E2063
:1016F000302E312067202F20313030206D672C2094
:10170000736F207468697320746573742000417668
:10171000657261676520446966666572656E6365BA
:1017200020286D67293A200041766572616765203F
:10173000446966666572656E6365202867293A208C
:101740000041766572616765205765696768743A1C
:1017500020004D6561737572696E67206C6F6164FE
:101760002063656C6C206E6F6973652C203230309D
:101770002073616D706C65732C2073616D706C6586
:1017800073207065722072656164696E67203D2008
:101790000009616C69676E6D656E740900094765C3
:1017A000744F7574657252656C6F6164536C6F74BD
:1017B0000900436865636B696E67204F75746572D5
:1017C00052656C6F61644973416C69676E6564282A
:1017D000293A204765744F7574657252656C6F6164
:1017E00064536C6F744173466C6F617409000961D6
:1017F0006C69676E6D656E74090009476574496EA2
:101800006E657252656C6F6164536C6F740900434E
:101810006865636B696E6720496E6E657252656CB0
:101820006F61644973416C69676E656428293A2069
:10183000476574496E6E657252656C6F6164536C76
:101840006F744173466C6F6174090009496E6E656F
:1018500072536C6F745F48696768203D2009004FC0
:1018600075746572536C6F745F48696768203D20BA
:10187000090009496E6E6572536C6F745F4C6F7727
:10188000203D2009004F75746572536C6F745F4C76
:101890006F77203D20090009496E6E6572536C6FA9
:1018A00074203D2009004F75746572536C6F74206D
:1018B0003D20090009446F6F724F70656E65644585
:1018C0006E636F64657253746570706572506F7388
:1018D0005F4C6F77203D20090009446F6F724F7095
:1018E000656E6564456E636F646572537465707090
:1018F0006572506F735F48696768203D2009004436
:101900006F6F724F70656E6564456E636F6465726C
:1019100053746570706572506F73203D2009000923
:101920004163747561746F724F7574657255704F51
:1019300070746F203D200900094163747561746FF4
:1019400072496E6E657255704F70746F203D20093C
:1019500000094361726F7573656C486F6D65203D5A
:10196000200900094163747561746F72506F7320B0
:101970003D20090009414D54323232506F73697471
:10198000696F6E090009414D54323033506F7369ED
:1019900074696F6E0900094361726F7573656C44F9
:1019A0007269766572506F736974696F6E0900436E
:1019B00061726F7573656C456E636F646572506FAD
:1019C000736974696F6E0900484F4D494E47204452
:1019D0004944204E4F5420574F524B2050524F50A5
:1019E00045524C59212020574520415245204E4F09
:1019F000542041542054484520484F4D45434152BE
:101A00004F5553454C204F50544F2042555420536E
:101A1000484F554C4420424521204F722077652085
:101A20006E65766572206D6F766564206F666620E0
:101A30006F662069742070726F7065726C792E20E9
:101A40004F72206D6F746F7220656E636F64657284
:101A5000206F722063656E74657220656E636F64BB
:101A60006572206973206261642E20536565206D64
:101A7000657373616765732061626F76652E0048D8
:101A80006F6D654361726F7573656C2073657175F9
:101A9000656E6365207375636365737366756C2E1D
:101AA00000094163747561746F724F757465725586
:101AB000704F70746F203D20090009416374756197
:101AC000746F72496E6E657255704F70746F203D01
:101AD000200900094361726F7573656C486F6D650D
:101AE000203D20090009616363656C537465707063
:101AF00065722E63757272656E74506F7369746966
:101B00006F6E2829203D200900537465707065723E
:101B1000506F7330203D20090053746570706572FA
:101B2000206D6F746F72206E6F7420706F776572A6
:101B30006564206F72206E6F74206D6F76696E67BA
:101B4000202D20636C6F73652072656C6F6164205B
:101B5000646F6F7220616E642074727920616761B6
:101B6000696E2E0009486F6D654361726F7573650C
:101B70006C456E636F646572506F736974696F6EE4
:101B8000203D20090009486F6D654361726F7573D0
:101B9000656C53746570706572506F736974696FAA
:101BA0006E203D200900096669727374486F6D6587
:101BB0004361726F7573656C456E636F64657250D7
:101BC0006F736974696F6E203D20090066697273D6
:101BD00074486F6D654361726F7573656C5374659E
:101BE00070706572506F736974696F6E203D200963
:101BF0000043656E7465724D6F746F72456E636FEE
:101C0000646572206973206261642C20697420739A
:101C1000686F756C642068617665206D6F766564A9
:101C2000203533206F72203733202831302D393062
:101C3000292062757420696E7374656164206D6F0C
:101C40007665642043656E746572456E636F646586
:101C500072446966666572656E6365203D20004367
:101C600061726F7573656C4D6F746F72456E636FE3
:101C7000646572206973206261642C20697420732A
:101C8000686F756C642068617665206D6F76656439
:101C9000203735202836352D3835292062757420B7
:101CA000696E7374656164206D6F7665642043614D
:101CB000726F7573656C456E636F646572446966B7
:101CC000666572656E6365203D20000943656E742C
:101CD0006572456E636F64657244696666657265B8
:101CE0006E6365203D200900094361726F7573655D
:101CF0006C456E636F646572446966666572656E95
:101D00006365203D200900094F6666486F6D654395
:101D1000656E746572456E636F646572506F73694A
:101D200074696F6E203D200900094F6666486F6D2B
:101D3000654361726F7573656C456E636F64657240
:101D4000506F736974696F6E203D200900094F66FA
:101D500066486F6D6553746570706572506F736916
:101D600074696F6E203D20090009666972737448BA
:101D70006F6D6543656E746572456E636F64657201
:101D8000506F736974696F6E203D200900096669A0
:101D9000727374486F6D654361726F7573656C45DE
:101DA0006E636F646572506F736974696F6E203D06
:101DB000200900436865636B696E6720656E636F19
:101DC000646572733A206669727374486F6D654317
:101DD00061726F7573656C53746570706572506F66
:101DE000736974696F6E203D2009005374616C6CD7
:101DF000696E672064657465637465642C2064692A
:101E0000646E2774206D6F7665206174206C656147
:101E10007374203520656E636F64657220636F751F
:101E20006E747320696E2031207365632E00546FC9
:101E30006F206D616E7920476F546F506F736974B6
:101E4000696F6E2072657472696573202D206572EA
:101E5000726F72696E67206F75742077697468207D
:101E60006D69736D61746368206265747765656E12
:101E700020414D5431303220616E6420414D543246
:101E800030332F414D54323232206F72206A7573D5
:101E900074206469646E27742067657420746F20F1
:101EA0007461726765742E20476F546F506F736949
:101EB00074696F6E204661696C7572652E0052659B
:101EC000686F6D696E67207375636365737366759C
:101ED0006C2C20676F696E6720746F207472792094
:101EE00074686520476F546F506F736974696F6EC3
:101EF00020616761696E2E005265686F6D696E675B
:101F0000206661696C65642C20676976696E67205C
:101F10007570206F6E20746865206361726F7573D1
:101F2000656C206D6F76656D656E742E0043656E11
:101F300074657220656E636F646572206D69736D80
:101F4000617463682C20676F696E6720746F2072FC
:101F500065686F6D6520746865206361726F757365
:101F6000656C20616E642074727920616761696EAE
:101F7000005265747279696E6720746865206361C8
:101F8000726F7573656C206D6F76656D656E74200C
:101F900064756520746F2063656E74657220656E6C
:101FA000636F646572206D69736D61746368202D61
:101FB00020736C697070696E672063656E746572FA
:101FC00020656E636F6465722E204C696D697420A4
:101FD0006F6620333520616E642061637475616CB7
:101FE000206F6620005265747279696E672074688C
:101FF00065206361726F7573656C206D6F76656DBA
:10200000656E742064756520746F207374657070DC
:102010006572206D6F746F7220656E636F64657298
:10202000206D69736D61746368202D206C696B6528
:102030006C79207374616C6C6564206D6F746F7261
:102040002C20746F6F2068656176792C20746F6F17
:10205000206D756368206672696374696F6E2C20E9
:102060006F7220626164206D6F746F72206D6F7586
:102070006E7420616C69676E6D656E742F7370721B
:10208000696E672E204C696D6974206F662032304E
:1020900020616E642061637475616C206F6620003E
:1020A000414D5432323220456E636F646572205068
:1020B0006F736974696F6E204572726F72206F66FC
:1020C000200054617267657420414D5432323220D1
:1020D000456E636F64657220506F736974696F6ECB
:1020E000206F66200043757272656E7420414D54F6
:1020F00032323220456E636F64657220506F7369AF
:1021000074696F6E206F662000414D543230332069
:10211000456E636F64657220506F736974696F6E8A
:10212000204572726F72206F66200054617267657D
:102130007420414D5432303320456E636F646572B4
:1021400020506F736974696F6E206F66200043754D
:102150007272656E7420414D5432303320456E6387
:102160006F64657220506F736974696F6E206F665B
:1021700020005374657070657220456E636F6465EE
:102180007220506F736974696F6E204572726F723E
:10219000206F66200043757272656E7420537465FB
:1021A0007070657220456E636F64657220506F7346
:1021B0006974696F6E206F66200053746570706576
:1021C000722044726976657220506F736974696F0A
:1021D0006E204572726F72206F66200043757272B6
:1021E000656E7420537465707065722044726976F0
:1021F000657220506F736974696F6E206F6620007E
:102200004361726F7573656C206D6F76656D656E79
:1022100074206661696C6564202D2073746F707022
:10222000696E672E2020456974686572206E6F2084
:102230006D6F76656D656E7420617420616C6C20C5
:10224000283C352073746570732073696E63652054
:102250006C61737420353030206D736563292C20D8
:102260006F7220706F736974696F6E206465766930
:102270006174696F6E2066726F6D20776865726534
:102280002073686F756C64206265207673207768B0
:1022900065726520617265206261736564206F6E8E
:1022A00020656E636F6465722E0046696E616C20F6
:1022B00052657472792023342C206C6F77657269B3
:1022C0006E6720616363656C65726174696F6E200F
:1022D000616E642072616973696E67206D6F7665E7
:1022E0002063757272656E742E0052657472792067
:1022F00023332C206C6F776572696E67206163638E
:10230000656C65726174696F6E20616E64207261C4
:102310006973696E67206D6F76652063757272658B
:102320006E742E0052657472792023322C206C6FEB
:10233000776572696E6720616363656C657261744D
:10234000696F6E20616E642072616973696E6720C7
:102350006D6F76652063757272656E742E005265BE
:102360007472792023312C206C6F776572696E67E7
:1023700020616363656C65726174696F6E20616E64
:10238000642072616973696E67206D6F7665206382
:10239000757272656E742E002E2044697374616EBE
:1023A000636546726F6D546172676574203D2000ED
:1023B000292043616C6C65642C2043757272656ED4
:1023C0007420506F736974696F6E203D2000476FF1
:1023D000546F506F736974696F6E456E636F646597
:1023E0007228002E2044697374616E636546726FB3
:1023F0006D546172676574203D2000292043616C33
:102400006C65642C2043757272656E7420506F7316
:102410006974696F6E203D2000476F546F506F7371
:102420006974696F6E280044697374616E636546F0
:10243000726F6D5461726765744D696E7573203D7E
:1024400020090044697374616E636546726F6D5450
:102450006172676574506C7573203D200900446992
:102460007374616E636546726F6D546172676574F3
:10247000203D20090043757272656E74506F736958
:1024800074696F6E203D2009005461726765745055
:102490006F736974696F6E203D2009005472796909
:1024A0006E6720746F20486F6D654361726F75733E
:1024B000656C2C2073696E63652069742068617394
:1024C0006E2774207375636365737366756C6C79BE
:1024D00020686F6D6564207965742E00496E7661A1
:1024E0006C696420736C6F74206E756D6265722008
:1024F00000496E76616C696420736C6F74206E7530
:102500006D6265722000496E76616C696420736C3F
:102510006F74206E756D62657220005246494420CA
:1025200072617720646174613A2000524649442008
:1025300063617264206E756D6265723A20002C20B2
:10254000466F756E64203D2000524649444C6F6FC3
:10255000702000436865636B696E6720524649448A
:102560002053656E736F723A00206F6620000A0A6E
:102570004379636C6520004F766572616C6C2072E4
:102580006573756C74203D202A2A2A4641494C45C2
:10259000442A2A2A004F766572616C6C207265733A
:1025A000756C74203D202A2A2A5041535345442AF1
:1025B0002A2A004E756D626572206F66206D6F76F7
:1025C000656D656E74206661696C75726573203D1A
:1025D00020004E756D626572206F66206D6F7665A6
:1025E0006D656E742072657472696573203D20009C
:1025F000206379636C65732E000A0A46696E6973FD
:10260000686564204379636C652054657374206F3A
:102610006620006E756D4661696C75726573203D4C
:1026200020006E756D52657472696573203D2000DF
:1026300053756363657373203D200067476F546F64
:10264000506F736974696F6E526574726965732037
:102650003D2000476F546F44697370656E73655316
:102660006C6F74203D20006E756D4661696C7572EB
:102670006573203D20006E756D52657472696573D7
:10268000203D200053756363657373203D20006710
:10269000476F546F506F736974696F6E52657472CF
:1026A000696573203D2000476F546F4469737065FE
:1026B0006E7365536C6F74203D20005E646F6F72A3
:1026C0005F6F70656E65643A307C3A24005E646FBB
:1026D0006F725F6F70656E65643A307C3A24005E9D
:1026E000646F6F725F636C6F7365643A307C3A2419
:1026F000005E646F6F725F636C6F7365643A307C09
:102700003A240052657363616E204C6566746F767F
:102710006572203D200052657363616E20577261BF
:1027200070203D200052657363616E204C656674B5
:102730006F766572203D200052657363616E204E96
:102740006F2057726170203D200052657363616E87
:10275000204C6566746F766572203D20005265736B
:1027600063616E2057726170203D20005265736373
:10277000616E204C6566746F766572203D20005254
:10278000657363616E204E6F2057726170203D202B
:102790000052657363616E20416C6C203D20003AED
:1027A00024005E6F7665723A317C003A24005E6FD9
:1027B0007665723A317C005E70617573653A005ED1
:1027C00072657365743A005E63616E63656C3A00AE
:1027D0005E70617573653A005E72657365743A0088
:1027E0005E63616E63656C3A003A24005E6D6973E6
:1027F000733A317C003A24005E6D6973733A317C20
:10280000003A24005E7365745F7363616C655F6C8E
:102810006564735F726573703A327C737563636568
:1028200073733A003A24005E7365745F7363616C7E
:10283000655F6C6564735F726573703A327C737543
:1028400063636573733A007365745F7363616C658A
:102850005F6C656473006F66660066696E697368B5
:10286000656400616C6572740064697370656E7391
:10287000696E67006469737000626F776C006163F2
:10288000746976650069646C650056616C756520D5
:102890007061737365643D00496E207365745F7386
:1028A00063616C655F6C65647321003A24005E644B
:1028B000656D6F5F726573703A327C7375636365C3
:1028C00073733A003A24005E64656D6F5F726573DE
:1028D000703A327C737563636573733A0064656D37
:1028E0006F0056616C7565207061737365643D009F
:1028F000496E2064656D6F2066756E6374696F6ED6
:1029000021005E70696E673A307C3A24005E70691F
:102910006E673A307C3A24005E646F6F725F756E4A
:102920006C6F636B5F726573703A317C7375636350
:102930006573733A24005E646F6F725F756E6C6FBF
:10294000636B5F726573703A317C73756363657333
:10295000733A2400646F6F725F756E6C6F636B0007
:10296000416674657220556E6C6F636B696E672C7F
:102970002052656C6F6164446F6F72556E6C6F634B
:102980006B53656E736550696E3A20004265666FE1
:10299000726520556E6C6F636B696E672C20526593
:1029A0006C6F6164446F6F72556E6C6F636B5365CF
:1029B0006E736550696E3A2000496E20646F6F72C5
:1029C0005F756E6C6F636B2066756E6374696F6E96
:1029D00021005E636162696E65745F6C6F636B5F3B
:1029E000726573703A317C737563636573733A24EF
:1029F000005E636162696E65745F6C6F636B5F72CA
:102A00006573703A317C737563636573733A240040
:102A1000636162696E65745F6C6F636B00416674BD
:102A20006572204C6F636B696E672C204578746506
:102A3000726E616C446F6F72556E6C6F636B536531
:102A40006E736550696E3A20004265666F7265204C
:102A50004C6F636B696E672C2045787465726E618C
:102A60006C446F6F72556E6C6F636B53656E7365FC
:102A700050696E3A2000496E20636162696E657428
:102A80005F6C6F636B2066756E6374696F6E210097
:102A90005E636162696E65745F756E6C6F636B5FB8
:102AA000726573703A317C737563636573733A242E
:102AB000005E636162696E65745F756E6C6F636BF7
:102AC0005F726573703A317C737563636573733AD3
:102AD0002400636162696E65745F756E6C6F636B11
:102AE00000416674657220556E6C6F636B696E672A
:102AF0002C2045787465726E616C446F6F72556EF0
:102B00006C6F636B53656E736550696E3A2000425B
:102B100065666F726520556E6C6F636B696E672CAE
:102B20002045787465726E616C446F6F72556E6C7F
:102B30006F636B53656E736550696E3A2000496E22
:102B400020636162696E65745F756E6C6F636B2084
:102B500066756E6374696F6E21006C6F636B65647C
:102B600000756E6C6F636B6564003A2400636C6F74
:102B70007365643A006F70656E3A006C6F636B65E5
:102B80006400756E6C6F636B6564005E646F6F727A
:102B90005F7374617475735F726573703A327C0031
:102BA0003A2400636C6F7365643A006F70656E3A27
:102BB000005E646F6F725F7374617475735F7265CA
:102BC00073703A327C00646F6F725F7374617475F6
:102BD000730052656C6F6164446F6F72556E6C6FF9
:102BE000636B53656E736550696E203D20005265BE
:102BF0006C6F6164446F6F724F70656E203D200092
:102C000041313420414D49532D3330353433205632
:102C100064642052656C6F6164446F6F72436C6FC3
:102C2000736564203D200072656D6F766564006990
:102C30006E736572746564003A240072656D6F7618
:102C4000656400696E736572746564005E776970AF
:102C500065725F7374617475735F726573703A3116
:102C60007C003A24005E77697065725F73746174EA
:102C700075735F726573703A317C00776970657245
:102C80005F737461747573005769706572496E7310
:102C90006572746564203D20006C6F636B65640031
:102CA000756E6C6F636B6564003A24006F70656EBF
:102CB0003A00636C6F7365643A006C6F636B6564B4
:102CC00000756E6C6F636B6564005E636162696E54
:102CD00065745F7374617475735F726573703A3293
:102CE0007C003A24006F70656E3A00636C6F736508
:102CF000643A005E636162696E65745F73746174E7
:102D000075735F726573703A327C00636162696EDD
:102D100065745F7374617475730045787465726E61
:102D2000616C446F6F72556E6C6F636B53656E733D
:102D30006550696E203D2000436162696E65744490
:102D40006F6F72436C6F736564203D20003A2400FE
:102D50005E706F736974696F6E5F63616E697374BF
:102D600065725F7265706C6163655F726573703AFE
:102D7000327C6661696C7572653A003A24005E7057
:102D80006F736974696F6E5F63616E697374657286
:102D90005F7265706C6163655F726573703A327CF7
:102DA0006661696C7572653A003A24005E706F73F3
:102DB0006974696F6E5F63616E69737465725F7267
:102DC00065706C6163655F726573703A327C7375B0
:102DD00063636573733A003A24005E706F736974BD
:102DE000696F6E5F63616E69737465725F7265703F
:102DF0006C6163655F726573703A327C737563638F
:102E00006573733A00706F736974696F6E5F6361A5
:102E10006E69737465725F7265706C61636500568C
:102E2000616C7565207061737365643D00496E2047
:102E3000706F736974696F6E2063616E6973746516
:102E400072207265706C6163652066756E6374696B
:102E50006F6E2100496E2070617573652066756E16
:102E60006374696F6E21005E72657363616E5F7378
:102E70007461727465643A307C3A24005E726573E2
:102E800063616E5F737461727465643A307C3A2476
:102E9000005E72657363616E5F66696E6973686513
:102EA000643A307C3A24005E72657363616E5F66DB
:102EB000696E69736865643A307C3A24005E7265B5
:102EC0007363616E5F63616E6973746572735F7261
:102ED0006573703A317C6661696C7572653A24007D
:102EE0005E72657363616E5F63616E697374657250
:102EF000735F726573703A317C6661696C75726577
:102F00003A2400486176655765537563636573734A
:102F100066756C6C79486F6D65644361726F75732B
:102F2000656C4265666F7265203D2000486F6D6577
:102F30004163747561746F72537563636573734F26
:102F40006E53746172747570203D20005361666524
:102F5000546F526F746174654361726F7573656C01
:102F60002829203D200052656C6F6164446F6F72A8
:102F70004F70656E203D20005E72657363616E5F09
:102F800063616E6973746572735F726573703A31F1
:102F90007C737563636573733A24005E7265736353
:102FA000616E5F63616E6973746572735F7265737E
:102FB000703A317C737563636573733A24002152F0
:102FC000656C6F6164446F6F724F70656E2026266A
:102FD0002053616665546F526F746174654361720A
:102FE0006F7573656C282920262620486F6D654112
:102FF00063747561746F72537563636573734F6E39
:103000005374617274757020262620486176655766
:10301000655375636365737366756C6C79486F6D22
:1030200065644361726F7573656C4265666F726546
:10303000203D2000556E61626C6520746F207265C2
:103040007363616E2063616E69737465727320646B
:10305000756520746F207468697320636865636B9D
:10306000206661696C696E673A00547279696E67AF
:1030700020746F20486F6D654361726F7573656C66
:103080002C2073696E6365206974206861736E27F4
:1030900074207375636365737366756C6C792068EF
:1030A0006F6D6564207965742E00496E20726573BA
:1030B00063616E5F63616E697374657273206675B8
:1030C0006E6374696F6E2100626C61636B00776878
:1030D000697465005E72657365745F726573703ADA
:1030E000317C737563636573733A24005E72657334
:1030F00065745F726573703A317C73756363657371
:10310000733A2400496E2072657365742066756E8B
:103110006374696F6E21005E63616E63656C5F72DC
:103120006573703A317C737563636573733A240019
:103130005E63616E63656C5F726573703A317C7358
:103140007563636573733A2400496E2063616E632F
:10315000656C2066756E6374696F6E2100496E2020
:10316000726573756D655F66756E6374696F6E20E9
:1031700066756E6374696F6E21003A24005E737920
:103180007374656D5F636865636B5F726573703AD6
:10319000317C00496E2073797374656D5F63686577
:1031A000636B2066756E6374696F6E21003A24004C
:1031B0005E7374617475735F726573703A317C000D
:1031C0003A24005E7374617475735F726573703A4C
:1031D000317C0052656C6F6164446F6F72556E6C28
:1031E0006F636B53656E736550696E203D200057A9
:1031F00069706572496E736572746564203D200064
:1032000009486F6C6550756E63684F7574657253CD
:103210006166654F70746F203D200009486F6C65D2
:1032200050756E6368496E6E6572536166654F7066
:10323000746F203D2000656E636F646572486F6C2B
:103240006550756E63684D6F746F72506F73203D7B
:103250002000094163747561746F724F75746572F3
:1032600055704F70746F203D200009416374756183
:10327000746F72496E6E657255704F70746F203D39
:1032800020004163747561746F72456E636F64658D
:1032900072203D200041313420414D49532D3330BF
:1032A000353433205664642052656C6F6164446F1A
:1032B0006F72436C6F736564203D200043757272BA
:1032C000656E74205765696768743A0900496E2015
:1032D0007374617475735F66756E6374696F6E2065
:1032E00066756E6374696F6E21005E626F776C5FE6
:1032F0007765696768745F726573703A327C73755D
:1033000063636573733A005E626F776C5F776569BC
:103310006768745F726573703A327C737563636556
:1033200073733A005E626F776C5F77656967687484
:103330005F726573703A327C6661696C7572653A6A
:10334000005E626F776C5F7765696768745F72654E
:1033500073703A327C6661696C7572653A002C2034
:1033600053616D706C657320776572653A20004219
:103370006F776C20776569676874204E4F542053CF
:103380004554544C45442C20736F207265747572FB
:103390006E204661696C7572652062757420726575
:1033A0007475726E204162736F6C757465576569D0
:1033B00067687420616E797761792C204162736F40
:1033C0006C757465576569676874203D20004E65AB
:1033D00077205246494420746167206465746563B0
:1033E0007465642C2074686579206D757374206829
:1033F000617665207377617070656420626F776CA9
:10340000732C20736F207765206E65656420746F60
:103410002073656E6420626F776C5F706C616365AA
:1034200064206E6F77206265666F726520626F77C9
:103430006C5F7765696768745F726573702E0052A0
:103440004649442074616773206D617463682C2061
:103450006E6F206E65656420746F207468726F777C
:1034600020626F776C5F706C616365642065766560
:103470006E74003A24003A005E63616C69627261A6
:1034800074655F7363616C655F726573703A337CFA
:10349000737563636573733A003A24003A005E63A0
:1034A000616C6962726174655F7363616C655F72A0
:1034B0006573703A337C737563636573733A004167
:1034C00066746572207368696674696E67205363F9
:1034D000616C655F43616C6962726174696F6E20D3
:1034E0002873686F756C642062652074686520734A
:1034F000616D65293A20004265666F7265207368C8
:10350000696674696E67205363616C655F43616CC3
:103510006962726174696F6E3A2000416674657207
:10352000207368696674696E67205363616C655FB8
:1035300043616C6962726174696F6E5F32303067CB
:103540003A20004265666F72652073686966746927
:103550006E67205363616C655F43616C6962726181
:1035600074696F6E5F323030673A2000416674656F
:10357000722043616C6962726174696E6720303ACF
:1035800020004265666F72652043616C69627261FA
:1035900074696E6720303A2000496E2063616C695F
:1035A00062726174655F7363616C655F736869669D
:1035B000745F7A65726F2066756E6374696F6E21D1
:1035C000005E70756E63685F686F6C655F726573CF
:1035D000703A317C6661696C7572653A24005E7080
:1035E000756E63685F686F6C655F726573703A31A2
:1035F0007C6661696C7572653A24003A24005E70DD
:10360000756E63685F686F6C655F726573703A3280
:103610007C737563636573733A24003A24005E70AB
:10362000756E63685F686F6C655F726573703A3260
:103630007C737563636573733A0070756E63685F5E
:10364000686F6C6500436C656172696E6720616CC0
:103650006C20496E697469616C4163747561746F43
:1036600072506F736974696F6E735B5D20616E6415
:103670002053657269616C4E756D62657248617345
:103680004265656E44697370656E7365645B5D2E3B
:1036900000206F7574206F6620626F756E64732CE6
:1036A0002063616E6E6F7420736574207468697333
:1036B00020696E2074686520454550524F4D2E009C
:1036C000736C6F745F6E756D626572200029207473
:1036D0006F20005D2028736C6F7420005365747434
:1036E000696E6720496E697469616C4163747561C4
:1036F000746F72506F736974696F6E735B004669A3
:103700006E616C20656E636F646572203D200041C0
:1037100066746572206272616B652C20656E636FE2
:10372000646572203D200044657369726564207091
:103730006F736974696F6E203D2000416374756119
:10374000746F7252657475726E546F486F6D654612
:103750006173742C204265666F726520456E636FDD
:10376000646572203D2000436865636B2063656E6D
:1037700074657220656E636F64657220666F722077
:103780006C6F6F73656E6573732F736C697070699E
:103790006E67202D206569746865722074686520E5
:1037A00079656C6C6F7720696E73657274206861DF
:1037B0007320636F6D65206C6F6F73652066726F29
:1037C0006D207468652073686166742C206861736D
:1037D00020706F70706564206F7574206F66206351
:1037E000656E74657220656E636F6465722C206F00
:1037F00072207468652077686F6C6520656E636FF2
:1038000064657220697473656C66206861732074E6
:103810006F6F206D75636820776967676C652074CA
:103820006F2069742C206E65656473206D6F7265FE
:103830002074617065206F722069736E2774207325
:1038400065617465642077656C6C2E002A2A2A46AF
:1038500041494C45442A2A2A002A2A2A50415353D6
:1038600045442A2A2A004174206C65617374206FD4
:103870006E65206F6620746865206361726F757372
:10388000656C206D6F76656D656E74732066616919
:103890006C65642C20736F207468697320697320D1
:1038A00061206661696C75726520616E64206E6F5F
:1038B0007420612076616C69642063656E74657242
:1038C00020656E636F64657220736C697070696ED9
:1038D0006720746573742E002A2A2A4641494C4594
:1038E000442A2A2A00546869732076616C75652021
:1038F00073686F756C64206265203C2031352074DC
:103900006F20656E73757265206E6F20736C6970C1
:1039100070696E672E00446966666572656E6365E0
:1039200020696E2063656E74657220656E636F64D6
:10393000657220706F736974696F6E207768656E49
:10394000206D6F76696E6720636C6F636B77697348
:103950006520767320636F756E746572636C6F6338
:103960006B77697365206973200043656E746572B7
:1039700020656E636F64657220506F736974696F40
:103980006E4174536C6F743130434357203D2000B7
:1039900043656E74657220656E636F646572205056
:1039A0006F736974696F6E4174536C6F7431304317
:1039B00057203D20000A43656E74657220656E6372
:1039C0006F64657220506F736974696F6E417448DB
:1039D0006F6D65203D20002054696D65730043794B
:1039E000636C652054657374205246494420446FCB
:1039F0006E652C2052464944204D697373696E6789
:103A000020002054696D6573004379636C65205410
:103A1000657374205246494420446F6E652C2052D1
:103A200046494420446574656374656420002054ED
:103A3000696D6573002054696D65732C2052464989
:103A400044204D697373696E6720004379636C6528
:103A5000205465737420526573756C747320536FB2
:103A600020466172202D20524649442044657465E9
:103A700063746564200020636F6D706C65746564A9
:103A80002C20486F7572732052656D61696E696E86
:103A900067203D2000206F7574206F6620004379F9
:103AA000636C65200052464944204E6F7420446583
:103AB00074656374656421005E77697065725F7216
:103AC000656D6F7665643A307C3A24005E77697084
:103AD00065725F72656D6F7665643A307C3A24007A
:103AE0005E77697065725F696E7365727465643A5A
:103AF000307C3A24005E77697065725F696E736529
:103B0000727465643A307C3A240066696E69736841
:103B1000656400616C6572740064697370656E73CE
:103B2000696E6700626F776C006163746976650027
:103B300069646C65003A24005E6E61636B3A317CA7
:103B4000003A24005E6E61636B3A317C00637963F6
:103B50006C655F746573745F726669640063796332
:103B60006C655F746573745F616C6C006379636C22
:103B7000655F746573745F686F6C6570756E63689C
:103B8000006379636C655F746573745F61637475FA
:103B900061746F7273006379636C655F74657374CD
:103BA0005F6361726F7573656C00746573745F73C6
:103BB00063616C655F6E6F69736500746573745FD4
:103BC0006361726F7573656C5F656E636F64657258
:103BD0007300746573745F6361726F7573656C5F96
:103BE0006672696374696F6E007A65726F5F636590
:103BF0006E7465725F656E636F6465720073657481
:103C00005F726669645F6F7665727269646500648D
:103C1000656372656173655F70616E656C5F62722A
:103C2000696768746E65737300696E63726561734A
:103C3000655F70616E656C5F6272696768746E65FE
:103C40007373007365745F70616E656C5F62726937
:103C50006768746E657373006361726F7573656C0A
:103C60005F706F736974696F6E00616374756174FE
:103C70006F725F636F756E746572636C6F636B7781
:103C8000697365006163747561746F725F636C6FF3
:103C9000636B77697365006163747561746F725FDC
:103CA00072657475726E746F686F6D65666173743A
:103CB000706964006163747561746F725F726574BA
:103CC00075726E746F686F6D6566617374006163A1
:103CD000747561746F725F706F736974696F6E0071
:103CE0006163747561746F725F686F6D6500736591
:103CF000745F696E697469616C5F61637475617426
:103D00006F725F706F736974696F6E00636C656169
:103D1000725F6163747561746F725F706F736974E1
:103D2000696F6E730031323334353637383930319C
:103D3000323334353637383930313233343536373B
:103D4000383930313233343536373839303132332F
:103D5000343536373839300070756E63685F686F98
:103D60006C650063616C6962726174655F73636145
:103D70006C655F73686966745F7A65726F00636112
:103D80006C6962726174655F7363616C650076650E
:103D90007273696F6E00626F776C5F7765696768D1
:103DA0007400626F776C5F73746174757300737401
:103DB000617475730073797374656D5F63686563AF
:103DC0006B00666F726365007363616E5F616C6C3C
:103DD00000726573756D650063616E63656C00727A
:103DE00065736574007365745F64656D6F5F6D6F97
:103DF0006465007365745F6861735F72656C6F61A1
:103E0000645F646F6F725F6C6F636B007365745F88
:103E1000626F776C5F617265615F636F6C6F725F19
:103E20007479706500706F7765725F736176655F36
:103E30006D6F64650072657363616E5F63616E6967
:103E4000737465727300706175736500706F736968
:103E500074696F6E5F63616E69737465725F7265BA
:103E6000706C616365007363616E5F626172636F42
:103E7000646500636162696E65745F737461747513
:103E8000730077697065725F737461747573006431
:103E90006F6F725F73746174757300636162696ED2
:103EA00065745F756E6C6F636B00636162696E65EC
:103EB000745F6C6F636B00646F6F725F756E6C6FB5
:103EC000636B00646F6F725F6C6F636B0064697328
:103ED00070656E73655F66756C6C5F63616E0064C0
:103EE000697370656E73655F74696D65640064699C
:103EF0007370656E73655F616C6C00646973706587
:103F00006E73655F7765696768740070696E6700D6
:103F100064656D6F00706F736974696F6E5F636164
:103F20006E6973746572007365745F7363616C6549
:103F30005F6C656473007365745F6C656473002DFA
:103F40002D2D2D2D2D2D2D2D2D2D2D2D2D00706157
:103F500072616D33203D2000706172616D32203DD1
:103F60002000706172616D31203D200070617261CE
:103F70006D32203D2000706172616D31203D200066
:103F8000706172616D31203D2000416C6C2074685D
:103F90006520646174612076616C756573203D20D5
:103FA00000496E7465676572204E756D506172616F
:103FB0006D6574657273203D2000416C6C2050610A
:103FC00072616D732050617373656420004D657379
:103FD0007361676554797065203D20002A2A2A2A7A
:103FE0002A2A2A2A2A2A2A2A2A2A2A2A2A003A2451
:103FF000003A240030303030303030303030003053
:10400000303030303030303030005E626F776C5F8F
:10401000706C616365643A357C005E626F776C5FDB
:10402000706C616365643A357C00436F6C6F72201D
:1040300073656E736F7273206E6F7420696E737424
:10404000616C6C65642C2064656661756C74696E66
:104050006720746F20524742282D312C2D312C2D92
:104060003129005E626F776C5F72656D6F76656493
:104070003A307C3A24005E626F776C5F72656D6FD8
:104080007665643A307C3A240044697374616E63E7
:10409000652073656E736F72207265616420564C83
:1040A00036313830585F4552524F525F4E4F434F72
:1040B0004E56455247452C20736F207468726F77B7
:1040C000696E6720626F776C5F72656D6F7665648D
:1040D000206576656E74206966204162736F6C7529
:1040E000746557656967687420697320616C736FC4
:1040F000203C2033352E20205479706963616C6C2C
:10410000792068617070656E7320776865726520CC
:1041100074686520626F776C207761732072656DBB
:104120006F76656420717569636B6C79207769744B
:10413000686F757420612072616E676520726561B9
:1041400064696E6720617661696C61626C6520618B
:104150006E796D6F72652C206F72206120626C61C8
:10416000636B20626F776C20696E20626C61636B99
:104170002061726561206973206861726420746FC8
:1041800020726561642E204162736F6C757465578F
:104190006569676874203D20002C204162736F6C54
:1041A000757465576569676874203D200052616EBB
:1041B0006765203E203630206F72204162736F6C3D
:1041C000757465576569676874203C2033352C2009
:1041D000736F207468726F77696E6720626F776C97
:1041E0005F72656D6F766564206576656E742E20EE
:1041F00052616E6765203D20003A24003030303037
:1042000030303030303000524649445265616446A7
:1042100061696C436F756E743D31302E20576F7538
:104220006C642068617665207468726F776E2074A4
:1042300068697320626F776C5F706C61636564207E
:104240006576656E742065786365707420524649A2
:1042500044204F76657272696465206973206E6FC1
:1042600074206F6E2C20736F206469646E27743A1B
:10427000205E626F776C5F706C616365643A357C59
:10428000003A2400303030303030303030300043AD
:104290006865636B205246494420746167732E2021
:1042A000576F756C642068617665207468726F77EB
:1042B0006E207468697320626F776C5F706C6163E5
:1042C0006564206576656E7420657863657074201A
:1042D00052464944204F766572726964652069735D
:1042E000206E6F74206F6E2C20736F206469646E73
:1042F00027743A205E626F776C5F706C61636564EF
:104300003A357C002C20426F776C506C6163656499
:1043100053616D706C6573416674657252464944B1
:10432000203D20002C204162736F6C7574655765C9
:1043300069676874203D200052616E6765203D20EA
:10434000002C20426F776C506C6163656453616D23
:10435000706C65734265666F726552464944203DD4
:1043600020002C204162736F6C7574655765696716
:104370006874203D200052616E6765203D20003A40
:1043800024005E706F736974696F6E5F63616E693C
:10439000737465725F726573703A327C6661696CC2
:1043A0007572653A003A24005E706F736974696FC4
:1043B0006E5F63616E69737465725F726573703A84
:1043C000327C6661696C7572653A003A24005E70F1
:1043D0006F736974696F6E5F63616E697374657220
:1043E0005F726573703A327C737563636573733A99
:1043F000003A24005E706F736974696F6E5F636169
:104400006E69737465725F726573703A327C73752E
:1044100063636573733A00706F736974696F6E5F7D
:1044200063616E69737465720056616C75652070A6
:1044300061737365643D00496E20706F73697469C0
:104440006F6E2063616E69737465722066756E634A
:1044500074696F6E21005E646F6F725F6C6F636B67
:104460005F726573703A317C737563636573733A19
:1044700024005E646F6F725F6C6F636B5F72657355
:10448000703A317C737563636573733A2400646FAB
:104490006F725F6C6F636B004166746572204C6F66
:1044A000636B696E672C2052656C6F6164446F6F3B
:1044B00072556E6C6F636B53656E736550696E3ABF
:1044C00020004265666F7265204C6F636B696E6792
:1044D0002C2052656C6F6164446F6F72556E6C6F07
:1044E000636B53656E736550696E3A2000496E20A8
:1044F000646F6F725F6C6F636B2066756E63746957
:104500006F6E210050726F64756374494420697343
:10451000206120726567756C6172206469737065D3
:104520006E73652073706565642070726F64756367
:10453000742C20736F20646F206E6F726D616C201D
:1045400064697370656E73652E0050726F64756375
:104550007449442069732061206661737420646922
:104560007370656E73652073706565642070726F1B
:10457000647563742C20736F20676F206661737499
:10458000657220616E6420646F6E277420736C6F97
:104590007720646F776E20617420656E642E003022
:1045A000303239003030323800303032370030307D
:1045B0003236003030323400474F4C4457454C4C73
:1045C0002D415348003030353800474F4C44574553
:1045D0004C4C2D313147003030353700474F4C447B
:1045E00057454C4C2D384341003030353600474F4D
:1045F0004C4457454C4C2D35520030303535004732
:104600004F4C4457454C4C2D354B00303035340021
:10461000474F4C4457454C4C2D52520030303533A7
:1046200000474F4C4457454C4C2D565600303035C2
:104630003200474F4C4457454C4C2D4747003030D3
:10464000353100474F4C4457454C4C2D4B4B0030B7
:1046500030353000474F4C4457454C4C2D500030BE
:1046600030343900474F4C4457454C4C2D410030B5
:1046700030343800474F4C4457454C4C2D3842009D
:104680003030343700474F4C4457454C4C2D344262
:10469000003030343600474F4C4457454C4C2D3594
:1046A0004D42003030343500474F4C4457454C4C58
:1046B0002D313141003030343400474F4C445745A0
:1046C0004C4C2D313041003030343300474F4C4496
:1046D00057454C4C2D3941003030343200474F4C57
:1046E0004457454C4C2D3541003030343100474F54
:1046F0004C4457454C4C2D3241003030343000474B
:104700004F4C4457454C4C2D38470030303339001E
:10471000474F4C4457454C4C2D37470030303338C9
:1047200000474F4C4457454C4C2D344700303033F4
:104730003700474F4C4457454C4C2D31304E0030DC
:1047400030333600474F4C4457454C4C2D384E00C3
:104750003030333500474F4C4457454C4C2D364E86
:10476000003030333400474F4C4457454C4C2D34C7
:104770004E003030333300474F4C4457454C4C2D9E
:10478000324E003030333200434C4943532D5632C1
:104790002D314E003030333000434C4943532D56B9
:1047A000322D4C49003030323900434C4943532DAF
:1047B00056322D443430003030323800434C4943B7
:1047C000532D56322D443230003030323700434CB6
:1047D0004943532D56322D44300030303236004399
:1047E0004C4943532D56322D50480030303235005D
:1047F000434C4943532D56322D434C003030323414
:1048000000434C4943532D56322D434F4200303024
:10481000323300434C4943532D56322D4C54594F9B
:10482000003030323200434C4943532D56322D4F25
:1048300059003030323100434C4943532D56322D0C
:104840004C544F52003030323000434C4943532DCA
:1048500056322D524F003030313900434C494353CA
:104860002D56322D5652003030313800434C4943DA
:10487000532D56322D4C54564200303031370043C0
:104880004C4943532D56322D4256003030313600BC
:10489000434C4943532D56322D4247003030313579
:1048A00000434C4943532D56322D4C544242003064
:1048B00030313400434C4943532D56322D5900308A
:1048C00030313300434C4943532D56322D4F003085
:1048D00030313200434C4943532D56322D42003083
:1048E00030313100434C4943532D56322D52003064
:1048F00030313000434C4943532D56322D47003060
:1049000030303900434C4943532D56322D56003038
:1049100030303800434C4943532D56322D31324EFE
:10492000003030303700434C4943532D56322D313F
:10493000304E003030303600434C4943532D563210
:104940002D384E003030303500434C4943532D56FE
:10495000322D364E003030303400434C4943532D15
:1049600056322D344E003030303300434C494353DF
:104970002D56322D324E003030303200434C4943F8
:10498000532D56322D30304E0030303031002C2037
:1049900050726F647563744E616D65206973200099
:1049A0002C2050726F647563744944206973200031
:1049B00063616E6973746572436F64652069732007
:1049C0000054686973206973204C69676874656E68
:1049D00065722C20736F20646F6E277420676F20C0
:1049E00061732066617374206F7468657277697390
:1049F0006520636F756C6420686176652070696EF0
:104A00006368206F66662069737375652E003030A9
:104A10003239003A2409003A00095E646973705F14
:104A200070726F67726573733A327C003A24003A91
:104A3000005E646973705F70726F67726573733A5A
:104A4000327C00526573746F7265642F53617665B2
:104A50006420496E697469616C4163747561746F37
:104A600072506F736974696F6E446174613A004982
:104A70006E2D6D656D6F727920496E697469616C18
:104A80004163747561746F72506F736974696F6E8E
:104A9000446174613A002C20736F207772697469E5
:104AA0006E6720746F20454550524F4D20657665E6
:104AB0006E2074686F756768206F7574206F66204C
:104AC00072616E67652C20736F206E657874207438
:104AD000696D65206D617920776F726B20626574F6
:104AE0007465722E00203C2050726576696F757374
:104AF000496E697469616C4163747561746F725059
:104B00006F736974696F6E206F6620004E65772041
:104B1000496E697469616C4163747561746F725038
:104B20006F736974696F6E5B5D206F6620003A2455
:104B3000003A003A003A005E64697370656E73650E
:104B40005F7765696768745F726573703A357C7208
:104B5000616E67653A003A24003A003A003A005E16
:104B600064697370656E73655F7765696768745FA4
:104B7000726573703A357C72616E67653A003A24EB
:104B8000003A003A003A005E64697370656E7365BE
:104B90005F7765696768745F726573703A357C73B7
:104BA0007563636573733A003A24003A003A003A39
:104BB000005E64697370656E73655F7765696768C9
:104BC000745F726573703A357C7375636365737374
:104BD0003A003A24003A003A003A005E6469737081
:104BE000656E73655F7765696768745F726573701A
:104BF0003A357C63616E63656C3A003A24003A0092
:104C00003A003A005E64697370656E73655F77653C
:104C1000696768745F726573703A357C63616E634F
:104C2000656C3A002C20736F2077726974696E6727
:104C300020746F20454550524F4D206576656E209B
:104C400074686F7567682074686973206973206180
:104C50002074616D7065722C20736F206E6578749E
:104C60002074696D65206D617920776F726B2062A9
:104C700065747465722E00203C2050726576696FF1
:104C80007573496E697469616C4163747561746FA1
:104C900072506F736974696F6E206F6620004E6585
:104CA0007720496E697469616C4163747561746FD2
:104CB00072506F736974696F6E5B5D206F66200060
:104CC0003A24003A003A003A005E64697370656EF7
:104CD00073655F7765696768745F726573703A358D
:104CE0007C74616D7065723A003A24003A003A00B3
:104CF0003A005E64697370656E73655F77656967B6
:104D000068745F726573703A357C74616D7065723A
:104D10003A0064697370656E73655F616C6C006402
:104D2000697370656E73655F776569676874002C79
:104D30002053686F756C645265747279476F466171
:104D4000737442656361757365466972737444690F
:104D50007370656E736554696D65644F7574203D3D
:104D6000200044697370656E7365206661696C75B7
:104D700072652C206E65656420746F207265747294
:104D8000792C20476F696E6720746F206469737097
:104D9000656E7365206D6F7265206F6E2061207285
:104DA000657472792C2074686973206D756368204E
:104DB0006D6F7265203D20005265747279205375C5
:104DC0006D20416D6F756E745F44697370656E73AD
:104DD0006564203D200054414D50455220444554C7
:104DE00045435445442061667465722066696E6966
:104DF000736865642064697370656E73696E672C8F
:104E00002072657475726E696E672074616D70656D
:104E10007220726573756C74207769746820616D97
:104E20006F756E742064697370656E73656420615C
:104E30007320547261696C696E675765696768743D
:104E4000203D2000416D6F756E745F44697370651D
:104E50006E736564206973206E6567617469766539
:104E60002C206D6F7265207468616E202D31672C67
:104E7000207468657265206D75737420686176654D
:104E8000206265656E20736F6D6520747970652092
:104E90006F662074616D7065722E204E6F7420678E
:104EA0006F696E6720746F2072657472792E00418D
:104EB0006D6F756E745F44697370656E73656420A1
:104EC0003D20002C20626563617573652054726C0F
:104ED0005634207374696C6C20756E646572203072
:104EE0002E3033203D20004C6F6F702054696D656B
:104EF00064204F7574206174204C6F6F7054696D1D
:104F0000656F7574203D20002C204C6F6F70436FCF
:104F1000756E7465725768656E5265616368656425
:104F20004D6178416374756174696F6E203D200036
:104F300053657474696E67204C6F6F7054696D654A
:104F40006F7574203D2000206772616D732C207393
:104F50006F20726576657273652074686520616381
:104F6000747561746F72210041626F757420746F83
:104F70002063726F737320005265636569766564A0
:104F800020612043616E63656C20636F6D6D616E9F
:104F9000642066726F6D206D616368696E6520556F
:104FA000492E0054414D50455220444554454354E8
:104FB00045442C2073746F7070696E672061637450
:104FC000756174696F6E20616E64207265747572AC
:104FD0006E696E672074616D70657220726573759D
:104FE0006C742E0054616D70657220646574656325
:104FF0007465642C20776569676874206D6F7265CD
:10500000206E65676174697665207468616E202D15
:10501000312C20736F6D65626F6479206D757374C8
:1050200020686176652072656D6F766564207765AE
:10503000696768742066726F6D207363616C652C9C
:105040002072657475726E696E672074616D70652B
:10505000722E0020746F20302E30352073696E63FD
:1050600065203C3330206C6F6F7073206C65667404
:1050700000094C6F776572696E67207461726765AD
:10508000742073706565642066726F6D2000094C32
:105090004C09002C204D6178416374756174696F0F
:1050A0006E203D20002C204D617841637475617441
:1050B000696F6E284C6929203D20000953455450E2
:1050C0004F494E542043616C633D000954726C5645
:1050D0003409000954726C5609000954726C57095E
:1050E00000094C6F61642063656C6C2073616D70A6
:1050F0006C696E67206661696C7572652C20676FDC
:1051000074203E3230306720666F7220617665729F
:10511000616765206F66203130782073616D706C37
:1051200065732C2064697363617264696E672061C2
:105130006E642074616B696E67206E6577207361A1
:105140006D706C6520686572653A090053616D7019
:105150000900095475726E41726F756E64000A4CD5
:1051600069676874656E657220666C6F7720637519
:1051700074206F6666205374616C6C696E6720647E
:1051800065746563746564202D20747279696E6737
:10519000204C69676874656E65722061637475611F
:1051A00074696F6E20726574727920230053746184
:1051B0006C6C696E67206465746563746564202D2A
:1051C000207265636F76657279206469646E2774F6
:1051D00020776F726B2C20736F2073746F707069FF
:1051E0006E67207468652064697370656E736520EE
:1051F000736F20776520646F6E27742064616D6122
:10520000676520746865206D6F746F7220616E64CD
:10521000206472697665722E00095475726E41724F
:105220006F756E64000A5374616C6C696E672064FC
:1052300065746563746564202D20747279696E6786
:1052400020746865206261636B2D6F66662D616EE8
:10525000642D676F2D666173742072657472792E88
:105260000009456E64313530004D617841637475D5
:105270006174696F6E203D20005374617274696EB1
:105280006720536574706F696E74496E6974466FF8
:1052900072546869734D616368696E65203D2000D2
:1052A00009536574706F696E74416D6F756E7454D7
:1052B0006F4261636B4F66665768656E48697454E8
:1052C00061726765745370656564203D2000095301
:1052D0006574706F696E744C6F6F70496E63726540
:1052E0006D656E74203D2000097461726765745F9E
:1052F00064697370656E73655F7370656564203D86
:10530000200009414661737444697370656E73656A
:10531000534B55203D20006744656D6F4D6F6465AC
:10532000203D2000426F776C2077656967687420A4
:105330006E6F7420736574746C6564206166746547
:10534000722035207365636F6E64732C20726574F0
:1053500075726E2074616D7065722E00424F574CED
:10536000204E4F5420504C41434544207768656E91
:10537000207374617274696E672064697370656EFE
:105380007365202D20736F206E6F742061637475B8
:105390006174696E672C20616E6420726574757229
:1053A0006E696E672074616D7065722E00094162CE
:1053B000736F6C757465576569676874203D20006C
:1053C000095461726541444356616C7565203D2006
:1053D00000095343414C45203D2000094F464653A8
:1053E0004554203D200054617265576569676874B3
:1053F000203D20005D203D2000496E697469616C8C
:1054000057656967687452656164696E67735B00AC
:105410005363616C65206E6F7420736574746C6582
:10542000642C2062656C6F772073616D706C65739E
:10543000206E6F742077697468696E2031206772FE
:10544000616D2C207265747279696E6720757020A9
:10545000746F20352074696D65732E003A24003A0C
:1054600031302E30303A005E64697370656E73655A
:105470005F7765696768745F726573703A357C74CD
:10548000616D7065723A302E30303A003A24003A3D
:1054900031302E30303A005E64697370656E73652A
:1054A0005F7765696768745F726573703A357C749D
:1054B000616D7065723A302E30303A0064697370F5
:1054C000656E73655F616C6C0064697370656E73A3
:1054D000655F77656967687400706F736974696F79
:1054E0006E5F63616E6973746572206661696C7565
:1054F00072652C2063616E6E6F74206775617261D6
:105500006E746565206361726F7573656C20706F72
:10551000736974696F6E20736F2065786974696E42
:1055200067207468652064697370656E73655F7762
:10553000656967687420636F6D6D616E6420616E6C
:10554000642072657475726E696E672074616D7027
:105550006572210056616C756520706173736564B6
:105560003D0056616C7565207061737365643D0024
:10557000496E2064697370656E736520776569672D
:1055800068742066756E6374696F6E21003A24003A
:105590005E64697370656E73655F74696D65645F81
:1055A000726573703A327C737563636573733A0026
:1055B0003A24005E64697370656E73655F74696D2B
:1055C00065645F726573703A327C7375636365738B
:1055D000733A0064697370656E73655F74696D65B5
:1055E0006400416674657220686F6D652061637444
:1055F00075616C2C20736574706F696E742C2070EB
:10560000776D3A00456E64696E6720416374756119
:10561000746F722061637475616C2C207365747093
:105620006F696E742C2070776D3A005374617274D8
:10563000696E67204163747561746F722061637471
:1056400075616C2C20736574706F696E742C20709A
:10565000776D3A0056616C7565207061737365648F
:105660003D0056616C7565207061737365643D0023
:10567000496E2064697370656E73652074696D6529
:105680006421003A24005E64697370656E73655F1F
:1056900066756C6C5F63616E5F726573703A327CC5
:1056A000737563636573733A003A24005E646973CB
:1056B00070656E73655F66756C6C5F63616E5F725B
:1056C0006573703A327C737563636573733A006413
:1056D000697370656E73655F66756C6C5F63616E30
:1056E00000546F74616C2054696D6520746F2044A0
:1056F000697370656E7365203D206C6F6F70202D2F
:105700002035203D20090046696E616C205765698F
:10571000676874203D200900416674657220686FD7
:105720006D652061637475616C2C20736574706F96
:10573000696E742C2070776D3A00456E64696E67EF
:10574000204163747561746F722061637475616C5C
:105750002C20736574706F696E742C2070776D3AAD
:105760000057656967687420696E63726561736567
:1057700064206279206C657373207468616E2030D8
:105780002E31206772616D7320696E207468652008
:105790006C6173742035207365636F6E64732C20A5
:1057A000736F2073746F7070696E67206C6F6F70A9
:1057B0002E00576569676874203E203335302C20F1
:1057C00065786974696E67206C6F6F7020286361FB
:1057D0006E63656C6C696E67292E000944656C7494
:1057E00061576569676874203D200900095765693C
:1057F000676874203D2009000954696D65203D20CB
:1058000009004C6F6F70203D200900537461727461
:10581000696E67204163747561746F72206163748F
:1058200075616C2C20736574706F696E742C2070B8
:10583000776D3A00092053746172742054696D6564
:10584000203D200900576569676874203D200900E4
:1058500056616C7565207061737365643D005661B7
:105860006C7565207061737365643D00496E2064DA
:10587000697370656E73652066756C6C2063616E0C
:1058800021003A24005E7363616E5F616C6C5F702F
:10589000726F67726573733A317C003A24005E73ED
:1058A00063616E5F616C6C5F70726F67726573735A
:1058B0003A317C003A24003A24005E7363616E5FE3
:1058C000616C6C5F726573703A327C6661696C758D
:1058D00072653A005E7363616E5F616C6C5F7265E6
:1058E00073703A327C6661696C7572653A005E73FA
:1058F00063616E5F616C6C5F726573703A327C736A
:105900007563636573733A005E7363616E5F616CA8
:105910006C5F726573703A327C7375636365737321
:105920003A007363616E5F616C6C00496E20736353
:10593000616E5F616C6C2066756E6374696F6E2159
:105940000053657269616C206E756D6265727320BB
:10595000646F206E6F74206D617463682C207765AE
:1059600020686176656E27742064697370656E7354
:105970006564207769746820746869732063616E58
:105980006973746572206265666F726521202053A9
:105990006F20626C616E6B206F7574207468652077
:1059A00053657269616C4E756D62657248617342D0
:1059B00065656E44697370656E7365645B5D2C200C
:1059C000616E642073746F726520746865206E6503
:1059D000772073657269616C2053657269616C4EE2
:1059E000756D626572735B5D5B355D0053657269F1
:1059F000616C206E756D62657273206D6174636891
:105A00002C207765277665207365656E207468693C
:105A1000732063616E6973746572206265666F726C
:105A2000652100476C6F62616C20496E6974696121
:105A30006C4163747561746F72506F736974696FD0
:105A40006E203D20005D203D2000496E6974696133
:105A50006C4163747561746F72506F736974696FB0
:105A60006E735B005D203D200053657269616C4E72
:105A7000756D6265724861734265656E44697370E5
:105A8000656E7365645B00496E76616C6964206263
:105A90006172636F64652C2063616E277420636F8D
:105AA0006D7061726520626172636F6465732E0050
:105AB000496E76616C696420736C6F74206E756DCD
:105AC0006265722C2063616E277420636F6D706154
:105AD000726520626172636F6465732E0043616E4C
